:10000000020798040D4A989680C10204114BEA60D9
:1000100000C10300EE30E707C3E49FFFE49EFE2229
:100020008080802222E52725E0246EF582E43409D1
:0A003000F583E493FE740193FF22B0
:03003B00021EA7FB
:10004300021ED8020407E86480F8E933E83360113C
:100053000460F0ED33EC337009E8FCE9FDEAFEEBF4
:10006300FF220460DED3EB9FEA9EE99DE8C2E78CA2
:10007300F0C2F795F0400CE8CCF8E9CDF9EACEFAF6
:10008300EBCFFB1203D285D0F05804700320D5B315
:10009300E80470075002B2D502041192D5EC046053
:1000A300F7E4CCC0E0C398F8603B94186008400DB7
:1000B300D0E0FB0203E9E4FBFAC9FC8028E830E462
:1000C30006E4C9FBE4CAFCE830E305E4C9CACBFC97
:1000D300E854076010F8C3E913F9EA13FAEB13FBCA
:1000E300EC13FCD8F130F52FC3E49CFCEF9BFFEE3F
:1000F3009AFEED99FDD0E0FBEF4E4D4C701222DBE2
:100103000302040EEC2CFCEF33FFEE33FEED33FD64
:10011300ED30E7EB0203E9EF2BFFEE3AFEED39FD9D
:10012300D0E0FB50130BBB0003020411ED13FDEEF3
:1001330013FEEF13FFEC13FC0203E9EC4D6011E82F
:10014300497017ED33EC3304600DE4FCFFFEFD2230
:10015300E933E8330470F80204071203D258046049
:1001630009E4CC24815006285009020411284003D5
:1001730002040EC0E0EB4A7044B98006D0E0FB02F3
:1001830003FDEF4E701CBD8008EBFFEAFEE9FD8026
:10019300EBE98DF0A4FEE5F0020227E9CDF9EAFED2
:1001A300EBFFEF89F0A4FCE5F0CE89F0A42EFFE489
:1001B30035F0CD89F0A42DFEE435F08067EF4E7065
:1001C30005BD80D780C3EF8BF0A4ACF0EE8BF0A419
:1001D3002CFCE435F0F8EF8AF0A42CE5F038FCE4CD
:1001E30033CB8DF0A42CFCE5F03BF8EE8AF0A42C85
:1001F300FCE5F038F8E433CF89F0A42CFCE5F038C3
:10020300CF3400CE89F0A42FFFE5F03EFEE433C9DE
:100213008DF0A42EFEE5F039CD8AF0A42FFFE5F092
:100223003EFEE43DFD33D0E0FB50070BBB000F0265
:100233000411EC2CFCEF33FFEE33FEED33FD020330
:10024300E9020411EC5D046005E85904700302043B
:10025300071203D2580460F6EC4860F2EC7004FD18
:10026300FEFF22C860DB2481C85009C39860025096
:100273000602040E9850CAF582E9294B4A7005AB71
:10028300820203FD75F0007C1A7880C3EF9BEE9A1F
:10029300ED99400DC3EF9BFFEE9AFEED99FDE84209
:1002A300F0DC23ACF0D0E0FFD0E0FED0E0FDAB8289
:1002B30020E7101BEB60BAEC2CFCEF33FFEE33FEB0
:1002C300ED33FD0203E9E803F830E705C0F075F00C
:1002D30000EF2FFFEE33FEED33FD40B830E7C28071
:1002E300AA74F8CC6480CCC86480C8F58204604FDB
:1002F300C3EB9FF5F0EA9E42F0E99D42F0E89C458E
:10030300F0603C501DE5825FFFE582D313CB5BCBEE
:10031300F42B5582FB50280ABA002409B90020089F
:10032300801DE5825BFBE582D313CF5FCFF4C3135C
:100333002F5582FF50090EBE00050DBD00010CC3F1
:10034300EB9FF5F0EA9E42F0E99D42F0E89C45F010
:100353006007CC4820E701B3EC2275F020800E75CE
:10036300F010800575F0087D007E007F003392D584
:1003730030D5031205A2EC334010EF33FFEE33FE0A
:10038300ED33FDEC33FCD5F0ED22E5F0247EA2D570
:1003930013CC92E7CDCEFF22EDD2E7CD33EC3392EF
:1003A300D524814006E4FFFEFDFC22FCE4CFCECD44
:1003B300CC24E0501174FF80EDC3CC13CCCD13CD0E
:1003C300CE13CECF13CF0470F030D5DE0205A2E9F1
:1003D300D2E7C933E833F892D5EDD2E7CD33EC3326
:1003E300FC5002B2D522EC30E7100FBF000C0EBE5A
:1003F30000080DBD00040BEB6014A2D5EB13FCED5C
:1004030092E7FD2274FFFCFDFEFF22E480F8A2D5F3
:1004130074FF13FC7D80E480EFC0E0EFFBEEFAEDA8
:10042300F9ECF812013ED0E0F5F0EFFBEEFAEDF94E
:10043300ECF81205E2A3A3A3A3E8C0E0E9C0E0EA55
:10044300C0E0EBC0E0C0F012013E1205F2A3A3A38B
:10045300A312004DD0F0D0E0FBD0E0FAD0E0F9D009
:10046300E0F8D5F0D422E709F608DFFA8046E70979
:10047300F208DFFA803E88828C83E709F0A3DFFA73
:100483008032E309F608DFFA8078E309F208DFFA3D
:10049300807088828C83E309F0A3DFFA8064898209
:1004A3008A83E0A3F608DFFA805889828A83E0A36F
:1004B300F208DFFA804C80D280FA80C680D480694B
:1004C30080F28033801080A680EA809A80A880DA48
:1004D30080E280CA803389828A83ECFAE493A3C8DA
:1004E300C582C8CCC583CCF0A3C8C582C8CCC5839C
:1004F300CCDFE9DEE7800D89828A83E493A3F608E3
:10050300DFF9ECFAA9F0EDFB2289828A83ECFAE0A9
:10051300A3C8C582C8CCC583CCF0A3C8C582C8CC48
:10052300C583CCDFEADEE880DB89828A83E493A398
:10053300F208DFF980CC88F0EF60010E4E60C388CB
:10054300F0ED2402B4040050B9F582EB2402B404A4
:100553000050AF23234582239004B973C2D5EC30F6
:10056300E709B2D5E4C39DFDE49CFCEE30E715B288
:10057300D5E4C39FFFE49EFE12060EC3E49DFDE493
:100583009CFC800312060E30D507C3E49FFFE49E54
:10059300FE22EF4BFFEE4AFEED49FDEC48FC22C381
:1005A300E49FFFE49EFEE49DFDE49CFC22E8600FD3
:1005B300ECC313FCED13FDEE13FEEF13FFD8F12292
:1005C300E8600FEFC333FFEE33FEED33FDEC33FC96
:1005D300D8F122E6FC08E6FD08E6FE08E6FF22E481
:1005E30093FC740193FD740293FE740393FF22E45E
:1005F30093F8740193F9740293FA740393FB22EC56
:10060300F608EDF608EEF608EFF622BC000BBE0086
:1006130029EF8DF084FFADF022E4CCF875F008EFFC
:100623002FFFEE33FEEC33FCEE9DEC984005FCEE21
:100633009DFE0FD5F0E9E4CEFD22EDF8F5F0EE8452
:1006430020D21CFEADF075F008EF2FFFED33FD4017
:1006530007985006D5F0F222C398FD0FD5F0EA2291
:100663003E9248DA3ECCCCCD3F2AAAAB40000000F4
:100673003F8000003F9837F03FB504F33FD744FC79
:100683003E3172173EB172173F0515913EDE5BD9BD
:10069300D2008002C200EDD2E7F8CD33EC33047010
:1006A3000BBD800592D502041102040740FBD3144D
:1006B30060F2F5F07C3FEE7A00C39496C8948B40C9
:1006C300230AC89469C8941A401A0AC89468C8943B
:1006D3001F40110AC8945AC89425400805F07A00AF
:1006E300CDC2E7CDC0F08C2D8D2E8E2F8F30EA2317
:1006F30023C0E02473F582E43406F5831205F21275
:10070300004DECC0E0EDC0E0EEC0E0EFC0E012054C
:10071300E2A82DA92EAA2FAB30120049D0E0FBD0BE
:10072300E0FAD0E0F9D0E0B2E7F81202478C2D8D61
:100733002E8E2F8F30900663740312041CA82DA9EC
:100743002EAA2FAB3012013ED0E0600F247FF5823A
:10075300E43406F5831205F212004D8C2D8D2E8E96
:100763002F8F30D0E0C3947FFDE49400FC1203622A
:100773007B187A727931783F12013EA82DA92EAAEF
:100783002FAB3012004D30000B7BD97A5B79DE78CA
:100793003E12013E22787FE4F6D8FD75815F0207A1
:1007A300DF021E4FE493A3F8E493A34003F6800112
:1007B300F208DFF48029E493A3F85407240CC8C398
:1007C30033C4540F4420C8834004F456800146F6D2
:1007D300DFE4800B0102040810204080900003E452
:1007E3007E019360BCA3FF543F30E509541FFEE430
:1007F30093A360010ECF54C025E060A840B8E493F2
:10080300A3FAE493A3F8E493A3C8C582C8CAC58333
:10081300CAF0A3C8C582C8CAC583CADFE9DEE780B8
:10082300BE011C011D011E011F0120012101220126
:1008330023AD43040007803640B9FF3404033F0669
:100843007B000800040000FFFAFFF5FFF0FFECFF58
:10085300EAFFEAFFECFFF2FFFB00060014002200B0
:100863002E0038003D003A0030001D0003FFE3FF77
:10087300C1FFA0FF85FF74FF72FF80FFA2FFD400BA
:1008830014005D00A700E80118012E012300F40005
:100893009F0029FF9AFEFEFE67FDE5FD8CFD6EFDC0
:1008A3009AFE1AFEF30022019D0354053007160831
:1008B300E80A890BDE0CCD0D490082008500AE01EC
:1008C3000102000208008400000001F000000100A2
:1008D3000C0000000000180007F0001801000C21B4
:1008E3000BF83F010C010D010E010F011001110165
:1008F3001201130115011601170118011902010252
:1009030002040004010402040304040405040604AD
:100913000704080409040A040B040C040D040E0460
:100923004004410442044388E500DE204030420B8A
:10093300FF0083403203DF00058180280C218C31C6
:100943008007FF07FF008107FF07FF40000000004B
:1009530000000007000000000010000000009800E5
:10096300000002002000000000000000820085005B
:10097300AE010001010108010C010D011001130179
:1009830015011902000208040004030407040A0401
:100993000C00000001F0000000000104260000002C
:1009A30040001F000C00000000008C20700000407D
:1009B3000007001000009800080007F0000001186D
:1009C30001FFFF001A0040001F003CC0008000012F
:1009D3008CE1706000700007003007C0D8B00000E1
:1009E30000010ED7010E600204F80204700203B086
:1009F3000403B00202A00201A00402A00401A0E4C7
:100A0300F9E925E02424F582E43408120030E925CD
:100A1300E02434F582E43408121854FDB1B209B964
:100A230008DF22F1A98E258F26E4F527120025C0C1
:100A330006C007120025F1ADE52725E024BAF582AB
:100A4300E43409121854F1FAFFE52725E02494F55C
:100A530082E43409121F75D007D006B1B20527E529
:100A630027C3941340C6E4FBFA7D207F0A7E0471FA
:100A7300977DA67F847E001212B78E278F28AB281E
:100A8300AA277DA67F847E007197121F8D8F27E58D
:100A930027B4020D7B017A007DAAF1EEE4FBFA8014
:100AA30010E527B40311E4FBFA7DAAF1EE7B017A8A
:100AB300007DBBF1EE80057E007F01227B02718FFA
:100AC3007D667F1C121D774E70387B01FA7D107F87
:100AD30020FE7197121BE3C004C005C006C007F1D6
:100AE3000C121A8CD007D006D005D0041200497816
:100AF300CB121F42C20091068F24E52460372440A5
:100B03008047C200121BE88F2A8E298D288C277BF1
:100B130002718F5102D200F10CAB2AAA29A928A88D
:100B23002712004D784B121F4291068F24E5246053
:100B33000424508014AD26AC25B1AE1217FC121854
:100B4300758F24E52460072430FFE433FE22121856
:100B530024D200752F40752E54752D09752C4B1218
:100B63001B01F10A121AEEE5265403640270197B85
:100B7300017D107F20121F00E4FBFA7D117F82FEAE
:100B83007197AD26AC25B1AEE4FEFF227A007D104D
:100B93007F207E008A598B5AA9058F828E83F1ADFF
:100BA300AD07AC06E9C4540FFFE9540FFBC3EF9B39
:100BB3001217B6088005C333CE33CED8F9F4FFEE4F
:100BC300F4FEEFA803088005C333CE33CED8F9F57E
:100BD3005C8E5BE9540FFFE55AAE59A80708800500
:100BE300C333CE33CED8F9FFE55B5EFEE55C5FFF32
:100BF300E55CF4FBE55BF45CFCEB121FAAAF82AE91
:100C030083A1B2F1A98E2F8F307A003000047B02CA
:100C130080027B017191753506E535121CC208808F
:100C230005C333CE33CED8F9FDAC06EC120362AB69
:100C33002EAA2DA92CA82B121A7D7F667E7F7D629A
:100C4300121A4F400D7F267EE57DE5121A4F600D87
:100C5300400B1535C3E5356480948050BCE535FB06
:100C63003395E0FA7D867F1F121A447E00600640AA
:100C7300047F0180027F00EF2401FDE43EFC1203A8
:100C830062121DEC12013E121A8C121A69121D987F
:100C930012039BE412035D121A8C121D8612004983
:100CA300E4FBFA79807849121CB5121D8FE4FFFE2C
:100CB3007D807CC0AB39AA38A937A836121A3EAB5F
:100CC30007AA067DD47F1E7E017197E53DFFE53CB3
:100CD300FEE4AB07AA067DF07F1D7E017197121A11
:100CE300DCAC3A121DAA7F1E121A447A0060064039
:100CF300047B0180027B007DAA121F23C20178328C
:100D03007C007D007BFF7A0079201214ECE4F5313E
:100D1300E531FB3395E07D21121F547F0130000242
:100D23007F02121097EF70137DA37F21121D77248A
:100D330080FF74322531F8A607D2010531C3E531AE
:100D43006480948340CA753102121F34C006C00701
:100D5300AF32EF121F3BD005D004121F695003E4DA
:100D6300F531121F34C006C007AF33EF121F3BD05B
:100D730005D004121F695003753101E531FB33952A
:100D8300E0FA7D21121F5574322531F8E6FF3395C1
:100D9300E0FEEF2480FBE43E7DA3121F54AD30AC94
:100DA3002FB1AE7F002001027F02227F207E00ABA5
:100DB30005AA04C2A0C2A1EE4480FE121EE1AF0345
:100DC300AE02121EE1D2A1D2A2227901F1A98E2292
:100DD3008F23E4F524121F81120030C006C00712CE
:100DE3001F81120030F1ADE52425E024D8F582E41B
:100DF3003408121854F1FAFFE52425E024CAF582D9
:100E0300E43408121F75D007D006121FB3940740AD
:100E1300C4E4F524E52425E024E6F582E43408124D
:100E23000030E52425E0242AF582E434091218541D
:100E3300FD121FB3942240DC121824121875A9075F
:100E4300E960012285225E85235F7B0112102B124C
:100E53001BE3C004C005C006C007F10C121A8CD0F6
:100E630007D006D005D0041200497B007A24797498
:100E730078C912004D121DA1C200121F4B9106A981
:100E830007E960042450FF22E52330E109E4FB7DF8
:100E9300117F82121F0085225E85235F7B02121061
:100EA3002B7A00121F1FAD23AC22B1AE1217FCD256
:100EB30000F10C121AF97DBA7F037E011212B78F6B
:100EC30024E52464016009E524640260037F0522AC
:100ED300E5242401FBE433FA7D87F1F4E52464037C
:100EE300FB7A007D65121EF9E52464037D437F0DC3
:100EF300121D7E7F00227F0C7E047197E4FBFA7D36
:100F0300777F0C7E047197C200E4FBFA79A07840E6
:100F1300AF10AE0FAD0EAC0D020247F1A98E228FBA
:100F23002312002351268F21E521706A1214F31234
:100F33001F8DBF020DE47D55121EF7E4FBFA7D33CE
:100F4300800BE47D66121EF7E4FBFA7D44F1F47B2B
:100F530002718F7D667F1C121D774E7010FA121F6F
:100F63001F7B01718FE4FBFA7D11121F23AD23ACAC
:100F730022B1AEAF10AE0FAD0EAC0D121D087B014A
:100F83007A007DDDD1F97B007A5079C37847121A54
:100F9300F6C200121423E5216006120024AF2122B9
:100FA3001200247F00227F207E00E4FBFAC2A0C24D
:100FB300A1EE547FFE121EE1D2A27D10D2A0EB253A
:100FC300E0FBEA33FA30A303430301C2A0DDEDD211
:100FD300A1D2A2AE02AF0322C3EF64809480400289
:100FE3008008EF121F3BEF4440FF227F037E016125
:100FF300977F0D7E016197F4FDECF45EFEEF5D22B9
:101003008E508F51A905120FAD8E528F53AD0151E2
:10101300FDE4FBFAAF51AE501133AD0151FD7B013D
:101023007A00AF51AE5080087A007D107F207E0099
:101033008E598F5AEDC4540FFFED540FFCC3EF9C30
:10104300F1B6088005C333CE33CED8F9F4FFEEF4FE
:10105300FEEFA804088005C333CE33CED8F9F5825A
:101063008E83ED540FFFEBAE02A807088005C33350
:10107300CE33CED8F9FFEE5583FEEF5582FFE582DE
:10108300F4FDE583F4555EFCE55F121FAAAF5AAE8B
:1010930059020DB28F44E5446019E4FBFA7D211235
:1010A3001F23754D01754E217551A3754F01755061
:1010B30023801AE4FBFA7D217F86FE120B97754D80
:1010C30000754E8B755181754F0075508CAF4EAEC8
:1010D3004D120FAD8E528F5351FDE4FBFA51A7EF22
:1010E30064034E70037F042251FD7BFF7A0051A7F6
:1010F300EF4E70037F0422E4F554E554FD3395E08D
:10110300FCED2401FFE43CFEEF7807C333CE33CE7E
:10111300D8F9FF5192A60608A607EDAE047807C3D7
:1011230033CE33CED8F95187A60608A6075188E6F1
:10113300FA08E6FB51FDF19C7555065188C0001273
:101143001F5C8005C333CE33CED8F9FFEC4EFEEDE2
:101153004FD000A60608F65188519C8F56E556B429
:1011630003185188C000121F5C8005C333CE33CEF1
:10117300D8F9F1D8D000A60608F6E556640270192E
:101183005192E6FE08E65187E6FC08E6FDD3D13826
:1011930050075192A60408A6051555C3E55564806A
:1011A300948050975188E6FE08E6FF5192E6FC08CA
:1011B300E6FDD3D1385030AF54EF3395E0FEEF78EE
:1011C30007C333CE33CED8F9FFD136401A51920834
:1011D300E61618700116519CEF64024E60C65192D8
:1011E3000806E6187001060554C3E554648094822A
:1011F300500201FDE54C24FFFFE54B34FFFEEFB544
:101203004612EEB5450E854954854A5585475685A0
:1012130048578034C3E5469548FFE5459547FEC3E7
:10122300E54A954CFDE549954BFCD1367F004002DC
:101233007F018F58EF518AE6F55408E6F555EF51D3
:1012430094E6F55608E6F557F1A4E5572FFBE55666
:101253003EFA51A1EF64024E6016F1A4E5572FCF79
:10126300E5563ECF2401FBE43FFA51FDF19C800398
:101273007F002251AFEF64024E6006E5442421FF54
:10128300227F0022FFE55425E025E02445F822E5EE
:101293005425E025E02447F822E6FA08E6FB8552C8
:1012A3005E85535FAD51AF4EAE4D113351E67DDCDC
:1012B300AF50AE4FA905120FADAC06AD07E9C4544C
:1012C3000FF1B6088005C333CE33CED8F9F1D8FF7A
:1012D300E9540FFDEFA805088005CEC313CE13D83C
:1012E300F9FF22E4F559FFFEE55925E0F5590FBF53
:1012F30000010EBE01F2BF90EF2285525E85535F5F
:10130300228F4074FFF541F542A807E82405F8E66B
:10131300F54508E6F546A807E82407F8E6F5470883
:10132300E6F548A807E6F54B08E6F54CA807E824D8
:1013330002F8E6F54DAF4CAE4B120FAD8E4E8F4F0C
:10134300A840E6FE08E6FF9009E4740193B5070898
:10135300E493B50603D38001C39202D155F1088FFC
:1013630044C3E5489546FFE5479545FEC3EF940121
:10137300EE64809480404BF1AF8E498F4AF194958F
:10138300435008D155F1088F44800EAF46AE45D186
:1013930059113371ED8E418F42E54A45496023F17E
:1013A300949543500FC3E548954AF548E547954959
:1013B300F54780ADE54A2546F546E5493545F5450A
:1013C300809FF19495435006AE45AF468004AE47E7
:1013D300AF48E5402403F8A60608A607E540240322
:1013E300F8E6FE08E6FFD1590133F17DF17DF17D89
:1013F3007DFF7F007E0411037F0F7E04120FADEF8C
:101403007802C333CE33CED8F9F5828E837F0E7E36
:1014130004120FADEF5403FFE583FEE5824FFF2275
:10142300F1EA3000147A0979F691EC7A0979F991A5
:10143300E4F1CF7A0979F080127A0979FC91EC7A98
:101443000979FF91E4F1CF7A0979F391EC753100D1
:10145300753280752FFF7530807F2A71047DBFF14F
:10146300C67DFFF16A71ED8E3C8F3D7DFFF1C67D38
:10147300BFF16A71ED8E3E8F3FC3E53D953FE53C7D
:10148300953E78337C007D007B0050067A007924FA
:1014930080047A00792791EC7DFF7C07F16A753A25
:1014A30007753BFF7538057539FF7F337104E52EEA
:1014B3002410F532E4352DF531E52E24F0F530E531
:1014C3002D34FFF52F7F2A7104AD37AC36AF34AE20
:1014D30033120DB2AB2EAA2DAD2CAF2BAE2A020BBD
:1014E3009778277C007D007BFF7E007F0302053910
:1014F300D202E4FBFAF1767B017A007D22F124E447
:10150300FBFA7DEDFF7E04120B977F20120FDBEFBA
:1015130075F080A4FFAEF0C007C0067F20120FDB7A
:10152300EFFDD0E0FCD0E04DFD7F0E7E01120DB249
:10153300F1EA7A0979E491EC782D7C007D007BFF58
:101543007A0979E791EC75340075353F752B007591
:101553002C3F7532FF7533C17529FF752AC1F10F11
:101563002408121F9624F8F1F3E5312408F535E435
:101573003530F534E53124F8F533E53034FFF53211
:10158300F10F2404121F9624FCF1F37F247104E469
:10159300FBFA7D22F124F171C20222F171E47D880C
:1015A3007F087E02F11AE4FBFA7DF07F047E0212CB
:1015B3000B9778227C007D007BFF7A0979EA91EC16
:1015C300752900752A7F7527FF7528807F2271048E
:1015D300782B7C007D007BFF7A0979ED91EC7532E5
:1015E3000075337F7530FF7531807F2B7104E526DD
:1015F3002404F52AE43525F529E52624FCF528E518
:101603002534FFF5277F227104E52F2404F533E405
:10161300352EF532E52F24FCF531E52E34FFF53078
:101623007F2B7104E526FAE52FFB7DF07F047E0214
:10163300020B97D3ED9FEE6480F8EC648098228EC2
:10164300508F51300207120FDB7E008004AE50AF83
:101653005122AF48AE47D142AA06AB07854E5E85FD
:101663004F5FAD4DAF4CAE4B227522B0752300E4F6
:10167300FBFA7D22120EF9121CBB12013EF1E1129C
:101683001AF6F1018E268F277D407F197E0151B70F
:101693008F24F1BE8F25121FA05018C3E525648047
:1016A300948F500F0525E5257D527F13121F2AF1D4
:1016B3000180E3E525640F7032121FA0502DC3E5AE
:1016C300246480949250240524E5247D407F1912DC
:1016D3001F2AF101C3E5299527E52895265004150E
:1016E30024800885282685292780C87B017A00F174
:1016F300227B017A007D227F0C7E04020B9771ED21
:101703008E288F2922113371ED8E43227F24710499
:101713007F2D7104E52822FBFA120B97E4FBFA7D77
:10172300777F0C7E04020B97120023120DCD8F21BD
:10173300E5217023D16C91F3120F0AF1E1121AF62D
:10174300B19EC200752F00752EBA752D5B752C499D
:10175300121B01D2009123E5216006120024AF2160
:10176300221200247F0022AF28AE27020DB27B0194
:101773007A00E4FDFF7E01020B97E4F550FFFEE5DE
:101783005025E0F5500FBF00010EEF64C84E70EF17
:1017930022C3E5429544E54122AD51AF4EAE4D0122
:1017A30033C3E5559557FFE5549556FE7C007D02FE
:1017B30002055F04FF74FFFEA807227D527F137E9C
:1017C3000141B77C07AF25AE24020DB2782A7C0015
:1017D3007D007BFF22F4FFEEF45CFEED5F227B00D5
:1017E3007ABA795B78492278247C007D007BFF22DA
:1017F300F52AE52734FFF529227DFF7C7F7F0C7EC8
:1018030002120DB27D557F007E021210037D007C13
:10181300807F0C7E02120DB27D667F007E02021075
:1018230003E4F9115DFEE9114BFD120DB209B93C58
:10183300F2E9C394785010115DFEC3747799114B8C
:10184300FD120DB20980EA2225E02444F582E43436
:1018530008F583E493FC74019322E975F0288475F9
:10186300F018A4FFE92400FDE43405CD2FFFED3586
:10187300F0227152311D120247E4FBFAF9783F510D
:101883003E8F2BE52BC394025003752B02E52BD31C
:1018930094094009E52B940C5003752B0CE52BD3CD
:1018A300940D4003752B0DAC2BE4120367311D120D
:1018B300013E3134EF600122E52B25E025E0F52CD4
:1018C30091D4EF64014E70117DCB7F89FE1212B764
:1018D3003126E52C8FF084F52CAC2CE4120367122F
:1018E3000697C004C005C006C0077F007E007D00C8
:1018F3007C40120697518CD007D006D005D0041235
:10190300024712039B3126EF14F52CFB7A007D70FE
:101913007F077E04120B977F00227B007AC8792F02
:10192300784C2291C4088005C333CE33CED8F9FF57
:101933002291DDE4F537F535F536E537C3940350E9
:1019430056E5362401FFE43535FEEF25E0FDEE33A1
:10195300FC1203625174517D7F287E6B7DEE7C4EB9
:10196300515140237FBB7EEE7D20514F60025017C3
:10197300AF34AE33AD32AC31AB370537EB25E025B1
:10198300E02438F81206020536E536700205357094
:1019930004E535640170A3E53770037F0322E5375F
:1019A300C31325E025E02438F81205D6518051747D
:1019B30012024791BB12024751378E358F36AB3631
:1019C300AA357DA37F89515C5137AB07AA067DD425
:1019D3007F88515C12039BE412035DC004C005C001
:1019E30006C0075161D003D002D001D000120049D4
:1019F3008F3A8E398D388C37E4FFFE7D807C49AB7E
:101A03003AAA39A938A83791B58F3E8E3D8D3C8CC3
:101A13003BE4AB07AA067DF07F87FE120B97AF3E30
:101A2300AE3DAD3CAC3BB1AA7F887E00120B97E480
:101A3300FF021097E4FBFA798078BF12004D02038E
:101A43009B7E01120B977FAC7EE97DA37C4FAB3469
:101A5300AA33A932A8310202E47E00120B97AB1419
:101A6300AA13A912A811AF34AE33AD32AC310202BE
:101A730047AB30AA2FA92EA82D2212013E8F348EF8
:101A8300338D328C3122120362A804A905AA06AB56
:101A930007227152B1987DCB7F897E001212B73134
:101AA30026AC06AD07E4518951E3B18F91D4EF4ED3
:101AB300701130010551DCAC3A22E4FBFA798078ED
:101AC30040801D300104B186800EE4FBFA798078F2
:101AD3004051DCAC3A12024722AF3DAE3CAD3B2253
:101AE300AF39AE38AD37AC360202477B007A507956
:101AF300C378C712004D8F2F8E2E8D2D8C2C7E0414
:101B03003000027E027F428E308F31A2009201515B
:101B130095518CAF2FAE2EAD2DAC2C120247E4FBAA
:101B2300FA7980784F91B58F358E348D338C327836
:101B3300101205B0AD07AC06AF31AE30120DB2E5F1
:101B4300312401FFE43530FEAC34AD35020DB27DF6
:101B5300A37F897E0071D5C004C005C006C007916C
:101B6300BB91EFD003D002D001D0001202478F41C6
:101B73008E408D3F8C3E7DD07F887E001212B78EC3
:101B8300428F437F877E0091E6C004C005C006C034
:101B930007FEE54391CBD003D002D001D00012055C
:101BA3009591FAC004C005C006C007E542C4F854C5
:101BB300F0C868FEE543C4540F4871D9D003D0027E
:101BC300D001D00012004DAB41AA40A93FA83E026C
:101BD300013E1212B7EF2401FDE43EFCE40203626E
:101BE300120A02D200120FA98E318F323000047B09
:101BF3000280027B01120B8F7DD07F1E7E011212A9
:101C0300B78E2B8F2C7F1D7E0191E6C004C005C0CB
:101C130006C007FEE52C91CBD003D002D001D00043
:101C230012059591DD7D867F1FB17791C2088005EE
:101C3300C333CE33CED8F9FDAC06EC518991EF9185
:101C4300AC7DAA7F1C7E0171D5C004C005C006C04F
:101C530007AF30AE2FAD2EAC2D91FAC004C005C036
:101C630006C007E52BC4F854F0C868FEE52CC4543D
:101C73000F48240471DBD003D002D001D00012003E
:101C83004DAB36AA35A934A83312013ED003D00296
:101C9300D001D00012013E91ACAD32AC31120DAE89
:101CA300AF36AE35AD34AC33228F368E358D348CB2
:101CB300332212013E02039BE4FBFAF9784022042B
:101CC300FF74017E00A80722540FFFE47810020579
:101CD300C37DBB7F867E000212B78F308E2F8D2E81
:101CE3008C2D227DF01212B7E4FCFD22AF14AE134B
:101CF300AD12AC11020247E412035DE4FBFA7980F2
:101D03007849020247B1A17528027529021217BE4C
:101D13008F2A7DFA7F087E011212B78F2BE47DDDB7
:101D23007F0C7E0412171AC200E4FBFA79A07840F4
:101D3300AF27AE26AD25AC2412024751EE801FB16A
:101D43006B4020E528252AF52AD3940F4008E52A7D
:101D53009528F52A800DE52A7D527F13B17E121353
:101D6300ED80DCB16B7F0022D39009E07401939F77
:101D7300E4939E227E011212B7EF22FB7A007E01CA
:101D8300020B97AF39AE38AD37AC36228F3D8E3C60
:101D93008D3B8C3A228F398E388D378C36228F27A4
:101DA3008E268D258C242278101205B0AB07AA0647
:101DB3007D3022AC09E4120367B1E58C11B1ECC0AC
:101DC30000C001C002C003D13CD003D002D001D077
:101DD3000012004DB1E58C11B1F5B1E58C11E4F5BC
:101DE30090228F148E138D1222AB14AA13A912A85A
:101DF30011227B007A247974784902013EAC09E40C
:101E0300120367D1358C0DAB10AA0FA90EA80DC014
:101E130000C001C002C003D13CD003D002D001D026
:101E23000012004DD1358C0DB1F5D1358C0DE4F593
:101E330090228F108E0F8D0E22E50AAD0BFCE4125B
:101E43000362E4FBFA797A78440202477581D0E4AD
:101E5300F5A27591FFF59075A10775A9FF75A88087
:101E6300C2A0D2A185800C3003FDE50814601514CF
:101E7300601914601D14601E2405601E14701EE496
:101E8300F590801912172B8F908012120F1E8F90CE
:101E9300800BD1008007B1B6800375900285080CD2
:101EA300C20380C3C0E0C0D075D000C000C006C06C
:101EB300077590FF7F0274082FF8E6FE74092FF868
:101EC300A606DFF2858009759000D007D006D00002
:101ED300D0D0D0E0327590FF858008D203327D10D8
:101EE300C2A0EE3392A2EF25E0FFEE33FED2A0DDD7
:101EF300EFC2A022FBFA7F0C7E01020B97FAFE12BF
:101F03000B977B017A00E4FD7F0D7E01120B977B1B
:101F1300017A007DEE7F007E01020B977B017D66D7
:101F23007F1C7E01020B97FB3395E0FA7E01020BC7
:101F33009774322531F8E6FF3395E0FE0200147BF7
:101F4300407A54790912004D8F2E8E2D8D2C8C2BB7
:101F530022FA7F217E01020B97E6FC08E6FD74015D
:101F63007E00A8550822C3EF9DEC6480F8EE6480E0
:101F73009822F583E4934EFC7401934FFD22E524EC
:101F830025E024BCF582E43408227D877F0D7E01A1
:101F93000212B7F52CE43527F52BE52822C3E529F2
:101FA3009523E5289522225DFDEC4EFCED4FFD22A5
:091FB300120DB20524E524C3223D
:00000001FF
