:10111D00FFF1FFF2FFF5FFFA00000007000F0017C7
:10112D00001E002300250022001A000BFFF8FFE02F
:10113D00FFC7FFAFFF9DFF93FF96FFA7FFC7FFF50B
:10114D00002F006E00AC00E00103010B00F400BBAA
:10115D00005FFFE6FF59FEC5FE3CFDCEFD90FD9103
:10116D00FDE1FE86FF8300D302690433061607F600
:10117D0009B40B350C5B0D150D530D150C5B0B35B3
:10118D0009B407F606160433026900D3FF83FE8601
:10119D00FDE1FD91FD90FDCEFE3CFEC5FF59FFE644
:1011AD00005F00BB00F4010B010300E000AC006E1A
:1011BD00002FFFF5FFC7FFA7FF96FF93FF9DFFAF22
:1011CD00FFC7FFE0FFF8000B001A002200250023E7
:1011DD00001E0017000F00070000FFFAFFF5FFF2D9
:1011ED00FFF120000001FFFD010E9F0107DF0155FA
:1011FD005901E4E402010101E4E402010101008668
:10120D0001001002FFFF01000001384052000001F3
:10121D00800B0100000104000100010149010100E2
:10122D00000105300100A001051401210001067B1C
:10123D0005000001000106000001656501658C01D6
:10124D00656501658C01656502658C066565010046
:10125D0001016565010000018000010000010040F1
:10126D000120000103FF5200000134090178000143
:10127D003180010A1201008801000702318C0194AE
:10128D00260161C101104C0100000188FD01009E85
:10129D00012040013042010BF401008301C0E60141
:1012AD0003C301008D01000901818001280C01019A
:1012BD008C0118CB012E0201000001AD4301040089
:1012CD0001078001364001B9FF01340401033F01DC
:1012DD00067BDC00000100810207FF070000010012
:1012ED0080014000017FFF330000010020FF00005E
:1012FD00C000000100810207FF080000017FFF34DC
:0B130D000000010020FF80FF80FF8037
:101F2600040841F5C28F041040A00000040C40A034
:021F36000000A9
:061F0E00C3E53D953EFF16
:101F140074017E00A807088005C333CE33CED8F9F8
:021F2400FF229A
:101BAA008E378F38E4F539F53A9011EF93753B008B
:101BBA00F53CE4FDFCC3ED9423EC94015056C3E5D7
:101BCA0038953AE53795394027E538953CE5379514
:101BDA003B501D74F02DF58274113CF583E493FE9D
:101BEA0074F12DF58274113CF583E493FDEDFF2227
:101BFA00853B39853C3A74F22DF58274113CF583A4
:101C0A00E493253CF53CE4353BF53B74032DFDE4B8
:081C1A003CFC80A1E4FEFF2266
:101E2C008E338F348C358D36D3E5349536E533953A
:101E3C0035501CAF34AE33121BAAAC06AD07AF3411
:101E4C00AE33121E8C0534E53470DD053380D92297
:101E5C007DD47F887E00121DF0EF64294E700CF546
:101E6C000BF50A750950750842800C750B8F750AB5
:101E7C00C27509F5750841AF0BAE0AAD09AC082265
:101895007DA37F897E00121DF0EF2401FDE43EFC4F
:1018A500E412031FC004C005C006C007E4FBFAF933
:1018B5007840AF0BAE0AAD09AC08120204D003D0D4
:1018C50002D001D0001202048F5D8E5C8D5B8C5AB4
:1018D5007DD07F887E00121DF0E48F618E60F55FFC
:1018E500F55E7DF07F87FE121DF0E4FCFDC004C0AF
:1018F50005C006C007E561540FFFE4FE7810120627
:1019050038D003D002D001D0001205F9E412031A31
:10191500E4FBFA79807849120204C004C005C006C8
:10192500C007AF61AE60AD5FAC5E7804120625EF0F
:101935002401FFE43EFEE43DFDE43CFCE412031A11
:10194500D003D002D001D00012000AAB5DAA5CA979
:071955005BA85A1200FB22FF
:101B24001218958F558E548D538C527DCB7F897EA0
:101B340000121DF0121F14AC06AD07E412031FA817
:101B440004A905AA06AB07AF55AE54AD53AC521267
:101B540002048F598E588D578C567DBB7F867E002C
:101B6400121DF0EF4E701F300209AF59AE58AD5739
:101B7400AC5622E4FBFA79807840AF55AE54AD53AD
:101B8400AC521202042230020AAF55AE54AD53AC2B
:101B9400528012E4FBFA79807840AF59AE58AD57C1
:061BA400AC5612020422FF
:10195C007BCD7ACC79CC12000A8F478E468D458C84
:01196C004436
:10196D00A2019202121B248F4B8E4A8D498C483056
:10197D0001067E027F4080047E047F408E4C8F4D99
:10198D00AB4BAA4AA949A848AF47AE46AD45AC44B2
:10199D00120204E4FBFA7980784F1200FB1203580F
:1019AD008F518E508D4F8C4EE54375F002A4FFE59F
:1019BD004D2402CDE4354CCD2FFFED35F0FEC006A4
:1019CD00C007AF51AE50AD4F7810120625AD07AC24
:1019DD0006D007D006121E8CE54375F002A4FFE574
:1019ED004D2403CDE4354CCD2FFFED35F0FEAC503D
:0519FD00AD51021E8C3B
:101634007D107F207E00121DF08F4B3001047B0251
:1016440080027B017A007D107F207E00121C227DA7
:10165400D07F1E7E01121DF0E48F468E45F544F5C1
:10166400437DF07F1D7E01121DF0E4FCFDC004C02B
:1016740005C006C007E546540FFFE4FE78101206C5
:1016840038D003D002D001D0001205F98F4A8E4918
:101694008D488C477D867F1F7E01121DF0EF04FF6D
:1016A40074017E00A807088005C333CE33CED8F971
:1016B400FDAC06EC12031FA804A905AA06AB07AFEC
:1016C4000BAE0AAD09AC081202048F4F8E4E8D4D3D
:1016D4008C4C7DAA7F1C7E01121DF0EF2401FDE4D9
:1016E4003EFCE412031FC004C005C006C007AF4A95
:1016F400AE49AD48AC47E412031AE4FBFA798078AA
:1017040049120204C004C005C006C007AF46AE4576
:10171400AD44AC437804120625EF2404FFE43EFEF6
:10172400E43DFDE43CFCE412031AD003D002D001F2
:10173400D00012000AAB4FAA4EA94DA84C1200FBD0
:10174400D003D002D001D0001200FB8F4F8E4E8DFB
:101754004D8C4CE54BFB7A007D107F207E00121CE3
:0A17640022AF4FAE4EAD4DAC4C224B
:0B1ED900121EE4AA06AB07AF4BAE4A96
:101EE400C3EE6480948050077CFF7DFF0204CF2200
:101EF400AD07C3ED64809480500DED3395E0FE1280
:0A1F04001EE4EF4440FF22AF052267
:101DA5007D817C007F007E04121E8C7D817C807F7E
:101DB500007E04121E8C7F0F7E04121CFAEF78023F
:101DC500C333CE33CED8F9FFE4FCFDC004C005C053
:101DD50006C0077D107F0E7E04121DF0E4FCFDD0C9
:0B1DE50003D002D001D0001205F9224B
:10176E00E4FBFA7DEDFF7E04121C22E4F562121DED
:10177E00A5E56225E024C4F582E43400F583EEF09D
:10178E00A3EFF00562E562C3942840E2E4F562AB94
:10179E0062EBC394284003021825EB25E024C4F520
:1017AE0082E43400F583E0FEA3E0FFE56225E02449
:1017BE00C4F582E43400F583E0FCA3E0D39FEC9EF5
:1017CE004051E56225E024C4F582E43400F583E05F
:1017DE00FEA3E0FFE48F618E60F55FF55EEB25E022
:1017EE0024C4F582E43400F583E0FEA3E0FFE56255
:1017FE0025E024C4F582E43400F583EEF0A3EFF087
:10180E00EB25E024C4F582E43400F583E560F0A313
:10181E00E561F00B02179F0562E562642760030223
:10182E00179DE4F561F560F55FF55EF562E56225FD
:10183E00E024C4F582E43400F583E0FEA3E0FFE487
:10184E00FCFDE5612FFFE5603EFEED355FFDEC35FD
:10185E005E8F618E608D5FF55E0562E562B404CDCC
:10186E00AF61AE60AD5FAC5EE47B04FAF9F81205D1
:10187E00678F618E608D5F8C5E78F8120657AF6150
:07188E00AE60AD5FAC5E220D
:101EB300AB05121EF4EF75F080A4FFAEF0C007C0AF
:101EC30006AF03121EF4EFFDD0E0FCD0E04DFD7F22
:061ED3000E7E01021E8CD0
:101A02007533007534207535007536207B017A00F8
:101A12007D227F0C7E04121C22E4FBFA7DEDFF7E08
:101A220004121C22AF34AD36121EB37B007A007949
:101A320033753D06120F0F7B007A007935753D062E
:101A42007D60120F117B007A007933753D04120F0D
:101A52000F7B007A007935753D047D60120F117598
:101A62003D01753E0E753F6075400075410075423F
:101A7200357543077B007A0079337DD77F0E7E016F
:101A8200120CFDAF34AD36121EB3E4FBFA7D227F99
:061A92000C7E04021C2280
:060F0F007DD77F0E7E017C
:100F15008E378F388D398B3A8A3B893CE4F53E1202
:100F250004E1F54885F047E538640E7004E537645B
:100F350001600AAE47AF48AA06AB078009AF481261
:100F45001EF47A00AB07AD39AF38AE37121C22E478
:100F5500F53EE53D14FFE53EC39F40030210311207
:100F6500176E8F428E418D408C3F121F0EC3E54890
:100F75009FF548E5479EF547E538640E7004E5376B
:100F85006401600AAE47AF48AA06AB078009AF48BF
:100F9500121EF47A00AB07AD39AF38AE37121C22FA
:100FA50012176E8F468E458D448C43AB42AA41A9DC
:100FB50040A83FC31206144017E53D24FEC3953EE5
:100FC500FF121F14EF2548F548EE3547F547802FEA
:100FD500121F0EE5482FFDE5473EFCE53D14C39580
:100FE5003EFF121F14EF2DFDEE3CFCE53D24FEC334
:100FF500953EFF121F14C3ED9FF548EC9EF547E59E
:1010050038640E7004E5376401600AAE47AF48AA3C
:1010150006AB078009AF48121EF47A00AB07AD395D
:10102500AF38AE37121C22053E020F57121F0EC3F2
:10103500E5489FF548E5479EF54712176E8F428EA6
:10104500418D408C3FE538640E7004E5376401C37B
:10105500600E121F0FC3E5489FFBE5479EFA800F00
:10106500121F0FC3E5489FFF121EF4EFFB7A00AD78
:1010750039AF38AE37121C2212176E8F468E458D4A
:10108500448C43AB42AA41A940A83FC31206145061
:10109500080548E54870020547E538640E7004E523
:1010A500376401600AAE47AF48AA06AB078009AFAF
:1010B50048121EF47A00AB07AD39AF38AE37121CB3
:1010C5002212176E8F468E458D448C43AB42AA4142
:1010D500A940A83FC312061450300548E5487002E0
:1010E5000547E538640E7004E5376401600AAE47CC
:1010F500AF48AA06AB078009AF48121EF47A00ABC9
:1011050007AD39AF38AE37121C22AB3AAA3BA93C22
:08111500E5478548F002050CD6
:100CFD008E378F388D398B3A8A3B893C74FFF54797
:100D0D00F546F545F5441204E1F54D85F04CAB4043
:100D1D00AA41A9421204E1F54F85F04EE4F548F5DC
:100D2D0049C3E54995437480F86548984003020E20
:100D3D00AFE4F54AF54BC3E54B95437480F8654A2E
:100D4D00984003020EA4E543C313FF7E00C3E5499B
:100D5D009FFDE5489EFCE54D2DF551E54C3CF550CC
:100D6D00C3E54B9FFFE54A9EFEE54F2FF553E54E3C
:100D7D003EF552E538640E7004E5376401600AAE45
:100D8D0050AF51AA06AB078009AF51121EF47A007D
:100D9D00AB07AD39AF38AE37121C22E53E640E708D
:100DAD0004E53D6401600AAE52AF53AA06AB07805D
:100DBD0009AF53121EF47A00AB07AD3FAF3EAE3D07
:100DCD00121C2212176EC004C005C006C007E54BE9
:100DDD00AE4A7802C333CE33CED8F9FBAA069000C3
:100DED000075F01CE54912066FE54875F01CA42549
:100DFD0083F583E5822BF582E5833AF583D007D021
:100E0D0006D005D00412066390000075F01CE5496C
:100E1D0012066FE54875F01CA42583F583E5822B3A
:100E2D00F582E5833AF58312064BAB47AA46A945F1
:100E3D00A844D31206144054AB3AAA3BA93CE55042
:100E4D008551F012050CAB40AA41A942E5528553DC
:100E5D00F012050CE54BAE4A7802C333CE33CED833
:100E6D00F9FF90000075F01CE54912066FE5487515
:100E7D00F01CA42583F583E5822FF582E5833EF5ED
:100E8D008312064B8F478E468D458C44054BE54BA3
:100E9D007002054A020D430549E5497002054802F5
:100EAD000D2EE538640E7004E5376401AB3AAA3BAC
:100EBD00A93C600A1204E1AEF0AA06FB800B1204F5
:100ECD00E1FF121EF47A00AB07AD39AF38AE371221
:100EDD001C22E53E640E7004E53D6401AB40AA4161
:100EED00A942600A1204E1AEF0AA06FB800B1204BF
:100EFD00E1FF121EF47A00AB07AD3FAF3EAE3D02EF
:020F0D001C22A4
:1014C3008F5174FFF554F5557D107F207E00121D5A
:1014D300F08F5BE551FB7A007D107F207E00121CAC
:1014E300227F1C7E01755601755721755AA37558C5
:1014F30001755923E4FBFA7D21121C227B017A003A
:101503007DEE7F1C7E01121C22E4FBFAAD5AAF571D
:10151300AE56121C22755207E5522403FFC454F041
:101523004FFD7B017A00AF57AE56121C2212176E85
:1015330012176E7DDCAF59AE58121DF08F53E55371
:1015430030E014E5522403FFC454F04FFDE4FBFAEA
:10155300AF57AE56121C22E553B40216C3E55464CA
:10156300809480500DAD5AAF57AE56121DF08E5475
:101573008F551552C3E55264809480509BC3E55444
:10158300648094804075AD5AAF57AE56121DF08EED
:101593005C8F5DE555655D7004E554655C703DC326
:1015A300E554648094804034AB55AA54AD5AAF5788
:1015B300AE56121C2212176E12176E7DDCAF59AE97
:1015C30058121DF0EF4E700A0555E555700E05547F
:1015D300800AE555155570C7155480C3C3E55D955D
:1015E30055FFE55C9554C313FEEF132555FBE554F6
:1015F3003EFAAD5AAF57AE56121C22E4FBFA7DEE0B
:101603007F1C7E01121C2212176E12176E7DDCAF37
:1016130059AE58121DF08F53E55BFB7A007D107FA6
:10162300207E00121C22E553B402037F00227F01B7
:011633002294
:08067B008F368E358D348C336F
:10068300753A007539E07538AB753745C202754068
:1006930006E54004FF74017E00A807088005C33304
:1006A300CE33CED8F9FDAC06EC12031FAB36AA3518
:1006B300A934A8331200FB8F3F8E3E8D3D8C3C7FC7
:1006C300007E807D6D7C45AB3FAA3EA93DA83C12D0
:1006D30002A1401B7F007E107DF17C45AB3FAA3E0B
:1006E300A93DA83C1202A160025004D202800B155E
:1006F30040C3E540648094805097AF3AAE39AD383B
:10070300AC37AB3FAA3EA93DA83C1202A16006400C
:10071300047F0180027F0074017E00A80708800522
:10072300C333CE33CED8F9FDAC06EC12031FAB0BAB
:10073300AA0AA909A8081200FBA804A905AA06ABDE
:1007430007AF3FAE3EAD3DAC3C120204E4FBFA7989
:100753008078C012000A120358E48F458E44F54393
:10076300F542AF3AAE39AD38AC37AB3FAA3EA93DFF
:10077300A83C1202A1600640047F0180027F00743E
:10078300017E00A807088005C333CE33CED8F9FD18
:10079300AC06EC12031FAB0BAA0AA909A8081200A6
:1007A300FBA804A905AA06AB07AF3FAE3EAD3DAC1F
:1007B3003C120204120358E412031AC004C005C019
:1007C30006C007AF3AAE39AD38AC37AB3FAA3EA946
:1007D3003DA83C1202A1600640047F0180027F0015
:1007E30074017E00A807088005C333CE33CED8F941
:1007F300FDAC06EC12031FAB0BAA0AA909A8081249
:1008030000FBA804A905AA06AB07AF3FAE3EAD3D6A
:10081300AC3C120204D003D002D001D00012000677
:10082300E4FBFA798078491200FB1203588F498E52
:10083300488D478C467D107F207E00121DF08F3B34
:100843007A003001047B0280027B017D107F207ED1
:1008530000121C22AA44AB457DD47F1E7E01121CCC
:1008630022E549FFE548FEE4AB07AA067DF07F1DBC
:100873007E01121C22AF49AE48AD47AC4678101238
:100883000625AB07AA067D307F1E7E01121C22E5DA
:1008930040FB3395E0FA7D867F1F7E01121C22AF59
:1008A3003AAE39AD38AC37AB3FAA3EA93DA83C12AE
:1008B30002A17A00600640047B0180027B007DAACE
:1008C3007F1C7E01121C22E4FBFA7D117F1C7E013A
:1008D300121C22E4FBFA7D227F1C7E01121C22C221
:1008E30002784A7C007D007BFF7A1379127E007FB9
:1008F300061204A9E4F541E541FB3395E0FA7D21B5
:100903007F217E01121C223001047F0280027F01BD
:100913001214C38F507DA37F217E01121DF0EF249B
:1009230080FFEE34FFFEE54125E0244AF8A60608E1
:10093300A607E5507002D2020541C3E541648094E5
:100943008340B4AF4DAE4C121ED9D3EF9BEA648003
:10095300F8EE6480985019AF4FAE4E121ED9D3EF04
:100963009BEA6480F8EE6480985029E4F54180277F
:10097300AF4FAE4E121EE4AA06AB07AF4DAE4C12FC
:100983001EE4D3EF9BEA6480F8EE6480985005750B
:1009930041018003754102E541FB3395E0FA7D2176
:1009A3007F217E01121C22E53BFB7A007D107F2014
:1009B3007E00121C223001047F0280027F01121488
:0209C300C3224D
:10131800C2011216348F3A8E398D388C37D20112A9
:1013280016348F3E8E3D8D3C8C3B7DFA7F087E01C6
:10133800121DF08E3F8F40E4FBFA7DDD7F0C7E04AA
:10134800121C22E4FBFA7D777F0C7E04121C22C259
:1013580001E4F543AB3AAA39A938A837AF3EAE3D08
:10136800AD3CAC3B12000678BD12195C12176E8FAB
:10137800368E358D348C337D527F137E01121DF0ED
:101388008E418F42E4FF7EB0FDFCAB36AA35A9340E
:10139800A833C3120614505AC3E542940FE54164BA
:1013A800809480504D121DA58F368E358D348C3328
:1013B800E4FF7EB0FDFCAB36AA35A934A833C312CE
:1013C8000614500B74022542F542E43541F541E418
:1013D800FF7EB0FDFCAB36AA35A934A833D312067C
:1013E80014500FAB42AA417D527F137E01121C227A
:1013F8008092E4FF7E10FDFCAB36AA35A934A833F1
:10140800C3120614505AC3E5409439E53F648094EA
:1014180080504D12176E8F368E358D348C33E4FF25
:101428007E10FDFCAB36AA35A934A833C3120614C6
:10143800500B74042540F540E4353FF53FE4FF7E4A
:1014480010FDFCAB36AA35A934A833D312061450C4
:101458000FAB40AA3F7DFA7F087E01121C228092C2
:10146800E4FF7EB0FDFCAB36AA35A934A833C3121D
:1014780006145046C3E540943DE53F64809480508F
:101488003912176E8F368E358D348C33E4FF7EB06B
:10149800FDFCAB36AA35A934A833C3120614500B89
:1014A80074022540F540E4353FF53FAB40AA3F7D47
:0B14B800FA7F087E01121C2280A62291
:1009C500E4F521F522F525F5267D107F20FE121D83
:1009D500F08F297D877F0D7E01121DF08F2AE52A74
:1009E50064016004E52A70037F81227F2D7E001259
:1009F5001CFAAC06AD07E412031F8F138E128D117E
:100A05008C10121E5C8F0B8E0A8D098C08121A022F
:100A15007B017A007DFE7F0C7E04121C227B017A0D
:100A250000E4FDFF7E01121C22E52AB40218E4FB56
:100A3500FA7D557F0C7E01121C22E4FBFA7D337F83
:100A45000D7E01121C22E52AB40318E4FBFA7D662B
:100A55007F0C7E01121C22E4FBFA7D447F0D7E0192
:100A6500121C22E4FBFA7D227F0C7E04121C22302C
:100A750000757B017A007D107F207E00121C227D8F
:100A8500247C017F1C7E01121E2CD2011216348F8C
:100A95002E8E2D8D2C8C2BC20112067B7B027A00AB
:100AA5007D107F207E00121C227B017A007D667FEF
:100AB5001C7E01121C22D201AB0FAA0EA90DA80C97
:100AC500AF13AE12AD11AC10120204AB2EAA2DA9B4
:100AD5002CA82B12000A12067BE529FB7A007D1053
:100AE5007F207E00121C221213187B017A007DDD07
:100AF5007F0C7E04121C22E4FBFA7D777F0C7E04BA
:100B0500121C22C2011216348F2E8E2D8D2C8C2B89
:100B1500D2011216348F328E318D308C2FC201E402
:100B2500F543AB2EAA2DA92CA82B120006783D1251
:100B3500195CE4FBFA7DB07F037E04121C227BFF67
:100B45007A077DA07F027E04121C227BFF7A077D37
:100B5500A07F017E04121C227BBF7A077DA07F0245
:100B65007E04121C227BFF7A077DA07F017E041282
:100B75001C22121DA58F2E8E2D8D2C8C2B7BFF7A82
:100B8500077DA07F027E04121C227BBF7A077DA011
:100B95007F017E04121C22121DA58F328E318D30ED
:100BA5008C2F7BFF7A077DA07F027E04121C227B9F
:100BB500FF7A077DA07F017E04121C22752307752D
:100BC50024BFAF32AE31AD30AC2FAB2EAA2DA92C40
:100BD500A82BC31206145010752504752602AB24E4
:100BE500AA237DA07F02800E752504752601AB24FE
:100BF500AA237DA07F017E04121C227B007A007946
:100C050023753D077DA0AF26AE25120F157B0F7A04
:100C1500007DB07F037E04121C22121DA58F2E8E2F
:100C25002D8D2C8C2B7BF17AFF7DB07F037E0412FA
:100C35001C22121DA58F328E318D308C2FAB2EAA22
:100C45002DA92CA82BD312061440057527FF801952
:100C5500AF32AE31AD30AC2FAB2EAA2DA92CA82BBF
:100C6500C312061450087527007528C0800675271D
:100C750000752840AB28AA277DB07F037E04121C8F
:100C8500227B007A007927753D077DB07F037E04BE
:100C9500120F157B007A007923753D047DA0AF26E0
:100CA500AE25120F157B007A007927753D047DB0BE
:100CB5007F037E04120F15753D04753E03753FB025
:100CC5007540007541007542277543077B007A0022
:100CD50079237DA0AF26AE25120CFDAB24AA237D7A
:100CE500A0AF26AE25121C22AB28AA277DB07F0314
:080CF5007E04121C227F802204
:101C9A007581D0E4F5A27591FF75A107F5A9C2A0D7
:101CAA00D2A178FE7602759080858015858014E52C
:101CBA0014651560F7851415E5147002801CE51487
:101CCA00B4020CE4F590D2001209C58F9080DDE5CC
:101CDA0014B4030BE4F59012176E75908080CDE56D
:101CEA0014B4FFC8E4F59078FEE64480F59080BC11
:101D56008E6F8F709001157480F0A3E4F0900114DB
:101D66007410F0C2A0900115E0FEA3E0FFE56F5EDF
:101D7600FCE5705F4C24FF92A2EEC313FEEF13FF47
:101D8600900115EEF0A3EFF0121F39D2A0121F3901
:0F1D9600C2A0900114E014F0E0D3940050C522D5
:101E8C008E688F698C6A8D6B436880C2A0C2A11268
:101E9C001F39AF69AE68121D56AF6BAE6A121D5674
:071EAC00D2A1D2A2021F39EE
:101CFA008E688F69C2A0C2A153687F121F39AF696B
:101D0A00AE68121D56D2A2E4F56BF56C756D80F5BE
:101D1A006E756A10121F39D2A030A308E56E426CA4
:101D2A00E56D426BE56DC313F56DE56E13F56E1245
:101D3A001F39C2A0156AE56AD3940050D7121F3919
:0C1D4A00D2A1D2A2121F39AE6BAF6C22E6
:101C22008E638F648D658A668B67121CFAAD07AC72
:101C320006E565C4540FFFE565540FFBC3EF9B0433
:101C4200FF74FFFEA807088005C333CE33CED8F950
:101C5200F4FFEEF4FEEFA803088005C333CE33CEC3
:101C6200D8F9FBAA06E565540FFFE567AE66A8073B
:101C7200088005C333CE33CED8F9FFEE5AFEEF5BB0
:101C8200FFEBF4FBEAF45CFCEB5DFDEC4EFCED4F8C
:081C9200FDAF64AE63021E8C7D
:101DF0008D63121CFAAC06AD07E563C4540F04FFF3
:101E000074FFFEA807088005C333CE33CED8F9F49B
:101E1000FFEEF45CFEED5FFFE563540FFDEFA805F8
:0C1E2000088005CEC313CE13D8F9FF22B2
:101F39000000000000000000000000000000002276
:100003000203C4E86480F8E933E83360110460F064
:10001300ED33EC337009E8FCE9FDEAFEEBFF220463
:1000230060DED3EB9FEA9EE99DE8C2E78CF0C2F75E
:1000330095F0400CE8CCF8E9CDF9EACEFAEBCFFB2A
:1000430012038F85D0F05804700320D5B3E80470F1
:10005300075002B2D50203CE92D5EC0460F7E4CC8C
:10006300C0E0C398F8603B94186008400DD0E0FBF3
:100073000203A6E4FBFAC9FC8028E830E406E4C9DD
:10008300FBE4CAFCE830E305E4C9CACBFCE8540747
:100093006010F8C3E913F9EA13FAEB13FBEC13FC52
:1000A300D8F130F52FC3E49CFCEF9BFFEE9AFEEDF5
:1000B30099FDD0E0FBEF4E4D4C701222DB0302039F
:1000C300CBEC2CFCEF33FFEE33FEED33FDED30E7ED
:1000D300EB0203A6EF2BFFEE3AFEED39FDD0E0FB7A
:1000E30050130BBB00030203CEED13FDEE13FEEF23
:0800F30013FFEC13FC0203A64D
:1000FB00EC4D6011E8497017ED33EC3304600DE4FF
:10010B00FCFFFEFD22E933E8330470F80203C4124E
:10011B00038F58046009E4CC24815006285009024F
:10012B0003CE2840030203CBC0E0EB4A7044B980F6
:10013B0006D0E0FB0203BAEF4E701CBD8008EBFF4C
:10014B00EAFEE9FD80EBE98DF0A4FEE5F00201E4A7
:10015B00E9CDF9EAFEEBFFEF89F0A4FCE5F0CE89DF
:10016B00F0A42EFFE435F0CD89F0A42DFEE435F09C
:10017B008067EF4E7005BD80D780C3EF8BF0A4ACCA
:10018B00F0EE8BF0A42CFCE435F0F8EF8AF0A42C05
:10019B00E5F038FCE433CB8DF0A42CFCE5F03BF818
:1001AB00EE8AF0A42CFCE5F038F8E433CF89F0A408
:1001BB002CFCE5F038CF3400CE89F0A42FFFE5F00E
:1001CB003EFEE433C98DF0A42EFEE5F039CD8AF066
:1001DB00A42FFFE5F03EFEE43DFD33D0E0FB5007DE
:1001EB000BBB000F0203CEEC2CFCEF33FFEE33FE08
:0601FB00ED33FD0203A636
:100201000203CEEC5D046005E8590470030203C4E7
:1002110012038F580460F6EC4860F2EC7004FDFEA6
:10022100FF22C860DB2481C85009C39860025006D0
:100231000203CB9850CAF582E9294B4A7005AB827B
:100241000203BA75F0007C1A7880C3EF9BEE9AED39
:1002510099400DC3EF9BFFEE9AFEED99FDE842F048
:10026100DC23ACF0D0E0FFD0E0FED0E0FDAB82209B
:10027100E7101BEB60BAEC2CFCEF33FFEE33FEED25
:1002810033FD0203A6E803F830E705C0F075F0007E
:10029100EF2FFFEE33FEED33FD40B830E7C280AA09
:1002A10074F8CC6480CCC86480C8F58204604FC304
:1002B100EB9FF5F0EA9E42F0E99D42F0E89C45F0A3
:1002C100603C501DE5825FFFE582D313CB5BCBF42D
:1002D1002B5582FB50280ABA002409B90020088056
:1002E1001DE5825BFBE582D313CF5FCFF4C3132FF0
:1002F1005582FF50090EBE00050DBD00010CC3EB78
:100301009FF5F0EA9E42F0E99D42F0E89C45F060DD
:0903110007CC4820E701B3EC22FF
:10031A0075F020800E75F010800575F0087D007E5E
:10032A00007F003392D530D503120606EC33401015
:10033A00EF33FFEE33FEED33FDEC33FCD5F0ED2267
:0E034A00E5F0247EA2D513CC92E7CDCEFF22A3
:10035800EDD2E7CD33EC3392D524814006E4FFFE9D
:10036800FDFC22FCE4CFCECDCC24E0501174FF80FC
:10037800EDC3CC13CCCD13CDCE13CECF13CF047099
:07038800F030D5DE0206068D
:10038F00E9D2E7C933E833F892D5EDD2E7CD33ECB4
:07039F0033FC5002B2D5222D
:1003A600EC30E7100FBF000C0EBE00080DBD0004B8
:1003B6000BEB6014A2D5EB13FCED92E7FD2274FF64
:1003C600FCFDFEFF22E480F8A2D574FF13FC7D80BD
:0303D600E480EFD1
:03000000021A9849
:0C1A9800787FE4F6D8FD7581FE021ADFAD
:1003D900E709F608DFFA8046E709F208DFFA803E06
:1003E90088828C83E709F0A3DFFA8032E309F608F3
:1003F900DFFA8078E309F208DFFA807088828C835B
:10040900E309F0A3DFFA806489828A83E0A3F6080E
:10041900DFFA805889828A83E0A3F208DFFA804CE8
:1004290080D280FA80C680D4806980F280338010BF
:1004390080A680EA809A80A880DA80E280CA803328
:1004490089828A83ECFAE493A3C8C582C8CCC583A0
:10045900CCF0A3C8C582C8CCC583CCDFE9DEE78070
:100469000D89828A83E493A3F608DFF9ECFAA9F0EF
:10047900EDFB2289828A83ECFAE0A3C8C582C8CC45
:10048900C583CCF0A3C8C582C8CCC583CCDFEADE5E
:10049900E880DB89828A83E493A3F208DFF980CCC0
:1004A90088F0EF60010E4E60C388F0ED2402B404B9
:1004B9000050B9F582EB2402B4040050AF23234560
:0604C90082239004297358
:1004CF00EF8DF0A4A8F0CF8CF0A428CE8DF0A42E41
:0204DF00FE22FB
:1004E100BB010A89828A83E0F5F0A3E022500687E6
:1004F100F009E71922BBFE07E3F5F009E3192289A8
:0B050100828A83E493F5F074019322DA
:10050C00BB010A89828A83F0E5F0A3F0225006F73A
:0F051C0009A7F01922BBFE06F3E5F009F3192237
:10052B0075F008758200EF2FFFEE33FECD33CDCC87
:10053B0033CCC58233C5829BED9AEC99E58298400A
:10054B000CF582EE9BFEED9AFDEC99FC0FD5F0D6E7
:10055B00E4CEFBE4CDFAE4CCF9A88222B800C1B911
:10056B000059BA002DEC8BF084CFCECDFCE5F0CB4F
:10057B00F97818EF2FFFEE33FEED33FDEC33FCEB88
:10058B0033FB10D703994004EB99FB0FD8E5E4F943
:10059B00FA227818EF2FFFEE33FEED33FDEC33FC30
:1005AB00C933C910D7059BE99A4007EC9BFCE99A24
:1005BB00F90FD8E0E4C9FAE4CCFB2275F010EF2F69
:1005CB00FFEE33FEED33FDCC33CCC833C810D70769
:1005DB009BEC9AE899400AED9BFDEC9AFCE899F8A4
:0E05EB000FD5F0DAE4CDFBE4CCFAE4C8F92237
:0D05F900EF4BFFEE4AFEED49FDEC48FC2201
:0E060600C3E49FFFE49EFEE49DFDE49CFC2205
:10061400EB9FF5F0EA9E42F0E99D42F0E89C45F03C
:0106240022B3
:10062500E8600FECC313FCED13FDEE13FEEF13FFB3
:03063500D8F122D7
:10063800E8600FEFC333FFEE33FEED33FDEC33FC20
:03064800D8F122C4
:0C064B00E0FCA3E0FDA3E0FEA3E0FF2222
:0C065700ECF608EDF608EEF608EFF622CF
:0C066300ECF0A3EDF0A3EEF0A3EFF0220A
:0C066F00A42582F582E5F03583F5832296
:101AA400021C9AE493A3F8E493A34003F68001F2A2
:101AB40008DFF48029E493A3F85407240CC8C33343
:101AC400C4540F4420C8834004F456800146F6DF12
:101AD400E4800B0102040810204080901F26E47E5D
:101AE400019360BCA3FF543F30E509541FFEE49307
:101AF400A360010ECF54C025E060A840B8E493A3CE
:101B0400FAE493A3F8E493A3C8C582C8CAC583CAF8
:101B1400F0A3C8C582C8CAC583CADFE9DEE780BEB0
:011F380000A8
:00000001FF
