:100000000235B4123B6F7DFF7F007E04123B037FFD
:100010000F7E04123920EF7802C333CE33CED8F9E5
:10002000F5828E837F0E7E04123920EF5403FFE5A4
:0700300083FEE5824FFF2271
:03003B0002395433
:10004300023B92020407E86480F8E933E833601165
:100053000460F0ED33EC337009E8FCE9FDEAFEEBF4
:10006300FF220460DED3EB9FEA9EE99DE8C2E78CA2
:10007300F0C2F795F0400CE8CCF8E9CDF9EACEFAF6
:10008300EBCFFB1203D285D0F05804700320D5B315
:10009300E80470075002B2D502041192D5EC046053
:1000A300F7E4CCC0E0C398F8603B94186008400DB7
:1000B300D0E0FB0203E9E4FBFAC9FC8028E830E462
:1000C30006E4C9FBE4CAFCE830E305E4C9CACBFC97
:1000D300E854076010F8C3E913F9EA13FAEB13FBCA
:1000E300EC13FCD8F130F52FC3E49CFCEF9BFFEE3F
:1000F3009AFEED99FDD0E0FBEF4E4D4C701222DBE2
:100103000302040EEC2CFCEF33FFEE33FEED33FD64
:10011300ED30E7EB0203E9EF2BFFEE3AFEED39FD9D
:10012300D0E0FB50130BBB0003020411ED13FDEEF3
:1001330013FEEF13FFEC13FC0203E9EC4D6011E82F
:10014300497017ED33EC3304600DE4FCFFFEFD2230
:10015300E933E8330470F80204071203D258046049
:1001630009E4CC24815006285009020411284003D5
:1001730002040EC0E0EB4A7044B98006D0E0FB02F3
:1001830003FDEF4E701CBD8008EBFFEAFEE9FD8026
:10019300EBE98DF0A4FEE5F0020227E9CDF9EAFED2
:1001A300EBFFEF89F0A4FCE5F0CE89F0A42EFFE489
:1001B30035F0CD89F0A42DFEE435F08067EF4E7065
:1001C30005BD80D780C3EF8BF0A4ACF0EE8BF0A419
:1001D3002CFCE435F0F8EF8AF0A42CE5F038FCE4CD
:1001E30033CB8DF0A42CFCE5F03BF8EE8AF0A42C85
:1001F300FCE5F038F8E433CF89F0A42CFCE5F038C3
:10020300CF3400CE89F0A42FFFE5F03EFEE433C9DE
:100213008DF0A42EFEE5F039CD8AF0A42FFFE5F092
:100223003EFEE43DFD33D0E0FB50070BBB000F0265
:100233000411EC2CFCEF33FFEE33FEED33FD020330
:10024300E9020411EC5D046005E85904700302043B
:10025300071203D2580460F6EC4860F2EC7004FD18
:10026300FEFF22C860DB2481C85009C39860025096
:100273000602040E9850CAF582E9294B4A7005AB71
:10028300820203FD75F0007C1A7880C3EF9BEE9A1F
:10029300ED99400DC3EF9BFFEE9AFEED99FDE84209
:1002A300F0DC23ACF0D0E0FFD0E0FED0E0FDAB8289
:1002B30020E7101BEB60BAEC2CFCEF33FFEE33FEB0
:1002C300ED33FD0203E9E803F830E705C0F075F00C
:1002D30000EF2FFFEE33FEED33FD40B830E7C28071
:1002E300AA74F8CC6480CCC86480C8F58204604FDB
:1002F300C3EB9FF5F0EA9E42F0E99D42F0E89C458E
:10030300F0603C501DE5825FFFE582D313CB5BCBEE
:10031300F42B5582FB50280ABA002409B90020089F
:10032300801DE5825BFBE582D313CF5FCFF4C3135C
:100333002F5582FF50090EBE00050DBD00010CC3F1
:10034300EB9FF5F0EA9E42F0E99D42F0E89C45F010
:100353006007CC4820E701B3EC2275F020800E75CE
:10036300F010800575F0087D007E007F003392D584
:1003730030D5031206D2EC334010EF33FFEE33FED9
:10038300ED33FDEC33FCD5F0ED22E5F0247EA2D570
:1003930013CC92E7CDCEFF22EDD2E7CD33EC3392EF
:1003A300D524814006E4FFFEFDFC22FCE4CFCECD44
:1003B300CC24E0501174FF80EDC3CC13CCCD13CD0E
:1003C300CE13CECF13CF0470F030D5DE0206D2E9C0
:1003D300D2E7C933E833F892D5EDD2E7CD33EC3326
:1003E300FC5002B2D522EC30E7100FBF000C0EBE5A
:1003F30000080DBD00040BEB6014A2D5EB13FCED5C
:1004030092E7FD2274FFFCFDFEFF22E480F8A2D5F3
:1004130074FF13FC7D80E480EFED33EC3360100454
:10042300700FED547F7005740292E022740422046D
:1004330022E422ED33EC33600A047003BD8004EC44
:10044300B2E7FC22C0E0EFFBEEFAEDF9ECF81201A3
:100453003ED0E0F5F0EFFBEEFAEDF9ECF81207060B
:10046300A3A3A3A3E8C0E0E9C0E0EAC0E0EBC0E0D7
:10047300C0F012013E120716A3A3A3A312004DD08E
:10048300F0D0E0FBD0E0FAD0E0F9D0E0F8D5F0D43A
:1004930022E709F608DFFA8046E709F208DFFA8067
:1004A3003E88828C83E709F0A3DFFA8032E309F602
:1004B30008DFFA8078E309F208DFFA807088828C1B
:1004C30083E309F0A3DFFA806489828A83E0A3F6D9
:1004D30008DFFA805889828A83E0A3F208DFFA8072
:1004E3004C80D280FA80C680D4806980F2803380C9
:1004F3001080A680EA809A80A880DA80E280CA8091
:100503003389828A83ECFAE493A3C8C582C8CCC535
:1005130083CCF0A3C8C582C8CCC583CCDFE9DEE7B2
:10052300800D89828A83E493A3F608DFF9ECFAA9A4
:10053300F0EDFB2289828A83ECFAE0A3C8C582C866
:10054300CCC583CCF0A3C8C582C8CCC583CCDFEAB5
:10055300DEE880DB89828A83E493A3F208DFF980F3
:10056300CC88F0EF60010E4E60C388F0ED2402B436
:10057300040050B9F582EB2402B4040050AF2323E6
:100583004582239004E473EF8DF0A4A8F0CF8CF0A0
:10059300A428CE8DF0A42EFE22BC000BBE0029EFB2
:1005A3008DF084FFADF022E4CCF875F008EF2FFF57
:1005B300EE33FEEC33FCEE9DEC984005FCEE9DFE25
:1005C3000FD5F0E9E4CEFD22EDF8F5F0EE8420D26C
:1005D3001CFEADF075F008EF2FFFED33FD400798DB
:1005E3005006D5F0F222C398FD0FD5F0EA22C2D50A
:1005F300EC30E709B2D5E4C39DFDE49CFCEE30E7A3
:1006030015B2D5E4C39FFFE49EFE12059CC3E49D8F
:10061300FDE49CFC800312059C30D507C3E49FFFD7
:10062300E49EFE22BB010A89828A83E0F5F0A3E0FF
:1006330022500687F009E71922BBFE07E3F5F0090C
:10064300E3192289828A83E493F5F074019322BB30
:100653000110E58229F582E5833AF583E0F5F0A3FD
:10066300E0225009E92582F886F008E622BBFE0A5B
:10067300E92582F8E2F5F008E222E5832AF583E929
:1006830093F5F0A3E99322F8BB0111E58229F582E2
:10069300E5833AF583E8F0E5F0A3F0225009E92574
:1006A30082C8F608A6F022BBFE09E92582C8F2E556
:1006B300F008F222C3EF9BFFEE9AFEED99FDEC9852
:1006C300FC22EF4BFFEE4AFEED49FDEC48FC22C352
:1006D300E49FFFE49EFEE49DFDE49CFC22E8600FA2
:1006E300ECC313FCED13FDEE13FEEF13FFD8F12261
:1006F300E8600FEFC333FFEE33FEED33FDEC33FC65
:10070300D8F122E493FC740193FD740293FE740305
:1007130093FF22E493F8740193F9740293FA740338
:1007230093FB22D083D082F8E49370127401937008
:100733000DA3A393F8740193F5828883E473740281
:10074300936860EFA3A3A380DFE4F523FBFAF978B2
:10075300401202478F278E268D258C24122D9CAFA5
:1007630027AE26AD25AC24120BFF8F23E5236001B2
:10077300227D527F137E011238E68F28120003C3B5
:10078300EE94275014E528C3940E500D0528052830
:100793007D527F13120B8F80E3121B7E1238E68F7C
:1007A30028120003C3EE94275014E528C3941E5067
:1007B3000D052805287DFA7F08120B8F80E37FFA49
:1007C3007EED7DEB7CBA121A7E121A9A121A1979EF
:1007D300A078411202478F498E488D478C467F008F
:1007E3007E007D207C411226D3C004C005C006C014
:1007F30007120003AC06AD07E41203627B817A049F
:100803007935783F12013ED003D002D001D00012D7
:10081300013E12039B8E218F22121AE2121A7E12BC
:1008230002E4600540030209D9C2007F667E667D4B
:10083300A612199F7FE27EB87D007C4E1200498F7D
:10084300458E448D438C42121D8A8F23E52360011C
:1008530022C2017F667E667DA67C3F121A7E12014C
:100863003E8F458E448D438C42E4F5461238297FF2
:10087300407E547D897C4B121A7E1202E450591239
:100883000B79E52364807017120BA5E528D3940137
:10089300400DE52813F528120B1E120B7980ECE5A9
:1008A300236481702D120BA5E528C3941F40030216
:1008B300094074042528F528D3941F4003020940F6
:1008C300120B0F753C08753D007DA07F17120BDCE2
:1008D30080D6E5236067FF22753C01753D007D707E
:1008E3007F16120BDCE5236480701E120BE8E528EB
:1008F300D3940040141528120B0F120003C3EF9575
:1009030022EE952150E8E4F523E523648170281253
:100913000BE8E528C3941F50240528E528941F50AD
:100923001CE528120B1E120003D3EF9522EE95212E
:1009330040E0E4F5238006E5236002FF22120B5416
:10094300600122120BBD7D107F137E011238E68FEA
:100953002AE52A64036005E52AB402121219997F75
:10096300887E457DC87C4E121A197920800DE52AB0
:10097300B40113121999121A11797078C1121A0B52
:100983008E288F2980037FFD227BFF7A0FE4FDFCF5
:10099300AF29AE28121991121AFF123749E52AD34B
:1009A30094014007121A6A8F2B8011E52AB40109BA
:1009B300121A6AEF04F52B80037FFC22AF2B7E0013
:1009C3007B0F12198C120B2B121A6A121B4D121960
:1009D3008C120B358009120B54600122120BBD756A
:1009E3003C10753D00AB22AA21121AFF12301A8F58
:1009F30023E523600122121AFF1238E68E288F297D
:100A0300121B691238E68F2A7D857F147E01123806
:100A1300E68F2B7DDB7F177E011238E68E2C8F2D20
:100A2300121B701238E68E2E8F2F7D607F1A7E0187
:100A33001238E68F307DD97F1A7E011238E68F3166
:100A43007DA87F167E011238E68F327D707F167E79
:100A5300011238E68F337D227F157E011238E68F2F
:100A6300347D337F157E011238E68F357DFD7F1887
:100A73007E011238E68F36122F49AB29AA28121AA3
:100A8300FF123749E52AFB7A00120B2BE52BFB7A81
:100A930000120B35AB2DAA2C7DDB7F177E0112379D
:100AA30049AB2FAA2E121B70123749E5307D601215
:100AB3000B9AE5317DD9120B9AE5327DA8120B3FD3
:100AC300E5337D70120B3FE5347D22120BF4E535DF
:100AD3007D33120BF4E536FB7DFD120B4A7B0C7D57
:100AE30095120B4A7B0C7F18120BD27DEA120BB1C5
:100AF3007D95120BB17B107A007DFB7F167E011270
:100B030037497B107F14120BD27F0022E528FB7A32
:100B1300007DFB7F167E0112374922FB7A007DFBA5
:100B23007F167E01123749227DFC7F127E01123728
:100B330049227D857F147E0112374922FB7A007F8B
:100B4300167E01123749227A007F187E0112374937
:100B530022C200AB27AA26A925A8247FE27EB87D5E
:100B6300007C4E1200498F458E448D438C42121DEA
:100B73008A8F23E52322753C08753D00AB22AA2109
:100B83007DA07F177E0112301A8F2322E528FB7A7E
:100B9300007E0112374922FB7A007F1A7E01123749
:100BA30049227DFB7F167E011238E68F28227B14B3
:100BB3007A007F197E0112374922C20185274585B4
:100BC3002644852543852442E4F546123829227AB2
:100BD300007D407E0112374922AB22AA217E0112F9
:100BE300301A8F23227DFB7F167E011238E68F2871
:100BF30022FB7A007F157E01123749228F3A8E3904
:100C03008D388C377F207E001239208E3B8F3C7DC0
:100C1300107F137E011238E68F3D7D407F197E01E0
:100C23001238E68F3E903D771219C11219751202E0
:100C3300E44013121B58903D7B1219C71219751209
:100C430002E4600540037FFF22753F051219E2C0ED
:100C530006C0071219E2123920E53F25E024A1F569
:100C630082E4343D121A75121B5FE53F25E0249799
:100C7300F582E4343D121B13D007D006123AE8D5AF
:100C83003FCA753F00754032E54025E0FDE53F333F
:100C9300FC74AB2DF582743D3C1219ED740F2DF5E8
:100CA30082743E3C121A75FD123AE8E54015407015
:100CB30002153FE540453F70CFE53D7D107F1312A0
:100CC3001058E53EB41F047B168003E53EFB7A0013
:100CD3007D407F197E01123749E4FFFE7DA07C41F0
:100CE3001219751219F78F3F121AD58F3FAC3F12A5
:100CF3001A2E12004D122CBEEF6001221210401268
:100D03003985C2007545E27544B875430075424E96
:100D1300121D8AEF6001227B027A00121AF8123741
:100D230049123985D20075455675442175430375BB
:100D3300424E121D8AEF600122AD3CAC3B7F207E08
:100D430000123AE81239DCD2017545807544967574
:100D5300431875424BE4F546123829C201E4F545C0
:100D6300F544F543F542F546123829121AE21219F1
:100D7300751202E4600250167B017A00121036E409
:100D8300FBFA121B691237497B0F7A008076E53D27
:100D930064036005E53DB4021C1219757F887E4526
:100DA3007DC87C4E121A19792078C1121A0B121AB7
:100DB300B18F41801FE53D64017016121975121A37
:100DC30011797078C1121A0B121AB1EF04F5418030
:100DD300037FAA227BFF7A0FE4FDFCAF40AE3F12F4
:100DE3001991121036AF41EF3395E0FE7B0F1219C4
:100DF3008C121B69123749AE3FAF40121AB5121B52
:100E03004D12198C7D857F147E01123749E4F53F1D
:100E1300E53EC394155003753F01E53EC3940D5061
:100E230003753F02E53EC394085003753F03E53F56
:100E33007D607F1A121058E53E75F00A84FCE412B7
:100E430003678F498E488D478C467F667E667D2675
:100E53007C3F1226D3E4FBFA79D7784312013E7B19
:100E6300337AB379DC78C212004D7B9A7A9979A3ED
:100E73007841121A1979807841121A0B8F3FEF3398
:100E830095E0FE7B1F12198C7DD97F1A7E011237E4
:100E9300497F407E547D897C4B1219751202E440D0
:100EA30003020F5F7F15121A481237497D33121957
:100EB300B5123749E4FBFA12101C1219A97FFC7E04
:100EC300BE7D00121A1779CE78C2121A0B8E3F8F8D
:100ED300407BFF7A0712198E121B70123749753F38
:100EE3000512196D12013E7BC07AE17964784B12C9
:100EF30002E460054003753F0412196D121A3A1299
:100F030002E460054003753F0312196D12013E7B35
:100F1300807A967998784A1202E460054003753F17
:100F23000212196D12013E7B007A1B7937784A123F
:100F330002E460054003753F0112196D12013E7B07
:100F4300007AE679AA78491202E460054003E4F5E1
:100F53003FE53FFB7A007DDB7F17807F121AE212A9
:100F630019751202E47D221219B56002505B123723
:100F730049E4FBFA12104E7B017A0012101C12197D
:100F8300A97F5E7ED07DB2121A17794878C2121AF1
:100F93000B8E3F8F4012198A7D707F167E011237A8
:100FA3004912196D12013EE4FBFA792078411202CD
:100FB3004712039BEF24FDF53FFF3395E0FE7B08CB
:100FC30012198C7DA87F1680121237497B017A0093
:100FD30012104E7B027A007DFD7F187E0112374985
:100FE300E53C54036402702EFBFA7D117F82FE12EE
:100FF3003749121040121B777F0D7E011237497B50
:10100300017A007DEE7F007E01123749AB3CAA3B9B
:10101300121AF81237497F00227DFD7F187E0112D4
:1010230037497F667E667DA67C3FAB3AAA39A938ED
:10103300A837227DB07F127E01123749227B017AC5
:10104300007D107F207E00123749227D337F157E7D
:101053000112374922FB7A007E01123749228F247D
:101063008E238D228C217F207E001239208E2B8FA0
:101073002C903D7F121A20400A903D8B121A20605B
:101083000540037F2222121B58AF24AE23AD22ACAE
:10109300211202478F2A8E298D288C27903D831297
:1010A3001A20601B4019903D87121A205011121B01
:1010B30058903D871219C78F2A8E298D288C2712A5
:1010C3002D9CAF2AAE29AD28AC27121447EF60013F
:1010D300227E0412143C7E0212143C1200038E255D
:1010E3008F26121B7E1238E68F2DC3E525942750D9
:1010F3001DE52DC3942B5016052DE52DFB7A00120B
:101103001B7E1237491200038E258F2680DC1219AD
:10111300BE121B42600540030211D7C200752D05A4
:1011230012133B5035C31219CE5012121AA6400D9A
:10113300E5331533700215321213BB80E8C312195D
:10114300CE5013E5334532700D1213AC7D7012147B
:101153000D121B068050C20080511219CD404C1253
:1011630019CD4016E533941F121AAA500D0533E525
:1011730033700205321213F980E51219CD401AE5D6
:1011830033641F453270121213AC7D701213D012E8
:101193001B067E011237498002C2000533E5337016
:1011A300020532121A507E01123749152D121432DC
:1011B3008F34E534700302129BF4700302129B20F8
:1011C300000302129BC3E52D648094804003021147
:1011D3002302129BC200752D057B027A007D607F7E
:1011E3001A7E0112374912133B503AC31219CE50DB
:1011F30012121AA6400DE53315337002153212137D
:10120300BB80E8C31219CE5018E533453270121271
:1012130013EA7DF812140D8F34EFFB7DF87F0980FC
:1012230052C20080531219CD404E1219CD4016E51B
:1012330033941F121AAA500D0533E5337002053299
:101243001213F980E51219CD401CE533641F4532B2
:1012530070141213EA7DF81213D08F34EFFB121BB4
:10126300851237498002C2000533E5337002053227
:10127300121A507E01123749152D121B851238E6BA
:101283008F34E5346012F4600F30000CC3E52D6435
:1012930080948040030211E91214328F2D7DC87FA0
:1012A3000A7E011238E68E2E8F2F121B851238E626
:1012B3008E308F31122F49AD2CAC2B7F207E001244
:1012C3003AE87D8C7C317F067E01123AE87D8C7F83
:1012D300077E01123AE8AB2FAA2E7DC87F0A7E0152
:1012E3001237491219BE121B42600250247D441268
:1012F3001426121A46123749121A90123749121B32
:10130300777F0B7E01123749E52DFB7A007D7080D4
:101313001DE4FBFA7D447F057E011237491219D77C
:101323001237497D11121426AB31AA307DF87F099B
:101333007E011237497F0022E4FBFA7D417F407E24
:1013430002123749E4FBFA7D417F407E041237499C
:101353001200038E2E8F2FAC2EAD2FE41203627B6F
:10136300817A047935783F12013E12039B8E308FC8
:10137300317B017A007D417F407E021237497B0138
:101383007A007D417F407E041237491200038E2587
:101393008F267DC87F0A7E011238E68E328F33C3D3
:1013A300E5269531E525953022D2007B10FA7DC8DC
:1013B3007F0A7E0112374922AB33AA327DC87F0AE6
:1013C3007E011237491200038E258F26227F097E64
:1013D300011238E6EF24F6FFEE34FFFE7BFF7A00BE
:1013E300E4FDFC123A2922D2007B10FA7DC87F0A61
:1013F3007E0112374922FBAA327DC87F0A7E011281
:1014030037491200038E258F26227F097E01123869
:10141300E6EF2419FFE43EFE7BFF7A00E4FDFC12B5
:101423003A29227B017A007F057E01123749227D0A
:10143300707F097E011238E622E4FBFA7D417F408A
:10144300123749228F398E388D378C36121AF8129B
:1014530038E68E3A8F3B753C06121B1F1219EDC0FE
:1014630006C007121B1F1219ED123920E53C25E0B7
:10147300248BF582E4343E121A75121B5FE53C257A
:10148300E0247FF582E4343E121B13D007D006120A
:101493003AE8D53CC4753C2CE53C25E02497F5821D
:1014A300E4343E1219EDE53C25E024EFF582E43403
:1014B3003E121A75FD123AE8D53CDD1219BE121A16
:1014C300871202E4600540030215747FCD7ECC7D54
:1014D3004C7C3F121A87121A9A121B2B7D44121945
:1014E300D9123749121A46123749121A901237493C
:1014F300121B777F0B1216A37BCE7A4079E878B85C
:1015030012013EC004C005C006C0071216BF7B957A
:101513007AB77915782512013ED003D002D001D0D5
:101523000012004DC004C005C006C0071216EF7BB1
:10153300757AEC7935783B12013ED003D002D001A5
:10154300D00012004DC004C005C006C0077FB47EA2
:101553004E7DA87C41121B37D003D002D001D000AE
:1015630012004D7B157AA3794112197E7D70021604
:1015730011121A9DAF39AE38AD37AC36121B2B7D25
:1015830044121A921237491219D71237497B017A3A
:10159300007D117F051216A37B347A0A795D78B931
:1015A30012013EC004C005C006C0071216BF7B6609
:1015B3007A277994783512013ED003D002D001D036
:1015C3000012004DC004C005C006C0071216EF7B11
:1015D300AC7A0D799C783C12013ED003D002D00145
:1015E300D00012004DC004C005C006C0077F437E73
:1015F300727DB77C3F121B37D003D002D001D000DD
:1016030012004D7BC37AC7793E12197E7DF87F099C
:101613007E01123749E4FFFE7DA07C41121A871236
:1016230019F78F3C121AD58F3CAC3C121A2E1200BC
:101633004D122CBEEF6001227B011216D67B0212E3
:1016430016D6AB3BAA3A121AF81237491239DCD232
:1016530001754500754424754374121705D201853D
:1016630039458538448537438536427546011238F6
:1016730029C2017545007544BA75435B121705C24B
:10168300017F007E507DC37CC7121A8712004D8FE5
:10169300458E448D438C427546011238297F0022C2
:1016A3007E01123749E4F549F548754740754640D0
:1016B300AF41AE40AD3FAC3E1226D322E4F549F52F
:1016C30048754780754640AF41AE40AD3FAC3E12D2
:1016D30026D3227A007D107F207E001237497B01BA
:1016E3007A007D117F1C7E0112374922E4F549F50A
:1016F30048F547754640AF41AE40AD3FAC3E12267C
:10170300D322754249E4F546123829228F55EFC397
:101713006001D392023002067E017F2180047E00A5
:101723007F8B8E568F577F813002027FA38F58E4C1
:10173300FBFA7D213002067F1C7E0180037F86FE3B
:10174300123749E4FB121951BF03037F04227BFFC5
:101753007A00121963A2029203123B35EF70037FE2
:101763000422E4F561F562E5622401FFE43561FEDC
:10177300EF7807C333CE33CED8F9FFAD62ED123124
:101783000BA60608A607E562AE617807C333CE331E
:10179300CED8F9FFED1230EDA60608A607ED1230FC
:1017A300EDE6FA08E6FB1219637563061230EBC027
:1017B3000012317A8005C333CE33CED8F9FFEC4E15
:1017C300FEED4FD000A60608F61230EB12193B8F40
:1017D30064E564B4031F1230EBC00012317A800554
:1017E300C333CE33CED8F9F4FFEEF45CFEED5FD015
:1017F30000A60608F6E564B40222AF62EF12310BCD
:10180300E6FC08E6FDEF1230EDE6FE08E6FFD31234
:10181300312D5008123109A60608A6071563C3E542
:1018230063648094805085AF62EF1230EDE6FC086C
:10183300E6FDEF12310BE6FA08E6FBD39DEC64807C
:10184300F8EA6480985031E562AE617807C333CE1D
:1018530033CED8F9FFD3EB9FEA9E401C123109081F
:10186300E6161870011612193BEF640260B91231C3
:10187300090806E6187001060562E5627002056153
:10188300C39402E5619400500302176AE56024FFE4
:10189300FFE55F34FFFEEFB55A12EEB5590E855DD5
:1018A30061855E62855B63855C64803FC3E55A95B1
:1018B3005CFFE559955BFEC3E55E9560FDE55D95CF
:1018C3005FFCD3ED9FEE6480F8EC6480987F00406A
:1018D300027F018F65EF1230EDE6F56108E6F562F0
:1018E300EF12310BE6F56308E6F564C3E562956430
:1018F300FFE5619563FE7C007D021205F1EF25642F
:10190300F564EE3563F563AB64121951EF6402605D
:1019130012E5642401FBE43563FAAD58AF57AE56C4
:10192300123749A2029203123B35EF64026006E5C7
:10193300552421FF227F0022E6FA08E6FBAD58AFCB
:1019430057AE56123749A2029203123B3522FAAD23
:1019530058AF57AE56123749A2029203123B3522B3
:10196300AD58AF57AE56123749227F667E667DA6C5
:101973007C3FAB3AAA39A938A8372278C212004D66
:1019830012039B8E3C8F3D7BFF7A00E4FDFC123AF1
:1019930029AA06AB07227FEC7E517D387C3FAB271B
:1019A300AA26A925A82412013EA804A905AA06ABC4
:1019B30007227B017A007F157E0122903D83E4FBA1
:1019C300FAF97840120706020247D3E5269531E576
:1019D300259530227D227B017A007F057E0122E559
:1019E3003F25E0248DF582E4343DF583E493FE74D2
:1019F3000193FF2212013E7B007AC8792F784C12A3
:101A03000247E4FBFAF9783F12004D02039B7FBBC8
:101A13007EEE7DA07C4F120247E4FBFA22120706FA
:101A2300AB24AA23A922A8210202E4E41203677BC0
:101A3300007AC8792F784C12013E7B807A96791808
:101A4300784B227F05E4FBFA7D227E0122FFAE3232
:101A53007B1F7A00E4FDFC123A298E328F33AB33BD
:101A6300AA327DC87F0A22AE28AF297C007D64029A
:101A7300059CF583E493FC74019322AB27AA26A962
:101A830025A82422AB39AA38A937A836227D11E428
:101A9300FBFA7F057E012212013E7B007A247974D2
:101AA300784922E5339400E53264809480228E3FA6
:101AB3008F407C007D640205F1C3E53F9543F53F0C
:101AC300E53E9542F53E22AB3FAA3EAD39AF38AE77
:101AD30037227E007B0D7A007D027C00023A297F4B
:101AE300607EFE7D4D7C4C22E543253FF53FE5427C
:101AF300353EF53E227D107F207E00227DB07F1291
:101B03007E01228E348F35AB35AA347D707F092256
:101B1300F583E4934EFC7401934FFD22E53C25E0ED
:101B23002473F582E4343E221202478F418E408DA6
:101B33003F8C3E22AB41AA40A93FA83E02013EABE7
:101B43002AAA29A928A8270202E4C3740F9FFFE445
:101B53009EFE7B0F22E4FBFAF9784022F4FDECF4BD
:101B63005EFEEF5DFF227DFC7F127E01227DA07F62
:101B7300177E01227B017A00E4FD227DFA7F087E35
:101B830001227DF87F097E01228E2D8F2E300006E3
:101B93007E037FFF80047E007F3F8E378F383000C7
:101BA300067E037FFF80047E007F3F8E398F3A12CB
:101BB3001D587D007C40121D6EAF2EAE2D123920B4
:101BC3008E358F36121D581222195535FEE5365FB4
:101BD3004E6019E5385236E5375235AE35AF367CAF
:101BE300FF7DFF12058A8E358F368008E538523621
:101BF300E53752358535338536341200038E2F8F02
:101C030030852F31853032E5362401FFE43535FE4A
:101C1300122236123A048E3B8F3CE4F53DF53EC367
:101C2300E53B648094805015122219FEEF423EEE8C
:101C3300423DE53C2538FFE53B3537800AE53C2549
:101C430038CFE53B1221F5121D76423EEE423DAD03
:101C53003EAC3D121D6EE53DAD3E121D6312000309
:101C6300C3EF9530EE952F50028001C39201753B6F
:101C730008E4FDFC121D8230010A0536E536700CBE
:101C830005358008E536153670021535122236AF54
:101C930036AE35123A048E358F36E4F53CF53DC346
:101CA300E53564809480500F122219FEEF423DEE19
:101CB300423C1222BF80031221EE121D76423DEEFA
:101CC300423CAD3DAC3C121D82E53CAD3D121D6373
:101CD3001200038E2F8F30C3E5309532E52F9531F7
:101CE300500C852F31853032853533853634153B9D
:101CF300D3E53B648094804003021C74E4F53BF518
:101D03003C853335853436C3E53564809480500F84
:101D1300122219FEEF423CEE423B1222BF80031215
:101D230021EEFE123B7CE5375EFEE5385F423CEE7A
:101D3300423BAD3CAC3BAF2EAE2D123AE8E53B4403
:101D430080FCAD3CAF2EAE2D123AE8E4FDFCAF2E85
:101D5300AE2D023AE8E4FDFCAF2EAE2D123AE82296
:101D63004480FCAF2EAE2D123AE822AF2EAE2D12D8
:101D73003AE822FE123B7CE5375EFEE5385F22AF90
:101D83002EAE2D123AE8227F207E001239208E4695
:101D93008F477A003000047B0280027B017D107F35
:101DA300207E00123749755407AF54123B5DAC06D1
:101DB300AD07E4120362AB45AA44A943A84212014A
:101DC3003E8F4B8E4A8D498C487F667E7F7D6212A3
:101DD3003113400D7F267EE57DE51231136005400A
:101DE30003D554C5E55424FFFBE434FFFA7D867F15
:101DF3001F7E011237497FAC7EE97DA31231137F29
:101E030000600440027F018F54EFFB7A007DAA7FBC
:101E13001C7E01123749E5542401FDE433FCE4122E
:101E23000362AB19AA18A917A81612013E123100B2
:101E3300AF4BAE4AAD49AC481202478F538E528D19
:101E4300518C5012039BE412035D123100AF53AE69
:101E530052AD51AC501200491231561231B28F4F6C
:101E63008E4E8D4D8C4CE4FFFE7D807CC0AB53AA1F
:101E730052A951A85012004D12039BAB07AA067D2D
:101E8300D47F1E7E01123749AF4FAE4EAD4DAC4CE1
:101E930012319D7F1E7E01123749E54FFFE54EFE4D
:101EA300AD07AC067F1D7E01123AE8C20178497C7A
:101EB300007D007BFF7A3F79B17E007F03120564CA
:101EC300E4F548121F657F013000027F0212170FED
:101ED300EF70167DA37F217E011238E6EF2480FF89
:101EE30074492548F8A607D2010548C3E54864802C
:101EF300948340CF754802121F76C006C007AF49CE
:101F0300EF3395E0FE123B7CD005D00412312B5009
:101F130003E4F548121F76C006C007AF4AEF3395B6
:101F2300E0FE123B7CD005D00412312B50037548E0
:101F330001121F6574492548F8E6FF3395E0FEEF6B
:101F43002480FBE43EFA7DA37F217E01123749AD55
:101F530047AC467F207E00123AE87F002001027FD3
:101F63000222E548FB3395E0FA7D217F217E0112B1
:101F730037492274492548F8E6FF3395E0FE123BC2
:101F83007C227F207E001239208E2B8F2C752D080A
:101F9300122275122154C006C00712227512215451
:101FA300123920E52D25E024CDF582E4343C1221BD
:101FB300A71222C9E52D25E024BDF582E4343C12A5
:101FC3002269D007D006123AE8D52DC4752D31E524
:101FD3002DD3941AE52D50171222DA122154E52D30
:101FE30025E0243FF582E4343D1221A7FD80091248
:101FF30022DA122154E4FDFC123AE8D52DD17DA654
:102003007F847E001238E68E2D8F2EAB2EAA2D7D77
:10201300A67F847E001237491222D31238E6EE706F
:102023002CEF14601324FE600F0470217B017A00EF
:10203300122127E4FBFA800AE4FBFA1221277B0131
:102043007A007DBB7F037E0112374980037F012223
:102053001221891237491222001238E6EF4E702DF1
:10206300122131123985D200122AF4C004C005C0EE
:1020730006C007122160122244D007D006D005D033
:102083000412004978CB122207C200802BC200122F
:102093002AF48F308E2F8D2E8C2D122189123749E1
:1020A300123985D200122160AB30AA2FA92EA82D98
:1020B30012004D784B122207121D8A8F2AE52A60DF
:1020C300042470FF2212213D1239DC1232838F2A3D
:1020D300E52A60042430FF221239B3D2017545404A
:1020E30075445475430975424BE4F5461238291279
:1020F300215E122172123829E52C540364027021E7
:102103001221311222547F0D7E011237491222A36C
:10211300123749E4FBFA7D117F82FE1237491221FF
:102123003D7F00227DAA7F037E01123749227B0176
:10213300FA7D107F20FE12374922AD2CAC2B7F2075
:102143007E00123AE822E52B25E02417F582E434D9
:102153003CF583E493FE740193FF22C201AF15AEF5
:1021630014AD13AC12E4FBFA79A07840020247786D
:10217300C77B007A5079C312004D8F458E448D433F
:102183008C42E4F546227B027A007D107F207E009C
:10219300227D77E4FBFA7F0C7E042225E0249BF565
:1021A30082E4343BF583E493FC74019322783F7C0F
:1021B300007D007BFF7E007F03020564E975F02844
:1021C3008475F018A4FFE92400FDE43405CD2FFF46
:1021D300ED35F0FE227B017A007DFF7FC07E052274
:1021E3007D227B017A007F0C7E0422E5362538CFE1
:1021F300E5353537CF2401CF3400227B017D667F5F
:102203001C7E01227B407A54790912004D8F458E42
:10221300448D438C4222E5382401FFE4353722C341
:10222300E548954AE547954922C3E5419543E5408D
:10223300954222C3E4953AFDE49539FCAB3AAA39B9
:1022430022A804A905AA06AB0722903FD1E493FD77
:10225300227B017A00E4FD22903FC8E493FD2290A3
:102263003FCBE493FD22F583E4934EFC7401934F3B
:10227300FD22E52D25E024ADF582E4343C22D39004
:102283003D757401939FE4939E22FEC3EF9401EE88
:1022930064809480227B017A007D337F087E022252
:1022A3007B017A007DEE7F007E01227D527F137ECB
:1022B3000122C3E52E952AE52D952922E5362538F9
:1022C300FFE535353722F4FDECF45EFEEF5DFF22CA
:1022D3007D877F0D7E012225E024DDF582E4343CF9
:1022E300227F207E001239208E228F23122D9C12F2
:1022F3001F858F21E521600302237B1231B812224F
:10230300D31238E6BF020C7D55122429E4FBFA7D73
:1023130033800A7D66122429E4FBFA7D447F0D7E17
:10232300011237491221891237491222001238E665
:10233300EF4E701BFA1221FE1237497B0112218BDB
:10234300123749E4FBFA7D117F1C7E0112374912D3
:10235300243FAF15AE14AD13AC121233357DDD122D
:10236300243412219412374912215E7847122174C2
:10237300123829C2001229FBE5216006122F49AF4A
:102383002122903FCC122156903FCEE493FD123888
:10239300E68E248F25903FCF12215612224D1238FC
:1023A300E68E268F27903FC3122156903FC5E493B4
:1023B300FD1238E68E288F29122F4912243F903FB1
:1023C300CC122156903FCEE493FDAB25AA241237BD
:1023D30049903FCF12215612224DAB27AA2612371E
:1023E30049903FC3122156903FC5E493FDAB29AA00
:1023F300281237491221D8123749E52330E007E480
:10240300FBFA7D668005E4FBFA7D777FC07E0512CB
:1024130037497D20122434E4FBFA7D887F0C7E0447
:102423001237497F0022E4FBFA7F0C7E0112374901
:1024330022E4FBFA7F0C7E0412374922AD23AC223F
:102443007F207E00123AE8227F207E001239208E00
:10245300298F2A752B09122149C006C00712214969
:10246300123920E52B25E0243BF582E4343C12218C
:10247300A71222C9E52B25E02429F582E4343C1276
:102483002269D007D006123AE8D52BCA752B18E576
:102493002BD394185020E52B25E0244DF582E4340A
:1024A3003C122154E52B25E0247DF582E4343C12D3
:1024B30021A7FD123AE8D52BD61239B3123283EF96
:1024C3006001227B0112218B123749123985D20018
:1024D300122AF4C004C005C006C0071221601222EC
:1024E30044D007D006D005D0041200497B007A24DB
:1024F300797478C912004D8F2E8E2D8D2C8C2BC2A2
:1025030000122210121D8AEF60042460FF22E52AC4
:1025130030E11BE4FBFA7D117F82FE123749122260
:10252300547F0D7E011237491222A312374912211B
:10253300891237497A001221FE123749AD2AAC2994
:102543007F207E00123AE81239DCD2011221601298
:10255300217D1238297DBA7F037E011238E68F2B45
:10256300E52B64016009E52B640260037F0522E526
:102573002B2401FBE433FA1222D31237497D657F02
:102583000C1225917D437F0D1225917F0022E52BAF
:102593006403FB7A007E01123749223E9248DA3EF9
:1025A300CCCCCD3F2AAAAB400000003F8000003FC7
:1025B3009837F03FB504F33FD744FC3E3172173EE2
:1025C300B172173F0515913EDE5BD9D2018002C27D
:1025D30001EDD2E7F8CD33EC3304700BBD800592E7
:1025E300D502041102040740FBD31460F2F5F07C1A
:1025F3003FEE7A00C39496C8948B40230AC894692B
:10260300C8941A401A0AC89468C8941F40110AC88B
:10261300945AC89425400805F07A00CDC2E7CDC08E
:10262300F08C4C8D4D8E4E8F4FEA2323C0E024AEA9
:10263300F582E43425F58312071612004DECC0E051
:10264300EDC0E0EEC0E0EFC0E0120706A84CA94DD4
:10265300AA4EAB4F120049D0E0FBD0E0FAD0E0F92C
:10266300D0E0B2E7F81202478C4C8D4D8E4E8F4F5F
:1026730090259E7403120447A84CA94DAA4EAB4F54
:1026830012013ED0E0600F24BAF582E43425F583CD
:1026930012071612004D8C4C8D4D8E4E8F4FD0E08D
:1026A300C3947FFDE49400FC1203627B187A727971
:1026B30031783F12013EA84CA94DAA4EAB4F1200F0
:1026C3004D30010B7BD97A5B79DE783E12013E22D5
:1026D3008F458E448D438C42E4FFFE7D807C3FAB6F
:1026E30045AA44A943A8421202E47009AF45AE4487
:1026F300AD43AC4222AF45AE44AD43AC4212041CE1
:10270300FBAF49AE48AD47AC4612041CFFBF0108FE
:10271300E4FFFE7D807C3F22EF64046022EB6404CF
:10272300601DBB0127E4FFFEFDFCAB49AA48A94796
:10273300A8461202E460084006E4FFFEFDFC227492
:10274300FFF549F548F547F5460227E1E4F54AF573
:102753004BFFFEFDFCAB45AA44A943A8421202E489
:10276300504BAF49AE48AD47AC4612039B8E4A8FE0
:102773004BAC4AAD4BEC120362C8ECC8C9EDC9CAF5
:10278300EECACBEFCBAF49AE48AD47AC46120049DA
:10279300E4FBFAF9F81202E470A5AF45AE44AD4389
:1027A300AC421204368F458E448D438C42AF45AE06
:1027B30044AD43AC421225D2AB49AA48A947A84627
:1027C30012013E1235528F498E488D478C46E54B98
:1027D30030E00B1204368F498E488D478C46AF4943
:1027E300AE48AD47AC462212218D1238E68F3B121C
:1027F3002254FF7E01123749E4FBFA7D887F087E6D
:10280300021237491221941237491222981237497A
:102813001221D8123749903FC612215612225BE487
:10282300FBFA123749903FC9122156122262E4FB88
:10283300FA123749752BA07534A0E53BB40117751F
:102843002905752AC37532057533C47D441228F4EE
:10285300E4FBFAFD8016752905752AC575320575E1
:1028630033C67D551228F4E4FBFA7D117FC07E0543
:10287300123749E4F52CF52DF535F536F53CE53CF5
:1028830025E02413F582E4343C122154C3E52D9F43
:10289300F52FE52C9EF52EE52D2FF531E52C3EF594
:1028A30030C3E5369FF538E5359EF537E5362FF528
:1028B3003AE5353EF5397B007A007929122E757B8E
:1028C300007A007932122E75053CE53CC39403402F
:1028D300AD903FC612215612225B7BFF7A07123757
:1028E30049903FC91221561222627BFF7A070237B1
:1028F30049E4FBFA7FC07E051237492212218D126B
:1029030038E68F21122D9C12244B8F22E52270363C
:102913001231B81233DB1231B812215E7B007ABA5E
:10292300795B784912217A1238291227EAC2017594
:1029330045007544BA75435B754249E4F546123860
:1029430029D2001229FBE5226006122F49AF222269
:10295300903FC612215612225B1238E68E238F2433
:10296300903FC91221561222621238E68E258F2615
:10297300903FC0122156903FC2E493FD1238E68E79
:10298300278F28122F49E521FB12218B12374990FB
:102993003FC612215612225BAB24AA231237499059
:1029A3003FC9122156122262AB26AA25123749903B
:1029B3003FC0122156903FC2E493FDAB28AA2712D1
:1029C30037491221D8123749E521B40107E4FBFA4C
:1029D3007D448005E4FBFA7D557FC07E05123749AF
:1029E300122298123749E4FBFA7D107F087E021207
:1029F30037491239DC7F0022783C7C007D007BFF65
:102A030030001C7A3F79C61221B87A3F79C9122166
:102A1300B0782A7C007D007BFF7A3F79C0801A7AE8
:102A23003F79CC1221B87A3F79CF1221B0782A7C32
:102A3300007D007BFF7A3F79C31221B875310075A1
:102A43003280752FFF7530807F2A122BDA7DBF12FB
:102A53002AEA7DFF122AE21200038E428F437DFF92
:102A6300122AEA7DBFAF40AE3F123AE81200038E4E
:102A7300448F45C3E5439545E542954478337C004F
:102A83007D007B0050067A00793C80047A00793F10
:102A93001221B87DFF7C07122AE2753A07753BFFC6
:102AA3007538057539FF7F33122BDAE52E2410F5BF
:102AB30032E4352DF531E52E24F0F530E52D34FFE4
:102AC300F52F7F2A122BDAAD37AC36AF34AE331283
:102AD3003AE8AB2EAA2DAD2CAF2BAE2A023749AF65
:102AE30040AE3F123AE8227C07AF3DAE3C123AE8D3
:102AF300227F207E001239208E318F327A003000FF
:102B0300047B0280027B017D107F207E0012374907
:102B13007DD07F1E7E011238E68E338F347F1D7E7B
:102B230001123920E4FCFDC004C005C006C007FE45
:102B3300E5341231A9D003D002D001D0001206C56A
:102B43008F388E378D368C357DAA7F1C7E011238E7
:102B5300E6EF04F5397D867F1F7E011238E6EF0428
:102B6300F53AAD32AC317F207E00123AE8AF3A122B
:102B730030F5123187C004C005C006C007AC39E484
:102B8300120367D003D002D001D00012013EC0046B
:102B9300C005C006C007AF38AE37AD36AC3512310D
:102BA30052120247C004C005C006C007E533C4F88B
:102BB30054F0C868FEE534C4540F48240412314A63
:102BC300D003D002D001D00012004DD003D002D0E8
:102BD30001D00012013E228F4674FFF547F548A845
:102BE30007E82405F8E6F54B08E6F54CA807E824C2
:102BF30007F8E6F54D08E6F54EA807E6F55108E6B1
:102C0300F552A807E82402F8E6F553FD122CAF8E1F
:102C1300498F4AC3E54E954CFFE54D954B12228DE6
:102C2300405E7C007D021205F18E4F8F50122222EE
:102C3300500BAD53122CAF8E498F4A8014AB4CAA64
:102C43004BAD53AF52AE511237491200038E478F2B
:102C530048D3E5509400E54F6480948040221222CB
:102C630022500FC3E54E9550F54EE54D954FF54D6A
:102C730080A1E550254CF54CE54F354BF54B809342
:102C83001222225006AE4BAF4C8004AE4DAF4EE540
:102C9300462403F8A60608A607E5462403F8E6FA41
:102CA30008E6FBAD53AF52AE51023749AB4EAA4DC6
:102CB300AF52AE51123749120003228F458E448D15
:102CC300438C42754BFFE54B25E0FDE433FCE412F6
:102CD3000362AB45AA44A943A84212013E8F498E21
:102CE300488D478C467F287E6B7DEE7C4E12319259
:102CF300400F7F7D7EDA7D2C7C4F1231926008403D
:102D030006D54BC27F0322E54B7DA37F89122D7924
:102D13008F4AEF7DD47F88122D79AB07AA06A905C8
:102D2300A804AF4AE4FCFDFE1206B7E412035D8F6C
:102D33004E8E4D8D4C8C4BE4FFFE7D807C49AB4E1B
:102D4300AA4DA94CA84B1231B28F528E518D508C83
:102D53004FE4AB07AA067DF07F87FE123749AF52D7
:102D6300AE51AD50AC4F12319D7F887E0012374972
:102D7300E4FF12170F2224FFFBE434FFFA7E001254
:102D83003749AB19AA18A917A816AF49AE48AD47DA
:102D9300AC4612024712039B22E4F537F5387F2035
:102DA300FE1239208E3B8F3CE4F9E9C39424502A68
:102DB30012315EF539740193F53A123137953AE4DD
:102DC3009395394011122E3D70020537053AE53AC5
:102DD30070E8053980E4090980D07DFD122E651263
:102DE3002E3D70020537053AE53A70020539D39452
:102DF30023E539940140E87DFE122E65AF3AAE39E2
:102E0300123920AC06AD07E53825E0FFE53712316E
:102E13006DECF0A3EDF00538E53870020537053A9F
:102E2300E53A70020539D39423E539940140CDADD9
:102E33003CAC3B7F207E00023AE8AF3AAE39123910
:102E430020AC06AD07E53825E0FFE53733FE740017
:102E53002FF58274003EF583ECF0A3EDF00538E521
:102E630038227CFF7F207E00123AE8753901753ADB
:102E73001C228B3D8A3E893F74FFF540F54190004B
:102E830005120652F54585F044900007120652F5E7
:102E93004785F046122F388E428F43C3E547954549
:102EA300FFE546954412228D405B7C007D021205AE
:102EB300F18E488F4912222CAB3DAA3EA93F5009FF
:102EC300122F388E428F438014120627FFAEF0ADC7
:102ED30045AC441236CB1200038E408F41E5494581
:102EE30048602212222C500FC3E5479549F547E568
:102EF300469548F54680A4E5492545F545E5483519
:102F030044F544809612222C5006AE44AF4580040B
:102F1300AE46AF47AB3DAA3EA93F900003EE8FF00C
:102F230012068A120627FFAEF0900003120652FD26
:102F3300ACF00236CB120627FFAEF0AD47AC46121B
:102F430036CB12000322E4F537F5387F20FE123921
:102F5300208E3B8F3CE4F9E9C39424502A12315E5E
:102F6300F539740193F53A123137953AE49395396B
:102F73004011122FE670020537053AE53A70E8056D
:102F83003980E4090980D07DFD12300A122FE670E2
:102F9300020537053AE53A70020539D39423E5393A
:102FA300940140E87DFE12300AE53825E0FFE5375D
:102FB30012316DE0FCA3E0FDAF3AAE39123AE805F9
:102FC30038E53870020537053AE53A70020539D31A
:102FD3009423E539940140D1AD3CAC3B7F207E0086
:102FE300023AE8E53825E0FFE53733FE74002FF5B4
:102FF3008274003EF583E0FCA3E0FDAF3AAE3912E4
:103003003AE80538E538227CFF7F207E00123AE853
:10301300753901753A1C228E378F388D398A3A8B70
:103023003B1230E050028001C39200121ACE1238D4
:10303300E68E3E8F3FE539C4540FFFE539540FFE4A
:10304300C3EF9E04FF123B5DEF24FFF541EE34FF17
:10305300F540754200754301E54325E0F543E5423C
:1030630033F542300005121ABC8003121AEBAB4150
:10307300AA40E4FDFCAF3FAE3E123A298E3E8F3F9D
:10308300121ACA1237491230E07F0050027F01A2A0
:1030930000E433B50713C3E543953DE542953C4052
:1030A300B77F803000027F8122D3E5439401E5425C
:1030B30094004026E54213F542E54313F54312001D
:1030C30003C3EF953BEE953A4005121AEB800312CA
:1030D3001ABC121ACA12374980CF7F00221200038A
:1030E300C3EF953BEE953A22E56225E025E02459AE
:1030F300F822123B5DAC06AD07E4120362A804A9F3
:1031030005AA06AB0722E56225E025E0245BF82249
:103113007C4FAB4BAA4AA949A8480202E4AF50AE80
:103123004FAD4EAC4D020247C3EF9DEC6480F8EE09
:1031330064809822E925E0244BF582E4343FF5834B
:10314300C3740193222401FDE43EFCE4020362E420
:1031530012035DE4FBFA7980784922E925E02449EA
:10316300F582E4343FF583E4932233FE74002FF5B4
:103173008274003EF58322E6FC08E6FD74017E00BE
:10318300A8630822AF19AE18AD17AC16020247ABFD
:1031930049AA48A947A8460202E478101206E0AB00
:1031A30007AA067D3022540FFFE478100206F312BB
:1031B300013E02039B752A05752BC712218D123818
:1031C300E68F2CE4FBFAFDFF7E011237491221E35F
:1031D3001237491221D8123749E52CB401117D6603
:1031E3001232637D221232637D30123279801A7D6E
:1031F3007712326E7D3312326E7DC01232797402D1
:10320300252BF52BE4352AF52A7FC17E05123920BB
:10321300EE54F070F4903FCF12215612224DE4FB8E
:10322300FA123749C200AF2BAE2A121B8C903FCF44
:1032330012215612224D7BFF7A07123749E52B24C0
:1032430001FFE4352AFEC200121B8CE4FBFA7D2247
:103253007F0C7E04123749122254FF7E0102374944
:10326300E4FBFA7FC07E0512374922E4FBFA7FC0F4
:103273007E05123749227CFF7FC27E05123AE8227F
:103283001234807B007AC8792F784C120247E4FB12
:10329300FAF9783F12004D12039B8F32E532C39443
:1032A300025003753202E532D3940D400375320D9B
:1032B300AC32E41203677B007AC8792F784C120191
:1032C3003E122CBE8F31E53225E025E0F5337DBB80
:1032D3007F867E001238E6EF64014E70127DCB7F4D
:1032E30089FE1238E6123B5DE5338FF084F533AC8B
:1032F30033E41203671225D2C004C005C006C00719
:103303007F007E007D007C401225D2122244D0072C
:10331300D006D005D00412024712039B123B5DEF87
:1033230014F533FB7A007D707F077E04123749AFB3
:1033330031228F2D8E2C8D2B8C2A752E021222AECC
:103343001238E68F2F7DFA7F087E011238E68F3020
:103353007B017A007DDD7F0C7E04123749122194B4
:10336300123749C201AF2DAE2CAD2BAC2A12216806
:10337300122172123829801B122281401BE52E254F
:103383002FF52FD3940F5010E52FFB7A001222AEA6
:1033930012374912000380E0C3EE94105012053037
:1033A3000530E530943950081233CC12000380E81D
:1033B30012228140110530E530D3943E5008123378
:1033C300CC12000380EA7F0022E530FB7A007DFA0D
:1033D3007F087E0112374922752950752A007D2204
:1033E30012219612374912219412374912215EE4B1
:1033F300FBFAF9784012013E7B007ABA795B78498F
:1034030012217A1238291200038E2D8F2E7D407FD0
:10341300197E011238E68F2B1222AE1238E68F2C5A
:103423001222B55014E52CC3940F500D052CE52C36
:103433007D527F1312347080E7E52BC39412501F23
:10344300E52C640F70191222B55014E52BC39412A6
:10345300500D052BE52B7D407F1912347080DA7DEA
:10346300771221E51237491221E3023749FB7A002B
:103473007E011237491200038E2D8F2E227DA37FEA
:10348300897E001238E6EF123148C004C005C00639
:10349300C007E4FBFAF97840123187D003D002D099
:1034A30001D0001202478F588E578D568C557DD010
:1034B3007F887E001238E68E598F5A7DF07F877E93
:1034C300001238E6E4FCFDC004C005C006C007FED8
:1034D300E55A1231A9D003D002D001D0001206C59B
:1034E300123152120247C004C005C006C007E55995
:1034F300C4F854F0C868FEE55AC4540F4812314862
:10350300D003D002D001D00012004DAB58AA57A966
:1035130056A85512013E2233DA929E35B160113717
:103523007FE5FE392184893AAEC3FF3C1D955B3D9F
:103533006358473E75FDF03F3172183F800000C26B
:10354300D5020411020407BD80FA50F302040EED04
:1035530033EC330460F17B3B7AAA79B8783F1201EC
:103563003EED33EC3392D5247B5011A2D570DB5062
:103573000BED448024045004A2D580CEEFFBEEFA79
:10358300EDF9ECF812039BEFF582F404FC120367E8
:1035930012004DC08290351A7409120456ED33CCD3
:1035A30033D0F092D525F0A2D57001C313CC13FD0F
:1035B30022787FE4F6D8FD75816B0235FB02364035
:1035C300E493A3F8E493A34003F68001F208DFF445
:1035D3008029E493A3F85407240CC8C333C4540FBD
:1035E3004420C8834004F456800146F6DFE4800B90
:1035F3000102040810204080903ACBE47E019360DE
:10360300BCA3FF543F30E509541FFEE493A36001BC
:103613000ECF54C025E060A840B8E493A3FAE49326
:10362300A3F8E493A3C8C582C8CAC583CAF0A3C8D4
:10363300C582C8CAC583CADFE9DEE780BE7581D00B
:10364300E4F5A27591FFF59075A10775A9FF75A81B
:1036530080C2A0D2A13004FDE50A120726367F01FD
:10366300368602368D0336910436980536A706361C
:10367300B60736BD0836C4FF000036C71228FF8FD1
:103683009080411222E48F90803AC2008002D200DF
:1036930012388A802FAF15AE14AD13AC1212074C3B
:1036A3008F908020AF15AE14AD13AC121210618F42
:1036B300908011123A4E8F90800A123B1C8F90809B
:1036C30003759003C204808D8E4A8F4B8C4C8D4DB5
:1036D300C3E54B94C7E54A940550067E037FFF80FC
:1036E300047E007F3F8E4E8F4FE4F550F551C3E5C6
:1036F3004C64809480501AE54F2401FFE4354EFE5C
:10370300EF4251EE4250E54D254FFFE54C354E80DB
:103713000CE54D254FCFE54C354E1221F7FE123BFC
:103723007CE54E5EFEE54F5F4251EE4250AD51AC3B
:1037330050AF4BAE4A123AE8E5504480FCAD51AF6E
:103743004BAE4A023AE88A668B67A9058F828E835D
:10375300123920AD07AC06E9C4540FFFE9540FFB3F
:10376300C3EF9B04FF74FFFEA807088005C333CE95
:1037730033CED8F9F4FFEEF4FEEFA803088005C3B7
:1037830033CE33CED8F9F5698E68E9540FFFE56778
:10379300AE66A807088005C333CE33CED8F9FFE55C
:1037A300685EFEE5695FFFE569F4FBE568F45CFCD0
:1037B300EB5DFDEC4EFCED4FFDAF82AE83023AE8CC
:1037C3001234808F508E4F8D4E8C4D7DCB7F897EF2
:1037D300001238E61230F51231208F548E538D5279
:1037E3008C517DBB7F867E001238E6EF4E7017301A
:1037F3000209AF54AE53AD52AC5122E4FBFA7980C7
:1038030078401231202230020AAF50AE4FAD4EAC99
:103813004D8012E4FBFA79807840AF54AE53AD5239
:10382300AC5112024722E54675F002A4FFAEF07CCC
:10383300043001027C027D42EF2DF548EE3CF54752
:10384300A20192021237C3123100AF45AE44AD4319
:10385300AC42120247E4FBFA7980784F1231B28FFF
:103863004C8E4B8D4A8C4978101206E0AD07AC069E
:10387300AF48AE47123AE8E5482401FFE43547FE76
:10388300AC4BAD4C023AE8E50CAD0DFCE41203621F
:10389300E4FBFA797A7844120247C004C005C006F3
:1038A300C007AC0BE4120367D003D002D001D000F1
:1038B30012004D7B007A247974784912013E8F24DB
:1038C3008E238D228C2130000A8F198E188D178C30
:1038D30016800C852415852314852213852112E473
:1038E300F59022A905123920AC06AD07E9C4540F9F
:1038F30004FF74FFFEA807088005C333CE33CED878
:10390300F9F4FFEEF45CFEED5FFFE9540FFDEFA861
:1039130005088005CEC313CE13D8F9FF22E4FBFAC2
:10392300C2A0C2A1EE547FFE123A8ED2A27D10D263
:10393300A0123A6FEB25E0FBEA33FA30A30343030B
:1039430001C2A0123A6FDDE7D2A1D2A2AE02AF0349
:1039530022C0E0C0D075D000C000C006C00775907B
:10396300FF7F02740A2FF8E6FE740B2FF8A606DF1A
:10397300F285800B759000D007D006D000D0D0D050
:10398300E0327908E925E0248FF582E4343FF583BA
:10399300E493FE740193FFE925E0249FF582E43468
:1039A3003FF583E493FC740193FD123AE8D9D522E1
:1039B300E4F91221BFE912219EFD123AE809B93C4C
:1039C300F1E9C3947850111221BFC374779912217E
:1039D3009EFD123AE80980E9227DFF7C7F7F0C7E01
:1039E30002123AE87D557F007E02123B037D007C84
:1039F300807F0C7E02123AE87D667F007E02023BE6
:103A030003C3EF9DEC6480F8EE6480985005AE0428
:103A1300AF0522D3EF9BEA6480F8EE6480984005FB
:103A2300AE02AF032222C3EF9DEC6480F8EE648004
:103A3300985005AE04AF0522D3EF9BEA6480F8EEFD
:103A43006480984005AE02AF032222123B881239EC
:103A5300208F828E83AF09AE08123920AD07AC06E2
:103A6300AF82AE83123AE8C2057F0022756A007501
:103A73006B1F300515D3E56B9400E56A9400400A8B
:103A8300E56B156B70EF156A80EB227D10C2A012F7
:103A93003A6FEE3392A2123A6FEF25E0FFEE33FE58
:103AA300D2A0123A6FDDE6C2A022E4F566F567FD07
:103AB300FCE56725E0F567E56633F5660DBD0001B6
:103AC3000CBC01EDBD90EA2204124A9896800416BC
:103AD3004BEA6000C104020E002D0208020C021022
:103AE300040BC10500AB05AA04C2A0C2A1EE448029
:103AF300FE123A8EAF03AE02123A8ED2A1D2A222A6
:103B03008E548F558D56E4FBFA1237497B017A00A8
:103B1300AD56AF55AE54023749123B8812392012C5
:103B23003920AD07AC06AF11AE10123AE8C2057FDB
:103B33000022123AAD3003067E017F2380047E000B
:103B43007F8C7DDC1238E622E4F556F5577FC805F5
:103B530057E55770020556DFF62274017E00A80769
:103B6300088005C333CE33CED8F9FF22E4F554F5EC
:103B7300557E0A123B4BDEFB22EE30E707C3E49F80
:103B8300FFE49EFE227590FFD205AF0FAE0E2275A5
:103B930090FF85800AD20432000800040000FFFA77
:103BA300FFF5FFF0FFECFFEAFFEAFFECFFF2FFFB9C
:103BB300000600140022002E0038003D003A0030B9
:103BC300001D0003FFE3FFC1FFA0FF85FF74FF7229
:103BD300FF80FFA2FFD40014005D00A700E80118D6
:103BE300012E012300F4009F0029FF9AFEFEFE67C9
:103BF300FDE5FD8CFD6EFD9AFE1AFEF30022019D8C
:103C030003540530071608E80A890BDE0CCD0D496D
:103C130003FF008000080082008500AE010101134C
:103C2300020002010202020800000001F00000018C
:103C3300001C000C07FF07FF000000180007F0003E
:103C43001801003C000C07FF07FF210B0084010C47
:103C5300011201150116011701180119011A0400B7
:103C6300040104020403040404050406040704080D
:103C73000409040A040C044004420443040088E5D4
:103C8300403200058180280C218C31802E02008176
:103C930007FF07FF400000000000000007000000CE
:103CA3000000100120980020000000000082008521
:103CB30000AE010C010D01130115011900000001F3
:103CC300F00000000040000C0000000000080007A6
:103CD300F000001A0040003CC00080000100010118
:103CE300010201030104010501060107010801099D
:103CF300010A020002010202020802400400040158
:103D0300040204030407040A040C044005C005CBA1
:103D13000203020402050206020702410404040529
:103D2300040604080409044105C105C205C305C40A
:103D330005C505C605C705C805C905CA05CC3408A8
:103D4300600131800A1200880007318C318C04260F
:103D530061C1104C008D07FF07FF20700020008118
:103D630007FF07FF4000070010002098002000FF16
:103D73002020700049AAE6004CF7F4904A989680F8
:103D83004C1896804C3EBC204CF7F4900085010DF6
:103D93000113011400840001010000040010040059
:103DA30000070188003C001FF83F0082008600875F
:103DB30000880089008A008B008C01000101010248
:103DC3000103010401050106010701080109010AB4
:103DD300010C01150116011701180119011A02003E
:103DE300020102020203020402050206020702089C
:103DF300020902400400040104020403040404054C
:103E03000406040704080409040A040C044080039C
:103E1300490104000780002005142100067B3409B2
:103E230060013180061200880007318C318C042632
:103E330061C1104C88C500098180280C018C528B0C
:103E43002E02008D07FF07FF0000000000000000A6
:103E53000000207000000020008107FF07FF4000E2
:103E630000000000000000000000000010012038E6
:103E73000020008200850100010C010D00848001F7
:103E8300000100000000001E04001FFF00070001E6
:103E93000001001EF83F0086008700880089008A21
:103EA300008B008C01050106010701080109010AC5
:103EB30001150116011701180119011A0200020167
:103EC300020202030204020502060207020802407C
:103ED300024104000401040204030404040504066B
:103EE300040704080409040A040C044004414901BA
:103EF30004000780002005142100067B3007318C65
:103F0300318C058C61C1104C000D8180280C618CB3
:103F1300528C2E02008D07FF07FF000000000000F7
:103F230000000000007000200000008107FF07FF71
:103F3300400000000000000000000000000010012D
:103F43002038002000000021002F0082008200841E
:103F53000084008500850086008C009200A700A8DD
:103F630000A800AD00AE010001040105010A010C27
:103F730001140115011A0200020C0240026104003F
:103F8300040F04400461050005A705C005C0011C1A
:103F9300011D011E011F0120012101220123AD4347
:103FA300040007803640B9FF3404033F067B80805A
:103FB30080010ED7010E600204F80204700203B000
:0F3FC3000403B00202A00201A00402A00401A0A6
:00000001FF
