:100000000231B5E4F91220C1E9120022B93CF6E947
:10001000C39478500C1220C1C374779912002280C7
:10002000EE2225E0244CF582E43438F583E493FC99
:09003000740193FD1237990922B5
:03003B0002366525
:10004300023843020407E86480F8E933E8336011B7
:100053000460F0ED33EC337009E8FCE9FDEAFEEBF4
:10006300FF220460DED3EB9FEA9EE99DE8C2E78CA2
:10007300F0C2F795F0400CE8CCF8E9CDF9EACEFAF6
:10008300EBCFFB1203D285D0F05804700320D5B315
:10009300E80470075002B2D502041192D5EC046053
:1000A300F7E4CCC0E0C398F8603B94186008400DB7
:1000B300D0E0FB0203E9E4FBFAC9FC8028E830E462
:1000C30006E4C9FBE4CAFCE830E305E4C9CACBFC97
:1000D300E854076010F8C3E913F9EA13FAEB13FBCA
:1000E300EC13FCD8F130F52FC3E49CFCEF9BFFEE3F
:1000F3009AFEED99FDD0E0FBEF4E4D4C701222DBE2
:100103000302040EEC2CFCEF33FFEE33FEED33FD64
:10011300ED30E7EB0203E9EF2BFFEE3AFEED39FD9D
:10012300D0E0FB50130BBB0003020411ED13FDEEF3
:1001330013FEEF13FFEC13FC0203E9EC4D6011E82F
:10014300497017ED33EC3304600DE4FCFFFEFD2230
:10015300E933E8330470F80204071203D258046049
:1001630009E4CC24815006285009020411284003D5
:1001730002040EC0E0EB4A7044B98006D0E0FB02F3
:1001830003FDEF4E701CBD8008EBFFEAFEE9FD8026
:10019300EBE98DF0A4FEE5F0020227E9CDF9EAFED2
:1001A300EBFFEF89F0A4FCE5F0CE89F0A42EFFE489
:1001B30035F0CD89F0A42DFEE435F08067EF4E7065
:1001C30005BD80D780C3EF8BF0A4ACF0EE8BF0A419
:1001D3002CFCE435F0F8EF8AF0A42CE5F038FCE4CD
:1001E30033CB8DF0A42CFCE5F03BF8EE8AF0A42C85
:1001F300FCE5F038F8E433CF89F0A42CFCE5F038C3
:10020300CF3400CE89F0A42FFFE5F03EFEE433C9DE
:100213008DF0A42EFEE5F039CD8AF0A42FFFE5F092
:100223003EFEE43DFD33D0E0FB50070BBB000F0265
:100233000411EC2CFCEF33FFEE33FEED33FD020330
:10024300E9020411EC5D046005E85904700302043B
:10025300071203D2580460F6EC4860F2EC7004FD18
:10026300FEFF22C860DB2481C85009C39860025096
:100273000602040E9850CAF582E9294B4A7005AB71
:10028300820203FD75F0007C1A7880C3EF9BEE9A1F
:10029300ED99400DC3EF9BFFEE9AFEED99FDE84209
:1002A300F0DC23ACF0D0E0FFD0E0FED0E0FDAB8289
:1002B30020E7101BEB60BAEC2CFCEF33FFEE33FEB0
:1002C300ED33FD0203E9E803F830E705C0F075F00C
:1002D30000EF2FFFEE33FEED33FD40B830E7C28071
:1002E300AA74F8CC6480CCC86480C8F58204604FDB
:1002F300C3EB9FF5F0EA9E42F0E99D42F0E89C458E
:10030300F0603C501DE5825FFFE582D313CB5BCBEE
:10031300F42B5582FB50280ABA002409B90020089F
:10032300801DE5825BFBE582D313CF5FCFF4C3135C
:100333002F5582FF50090EBE00050DBD00010CC3F1
:10034300EB9FF5F0EA9E42F0E99D42F0E89C45F010
:100353006007CC4820E701B3EC2275F020800E75CE
:10036300F010800575F0087D007E007F003392D584
:1003730030D5031206C4EC334010EF33FFEE33FEE7
:10038300ED33FDEC33FCD5F0ED22E5F0247EA2D570
:1003930013CC92E7CDCEFF22EDD2E7CD33EC3392EF
:1003A300D524814006E4FFFEFDFC22FCE4CFCECD44
:1003B300CC24E0501174FF80EDC3CC13CCCD13CD0E
:1003C300CE13CECF13CF0470F030D5DE0206C4E9CE
:1003D300D2E7C933E833F892D5EDD2E7CD33EC3326
:1003E300FC5002B2D522EC30E7100FBF000C0EBE5A
:1003F30000080DBD00040BEB6014A2D5EB13FCED5C
:1004030092E7FD2274FFFCFDFEFF22E480F8A2D5F3
:1004130074FF13FC7D80E480EFED33EC3360100454
:10042300700FED547F7005740292E022740422046D
:1004330022E422ED33EC33600A047003BD8004EC44
:10044300B2E7FC22C0E0EFFBEEFAEDF9ECF81201A3
:100453003ED0E0F5F0EFFBEEFAEDF9ECF81206F81A
:10046300A3A3A3A3E8C0E0E9C0E0EAC0E0EBC0E0D7
:10047300C0F012013E120708A3A3A3A312004DD09C
:10048300F0D0E0FBD0E0FAD0E0F9D0E0F8D5F0D43A
:1004930022E709F608DFFA8046E709F208DFFA8067
:1004A3003E88828C83E709F0A3DFFA8032E309F602
:1004B30008DFFA8078E309F208DFFA807088828C1B
:1004C30083E309F0A3DFFA806489828A83E0A3F6D9
:1004D30008DFFA805889828A83E0A3F208DFFA8072
:1004E3004C80D280FA80C680D4806980F2803380C9
:1004F3001080A680EA809A80A880DA80E280CA8091
:100503003389828A83ECFAE493A3C8C582C8CCC535
:1005130083CCF0A3C8C582C8CCC583CCDFE9DEE7B2
:10052300800D89828A83E493A3F608DFF9ECFAA9A4
:10053300F0EDFB2289828A83ECFAE0A3C8C582C866
:10054300CCC583CCF0A3C8C582C8CCC583CCDFEAB5
:10055300DEE880DB89828A83E493A3F208DFF980F3
:10056300CC88F0EF60010E4E60C388F0ED2402B436
:10057300040050B9F582EB2402B4040050AF2323E6
:100583004582239004E473EF8DF0A4A8F0CF8CF0A0
:10059300A428CE8DF0A42EFE22BC000BBE0029EFB2
:1005A3008DF084FFADF022E4CCF875F008EF2FFF57
:1005B300EE33FEEC33FCEE9DEC984005FCEE9DFE25
:1005C3000FD5F0E9E4CEFD22EDF8F5F0EE8420D26C
:1005D3001CFEADF075F008EF2FFFED33FD400798DB
:1005E3005006D5F0F222C398FD0FD5F0EA22C2D50A
:1005F300EC30E709B2D5E4C39DFDE49CFCEE30E7A3
:1006030015B2D5E4C39FFFE49EFE12059CC3E49D8F
:10061300FDE49CFC800312059C30D507C3E49FFFD7
:10062300E49EFE22BB010A89828A83E0F5F0A3E0FF
:1006330022500687F009E71922BBFE07E3F5F0090C
:10064300E3192289828A83E493F5F074019322BB30
:100653000110E58229F582E5833AF583E0F5F0A3FD
:10066300E0225009E92582F886F008E622BBFE0A5B
:10067300E92582F8E2F5F008E222E5832AF583E929
:1006830093F5F0A3E99322F8BB0111E58229F582E2
:10069300E5833AF583E8F0E5F0A3F0225009E92574
:1006A30082C8F608A6F022BBFE09E92582C8F2E556
:1006B300F008F222EF4BFFEE4AFEED49FDEC48FC59
:1006C30022C3E49FFFE49EFEE49DFDE49CFC22E83C
:1006D300600FECC313FCED13FDEE13FEEF13FFD815
:1006E300F122E8600FEFC333FFEE33FEED33FDEC91
:1006F30033FCD8F122E493FC740193FD740293FE5E
:10070300740393FF22E493F8740193F9740293FA48
:10071300740393FB22E493FB740193FA740293F939
:1007230022D083D082F8E4937012740193700DA3E6
:10073300A393F8740193F5828883E4737402936836
:1007430060EFA3A3A380DFE4F523FBFAF97840125B
:1007530002478F278E268D258C24C201122A9AAF39
:1007630027AE26AD25AC24120B878F23E523600328
:10077300020A557D527F137E011235908F28123560
:10078300CAC3EE9427501BE528C3940E50140528C2
:100793000528E528FB7A007D527F137E0112334B37
:1007A30080DC1218601235908F281235CAC3EE947C
:1007B300275015E528C3941E500E05280528E52863
:1007C30012185D12334B80E27FFA7EED7DEB7CBA2B
:1007D30012187212188412180D79A0784112024768
:1007E3008F478E468D458C447F007E007D207C4163
:1007F3001223CBC004C005C006C0071235CAAC061D
:10080300AD07E41203627B817A047935783F1201E4
:100813003ED003D002D001D00012013E12039B8EC2
:10082300218F221218CC1218721202E460054003C1
:100833000209E7C2027F667E667DA61217BC7FE2CD
:100843007EB87D007C4E1200498F438E428D418CD1
:100853004012193F8F23E5236003020A55C2027F2A
:10086300667E667DA67C3F12187212013E8F438E10
:10087300428D418C40E4F5441234997F407E547D8F
:10088300897C4B1218721202E4504E753A08753B7C
:10089300007DA07F17120B5864807014120B3DE586
:1008A30028D39401400AE52813F528120AF680EFAD
:1008B300E5236481701C120B3DE528C3941F507B14
:1008C30074042528F528D3941F5070E528120AF6DE
:1008D30080E7E5236065020A55753A01753B007DA3
:1008E300707F16120B586480701E120B7BE528D3A1
:1008F300940040141528120B491235CAC3EF9522F0
:10090300EE952150E8E4F523E52364817026120B6C
:100913007BE528C3941F50230528E528941F501B0B
:10092300120B491235CAD3EF9522EE952140E2E42A
:10093300F5238007E5236003020A55120B186003B1
:10094300020A55120B667D107F137E011235908FBC
:100953002AE52A64036005E52AB402121217B67F5A
:10096300887E457DC87C4E12180D7920800DE52ABE
:10097300B401131217B6121805797078C11217FF54
:100983008E288F29800280337BFF7A0FE4FDFCAF32
:1009930029AE281217AE7DB07F127E0112334BE5CC
:1009A3002AD3940140071218678F2B8014E52AB4C9
:1009B3000109121867EF04F52B8006752309020A53
:1009C30055AF2B7E007B0F1217A97DFC7F127E0192
:1009D30012334B1218671219181217A912192A1277
:1009E300334B8008120B187069120B66753A107539
:1009F3003B00AB22AA217DB07F127E01122C468FD1
:100A030023E523704D7F127E011235FE8E288F2938
:100A13007F177E011235FE8E2A8F2B7F1A7E0112DD
:100A230035FE8E2C8F2D7F167E011235FEEE540778
:100A3300F52E8F2F7D327F157E011235908F307DFD
:100A4300FD7F187E011235908F3112192A123590CD
:100A53008F32D201122A9AE5236002FF22AD29AC1C
:100A6300287F127E01123799AD2BAC2A7F177E01A6
:100A7300123799AD2DAC2C7F1A7E01123799E52ED2
:100A83004480FCAD2F7F167E01123799E531C433C4
:100A930054E04401FC748CFD7F187E01123799E504
:100AA3003275F020A4ACF04410FD7F147E011237A0
:100AB300997B947A027DE57F197E0112334BE530F1
:100AC300FB7A007D327F157E0112334B7F207E003F
:100AD3001235FE8E338F34E5335455FCAD347F200D
:100AE3007E00123799AD34AC337F207E00123799E4
:100AF3007F0022FB7A007DFB7F167E0112334B754C
:100B03003A08753B00AB22AA217DA07F177E011214
:100B13002C468F2322C202AB27AA26A925A8247F0D
:100B2300E27EB87D007C4E1200498F438E428D4198
:100B33008C4012193F8F23E523227DFB7F167E0114
:100B43001235908F2822E528FB7A007DFB7F167EE5
:100B53000112334B22AB22AA217E01122C468F2392
:100B6300E52322C202852743852642852541852424
:100B730040E4F544123499227DFB7F167E01123541
:100B8300908F28228F388E378D368C357F207E00CC
:100B93001235FE8E398F3A7D107F137E0112359008
:100BA3008F3B7D407F197E011235908F3C903A48F0
:100BB3001217D51217921202E44013121923903A16
:100BC3004C1217DB1217921202E4600540037F08F0
:100BD300227E3B7F48123120E53B7D107F13120FAD
:100BE30070E53CB41F047B168003E53CFB7A007D73
:100BF300407F197E0112334BE4FFFE7DA07C41123E
:100C030017921217EB8F3D1218BF8F3DAC3D121890
:100C13002212004D1226EDEF600122120F621235EF
:100C230056C2027543E27542B875410075404E12D3
:100C3300193FEF6001227B027A001218E212334B54
:100C4300123556D2027543567542217541037540DC
:100C53004E12193FEF600122AD3AAC397F207E007E
:100C6300123799123696D2027543807542967541B2
:100C73001875404BE4F544123499C202E4F543F588
:100C830042F541F540F5441234991218CC121792EB
:100C93001202E4600250137B017A00120F58E4FB46
:100CA300FA120F797B0F7A008073E53B64036005CA
:100CB300E53BB4021C1217927F887E457DC87C4EAB
:100CC30012180D792078C11217FF12189B8F3F80DD
:100CD3001FE53B640170161217921218057970789C
:100CE300C11217FF12189BEF04F53F80037F0922FF
:100CF3007BFF7A0FE4FDFCAF3EAE3D1217AE120F41
:100D030058AF3FEF3395E0FE7B0F1217A9120F790F
:100D1300AE3DAF3E12189F1219181217A912192AC5
:100D230012334BE4F53DE53CC394155003753D0187
:100D3300E53CC3940D5003753D02E53CC394085054
:100D430003753D03E53D7D607F1A120F70E53C7529
:100D5300F00A84FCE41203678F478E468D458C446A
:100D63007F667E667D267C3F1223CBE4FBFA79D730
:100D7300784312013E7B337AB379DC78C212004D9B
:100D83007B9A7A9979A3784112180D798078411268
:100D930017FF8F3DEF3395E0FE7B1F1217A97DD917
:100DA3007F1A7E0112334B7F407E547D897C4B1228
:100DB30017921202E44003020E74E4FBFA7D227FD1
:100DC300157E01120F47E4FBFA120F2D1217C67F8F
:100DD300FC7EBE7D0012180B79CE78C21217FF8EEF
:100DE3003D8F3E7BFF7A071217AB7DA07F177E01F5
:100DF30012334B753D0512178A12013E7BC07AE10F
:100E03007964784B1202E460054003753D041217C0
:100E13008A12182E1202E460054003753D0312176F
:100E23008A12013E7B807A967998784A1202E460AE
:100E3300054003753D0212178A12013E7B007A1B9F
:100E43007937784A1202E460054003753D011217B1
:100E53008A12013E7B007AE679AA78491202E4609D
:100E6300054003E4F53DE53DFB7A007DDB7F17801C
:100E73007E1218CC1217921202E47F1512185460D6
:100E830002506112334BE4FBFA7D337F157E01126E
:100E9300334B7B017A00120F2D1217C67F5E7ED073
:100EA3007DB212180B794878C21217FF8E3D8F3E20
:100EB3001217A77D707F167E0112334B12178A1209
:100EC300013EE4FBFA7920784112024712039BEFBB
:100ED30024FDF53DFF3395E0FE7B081217A97DA89D
:100EE3007F16800B120F477B027A007DFD7F187EF1
:100EF3000112334BE53A54036402702BFBFA7D1164
:100F03007F82FE12334B120F621219317F0D7E0165
:100F130012334B7DEE7F0012193812334BAB3AAAD2
:100F2300391218E212334B7F00227DFD7F187E01B8
:100F330012334B7F667E667DA67C3FAB38AA37A90A
:100F430036A8352212334B7B017A007D337F157E21
:100F53000112334B227DB07F127E0112334B227B71
:100F6300017A007D107F207E0012334B22FB7A0032
:100F73007E0112334B227DFC7F127E0112334B2202
:100F83008F248E238D228C21903A50121814400AFC
:100F9300903A5C121814600540037F0A2212192349
:100FA300AF24AE23AD22AC211202478F2A8E298DA6
:100FB300288C27903A54121814601B4019903A5801
:100FC3001218145011121923903A581217DB8F2A52
:100FD3008E298D288C27D201122A9AAF2AAE29ADE9
:100FE30028AC27121354EF6001227E041213497EAA
:100FF300021213491235CA8E258F26121860123534
:10100300908F2BC3E5259427501AE52BC3942B50BF
:1010130013052BE52B12185D12334B1235CA8E259F
:101023008F2680DF1217D212190D600540030210BC
:10103300EBC200752B051212525035C31217E25042
:1010430012121890400DE53115317002153012124D
:10105300C380E8C31217E25013E5314530700D1217
:1010630012D87D701213151218E98050C2008051F6
:101073001217E1404C1217E14016E531941F121884
:1010830094500D0531E5317002053012130180E5EE
:101093001217E1401AE531641F453070121212D85D
:1010A3007D701212E71218E97E0112334B8002C2DF
:1010B300000531E5317002053012183A7E01123312
:1010C3004B152B7D7012133D70030211ADF47003A9
:1010D3000211AD2000030211ADC3E52B648094809F
:1010E30040030210390211ADC200752B057B027A51
:1010F300007D607F1A7E0112334B121252503AC3A5
:101103001217E25012121890400DE531153170029A
:1011130015301212C380E8C31217E25018E53145A7
:1011230030701212132E7DF81213158F32EFFB7DE0
:10113300F87F098055C20080561217E140511217FB
:10114300E14016E531941F121894500D0531E53135
:101153007002053012130180E51217E1401FE531DB
:10116300641F4530701712132E7DF81212E78F3269
:10117300EFFB7DF87F097E0112334B8002C200052D
:1011830031E5317002053012183A7E0112334B15E6
:101193002B7DF812133D6012F4600F30000CC3E591
:1011A3002B6480948040030210FD7DC87F0A7E017A
:1011B3001235908E2D8F2E7F097E011235FE8E2FD4
:1011C3008F30D201122A9AAB2EAA2D7DC87F0A7EB8
:1011D3000112334B7F057E011235FE8E2BEF54E94E
:1011E300F52C1217D212190D6002500F432C101256
:1011F30019317F0B7E0112334B8003432C067D8C08
:101203007C317F067E011237997D8C7F077E011228
:101213003799AD30AC2F7F097E01123799AD2CACD5
:101223002B7F057E011237997F207E001235FE8EBB
:10123300318F32E5315455FCAD327F207E001237B9
:1012430099AD32AC317F207E001237997F0022E4C2
:10125300FBFA7D417F407E0212334BE4FBFA7D4172
:101263007F407E0412334B1235CA8E2C8F2DAC2C4B
:10127300AD2DE41203627B817A047935783F120144
:101283003E12039B8E2E8F2F7B017A007D417F4080
:101293007E0212334B7B017A007D417F407E041234
:1012A300334B1235CA8E258F267DC87F0A7E0112E5
:1012B30035908E308F31C3E526952FE525952E2267
:1012C300AB31AA307DC87F0A7E0112334B1235CA77
:1012D3008E258F2622D2007B10FA7DC87F0A7E01DD
:1012E30012334B227F097E01123590EF24F6FFEE75
:1012F30034FFFE7BFF7A00E4FDFC1236BE22FBAA1C
:10130300307DC87F0A7E0112334B1235CA8E258F7A
:1013130026227F097E01123590EF2419FFE43EFE59
:101323007BFF7A00E4FDFC1236BE22D2007B10FA6A
:101333007DC87F0A7E0112334B227F097E0112355D
:10134300908F32E53222E4FBFA7D417F4012334B2A
:10135300228F378E368D358C341218E21235908EEB
:10136300388F397E3C7F301231201217D212187B0E
:101373001202E4600540030214237FCD7ECC7D4C32
:101383007C3F12187B1218841218F67D447F0512D5
:10139300193812334B7D221215A47D111215A41294
:1013A30019317F0B1215587BCE7A4079E878B81241
:1013B300013EC004C005C006C0071215747B957AB0
:1013C300B77915782512013ED003D002D001D000A1
:1013D30012004DC004C005C006C0071215AF7B75CF
:1013E3007AEC7935783B12013ED003D002D001D09C
:1013F3000012004DC004C005C006C0077FB47E4E76
:101403007DA87C41121902D003D002D001D0001272
:10141300004D7B157AA3794112179B7D700214C688
:10142300121887AF37AE36AD35AC341218F6E4FB7D
:10143300FA7D447F057E0112334B7F051218541247
:10144300334B7B017A007D117F051215587B347A6B
:101453000A795D78B912013EC004C005C006C00711
:101463001215747B667A277994783512013ED0037E
:10147300D002D001D00012004DC004C005C006C088
:10148300071215AF7BAC7A0D799C783C12013ED0E4
:1014930003D002D001D00012004DC004C005C00625
:1014A300C0077F437E727DB77C3F121902D003D001
:1014B30002D001D00012004D7BC37AC7793E1217C8
:1014C3009B7DF87F097E0112334BE4FFFE7DA07CF8
:1014D3004112187B1217EB8F3A1218BF8F3AAC3AAE
:1014E30012182212004D1226EDEF6001227B011229
:1014F300158B7B0212158BAB39AA381218E2123303
:101503004B123696D202754300754224754174120C
:1015130015C5D2028537438536428535418534402A
:10152300754401123499C2027543007542BA75417C
:101533005B1215C5C2027F007E507DC37CC71218A3
:101543007B12004D8F438E428D418C4075440112B6
:1015530034997F00227E0112334BE4F547F546753B
:101563004540754440AF3FAE3EAD3DAC3C1223CB4E
:1015730022E4F547F546754580754440AF3FAE3EDE
:10158300AD3DAC3C1223CB227A007D107F207E0040
:1015930012334B7B017A007D117F1C7E0112334B8A
:1015A30022E4FBFA7F057E0112334B22E4F547F573
:1015B30046F545754440AF3FAE3EAD3DAC3C1223CE
:1015C300CB22754049E4F54412349922E4F557F5EA
:1015D30058F55B755C80F559755A80F55D755EFF4E
:1015E3003004137554017555217556A3FBFA7D21FB
:1015F3007F1C7E01801175540075558B755681E4EF
:10160300FBFA7D217F86FE12334BE4FBFA12177936
:10161300BF03037F01227BFF12174EEF70037F018D
:1016230022E4F55F121761756040E5606041122E98
:10163300332457F8C000E6FE08E6FFEF4560D0000C
:10164300A60608F6121761A20492051237E6BF0335
:1016530016122E332457F8C000E6FE08E6FFEF65A6
:1016630060D000A60608F6E560C313F56080BB12E0
:101673002E332457F8E6FE08E6FF122E332459F8DA
:10168300A60608A607122E332459F8E6FA08E6FB45
:101693004A6026121779EF6402600F122E33245921
:1016A300F80806E618701206800F122E332459F834
:1016B30008E6161870CF1680CC055FE55FC3940269
:1016C3005003021627E55E24FFFFE55D34FFFEEFBE
:1016D300B55814EEB55710C3E55C955AFFE55B9515
:1016E30059A2E713EF8034C3E558955AFDE55795A2
:1016F30059FCC3E55C955EFFE55B955DFED3EF9D0D
:10170300EC6480F8EE648098400CEEA2E713EF13CC
:10171300255EF55F800AECA2E713ED13255AF55F0A
:10172300E55FFB12174EEF64026010055FE55FFB98
:101733007A00AD56AF55AE5412334BA20492051244
:1017430037E6BF02037F00227F01227A00AD56AF46
:1017530055AE5412334BA20492051237E622E55FCD
:1017630025E025E02457F8E6FA08E6FBAD56AF5529
:10177300AE5412334B22AD56AF55AE5412334BA277
:101783000492051237E6227F667E667DA67C3FAB18
:1017930038AA37A936A8352278C212004D12039B06
:1017A3008E3A8F3B7BFF7A00E4FDFC1236BEAA061D
:1017B300AB07227FEC7E517D387C3FAB27AA26A95D
:1017C30025A82412013EA804A905AA06AB07229066
:1017D3003A54E4FBFAF978401206F8020247D3E5DB
:1017E30026952FE525952E2212013E7B007AC87996
:1017F3002F784C120247E4FBFAF9783F12004D02AE
:10180300039B7FBB7EEE7DA07C4F120247E4FBFA75
:10181300221206F8AB24AA23A922A8210202E4E497
:101823001203677B007AC8792F784C12013E7B80C4
:101833007A967918784B22FFAE307B1F7A00E4FD4D
:10184300FC1236BE8E308F31AB31AA307DC87F0A91
:10185300227B017A007D227E0122FB7A007DFA7FC2
:10186300087E0122AE28AF297C007D6402059CAB73
:1018730027AA26A925A82422AB37AA36A935A83436
:101883002212013E7B007A247974784922E531944F
:1018930000E53064809480228E3D8F3E7C007D6421
:1018A3000205F1C3E53D9541F53DE53C9540F53C29
:1018B30022AB3DAA3CAD37AF36AE35227E007B0D61
:1018C3007A007D027C000236BE7F607EFE7D4D7C09
:1018D3004C22E541253DF53DE540353CF53C227D77
:1018E300107F207E00228E328F33AB33AA327D707D
:1018F3007F09221202478F3F8E3E8D3D8C3C22ABE7
:101903003FAA3EA93DA83C02013EAB2AAA29A92829
:10191300A8270202E4C3740F9FFFE49EFE7B0F22FD
:10192300E4FBFAF97840227D857F147E01227B0156
:101933007A00E4FD227B017A007E01227F207E0073
:101943001235FE8E448F457A003002047B028002FA
:101953007B017D107F207E0012334B755207AF52FF
:1019630012380EAC06AD07E4120362AB43AA42A9D8
:1019730041A84012013E8F498E488D478C467F66B1
:101983007E7F7D62122E26400D7F267EE57DE51249
:101993002E2660054003D552C5E55224FFFBE434EF
:1019A300FFFA7D867F1F7E0112334B7FAC7EE97D7C
:1019B300A3122E267F00600440027F018F52EFFBAB
:1019C3007A007DAA7F1C7E0112334BE5522401FD70
:1019D300E433FCE4120362AB19AA18A917A8161280
:1019E300013E122E1DAF49AE48AD47AC4612024729
:1019F3008F518E508D4F8C4E12039BE412035D1258
:101A03002E1DAF51AE50AD4FAC4E120049122E6594
:101A1300122EA58F4D8E4C8D4B8C4A7CC0AB51AA98
:101A230050A94FA84E122E457F1E7E0112334BAF95
:101A33004DAE4CAD4BAC4A122E907F1E7E0112333D
:101A43004BE54DFFE54CFEAD07AC067F1D7E011255
:101A53003799C2037549FFE4F546E546121AC9D220
:101A6300041215CFEF702A7DA37F217E01123590DA
:101A73008F4AEF2480FFE434FFFE12382D8F4BE5AD
:101A83004BC395495009854B49854647854A48D2FA
:101A9300030546E546C3940340C0E547121AC9E56A
:101AA30048FB7A007DA37F217E0112334BAD45AC09
:101AB300447F207E001237992003087F03300202FF
:101AC3007F04227F0022FB7A007D217F217E011289
:101AD300334B227F207E001235FE8E2B8F2C7E3AD5
:101AE3007F34123120E52C540364017006FBFA7D28
:101AF300228005E4FBFA7D117F82FE12334B200125
:101B030022122155123590EE7016EF14600924FE4F
:101B1300600504700B8025121C407B017A00802431
:101B23007F0622122155123590EE7023EF14600CBC
:101B330024FE701B121C407DBB121C347DAA121C98
:101B430034E4FBFA7DBB7F037E0112334B80037FBA
:101B5300062212209D12334B122112123590EF4EA2
:101B6300702D121C4D123556D2021227EFC004C03D
:101B730005C006C00712205F12213ED007D006D051
:101B830005D00412004978CB1220FEC202803B7BB1
:101B93000112209F12334B12377D40037F0322C271
:101BA300021227EF8F308E2F8D2E8C2D12209D1237
:101BB300334B123556D20212205FAB30AA2FA92E17
:101BC300A82D12004D784B1220FE12193F8F2AE5E3
:101BD3002A6002FF22121C591236961232418F2AB2
:101BE300E52A600122120003D20275434075425474
:101BF30075410975404BE4F54412349912205D1286
:101C03002086123499E52C540364027021121C4D72
:101C130012214E7F0D7E0112334B12217212334B70
:101C2300E4FBFA7D117F82FE12334B121C597F00B5
:101C3300227B017A007F037E0112334B22E4FBFAFD
:101C43007DAA7F037E0112334B227B01FA7D107F35
:101C530020FE12334B22AD2CAC2B7F207E0012379B
:101C630099227F207E001235FE8E228F23C201121D
:101C73002A9AA2009201121AD68F21E5216003024B
:101C83001D0F122D17200026122155123590BF0269
:101C93000C7D55121DC9E4FBFA7D33800A7D661263
:101CA3001DC9E4FBFA7D447F0D7E0112334B1220E4
:101CB3009D12334B122112123590EF4E701BFA1204
:101CC300211012334B7B0112209F12334BE4FBFA9A
:101CD3007D117F1C7E0112334B121DDFAF15AE1435
:101CE300AD13AC12A20092011229B98F21E5217024
:101CF3001B7DDD121DD41220A812334B12205D78F8
:101D030047122088123499C2011225E8903CBE1272
:101D1300207E903CC0E493FD1235908E248F259055
:101D23003CC112207E1221471235908E268F2790B8
:101D33003CB512207E903CB7E493FD1235908E287B
:101D43008F29D201122A9AE5225455FCAD237F2014
:101D53007E00123799121DDFE5216002FF22903CBD
:101D6300BE12207E903CC0E493FDAB25AA2412331F
:101D73004B903CC112207E122147AB27AA26123377
:101D83004B903CB512207E903CB7E493FDAB29AA5F
:101D93002812334B1220DA12334BE52330E007E4E9
:101DA300FBFA7D668005E4FBFA7D777FC07E051232
:101DB300334B7D20121DD4E4FBFA7D887F0C7E0417
:101DC30012334B7F0022E4FBFA7F0C7E0112334B6C
:101DD30022E4FBFA7F0C7E0412334B22AD23AC22A8
:101DE3007F207E00123799227F207E001235FE8EDF
:101DF3002A8F2BE52B540364017006FBFA7D448084
:101E030005E4FBFA7D337F82FE12334B7E397F5C20
:101E1300123120120003123241EF6001227B0112C2
:101E2300209F12334B123556D2021227EFC004C043
:101E330005C006C00712205F12213ED007D006D08E
:101E430005D0041200497B007A24797478C9120002
:101E53004D8F2F8E2E8D2D8C2CC20212210712191D
:101E63003FEF600122E52B30E11BE4FBFA7D117F9C
:101E730082FE12334B12214E7F0D7E0112334B1221
:101E8300217212334B12209D12334B7A0012211010
:101E930012334B12377D40037F0422AD2BAC2A7FD4
:101EA300207E00123799123696D20212205F12203A
:101EB300911234997DBA7F037E011235908F2C30B5
:101EC300011FE4FBFA7D77121F1EB401047B01801E
:101ED30007E52CB402087B037A007D8780337F07F4
:101EE30022E52C64016009E52C640260037F07226C
:101EF300E52C2401FBE433FA12215512334BE52C74
:101F03006403FB7A007D65121F1E6403FB7A007D68
:101F1300437F0D7E0112334B7F00227F0C7E011223
:101F2300334BE52C223E9248DA3ECCCCCD3F2AAA55
:101F3300AB400000003F8000003F9837F03FB504FE
:101F4300F33FD744FC3E3172173EB172173F05157C
:101F5300913EDE5BD9D2018002C201EDD2E7F8CD1A
:101F630033EC3304700BBD800592D50204110204D7
:101F73000740FBD31460F2F5F07C3FEE7A00C39484
:101F830096C8948B40230AC89469C8941A401A0AC5
:101F9300C89468C8941F40110AC8945AC89425402D
:101FA3000805F07A00CDC2E7CDC0F08C4A8D4B8E88
:101FB3004C8F4DEA2323C0E02438F582E4341FF527
:101FC3008312070812004DECC0E0EDC0E0EEC0E064
:101FD300EFC0E01206F8A84AA94BAA4CAB4D120079
:101FE30049D0E0FBD0E0FAD0E0F9D0E0B2E7F81254
:101FF30002478C4A8D4B8E4C8F4D901F28740312D1
:102003000447A84AA94BAA4CAB4D12013ED0E0604D
:102013000F2444F582E4341FF58312070812004DA0
:102023008C4A8D4B8E4C8F4DD0E0C3947FFDE4944E
:1020330000FC1203627B187A727931783F12013EF9
:10204300A84AA94BAA4CAB4D12004D30010B7BD9CA
:102053007A5B79DE783E12013E22C202AF15AE14DE
:10206300AD13AC12E4FBFA79A07840020247E53DD8
:1020730025E024C4F582E43438F583E493FE740147
:1020830093FF2278C77B007A5079C312004D8F43A8
:102093008E428D418C40E4F544227B027A007D1010
:1020A3007F207E00227D77E4FBFA7F0C7E0422787A
:1020B300427C007D007BFF7E007F03020564E9759F
:1020C300F0288475F018A4FFE92400FDE43405CD5D
:1020D3002FFFED35F0FE227B017A007DFF7FC07E6E
:1020E30005227D227B017A007F0C7E0422D3903A65
:1020F30046740193952FE493952E227B407A54796D
:102103000912004D8F438E428D418C40227B017D0D
:10211300667F1C7E0122E53D25E024C4F582E4347C
:1021230038F58374019322C3E54B954DE54A954CED
:1021330022C3E5429544E541954322A804A905AA93
:1021430006AB0722903CC3E493FD227B017A00E4B3
:10215300FD227D877F0D7E0122FEC3EF9401EE6495
:10216300809480227B017A007D337F087E02227B6C
:10217300017A007DEE7F007E0122C3E52F952BE5DA
:102183002E952A227F207E001235FE8E218F22C2B9
:1021930001122A9AA2009201121DEB8F23E52370EC
:1021A30040122D17A20092011222AF8F23E5237054
:1021B30030122D1712205D7B007ABA795B784912B1
:1021C300208E1234991224E2C2027543007542BA7A
:1021D30075415B754049E4F544123499D2011225E7
:1021E300E8903CB812207E903CBA1222A18E248F34
:1021F30025903CBB12207E903CBD1222A18E268FDF
:1022030027903CB212207E903CB4E493FD123590AB
:102213008E288F29D201122A9AE5215455FCAD222A
:102223007F207E00123799AD22AC217F207E0012E1
:102233003799E5236002FF22903CB812207E903C40
:10224300BAAB25AA241222A8903CBB12207E903C54
:10225300BDAB27AA261222A8903CB212207E903C46
:10226300B4E493FDAB29AA2812334B1220DA1233BC
:102273004BE52230E007E4FBFA7D448005E4FBFAFA
:102283007D557FC07E0512334B12216712334BE419
:10229300FBFA7D107F087E0212334B7F0022E4930A
:1022A300FD12359022E493FD12334B22752A5075AB
:1022B3002B007D221220AA12334B1220A812334B7B
:1022C30012205DE4FBFAF9784012013E7B007ABAF2
:1022D300795B784912208E1234997D407F197E01F3
:1022E3001235908F2C30010EE4F52DE52D7D967F70
:1022F300131223C280367D527F137E011235908FD5
:102303002D802912217D4003022398E52DC3940FCC
:102313004003022398052DE52DFB7A003001047D4F
:102323009680027D527F137E0112334B1235CA8E83
:102333002E8F2F80CEE52CC394125061E52D640FB0
:10234300705B12217D5056E52CC39412504F052C1F
:10235300E52C7D407F191223C21235CA8E2E8F2F92
:10236300AC2EAD2FE4120362C004C005C006C00743
:10237300AC30AD31E412036212213ED007D006D057
:1023830005D0041202477B7B7A14798E783F1202C0
:10239300E460025008852E30852F318098C3E52FE5
:1023A3009421E52E940B50057E007F05227D771244
:1023B30020E712334B1220E512334BE4FEFF22FBDE
:1023C3007A007E0112334B228F438E428D418C4023
:1023D300E4FFFE7D807C3FAB43AA42A941A84012A3
:1023E30002E47009AF43AE42AD41AC4022AF43AE0D
:1023F30042AD41AC4012041CFBAF47AE46AD45AC09
:102403004412041CFFBF0108E4FFFE7D807C3F22D1
:10241300EF64046022EB6404601DBB0127E4FFFE4C
:10242300FDFCAB47AA46A945A8441202E460084054
:1024330006E4FFFEFDFC2274FFF547F546F545F57E
:10244300440224D9E4F548F549FFFEFDFCAB43AA59
:1024530042A941A8401202E4504BAF47AE46AD45F6
:10246300AC4412039B8E488F49AC48AD49EC120330
:1024730062C8ECC8C9EDC9CAEECACBEFCBAF47AE51
:1024830046AD45AC44120049E4FBFAF9F81202E404
:1024930070A5AF43AE42AD41AC401204368F438EBC
:1024A300428D418C40AF43AE42AD41AC40121F5C04
:1024B300AB47AA46A945A84412013E1230BE8F4736
:1024C3008E468D458C44E54930E00B1204368F4728
:1024D3008E468D458C44AF47AE46AD45AC44221283
:1024E30020A11235908F3C12214EFF7E0112334BF7
:1024F300E4FBFA7D887F087E0212334B1220A81278
:10250300334B12216712334B1220DA12334B752CE3
:10251300A07535A0E53CB40117752A05752BC37565
:1025230033057534C47D441225DDE4FBFAFD8016C2
:10253300752A05752BC57533057534C67D5512256A
:10254300DDE4FBFA7D117FC07E0512334BE4FDFC15
:10255300AF2BAE2A1232CAE4FDFCAF34AE331232D3
:10256300CAE4F52DF52EF536F537F53D122071C386
:10257300E52E9FFFE52D9EFE7BFF7A037D007CFC0D
:102583001236408E2F8F30122119252EFFE49335FA
:102593002DFE1236408E318F32122071C3E5379FE4
:1025A300FFE5369EFE1236408E388F3912211925EB
:1025B30037FFE4933536FE1236408E3A8F3B7B006D
:1025C3007A00792A122B727B007A007933122B72EC
:1025D300053DE53DC39403409322E4FBFA7FC07EAF
:1025E3000512334B227BFF7A38794C8B2A8A2B894D
:1025F3002C783F7C007D007BFF30011C7A3C79B84E
:102603001220BA7A3C79BB1220B2782D7C007D006F
:102613007BFF7A3C79B2801A7A3C79BE1220BA7A6F
:102623003C79C11220B2782D7C007D007BFF7A3C7F
:1026330079B51220BA7534007535807532FF75335C
:10264300807F2D1228D57DBF1226E37DFF1226DB66
:102653001235CA8E458F467DFF1226E37DBFAF43F9
:10266300AE421237991235CA8E478F48C3E5469555
:1026730048E545954778367C007D007B0050067A17
:1026830000793F80047A0079421220BA7DFF7C07EB
:102693001226DB753D07753EFF753B05753CFF7FD5
:1026A300361228D5E5312410F535E43530F534E517
:1026B3003124F0F533E53034FFF5327F2D1228D580
:1026C300AD3AAC39AF37AE36123799AB31AA30AD2C
:1026D3002FAF2EAE2D02334BAF43AE4212379922AA
:1026E3007C07AF40AE3F123799228F438E428D4114
:1026F3008C40122E6D7F7D7EDA7DAC7C4E120247BC
:1027030012039B8F4C122E6D7F287E6B7D6E7C4E49
:10271300120247E4FBFAF9783F12004D12039B8F34
:102723004DE54D254CFFE433C313EF13F54E25E080
:10273300FDE433FCE4120362122E6D12013E8F4757
:102743008E468D458C44E54E24FFFBE434FFFA7D31
:10275300A37F891227D68F4B8E4A8D498C487CBF25
:10276300AB4BAA4AA949A848122E457F881227D6FF
:1027730012039BE412035D122E1DAF4BAE4AAD490B
:10278300AC481200498F4F8E4E8D4D8C4CE4FFFEAA
:102793007D807C49AB4FAA4EA94DA84C122EA58F24
:1027A300538E528D518C50E4AB07AA067DF07F8780
:1027B300FE12334BAF53AE52AD51AC50122E907F3D
:1027C300887E0012334BC2041215CFEF7F006002E4
:1027D3007F02227E0012334BAB19AA18A917A81641
:1027E300AF47AE46AD45AC44120247227F207E0080
:1027F3001235FE8E318F327A003002047B02800262
:102803007B017D107F207E0012334B7DD07F1E7EA7
:10281300011235908E338F347F1D7E011235FEE415
:10282300FCFDC004C005C006C007FEE534122E9CA3
:10283300D003D002D001D0001206B78F388E378D67
:10284300368C357DAA7F1C7E01123590EF04F53955
:102853007D867F1F7E01123590EF04F53AAD32ACD1
:10286300317F207E00123799AF3A122E12122E8535
:10287300C004C005C006C007AC39E4120367D00327
:10288300D002D001D00012013EC004C005C006C072
:1028930007AF38AE37AD36AC35122E61120247C0E2
:1028A30004C005C006C007E533C4F854F0C868FE89
:1028B300E534C4540F482404122E59D003D002D057
:1028C30001D00012004DD003D002D001D00012017C
:1028D3003E228F4974FFF54AF54BA807E82405F813
:1028E300E6F54E08E6F54FA807E82407F8E6F550A5
:1028F30008E6F551A807E6F55408E6F555A807E8F4
:102903002402F8E6F556FD1229AA8E4C8F4DC3E535
:1029130051954FFFE550954E12215C405E7C007D42
:10292300021205F18E528F5312212A500BAD56120B
:1029330029AA8E4C8F4D8014AB4FAA4EAD56AF557E
:10294300AE5412334B1235CA8E4A8F4BD3E5539490
:1029530000E55264809480402212212A500FC3E57F
:10296300519553F551E5509552F55080A1E5532506
:102973004FF54FE552354EF54E809312212A5006FE
:10298300AE4EAF4F8004AE50AF51E5492403F8A6D5
:102993000608A607E5492403F8E6FA08E6FBAD5660
:1029A300AF55AE5402334BAB51AA50AF55AE541290
:1029B300334B1235CA228F2D8E2C8D2B8C2A7DFA08
:1029C3007F087E011235908F307B017A007DDD7F99
:1029D3000C7E0412334B1220A812334BC202AF2DCC
:1029E300AE2CAD2BAC2A12206712208612349930FC
:1029F300012675310F800F1220F040411531E5316A
:102A0300648094804037E531FB3395E0FA7D51745F
:102A130001FFFE122A8F80DF75310280101220F031
:102A2300401B05310531E531D3940F5010E531FBDF
:102A33007A007D527F137E01122A8F80E0C3E52E38
:102A43009410500F05300530E53094395005122AA3
:102A53007980EA1220F0400E0530E530D3943E50E1
:102A630005122A7980EDC3E52F9421E52E940B7F7F
:102A73000050027F0522E530FB7A007DFA7F087E55
:102A83000112334B1235CA8E2E8F2F2212334B1263
:102A930035CA8E2E8F2F22E4F535F5367F20FE12B0
:102AA30035FE8E398F3A7924E9605C25E0243EF5C2
:102AB30082E4343CF583E493F537740193F538E904
:102AC30025E02440F582E4343CF583C374019395F7
:102AD30038E4939537402C300108122DFE122B65F4
:102AE300800FAF38AE371235FE122DFAECF0A3ED9E
:102AF300F00536E536700205350538E53870C00552
:102B03003780BC191980A1E4F9E924FDFDE434FF01
:102B1300FC7F207E0012379975370175381C300110
:102B230008122DFE122B65800FAF38AE371235FE1B
:102B3300122DFAECF0A3EDF00536E53670020535FB
:102B43000538E53870020537D39423E537940140FF
:102B5300CD09E9640270B2AD3AAC397F207E000240
:102B63003799E0FCA3E0FDAF38AE37123799228BDB
:102B73003E8A3F894074FFF541F5429000051206F5
:102B830052F54685F045900007120652F54885F048
:102B930047122C358E438F44C3E5489546FFE547DE
:102BA300954512215C405B7C007D021205F18E4944
:102BB3008F4A122134AB3EAA3FA9405009122C354B
:102BC3008E438F448014120627FFAEF0AD46AC450A
:102BD3001232CA1235CA8E418F42E54A45496022F4
:102BE300122134500FC3E548954AF548E547954906
:102BF300F54780A4E54A2546F546E5493545F545BB
:102C030080961221345006AE45AF468004AE47AFDE
:102C130048AB3EAA3FA940900003EE8FF012068A0C
:102C2300120627FFAEF0900003120652FDACF0022D
:102C330032CA120627FFAEF0AD48AC471232CA12B1
:102C430035CA228E358F368D378A388B39122D0C43
:102C530050028001C392001218B81235908E3C8F37
:102C63003DE537C4540FFFE537540FFEC3EF9E0411
:102C7300FF12380EEF24FFF53FEE34FFF53E7540AB
:102C830000754101E54125E0F541E54033F540306C
:102C930000051218A680031218D5AB3FAA3EE4FD27
:102CA300FCAF3DAE3C1236BE8E3C8F3D1218B412C3
:102CB300334B122D0C7F0050027F01A200E433B589
:102CC3000713C3E541953BE540953A40B77F803014
:102CD30000027F8122D3E5419401E5409400402620
:102CE300E54013F540E54113F5411235CAC3EF95AD
:102CF30039EE953840051218D580031218A612181C
:102D0300B412334B80CF7F00221235CAC3EF9539FB
:102D1300EE953822752A05752BC71220A11235901E
:102D23008F2CE4FBFAFDFF7E0112334B1220E512D8
:102D3300334B1220DA12334BE52CB401117D6612AA
:102D43002DC27D22122DC27D30122DD8801A7D779F
:102D5300122DCD7D33122DCD7DC0122DD8740225B9
:102D63002BF52BE4352AF52A7FC17E051235FEEEBD
:102D730054F070F4903CC112207E122147E4FBFA18
:102D830012334BC201AF2BAE2A122EAB903CC112B1
:102D9300207E1221477BFF7A0712334BE52B240158
:102DA300FFE4352AFEC201122EABE4FBFA7D227F3B
:102DB3000C7E0412334B12214EFF7E0102334BE48F
:102DC300FBFA7FC07E0512334B22E4FBFA7FC07E01
:102DD3000512334B227CFF7FC27E0512379922F501
:102DE30082E43540F58312071875F002E543A4F534
:102DF3008285F083020652AC06AD07E53625E0FF77
:102E0300E53533FE74002FF58274003EF5832212FC
:102E1300380EAC06AD07E4120362A804A905AA069E
:102E2300AB07227C4FAB49AA48A947A8460202E454
:102E3300E55F25E025E022AF4EAE4DAD4CAC4B0235
:102E43000247E4FFFE7D8012004D12039BAB07AAED
:102E5300067DD4222401FDE43EFCE4020362E41275
:102E6300035DE4FBFA7980784922AB43AA42A94186
:102E7300A8402285418285408322E50025E0FFE5C5
:102E83000022AF19AE18AD17AC1602024778101224
:102E930006D2AB07AA067D3022540FFFE478100256
:102EA30006E512013E02039B8E2D8F2E3001067E16
:102EB300037FFF80047E007F3F8E398F3AAF2EAEB3
:102EC3002D1233C58E368F378E348F351235CA8E19
:102ED300308F318E328F33E5372401FFE4353612DC
:102EE3003632AC06AD07122F43C3EF9531EE953062
:102EF3007FFF50027F018F38752F08AF38EF33956E
:102F0300E0FEE5372FFFE5363E1236328E368F3739
:102F1300AD37AC36122F438E308F31C3E531953345
:102F2300E5309532500C8530328531338536348522
:102F33003735D52FC6AD35AC34AF2EAE2D0232CAE0
:102F4300AF2EAE2D1232CA1235CA227581D0E4F5E6
:102F5300A27591FFF59075A10775A9FF75A880C2A9
:102F6300A0D2A13006FDE50A1207242F93012F9763
:102F7300022F9B032F9F042FA6052FB5062FC407EF
:102F83002FCB082FD2112FDB122FE4FF00002FE7E6
:102F9300C200803DC2008042C2008002D2001234CF
:102FA300FA8041AF15AE14AD13AC1212074A8F90DD
:102FB3008032AF15AE14AD13AC12120F838F908015
:102FC300231236E38F90801C1237CD8F908015D259
:102FD300001221878F90800CD200121C658F908085
:102FE30003759005C206022F667DA37F897E0012BA
:102FF3003590EF122E57C004C005C006C007E4FB8E
:10300300FAF97840122E85D003D002D001D00012F5
:1030130002478F568E558D548C537DD07F887E000A
:103023001235908E578F587DF07F877E0012359032
:10303300E4FCFDC004C005C006C007FEE558122E1F
:103043009CD003D002D001D0001206B7122E611219
:103053000247C004C005C006C007E557C4F854F0D2
:10306300C868FEE558C4540F48122E57D003D00247
:10307300D001D00012004DAB56AA55A954A8531243
:10308300013E2233DA929E35B16011377FE5FE3976
:103093002184893AAEC3FF3C1D955B3D6358473E8F
:1030A30075FDF03F3172183F800000C2D502041154
:1030B300020407BD80FA50F302040EED33EC33042F
:1030C30060F17B3B7AAA79B8783F12013EED33EC8D
:1030D3003392D5247B5011A2D570DB500BED448085
:1030E30024045004A2D580CEEFFBEEFAEDF9ECF800
:1030F30012039BEFF582F404FC12036712004DC028
:10310300829030867409120456ED33CC33D0F0929A
:10311300D525F0A2D57001C313CC13FD228E408FA9
:10312300418F828E83740993F542E542604614F51C
:1031330043122E76122DE9FFAEF0C006C007122D02
:10314300ECFFAEF01235FEE5412406122DE2F4FD4C
:10315300E5F0F45EFEEF5DFF122E76A3A3A3122D1E
:10316300E9FDEE45F0FCEF4DFDD007D0061237998F
:10317300154280B6122E76741093F542E542603103
:1031830014F543E541240A122DE2FFAEF0122E7628
:10319300741193FDE542D39D40067C007D00800AB7
:1031A300E541240D122DE2FDACF012379915428052
:1031B300CB22787FE4F6D8FD7581660231FC022FBD
:1031C3004EE493A3F8E493A34003F68001F208DFEF
:1031D300F48029E493A3F85407240CC8C333C454DC
:1031E3000F4420C8834004F456800146F6DFE48090
:1031F3000B0102040810204080903760E47E0193A5
:1032030060BCA3FF543F30E509541FFEE493A36061
:10321300010ECF54C025E060A840B8E493A3FAE4BC
:1032230093A3F8E493A3C8C582C8CAC583CAF0A30D
:10323300C8C582C8CAC583CADFE9DEE780BE122FCC
:10324300EC7B007AC8792F784C120247E4FBFAF939
:10325300783F12004D12039B7B0D7A007D027C00A8
:103263001236408F31E53125E025E0F5327DBB7F15
:10327300867E00123590EF64014E70127DCB7F89FC
:10328300FE12359012380EE5328FF084F532753325
:103293003FE533600FE532C395335008E533C3137D
:1032A300F53380EDE533FB7A007D707F077E0412F2
:1032B300334BAC31E41203677B007AC8792F784C27
:1032C30012013E1226ED228E4B8F4C8C4D8D4EC338
:1032D300E54C94C7E54B940550067E037FFF8004BD
:1032E3007E007F3F8E4F8F50E4F551F552C3E54D7D
:1032F30064809480501AE5502401FFE4354FFEEFBB
:103303004252EE4251E54E2550FFE54D354F800FB9
:10331300E54E2550CFE54D354FCF2401CF3400FE88
:1033230012382DE54F5EFEE5505F4252EE4251AD3D
:1033330052AC51AF4CAE4B123799E5514480FCADC2
:1033430052AF4CAE4B0237998A618B62A9058F82CB
:103353008E831235FEAD07AC06E9C4540FFFE95462
:103363000FFBC3EF9B04FF74FFFEA807088005C390
:1033730033CE33CED8F9F4FFEEF4FEEFA803088082
:1033830005C333CE33CED8F9F5648E63E9540FFF0A
:10339300E562AE61A807088005C333CE33CED8F902
:1033A300FFE5635EFEE5645FFFE564F4FBE563F45C
:1033B3005CFCEB5DFDEC4EFCED4FFDAF82AE83029A
:1033C30037998F828E83C3E58294C7E58394055032
:1033D300067E037FFF80047E007F3F8E3B8F3CAFE2
:1033E30082AE83E4FDFC123799AF82AE837D007C0D
:1033F30040123799AF82AE831235FE8E3D8F3EAFBA
:1034030082AE83E53D543FFCAD3E123799E53D5511
:103413003BFEE53E553CFFE53C2401FDE4353B55D1
:103423003DFCE53E5D4C60077CFF7DFF12058A2273
:10343300122FEC8F4E8E4D8D4C8C4B7DCB7F897E26
:1034430000123590122E12122E3A8F528E518D5039
:103453008C4F7DBB7F867E00123590EF4E70173008
:103463000309AF52AE51AD50AC4F22E4FBFA798061
:103473007840122E3A2230030AAF4EAE4DAD4CAC1B
:103483004B8012E4FBFA79807840AF52AE51AD50D5
:10349300AC4F12024722E54475F002A4FFAEF07C64
:1034A300043002027C027D42EF2DF546EE3CF545E9
:1034B300A2029203123433122E1DAF43AE42AD412A
:1034C300AC40120247E4FBFA7980784F122EA58FA5
:1034D3004A8E498D488C4778101206D2AD07AC0648
:1034E300AF46AE45123799E5462401FFE43545FE64
:1034F300AC49AD4A023799E50CAD0DFCE412036209
:10350300E4FBFA797A7844120247C004C005C00686
:10351300C007AC0BE4120367D003D002D001D00084
:1035230012004D7B007A247974784912013E8F246E
:103533008E238D228C2130000A8F198E188D178CC3
:1035430016800C852415852314852213852112E406
:10355300F590227907E925E02488F582E4343CF5E7
:1035630083E493FE740193FFE925E02496F582E456
:10357300343CF583E493FC740193FD123799D9D558
:103583007BFF7AB97DF87F207E0102334BA90512B8
:1035930035FEAC06AD07E9C4540F04FF74FFFEA863
:1035A30007088005C333CE33CED8F9F4FFEEF45CBD
:1035B300FEED5FFFE9540FFDEFA805088005CEC3BC
:1035C30013CE13D8F9FF221238207DFF7F007E042B
:1035D3001237B47F0F7E041235FEEF7802C333CE69
:1035E30033CED8F9F5828E837F0E7E041235FEEF3B
:1035F3005403FFE583FEE5824FFF22E4FBFAC2A0FA
:10360300C2A1EE547FFE123723D2A27D10D2A012A4
:103613003704EB25E0FBEA33FA30A303430301C28B
:10362300A0123704DDE7D2A1D2A2AE02AF0322FE7D
:10363300C3E4953AFDE49539FCAB3AAA39C3EF9D4F
:10364300EC6480F8EE6480985005AE04AF0522D395
:10365300EF9BEA6480F8EE6480984005AE02AF0306
:103663002222C0E0C0D075D000C000C006C00775DC
:1036730090FF7F02740A2FF8E6FE740B2FF8A6065C
:10368300DFF285800B759000D007D006D000D0D034
:10369300D0E0327DFF7C7F7F0C7E021237997D550F
:1036A3007F007E021237B47D007C807F0C7E021285
:1036B30037997D667F007E020237B4C3EF9DEC64C9
:1036C30080F8EE6480985005AE04AF0522D3EF9BDB
:1036D300EA6480F8EE6480984005AE02AF032222CC
:1036E3001238391235FE8F828E83AF09AE08123538
:1036F300FEAD07AC06AF82AE83123799C2077F00D7
:103703002275650075661F300715D3E5669400E5DD
:10371300659400400AE566156670EF156580EB2237
:103723007D10C2A0123704EE3392A2123704EF25A4
:10373300E0FFEE33FED2A0123704DDE6C2A022E49E
:10374300F561F562FDFCE56225E0F562E56133F5BF
:10375300610DBD00010CBC01EDBD90EA2204124ACB
:1037630098968004164BEA6000C106020E002D02F3
:1037730008020C0210040BC107007DDC7F237E01CD
:10378300123590EF64024E7002D322D2041215CF89
:10379300EFC37001D322AB05AA04C2A0C2A1EE44B9
:1037A30080FE123723AF03AE02123723D2A1D2A277
:1037B300228E578F588D59E4FBFA12334B7B017AD3
:1037C30000AD59AF58AE5702334B1238391235FE9C
:1037D3001235FEAD07AC06AF11AE10123799C20712
:1037E3007F00221237423005067E017F2380047E4C
:1037F300007F8C7DDC12359022E4F559F55A7FC8A1
:10380300055AE55A70020559DFF62274017E00A8B5
:1038130007088005C333CE33CED8F9FF22E4F5572A
:10382300F5587E0A1237FCDEFB22EE30E707C3E4CD
:103833009FFFE49EFE227590FFD207AF0FAE0E22CC
:103843007590FF85800AD20632000800040000FF4D
:10385300FAFFF5FFF0FFECFFEAFFEAFFECFFF2FFF0
:10386300FB000600140022002E0038003D003A0041
:1038730030001D0003FFE3FFC1FFA0FF85FF74FFBE
:1038830072FF80FFA2FFD40014005D00A700E801CF
:1038930018012E012300F4009F0029FF9AFEFEFE6B
:1038A30067FDE5FD8CFD6EFD9AFE1AFEF300220115
:1038B3009D03540530071608E80A890BDE0CCD0D6D
:1038C3004903FF008000080084008500AE01010168
:1038D30013020002010202020804000001F00000CA
:1038E30001001C000C07FF07FF0000F8FF0007F0B2
:1038F300001801003C000C07FF07FFF10B010C014E
:103903001201150116011701180119011A04000407
:103913000104020403040404050406040704080460
:1039230009040A040C04400442044388E5403200BD
:10393300058180280C218C31802E02008107FF072E
:10394300FF4000000000000000070000000000101E
:10395300012098002000000000FF38CAFF38DCFF78
:1039630038EE09FF3900FF392E1717008400850050
:10397300AE010C010D01130115011904000001F042
:103983000000000040000C00000000F8FF0007F0FA
:1039930000001A0040003CC000800001000101014A
:1039A30002010301040105010601070108010901E0
:1039B3000A02000201020202080240040004010498
:1039C3000204030407040A040C044005C005CB02E7
:1039D300030204020502060207024104040405046B
:1039E3000604080409044105C105C205C305C4054D
:1039F300C505C605C705C805C905CA05CC34086091
:103A03000131800A1200880007318C318C04266151
:103A1300C1104C008D07FF07FF20700020008107B5
:103A2300FF07FF4000070010002098002000FF2040
:103A330020FF396EFF397EFF398E08FF399EFF3A2A
:103A430000311A700049AAE6004CF7F4904A9896A0
:103A5300804C1896804C3EBC204CF7F490008501B6
:103A63000D011301140084008B0001010000040008
:103A7300100400210000070188003C001FF83FC12B
:103A8300FF00820086008700880089008A008C017D
:103A930000010101020103010401050106010701FF
:103AA300080109010A010C0115011601170118018A
:103AB30019011A02000201020202030204020502B2
:103AC300060207020802090240040004010402047A
:103AD30003040404050406040704080409040A048F
:103AE3000C044080034901040007800020051406EC
:103AF3007B340960013180061200880007318C3164
:103B03008C042661C1104C88C500098180280C01F2
:103B13008C528B2E02008D07FF07FF000000000070
:103B23000000000000207000000020008107FF0754
:103B3300FF40000000000000000000000000001033
:103B43000120380020FF3A60FF3A6CFF3A7806FF05
:103B53003A84FF3AE63131008200850100010C010D
:103B63000D0084008B8001000100000000001E0492
:103B73000021001FFF000700010001001EF83FC1E4
:103B8300FF0086008700880089008A008C010501F8
:103B930006010701080109010A01150116011701B0
:103BA300180119011A0200020102020203020402AF
:103BB3000502060207020802400241040004010450
:103BC30002040304040405040604070408040904A6
:103BD3000A040C0440044149010400078000200545
:103BE30014067B3007318C318C058C61C1104C007D
:103BF3000D8180280C618C528C2E02008D07FF07EB
:103C0300FF00000000000000000000007000200022
:103C130000008107FF07FF400000000000000000D4
:103C230000000000001001203800200000FF3B5A74
:103C3300FF3B68FF3B7607FF3B84FF3BDA2B2B0000
:103C430021002F008200820084008400850085000B
:103C530086008C009200A700A800A800AD00AE016A
:103C63000001040105010A010C01140115011A02E6
:103C730000020C024002610400040F0440046105C9
:103C83000005A705C005C0011C011D011E011F0180
:103C93002101220123AD430400078036403404038D
:103CA3003F067B010ED7010E600204F80204700286
:103CB30003B00403B00202A00201A00402A00401A5
:013CC300A060
:00000001FF
