:100000000235D4123B9B7DFF7F007E04123B2F7F85
:100010000F7E0412397AEF7802C333CE33CED8F98B
:10002000F5828E837F0E7E0412397AEF5403FFE54A
:0700300083FEE5824FFF2271
:03003B000239AED9
:10004300023BBE020407E86480F8E933E833601139
:100053000460F0ED33EC337009E8FCE9FDEAFEEBF4
:10006300FF220460DED3EB9FEA9EE99DE8C2E78CA2
:10007300F0C2F795F0400CE8CCF8E9CDF9EACEFAF6
:10008300EBCFFB1203D285D0F05804700320D5B315
:10009300E80470075002B2D502041192D5EC046053
:1000A300F7E4CCC0E0C398F8603B94186008400DB7
:1000B300D0E0FB0203E9E4FBFAC9FC8028E830E462
:1000C30006E4C9FBE4CAFCE830E305E4C9CACBFC97
:1000D300E854076010F8C3E913F9EA13FAEB13FBCA
:1000E300EC13FCD8F130F52FC3E49CFCEF9BFFEE3F
:1000F3009AFEED99FDD0E0FBEF4E4D4C701222DBE2
:100103000302040EEC2CFCEF33FFEE33FEED33FD64
:10011300ED30E7EB0203E9EF2BFFEE3AFEED39FD9D
:10012300D0E0FB50130BBB0003020411ED13FDEEF3
:1001330013FEEF13FFEC13FC0203E9EC4D6011E82F
:10014300497017ED33EC3304600DE4FCFFFEFD2230
:10015300E933E8330470F80204071203D258046049
:1001630009E4CC24815006285009020411284003D5
:1001730002040EC0E0EB4A7044B98006D0E0FB02F3
:1001830003FDEF4E701CBD8008EBFFEAFEE9FD8026
:10019300EBE98DF0A4FEE5F0020227E9CDF9EAFED2
:1001A300EBFFEF89F0A4FCE5F0CE89F0A42EFFE489
:1001B30035F0CD89F0A42DFEE435F08067EF4E7065
:1001C30005BD80D780C3EF8BF0A4ACF0EE8BF0A419
:1001D3002CFCE435F0F8EF8AF0A42CE5F038FCE4CD
:1001E30033CB8DF0A42CFCE5F03BF8EE8AF0A42C85
:1001F300FCE5F038F8E433CF89F0A42CFCE5F038C3
:10020300CF3400CE89F0A42FFFE5F03EFEE433C9DE
:100213008DF0A42EFEE5F039CD8AF0A42FFFE5F092
:100223003EFEE43DFD33D0E0FB50070BBB000F0265
:100233000411EC2CFCEF33FFEE33FEED33FD020330
:10024300E9020411EC5D046005E85904700302043B
:10025300071203D2580460F6EC4860F2EC7004FD18
:10026300FEFF22C860DB2481C85009C39860025096
:100273000602040E9850CAF582E9294B4A7005AB71
:10028300820203FD75F0007C1A7880C3EF9BEE9A1F
:10029300ED99400DC3EF9BFFEE9AFEED99FDE84209
:1002A300F0DC23ACF0D0E0FFD0E0FED0E0FDAB8289
:1002B30020E7101BEB60BAEC2CFCEF33FFEE33FEB0
:1002C300ED33FD0203E9E803F830E705C0F075F00C
:1002D30000EF2FFFEE33FEED33FD40B830E7C28071
:1002E300AA74F8CC6480CCC86480C8F58204604FDB
:1002F300C3EB9FF5F0EA9E42F0E99D42F0E89C458E
:10030300F0603C501DE5825FFFE582D313CB5BCBEE
:10031300F42B5582FB50280ABA002409B90020089F
:10032300801DE5825BFBE582D313CF5FCFF4C3135C
:100333002F5582FF50090EBE00050DBD00010CC3F1
:10034300EB9FF5F0EA9E42F0E99D42F0E89C45F010
:100353006007CC4820E701B3EC2275F020800E75CE
:10036300F010800575F0087D007E007F003392D584
:1003730030D5031206C4EC334010EF33FFEE33FEE7
:10038300ED33FDEC33FCD5F0ED22E5F0247EA2D570
:1003930013CC92E7CDCEFF22EDD2E7CD33EC3392EF
:1003A300D524814006E4FFFEFDFC22FCE4CFCECD44
:1003B300CC24E0501174FF80EDC3CC13CCCD13CD0E
:1003C300CE13CECF13CF0470F030D5DE0206C4E9CE
:1003D300D2E7C933E833F892D5EDD2E7CD33EC3326
:1003E300FC5002B2D522EC30E7100FBF000C0EBE5A
:1003F30000080DBD00040BEB6014A2D5EB13FCED5C
:1004030092E7FD2274FFFCFDFEFF22E480F8A2D5F3
:1004130074FF13FC7D80E480EFED33EC3360100454
:10042300700FED547F7005740292E022740422046D
:1004330022E422ED33EC33600A047003BD8004EC44
:10044300B2E7FC22C0E0EFFBEEFAEDF9ECF81201A3
:100453003ED0E0F5F0EFFBEEFAEDF9ECF81206F81A
:10046300A3A3A3A3E8C0E0E9C0E0EAC0E0EBC0E0D7
:10047300C0F012013E120708A3A3A3A312004DD09C
:10048300F0D0E0FBD0E0FAD0E0F9D0E0F8D5F0D43A
:1004930022E709F608DFFA8046E709F208DFFA8067
:1004A3003E88828C83E709F0A3DFFA8032E309F602
:1004B30008DFFA8078E309F208DFFA807088828C1B
:1004C30083E309F0A3DFFA806489828A83E0A3F6D9
:1004D30008DFFA805889828A83E0A3F208DFFA8072
:1004E3004C80D280FA80C680D4806980F2803380C9
:1004F3001080A680EA809A80A880DA80E280CA8091
:100503003389828A83ECFAE493A3C8C582C8CCC535
:1005130083CCF0A3C8C582C8CCC583CCDFE9DEE7B2
:10052300800D89828A83E493A3F608DFF9ECFAA9A4
:10053300F0EDFB2289828A83ECFAE0A3C8C582C866
:10054300CCC583CCF0A3C8C582C8CCC583CCDFEAB5
:10055300DEE880DB89828A83E493A3F208DFF980F3
:10056300CC88F0EF60010E4E60C388F0ED2402B436
:10057300040050B9F582EB2402B4040050AF2323E6
:100583004582239004E473EF8DF0A4A8F0CF8CF0A0
:10059300A428CE8DF0A42EFE22BC000BBE0029EFB2
:1005A3008DF084FFADF022E4CCF875F008EF2FFF57
:1005B300EE33FEEC33FCEE9DEC984005FCEE9DFE25
:1005C3000FD5F0E9E4CEFD22EDF8F5F0EE8420D26C
:1005D3001CFEADF075F008EF2FFFED33FD400798DB
:1005E3005006D5F0F222C398FD0FD5F0EA22C2D50A
:1005F300EC30E709B2D5E4C39DFDE49CFCEE30E7A3
:1006030015B2D5E4C39FFFE49EFE12059CC3E49D8F
:10061300FDE49CFC800312059C30D507C3E49FFFD7
:10062300E49EFE22BB010A89828A83E0F5F0A3E0FF
:1006330022500687F009E71922BBFE07E3F5F0090C
:10064300E3192289828A83E493F5F074019322BB30
:100653000110E58229F582E5833AF583E0F5F0A3FD
:10066300E0225009E92582F886F008E622BBFE0A5B
:10067300E92582F8E2F5F008E222E5832AF583E929
:1006830093F5F0A3E99322F8BB0111E58229F582E2
:10069300E5833AF583E8F0E5F0A3F0225009E92574
:1006A30082C8F608A6F022BBFE09E92582C8F2E556
:1006B300F008F222EF4BFFEE4AFEED49FDEC48FC59
:1006C30022C3E49FFFE49EFEE49DFDE49CFC22E83C
:1006D300600FECC313FCED13FDEE13FEEF13FFD815
:1006E300F122E8600FEFC333FFEE33FEED33FDEC91
:1006F30033FCD8F122E493FC740193FD740293FE5E
:10070300740393FF22E493F8740193F9740293FA48
:10071300740393FB22D083D082F8E49370127401A4
:1007230093700DA3A393F8740193F5828883E47304
:100733007402936860EFA3A3A380DFE4F523FBFABD
:10074300F978401202478F278E268D258C24122E8E
:1007530089AF27AE26AD25AC24120BF18F23E523F9
:100763006001227D527F137E011239408F281200CF
:1007730003C3EE94275014E528C3940E500D0528A7
:1007830005287D527F13120B8180E3121B701239EF
:10079300408F28120003C3EE94275014E528C39416
:1007A3001E500D052805287DFA7F08120B8180E372
:1007B3007FFA7EED7DEB7CBA121A70121A8C121A34
:1007C3000B79A078411202478F498E488D478C469A
:1007D3007F007E007D207C411226D4C004C005C06A
:1007E30006C007120003AC06AD07E41203627B8167
:1007F3007A047935783F12013ED003D002D001D07C
:100803000012013E12039B8E218F22121AD4121A58
:10081300701202E4600540030209CBC2007F667ECA
:10082300667DA61219917FE27EB87D007C4E120090
:10083300498F458E448D438C42121D818F23E523BE
:10084300600122C2017F667E667DA67C3F121A701C
:1008530012013E8F458E448D438C42E4F546123897
:10086300497F407E547D897C4B121A701202E450FA
:1008730059120B6BE52364807017120B97E528D38D
:100883009401400DE52813F528120B10120B6B8011
:10089300ECE5236481702D120B97E528C3941F4068
:1008A3000302093274042528F528D3941F40030258
:1008B3000932120B01753C08753D007DA07F1712AC
:1008C3000BCE80D6E5236067FF22753C01753D00A2
:1008D3007D707F16120BCEE5236480701E120BDA37
:1008E300E528D3940040141528120B01120003C30A
:1008F300EF9522EE952150E8E4F523E5236481701A
:1009030028120BDAE528C3941F50240528E5289400
:100913001F501CE528120B10120003D3EF9522EE93
:10092300952140E0E4F5238006E5236002FF2212CF
:100933000B46600122120BAF7D107F137E0112392B
:10094300408F2AE52A64036005E52AB402121219CE
:100953008B7F887E457DC87C4E121A0B7920800DD3
:10096300E52AB4011312198B121A03797078C11294
:1009730019FD8E288F2980037FFD227BFF7A0FE4E8
:10098300FDFCAF29AE28121983121AF1123769E55B
:100993002AD394014007121A5C8F2B8011E52AB4E5
:1009A3000109121A5CEF04F52B80037FFC22AF2BA5
:1009B3007E007B0F12197E120B1D121A5C121B3F55
:1009C30012197E120B278009120B46600122120BAB
:1009D300AF753C10753D00AB22AA21121AF11231FA
:1009E300078F23E523600122121AF11239408E2862
:1009F3008F29121B5B1239408F2A7D857F147E015C
:100A03001239408F2B7DDB7F177E011239408E2CEC
:100A13008F2D121B621239408E2E8F2F7D607F1A0D
:100A23007E011239408F307DD97F1A7E0112394001
:100A33008F317DA87F167E011239408F327D707F02
:100A4300167E011239408F337D227F157E011239C4
:100A5300408F347D337F157E011239408F357DFD04
:100A63007F187E011239408F36123036AB29AA28FF
:100A7300121AF1123769E52AFB7A00120B1DE52BD6
:100A8300FB7A00120B27AB2DAA2C7DDB7F177E018F
:100A9300123769AB2FAA2E121B62123769E5307D1C
:100AA30060120B8CE5317DD9120B8CE5327DA812D7
:100AB3000B31E5337D70120B31E5347D22120BE6E9
:100AC300E5357D33120BE6E536FB7DFD120B3C7BF2
:100AD3000C7D95120B3C7B0C7F18120BC47DEA1224
:100AE3000BA37D95120BA37B107A007DFB7F167EF3
:100AF300011237697B107F14120BC47F0022E52893
:100B0300FB7A007DFB7F167E0112376922FB7A0098
:100B13007DFB7F167E01123769227DFC7F127E01E9
:100B2300123769227D857F147E0112376922FB7A91
:100B3300007F167E01123769227A007F187E011228
:100B4300376922C200AB27AA26A925A8247FE27E03
:100B5300B87D007C4E1200498F458E448D438C42F4
:100B6300121D818F23E52322753C08753D00AB22BE
:100B7300AA217DA07F177E011231078F2322E5284A
:100B8300FB7A007E0112376922FB7A007F1A7E010D
:100B9300123769227DFB7F167E011239408F28228E
:100BA3007B147A007F197E0112376922C2018527DF
:100BB30045852644852543852442E4F54612384974
:100BC300227A007D407E0112376922AB22AA217E60
:100BD300011231078F23227DFB7F167E01123940DC
:100BE3008F2822FB7A007F157E01123769228F3A04
:100BF3008E398D388C377F207E0012397A8E3B8F69
:100C03003C7D107F137E011239408F3D7D407F195B
:100C13007E011239408F3E903D9F1219B31219671E
:100C23001202E44013121B4A903DA31219B9121980
:100C3300671202E4600540037FFF22753F06121925
:100C4300D4C006C0071219D412397AE53F25E0242F
:100C5300CDF582E4343D121A67121B51E53F25E0BE
:100C630024C1F582E4343D121B05D007D006123BA4
:100C730014D53FCA753F00754031E54025E0FDE5D9
:100C83003F33FC74D92DF582743D3C1219DF743B5C
:100C93002DF582743E3C121A67FD123B14E5401594
:100CA300407002153FE540453F70CFE53D7D107F25
:100CB3001312104AE53EB41F047B168003E53EFB86
:100CC3007A007D407F197E01123769E4FFFE7DA023
:100CD3007C411219671219E98F3F121AC78F3FAC73
:100CE3003F121A2012004D122AF5EF600122121052
:100CF30032123906C2007545E27544B87543007572
:100D0300424E121D81EF6001227B027A00121AEA21
:100D1300123769123906D200754556754421754359
:100D23000375424E121D81EF600122AD3CAC3B7F47
:100D3300207E00123B14123A08D201754580754497
:100D43009675431875424BE4F546123849C201E4DF
:100D5300F545F544F543F542F546123849121AD4E0
:100D63001219671202E4600250167B017A00121016
:100D730028E4FBFA121B5B1237697B0F7A0080763B
:100D8300E53D64036005E53DB4021C1219677F88E5
:100D93007E457DC87C4E121A0B792078C11219FD4D
:100DA300121AA38F41801FE53D6401701612196763
:100DB300121A03797078C11219FD121AA3EF04F500
:100DC3004180037FAA227BFF7A0FE4FDFCAF40AE94
:100DD3003F121983121028AF41EF3395E0FE7B0FCA
:100DE30012197E121B5B123769AE3FAF40121AA76E
:100DF300121B3F12197E7D857F147E01123769E431
:100E0300F53FE53EC394155003753F01E53EC3949A
:100E13000D5003753F02E53EC394085003753F032D
:100E2300E53F7D607F1A12104AE53E75F00A84FCA7
:100E3300E41203678F498E488D478C467F667E6632
:100E43007D267C3F1226D4E4FBFA79D7784312013E
:100E53003E7B337AB379DC78C212004D7B9A7A9960
:100E630079A37841121A0B798078411219FD8F3FCB
:100E7300EF3395E0FE7B1F12197E7DD97F1A7E0129
:100E83001237697F407E547D897C4B1219671202A9
:100E9300E44003020F517F15121A3A1237697D336A
:100EA3001219A7123769E4FBFA12100E12199B7F6D
:100EB300FC7EBE7D00121A0979CE78C21219FD8E0E
:100EC3003F8F407BFF7A07121980121B621237692A
:100ED300753F0512195F12013E7BC07AE179647890
:100EE3004B1202E460054003753F0412195F121AA6
:100EF3002C1202E460054003753F0312195F1201CF
:100F03003E7B807A967998784A1202E46005400322
:100F1300753F0212195F12013E7B007A1B79377805
:100F23004A1202E460054003753F0112195F120182
:100F33003E7B007AE679AA78491202E46005400311
:100F4300E4F53FE53FFB7A007DDB7F17807F121AD4
:100F5300D41219671202E47D221219A76002505BB2
:100F6300123769E4FBFA1210407B017A0012100E6B
:100F730012199B7F5E7ED07DB2121A09794878C21E
:100F83001219FD8E3F8F4012197C7D707F167E01F2
:100F930012376912195F12013EE4FBFA7920784196
:100FA30012024712039BEF24FDF53FFF3395E0FE4A
:100FB3007B0812197E7DA87F1680121237697B0188
:100FC3007A001210407B027A007DFD7F187E0112A9
:100FD3003769E53C54036402702EFBFA7D117F826E
:100FE300FE123769121032121B697F0D7E01123710
:100FF300697B017A007DEE7F007E01123769AB3C8D
:10100300AA3B121AEA1237697F00227DFD7F187E00
:10101300011237697F667E667DA67C3FAB3AAA39AB
:10102300A938A837227DB07F127E01123769227B4F
:10103300017A007D107F207E00123769227D337F85
:10104300157E0112376922FB7A007E01123769226D
:101053008F248E238D228C217F207E0012397A8E5D
:101063002B8F2C903DA7121A12400A903DB3121AEF
:1010730012600540037F2222121B4AAF24AE23AD28
:1010830022AC211202478F2A8E298D288C27903D6E
:10109300AB121A12601B4019903DAF121A12501175
:1010A300121B4A903DAF1219B98F2A8E298D288CB5
:1010B30027122E89AF2AAE29AD28AC27121439EF97
:1010C3006001227E0412142E7E0212142E120003DB
:1010D3008E258F26121B701239408F2DC3E5259460
:1010E30027501DE52DC3942B5016052DE52DFB7AB6
:1010F30000121B701237691200038E258F2680DCC5
:101103001219B0121B34600540030211C9C20075E5
:101113002D0512132D5035C31219C05012121A98EF
:10112300400DE5331533700215321213AD80E8C359
:101133001219C05013E5334532700D12139E7D70A2
:101143001213FF121AF88050C20080511219BF40C7
:101153004C1219BF4016E533941F121A9C500D050B
:1011630033E533700205321213EB80E51219BF40E9
:101173001AE533641F4532701212139E7D701213E9
:10118300C2121AF87E011237698002C2000533E5E4
:101193003370020532121A427E01123769152D127D
:1011A30014248F34E534700302128DF47003021299
:1011B3008D20000302128DC3E52D648094804003CB
:1011C30002111502128DC200752D057B027A007D76
:1011D300607F1A7E0112376912132D503AC3121918
:1011E300C05012121A98400DE533153370021532B0
:1011F3001213AD80E8C31219C05018E5334532709D
:10120300121213DC7DF81213FF8F34EFFB7DF87F8E
:10121300098052C20080531219BF404E1219BF40B9
:1012230016E533941F121A9C500D0533E5337002F3
:1012330005321213EB80E51219BF401CE533641F1E
:10124300453270141213DC7DF81213C28F34EFFB96
:10125300121B771237698002C2000533E53370022F
:101263000532121A427E01123769152D121B7712AD
:1012730039408F34E5346012F4600F30000CC3E55D
:101283002D6480948040030211DB1214248F2D7D82
:10129300C87F0A7E011239408E2E8F2F121B7712C0
:1012A30039408E308F31123036AD2CAC2B7F207EFF
:1012B30000123B147D8C7C317F067E01123B147D32
:1012C3008C7F077E01123B14AB2FAA2E7DC87F0AA9
:1012D3007E011237691219B0121B34600250247D4B
:1012E30044121418121A38123769121A8212376903
:1012F300121B697F0B7E01123769E52DFB7A007D96
:1013030070801DE4FBFA7D447F057E01123769126C
:1013130019C91237697D11121418AB31AA307DF83F
:101323007F097E011237697F0022E4FBFA7D417F4A
:10133300407E02123769E4FBFA7D417F407E04124E
:1013430037691200038E2E8F2FAC2EAD2FE41203BC
:10135300627B817A047935783F12013E12039B8EBA
:10136300308F317B017A007D417F407E02123769E5
:101373007B017A007D417F407E04123769120003AE
:101383008E258F267DC87F0A7E011239408E328FCB
:1013930033C3E5269531E525953022D2007B10FA3B
:1013A3007DC87F0A7E0112376922AB33AA327DC81A
:1013B3007F0A7E011237691200038E258F26227F52
:1013C300097E01123940EF24F6FFEE34FFFE7BFF66
:1013D3007A00E4FDFC123A5522D2007B10FA7DC854
:1013E3007F0A7E0112376922FBAA327DC87F0A7EFB
:1013F300011237691200038E258F26227F097E0191
:10140300123940EF2419FFE43EFE7BFF7A00E4FD2E
:10141300FC123A55227B017A007F057E011237695F
:10142300227D707F097E0112394022E4FBFA7D415F
:101433007F40123769228F398E388D378C36121AD6
:10144300EA1239408E3A8F3B753C07121B11121971
:10145300DFC006C007121B111219DF12397AE53CEF
:1014630025E024B9F582E4343E121A67121B51E5D4
:101473003C25E024ABF582E4343E121B05D007D0B3
:1014830006123B14D53CC4753C2BE53C25E024C730
:10149300F582E4343E1219DFE53C25E0241DF58294
:1014A300E4343F121A67FD123B14D53CDD1219B028
:1014B300121A791202E4600540030215667FCD7E9D
:1014C300CC7D4C7C3F121A79121A8C121B1D7D4461
:1014D3001219CB123769121A38123769121A82128B
:1014E3003769121B697F0B1216957BCE7A4079E818
:1014F30078B812013EC004C005C006C0071216B179
:101503007B957AB77915782512013ED003D002D0A6
:1015130001D00012004DC004C005C006C00712165A
:10152300E17B757AEC7935783B12013ED003D0022A
:10153300D001D00012004DC004C005C006C0077F13
:10154300B47E4E7DA87C41121B29D003D002D0016A
:10155300D00012004D7B157AA379411219707D706A
:10156300021603121A8FAF39AE38AD37AC36121BE1
:101573001D7D44121A841237691219C91237697B07
:10158300017A007D117F051216957B347A0A795D05
:1015930078B912013EC004C005C006C0071216B1D7
:1015A3007B667A277994783512013ED003D002D036
:1015B30001D00012004DC004C005C006C0071216BA
:1015C300E17BAC7A0D799C783C12013ED003D002CA
:1015D300D001D00012004DC004C005C006C0077F73
:1015E300437E727DB77C3F121B29D003D002D0010A
:1015F300D00012004D7BC37AC7793E1219707DF873
:101603007F097E01123769E4FFFE7DA07C41121A37
:10161300791219E98F3C121AC78F3CAC3C121A207D
:1016230012004D122AF5EF6001227B011216C87BCE
:10163300021216C8AB3BAA3A121AEA123769123AD7
:1016430008D2017545007544247543741216F7D208
:1016530001853945853844853743853642754601CA
:10166300123849C2017545007544BA75435B1216B9
:10167300F7C2017F007E507DC37CC7121A79120026
:101683004D8F458E448D438C427546011238497FF8
:1016930000227E01123769E4F549F5487547407524
:1016A3004640AF41AE40AD3FAC3E1226D422E4F5F6
:1016B30049F548754780754640AF41AE40AD3FACF4
:1016C3003E1226D4227A007D107F207E00123769D5
:1016D3007B017A007D117F1C7E0112376922E4F5BC
:1016E30049F548F547754640AF41AE40AD3FAC3E86
:1016F3001226D422754249E4F546123849228F5600
:10170300EFC36001D392023002067E017F21800481
:101713007E007F8B8E578F587F813002027FA38F8D
:1017230059E4FBFA7D213002067F1C7E0180037F92
:1017330086FE123769E4FB121943BF03037F0422B9
:101743007BFF7A00121955A2029203123B61EF70DC
:10175300037F0422E4F562F563E5632401FFE435C6
:1017630062FEEF7807C333CE33CED8F9FFAD63ED16
:10177300122DCAA60608A607E563AE627807C3332F
:10178300CE33CED8F9FFED122DC0A60608A607ED7D
:10179300122DC0E6FA08E6FB121955756406122DE0
:1017A300BEC000122E4B8005C333CE33CED8F9FF13
:1017B300EC4EFEED4FD000A60608F6122DBE121910
:1017C3002D8F65E565B4031F122DBEC000122E4B8D
:1017D3008005C333CE33CED8F9F4FFEEF45CFEEDCF
:1017E3005FD000A60608F6E565B40222AF63EF12E8
:1017F3002DCAE6FC08E6FDEF122DC0E6FE08E6FF63
:10180300D3122DFE5008122DC8A60608A60715648C
:10181300C3E564648094805085AF63EF122DC0E606
:10182300FC08E6FDEF122DCAE6FA08E6FBD39DECB1
:101833006480F8EA6480985031E563AE627807C348
:1018430033CE33CED8F9FFD3EB9FEA9E401C122D43
:10185300C808E6161870011612192DEF640260B954
:10186300122DC80806E6187001060563E5637002C9
:101873000562C39402E5629400500302175CE561BC
:1018830024FFFFE56034FFFEEFB55B12EEB55A0EA1
:10189300855E62855F63855C64855D65803FC3E5C6
:1018A3005B955DFFE55A955CFEC3E55F9561FDE5DC
:1018B3005E9560FCD3ED9FEE6480F8EC6480987FC6
:1018C3000040027F018F66EF122DC0E6F56208E645
:1018D300F563EF122DCAE6F56408E6F565C3E56323
:1018E3009565FFE5629564FE7C007D021205F1EFCC
:1018F3002565F565EE3564F564AB65121943EF6450
:10190300026012E5652401FBE43564FAAD59AF5872
:10191300AE57123769A2029203123B61EF64026071
:1019230006E5562421FF227F0022E6FA08E6FBADF6
:1019330059AF58AE57123769A2029203123B612284
:10194300FAAD59AF58AE57123769A2029203123B50
:101953006122AD59AF58AE57123769227F667E6652
:101963007DA67C3FAB3AAA39A938A8372278C212A0
:10197300004D12039B8E3C8F3D7BFF7A00E4FDFC00
:10198300123A55AA06AB07227FEC7E517D387C3F85
:10199300AB27AA26A925A82412013EA804A905AAB3
:1019A30006AB07227B017A007F157E0122903DABB7
:1019B300E4FBFAF978401206F8020247D3E52695CC
:1019C30031E5259530227D227B017A007F057E015A
:1019D30022E53F25E024B5F582E4343DF583E49325
:1019E300FE740193FF2212013E7B007AC8792F789F
:1019F3004C120247E4FBFAF9783F12004D02039BB5
:101A03007FBB7EEE7DA07C4F120247E4FBFA2212DD
:101A130006F8AB24AA23A922A8210202E4E41203B4
:101A2300677B007AC8792F784C12013E7B807A96C7
:101A33007918784B227F05E4FBFA7D227E0122FF91
:101A4300AE327B1F7A00E4FDFC123A558E328F339F
:101A5300AB33AA327DC87F0A22AE28AF297C007D32
:101A63006402059CF583E493FC74019322AB27AADB
:101A730026A925A82422AB39AA38A937A836227D5E
:101A830011E4FBFA7F057E012212013E7B007A24DA
:101A93007974784922E5339400E532648094802296
:101AA3008E3F8F407C007D640205F1C3E53F954383
:101AB300F53FE53E9542F53E22AB3FAA3EAD39AF39
:101AC30038AE37227E007B0D7A007D027C00023A1D
:101AD300557F607EFE7D4D7C4C22E543253FF53FDF
:101AE300E542353EF53E227D107F207E00227DB00B
:101AF3007F127E01228E348F35AB35AA347D707F01
:101B03000922F583E4934EFC7401934FFD22E53CD7
:101B130025E0249DF582E4343E221202478F418E54
:101B2300408D3F8C3E22AB41AA40A93FA83E020113
:101B33003EAB2AAA29A928A8270202E4C3740F9F4F
:101B4300FFE49EFE7B0F22E4FBFAF9784022F4FDCA
:101B5300ECF45EFEEF5DFF227DFC7F127E01227DB1
:101B6300A07F177E01227B017A00E4FD227DFA7FAC
:101B7300087E01227DF87F097E01228E2D8F2E742F
:101B8300FFF533F5343000057E03FF80047E007FCC
:101B93003F8E378F383000067E037FFF80047E0040
:101BA3007F3F8E398F3A121D4F7D007C40121D6599
:101BB300AF2EAE2D12397A8E358F36121D4F12226B
:101BC300015535FEE5365F4E6019E5385236E53787
:101BD3005235AE35AF367CFF7DFF12058A8E358FC9
:101BE300368008E5385236E5375235853533853644
:101BF300341200038E2F8F30852F31853032E53636
:101C03002401FFE43535FE12221E123A308E3B8F3B
:101C13003CE4F53DF53EC3E53B64809480501512EA
:101C23002201FEEF423EEE423DE53C2538FFE53B17
:101C33003537800AE53C2538CFE53B1221DD121DFF
:101C43006D423EEE423DAD3EAC3D121D65E53DAD00
:101C53003E121D5A120003C3EF9530EE952F50022A
:101C63008001C39201753B08E4FDFC121D7930012C
:101C73000A0536E536700C05358008E536153670ED
:101C830002153512221EAF36AE35123A308E358F1D
:101C930036E4F53CF53DC3E53564809480500F127E
:101CA3002201FEEF423DEE423C1222A780031221A5
:101CB300D6121D6D423DEE423CAD3DAC3C121D794A
:101CC300E53CAD3D121D5A1200038E2F8F30C3E544
:101CD300309532E52F9531500C852F318530328583
:101CE3003533853634153BD3E53B6480948040031C
:101CF300021C6BE4F53BF53C853335853436C3E58F
:101D03003564809480500F122201FEEF423CEE4274
:101D13003B1222A780031221D6FE123BA8E5375EB1
:101D2300FEE5385F423CEE423BAD3CAC3BAF2EAEF2
:101D33002D123B14E53B4480FCAD3CAF2EAE2D127F
:101D43003B14E4FDFCAF2EAE2D023B14E4FDFCAFCF
:101D53002EAE2D123B14224480FCAF2EAE2D123B2F
:101D63001422AF2EAE2D123B1422FE123BA8E537F0
:101D73005EFEE5385F22AF2EAE2D123B14227F208C
:101D83007E0012397A8E468F477A003000047B0238
:101D930080027B017D107F207E0012376975540716
:101DA300AF54123B89AC06AD07E4120362AB45AAFC
:101DB30044A943A84212013E8F4B8E4A8D498C4859
:101DC3007F667E7F7D62122DD2400D7F267EE57D6C
:101DD300E5122DD260054003D554C5E55424FFFB1D
:101DE300E434FFFA7D867F1F7E011237697FAC7E64
:101DF300E97DA3122DD27F00600440027F018F543E
:101E0300EFFB7A007DAA7F1C7E01123769E554241B
:101E130001FDE433FCE4120362AB19AA18A917A865
:101E23001612013E122DB5AF4BAE4AAD49AC481266
:101E330002478F538E528D518C5012039BE4120331
:101E43005D122DB5AF53AE52AD51AC5012004912D5
:101E53002E27122E838F4F8E4E8D4D8C4C7CC0AB14
:101E630053AA52A951A850122DEA7F1E7E011237A0
:101E730069AF4FAE4EAD4DAC4C122E6E7F1E7E0140
:101E8300123769E54FFFE54EFEAD07AC067F1D7EB9
:101E930001123B14C20178497C007D007BFF7A3F2D
:101EA30079D97E007F03120564E4F548121F4E7F43
:101EB300013000027F02121701EF70167DA37F210C
:101EC3007E01123940EF2480FF74492548F8A607A4
:101ED300D2010548C3E5486480948340CF75480226
:101EE300121F5FC006C007AF49EF3395E0FE123BF8
:101EF300A8D005D004122DFC5003E4F548121F5F4F
:101F0300C006C007AF4AEF3395E0FE123BA8D005E9
:101F1300D004122DFC5003754801121F4E7449253D
:101F230048F8E6FF3395E0FEEF2480FBE43EFA7DBC
:101F3300A37F217E01123769AD47AC467F207E0027
:101F4300123B147F002001027F0222E548FB3395F8
:101F5300E0FA7D217F217E011237692274492548E9
:101F6300F8E6FF3395E0FE123BA8227F207E0012A5
:101F7300397A8E2B8F2C752D0812225D12213CC0CD
:101F830006C00712225D12213C12397AE52D25E0A5
:101F930024F5F582E4343C12218F1222B1E52D257C
:101FA300E024E5F582E4343C122251D007D0061236
:101FB3003B14D52DC4752D31E52DD3941AE52D5041
:101FC300171222C212213CE52D25E02467F582E495
:101FD300343D12218FFD80091222C212213CE4FDFF
:101FE300FC123B14D52DD1E52C540364017006FB80
:101FF300FA7D228005E4FBFA7D117F82FE123769A8
:102003001222BB123940EE702CEF14601324FE60D1
:102013000F0470217B017A0012210FE4FBFA800A7E
:10202300E4FBFA12210F7B017A007DBB7F037E0163
:1020330012376980037F012212217112376912213D
:10204300E8123940EF4E702D122119123906D200D1
:10205300122BE0C004C005C006C00712214812229B
:102063002CD007D006D005D00412004978CB12211A
:10207300EFC200802BC200122BE08F308E2F8D2EEB
:102083008C2D122171123769123906D200122148A0
:10209300AB30AA2FA92EA82D12004D784B1221EF99
:1020A300121D818F2AE52A60042470FF2212212544
:1020B300123A081232A38F2AE52A60042430FF2241
:1020C3001239DFD201754540754454754309754291
:1020D3004BE4F54612384912214612215A12384967
:1020E300E52C54036402702112211912223C7F0D46
:1020F3007E0112376912228B123769E4FBFA7D11D4
:102103007F82FE1237691221257F00227DAA7F0379
:102113007E01123769227B01FA7D107F20FE123780
:102123006922AD2CAC2B7F207E00123B1422E52BC1
:1021330025E02443F582E4343CF583E493FE740103
:1021430093FF22C201AF15AE14AD13AC12E4FBFA38
:1021530079A0784002024778C77B007A5079C3128E
:10216300004D8F458E448D438C42E4F546227B021D
:102173007A007D107F207E00227D77E4FBFA7F0CBE
:102183007E042225E024C7F582E4343BF583E493FF
:10219300FC74019322783F7C007D007BFF7E007FEF
:1021A30003020564E975F0288475F018A4FFE92497
:1021B30000FDE43405CD2FFFED35F0FE227B017ADF
:1021C300007DFF7FC07E05227D227B017A007F0C8C
:1021D3007E0422E5362538CFE5353537CF2401CFC8
:1021E3003400227B017D667F1C7E01227B407A5472
:1021F300790912004D8F458E448D438C4222E53878
:102203002401FFE4353722C3E548954AE54795495C
:1022130022C3E5419543E540954222C3E4953AFD47
:10222300E49539FCAB3AAA3922A804A905AA06AB5E
:102233000722903FF9E493FD227B017A00E4FD221B
:10224300903FF0E493FD22903FF3E493FD22F58366
:10225300E4934EFC7401934FFD22E52D25E024D534
:10226300F582E4343C22D3903D9D7401939FE49323
:102273009E22FEC3EF9401EE64809480227B017A58
:10228300007D337F087E02227B017A007DEE7F0092
:102293007E01227D527F137E0122C3E52E952AE51E
:1022A3002D952922E5362538FFE535353722F4FD0E
:1022B300ECF45EFEEF5DFF227D877F0D7E0122251C
:1022C300E02405F582E4343D227F207E0012397A32
:1022D3008E298F2AE52A540364017006FBFA7D4494
:1022E3008005E4FBFA7D337F82FE123769752B0983
:1022F300122131C006C00712213112397AE52B258C
:10230300E02467F582E4343C12218F1222B1E52BDD
:1023130025E02455F582E4343C122251D007D0063F
:10232300123B14D52BCA752B17E52BD394175020CA
:10233300E52B25E02479F582E4343C12213CE52B9E
:1023430025E024A7F582E4343C12218FFD123B14CF
:10235300D52BD61239DF1232A3EF6001227B011293
:102363002173123769123906D200122BE0C004C060
:1023730005C006C00712214812222CD007D006D070
:1023830005D0041200497B007A24797478C91200BD
:102393004D8F2E8E2D8D2C8C2BC2001221F8121DE9
:1023A30081EF60042460FF22E52A30E11BE4FBFA9D
:1023B3007D117F82FE12376912223C7F0D7E01124E
:1023C300376912228B1237691221711237697A0029
:1023D3001221E6123769AD2AAC297F207E00123B19
:1023E30014123A08D2011221481221651238497D8C
:1023F300BA7F037E011239408F2BE52B64016009FC
:10240300E52B640260037F0522E52B2401FBE43303
:10241300FA1222BB1237697D657F0C12242B7D4390
:102423007F0D12242B7F0022E52B6403FB7A007EB1
:1024330001123769227F207E0012397A8E228F2380
:10244300122E89121F6E8F21E52160030224CF1201
:1024530031D81222BB123940BF020C7D5512257DA3
:10246300E4FBFA7D33800A7D6612257DE4FBFA7D69
:10247300447F0D7E011237691221711237691221CF
:10248300E8123940EF4E701BFA1221E61237697BCE
:1024930001122173123769E4FBFA7D117F1C7E015F
:1024A300123769122593AF15AE14AD13AC12123364
:1024B300557DDD12258812217C1237691221467859
:1024C3004712215C123849C2001229FCE52160063B
:1024D300123036AF2122903FF412213E903FF6E4B2
:1024E30093FD1239408E248F25903FF712213E121F
:1024F30022351239408E268F27903FEB12213E90D2
:102503003FEDE493FD1239408E288F2912303612A5
:102513002593903FF412213E903FF6E493FDAB25C3
:10252300AA24123769903FF712213E122235AB27B6
:10253300AA26123769903FEB12213E903FEDE493B8
:10254300FDAB29AA281237691221C0123769E52386
:1025530030E007E4FBFA7D668005E4FBFA7D777FD4
:10256300C07E051237697D20122588E4FBFA7D8839
:102573007F0C7E041237697F0022E4FBFA7F0C7E16
:102583000112376922E4FBFA7F0C7E0412376922B9
:10259300AD23AC227F207E00123B14223E9248DA08
:1025A3003ECCCCCD3F2AAAAB400000003F800000C8
:1025B3003F9837F03FB504F33FD744FC3E317217E1
:1025C3003EB172173F0515913EDE5BD9D201800201
:1025D300C201EDD2E7F8CD33EC3304700BBD8005B7
:1025E30092D502041102040740FBD31460F2F5F004
:1025F3007C3FEE7A00C39496C8948B40230AC89418
:1026030069C8941A401A0AC89468C8941F40110AEA
:10261300C8945AC89425400805F07A00CDC2E7CD86
:10262300C0F08C4C8D4D8E4E8F4FEA2323C0E02497
:10263300AFF582E43425F58312070812004DECC090
:10264300E0EDC0E0EEC0E0EFC0E01206F8A84CA950
:102653004DAA4EAB4F120049D0E0FBD0E0FAD0E0D8
:10266300F9D0E0B2E7F81202478C4C8D4D8E4E8FB5
:102673004F90259F7403120447A84CA94DAA4EAB53
:102683004F12013ED0E0600F24BBF582E43425F500
:102693008312070812004D8C4C8D4D8E4E8F4FD0F8
:1026A300E0C3947FFDE49400FC1203627B187A720A
:1026B3007931783F12013EA84CA94DAA4EAB4F1277
:1026C300004D30010B7BD97A5B79DE783E12013EF7
:1026D300228F458E448D438C42E4FFFE7D807C3FF8
:1026E300AB45AA44A943A8421202E47009AF45AE20
:1026F30044AD43AC4222AF45AE44AD43AC421204B9
:102703001CFBAF49AE48AD47AC4612041CFFBF01EA
:1027130008E4FFFE7D807C3F22EF64046022EB64CB
:1027230004601DBB0127E4FFFEFDFCAB49AA48A9D9
:1027330047A8461202E460084006E4FFFEFDFC22BF
:1027430074FFF549F548F547F5460227E2E4F54AF3
:10275300F54BFFFEFDFCAB45AA44A943A842120278
:10276300E4504BAF49AE48AD47AC4612039B8E4A8B
:102773008F4BAC4AAD4BEC120362C8ECC8C9EDC930
:10278300CAEECACBEFCBAF49AE48AD47AC46120059
:1027930049E4FBFAF9F81202E470A5AF45AE44AD83
:1027A30043AC421204368F458E448D438C42AF4571
:1027B300AE44AD43AC421225D3AB49AA48A947A8BE
:1027C3004612013E1235728F498E488D478C46E57D
:1027D3004B30E00B1204368F498E488D478C46AF41
:1027E30049AE48AD47AC46221221751239408F3BA2
:1027F30012223CFF7E01123769E4FBFA7D887F08D1
:102803007E0212376912217C123769122280123735
:10281300691221C0123769903FEE12213E12224302
:10282300E4FBFA123769903FF112213E12224AE487
:10283300FBFA123769752BA07534A0E53BB4011779
:10284300752905752AC37532057533C47D4412286D
:10285300F5E4FBFAFD8016752905752AC575320561
:102863007533C67D551228F5E4FBFA7D117FC07ED2
:1028730005123769E4F52CF52DF535F536F53CE50C
:102883003C25E0243FF582E4343C12213CC3E52D92
:102893009FF52FE52C9EF52EE52D2FF531E52C3EEA
:1028A300F530C3E5369FF538E5359EF537E5362F28
:1028B300F53AE5353EF5397B007A007929122F6226
:1028C3007B007A007932122F62053CE53CC3940306
:1028D30040AD903FEE12213E1222437BFF7A071256
:1028E3003769903FF112213E12224A7BFF7A070299
:1028F3003769E4FBFA7FC07E05123769221221751E
:102903001239408F21122E891222CC8F22E5227098
:10291300361231D81233FB1231D81221467B007A9A
:10292300BA795B78491221621238491227EBC20146
:102933007545007544BA75435B754249E4F5461223
:102943003849D2001229FCE5226006123036AF2244
:1029530022903FEE12213E1222431239408E238FE2
:1029630024903FF112213E12224A1239408E258FC4
:1029730026903FE812213E903FEAE493FD1239404E
:102983008E278F28123036E521FB12217312376907
:10299300903FEE12213E122243AB24AA2312376941
:1029A300903FF112213E12224AAB26AA2512376923
:1029B300903FE812213E903FEAE493FDAB28AA271B
:1029C3001237691221C0123769E521B40107E4FB0C
:1029D300FA7D448005E4FBFA7D557FC07E051237FE
:1029E30069122280123769E4FBFA7D107F087E02A8
:1029F300123769123A087F0022783C7C007D007B05
:102A0300FF30001C7A3F79EE1221A07A3F79F11250
:102A13002198782A7C007D007BFF7A3F79E8801A31
:102A23007A3F79F41221A07A3F79F7122198782A14
:102A33007C007D007BFF7A3F79EB1221A07531008A
:102A4300753280752FFF7530807F2A122CC67DBFAB
:102A5300122AEB7DFF122AE31200038E428F437D7D
:102A6300FF122AEB7DBFAF40AE3F123B14120003AF
:102A73008E448F45C3E5439545E542954478337CC1
:102A8300007D007B0050067A00793C80047A00794F
:102A93003F1221A07DFF7C07122AE3753A07753B9D
:102AA300FF7538057539FF7F33122CC6E52E2410C8
:102AB300F532E4352DF531E52E24F0F530E52D34EE
:102AC300FFF52F7F2A122CC6AD37AC36AF34AE33A9
:102AD300123B14AB2EAA2DAD2CAF2BAE2A023769B5
:102AE300AF40AE3F123B14227C07AF3DAE3C123BDE
:102AF30014228F458E448D438C42754EFFE54E253F
:102B0300E0FDE433FCE4120362AB45AA44A943A805
:102B13004212013E8F498E488D478C467F287E6B3B
:102B23007DEE7C4E122E63400F7F7D7EDA7D2C7C02
:102B33004F122E6360084006D54EC27F0322E54E36
:102B430024FFFBE434FFFA7DA37F89122BC78F4D4B
:102B53008E4C8D4B8C4A7CBFAB4DAA4CA94BA84ADB
:102B6300122DEA7F88122BC712039BE412035D1216
:102B73002DB5AF4DAE4CAD4BAC4A1200498F518EC3
:102B8300508D4F8C4EE4FFFE7D807C49AB51AA50A3
:102B9300A94FA84E122E838F558E548D538C52E419
:102BA300AB07AA067DF07F87FE123769AF55AE5497
:102BB300AD53AC52122E6E7F887E00123769E4FF4C
:102BC300121701227E00123769AB19AA18A917A898
:102BD30016AF49AE48AD47AC46120247227F207E6E
:102BE3000012397A8E318F327A003000047B0280F2
:102BF300027B017D107F207E001237697DD07F1E0E
:102C03007E011239408E338F347F1D7E0112397A53
:102C1300E4FCFDC004C005C006C007FEE534122E67
:102C23007AD003D002D001D0001206B78F388E3786
:102C33008D368C357DAA7F1C7E01123940EF04F559
:102C4300397D867F1F7E01123940EF04F53AAD329C
:102C5300AC317F207E00123B14AF3A122DAA122E04
:102C630058C004C005C006C007AC39E4120367D0DE
:102C730003D002D001D00012013EC004C005C0063B
:102C8300C007AF38AE37AD36AC35122E231202472C
:102C9300C004C005C006C007E533C4F854F0C868D3
:102CA300FEE534C4540F482404122E1BD003D00273
:102CB300D001D00012004DD003D002D001D00012B9
:102CC300013E228F4674FFF547F548A807E824051F
:102CD300F8E6F54B08E6F54CA807E82407F8E6F50F
:102CE3004D08E6F54EA807E6F55108E6F552A807A4
:102CF300E82402F8E6F553FD122D9B8E498F4AC353
:102D0300E54E954CFFE54D954B122275405E7C00D8
:102D13007D021205F18E4F8F5012220A500BAD53D4
:102D2300122D9B8E498F4A8014AB4CAA4BAD53AFE7
:102D330052AE511237691200038E478F48D3E550C4
:102D43009400E54F64809480402212220A500FC3FE
:102D5300E54E9550F54EE54D954FF54D80A1E55067
:102D6300254CF54CE54F354BF54B809312220A5019
:102D730006AE4BAF4C8004AE4DAF4EE5462403F890
:102D8300A60608A607E5462403F8E6FA08E6FBAD1F
:102D930053AF52AE51023769AB4EAA4DAF52AE514B
:102DA30012376912000322123B89AC06AD07E41205
:102DB3000362A804A905AA06AB0722E56325E0255B
:102DC300E0245AF822E56325E025E0245CF8227C20
:102DD3004FAB4BAA4AA949A8480202E4AF50AE4FF1
:102DE300AD4EAC4D020247E4FFFE7D8012004D1252
:102DF300039BAB07AA067DD422C3EF9DEC6480F846
:102E0300EE64809822E925E02477F582E4343FF5E7
:102E130083C3740193222401FDE43EFCE4020362B4
:102E2300E412035DE4FBFA7980784922E925E02482
:102E330075F582E4343FF583E4932233FE74002F67
:102E4300F58274003EF58322E6FC08E6FD74017EFC
:102E530000A8640822AF19AE18AD17AC16020247DA
:102E6300AB49AA48A947A8460202E478101206D241
:102E7300AB07AA067D3022540FFFE478100206E563
:102E830012013E02039BE4F537F5387F20FE123929
:102E93007A8E3B8F3CE4F9E9C39424502A122E2FF7
:102EA300F539740193F53A122E08953AE49395395E
:102EB3004011122F2A70020537053AE53A70E805EA
:102EC3003980E4090980D07DFD122F52122F2A7018
:102ED300020537053AE53A70020539D39423E539FB
:102EE300940140E87DFE122F52AF3AAE3912397A7F
:102EF300AC06AD07E53825E0FFE537122E3EECF0D2
:102F0300A3EDF00538E53870020537053AE53A7068
:102F1300020539D39423E539940140CDAD3CAC3B54
:102F23007F207E00023B14AF3AAE3912397AAC06E9
:102F3300AD07E53825E0FFE53733FE74002FF58252
:102F430074003EF583ECF0A3EDF00538E538227C00
:102F5300FF7F207E00123B14753901753A1C228BCA
:102F63003D8A3E893F74FFF540F541900005120606
:102F730052F54585F044900007120652F54785F057
:102F8300461230258E428F43C3E5479545FFE546FC
:102F93009544122275405B7C007D021205F18E4838
:102FA3008F49122214AB3DAA3EA93F500912302586
:102FB3008E428F438014120627FFAEF0AD45AC441A
:102FC3001236EB1200038E408F41E54945486022DB
:102FD300122214500FC3E5479549F547E546954836
:102FE300F54680A4E5492545F545E5483544F544CE
:102FF30080961222145006AE44AF458004AE46AF0D
:1030030047AB3DAA3EA93F900003EE8FF012068A1C
:10301300120627FFAEF0900003120652FDACF00239
:1030230036EB120627FFAEF0AD47AC461236EB1275
:10303300000322E4F537F5387F20FE12397A8E3B00
:103043008F3CE4F9E9C39424502A122E2FF53974E6
:103053000193F53A122E08953AE4939539401112EB
:1030630030D370020537053AE53A70E8053980E454
:10307300090980D07DFD1230F71230D37002053775
:10308300053AE53A70020539D39423E539940140B2
:10309300E87DFE1230F7E53825E0FFE537122E3ED6
:1030A300E0FCA3E0FDAF3AAE39123B140538E53836
:1030B30070020537053AE53A70020539D39423E5E2
:1030C30039940140D1AD3CAC3B7F207E00023B14E0
:1030D300E53825E0FFE53733FE74002FF5827400F1
:1030E3003EF583E0FCA3E0FDAF3AAE39123B140595
:1030F30038E538227CFF7F207E00123B14753901AE
:10310300753A1C228E378F388D398A3A8B3B1231B0
:10311300CD50028001C39200121AC01239408E3E74
:103123008F3FE539C4540FFFE539540FFEC3EF9EBB
:1031330004FF123B89EF24FFF541EE34FFF54075A0
:103143004200754301E54325E0F543E54233F5428B
:10315300300005121AAE8003121ADDAB41AA40E417
:10316300FDFCAF3FAE3E123A558E3E8F3F121ABC66
:103173001237691231CD7F0050027F01A200E43380
:10318300B50713C3E543953DE542953C40B77F80C2
:103193003000027F8122D3E5439401E5429400404D
:1031A30026E54213F542E54313F543120003C3EF4B
:1031B300953BEE953A4005121ADD8003121AAE12C2
:1031C3001ABC12376980CF7F0022120003C3EF9528
:1031D3003BEE953A22752A05752BC71221751239D4
:1031E300408F2CE4FBFAFDFF7E011237691221CBDD
:1031F3001237691221C0123769E52CB401117D66BB
:103203001232837D221232837D30123299801A7DED
:103213007712328E7D3312328E7DC0123299740250
:10322300252BF52BE4352AF52A7FC17E0512397A41
:10323300EE54F070F4903FF712213E122235E4FB76
:10324300FA123769C200AF2BAE2A121B7E903FF7EA
:1032530012213E1222357BFF7A07123769E52B24B0
:1032630001FFE4352AFEC200121B7EE4FBFA7D2235
:103273007F0C7E0412376912223CFF7E01023769FC
:10328300E4FBFA7FC07E0512376922E4FBFA7FC0B4
:103293007E05123769227CFF7FC27E05123B142212
:1032A3001234A07B007AC8792F784C120247E4FBD2
:1032B300FAF9783F12004D12039B8F32E532C39423
:1032C300025003753202E532D3940D400375320D7B
:1032D300AC32E41203677B007AC8792F784C120171
:1032E3003E122AF58F31E53225E025E0F5337DBB2B
:1032F3007F867E00123940EF64014E70127DCB7FD2
:1033030089FE123940123B89E5338FF084F533ACE3
:1033130033E41203671225D3C004C005C006C007F7
:103323007F007E007D007C401225D312222CD00723
:10333300D006D005D00412024712039B123B89EF3B
:1033430014F533FB7A007D707F077E04123769AF73
:1033530031228F2D8E2C8D2B8C2A752E02122296C4
:103363001239408F2F7DFA7F087E011239408F304A
:103373007B017A007DDD7F0C7E0412376912217C8C
:10338300123769C201AF2DAE2CAD2BAC2A122150DE
:1033930012215A123849801B122269401BE52E253F
:1033A3002FF52FD3940F5010E52FFB7A001222969E
:1033B30012376912000380E0C3EE941050120530F7
:1033C3000530E530943950081233EC12000380E8DD
:1033D30012226940110530E530D3943E5008123370
:1033E300EC12000380EA7F0022E530FB7A007DFACD
:1033F3007F087E0112376922752950752A007D22C4
:1034030012217E12376912217C123769122146E498
:10341300FBFAF9784012013E7B007ABA795B78496E
:103423001221621238491200038E2D8F2E7D407FA8
:10343300197E011239408F2B1222961239408F2C9C
:1034430012229D5014E52CC3940F500D052CE52C2E
:103453007D527F1312349080E7E52BC39412501FE3
:10346300E52C640F701912229D5014E52BC394129E
:10347300500D052BE52B7D407F1912349080DA7DAA
:10348300771221CD1237691221CB023769FB7A00FB
:103493007E011237691200038E2D8F2E227DA37FAA
:1034A300897E00123940EF122E19C004C005C006F0
:1034B300C007E4FBFAF97840122E58D003D002D0AB
:1034C30001D0001202478F588E578D568C557DD0F0
:1034D3007F887E001239408E598F5A7DF07F877E18
:1034E30000123940E4FCFDC004C005C006C007FE5D
:1034F300E55A122E7AD003D002D001D0001206B7BB
:10350300122E23120247C004C005C006C007E559A6
:10351300C4F854F0C868FEE55AC4540F48122E1973
:10352300D003D002D001D00012004DAB58AA57A946
:1035330056A85512013E2233DA929E35B1601137F7
:103543007FE5FE392184893AAEC3FF3C1D955B3D7F
:103553006358473E75FDF03F3172183F800000C24B
:10356300D5020411020407BD80FA50F302040EEDE4
:1035730033EC330460F17B3B7AAA79B8783F1201CC
:103583003EED33EC3392D5247B5011A2D570DB5042
:103593000BED448024045004A2D580CEEFFBEEFA59
:1035A300EDF9ECF812039BEFF582F404FC120367C8
:1035B30012004DC08290353A7409120456ED33CC93
:1035C30033D0F092D525F0A2D57001C313CC13FDEF
:1035D30022787FE4F6D8FD75816C02361B023660D3
:1035E300E493A3F8E493A34003F68001F208DFF425
:1035F3008029E493A3F85407240CC8C333C4540F9D
:103603004420C8834004F456800146F6DFE4800B6F
:103613000102040810204080903AF7E47E01936091
:10362300BCA3FF543F30E509541FFEE493A360019C
:103633000ECF54C025E060A840B8E493A3FAE49306
:10364300A3F8E493A3C8C582C8CAC583CAF0A3C8B4
:10365300C582C8CAC583CADFE9DEE780BE7581D0EB
:10366300E4F5A27591FFF59075A10775A9FF75A8FB
:1036730080C2A0D2A13004FDE50A120718369F01CB
:1036830036A60236AD0336B10436B80536C706365C
:10369300D60736DD0836E4FF000036E71229008F2F
:1036A3009080411224388F90803AC2008002D20069
:1036B3001238AA802FAF15AE14AD13AC1212073E09
:1036C3008F908020AF15AE14AD13AC121210538F30
:1036D300908011123A7A8F90800A123B488F908023
:1036E30003759003C204808D8E4A8F4B8C4C8D4D95
:1036F300C3E54B94C7E54A940550067E037FFF80DC
:10370300047E007F3F8E4E8F4FE4F550F551C3E5A5
:103713004C64809480501AE54F2401FFE4354EFE3B
:10372300EF4251EE4250E54D254FFFE54C354E80BB
:103733000CE54D254FCFE54C354E1221DFFE123BF4
:10374300A8E54E5EFEE54F5F4251EE4250AD51ACEF
:1037530050AF4BAE4A123B14E5504480FCAD51AF21
:103763004BAE4A023B148A678B68A9058F828E830E
:1037730012397AAD07AC06E9C4540FFFE9540FFBC5
:10378300C3EF9B04FF74FFFEA807088005C333CE75
:1037930033CED8F9F4FFEEF4FEEFA803088005C397
:1037A30033CE33CED8F9F56A8E69E9540FFFE56855
:1037B300AE67A807088005C333CE33CED8F9FFE53B
:1037C300695EFEE56A5FFFE56AF4FBE569F45CFCAC
:1037D300EB5DFDEC4EFCED4FFDAF82AE83023B147F
:1037E3001234A08F508E4F8D4E8C4D7DCB7F897EB2
:1037F30000123940122DAA122DDF8F548E538D5291
:103803008C517DBB7F867E00123940EF4E7017309E
:103813000209AF54AE53AD52AC5122E4FBFA7980A6
:103823007840122DDF2230020AAF50AE4FAD4EACBE
:103833004D8012E4FBFA79807840AF54AE53AD5219
:10384300AC5112024722E54675F002A4FFAEF07CAC
:10385300043001027C027D42EF2DF548EE3CF54732
:10386300A20192021237E3122DB5AF45AE44AD4328
:10387300AC42120247E4FBFA7980784F122E838F11
:103883004C8E4B8D4A8C4978101206D2AD07AC068C
:10389300AF48AE47123B14E5482401FFE43547FE29
:1038A300AC4BAD4C023B14E50CAD0DFCE4120362D2
:1038B300E4FBFA797A7844120247C004C005C006D3
:1038C300C007AC0BE4120367D003D002D001D000D1
:1038D30012004D7B007A247974784912013E8F24BB
:1038E3008E238D228C2130000A8F198E188D178C10
:1038F30016800C852415852314852213852112E453
:10390300F590227907E925E024BBF582E4343FF5FD
:1039130083E493FE740193FFE925E024C9F582E46F
:10392300343FF583E493FC740193FD123B14D9D522
:103933007BFF7AB97DF87F207E01023769A90512E2
:10394300397AAC06AD07E9C4540F04FF74FFFEA82F
:1039530007088005C333CE33CED8F9F4FFEEF45C09
:10396300FEED5FFFE9540FFDEFA805088005CEC308
:1039730013CE13D8F9FF22E4FBFAC2A0C2A1EE547E
:103983007FFE123ABAD2A27D10D2A0123A9BEB2547
:10399300E0FBEA33FA30A303430301C2A0123A9BCC
:1039A300DDE7D2A1D2A2AE02AF0322C0E0C0D07540
:1039B300D000C000C006C0077590FF7F02740A2FB5
:1039C300F8E6FE740B2FF8A606DFF285800B7590E0
:1039D30000D007D006D000D0D0D0E032E4F91221D5
:1039E300A7E9122186FD123B1409B93CF1E9C394FE
:1039F3007850111221A7C3747799122186FD123BC7
:103A0300140980E9227DFF7C7F7F0C7E02123B1428
:103A13007D557F007E02123B2F7D007C807F0C7ED4
:103A230002123B147D667F007E02023B2FC3EF9D93
:103A3300EC6480F8EE6480985005AE04AF0522D3A1
:103A4300EF9BEA6480F8EE6480984005AE02AF0312
:103A53002222C3EF9DEC6480F8EE6480985005AE9B
:103A630004AF0522D3EF9BEA6480F8EE64809840AC
:103A730005AE02AF032222123BB412397A8F828E33
:103A830083AF09AE0812397AAD07AC06AF82AE83B5
:103A9300123B14C2057F0022756B00756C1F300545
:103AA30015D3E56C9400E56B9400400AE56C156C46
:103AB30070EF156B80EB227D10C2A0123A9BEE33A0
:103AC30092A2123A9BEF25E0FFEE33FED2A0123A08
:103AD3009BDDE6C2A022E4F567F568FDFCE56825F9
:103AE300E0F568E56733F5670DBD00010CBC01ED3A
:103AF300BD90EA2204124A98968004164BEA6000AD
:103B0300C104020E002D0208020C0210040BC105B1
:103B130000AB05AA04C2A0C2A1EE4480FE123ABAC9
:103B2300AF03AE02123ABAD2A1D2A2228E548F555B
:103B33008D56E4FBFA1237697B017A00AD56AF5517
:103B4300AE54023769123BB412397A12397AAD078F
:103B5300AC06AF11AE10123B14C2057F0022123A1D
:103B6300D93003067E017F2380047E007F8C7DDCB9
:103B730012394022E4F556F5577FC80557E55770CB
:103B8300020556DFF62274017E00A807088005C3EC
:103B930033CE33CED8F9FF22E4F554F5557E0A121D
:103BA3003B77DEFB22EE30E707C3E49FFFE49EFE94
:103BB300227590FFD205AF0FAE0E227590FF858060
:103BC3000AD20432000800040000FFFAFFF5FFF0F8
:103BD300FFECFFEAFFEAFFECFFF2FFFB0006001435
:103BE3000022002E0038003D003A0030001D000383
:103BF300FFE3FFC1FFA0FF85FF74FF72FF80FFA2F9
:103C0300FFD40014005D00A700E80118012E012372
:103C130000F4009F0029FF9AFEFEFE67FDE5FD8C80
:103C2300FD6EFD9AFE1AFEF30022019D035405303A
:103C3300071608E80A890BDE0CCD0D4903FF008047
:103C430000080084008500AE010101130200020197
:103C53000202020804000001F0000001001C000C35
:103C630007FF07FF0000F8FF0007F0001801003C02
:103C7300000C07FF07FFF10B010C011201150116E0
:103C8300011701180119011A0400040104020403B5
:103C9300040404050406040704080409040A040CC4
:103CA30004400442044388E5403200058180280C27
:103CB300218C31802E02008107FF07FF40000000A6
:103CC3000000000007000000000010012098002001
:103CD300000000000084008500AE010C010D0113FB
:103CE3000115011904000001F00000000040000C60
:103CF30000000000F8FF0007F000001A0040003C3D
:103D0300C00080000100010101020103010401055B
:103D13000106010701080109010A0200020102026A
:103D23000208024004000401040204030407040A15
:103D3300040C044005C005CB02030204020502067D
:103D430002070241040404050406040804090441AB
:103D530005C105C205C305C405C505C605C705C814
:103D630005C905CA05CC3408600131800A120088F0
:103D73000007318C318C042661C1104C008D07FF84
:103D830007FF20700020008107FF07FF40000700A6
:103D930010002098002000FF2020700049AAE600B0
:103DA3004CF7F4904A9896804C1896804C3EBC2071
:103DB3004CF7F4900085010D011301140084008B6E
:103DC3000001010000040010040021000007018825
:103DD300003C001FF83FC1FF008200860087008877
:103DE3000089008A008C0100010101020103010422
:103DF30001050106010701080109010A010C01156A
:103E03000116011701180119011A02000201020229
:103E13000203020402050206020702080209024025
:103E23000400040104020403040404050406040753
:103E330004080409040A040C044080034901040033
:103E4300078000200514067B3409600131800612C7
:103E530000880007318C318C042661C1104C88C561
:103E630000098180280C018C528B2E02008D07FFE4
:103E730007FF0000000000000000000020700000A9
:103E83000020008107FF07FF400000000000000042
:103E9300000000000000100120380020008200858F
:103EA3000100010C010D0084008B80010001000062
:103EB3000000001E040021001FFF00070001000195
:103EC300001EF83FC1FF0086008700880089008A32
:103ED300008C01050106010701080109010A01150A
:103EE3000116011701180119011A02000201020249
:103EF300020302040205020602070208024002410D
:103F03000400040104020403040404050406040772
:103F130004080409040A040C044004414901040090
:103F2300078000200514067B3007318C318C058C0B
:103F330061C1104C000D8180280C618C528C2E02C3
:103F4300008D07FF07FF00000000000000000000D5
:103F5300007000200000008107FF07FF4000000001
:103F630000000000000000000000100120380020C5
:103F730000000021002F008200820084008400855D
:103F830000850086008C009200A700A800A800AD61
:103F930000AE010001040105010A010C0114011521
:103FA300011A0200020C024002610400040F0440E3
:103FB3000461050005A705C005C0011C011D011E04
:103FC300011F012101220123AD4304000780364074
:103FD3003404033F067B808080010ED7010E60020C
:103FE30004F80204700203B00403B00202A0020149
:073FF300A00402A00401A0DC
:00000001FF
