:100000000235D1123B8C7DFF7F007E04123B207FA6
:100010000F7E0412393DEF7802C333CE33CED8F9C8
:10002000F5828E837F0E7E0412393DEF5403FFE587
:0700300083FEE5824FFF2271
:03003B0002397116
:10004300023BAF020407E86480F8E933E833601148
:100053000460F0ED33EC337009E8FCE9FDEAFEEBF4
:10006300FF220460DED3EB9FEA9EE99DE8C2E78CA2
:10007300F0C2F795F0400CE8CCF8E9CDF9EACEFAF6
:10008300EBCFFB1203D285D0F05804700320D5B315
:10009300E80470075002B2D502041192D5EC046053
:1000A300F7E4CCC0E0C398F8603B94186008400DB7
:1000B300D0E0FB0203E9E4FBFAC9FC8028E830E462
:1000C30006E4C9FBE4CAFCE830E305E4C9CACBFC97
:1000D300E854076010F8C3E913F9EA13FAEB13FBCA
:1000E300EC13FCD8F130F52FC3E49CFCEF9BFFEE3F
:1000F3009AFEED99FDD0E0FBEF4E4D4C701222DBE2
:100103000302040EEC2CFCEF33FFEE33FEED33FD64
:10011300ED30E7EB0203E9EF2BFFEE3AFEED39FD9D
:10012300D0E0FB50130BBB0003020411ED13FDEEF3
:1001330013FEEF13FFEC13FC0203E9EC4D6011E82F
:10014300497017ED33EC3304600DE4FCFFFEFD2230
:10015300E933E8330470F80204071203D258046049
:1001630009E4CC24815006285009020411284003D5
:1001730002040EC0E0EB4A7044B98006D0E0FB02F3
:1001830003FDEF4E701CBD8008EBFFEAFEE9FD8026
:10019300EBE98DF0A4FEE5F0020227E9CDF9EAFED2
:1001A300EBFFEF89F0A4FCE5F0CE89F0A42EFFE489
:1001B30035F0CD89F0A42DFEE435F08067EF4E7065
:1001C30005BD80D780C3EF8BF0A4ACF0EE8BF0A419
:1001D3002CFCE435F0F8EF8AF0A42CE5F038FCE4CD
:1001E30033CB8DF0A42CFCE5F03BF8EE8AF0A42C85
:1001F300FCE5F038F8E433CF89F0A42CFCE5F038C3
:10020300CF3400CE89F0A42FFFE5F03EFEE433C9DE
:100213008DF0A42EFEE5F039CD8AF0A42FFFE5F092
:100223003EFEE43DFD33D0E0FB50070BBB000F0265
:100233000411EC2CFCEF33FFEE33FEED33FD020330
:10024300E9020411EC5D046005E85904700302043B
:10025300071203D2580460F6EC4860F2EC7004FD18
:10026300FEFF22C860DB2481C85009C39860025096
:100273000602040E9850CAF582E9294B4A7005AB71
:10028300820203FD75F0007C1A7880C3EF9BEE9A1F
:10029300ED99400DC3EF9BFFEE9AFEED99FDE84209
:1002A300F0DC23ACF0D0E0FFD0E0FED0E0FDAB8289
:1002B30020E7101BEB60BAEC2CFCEF33FFEE33FEB0
:1002C300ED33FD0203E9E803F830E705C0F075F00C
:1002D30000EF2FFFEE33FEED33FD40B830E7C28071
:1002E300AA74F8CC6480CCC86480C8F58204604FDB
:1002F300C3EB9FF5F0EA9E42F0E99D42F0E89C458E
:10030300F0603C501DE5825FFFE582D313CB5BCBEE
:10031300F42B5582FB50280ABA002409B90020089F
:10032300801DE5825BFBE582D313CF5FCFF4C3135C
:100333002F5582FF50090EBE00050DBD00010CC3F1
:10034300EB9FF5F0EA9E42F0E99D42F0E89C45F010
:100353006007CC4820E701B3EC2275F020800E75CE
:10036300F010800575F0087D007E007F003392D584
:1003730030D5031206D2EC334010EF33FFEE33FED9
:10038300ED33FDEC33FCD5F0ED22E5F0247EA2D570
:1003930013CC92E7CDCEFF22EDD2E7CD33EC3392EF
:1003A300D524814006E4FFFEFDFC22FCE4CFCECD44
:1003B300CC24E0501174FF80EDC3CC13CCCD13CD0E
:1003C300CE13CECF13CF0470F030D5DE0206D2E9C0
:1003D300D2E7C933E833F892D5EDD2E7CD33EC3326
:1003E300FC5002B2D522EC30E7100FBF000C0EBE5A
:1003F30000080DBD00040BEB6014A2D5EB13FCED5C
:1004030092E7FD2274FFFCFDFEFF22E480F8A2D5F3
:1004130074FF13FC7D80E480EFED33EC3360100454
:10042300700FED547F7005740292E022740422046D
:1004330022E422ED33EC33600A047003BD8004EC44
:10044300B2E7FC22C0E0EFFBEEFAEDF9ECF81201A3
:100453003ED0E0F5F0EFFBEEFAEDF9ECF81207060B
:10046300A3A3A3A3E8C0E0E9C0E0EAC0E0EBC0E0D7
:10047300C0F012013E120716A3A3A3A312004DD08E
:10048300F0D0E0FBD0E0FAD0E0F9D0E0F8D5F0D43A
:1004930022E709F608DFFA8046E709F208DFFA8067
:1004A3003E88828C83E709F0A3DFFA8032E309F602
:1004B30008DFFA8078E309F208DFFA807088828C1B
:1004C30083E309F0A3DFFA806489828A83E0A3F6D9
:1004D30008DFFA805889828A83E0A3F208DFFA8072
:1004E3004C80D280FA80C680D4806980F2803380C9
:1004F3001080A680EA809A80A880DA80E280CA8091
:100503003389828A83ECFAE493A3C8C582C8CCC535
:1005130083CCF0A3C8C582C8CCC583CCDFE9DEE7B2
:10052300800D89828A83E493A3F608DFF9ECFAA9A4
:10053300F0EDFB2289828A83ECFAE0A3C8C582C866
:10054300CCC583CCF0A3C8C582C8CCC583CCDFEAB5
:10055300DEE880DB89828A83E493A3F208DFF980F3
:10056300CC88F0EF60010E4E60C388F0ED2402B436
:10057300040050B9F582EB2402B4040050AF2323E6
:100583004582239004E473EF8DF0A4A8F0CF8CF0A0
:10059300A428CE8DF0A42EFE22BC000BBE0029EFB2
:1005A3008DF084FFADF022E4CCF875F008EF2FFF57
:1005B300EE33FEEC33FCEE9DEC984005FCEE9DFE25
:1005C3000FD5F0E9E4CEFD22EDF8F5F0EE8420D26C
:1005D3001CFEADF075F008EF2FFFED33FD400798DB
:1005E3005006D5F0F222C398FD0FD5F0EA22C2D50A
:1005F300EC30E709B2D5E4C39DFDE49CFCEE30E7A3
:1006030015B2D5E4C39FFFE49EFE12059CC3E49D8F
:10061300FDE49CFC800312059C30D507C3E49FFFD7
:10062300E49EFE22BB010A89828A83E0F5F0A3E0FF
:1006330022500687F009E71922BBFE07E3F5F0090C
:10064300E3192289828A83E493F5F074019322BB30
:100653000110E58229F582E5833AF583E0F5F0A3FD
:10066300E0225009E92582F886F008E622BBFE0A5B
:10067300E92582F8E2F5F008E222E5832AF583E929
:1006830093F5F0A3E99322F8BB0111E58229F582E2
:10069300E5833AF583E8F0E5F0A3F0225009E92574
:1006A30082C8F608A6F022BBFE09E92582C8F2E556
:1006B300F008F222C3EF9BFFEE9AFEED99FDEC9852
:1006C300FC22EF4BFFEE4AFEED49FDEC48FC22C352
:1006D300E49FFFE49EFEE49DFDE49CFC22E8600FA2
:1006E300ECC313FCED13FDEE13FEEF13FFD8F12261
:1006F300E8600FEFC333FFEE33FEED33FDEC33FC65
:10070300D8F122E493FC740193FD740293FE740305
:1007130093FF22E493F8740193F9740293FA740338
:1007230093FB22D083D082F8E49370127401937008
:100733000DA3A393F8740193F5828883E473740281
:10074300936860EFA3A3A380DFE4F523FBFAF978B2
:10075300401202478F278E268D258C24122DB9AF88
:1007630027AE26AD25AC24120BFF8F23E5236001B2
:10077300227D527F137E011239038F28120003C397
:10078300EE94275014E528C3940E500D0528052830
:100793007D527F13120B8F80E3121B7E1239038F5E
:1007A30028120003C3EE94275014E528C3941E5067
:1007B3000D052805287DFA7F08120B8F80E37FFA49
:1007C3007EED7DEB7CBA121A7E121A9A121A1979EF
:1007D300A078411202478F498E488D478C467F008F
:1007E3007E007D207C411226F0C004C005C006C0F7
:1007F30007120003AC06AD07E41203627B817A049F
:100803007935783F12013ED003D002D001D00012D7
:10081300013E12039B8E218F22121AE2121A7E12BC
:1008230002E4600540030209D9C2007F667E667D4B
:10083300A612199F7FE27EB87D007C4E1200498F7D
:10084300458E448D438C42121D8F8F23E523600117
:1008530022C2017F667E667DA67C3F121A7E12014C
:100863003E8F458E448D438C42E4F5461238467FD5
:10087300407E547D897C4B121A7E1202E450591239
:100883000B79E52364807017120BA5E528D3940137
:10089300400DE52813F528120B1E120B7980ECE5A9
:1008A300236481702D120BA5E528C3941F40030216
:1008B300094074042528F528D3941F4003020940F6
:1008C300120B0F753C08753D007DA07F17120BDCE2
:1008D30080D6E5236067FF22753C01753D007D707E
:1008E3007F16120BDCE5236480701E120BE8E528EB
:1008F300D3940040141528120B0F120003C3EF9575
:1009030022EE952150E8E4F523E523648170281253
:100913000BE8E528C3941F50240528E528941F50AD
:100923001CE528120B1E120003D3EF9522EE95212E
:1009330040E0E4F5238006E5236002FF22120B5416
:10094300600122120BBD7D107F137E011239038FCC
:100953002AE52A64036005E52AB402121219997F75
:10096300887E457DC87C4E121A197920800DE52AB0
:10097300B40113121999121A11797078C1121A0B52
:100983008E288F2980037FFD227BFF7A0FE4FDFCF5
:10099300AF29AE28121991121AFF123766E52AD32E
:1009A30094014007121A6A8F2B8011E52AB40109BA
:1009B300121A6AEF04F52B80037FFC22AF2B7E0013
:1009C3007B0F12198C120B2B121A6A121B4D121960
:1009D3008C120B358009120B54600122120BBD756A
:1009E3003C10753D00AB22AA21121AFF1230378F3B
:1009F30023E523600122121AFF1239038E288F295F
:100A0300121B691239038F2A7D857F147E011239E7
:100A1300038F2B7DDB7F177E011239038E2C8F2DE5
:100A2300121B701239038E2E8F2F7D607F1A7E0169
:100A33001239038F307DD97F1A7E011239038F312A
:100A43007DA87F167E011239038F327D707F167E5B
:100A5300011239038F337D227F157E011239038FF3
:100A6300347D337F157E011239038F357DFD7F1869
:100A73007E011239038F36122F66AB29AA28121A68
:100A8300FF123766E52AFB7A00120B2BE52BFB7A64
:100A930000120B35AB2DAA2C7DDB7F177E0112379D
:100AA30066AB2FAA2E121B70123766E5307D6012DB
:100AB3000B9AE5317DD9120B9AE5327DA8120B3FD3
:100AC300E5337D70120B3FE5347D22120BF4E535DF
:100AD3007D33120BF4E536FB7DFD120B4A7B0C7D57
:100AE30095120B4A7B0C7F18120BD27DEA120BB1C5
:100AF3007D95120BB17B107A007DFB7F167E011270
:100B030037667B107F14120BD27F0022E528FB7A15
:100B1300007DFB7F167E0112376622FB7A007DFB88
:100B23007F167E01123766227DFC7F127E0112370B
:100B330066227D857F147E0112376622FB7A007F51
:100B4300167E01123766227A007F187E01123766FD
:100B530022C200AB27AA26A925A8247FE27EB87D5E
:100B6300007C4E1200498F458E448D438C42121DEA
:100B73008F8F23E52322753C08753D00AB22AA2104
:100B83007DA07F177E011230378F2322E528FB7A61
:100B9300007E0112376622FB7A007F1A7E0112372C
:100BA30066227DFB7F167E011239038F28227B1478
:100BB3007A007F197E0112376622C2018527458597
:100BC3002644852543852442E4F546123846227A95
:100BD300007D407E0112376622AB22AA217E0112DC
:100BE30030378F23227DFB7F167E011239038F2836
:100BF30022FB7A007F157E01123766228F3A8E39E7
:100C03008D388C377F207E0012393D8E3B8F3C7DA3
:100C1300107F137E011239038F3D7D407F197E01C2
:100C23001239038F3E903D901219C11219751202A9
:100C3300E44013121B58903D941219C712197512F0
:100C430002E4600540037FFF22753F051219E2C0ED
:100C530006C0071219E212393DE53F25E024BAF533
:100C630082E4343D121A75121B5FE53F25E024B080
:100C7300F582E4343D121B13D007D006123B05D591
:100C83003FCA753F00754032E54025E0FDE53F333F
:100C9300FC74C42DF582743D3C1219ED74282DF5B6
:100CA30082743E3C121A75FD123B05E540154070F7
:100CB30002153FE540453F70CFE53D7D107F1312A0
:100CC3001058E53EB41F047B168003E53EFB7A0013
:100CD3007D407F197E01123766E4FFFE7DA07C41D3
:100CE3001219751219F78F3F121AD58F3FAC3F12A5
:100CF3001A2E12004D122CDBEF600122121040124B
:100D030039A2C2007545E27544B875430075424E79
:100D1300121D8FEF6001227B027A00121AF812373C
:100D2300661239A2D2007545567544217543037581
:100D3300424E121D8FEF600122AD3CAC3B7F207E03
:100D430000123B051239F9D2017545807544967539
:100D5300431875424BE4F546123846C201E4F545A3
:100D6300F544F543F542F546123846121AE21219D4
:100D7300751202E4600250167B017A00121036E409
:100D8300FBFA121B691237667B0F7A008076E53D0A
:100D930064036005E53DB4021C1219757F887E4526
:100DA3007DC87C4E121A19792078C1121A0B121AB7
:100DB300B18F41801FE53D64017016121975121A37
:100DC30011797078C1121A0B121AB1EF04F5418030
:100DD300037FAA227BFF7A0FE4FDFCAF40AE3F12F4
:100DE3001991121036AF41EF3395E0FE7B0F1219C4
:100DF3008C121B69123766AE3FAF40121AB5121B35
:100E03004D12198C7D857F147E01123766E4F53F00
:100E1300E53EC394155003753F01E53EC3940D5061
:100E230003753F02E53EC394085003753F03E53F56
:100E33007D607F1A121058E53E75F00A84FCE412B7
:100E430003678F498E488D478C467F667E667D2675
:100E53007C3F1226F0E4FBFA79D7784312013E7BFC
:100E6300337AB379DC78C212004D7B9A7A9979A3ED
:100E73007841121A1979807841121A0B8F3FEF3398
:100E830095E0FE7B1F12198C7DD97F1A7E011237E4
:100E9300667F407E547D897C4B1219751202E440B3
:100EA30003020F5F7F15121A481237667D3312193A
:100EB300B5123766E4FBFA12101C1219A97FFC7EE7
:100EC300BE7D00121A1779CE78C2121A0B8E3F8F8D
:100ED300407BFF7A0712198E121B70123766753F1B
:100EE3000512196D12013E7BC07AE17964784B12C9
:100EF30002E460054003753F0412196D121A3A1299
:100F030002E460054003753F0312196D12013E7B35
:100F1300807A967998784A1202E460054003753F17
:100F23000212196D12013E7B007A1B7937784A123F
:100F330002E460054003753F0112196D12013E7B07
:100F4300007AE679AA78491202E460054003E4F5E1
:100F53003FE53FFB7A007DDB7F17807F121AE212A9
:100F630019751202E47D221219B56002505B123723
:100F730066E4FBFA12104E7B017A0012101C121960
:100F8300A97F5E7ED07DB2121A17794878C2121AF1
:100F93000B8E3F8F4012198A7D707F167E011237A8
:100FA3006612196D12013EE4FBFA792078411202B0
:100FB3004712039BEF24FDF53FFF3395E0FE7B08CB
:100FC30012198C7DA87F1680121237667B017A0076
:100FD30012104E7B027A007DFD7F187E0112376668
:100FE300E53C54036402702EFBFA7D117F82FE12EE
:100FF3003766121040121B777F0D7E011237667B16
:10100300017A007DEE7F007E01123766AB3CAA3B7E
:10101300121AF81237667F00227DFD7F187E0112B7
:1010230037667F667E667DA67C3FAB3AAA39A938D0
:10103300A837227DB07F127E01123766227B017AA8
:10104300007D107F207E00123766227D337F157E60
:101053000112376622FB7A007E01123766228F2443
:101063008E238D228C217F207E0012393D8E2B8F83
:101073002C903D98121A20400A903DA4121A206029
:101083000540037F2222121B58AF24AE23AD22ACAE
:10109300211202478F2A8E298D288C27903D9C127E
:1010A3001A20601B4019903DA0121A205011121BE8
:1010B30058903DA01219C78F2A8E298D288C27128C
:1010C3002DB9AF2AAE29AD28AC27121447EF600122
:1010D300227E0412143C7E0212143C1200038E255D
:1010E3008F26121B7E1239038F2DC3E525942750BB
:1010F3001DE52DC3942B5016052DE52DFB7A00120B
:101103001B7E1237661200038E258F2680DC121990
:10111300BE121B42600540030211D7C200752D05A4
:1011230012133B5035C31219CE5012121AA6400D9A
:10113300E5331533700215321213BB80E8C312195D
:10114300CE5013E5334532700D1213AC7D7012147B
:101153000D121B068050C20080511219CD404C1253
:1011630019CD4016E533941F121AAA500D0533E525
:1011730033700205321213F980E51219CD401AE5D6
:1011830033641F453270121213AC7D701213D012E8
:101193001B067E011237668002C2000533E53370F9
:1011A300020532121A507E01123766152D121432BF
:1011B3008F34E534700302129BF4700302129B20F8
:1011C300000302129BC3E52D648094804003021147
:1011D3002302129BC200752D057B027A007D607F7E
:1011E3001A7E0112376612133B503AC31219CE50BE
:1011F30012121AA6400DE53315337002153212137D
:10120300BB80E8C31219CE5018E533453270121271
:1012130013EA7DF812140D8F34EFFB7DF87F0980FC
:1012230052C20080531219CD404E1219CD4016E51B
:1012330033941F121AAA500D0533E5337002053299
:101243001213F980E51219CD401CE533641F4532B2
:1012530070141213EA7DF81213D08F34EFFB121BB4
:10126300851237668002C2000533E533700205320A
:10127300121A507E01123766152D121B851239037F
:101283008F34E5346012F4600F30000CC3E52D6435
:1012930080948040030211E91214328F2D7DC87FA0
:1012A3000A7E011239038E2E8F2F121B85123903EA
:1012B3008E308F31122F66AD2CAC2B7F207E001227
:1012C3003B057D8C7C317F067E01123B057D8C7F47
:1012D300077E01123B05AB2FAA2E7DC87F0A7E0134
:1012E3001237661219BE121B42600250247D44124B
:1012F3001426121A46123766121A90123766121BF8
:10130300777F0B7E01123766E52DFB7A007D7080B7
:101313001DE4FBFA7D447F057E011237661219D75F
:101323001237667D11121426AB31AA307DF87F097E
:101333007E011237667F0022E4FBFA7D417F407E07
:1013430002123766E4FBFA7D417F407E0412376662
:101353001200038E2E8F2FAC2EAD2FE41203627B6F
:10136300817A047935783F12013E12039B8E308FC8
:10137300317B017A007D417F407E021237667B011B
:101383007A007D417F407E041237661200038E256A
:101393008F267DC87F0A7E011239038E328F33C3B5
:1013A300E5269531E525953022D2007B10FA7DC8DC
:1013B3007F0A7E0112376622AB33AA327DC87F0AC9
:1013C3007E011237661200038E258F26227F097E47
:1013D30001123903EF24F6FFEE34FFFE7BFF7A00A0
:1013E300E4FDFC123A4622D2007B10FA7DC87F0A44
:1013F3007E0112376622FBAA327DC87F0A7E011264
:1014030037661200038E258F26227F097E0112394B
:1014130003EF2419FFE43EFE7BFF7A00E4FDFC1298
:101423003A46227B017A007F057E01123766227DD0
:10143300707F097E0112390322E4FBFA7D417F406C
:10144300123766228F398E388D378C36121AF8127E
:1014530039038E3A8F3B753C06121B1F1219EDC0E0
:1014630006C007121B1F1219ED12393DE53C25E09A
:1014730024A4F582E4343E121A75121B5FE53C2561
:10148300E02498F582E4343E121B13D007D00612F1
:101493003B05D53CC4753C2CE53C25E024B0F582E6
:1014A300E4343E1219EDE53C25E02408F582E434EA
:1014B3003F121A75FD123B05D53CDD1219BE121AF7
:1014C300871202E4600540030215747FCD7ECC7D54
:1014D3004C7C3F121A87121A9A121B2B7D44121945
:1014E300D9123766121A46123766121A90123766E5
:1014F300121B777F0B1216A37BCE7A4079E878B85C
:1015030012013EC004C005C006C0071216BF7B957A
:101513007AB77915782512013ED003D002D001D0D5
:101523000012004DC004C005C006C0071216EF7BB1
:10153300757AEC7935783B12013ED003D002D001A5
:10154300D00012004DC004C005C006C0077FB47EA2
:101553004E7DA87C41121B37D003D002D001D000AE
:1015630012004D7B157AA3794112197E7D70021604
:1015730011121A9DAF39AE38AD37AC36121B2B7D25
:1015830044121A921237661219D71237667B017A00
:10159300007D117F051216A37B347A0A795D78B931
:1015A30012013EC004C005C006C0071216BF7B6609
:1015B3007A277994783512013ED003D002D001D036
:1015C3000012004DC004C005C006C0071216EF7B11
:1015D300AC7A0D799C783C12013ED003D002D00145
:1015E300D00012004DC004C005C006C0077F437E73
:1015F300727DB77C3F121B37D003D002D001D000DD
:1016030012004D7BC37AC7793E12197E7DF87F099C
:101613007E01123766E4FFFE7DA07C41121A871219
:1016230019F78F3C121AD58F3CAC3C121A2E1200BC
:101633004D122CDBEF6001227B011216D67B0212C6
:1016430016D6AB3BAA3A121AF81237661239F9D2F8
:1016530001754500754424754374121705D201853D
:1016630039458538448537438536427546011238F6
:1016730046C2017545007544BA75435B121705C22E
:10168300017F007E507DC37CC7121A8712004D8FE5
:10169300458E448D438C427546011238467F0022A5
:1016A3007E01123766E4F549F548754740754640B3
:1016B300AF41AE40AD3FAC3E1226F022E4F549F512
:1016C30048754780754640AF41AE40AD3FAC3E12D2
:1016D30026F0227A007D107F207E001237667B0180
:1016E3007A007D117F1C7E0112376622E4F549F5ED
:1016F30048F547754640AF41AE40AD3FAC3E12267C
:10170300F022754249E4F546123846228F55EFC35D
:101713006001D392023002067E017F2180047E00A5
:101723007F8B8E568F577F813002027FA38F58E4C1
:10173300FBFA7D213002067F1C7E0180037F86FE3B
:10174300123766E4FB121951BF03037F04227BFFA8
:101753007A00121963A2029203123B52EF70037FC5
:101763000422E4F561F562E5622401FFE43561FEDC
:10177300EF7807C333CE33CED8F9FFAD62ED123124
:1017830028A60608A607E562AE617807C333CE3301
:10179300CED8F9FFED12310AA60608A607ED1231DD
:1017A3000AE6FA08E6FB121963756306123108C0EC
:1017B300001231978005C333CE33CED8F9FFEC4EF8
:1017C300FEED4FD000A60608F612310812193B8F22
:1017D30064E564B4031F123108C000123197800519
:1017E300C333CE33CED8F9F4FFEEF45CFEED5FD015
:1017F30000A60608F6E564B40222AF62EF123128B0
:10180300E6FC08E6FDEF12310AE6FE08E6FFD31216
:10181300314A5008123126A60608A6071563C3E508
:1018230063648094805085AF62EF12310AE6FC084E
:10183300E6FDEF123128E6FA08E6FBD39DEC64805F
:10184300F8EA6480985031E562AE617807C333CE1D
:1018530033CED8F9FFD3EB9FEA9E401C1231260802
:10186300E6161870011612193BEF640260B91231C3
:10187300260806E6187001060562E5627002056136
:10188300C39402E5619400500302176AE56024FFE4
:10189300FFE55F34FFFEEFB55A12EEB5590E855DD5
:1018A30061855E62855B63855C64803FC3E55A95B1
:1018B3005CFFE559955BFEC3E55E9560FDE55D95CF
:1018C3005FFCD3ED9FEE6480F8EC6480987F00406A
:1018D300027F018F65EF12310AE6F56108E6F562D2
:1018E300EF123128E6F56308E6F564C3E562956413
:1018F300FFE5619563FE7C007D021205F1EF25642F
:10190300F564EE3563F563AB64121951EF6402605D
:1019130012E5642401FBE43563FAAD58AF57AE56C4
:10192300123766A2029203123B52EF64026006E58D
:10193300552421FF227F0022E6FA08E6FBAD58AFCB
:1019430057AE56123766A2029203123B5222FAADE9
:1019530058AF57AE56123766A2029203123B522279
:10196300AD58AF57AE56123766227F667E667DA6A8
:101973007C3FAB3AAA39A938A8372278C212004D66
:1019830012039B8E3C8F3D7BFF7A00E4FDFC123AF1
:1019930046AA06AB07227FEC7E517D387C3FAB27FE
:1019A300AA26A925A82412013EA804A905AA06ABC4
:1019B30007227B017A007F157E0122903D9CE4FB88
:1019C300FAF97840120706020247D3E5269531E576
:1019D300259530227D227B017A007F057E0122E559
:1019E3003F25E024A6F582E4343DF583E493FE74B9
:1019F3000193FF2212013E7B007AC8792F784C12A3
:101A03000247E4FBFAF9783F12004D02039B7FBBC8
:101A13007EEE7DA07C4F120247E4FBFA22120706FA
:101A2300AB24AA23A922A8210202E4E41203677BC0
:101A3300007AC8792F784C12013E7B807A96791808
:101A4300784B227F05E4FBFA7D227E0122FFAE3232
:101A53007B1F7A00E4FDFC123A468E328F33AB33A0
:101A6300AA327DC87F0A22AE28AF297C007D64029A
:101A7300059CF583E493FC74019322AB27AA26A962
:101A830025A82422AB39AA38A937A836227D11E428
:101A9300FBFA7F057E012212013E7B007A247974D2
:101AA300784922E5339400E53264809480228E3FA6
:101AB3008F407C007D640205F1C3E53F9543F53F0C
:101AC300E53E9542F53E22AB3FAA3EAD39AF38AE77
:101AD30037227E007B0D7A007D027C00023A467F2E
:101AE300607EFE7D4D7C4C22E543253FF53FE5427C
:101AF300353EF53E227D107F207E00227DB07F1291
:101B03007E01228E348F35AB35AA347D707F092256
:101B1300F583E4934EFC7401934FFD22E53C25E0ED
:101B2300248CF582E4343E221202478F418E408D8D
:101B33003F8C3E22AB41AA40A93FA83E02013EABE7
:101B43002AAA29A928A8270202E4C3740F9FFFE445
:101B53009EFE7B0F22E4FBFAF9784022F4FDECF4BD
:101B63005EFEEF5DFF227DFC7F127E01227DA07F62
:101B7300177E01227B017A00E4FD227DFA7F087E35
:101B830001227DF87F097E01228E2D8F2E74FFF5B1
:101B930033F5343000057E03FF80047E007F3F8EE3
:101BA300378F383000067E037FFF80047E007F3F3F
:101BB3008E398F3A121D5D7D007C40121D73AF2E4E
:101BC300AE2D12393D8E358F36121D5D12221D55F5
:101BD30035FEE5365F4E6019E5385236E537523546
:101BE300AE35AF367CFF7DFF12058A8E358F36808A
:101BF30008E5385236E537523585353385363412A4
:101C030000038E2F8F30852F31853032E536240146
:101C1300FFE43535FE12223A123A218E3B8F3CE423
:101C2300F53DF53EC3E53B64809480501512221DBB
:101C3300FEEF423EEE423DE53C2538FFE53B3537BE
:101C4300800AE53C2538CFE53B1221F9121D7B4282
:101C53003EEE423DAD3EAC3D121D73E53DAD3E1241
:101C63001D68120003C3EF9530EE952F50028001DB
:101C7300C39201753B08E4FDFC121D8730010A0580
:101C830036E536700C05358008E5361536700215D5
:101C93003512223AAF36AE35123A218E358F36E4FD
:101CA300F53CF53DC3E53564809480500F12221D49
:101CB300FEEF423DEE423C1222C380031221F21298
:101CC3001D7B423DEE423CAD3DAC3C121D87E53CE5
:101CD300AD3D121D681200038E2F8F30C3E5309582
:101CE30032E52F9531500C852F31853032853533D0
:101CF300853634153BD3E53B648094804003021C56
:101D030079E4F53BF53C853335853436C3E53564F5
:101D1300809480500F12221DFEEF423CEE423B1294
:101D230022C380031221F2FE123B99E5375EFEE5E2
:101D3300385F423CEE423BAD3CAC3BAF2EAE2D1286
:101D43003B05E53B4480FCAD3CAF2EAE2D123B057D
:101D5300E4FDFCAF2EAE2D023B05E4FDFCAF2EAE41
:101D63002D123B05224480FCAF2EAE2D123B0522E3
:101D7300AF2EAE2D123B0522FE123B99E5375EFED8
:101D8300E5385F22AF2EAE2D123B05227F207E0069
:101D930012393D8E468F477A003000047B02800261
:101DA3007B017D107F207E00123766755407AF5488
:101DB300123B7AAC06AD07E4120362AB45AA44A911
:101DC30043A84212013E8F4B8E4A8D498C487F6651
:101DD3007E7F7D62123130400D7F267EE57DE512E8
:101DE300313060054003D554C5E55424FFFBE4348A
:101DF300FFFA7D867F1F7E011237667FAC7EE97D09
:101E0300A31231307F00600440027F018F54EFFB47
:101E13007A007DAA7F1C7E01123766E5542401FDFA
:101E2300E433FCE4120362AB19AA18A917A816122B
:101E3300013E12311DAF4BAE4AAD49AC48120247C9
:101E43008F538E528D518C5012039BE412035D12FB
:101E5300311DAF53AE52AD51AC5012004912317324
:101E63001231CF8F4F8E4E8D4D8C4CE4FFFE7D8013
:101E73007CC0AB53AA52A951A85012004D12039B28
:101E8300AB07AA067DD47F1E7E01123766AF4FAE25
:101E93004EAD4DAC4C1231BA7F1E7E01123766E552
:101EA3004FFFE54EFEAD07AC067F1D7E01123B05DD
:101EB300C20178497C007D007BFF7A3F79CA7E00AE
:101EC3007F03120564E4F548121F6A7F01300002A4
:101ED3007F0212170FEF70167DA37F217E01123947
:101EE30003EF2480FF74492548F8A607D20105486B
:101EF300C3E5486480948340CF754802121F7BC0BA
:101F030006C007AF49EF3395E0FE123B99D005D0E9
:101F1300041231485003E4F548121F7BC006C00782
:101F2300AF4AEF3395E0FE123B99D005D00412314E
:101F3300485003754801121F6A74492548F8E6FFA3
:101F43003395E0FEEF2480FBE43EFA7DA37F217E00
:101F530001123766AD47AC467F207E00123B057FFA
:101F6300002001027F0222E548FB3395E0FA7D2140
:101F73007F217E011237662274492548F8E6FF3334
:101F830095E0FE123B99227F207E0012393D8E2B75
:101F93008F2C752D08122279122158C006C0071202
:101FA300227912215812393DE52D25E024E6F582E8
:101FB300E4343C1221AB1222CDE52D25E024D6F5E5
:101FC30082E4343C12226DD007D006123B05D52D96
:101FD300C4752D31E52DD3941AE52D50171222DE49
:101FE300122158E52D25E02458F582E4343D1221D1
:101FF300ABFD80091222DE122158E4FDFC123B05E1
:10200300D52DD1E52C540364017006FBFA7D2280A3
:1020130005E4FBFA7D117F82FE1237661222D71286
:102023003903EE702CEF14601324FE600F0470214B
:102033007B017A0012212BE4FBFA800AE4FBFA12FB
:10204300212B7B017A007DBB7F037E0112376680E3
:10205300037F012212218D123766122204123903E3
:10206300EF4E702D1221351239A2D200122B11C05E
:1020730004C005C006C007122164122248D007D04D
:1020830006D005D00412004978CB12220BC200807F
:102093002BC200122B118F308E2F8D2E8C2D1221DF
:1020A3008D1237661239A2D200122164AB30AA2FE7
:1020B300A92EA82D12004D784B12220B121D8F8FC3
:1020C3002AE52A60042470FF221221411239F912F1
:1020D30032A08F2AE52A60042430FF221239D0D29D
:1020E3000175454075445475430975424BE4F54603
:1020F300123846122162122176123846E52C540317
:10210300640270211221351222587F0D7E0112378D
:10211300661222A7123766E4FBFA7D117F82FE1254
:1021230037661221417F00227DAA7F037E01123789
:1021330066227B01FA7D107F20FE12376622AD2CCA
:10214300AC2B7F207E00123B0522E52B25E02434B7
:10215300F582E4343CF583E493FE740193FF22C2D9
:1021630001AF15AE14AD13AC12E4FBFA79A07840BD
:1021730002024778C77B007A5079C312004D8F451E
:102183008E448D438C42E4F546227B027A007D1017
:102193007F207E00227D77E4FBFA7F0C7E042225DC
:1021A300E024B8F582E4343BF583E493FC740193B3
:1021B30022783F7C007D007BFF7E007F0302056465
:1021C300E975F0288475F018A4FFE92400FDE434D0
:1021D30005CD2FFFED35F0FE227B017A007DFF7FD9
:1021E300C07E05227D227B017A007F0C7E0422E5DE
:1021F300362538CFE5353537CF2401CF3400227B60
:10220300017D667F1C7E01227B407A54790912008E
:102213004D8F458E448D438C4222E5382401FFE4E3
:10222300353722C3E548954AE547954922C3E54139
:102233009543E540954222C3E4953AFDE49539FC84
:10224300AB3AAA3922A804A905AA06AB0722903FF4
:10225300EAE493FD227B017A00E4FD22903FE1E46E
:1022630093FD22903FE4E493FD22F583E4934EFC37
:102273007401934FFD22E52D25E024C6F582E43455
:102283003C22D3903D8E7401939FE4939E22FEC320
:10229300EF9401EE64809480227B017A007D337F8A
:1022A300087E02227B017A007DEE7F007E01227D83
:1022B300527F137E0122C3E52E952AE52D9529220F
:1022C300E5362538FFE535353722F4FDECF45EFEBF
:1022D300EF5DFF227D877F0D7E012225E024F6F549
:1022E30082E4343C227F207E0012393D8E298F2ADE
:1022F300E52A540364017006FBFA7D448005E4FB80
:10230300FA7D337F82FE123766752B0912214DC089
:1023130006C00712214D12393DE52B25E02458F55F
:1023230082E4343C1221AB1222CDE52B25E0244676
:10233300F582E4343C12226DD007D006123B05D55A
:102343002BCA752B17E52BD394175020E52B25E0CB
:10235300246AF582E4343C122158E52B25E02498C5
:10236300F582E4343C1221ABFD123B05D52BD6128A
:1023730039D01232A0EF6001227B0112218F123774
:10238300661239A2D200122B11C004C005C006C0C8
:1023930007122164122248D007D006D005D00412B8
:1023A30000497B007A24797478C912004D8F2E8EF0
:1023B3002D8D2C8C2BC200122214121D8FEF600462
:1023C3002460FF22E52A30E11BE4FBFA7D117F82C2
:1023D300FE1237661222587F0D7E011237661222D3
:1023E300A712376612218D1237667A001222021263
:1023F3003766AD2AAC297F207E00123B051239F9DE
:10240300D2011221641221811238467DBA7F037EE4
:10241300011239038F2BE52B64016009E52B64025C
:1024230060037F0522E52B2401FBE433FA1222D754
:102433001237667D657F0C1224477D437F0D12247E
:10244300477F0022E52B6403FB7A007E0112376687
:10245300227F207E0012393D8E228F23122DB91246
:102463001F8A8F21E52160030224EB1231D512224A
:10247300D7123903BF020C7D55122599E4FBFA7D6F
:1024830033800A7D66122599E4FBFA7D447F0D7E35
:102493000112376612218D12376612220412390394
:1024A300EF4E701BFA1222021237667B0112218F44
:1024B300123766E4FBFA7D117F1C7E011237661228
:1024C30025AFAF15AE14AD13AC121233527DDD122E
:1024D30025A41221981237661221627847122178B7
:1024E300123846C200122A18E5216006122F66AF81
:1024F3002122903FE512215A903FE7E493FD1239E0
:10250300038E248F25903FE812215A12225112394B
:10251300038E268F27903FDC12215A903FDEE493EF
:10252300FD1239038E288F29122F661225AF903F93
:10253300E512215A903FE7E493FDAB25AA24123715
:1025430066903FE812215A122251AB27AA2612376E
:1025530066903FDC12215A903FDEE493FDAB29AA3B
:10256300281237661221DC123766E52330E007E4D0
:10257300FBFA7D668005E4FBFA7D777FC07E05125A
:1025830037667D201225A4E4FBFA7D887F0C7E0448
:102593001237667F0022E4FBFA7F0C7E0112376656
:1025A30022E4FBFA7F0C7E0412376622AD23AC22B1
:1025B3007F207E00123B05223E9248DA3ECCCCCDF2
:1025C3003F2AAAAB400000003F8000003F9837F04D
:1025D3003FB504F33FD744FC3E3172173EB1721747
:1025E3003F0515913EDE5BD9D2018002C201EDD2D7
:1025F300E7F8CD33EC3304700BBD800592D50204AC
:102603001102040740FBD31460F2F5F07C3FEE7A2D
:1026130000C39496C8948B40230AC89469C8941A3B
:10262300401A0AC89468C8941F40110AC8945AC82B
:102633009425400805F07A00CDC2E7CDC0F08C4C5C
:102643008D4D8E4E8F4FEA2323C0E024CBF582E4D9
:102653003425F58312071612004DECC0E0EDC0E0FF
:10266300EEC0E0EFC0E0120706A84CA94DAA4EAB9E
:102673004F120049D0E0FBD0E0FAD0E0F9D0E0B24D
:10268300E7F81202478C4C8D4D8E4E8F4F9025BB31
:102693007403120447A84CA94DAA4EAB4F12013E36
:1026A300D0E0600F24D7F582E43425F583120716B2
:1026B30012004D8C4C8D4D8E4E8F4FD0E0C3947FC6
:1026C300FDE49400FC1203627B187A727931783F3F
:1026D30012013EA84CA94DAA4EAB4F12004D30013A
:1026E3000B7BD97A5B79DE783E12013E228F458ED1
:1026F300448D438C42E4FFFE7D807C3FAB45AA447E
:10270300A943A8421202E47009AF45AE44AD43ACFD
:102713004222AF45AE44AD43AC4212041CFBAF4969
:10272300AE48AD47AC4612041CFFBF0108E4FFFEF0
:102733007D807C3F22EF64046022EB6404601DBB58
:102743000127E4FFFEFDFCAB49AA48A947A84612AE
:1027530002E460084006E4FFFEFDFC2274FFF54935
:10276300F548F547F5460227FEE4F54AF54BFFFE2B
:10277300FDFCAB45AA44A943A8421202E4504BAF67
:1027830049AE48AD47AC4612039B8E4A8F4BAC4AC9
:10279300AD4BEC120362C8ECC8C9EDC9CAEECACB93
:1027A300EFCBAF49AE48AD47AC46120049E4FBFA64
:1027B300F9F81202E470A5AF45AE44AD43AC421242
:1027C30004368F458E448D438C42AF45AE44AD43B2
:1027D300AC421225EFAB49AA48A947A84612013ECD
:1027E30012356F8F498E488D478C46E54B30E00B91
:1027F3001204368F498E488D478C46AF49AE48AD9B
:1028030047AC46221221911239038F3B122258FF03
:102813007E01123766E4FBFA7D887F087E02123759
:102823006612219812376612229C1237661221DC37
:10283300123766903FDF12215A12225FE4FBFA122D
:102843003766903FE212215A122266E4FBFA1237EE
:1028530066752BA07534A0E53BB401177529057582
:102863002AC37532057533C47D44122911E4FBFA7A
:10287300FD8016752905752AC57532057533C67D24
:1028830055122911E4FBFA7D117FC07E05123766CC
:10289300E4F52CF52DF535F536F53CE53C25E0243E
:1028A30030F582E4343C122158C3E52D9FF52FE522
:1028B3002C9EF52EE52D2FF531E52C3EF530C3E5A5
:1028C300369FF538E5359EF537E5362FF53AE5358C
:1028D3003EF5397B007A007929122E927B007A002B
:1028E3007932122E92053CE53CC3940340AD903FF0
:1028F300DF12215A12225F7BFF7A07123766903F5D
:10290300E212215A1222667BFF7A07023766E4FB42
:10291300FA7FC07E05123766221221911239038F86
:1029230021122DB91222E88F22E52270361231D5F9
:102933001233F81231D51221627B007ABA795B78AF
:102943004912217E123846122807C20175450075C7
:1029530044BA75435B754249E4F546123846D200E2
:10296300122A18E5226006122F66AF2222903FDF5B
:1029730012215A12225F1239038E238F24903FE2D1
:1029830012215A1222661239038E258F26903FD9BF
:1029930012215A903FDBE493FD1239038E278F28CF
:1029A300122F66E521FB12218F123766903FDF124B
:1029B300215A12225FAB24AA23123766903FE212F8
:1029C300215A122266AB26AA25123766903FD912E6
:1029D300215A903FDBE493FDAB28AA2712376612F6
:1029E30021DC123766E521B40107E4FBFA7D44805C
:1029F30005E4FBFA7D557FC07E0512376612229CE3
:102A0300123766E4FBFA7D107F087E0212376612E6
:102A130039F97F0022783C7C007D007BFF30001C6D
:102A23007A3F79DF1221BC7A3F79E21221B4782A06
:102A33007C007D007BFF7A3F79D9801A7A3F79E564
:102A43001221BC7A3F79E81221B4782A7C007D00F8
:102A53007BFF7A3F79DC1221BC75310075328075BA
:102A63002FFF7530807F2A122BF77DBF122B077D36
:102A7300FF122AFF1200038E428F437DFF122B07A2
:102A83007DBFAF40AE3F123B051200038E448F451E
:102A9300C3E5439545E542954478337C007D007B4F
:102AA3000050067A00793C80047A00793F1221BCF9
:102AB3007DFF7C07122AFF753A07753BFF753805C2
:102AC3007539FF7F33122BF7E52E2410F532E435E9
:102AD3002DF531E52E24F0F530E52D34FFF52F7F6C
:102AE3002A122BF7AD37AC36AF34AE33123B05ABFE
:102AF3002EAA2DAD2CAF2BAE2A023766AF40AE3FC8
:102B0300123B05227C07AF3DAE3C123B05227F20E2
:102B13007E0012393D8E318F327A003000047B0201
:102B230080027B017D107F207E001237667DD07F7F
:102B33001E7E011239038E338F347F1D7E011239BD
:102B43003DE4FCFDC004C005C006C007FEE5341229
:102B530031C6D003D002D001D0001206C58F388E03
:102B6300378D368C357DAA7F1C7E01123903EF0425
:102B7300F5397D867F1F7E01123903EF04F53AADE7
:102B830032AC317F207E00123B05AF3A1231121274
:102B930031A4C004C005C006C007AC39E412036702
:102BA300D003D002D001D00012013EC004C005C042
:102BB30006C007AF38AE37AD36AC3512316F1202EF
:102BC30047C004C005C006C007E533C4F854F0C8C5
:102BD30068FEE534C4540F482404123167D003D08F
:102BE30002D001D00012004DD003D002D001D0009A
:102BF30012013E228F4674FFF547F548A807E824E3
:102C030005F8E6F54B08E6F54CA807E82407F8E6CF
:102C1300F54D08E6F54EA807E6F55108E6F552A886
:102C230007E82402F8E6F553FD122CCC8E498F4AAF
:102C3300C3E54E954CFFE54D954B122291405E7CCA
:102C4300007D021205F18E4F8F50122226500BADDC
:102C530053122CCC8E498F4A8014AB4CAA4BAD53E4
:102C6300AF52AE511237661200038E478F48D3E539
:102C7300509400E54F648094804022122226500F26
:102C8300C3E54E9550F54EE54D954FF54D80A1E5C5
:102C930050254CF54CE54F354BF54B8093122226CE
:102CA3005006AE4BAF4C8004AE4DAF4EE546240309
:102CB300F8A60608A607E5462403F8E6FA08E6FBA5
:102CC300AD53AF52AE51023766AB4EAA4DAF52AEC3
:102CD30051123766120003228F458E448D438C4276
:102CE300754BFFE54B25E0FDE433FCE4120362ABD7
:102CF30045AA44A943A84212013E8F498E488D47F5
:102D03008C467F287E6B7DEE7C4E1231AF400F7F69
:102D13007D7EDA7D2C7C4F1231AF60084006D54BA7
:102D2300C27F0322E54B7DA37F89122D968F4AEF45
:102D33007DD47F88122D96AB07AA06A905A804AFF8
:102D43004AE4FCFDFE1206B7E412035D8F4E8E4D7E
:102D53008D4C8C4BE4FFFE7D807C49AB4EAA4DA984
:102D63004CA84B1231CF8F528E518D508C4FE4AB08
:102D730007AA067DF07F87FE123766AF52AE51ADCC
:102D830050AC4F1231BA7F887E00123766E4FF12CF
:102D9300170F2224FFFBE434FFFA7E00123766ABE1
:102DA30019AA18A917A816AF49AE48AD47AC4612E1
:102DB300024712039B22E4F537F5387F20FE1239D0
:102DC3003D8E3B8F3CE4F9E9C39424502A12317BB6
:102DD300F539740193F53A123154953AE4939539E0
:102DE3004011122E5A70020537053AE53A70E8058C
:102DF3003980E4090980D07DFD122E82122E5A708B
:102E0300020537053AE53A70020539D39423E539CB
:102E1300940140E87DFE122E82AF3AAE3912393D5D
:102E2300AC06AD07E53825E0FFE53712318AECF053
:102E3300A3EDF00538E53870020537053AE53A7039
:102E4300020539D39423E539940140CDAD3CAC3B25
:102E53007F207E00023B05AF3AAE3912393DAC0606
:102E6300AD07E53825E0FFE53733FE74002FF58223
:102E730074003EF583ECF0A3EDF00538E538227CD1
:102E8300FF7F207E00123B05753901753A1C228BAA
:102E93003D8A3E893F74FFF540F5419000051206D7
:102EA30052F54585F044900007120652F54785F028
:102EB30046122F558E428F43C3E5479545FFE5469E
:102EC3009544122291405B7C007D021205F18E48ED
:102ED3008F49122230AB3DAA3EA93F5009122F550C
:102EE3008E428F438014120627FFAEF0AD45AC44EB
:102EF3001236E81200038E408F41E54945486022AF
:102F0300122230500FC3E5479549F547E5469548EA
:102F1300F54680A4E5492545F545E5483544F5449E
:102F230080961222305006AE44AF458004AE46AFC1
:102F330047AB3DAA3EA93F900003EE8FF012068AED
:102F4300120627FFAEF0900003120652FDACF0020A
:102F530036E8120627FFAEF0AD47AC461236E8124C
:102F6300000322E4F537F5387F20FE12393D8E3B0E
:102F73008F3CE4F9E9C39424502A12317BF5397468
:102F83000193F53A123154953AE49395394011126D
:102F9300300370020537053AE53A70E8053980E4F5
:102FA300090980D07DFD12302712300370020537E6
:102FB300053AE53A70020539D39423E53994014083
:102FC300E87DFE123027E53825E0FFE53712318A28
:102FD300E0FCA3E0FDAF3AAE39123B050538E53816
:102FE30070020537053AE53A70020539D39423E5B3
:102FF30039940140D1AD3CAC3B7F207E00023B05C0
:10300300E53825E0FFE53733FE74002FF5827400C1
:103013003EF583E0FCA3E0FDAF3AAE39123B050574
:1030230038E538227CFF7F207E00123B057539018D
:10303300753A1C228E378F388D398A3A8B3B123082
:10304300FD50028001C39200121ACE1239038E3E44
:103053008F3FE539C4540FFFE539540FFEC3EF9E8C
:1030630004FF123B7AEF24FFF541EE34FFF5407580
:103073004200754301E54325E0F543E54233F5425C
:10308300300005121ABC8003121AEBAB41AA40E4CC
:10309300FDFCAF3FAE3E123A468E3E8F3F121ACA38
:1030A3001237661230FD7F0050027F01A200E43325
:1030B300B50713C3E543953DE542953C40B77F8093
:1030C3003000027F8122D3E5439401E5429400401E
:1030D30026E54213F542E54313F543120003C3EF1C
:1030E300953BEE953A4005121AEB8003121ABC1277
:1030F3001ACA12376680CF7F0022120003C3EF95EE
:103103003BEE953A22E56225E025E02459F82212A8
:103113003B7AAC06AD07E4120362A804A905AA062C
:10312300AB0722E56225E025E0245BF8227C4FAB68
:103133004BAA4AA949A8480202E4AF50AE4FAD4E8C
:10314300AC4D020247C3EF9DEC6480F8EE648098B7
:1031530022E925E02464F582E4343FF583C3740156
:1031630093222401FDE43EFCE4020362E412035DC6
:10317300E4FBFA7980784922E925E02462F582E4C8
:10318300343FF583E4932233FE74002FF5827400F9
:103193003EF58322E6FC08E6FD74017E00A8630881
:1031A30022AF19AE18AD17AC16020247AB49AA48B5
:1031B300A947A8460202E478101206E0AB07AA0664
:1031C3007D3022540FFFE478100206F312013E0211
:1031D300039B752A05752BC71221911239038F2C76
:1031E300E4FBFAFDFF7E011237661221E712376610
:1031F3001221DC123766E52CB401117D6612328090
:103203007D221232807D30123296801A7D771232FF
:103213008B7D3312328B7DC01232967402252BF5CF
:103223002BE4352AF52A7FC17E0512393DEE54F091
:1032330070F4903FE812215A122251E4FBFA12373C
:1032430066C200AF2BAE2A121B8C903FE812215AA4
:103253001222517BFF7A07123766E52B2401FFE424
:10326300352AFEC200121B8CE4FBFA7D227F0C7E02
:1032730004123766122258FF7E01023766E4FBFA16
:103283007FC07E0512376622E4FBFA7FC07E0512FB
:103293003766227CFF7FC27E05123B052212349DD6
:1032A3007B007AC8792F784C120247E4FBFAF9784D
:1032B3003F12004D12039B8F32E532C39402500339
:1032C300753202E532D3940D400375320DAC32E40E
:1032D3001203677B007AC8792F784C12013E122CB7
:1032E300DB8F31E53225E025E0F5337DBB7F867E3C
:1032F30000123903EF64014E70127DCB7F89FE12F9
:103303003903123B7AE5338FF084F533AC33E4129F
:1033130003671225EFC004C005C006C0077F007E07
:10332300007D007C401225EF122248D007D006D042
:1033330005D00412024712039B123B7AEF14F533B4
:10334300FB7A007D707F077E04123766AF31228FD0
:103353002D8E2C8D2B8C2A752E021222B21239033C
:103363008F2F7DFA7F087E011239038F307B017A1C
:10337300007DDD7F0C7E04123766122198123766BA
:10338300C201AF2DAE2CAD2BAC2A12216C122176CB
:10339300123846801B122285401BE52E252FF52F60
:1033A300D3940F5010E52FFB7A001222B212376626
:1033B30012000380E0C3EE9410501205300530E58F
:1033C30030943950081233E912000380E812228541
:1033D30040110530E530D3943E50081233E9120012
:1033E3000380EA7F0022E530FB7A007DFA7F087EC6
:1033F3000112376622752950752A007D2212219AFF
:10340300123766122198123766122162E4FBFAF929
:10341300784012013E7B007ABA795B784912217EAB
:103423001238461200038E2D8F2E7D407F197E01A8
:103433001239038F2B1222B21239038F2C1222B9A5
:103443005014E52CC3940F500D052CE52C7D527FB1
:103453001312348D80E7E52BC39412501FE52C64BF
:103463000F70191222B95014E52BC39412500D0595
:103473002BE52B7D407F1912348D80DA7D77122165
:10348300E91237661221E7023766FB7A007E0112E2
:1034930037661200038E2D8F2E227DA37F897E0037
:1034A300123903EF123165C004C005C006C007E43A
:1034B300FBFAF978401231A4D003D002D001D00036
:1034C3001202478F588E578D568C557DD07F887E3C
:1034D300001239038E598F5A7DF07F877E0012398F
:1034E30003E4FCFDC004C005C006C007FEE55A1294
:1034F30031C6D003D002D001D0001206C512316FFD
:10350300120247C004C005C006C007E559C4F854F9
:10351300F0C868FEE55AC4540F48123165D003D091
:1035230002D001D00012004DAB58AA57A956A85596
:1035330012013E2233DA929E35B16011377FE5FEE8
:10354300392184893AAEC3FF3C1D955B3D635847DF
:103553003E75FDF03F3172183F800000C2D5020472
:1035630011020407BD80FA50F302040EED33EC336D
:103573000460F17B3B7AAA79B8783F12013EED33C0
:10358300EC3392D5247B5011A2D570DB500BED4464
:103593008024045004A2D580CEEFFBEEFAEDF9ECC3
:1035A300F812039BEFF582F404FC12036712004D3B
:1035B300C0829035377409120456ED33CC33D0F002
:1035C30092D525F0A2D57001C313CC13FD22787FC9
:1035D300E4F6D8FD75816B02361802365DE493A3D9
:1035E300F8E493A34003F68001F208DFF48029E4B2
:1035F30093A3F85407240CC8C333C4540F4420C8FE
:10360300834004F456800146F6DFE4800B01020494
:103613000810204080903AE8E47E019360BCA3FF49
:10362300543F30E509541FFEE493A360010ECF54C9
:10363300C025E060A840B8E493A3FAE493A3F8E4B8
:1036430093A3C8C582C8CAC583CAF0A3C8C582C824
:10365300CAC583CADFE9DEE780BE7581D0E4F5A27F
:103663007591FFF59075A10775A9FF75A880C2A094
:10367300D2A13004FDE50A120726369C0136A302C7
:1036830036AA0336AE0436B50536C40636D3073636
:10369300DA0836E1FF000036E412291C8F908041DE
:1036A3001224548F90803AC2008002D2001238A7AD
:1036B300802FAF15AE14AD13AC1212074C8F908050
:1036C30020AF15AE14AD13AC121210618F908011A0
:1036D300123A6B8F90800A123B398F90800375905A
:1036E30003C204808D8E4A8F4B8C4C8D4DC3E54BAA
:1036F30094C7E54A940550067E037FFF80047E004D
:103703007F3F8E4E8F4FE4F550F551C3E54C6480F7
:103713009480501AE54F2401FFE4354EFEEF4251E9
:10372300EE4250E54D254FFFE54C354E800CE54DFF
:10373300254FCFE54C354E1221FBFE123B99E54E4A
:103743005EFEE54F5F4251EE4250AD51AC50AF4B80
:10375300AE4A123B05E5504480FCAD51AF4BAE4A37
:10376300023B058A668B67A9058F828E8312393DDA
:10377300AD07AC06E9C4540FFFE9540FFBC3EF9B3D
:1037830004FF74FFFEA807088005C333CE33CED8E9
:10379300F9F4FFEEF4FEEFA803088005C333CE333C
:1037A300CED8F9F5698E68E9540FFFE567AE66A8D0
:1037B30007088005C333CE33CED8F9FFE5685EFE34
:1037C300E5695FFFE569F4FBE568F45CFCEB5DFD2F
:1037D300EC4EFCED4FFDAF82AE83023B0512349DF0
:1037E3008F508E4F8D4E8C4D7DCB7F897E0012394D
:1037F3000312311212313D8F548E538D528C517DF1
:10380300BB7F867E00123903EF4E7017300209AF7B
:1038130054AE53AD52AC5122E4FBFA798078401296
:10382300313D2230020AAF50AE4FAD4EAC4D801247
:10383300E4FBFA79807840AF54AE53AD52AC5112E9
:10384300024722E54675F002A4FFAEF07C04300186
:10385300027C027D42EF2DF548EE3CF547A2019232
:10386300021237E012311DAF45AE44AD43AC4212F4
:103873000247E4FBFA7980784F1231CF8F4C8E4B9D
:103883008D4A8C4978101206E0AD07AC06AF48AEFE
:1038930047123B05E5482401FFE43547FEAC4BAD39
:1038A3004C023B05E50CAD0DFCE4120362E4FBFAAC
:1038B300797A7844120247C004C005C006C007AC39
:1038C3000BE4120367D003D002D001D00012004DE5
:1038D3007B007A247974784912013E8F248E238DDC
:1038E300228C2130000A8F198E188D178C16800CAC
:1038F300852415852314852213852112E4F590224E
:10390300A90512393DAC06AD07E9C4540F04FF7491
:10391300FFFEA807088005C333CE33CED8F9F4FFE2
:10392300EEF45CFEED5FFFE9540FFDEFA8050880A0
:1039330005CEC313CE13D8F9FF22E4FBFAC2A0C20B
:10394300A1EE547FFE123AABD2A27D10D2A0123A5E
:103953008CEB25E0FBEA33FA30A303430301C2A057
:10396300123A8CDDE7D2A1D2A2AE02AF0322C0E0AD
:10397300C0D075D000C000C006C0077590FF7F029D
:10398300740A2FF8E6FE740B2FF8A606DFF2858083
:103993000B759000D007D006D000D0D0D0E032799C
:1039A30008E925E024A8F582E4343FF583E493FE97
:1039B300740193FFE925E024B8F582E4343FF583ED
:1039C300E493FC740193FD123B05D9D522E4F9126B
:1039D30021C3E91221A2FD123B0509B93CF1E9C358
:1039E300947850111221C3C37477991221A2FD1246
:1039F3003B050980E9227DFF7C7F7F0C7E02123B21
:103A0300057D557F007E02123B207D007C807F0C6C
:103A13007E02123B057D667F007E02023B20C3EFE0
:103A23009DEC6480F8EE6480985005AE04AF0522E7
:103A3300D3EF9BEA6480F8EE6480984005AE02AF52
:103A4300032222C3EF9DEC6480F8EE648098500556
:103A5300AE04AF0522D3EF9BEA6480F8EE6480984E
:103A63004005AE02AF032222123BA512393D8F82DD
:103A73008E83AF09AE0812393DAD07AC06AF82AEF7
:103A830083123B05C2057F0022756A00756B1F30E8
:103A93000515D3E56B9400E56A9400400AE56B15C0
:103AA3006B70EF156A80EB227D10C2A0123A8CEE88
:103AB3003392A2123A8CEF25E0FFEE33FED2A0122E
:103AC3003A8CDDE6C2A022E4F566F567FDFCE56706
:103AD30025E0F567E56633F5660DBD00010CBC0115
:103AE300EDBD90EA2204124A98968004164BEA60D0
:103AF30000C104020E002D0208020C0210040BC1C7
:103B03000500AB05AA04C2A0C2A1EE4480FE123A8E
:103B1300ABAF03AE02123AABD2A1D2A2228E548F24
:103B2300558D56E4FBFA1237667B017A00AD56AF2A
:103B330055AE54023766123BA512393D12393DADDD
:103B430007AC06AF11AE10123B05C2057F0022126F
:103B53003ACA3003067E017F2380047E007F8C7D7A
:103B6300DC12390322E4F556F5577FC80557E557AC
:103B730070020556DFF62274017E00A8070880054F
:103B8300C333CE33CED8F9FF22E4F554F5557E0A7C
:103B9300123B68DEFB22EE30E707C3E49FFFE49E9F
:103BA300FE227590FFD205AF0FAE0E227590FF85F2
:103BB300800AD20432000800040000FFFAFFF5FF78
:103BC300F0FFECFFEAFFEAFFECFFF2FFFB00060069
:103BD300140022002E0038003D003A0030001D0082
:103BE30003FFE3FFC1FFA0FF85FF74FF72FF80FFA8
:103BF300A2FFD40014005D00A700E80118012E0104
:103C03002300F4009F0029FF9AFEFEFE67FDE5FDF9
:103C13008CFD6EFD9AFE1AFEF30022019D035405EE
:103C230030071608E80A890BDE0CCD0D4903FF00A7
:103C33008000080084008500AE0101011302000228
:103C4300010202020804000001F0000001001C0050
:103C53000C07FF07FF0000F8FF0007F00018010042
:103C63003C000C07FF07FFF10B010C0112011501CA
:103C730016011701180119011A04000401040204B2
:103C830003040404050406040704080409040A04DD
:103C93000C04400442044388E54032000581802837
:103CA3000C218C31802E02008107FF07FF400000AA
:103CB3000000000000070000000000100120980031
:103CC30020000000000084008500AE010C010D01FE
:103CD300130115011904000001F000000000400069
:103CE3000C00000000F8FF0007F000001A0040007D
:103CF3003CC0008000010001010102010301040135
:103D0300050106010701080109010A020002010277
:103D1300020208024004000401040204030407042D
:103D23000A040C044005C005CB0203020402050289
:103D330006020702410404040504060408040904F6
:103D43004105C105C205C305C405C505C605C705AB
:103D5300C805C905CA05CC3408600131800A1200C0
:103D6300880007318C318C042661C1104C008D070B
:103D7300FF07FF20700020008107FF07FF400007B7
:103D83000010002098002000FF2020700049AAE6C0
:103D9300004CF7F4904A9896804C1896804C3EBCA1
:103DA300204CF7F4900085010D01130114008400E9
:103DB30001010000040010040000070188003C001A
:103DC3001FF83F00820086008700880089008A0070
:103DD3008B008C01000101010201030104010501B3
:103DE30006010701080109010A010C011501160169
:103DF3001701180119011A0200020102020203024B
:103E03000402050206020702080209024004000434
:103E1300010402040304040405040604070408045B
:103E230009040A040C0440800349010400078000CC
:103E33002005142100067B3409600131800612003D
:103E4300880007318C318C042661C1104C88C50071
:103E5300098180280C018C528B2E02008D07FF07ED
:103E6300FF000000000000000000002070000000C0
:103E730020008107FF07FF40000000000000000052
:103E8300000000000010012038002000820085019E
:103E930000010C010D0084800100010000000000FE
:103EA3001E04001FFF000700010001001EF83F0071
:103EB30086008700880089008A008B008C01050139
:103EC30006010701080109010A011501160117017D
:103ED300180119011A02000201020202030204027C
:103EE300050206020702080240024104000401041D
:103EF3000204030404040504060407040804090473
:103F03000A040C0440044149010400078000200511
:103F1300142100067B3007318C318C058C61C11074
:103F23004C000D8180280C618C528C2E02008D0771
:103F3300FF07FF0000000000000000000000700009
:103F4300200000008107FF07FF4000000000000081
:103F530000000000000000100120380020000000D5
:103F630021002F00820082008400840085008500E8
:103F730086008C009200A700A800A800AD00AE0147
:103F83000001040105010A010C01140115011A02C3
:103F930000020C024002610400040F0440046105A6
:103FA3000005A705C005C0011C011D011E011F015D
:103FB30020012101220123AD43040007803640B9CB
:103FC300FF3404033F067B808080010ED7010E601F
:103FD3000204F80204700203B00403B00202A00258
:083FE30001A00402A00401A0EA
:00000001FF
