:100000000231D0E4F91223D7E9120022B93CF6E913
:10001000C39478500C1223D7C374779912002280AE
:10002000EE2225E024D9F582E4343CF583E493FC08
:09003000740193FD123A620922E9
:03003B0002388BFD
:10004300023AB2020407E86480F8E933E833601146
:100053000460F0ED33EC337009E8FCE9FDEAFEEBF4
:10006300FF220460DED3EB9FEA9EE99DE8C2E78CA2
:10007300F0C2F795F0400CE8CCF8E9CDF9EACEFAF6
:10008300EBCFFB1203D285D0F05804700320D5B315
:10009300E80470075002B2D502041192D5EC046053
:1000A300F7E4CCC0E0C398F8603B94186008400DB7
:1000B300D0E0FB0203E9E4FBFAC9FC8028E830E462
:1000C30006E4C9FBE4CAFCE830E305E4C9CACBFC97
:1000D300E854076010F8C3E913F9EA13FAEB13FBCA
:1000E300EC13FCD8F130F52FC3E49CFCEF9BFFEE3F
:1000F3009AFEED99FDD0E0FBEF4E4D4C701222DBE2
:100103000302040EEC2CFCEF33FFEE33FEED33FD64
:10011300ED30E7EB0203E9EF2BFFEE3AFEED39FD9D
:10012300D0E0FB50130BBB0003020411ED13FDEEF3
:1001330013FEEF13FFEC13FC0203E9EC4D6011E82F
:10014300497017ED33EC3304600DE4FCFFFEFD2230
:10015300E933E8330470F80204071203D258046049
:1001630009E4CC24815006285009020411284003D5
:1001730002040EC0E0EB4A7044B98006D0E0FB02F3
:1001830003FDEF4E701CBD8008EBFFEAFEE9FD8026
:10019300EBE98DF0A4FEE5F0020227E9CDF9EAFED2
:1001A300EBFFEF89F0A4FCE5F0CE89F0A42EFFE489
:1001B30035F0CD89F0A42DFEE435F08067EF4E7065
:1001C30005BD80D780C3EF8BF0A4ACF0EE8BF0A419
:1001D3002CFCE435F0F8EF8AF0A42CE5F038FCE4CD
:1001E30033CB8DF0A42CFCE5F03BF8EE8AF0A42C85
:1001F300FCE5F038F8E433CF89F0A42CFCE5F038C3
:10020300CF3400CE89F0A42FFFE5F03EFEE433C9DE
:100213008DF0A42EFEE5F039CD8AF0A42FFFE5F092
:100223003EFEE43DFD33D0E0FB50070BBB000F0265
:100233000411EC2CFCEF33FFEE33FEED33FD020330
:10024300E9020411EC5D046005E85904700302043B
:10025300071203D2580460F6EC4860F2EC7004FD18
:10026300FEFF22C860DB2481C85009C39860025096
:100273000602040E9850CAF582E9294B4A7005AB71
:10028300820203FD75F0007C1A7880C3EF9BEE9A1F
:10029300ED99400DC3EF9BFFEE9AFEED99FDE84209
:1002A300F0DC23ACF0D0E0FFD0E0FED0E0FDAB8289
:1002B30020E7101BEB60BAEC2CFCEF33FFEE33FEB0
:1002C300ED33FD0203E9E803F830E705C0F075F00C
:1002D30000EF2FFFEE33FEED33FD40B830E7C28071
:1002E300AA74F8CC6480CCC86480C8F58204604FDB
:1002F300C3EB9FF5F0EA9E42F0E99D42F0E89C458E
:10030300F0603C501DE5825FFFE582D313CB5BCBEE
:10031300F42B5582FB50280ABA002409B90020089F
:10032300801DE5825BFBE582D313CF5FCFF4C3135C
:100333002F5582FF50090EBE00050DBD00010CC3F1
:10034300EB9FF5F0EA9E42F0E99D42F0E89C45F010
:100353006007CC4820E701B3EC2275F020800E75CE
:10036300F010800575F0087D007E007F003392D584
:1003730030D5031205CEEC334010EF33FFEE33FEDE
:10038300ED33FDEC33FCD5F0ED22E5F0247EA2D570
:1003930013CC92E7CDCEFF22EDD2E7CD33EC3392EF
:1003A300D524814006E4FFFEFDFC22FCE4CFCECD44
:1003B300CC24E0501174FF80EDC3CC13CCCD13CD0E
:1003C300CE13CECF13CF0470F030D5DE0205CEE9C5
:1003D300D2E7C933E833F892D5EDD2E7CD33EC3326
:1003E300FC5002B2D522EC30E7100FBF000C0EBE5A
:1003F30000080DBD00040BEB6014A2D5EB13FCED5C
:1004030092E7FD2274FFFCFDFEFF22E480F8A2D5F3
:1004130074FF13FC7D80E480EFED33EC3360100454
:10042300700FED547F7005740292E022740422046D
:1004330022E422ED33EC33600A047003BD8004EC44
:10044300B2E7FC22C0E0EFFBEEFAEDF9ECF81201A3
:100453003ED0E0F5F0EFFBEEFAEDF9ECF812061FF3
:10046300A3A3A3A3E8C0E0E9C0E0EAC0E0EBC0E0D7
:10047300C0F012013E12062FA3A3A3A312004DD076
:10048300F0D0E0FBD0E0FAD0E0F9D0E0F8D5F0D43A
:1004930022EF8DF0A4A8F0CF8CF0A428CE8DF0A489
:1004A3002EFE22BC000BBE0029EF8DF084FFADF0C1
:1004B30022E4CCF875F008EF2FFFEE33FEEC33FCAB
:1004C300EE9DEC984005FCEE9DFE0FD5F0E9E4CEE1
:1004D300FD22EDF8F5F0EE8420D21CFEADF075F0B0
:1004E30008EF2FFFED33FD4007985006D5F0F222B9
:1004F300C398FD0FD5F0EA22C2D5EC30E709B2D597
:10050300E4C39DFDE49CFCEE30E715B2D5E4C39F44
:10051300FFE49EFE1204A6C3E49DFDE49CFC80035D
:100523001204A630D507C3E49FFFE49EFE22BB015D
:100533000A89828A83E0F5F0A3E022500687F00956
:10054300E71922BBFE07E3F5F009E3192289828A42
:1005530083E493F5F074019322BB0110E58229F53E
:1005630082E5833AF583E0F5F0A3E0225009E9251B
:1005730082F886F008E622BBFE0AE92582F8E2F556
:10058300F008E222E5832AF583E993F5F0A3E993E2
:1005930022F8BB0111E58229F582E5833AF583E868
:1005A300F0E5F0A3F0225009E92582C8F608A6F089
:1005B30022BBFE09E92582C8F2E5F008F222EF4BDF
:1005C300FFEE4AFEED49FDEC48FC22C3E49FFFE445
:1005D3009EFEE49DFDE49CFC22EB9FF5F0EA9E4227
:1005E300F0E99D42F0E89C45F022E8600FECC3136C
:1005F300FCED13FDEE13FEEF13FFD8F122E8600FBD
:10060300EFC333FFEE33FEED33FDEC33FCD8F122C1
:10061300E0FCA3E0FDA3E0FEA3E0FF22E493FC746F
:100623000193FD740293FE740393FF22E493F87421
:100633000193F9740293FA740393FB22ECF0A3ED94
:10064300F0A3EEF0A3EFF022E493FB740193FA74AA
:100653000293F922D083D082F8E493701274019349
:10066300700DA3A393F8740193F5828883E47374E4
:1006730002936860EFA3A3A380DF8F258E248D23CD
:100683008C227F207E0012393A8E308F31752B0BEE
:10069300752C0B752D1F752E1FC209C20112344E06
:1006A3007DFF7F817E0012381EEF4E7040F52F12C2
:1006B30009D67DFA7F087E0112381E7DFA1209F2EF
:1006C3007DA67401FFFE12381E7D951209F27D513D
:1006D3007401FFFE12381EAA06AB077D407F257EFC
:1006E30001123366052FE52FC3940240C27B017AC2
:1006F300007DFF7F817E00123366E4F52F1209D659
:100703007B1F7D95120A157B047D40120A15123654
:100713009D75F004A4FDACF012369675F040A4FF6D
:10072300E5F04CFEEF4D120A1FC201C2021217D5AB
:100733008F2A7D007C107F0A7E04123A627D661246
:1007430009FE7D777F0C7E0412381EEF4E70117BFD
:1007530001FA7DFE7F0C7E041233667DCC1209FE06
:100763007F007E0412393AEE540FFEE52F25E02474
:1007730026F8A60608A607052FE52FC39402500303
:10078300020700122E11300A030209BEE4F52FE519
:100793002FC3940250F0C200E52F2401FFE433FE7F
:1007A300E53154FCFDEE4530FCEF4D7F207E001219
:1007B3000A09E6FC08E67F007E04120A09E6FE0841
:1007C300E6FFEE4480FCAD077F007E04123A627FB1
:1007D3000F7E0412393AE48F3A8E39F538F5377FB4
:1007E3000E7E0412393A7E00EF5403FFE4FCFDC091
:1007F30004C005C006C0071236D17802120600D025
:1008030003D002D001D0001205C18F3A8E398D3842
:100813008C371236A4120613AB3AAA39A938A83773
:10082300C31205DC70030209B9E4FFFEFDFCA8371F
:10083300C31205DC70030209B91236D11236A412B1
:10084300063F12369DFFD39409500CC3740B9F755A
:10085300F003A4F5368008E6FFC3740F9FF536AFA7
:1008630025AE24AD23AC22E412035DC004C005C051
:1008730006C0071236D1E412035DA804A905AA062F
:10088300AB07D007D006D005D004120247121C0EC6
:10089300E4FBFA79A0784112013E8F358E348D3313
:1008A3008C3212368650447F007E407D017C00AB43
:1008B3003AAA39A938A8371205DC402F12369624F4
:1008C300F4FFE434FFFE7B1F7A00E4FDFC1238667C
:1008D300742D252FF8A60712369D24FDFFE434FF5F
:1008E300FE7B0F123866742B02097B123686401981
:1008F30012368660025003020982123696FFE536ED
:10090300241FC39FD394004076123696FFC3741EF0
:1009130095362FF53BFC120367AB35AA34A933A8F0
:100923003212004D12039B7B3D7A00E4FDFC12382A
:1009330066EF25E0FFEE33FE74EB2FF582743E3E47
:10094300F583E493F53C740193F53D540FF9F53EBB
:10095300E53CC4F854F0C8E53DC4540F48541FFFA8
:10096300F53F123696B53F0712369D653E6010740B
:100973002B252FF8A601742D252FF8A607D20030BA
:100983000034123696FF1239CAEF753C0033333305
:1009930054F8F53B12369675F040A4FFE53B45F05D
:1009A300FCE53C4FFD12369D75F004A4FFEC45F0C9
:1009B300FEED4F120A1F052F020792D20112344E89
:1009C300AD31AC307F207E00123A62123766D20915
:1009D300AF2A22E52F2401FFE433FEE53154FCFD69
:1009E300EE4530FCEF4DFD7F207E00123A6222AAD5
:1009F30006AB077F257E0112336622E4FBFA7F0CE8
:100A03007E0412336622FD123A62E52F25E0242686
:100A1300F8227A007F0F7E0112336622AC0644026D
:100A2300FD7F267E01123A62228F258E248D238C30
:100A330022E4F528121BD012381EEF64014E7022F7
:100A4300FF7E247D747C4AAB25AA24A923A8221205
:100A530002E4500E752C00752B24752AF475294970
:100A63008016121B96AF25AE24AD23AC221202478B
:100A73008F2C8E2B8D2A8C29C203122060AF2CAEB3
:100A83002BAD2AAC29120DBC8F28E5286003020C7C
:100A9300F7122E117E3B7FD77D007C2712300B7E11
:100AA3003B7FD17D007C2712300B7FFA7EED7DEBFF
:100AB3007CBA121B2B121B34121AEF79A078411245
:100AC30002478F4E8E4D8D4C8C4B7F007E007D20D8
:100AD3007C41121F49C004C005C006C0071235D5AA
:100AE300121B4BD003D002D001D00012013E1203DF
:100AF3009B8E268F277F607EFE7D4D7C4C121B2BA9
:100B03001202E460054003020C8AC2047F667E661B
:100B13007DA6121A957FE27EB87D007C4E120049B5
:100B23008F538E528D518C501213298F28E52860D4
:100B330003020CF7C2047F667E667DA67C3F121B10
:100B43002B12013E8F548E538D528C51E4F5551266
:100B5300351D7F407E547D897C4B121B2B1202E492
:100B63005011752D01752E177531A0753202752F31
:100B730008800F752D01752E16753170753201754C
:100B83002F017530007DFB7F167E0112381E8F34D6
:100B9300852F3D85303EAB27AA26AD31AF2EAE2D36
:100BA300122A078F33EF6036B40204AF328005E5B3
:100BB30032F404FFEF2534F534C364809480401E7F
:100BC300E5346480F8741F6480984012E534FB3385
:100BD30095E0FA7DFB7F167E0112336680B2E53322
:100BE300600675280C020CF7120D6F6003020CF7F8
:100BF300120D94121BD012381E8F35E53564036035
:100C030005E535B40212121A8F7F887E457DC87CB4
:100C13004E121AEF79208015E535B4011B121A8F95
:100C23007FBB7EEE7DA07C4F121AEF797078C112E4
:100C33001AD28E338F348006752809020CF77BFF96
:100C43007A0FE4FDFCAF34AE331238668E338F3443
:100C5300AB34AA337DB0120DA98F36E535B401024A
:100C63000536AF367E00121B0C123866AA06AB0798
:100C73007DFC120DA9121B04123866AA06AB0712DB
:100C83001BD71233668008120D6F7068120D9475AE
:100C93003D10753E00AB27AA267DB07F127E011260
:100CA3002A07EF600575280D804A7F127E011239ED
:100CB3003A8E2D8F2E7F177E0112393A8E2F8F3069
:100CC3007F1A7E0112393A8E318F327F167E0112DE
:100CD300393AEE5407F5338F34121BA612381E8FA0
:100CE300357DFD7F187E0112381E8F36121BD712F9
:100CF300381E8F37D203122060E5286002FF22AD31
:100D03002EAC2D7F127E01123A62AD30AC2F7F17CD
:100D13007E01123A62AD32AC317F1A7E01123A6221
:100D2300E5334480FCAD347F167E01123A62E5362A
:100D3300C43354E04401FC748CFD7F187E01123AE5
:100D430062E53775F020A4ACF04410FD7F147E01FA
:100D5300123A627B947A027DE57F197E0112336633
:100D6300E535FB121BA41233667F0022C204AB2CB1
:100D7300AA2BA92AA8297FE27EB87D007C4E120007
:100D8300498F538E528D518C501213298F28E52889
:100D930022C204852C54852B53852A52852951E47C
:100DA300F55512351D227F127E01123366AE33AF25
:100DB300347C007D641204A6228F3B8E3A8D398CDD
:100DC300387F207E0012393A8E3C8F3D121BD012A1
:100DD300381E8F3E7D407F197E0112381E8F3F9053
:100DE3003ABD121AAE121AC24010121B96903AC1A3
:100DF300121AB4121AC2600540037F08227E3B7F99
:100E0300BF12313BE53EFB7D107F131210D3E53F4C
:100E1300B41F047B168003E53FFB7D407F1912104E
:100E2300D3AF3BAE3AAD39AC38123630EF60012266
:100E33007B011210DBC2047553E27552B875510081
:100E430075504E121329EF6001227B021210DBD280
:100E53000475535675522175510375504E1213295B
:100E6300EF600122AD3DAC3C7F207E00123A62125E
:100E73003912D20475548075539675521875514BB7
:100E8300E4F55512351DC204E4F554F553F552F556
:100E930051F55512351D121ABA6002500D7D017CB1
:100EA300001210EA7B0F7A008078E53ED39401406C
:100EB300197F887E457DC87C4E121AE7792078C158
:100EC300121AD2121B408F428024E53E6401701B2C
:100ED3007FBB7EEE7DA07C4F121AE7797078C1123A
:100EE3001AD2121B40EF04F54280037F0922AF425E
:100EF300EF3395E0121B0B123866EFF5837BFF7A15
:100F03000FAF41AE40123866EE4583FCEFFD121081
:100F1300EAAE40AF41121B44121B04123866AA0604
:100F2300AB07121BD7123366E53F75F00A84FCE466
:100F33001203678F4E8E4D8D4C8C4B7F667E667D84
:100F4300267C3F121F49E4FBFA79D7784312013E0E
:100F53007B337AB379DC78C212004D7B9A7A997924
:100F6300A37841121AEF79807841121AD28F40AFD9
:100F73003F1239CAEFFDAF40EF25E0FC7F1A7E0137
:100F8300123A627F407E547D897C4B121AC2400321
:100F93000210207B021210C7E4FBFA12109A7FFCA6
:100FA3007EBE7D007C4F12024779CE121ACD7BFFA5
:100FB3007A07E4FDFC1238668E448F457546057F3B
:100FC300C07EE17D647C4B121ADC50037546047DC0
:100FD300187C4B121AD850037546037D987C4A122D
:100FE3001AD850037546027F007E1B7D377C4A1258
:100FF3001ADC50037546017F007EE67DAA7C491208
:101003001ADC5003E4F546E54633333354F84544DC
:10101300FCE545FD7F177E01123A628071121ABA10
:10102300600250557B011210C77B017A0012109A9F
:101033007F5E7ED07DB27C4F1202477948121ACD73
:10104300121B231238668F447B807A967918784B6B
:10105300AF43AE42AD41AC40121AEF794078C012B3
:101063001AD27B077A00E4FDFC1238668F45EFFA4B
:10107300E544FB7DA07F1680107B03121BA4123373
:10108300667B027A007DFD7F187E0112336612377C
:10109300221237A77F00227DFD7F187E011233665F
:1010A3007F667E667DA67C3FAB3BAA3AA939A8380A
:1010B30012013E8F438E428D418C40AB43AA42A91D
:1010C30041A840227A007D327F157E0112336622C9
:1010D3007A007E01123366227A007D107F207E0023
:1010E3001233661237E4227F127E01123A62228F94
:1010F300328E318D308C2F7F207E0012393A8E3321
:101103008F347E3C7FB512313B121B771236DA12D5
:101113001AAB121B801202E4600540030211B67F72
:10112300CD7ECC7D4C7C3F121B80121B341212EF00
:101133007BCE7A4079E878B812013EC004C005C07E
:1011430006C0071212BF7B957AB77915782512016D
:101153003ED003D002D001D00012004DC004C00520
:10116300C006C0071213097B757AEC7935783B12F8
:10117300013ED003D002D001D00012004DC004C004
:1011830005C006C0077FB47E4E7DA87C41121BC5F7
:10119300D003D002D001D00012004D7B157AA37981
:1011A30041121AD0121B1F123866AA06AB077D70B4
:1011B30002123F121B37121B771212EF7B347A0A8B
:1011C300795D78B912013EC004C005C006C007129C
:1011D30012BF7B667A277994783512013ED003D00B
:1011E30002D001D00012004DC004C005C006C007E4
:1011F3001213097BAC7A0D799C783C12013ED00323
:10120300D002D001D00012004DC004C005C006C0FA
:10121300077F437E727DB77C3F121BC5D003D0028C
:10122300D001D00012004D7BC37AC7793E121AD089
:10123300121B1F123866AA06AB077DF87F097E01D1
:10124300123366121B77123630EF6001227B0112D4
:1012530012D67B021212D6AD34AC337F207E00123D
:101263003A62123912D204755400755324755274BC
:1012730012131FD204853254853153853052852F82
:101283005175550112351DC2047554007553BA7555
:10129300525B12131FC2047F007E507DC37CC712B2
:1012A3001B8012004D8F548E538D528C51755501F6
:1012B30012351D1237221237A77F0022E4F54EF5AF
:1012C3004D754C80754B40AF38AE37AD36AC3512EB
:1012D3001F49227A007D107F207E001233667B0136
:1012E3007A007D117F1C7E01123366221202478F22
:1012F300388E378D368C35E4F54EF54D754C40758B
:101303004B40121F4922E4F54EF54DF54C754B4009
:10131300AF38AE37AD36AC35121F4922755149E4AB
:10132300F55512351D227F207E0012393A8E548FD7
:10133300557556FF7A003004047B0280027B017DE1
:10134300107F207E00123366756307AF63123A5035
:10135300AC06AD07E4120362AB53AA52A951A850DD
:1013630012013E8F5A8E598D588C577F667E7F7D32
:1013730062122CCD400D7F267EE57DE5122CCD60DB
:10138300054003D563C5E56324FFFBE434FFFA7D21
:10139300867F1F7E011233667FAC7EE97DA3122C0C
:1013A300CD7F00600440027F018F63EF7DAA7F1C25
:1013B3001214D5E5632401FDE433FCE4120362ABAC
:1013C3001CAA1BA91AA81912013E122CC4AF5AAEAB
:1013D30059AD58AC571202478F628E618D608C5F96
:1013E30012039BE412035D122CC4AF62AE61AD60C5
:1013F300AC5F1200497849122CF78F5E8E5D8D5CCD
:101403008C5B7CC0AB62AA61A960A85F122CE57FEC
:101413001E7E01123366AF5EAE5DAD5CAC5B122D1A
:10142300357F1E7E01123366E55EFFE55DFEAD0787
:10143300AC067F1D7E01123A62C205755AFFE4F5C0
:1014430057E5571214C8D2061214DEEF702A7DA393
:101453007F217E0112381E8F5BEF2480FFE434FF6F
:10146300FE123AA68F5CE55CC3955A5009855C5A17
:10147300855758855B59D2050557E557C3940340F3
:10148300C0E5581214C8E5597DA37F211214D52055
:10149300051AE556642D6014E55624BAF556FB7A11
:1014A300007D707F207E01123366808FAD55AC5472
:1014B3007F207E00123A622005087F033004027FFA
:1014C30004227F0022FB7A007D217F217E011233DB
:1014D3006622FB7A007E0112336622E4F56A756B9D
:1014E3007F756D80756EFFF56CF56F30061375674C
:1014F300017568217569A3FBFA7D217F1C7E01803C
:101503001175670075688B756981E4FBFA7D217F2E
:1015130086FE1233667F657ECF7D8B7C38AB1CAA3B
:101523001BA91AA819122CFCC374FF9FF51E74FF84
:101533009EF51DE4FBFA121653A2069207123960B8
:10154300BF03037F01227BFF121640EF70037F016D
:1015530022E4F570757140E571604E122CB2246A75
:10156300F8E64571F612162C8F72E572B4030C126D
:101573002CB2246AF8E66571F68026E5726402707F
:1015830020122CB2246B122CAF246AF8E6D39F509E
:1015930010122CB2246CF87601122CA7246BF8A637
:1015A30007E571C313F57180AE122CB2246BF8E614
:1015B300601F12162CEF6402600E122CA7246BF826
:1015C300E6C39F500C068009122CB2246BF81680D8
:1015D300D80570E570C394025003021557E56F6098
:1015E30018C3E56A956BFFC3E56D956EFEC39F4017
:1015F30008EE13256EF570800BC3E56A956BC31374
:10160300256BF570E570FB121640EF6402600A0566
:1016130070E570FB7A00121653A206920712396026
:10162300BF02037F00227F0122FB7A00AD69AF680E
:10163300AE67123366A2069207123960227A00ADB2
:1016430069AF68AE67123366A20692071239602249
:10165300AD69AF68AE67123366227F207E00123910
:101663003A8E2B8F2CE52C540364017006FBFA7D14
:10167300448005E4FBFA7D337F82FE1233667E3DB0
:101683007FF312313B12000312325CA907E96001B8
:10169300227B011223B61233661237E47BFF7A00F2
:1016A3007D707F207E01123366D204122843C0046A
:1016B300C005C006C00712238B1223FBD007D00638
:1016C300D005D0041200497B007A24797478C912BA
:1016D300004D8F308E2F8D2E8C2DC2041224261296
:1016E3001329A907E960061217C9AF01221223B40F
:1016F3001233667A001224431233661239E7400626
:101703001217C97F0422AD2CAC2B7F207E00123A26
:1017130062123912D20412238B1223A812351D121E
:10172300244E12381E8F2D300154E4FBFA7D777F4F
:101733000C7E01123366E52D64016006E52D64021B
:101743007039E5125403F52EFB7A001217BFE52E0C
:1017530024FFFFE434FFFEEFF4FBEEF4FA7D217F78
:101763000D7E01123366E52D147F0070027F01E5C3
:10177300121313543F6F602E7F07227F0722E52D3C
:1017830064016009E52D640260037F0722E52D24CF
:1017930001FBE433FA1217BF7D657F0C1217B27D8C
:1017A300437F0D1217B21237221237A77F0022E5AB
:1017B3002D6403FB7A007E01123366227D877F0D41
:1017C3007E0112336622AD2CAC2B7F207E00123AB1
:1017D30062227F207E0012393A8E418F42C2031269
:1017E3002060A201920312193B8F40E5406003027F
:1017F3001888122E11122D5130020302188820016D
:101803002612247F12381EBF020C7D55121919E4CB
:10181300FBFA7D33800A7D66121919E4FBFA7D44D5
:101823007F0D7E011233661223B4123366122445F0
:1018330012381EEF4E701BFA1224431233667B01DB
:101843001223B6123366E4FBFA7D117F1C7E01126C
:10185300336612192FAF18AE17AD16AC15A201924D
:10186300031229268F40E540701B7DDD12192412D7
:1018730023BF123366122389784712239F12351D23
:10188300C20312267A7DA07F027E0412381E8E4385
:101893008F447DA07F017E0412381E8E458F467DC6
:1018A300B07F037E0412381E8E478F48D203122066
:1018B3006012192FE5406002FF22200227AB44AAE1
:1018C300437DA07F027E04123366AB46AA457DA00A
:1018D3007F017E04123366AB48AA477DB07F037E47
:1018E300041233661223F0123366E54230E007E454
:1018F300FBFA7D668005E4FBFA7D777FC07E0512E7
:1019030033667D20121924E4FBFA7D887F0C7E0464
:101913001233667F0022E4FBFA7F0C7E01123366EA
:1019230022E4FBFA7F0C7E0412336622AD42AC4103
:101933007F207E00123A62227F207E0012393A8E87
:101943004A8F4B7E3E7FCD12313BE54B54036401FE
:101953007006FBFA7D228005E4FBFA7D117F82FE8F
:10196300123366300327E51213135401FFC37402C5
:101973009FF54CFB12244C12336612247F12381E3F
:10198300E51254036F7001EE60287F062212247F54
:1019930012381EEE7019EF14600B24FE60070470FA
:1019A3000E7B0180027B0212244C12336680037F7C
:1019B30006221223B412336612244512381EEF4E48
:1019C30070327B01FA7D107F20FE121A7BD2041243
:1019D3002843C004C005C006C00712238B1223FB93
:1019E300D007D006D005D00412004978CB12241DAD
:1019F300C20480387B011223B61233661239E740E2
:101A0300037F0322C2041228438F4F8E4E8D4D8CC9
:101A13004C1223B4121A7BD20412238BAB4FAA4E5F
:101A2300A94DA84C12004D784B12241D1213298F77
:101A330049AD4BAC4A7F207E00123A62E549600211
:101A4300FF2212391212325C8F49E54960012212DA
:101A53000003D20475544075535475520975514BA4
:101A6300E4F55512351D12238912239D12351D12DB
:101A730037221237A77F00221233661237E47BFF27
:101A83007A007D707F207E01123366227FEC7E51C7
:101A93007D387C3FAB2CAA2BA92AA82912013EA88A
:101AA30004A905AA06AB0722903AC9E4FBFAF97820
:101AB3004012061F0202477F607EFE7D4D7C4CABC9
:101AC3003BAA3AA939A8380202E4E4FBFA78C21225
:101AD300004D02039B7F807E96AB43AA42A941A897
:101AE300400202E4AB3BAA3AA939A838120247E400
:101AF300FBFA2212061FAB25AA24A923A82202025D
:101B0300E4C3740F9FFFE49EFE7B0F7A00E4FDFCA9
:101B130022AE3BAF3CE4FCFDC30205DC8E398F3AB9
:101B23007BFF7A00E4FDFC22AB2CAA2BA92AA8296F
:101B33002212013E7B007A2479747849228E408FE9
:101B4300417C007D640204FBE412035D7B817A0423
:101B53007935783F02013EE4FBFA7D417F40227DE7
:101B6300C87F0A7E0122C3E5409544F540E53F95D1
:101B730043F53F22AF32AE31AD30AC2F22AB32AAA8
:101B830031A930A82F22E5442540F540E543353FF0
:101B9300F53F22E4FBFAF9784022853982853883C0
:101BA300227A007D327F157E0122E493FE74019335
:101BB300FF740293FD22740493FFAD3EED3395E071
:101BC300FC22AB38AA37A936A83502013E7D107F27
:101BD300137E01227D857F147E01223E9248DA3EE8
:101BE300CCCCCD3F2AAAAB400000003F8000003F91
:101BF3009837F03FB504F33FD744FC3E3172173EAC
:101C0300B172173F0515913EDE5BD9D2018002C246
:101C130001EDD2E7F8CD33EC3304700BBD800592B0
:101C2300D502041102040740FBD31460F2F5F07CE3
:101C33003FEE7A00C39496C8948B40230AC89469F4
:101C4300C8941A401A0AC89468C8941F40110AC855
:101C5300945AC89425400805F07A00CDC2E7CDC058
:101C6300F08C518D528E538F54EA2323C0E024EE1F
:101C7300F582E4341BF58312062F12004DECC0E00D
:101C8300EDC0E0EEC0E0EFC0E012061FA851A9527C
:101C9300AA53AB54120049D0E0FBD0E0FAD0E0F9EC
:101CA300D0E0B2E7F81202478C518D528E538F5415
:101CB300901BDE7403120447A851A952AA53AB54D4
:101CC30012013ED0E0600F24FAF582E4341BF58361
:101CD30012062F12004D8C518D528E538F54D0E02B
:101CE300C3947FFDE49400FC1203627B187A72793B
:101CF30031783F12013EA851A952AA53AB541200A6
:101D03004D30010B7BD97A5B79DE783E12013E229E
:101D1300752B50752C007D221223C11233661223BA
:101D2300BF123366122389E4FBFAF9784012013EAD
:101D33007B007ABA795B78491223A512351D7D4061
:101D43007F197E0112381E8F2D30010EE4F52EE52A
:101D53002E7D967F13121E2680367D527F137E01C1
:101D630012381E8F2E802912246B4003021DFCE5BE
:101D73002EC3940F4003021DFC052EE52EFB7A00B3
:101D83003001047D9680027D527F137E01123366FB
:101D93001235D58E2F8F3080CEE52DC39419506127
:101DA300E52E640F705B12246B5056E52DC3941916
:101DB300504F052DE52D7D407F19121E261235D576
:101DC3008E2F8F30AC2FAD30E4120362C004C005F8
:101DD300C006C007AC31AD32E41203621223FBD05C
:101DE30007D006D005D0041202477B667A6679864F
:101DF300783F1202E460025008852F31853032802B
:101E030098C3E5309421E52F940B50057E007F05A0
:101E1300227D77122406123366122404123366E4F9
:101E2300FEFF22FB7A007E01123366221223B812D0
:101E3300381E8F3D122475123366E4FBFA7D887FCA
:101E4300087E021233661223BF1233661224601215
:101E530033661223F0123366752DA07536A0E53D67
:101E6300B40117752B05752CC37534057535C47D01
:101E730044121F3EE4FBFAFD8016752B05752CC535
:101E83007534057535C67D55121F3EE4FBFA7D1189
:101E93007FC07E05123366E4FDFCAF2CAE2B1232FD
:101EA300E5E4FDFCAF35AE341232E5E4F52EF52F53
:101EB300F537F538F53E1223C9E493FE740193FF19
:101EC300C3E52F9FFFE52E9EFE7BFF7A037D007CFB
:101ED300FC1238668E308F311223C9740193252F7B
:101EE300FFE493352EFE1238668E328F331223C9E8
:101EF300E493FE740193FFC3E5389FFFE5379EFE2D
:101F03001238668E398F3A1223C97401932538FF2C
:101F1300E4933537FE1238668E3B8F3C7B007A00A4
:101F2300792B122BBB7B007A007934122BBB053E35
:101F3300E53EC394035003021EB922E4FBFA7FC0BB
:101F43007E05123366228F4A8E498D488C47E4FF03
:101F5300FE7D807C3FAB4AAA49A948A8471202E408
:101F63007009AF4AAE49AD48AC4722AF4AAE49AD5E
:101F730048AC4712041CFBAF4EAE4DAD4CAC4B12FC
:101F8300041CFFBF0108E4FFFE7D807C3F22EF6459
:101F9300046022EB6404601DBB0127E4FFFEFDFC2B
:101FA300AB4EAA4DA94CA84B1202E460084006E4CC
:101FB300FFFEFDFC2274FFF54EF54DF54CF54B028B
:101FC3002057E4F54FF550FFFEFDFCAB4AAA49A9A3
:101FD30048A8471202E4504BAF4EAE4DAD4CAC4B4C
:101FE30012039B8E4F8F50AC4FAD50EC120362C85F
:101FF300ECC8C9EDC9CAEECACBEFCBAF4EAE4DADFF
:102003004CAC4B120049E4FBFAF9F81202E470A558
:10201300AF4AAE49AD48AC471204368F4A8E498D5C
:10202300488C47AF4AAE49AD48AC47121C12AB4E81
:10203300AA4DA94CA84B12013E122FA98F4E8E4DCB
:102043008D4C8C4BE55030E00B1204368F4E8E4D89
:102053008D4C8C4BAF4EAE4DAD4CAC4B22E4F549A1
:10206300F54A7F20FE12393A8E4D8F4E20030A9097
:1020730003E8E54DF0A3E54EF07924E9605225E04D
:102083002463F582E4343FF583E493F54B740193C1
:10209300F54CE925E02465F582E4343FF583C37408
:1020A3000193954CE493954B402230030512215440
:1020B3008008122135ECF0A3EDF0054AE54A7002E1
:1020C3000549054CE54C70CA054B80C6191980AB10
:1020D300E4F9E924FDFDE434FFFC7F207E00123A9D
:1020E30062754B01754C1C30030512215480081294
:1020F3002135ECF0A3EDF0054AE54A7002054905E8
:102103004CE54C7002054BD39423E54B940140D727
:1021130009E9640270BC30030D1237669003E8E0EE
:10212300FCA3E0FD8004AD4EAC4D7F207E00123A4F
:102133006222AF4CAE4B12393AAC06AD07E54A25E5
:10214300E0FFE54933FE74002FF58274003EF5830A
:1021530022E54A25E0FFE54933FE74002FF582743A
:10216300003EF583E0FCA3E0FDAF4CAE4B123A62B8
:10217300228F258E248D238C22903AC5121AF64085
:102183000A903AD1121AF6600540037F0A22121B05
:1021930096AF25AE24AD23AC221202478F298E2899
:1021A3008D278C26903AC9121AF6601B4019903A73
:1021B300CD121AF65011121B96903ACD121AB48F03
:1021C300298E288D278C26C203122060AF29AE28C2
:1021D300AD27AC261210F28F2AE52A7061122E1158
:1021E300121B5A7E04123366121B5A7E0212336686
:1021F3007E3C7FD37D007C2712300B121AABAB29B8
:10220300AA28A927A8261202E4600250047D708040
:102213000F7B027A007D607F1A7E011233667DF8A0
:102223007F097E011224868F2A121B6212381E8EAA
:102233002B8F2C7F097E0112393A8E2D8F2ED203DC
:10224300122060E52A6002FF22AB2CAA2B121B622C
:102253001233667D8C7C317F067E01123A627D8C5F
:102263007F077E01123A62AD2EAC2D7F097E0112EB
:102273003A62AF29AE28AD27AC261236DA7F0022A8
:102283008F568E558D548C53122D1A7FD77E3C7DDD
:10229300AF7C4E120247E4FBFA798078BF12004DFF
:1022A30012039B8F5F122D1A7FED7E127D667C4E8B
:1022B30012024712039B8F60E560255FFFE433C37F
:1022C30013EF13F5612401FFE433FEEF25E0FDEE88
:1022D30033FCE4120362122D1A12013E8F5A8E59F7
:1022E3008D588C57E561FB7A007DA37F891223709B
:1022F3008F5E8E5D8D5C8C5B7CBFAB5EAA5DA95CE3
:10230300A85B122CE57F8812237012039BE412034F
:102313005D122CC4AF5EAE5DAD5CAC5B1200498F49
:10232300628E618D608C5FE4FFFE7D807C49AB62D1
:10233300AA61A960A85F122CFC8F668E658D648CE0
:1023430063E4AB07AA067DF07F87FE123366AF66B0
:10235300AE65AD64AC63122D357F887E00123366A3
:10236300C2061214DEEF7F0060027F02227E00129B
:102373003366AB1CAA1BA91AA819AF5AAE59AD589C
:10238300AC5712024722C204AF18AE17AD16AC15F4
:1023930079A07840E4FBFA02024778C77B007A50C1
:1023A30079C312004D8F548E538D528C51E4F555E1
:1023B300227B027A007D107F207E00227D77E4FB62
:1023C300FA7F0C7E0422E53E25E02451F582E434B5
:1023D3003DF58322E975F0288475F018A4FFE924FC
:1023E30000FDE43405CD2FFFED35F0FE227B017AAD
:1023F300007DFF7FC07E0522A804A905AA06AB07BE
:10240300227D227B017A007F0C7E0422D3903EDF63
:10241300740193954EE493954D227B407A54790948
:1024230012004D8F538E528D518C5022C3E5689507
:102433006AE567956922C3E5439545E542954422DC
:102443007B017D667F1C7E01227A007DBA7F037E3D
:102453000122FEC3EF9401EE64809480227B017A13
:10246300007D337F087E0222C3E530952CE52F954E
:102473002B227B017A00E4FDFF7E01227D877F0D05
:102483007E01228E2F8F308D31753206121B5A7EBC
:1024930002123366121B5A7E041233661235D512AA
:1024A3001B4B12039B8E338F347E021225777E04DF
:1024B3001225771235D5121AA2AE33AF34121B1878
:1024C300500CE4F535753619D201C202800A753510
:1024D3001F7536F6C201D2023001067E3C7FC780EB
:1024E300047E3C7FCDAD34AC3312300B9200200020
:1024F3004A121B6212381EEF65357001EE703CAD57
:1025030031AF30AE2F12381E8F37E5376003B4FF7B
:10251300037F0022AF36EF3395E0FEE5372FFFE46C
:102523003EFE121B23123866AA06AB07AD31AF304D
:10253300AE2F1233667B107A00801F300222121BEB
:102543006212381E8F370537AF377E007B1F7A0044
:10255300E4FDFC1238668F37EFFB121B6212336601
:102563001532200007E532600302248F7F0E30000E
:10257300027F00227B017A007D417F401233662275
:102583007F207E0012393A8E228F23C203122060ED
:10259300A200920112165D8F24E5247043122E11BE
:1025A300122D51A2009201121D138F24E5247030C5
:1025B300122D511223897B007ABA795B7849122351
:1025C300A512351D121E2FC2047554007553BA751A
:1025D300525B755149E4F55512351DD20312267A23
:1025E3007DA07402FFFE12381E8E258F267DA07FEC
:1025F300017E0212381E8E278F287DB07F037E0254
:1026030012381E8E298F2AD203122060AD23AC22EA
:102613007F207E00123A62E5246002FF22AB26AAE5
:10262300257DA07402FFFE123366AB28AA277DA086
:102633007F017E02123366AB2AAA297DB07F037E17
:10264300021233661223F0123366E52330E007E407
:10265300FBFA7D448005E4FBFA7D557FC07E0512BD
:102663003366122460123366E4FBFA7D107F087E22
:10267300021233667F00227BFF7A3C79D98B498A29
:102683004A894B755BA07552B0300310754E0275C5
:102693004F017402F54CF54DF550800F754E0475DE
:1026A3004F01754C04754D027550047551037557F0
:1026B300007558807555FF7556807F5012275F7DD2
:1026C300BF1227557DFF12274D1235D58E628F63BA
:1026D3007DFF1227557DBFAF4FAE4E123A621235C2
:1026E300D58E648F65C3E5639565E562956450088F
:1026F300854C59854D5A8006854E59854F5A7DFF25
:102703007C0712274D7560077561FF755E05755F60
:10271300FF7F5912275FE5542410F558E43553F52C
:1027230057E55424F0F556E55334FFF5557F501221
:10273300275FAD5DAC5CAF5AAE59123A62AB54AA97
:1027430053AD52AF51AE50023366AF4FAE4E123A55
:1027530062227C07AF4DAE4C123A62228F6674FF41
:10276300F567F568A807E82405F8E6F56B08E6F5CC
:102773006CA807E82407F8E6F56D08E6F56EA807E8
:10278300E6F57108E6F572A807E82402F8E6F573A2
:10279300FD1228348E698F6AC3E56E956CFFE56D73
:1027A300956B122455405E7C007D021204FB8E6FF4
:1027B3008F7012242F500BAD731228348E698F6AD9
:1027C3008014AB6CAA6BAD73AF72AE711233661229
:1027D30035D58E678F68D3E5709400E56F64809478
:1027E30080402212242F500FC3E56E9570F56EE5DD
:1027F3006D956FF56D80A1E570256CF56CE56F3512
:102803006BF56B809312242F5006AE6BAF6C800474
:10281300AE6DAF6EE5662403F8A60608A607E56667
:102823002403F8E6FA08E6FBAD73AF72AE71023328
:1028330066AB6EAA6DAF72AE711233661235D522D6
:102843007F207E0012393A8E508F517A0030040473
:102853007B0280027B017D107F207E001233667D28
:10286300D07F1E7E0112381E8E528F537F1D7E0134
:1028730012393AE4FCFDC004C005C006C007FEE5FA
:1028830053122D48D003D002D001D0001205C18FBE
:10289300578E568D558C547DAA7F1C7E0112381E8F
:1028A300EF04F5587D867F1F7E0112381EEF04F575
:1028B30059AD51AC507F207E00123A62AF59122CB1
:1028C300B9122D2AC004C005C006C007AC58E412D3
:1028D3000367D003D002D001D00012013EC004C070
:1028E30005C006C007AF57AE56AD55AC54122D0CFC
:1028F300C004C005C006C007E552C4F854F0C86858
:10290300FEE553C4540F482404122D04D003D0020F
:10291300D001D00012004DD003D002D001D000125C
:10292300013E228F4C8E4B8D4A8C497DFA7F087E67
:102933000112381E8F4F7B017A007DDD7F0C7E04F0
:102943001233661223BF123366C204AF4CAE4BADD3
:102953004AAC4912239312239D12351D3003267569
:10296300500F800F12240F40411550E5506480949E
:10297300804037E550FB3395E0FA7D517401FFFE4B
:102983001229FC80DF755002801012240F401B05B2
:10299300500550E550D3940F5010E550FB7A007D5D
:1029A300527F137E011229FC80E0C3E54D94105041
:1029B3000F054F054FE54F943950051229E680EA7C
:1029C30012240F400E054FE54FD3943E50051229B4
:1029D300E680EDC3E54E9421E54D940B7F00500254
:1029E3007F0522E54FFB7A007DFA7F087E011233D3
:1029F300661235D58E4D8F4E221233661235D58E23
:102A03004D8F4E228E388F398D3A8A3B8B3C12354F
:102A1300D5121AA2121B1450028001C39200AD3AC0
:102A2300AF39AE3812381E8E3F8F40E53AC4540F8B
:102A3300FFE53A540FFEC3EF9E04FF123A50EF2412
:102A4300FFF542EE34FFF541754300754401E5445B
:102A530025E0F544E54333F543300005121B698057
:102A630003121B89122AC91233661235D5121AA210
:102A7300121B147F0050027F01A200E433B5071339
:102A8300C3E544953EE543953D40C37F01300002D5
:102A93007F0222D3E5449401E54394004025E543B6
:102AA30013F543E54413F5441235D5121AA2121B4C
:102AB300144005121B898003121B69122AC91233A1
:102AC3006680D07F0022AB42AA41E4FDFCAF40AE5A
:102AD3003F1238668E3F8F40AB40AA3FAD3AAF39C5
:102AE300AE38227581D0E4F5A27591FFF59075A1FA
:102AF3000775A9FF75A880758901C2A0D2A1300806
:102B0300FDE50A1206572B37002B3E012B42022B01
:102B130046032B4A042B51052B60062B6F072B769C
:102B2300082B7D092B850A2B9F112BA8122BB3FF92
:102B330000002BB6C2083009FD8042C200805FC28C
:102B4300018064C2008002D2001235798065AF181B
:102B5300AE17AD16AC15120A2C8F908056AF18AE77
:102B630017AD16AC151221748F9080471239848FDC
:102B7300908040123A038F908039850B12E4F590D0
:102B83008031E4F590C20A7F2DFE12393AE4FCFD50
:102B9300780212060012067D8F908017D20012254C
:102BA300838F90800ED201C2021217D58F908003BB
:102BB300759005C208022B018B3F8A40894174FF3F
:102BC300F542F54390000512055CF54785F0469004
:102BD300000712055CF54985F048122C7E8E448F60
:102BE30045C3E5499547FFE5489546122455405BA3
:102BF3007C007D021204FB8E4A8F4B122439AB3FBB
:102C0300AA40A9415009122C7E8E448F458014128C
:102C13000531FFAEF0AD47AC461232E51235D58E25
:102C2300428F43E54B454A6022122439500FC3E5D6
:102C330049954BF549E548954AF54880A4E54B2568
:102C430047F547E54A3546F546809612243950063E
:102C5300AE46AF478004AE48AF49AB3FAA40A94157
:102C6300900003EE8FF0120594120531FFAEF09041
:102C7300000312055CFDACF00232E5120531FFAE34
:102C8300F0AD49AC481232E51235D522F582E43570
:102C930050F58312064B75F002E553A4F58285F0D7
:102CA3008302055CE57075F003A4246AF8E6FFE58A
:102CB3007075F003A422123A50AC06AD07E4120378
:102CC30062A804A905AA06AB07227C4FAB5AAA59EE
:102CD300A958A8570202E4AF5FAE5EAD5DAC5C02DB
:102CE3000247E4FFFE7D8012004D12039BAB07AA4F
:102CF300067DD422E4FBFA798012013E02039B2471
:102D030001FDE43EFCE4020362E412035DE4FBFA2A
:102D130079807849020247AB56AA55A954A8532291
:102D230085518285508322AF1CAE1BAD1AAC1902AC
:102D3300024778101205EDAB07AA067D3022AD825B
:102D4300AC837E0022540FFFE4781002060075491D
:102D530005754AC71223B812381E8F4BE4FBFAFDE0
:102D6300FF7E011233661224041233661223F0121B
:102D73003366E54BB401117D66122DE77D22122DDA
:102D8300E77D30122E07801A7D77122DFC7D3312DA
:102D93002DFC7DC0122E077402254AF54AE43549FD
:102DA300F5497FC17E0512393AEE54F070F4E4FB25
:102DB300FA122DF2C203AF4AAE49122EC77BFF7A35
:102DC30007122DF2E54A2401FFE43549FEC203123E
:102DD3002EC7E4FBFA7D227F0C7E04123366122495
:102DE30075023366E4FBFA7FC07E05123366227DEB
:102DF300A07F017E0412336622E4FBFA7FC07E05C6
:102E0300123366227CFF7FC27E05123A62227D2046
:102E13007F0A7E0412381EE47E01A807088005C3DA
:102E230033CE33CED8F9F54A8E497DEC7F037E0449
:102E330012381E8F4BE54BC39406500F7402A8073C
:102E4300088002C333D8FCF54B8003754B01C205E0
:102E53001234B7E4FBFAF97840120247C004C00504
:102E6300C006C007AC4BE41203671223FBD007D0A4
:102E730006D005D004120247C004C005C006C0072F
:102E8300AC49AD4AE4120362D003D002D001D000B2
:102E93001202478F4F8E4E8D4D8C4CAF1CAE1BAD27
:102EA3001AAC19AB4FAA4EA94DA84C12013E79405A
:102EB300784112239712039BC374FF9FF51474FF89
:102EC3009EF513228E4C8F4D3003067E037FFF80C9
:102ED300047E007F3F8E588F59AF4DAE4C1233E0C6
:102EE3008E558F568E538F541235D58E4F8F508EED
:102EF300518F52E5562401FFE43555123858AC067C
:102F0300AD07122F661223FBAE4FAF50E4FCFDC397
:102F13001205DC7FFF50027F018F57754E08AF57B4
:102F2300EF3395E0FEE5562FFFE5553E1238588EF8
:102F3300558F56AD56AC55122F668E4F8F50C3E545
:102F4300509552E54F9551500C854F518550528500
:102F53005553855654D54EC6AD54AC53AF4DAE4CB8
:102F63000232E5AF4DAE4C1232E51235D52233DADB
:102F7300929E35B16011377FE5FE392184893AAEDF
:102F8300C3FF3C1D955B3D6358473E75FDF03F31E4
:102F930072183F800000C2D5020411020407BD80ED
:102FA300FA50F302040EED33EC330460F17B3B7A09
:102FB300AA79B8783F12013EED33EC3392D5247BE6
:102FC3005011A2D570DB500BED448024045004A2B1
:102FD300D580CEEFFBEEFAEDF9ECF812039BEFF59B
:102FE30082F404FC12036712004DC082902F7174A7
:102FF30009120456ED33CC33D0F092D525F0A2D587
:103003007001C313CC13FD228E388F398C3A8D3B5C
:103013008F828E83121BAD12381E8F3E1235D58ED2
:103023003C8F3DC3EF953BEE953A7F0050027F0105
:10303300121B9D7405936F704B740393FF253EF52C
:103043003ED3EF64809480400F121BB9D3ED9F747D
:1030530080F86C984002802C121B9D740393C36408
:10306300809480500D121BB9C3ED9F7480F86C9847
:103073004012121B9D121BADE53EFB3395E0FA1285
:1030830033668098D3E53D953BE53C953A7F004018
:10309300027F01121B9D740593B50703D38001C3FF
:1030A300227DA37F897E0012381EEF122D02C004F9
:1030B300C005C006C007E4FBFAF97840122D2AD0F8
:1030C30003D002D001D0001202478F678E668D6550
:1030D3008C647DD07F887E0012381E8E688F697D58
:1030E300F07F877E0012381EE4FCFDC004C005C0DB
:1030F30006C007FEE569122D48D003D002D001D0E7
:10310300001205C1122D0CC004C005C006C007E59E
:1031130068C4F854F0C868FEE569C4540F48122D1A
:1031230002D003D002D001D00012004DAB67AA66D3
:10313300A965A86412013E228E508F518F828E831F
:10314300740993F552E552604614F553122D231278
:103153002C96FFAEF0C006C007122C99FFAEF012FA
:10316300393AE5512406122C8FF4FDE5F0F45EFEA6
:10317300EF5DFF122D23A3A3A3122C96FDEE45F0C2
:10318300FCEF4DFDD007D006123A62155280B612FD
:103193002D23741093F552E552603114F553E55124
:1031A300240A122C8FFFAEF0122D23741193FDE528
:1031B30052D39D40067C007D00800AE551240D1208
:1031C3002C8FFDACF0123A62155280CB22787FE44B
:1031D300F6D8FD75817E023217022AE6E493A3F83E
:1031E300E493A34003F68001F208DFF48029E4931B
:1031F300A3F85407240CC8C333C4540F4420C88312
:103203004004F456800146F6DFE4800B0102040813
:10321300102040809038E8E47E019360BCA3FF5403
:103223003F30E509541FFEE493A360010ECF54C061
:1032330025E060A840B8E493A3FAE493A3F8E493E9
:10324300A3C8C582C8CAC583CAF0A3C8C582C8CAF1
:10325300C583CADFE9DEE780BE1230A47B007AC8EB
:10326300792F784C120247E4FBFAF9783F12004DAC
:1032730012039B7B0D7A007D027C001238668F500F
:10328300E55025E025E0F5517DBB7F867E001238B1
:103293001EEF64014E70127DCB7F89FE12381E1221
:1032A3003A50E5518FF084F55175523FE552600F66
:1032B300E551C395525008E552C313F55280EDE52D
:1032C30052FB7A007D707F077E04123366AC50E4B4
:1032D3001203677B007AC8792F784C12013E1222C1
:1032E30083228E5A8F5B8C5C8D5DC3E55B94C7E54F
:1032F3005A940550067E037FFF80047E007F3F8E35
:103303005E8F5FE4F560F561C3E55C648094805093
:103313001AE55F2401FFE4355EFEEF4261EE426091
:10332300E55D255FFFE55C355E800FE55D255FCFDD
:10333300E55C355ECF2401CF3400FE123AA6E55E8C
:103343005EFEE55F5F4261EE4260AD61AC60AF5B24
:10335300AE5A123A62E5604480FCAD61AF5BAE5A8F
:10336300023A628A7B8B7CA9058F828E8312393A5B
:10337300AD07AC06E9C4540FFFE9540FFBC3EF9B41
:1033830004FF74FFFEA807088005C333CE33CED8ED
:10339300F9F4FFEEF4FEEFA803088005C333CE3340
:1033A300CED8F9F57E8E7DE9540FFFE57CAE7BA880
:1033B30007088005C333CE33CED8F9FFE57D5EFE23
:1033C300E57E5FFFE57EF4FBE57DF45CFCEB5DFDF4
:1033D300EC4EFCED4FFDAF82AE83023A628F828EDC
:1033E30083C3E58294C7E583940550067E037FFF7C
:1033F30080047E007F3F8E5A8F5BAF82AE83E4FDF5
:10340300FC123A62AF82AE837D007C40123A62AF17
:1034130082AE8312393A8E5C8F5DAF82AE83E55CF8
:10342300543FFCAD5D123A62E55C555AFEE55D55CD
:103433005BFFE55B2401FDE4355A555CFCE55D5D0E
:103443004C60077CFF7DFF120494227F207E0012D4
:10345300393A8E408F41E4F5427902E4F543E54180
:1034630054FCFFE540FCEF4543FD7F207E00123A0C
:1034730062E543C39405502DE54325E024E1300183
:10348300101236B41236C3E0FCA3E0FD123A628098
:103493000E1236B412393A1236C3EEF0A3EFF0052A
:1034A30042054380CC19E970B2AD41AC407F207E28
:1034B30000023A621230A48F5F8E5E8D5D8C5C7D5C
:1034C300CB7F897E0012381E122CB9122CDA8F633F
:1034D3008E628D618C607DBB7F867E0012381EEF0D
:1034E3004E7017300509AF63AE62AD61AC6022E484
:1034F300FBFA79807840122CDA2230050AAF5FAEEE
:103503005EAD5DAC5C8012E4FBFA79807840AF631A
:10351300AE62AD61AC6012024722E55575F002A4BC
:10352300FFAEF07C043004027C027D42EF2DF557A0
:10353300EE3CF556A20492051234B7122CC4AF54D4
:10354300AE53AD52AC51120247784F122CF78F5B3A
:103553008E5A8D598C5878101205EDAD07AC06AF15
:1035630057AE56123A62E5572401FFE43556FEACD6
:103573005AAD5B023A62E50CAD0DFCE4120362E462
:10358300FBFA797A7844120247C004C005C006C02A
:1035930007AC0BE4120367D003D002D001D00012B2
:1035A300004D7B007A247974784912013E8F258E71
:1035B300248D238C2230000A8F1C8E1B8D1A8C19AC
:1035C300800C852518852417852316852215E4F597
:1035D3009022C28CE513F58CE514F58AC28DD28C4A
:1035E300308DFD7DFF7F007E04123A1E7F0F7E0427
:1035F30012393AE48F778E76F575F5747F0E7E0473
:1036030012393A7E00EF5403FFE4FCFDC004C00509
:10361300C006C007AF77AE76AD75AC7478021206FC
:1036230000D003D002D001D0001205C1228F4A8EF0
:10363300498D488C47E4FFFE7DA07C41AB4AAA49F3
:10364300A948A84712013E7B007AC8792F784C120B
:103653001AEFF9783F121AD27B0D7A007D027C00B3
:10366300123866AC07E41203677B007AC8792F78B7
:103673004C12013E7B807A967918784B12004D12DA
:10368300228322E4FFFEFDFCAB35AA34A933A83222
:103693000202E4742D252FF8E622742B252FF8E679
:1036A30022E52F25E025E024FEF582E43403F583AB
:1036B30022F582E4343EF583E493FE740193FF2202
:1036C300E54225E024EAF582E43403F58322AF3AA8
:1036D300AE39AD38AC37228F3E8E3D8D3C8C3B7F6F
:1036E300057E0112393A8E3FEF54E9F540121AABC9
:1036F300AB3EAA3DA93CA83B1202E4600250124330
:1037030040107B017A00E4FD7F0B7E01123366805B
:1037130003434006AD40AC3F7F057E01023A627F22
:10372300207E0012393A8E508F51E55154036402C2
:1037330070307B01FA7D107F20FE1233667B017AA5
:1037430000E4FD7F0D7E011233667B017A007DEE7E
:103753007F007E01123366AD51AC507F207E001294
:103763003A62227F2B7E0012393A8F828E83E58361
:1037730064027F2B12379E7F2B122D41123A627FF8
:10378300207E0012393A8E838F82E58354557F2041
:1037930012379E7F20122D41023A62FCAD827E00D9
:1037A300123A62227F827E0012393A8F828E837FA1
:1037B300207E0012393AAD07AC06ED540364017064
:1037C300084305145382EB80064305285382F57F93
:1037D300207E00123A62AD82AC837F827E00023A81
:1037E300627907E925E024ADF582E4343FF583E40B
:1037F30093FE740193FFE925E024BBF582E4343F93
:10380300F583E493FC740193FD123A62D9D57BFFEF
:103813007AB97DF87F207E01023366A90512393A11
:10382300AC06AD07E9C4540F04FF74FFFEA80708F4
:103833008005C333CE33CED8F9F4FFEEF45CFEED4E
:103843005FFFE9540FFDEFA805088005CEC313CE33
:1038530013D8F9FF22FEC3E49559FDE49558FCAB58
:1038630059AA58C3EF9DEC6480F8EE648098500524
:10387300AE04AF0522D3EF9BEA6480F8EE64809830
:103883004005AE02AF032222C0E0C0D075D000C015
:1038930000C006C0077590FF7F02740A2FF8E6FE8A
:1038A300740B2FF8A606DFF285800B759000D00706
:1038B300D006D000D0D0D0E0321239B4123A37D289
:1038C300A27D10D2A0123A86EB25E0FBEA33FA3050
:1038D300A303430301C2A0123A86DDE7D2A1D2A219
:1038E300AE02AF032204154A989680021300010129
:1038F3001200021DFF0004194BEA6000C10AC189CE
:10390300C108020E002D0208020C0210040B007DF8
:10391300FF7C7F7F0C7E02123A627D557F007E0220
:10392300123A1E7D007C807F0C7E02123A627D6615
:103933007F007E02023A1E1239B4123A96D2A27D59
:1039430010D2A0EB25E0FBEA33FA30A303430301D3
:10395300C2A0DDEDD2A1D2A2AE02AF0322C28CE59A
:103963001DF58CE51EF58AC28DD28C308DFD300796
:10397300067E017F2380047E007F8C7DDC12381E4F
:10398300227590FFAF0FAE0E12393A8F828E83AF3E
:1039930009AE0812393AAD07AC06AF82AE83123ACC
:1039A300747F0022AB05AA04C2A0C2A1EE4480FE2C
:1039B30022E4FBFAC2A0C2A1EE547FFE22EF25E06F
:1039C300FFEE33FED2A022EFC3941550037F0122F2
:1039D300EFC3940D50037F0222EFC394087F00507E
:1039E300027F03227DDC7F237E0112381EEF6402F7
:1039F3004E7002D322D2061214DEEFC37001D3221B
:103A03007590FFAF0FAE0E12393A1238BCAD07AC4A
:103A130006AF11AE10123A627F00228E788F798D35
:103A23007AE4FBFA1233667B017A00AD7AAF79AEA2
:103A3300780233667D10C2A0123A86EE3392A21248
:103A43003A861239C0123A86DDECC2A02274017E96
:103A530000A807088005C333CE33CED8F9FF22125E
:103A630039A7123A96AF03AE02123A96D2A1D2A266
:103A7300221239A7123A37AF03AE02123A37D2A154
:103A8300D2A222C28C758CFF758AF0C28DD28C3083
:103A93008DFD227D10C2A0EE3392A21239C0DDF556
:103AA300C2A022EE30E707C3E49FFFE49EFE227527
:103AB30090FF85800AD20AD2083249AAE6004CF761
:103AC300F4904A9896804C1896804C3EBC204CF754
:103AD300F4900085010D011301140084008B000193
:103AE3000100000400100400210000070188003CCD
:103AF300001FF83FC1FF008200860087008800890D
:103B0300008A008C01000101010201030104010587
:103B13000106010701080109010A010C011501163B
:103B2300011701180119011A02000201020202031E
:103B33000204020502060207020802090240040009
:103B4300040104020403040404050406040704082E
:103B53000409040A040C04400081800349010400A1
:103B6300078000200514067B3409600131800612AA
:103B730000880007318C318C042661C1104C88C544
:103B830000098180280C018C528B2E02008D07FFC7
:103B930007FF00000000000000000000207000008C
:103BA3000020008107FF07FF400000000000000025
:103BB300000000000000100120380020FF3AD5FF6C
:103BC3003AE1FF3AED06FF3AF9FF3B5D3231010876
:103BD300FA021E01011352020E0100820085010048
:103BE300010C010D0084008B800100010000000026
:103BF300001E040021001FFF000700010001001E3A
:103C0300F83FC1FF0086008700880089008A008C86
:103C130001050106010701080109010A0115011641
:103C2300011701180119011A02000201020202031D
:103C330002040205020602070208024002410400D0
:103C4300040104020403040404050406040704082D
:103C53000409040A040C04400441008149010400DE
:103C6300078000200514067B3007318C318C058CCE
:103C730061C1104C000D8180280C618C528C2E0286
:103C8300008D07FF07FF0000000000000000000098
:103C9300007000200000008107FF07FF40000000C4
:103CA3000000000000000000000010012038002088
:103CB3000000FF3BDDFF3BEBFF3BF907FF3C07FF4A
:103CC3003C5F2C2B010AC8FF0001010AC8011F0039
:103CD3000108FA012B01000800040000FFFAFFF5B8
:103CE300FFF0FFECFFEAFFEAFFECFFF2FFFB000649
:103CF30000140022002E0038003D003A0030001D61
:103D03000003FFE3FFC1FFA0FF85FF74FF72FF8085
:103D1300FFA2FFD40014005D00A700E80118012EE4
:103D2300012300F4009F0029FF9AFEFEFE67FDE5D4
:103D3300FD8CFD6EFD9AFE1AFEF30022019D0354D5
:103D43000530071608E80A890BDE0CCD0D4903FF81
:103D5300008000080084008500AE0101020002011A
:103D63000202020804000001F0000001000C07FF3A
:103D730007FF0000F8FF0007F0001801000C07FF21
:103D830007FFF10B010C010D010E010F01100111D1
:103D9300011201130114011501160117011801196C
:103DA300011A04000401040204030407040A040CB6
:103DB30004400441044204430409040804060405BE
:103DC3000404008188E5009E204030C609940083E6
:103DD300403203DF008D00058180280C218C318067
:103DE3002E02008107FF07FF400007001001209803
:103DF300FF3D57FF3D67FF3D7708FF3D87FF3DC709
:103E030020160084008500AE010C010D011301157D
:103E1300011904000001F00000000046000C00003E
:103E23000000F8FF0007F000001A0046003CC00045
:103E330080000100010101020103010401050106E3
:103E4300010701080109010A020002010202020836
:103E5300024004000401040204030407040A040CDE
:103E6300044005C005CB0203020402050206020753
:103E7300024104040405040604080409044105C1BD
:103E830005C205C305C405C505C605C705C805C9DB
:103E930005CA05CC00813408600131800A1200880C
:103EA3000007318C318C042661C1104C008D07FF53
:103EB30007FF20700020008107FF07FF4000070075
:103EC30010002098002000FF2020FF3E05FF3E1534
:103ED300FF3E2508FF3E35FF3E99321A70000081F0
:103EE300010F0126040A040C000100110021000245
:103EF3000012002200320013002300330043002489
:103F03000034004400540035004500550065004668
:103F13000056006600760057006700770087006848
:103F230000780088009800790089009900A900AA08
:103F330000BA00CA00DA00DB00EB00FB010B011B37
:103F4300012B013B014B015B016B017B018B019B4E
:103F530001AB01BB01CB01DB01EB01FB01FC01FD6B
:103F630001FE01FF0021002F0081008200840084F4
:103F7300008500850086008C009200A700A800A899
:103F830000AD00AE010001040105010A010C01149A
:103F93000115011A0200020C024002610400040F21
:103FA30004400461050005A705C005C0011C011DEF
:103FB300011E011F012101220123AD4304000780DB
:083FC30036403404033F067B85
:00000001FF
