:100000000231B1E4F91223B8E9120022B93CF6E951
:10001000C39478500C1223B8C374779912002280CD
:10002000EE2225E024BAF582E4343CF583E493FC27
:09003000740193FD123A43092208
:03003B0002386C1C
:10004300023A93020407E86480F8E933E833601165
:100053000460F0ED33EC337009E8FCE9FDEAFEEBF4
:10006300FF220460DED3EB9FEA9EE99DE8C2E78CA2
:10007300F0C2F795F0400CE8CCF8E9CDF9EACEFAF6
:10008300EBCFFB1203D285D0F05804700320D5B315
:10009300E80470075002B2D502041192D5EC046053
:1000A300F7E4CCC0E0C398F8603B94186008400DB7
:1000B300D0E0FB0203E9E4FBFAC9FC8028E830E462
:1000C30006E4C9FBE4CAFCE830E305E4C9CACBFC97
:1000D300E854076010F8C3E913F9EA13FAEB13FBCA
:1000E300EC13FCD8F130F52FC3E49CFCEF9BFFEE3F
:1000F3009AFEED99FDD0E0FBEF4E4D4C701222DBE2
:100103000302040EEC2CFCEF33FFEE33FEED33FD64
:10011300ED30E7EB0203E9EF2BFFEE3AFEED39FD9D
:10012300D0E0FB50130BBB0003020411ED13FDEEF3
:1001330013FEEF13FFEC13FC0203E9EC4D6011E82F
:10014300497017ED33EC3304600DE4FCFFFEFD2230
:10015300E933E8330470F80204071203D258046049
:1001630009E4CC24815006285009020411284003D5
:1001730002040EC0E0EB4A7044B98006D0E0FB02F3
:1001830003FDEF4E701CBD8008EBFFEAFEE9FD8026
:10019300EBE98DF0A4FEE5F0020227E9CDF9EAFED2
:1001A300EBFFEF89F0A4FCE5F0CE89F0A42EFFE489
:1001B30035F0CD89F0A42DFEE435F08067EF4E7065
:1001C30005BD80D780C3EF8BF0A4ACF0EE8BF0A419
:1001D3002CFCE435F0F8EF8AF0A42CE5F038FCE4CD
:1001E30033CB8DF0A42CFCE5F03BF8EE8AF0A42C85
:1001F300FCE5F038F8E433CF89F0A42CFCE5F038C3
:10020300CF3400CE89F0A42FFFE5F03EFEE433C9DE
:100213008DF0A42EFEE5F039CD8AF0A42FFFE5F092
:100223003EFEE43DFD33D0E0FB50070BBB000F0265
:100233000411EC2CFCEF33FFEE33FEED33FD020330
:10024300E9020411EC5D046005E85904700302043B
:10025300071203D2580460F6EC4860F2EC7004FD18
:10026300FEFF22C860DB2481C85009C39860025096
:100273000602040E9850CAF582E9294B4A7005AB71
:10028300820203FD75F0007C1A7880C3EF9BEE9A1F
:10029300ED99400DC3EF9BFFEE9AFEED99FDE84209
:1002A300F0DC23ACF0D0E0FFD0E0FED0E0FDAB8289
:1002B30020E7101BEB60BAEC2CFCEF33FFEE33FEB0
:1002C300ED33FD0203E9E803F830E705C0F075F00C
:1002D30000EF2FFFEE33FEED33FD40B830E7C28071
:1002E300AA74F8CC6480CCC86480C8F58204604FDB
:1002F300C3EB9FF5F0EA9E42F0E99D42F0E89C458E
:10030300F0603C501DE5825FFFE582D313CB5BCBEE
:10031300F42B5582FB50280ABA002409B90020089F
:10032300801DE5825BFBE582D313CF5FCFF4C3135C
:100333002F5582FF50090EBE00050DBD00010CC3F1
:10034300EB9FF5F0EA9E42F0E99D42F0E89C45F010
:100353006007CC4820E701B3EC2275F020800E75CE
:10036300F010800575F0087D007E007F003392D584
:1003730030D5031205CEEC334010EF33FFEE33FEDE
:10038300ED33FDEC33FCD5F0ED22E5F0247EA2D570
:1003930013CC92E7CDCEFF22EDD2E7CD33EC3392EF
:1003A300D524814006E4FFFEFDFC22FCE4CFCECD44
:1003B300CC24E0501174FF80EDC3CC13CCCD13CD0E
:1003C300CE13CECF13CF0470F030D5DE0205CEE9C5
:1003D300D2E7C933E833F892D5EDD2E7CD33EC3326
:1003E300FC5002B2D522EC30E7100FBF000C0EBE5A
:1003F30000080DBD00040BEB6014A2D5EB13FCED5C
:1004030092E7FD2274FFFCFDFEFF22E480F8A2D5F3
:1004130074FF13FC7D80E480EFED33EC3360100454
:10042300700FED547F7005740292E022740422046D
:1004330022E422ED33EC33600A047003BD8004EC44
:10044300B2E7FC22C0E0EFFBEEFAEDF9ECF81201A3
:100453003ED0E0F5F0EFFBEEFAEDF9ECF812061FF3
:10046300A3A3A3A3E8C0E0E9C0E0EAC0E0EBC0E0D7
:10047300C0F012013E12062FA3A3A3A312004DD076
:10048300F0D0E0FBD0E0FAD0E0F9D0E0F8D5F0D43A
:1004930022EF8DF0A4A8F0CF8CF0A428CE8DF0A489
:1004A3002EFE22BC000BBE0029EF8DF084FFADF0C1
:1004B30022E4CCF875F008EF2FFFEE33FEEC33FCAB
:1004C300EE9DEC984005FCEE9DFE0FD5F0E9E4CEE1
:1004D300FD22EDF8F5F0EE8420D21CFEADF075F0B0
:1004E30008EF2FFFED33FD4007985006D5F0F222B9
:1004F300C398FD0FD5F0EA22C2D5EC30E709B2D597
:10050300E4C39DFDE49CFCEE30E715B2D5E4C39F44
:10051300FFE49EFE1204A6C3E49DFDE49CFC80035D
:100523001204A630D507C3E49FFFE49EFE22BB015D
:100533000A89828A83E0F5F0A3E022500687F00956
:10054300E71922BBFE07E3F5F009E3192289828A42
:1005530083E493F5F074019322BB0110E58229F53E
:1005630082E5833AF583E0F5F0A3E0225009E9251B
:1005730082F886F008E622BBFE0AE92582F8E2F556
:10058300F008E222E5832AF583E993F5F0A3E993E2
:1005930022F8BB0111E58229F582E5833AF583E868
:1005A300F0E5F0A3F0225009E92582C8F608A6F089
:1005B30022BBFE09E92582C8F2E5F008F222EF4BDF
:1005C300FFEE4AFEED49FDEC48FC22C3E49FFFE445
:1005D3009EFEE49DFDE49CFC22EB9FF5F0EA9E4227
:1005E300F0E99D42F0E89C45F022E8600FECC3136C
:1005F300FCED13FDEE13FEEF13FFD8F122E8600FBD
:10060300EFC333FFEE33FEED33FDEC33FCD8F122C1
:10061300E0FCA3E0FDA3E0FEA3E0FF22E493FC746F
:100623000193FD740293FE740393FF22E493F87421
:100633000193F9740293FA740393FB22ECF0A3ED94
:10064300F0A3EEF0A3EFF022E493FB740193FA74AA
:100653000293F922D083D082F8E493701274019349
:10066300700DA3A393F8740193F5828883E47374E4
:1006730002936860EFA3A3A380DF8F258E248D23CD
:100683008C227F207E0012391B8E308F31752B0B0D
:10069300752C0B752D1F752E1FC209C20112342F25
:1006A3007DFF7F817E001237FFEF4E7040F52F12E2
:1006B30009D67DFA7F087E011237FF7DFA1209F20F
:1006C3007DA67401FFFE1237FF7D951209F27D515D
:1006D3007401FFFE1237FFAA06AB077D407F257E1C
:1006E30001123347052FE52FC3940240C27B017AE1
:1006F300007DFF7F817E00123347E4F52F1209D678
:100703007B1F7D95120A157B047D40120A15123654
:100713007E75F004A4FDACF012367775F040A4FFAB
:10072300E5F04CFEEF4D120A1FC201C2021217B6CA
:100733008F2A7D007C107F0A7E04123A437D661265
:1007430009FE7D777F0C7E041237FFEF4E70117B1D
:1007530001FA7DFE7F0C7E041233477DCC1209FE25
:100763007F007E0412391BEE540FFEE52F25E02493
:1007730026F8A60608A607052FE52FC39402500303
:10078300020700122DF2300A030209BEE4F52FE539
:100793002FC3940250F0C200E52F2401FFE433FE7F
:1007A300E53154FCFDEE4530FCEF4D7F207E001219
:1007B3000A09E6FC08E67F007E04120A09E6FE0841
:1007C300E6FFEE4480FCAD077F007E04123A437FD0
:1007D3000F7E0412391BE48F3A8E39F538F5377FD3
:1007E3000E7E0412391B7E00EF5403FFE4FCFDC0B0
:1007F30004C005C006C0071236B27802120600D044
:1008030003D002D001D0001205C18F3A8E398D3842
:100813008C37123685120613AB3AAA39A938A83792
:10082300C31205DC70030209B9E4FFFEFDFCA8371F
:10083300C31205DC70030209B91236B212368512EF
:10084300063F12367EFFD39409500CC3740B9F7579
:10085300F003A4F5368008E6FFC3740F9FF536AFA7
:1008630025AE24AD23AC22E412035DC004C005C051
:1008730006C0071236B2E412035DA804A905AA064E
:10088300AB07D007D006D005D004120247121BEFE6
:10089300E4FBFA79A0784112013E8F358E348D3313
:1008A3008C3212366750447F007E407D017C00AB62
:1008B3003AAA39A938A8371205DC402F1236772413
:1008C300F4FFE434FFFE7B1F7A00E4FDFC1238479B
:1008D300742D252FF8A60712367E24FDFFE434FF7E
:1008E300FE7B0F123847742B02097B1236674019BF
:1008F30012366760025003020982123677FFE5362B
:10090300241FC39FD394004076123677FFC3741E0F
:1009130095362FF53BFC120367AB35AA34A933A8F0
:100923003212004D12039B7B3D7A00E4FDFC12382A
:1009330047EF25E0FFEE33FE74CC2FF582743E3E85
:10094300F583E493F53C740193F53D540FF9F53EBB
:10095300E53CC4F854F0C8E53DC4540F48541FFFA8
:10096300F53F123677B53F0712367E653E60107449
:100973002B252FF8A601742D252FF8A607D20030BA
:100983000034123677FF1239ABEF753C0033333343
:1009930054F8F53B12367775F040A4FFE53B45F07C
:1009A300FCE53C4FFD12367E75F004A4FFEC45F0E8
:1009B300FEED4F120A1F052F020792D20112342FA8
:1009C300AD31AC307F207E00123A43123747D20953
:1009D300AF2A22E52F2401FFE433FEE53154FCFD69
:1009E300EE4530FCEF4DFD7F207E00123A4322AAF4
:1009F30006AB077F257E0112334722E4FBFA7F0C07
:100A03007E0412334722FD123A43E52F25E02426C4
:100A1300F8227A007F0F7E0112334722AC0644028C
:100A2300FD7F267E01123A43228F258E248D238C4F
:100A330022E4F528121BB11237FFEF64014E702236
:100A4300FF7E247D747C4AAB25AA24A923A8221205
:100A530002E4500E752C00752B24752AF475294970
:100A63008016121B77AF25AE24AD23AC22120247AA
:100A73008F2C8E2B8D2A8C29C203122041AF2CAED2
:100A83002BAD2AAC29120DBC8F28E5286003020C7C
:100A9300F7122DF27E3B7FB87D007C27122FEC7E70
:100AA3003B7FB27D007C27122FEC7FFA7EED7DEB3E
:100AB3007CBA121B0C121B15121AD079A0784112A2
:100AC30002478F4E8E4D8D4C8C4B7F007E007D20D8
:100AD3007C41121F2AC004C005C006C0071235B6E8
:100AE300121B2CD003D002D001D00012013E1203FE
:100AF3009B8E268F277F607EFE7D4D7C4C121B0CC8
:100B03001202E460054003020C8AC2047F667E661B
:100B13007DA6121A767FE27EB87D007C4E120049D4
:100B23008F538E528D518C501213298F28E52860D4
:100B330003020CF7C2047F667E667DA67C3F121B10
:100B43000C12013E8F548E538D528C51E4F5551285
:100B530034FE7F407E547D897C4B121B0C1202E4D1
:100B63005011752D01752E177531A0753202752F31
:100B730008800F752D01752E16753170753201754C
:100B83002F017530007DFB7F167E011237FF8F34F6
:100B9300852F3D85303EAB27AA26AD31AF2EAE2D36
:100BA3001229E88F33EF6036B40204AF328005E5D3
:100BB30032F404FFEF2534F534C364809480401E7F
:100BC300E5346480F8741F6480984012E534FB3385
:100BD30095E0FA7DFB7F167E0112334780B2E53341
:100BE300600675280C020CF7120D6F6003020CF7F8
:100BF300120D94121BB11237FF8F35E53564036074
:100C030005E535B40212121A707F887E457DC87CD3
:100C13004E121AD079208015E535B4011B121A70D3
:100C23007FBB7EEE7DA07C4F121AD0797078C11203
:100C33001AB38E338F348006752809020CF77BFFB5
:100C43007A0FE4FDFCAF34AE331238478E338F3462
:100C5300AB34AA337DB0120DA98F36E535B401024A
:100C63000536AF367E00121AED123847AA06AB07D7
:100C73007DFC120DA9121AE5123847AA06AB07121A
:100C83001BB81233478008120D6F7068120D9475EC
:100C93003D10753E00AB27AA267DB07F127E011260
:100CA30029E8EF600575280D804A7F127E0112390D
:100CB3001B8E2D8F2E7F177E0112391B8E2F8F30A7
:100CC3007F1A7E0112391B8E318F327F167E0112FD
:100CD300391BEE5407F5338F34121B871237FF8FFE
:100CE300357DFD7F187E011237FF8F36121BB81238
:100CF30037FF8F37D203122041E5286002FF22AD70
:100D03002EAC2D7F127E01123A43AD30AC2F7F17EC
:100D13007E01123A43AD32AC317F1A7E01123A435F
:100D2300E5334480FCAD347F167E01123A43E53649
:100D3300C43354E04401FC748CFD7F187E01123AE5
:100D430043E53775F020A4ACF04410FD7F147E0119
:100D5300123A437B947A027DE57F197E0112334771
:100D6300E535FB121B851233477F0022C204AB2CEF
:100D7300AA2BA92AA8297FE27EB87D007C4E120007
:100D8300498F538E528D518C501213298F28E52889
:100D930022C204852C54852B53852A52852951E47C
:100DA300F5551234FE227F127E01123347AE33AF64
:100DB300347C007D641204A6228F3B8E3A8D398CDD
:100DC300387F207E0012391B8E3C8F3D121BB112DF
:100DD30037FF8F3E7D407F197E011237FF8F3F9093
:100DE3003A9E121A8F121AA34010121B77903AA23E
:100DF300121A95121AA3600540037F08227E3B7FD7
:100E0300A012311CE53EFB7D107F131210D3E53F8A
:100E1300B41F047B168003E53FFB7D407F1912104E
:100E2300D3AF3BAE3AAD39AC38123611EF60012285
:100E33007B011210DBC2047553E27552B875510081
:100E430075504E121329EF6001227B021210DBD280
:100E53000475535675522175510375504E1213295B
:100E6300EF600122AD3DAC3C7F207E00123A43127D
:100E730038F3D20475548075539675521875514BD7
:100E8300E4F5551234FEC204E4F554F553F552F576
:100E930051F5551234FE121A9B6002500D7D017CF0
:100EA300001210EA7B0F7A008078E53ED39401406C
:100EB300197F887E457DC87C4E121AC8792078C177
:100EC300121AB3121B218F428024E53E6401701B6A
:100ED3007FBB7EEE7DA07C4F121AC8797078C11259
:100EE3001AB3121B21EF04F54280037F0922AF429C
:100EF300EF3395E0121AEC123847EFF5837BFF7A54
:100F03000FAF41AE40123847EE4583FCEFFD1210A0
:100F1300EAAE40AF41121B25121AE5123847AA0662
:100F2300AB07121BB8123347E53F75F00A84FCE4A4
:100F33001203678F4E8E4D8D4C8C4B7F667E667D84
:100F4300267C3F121F2AE4FBFA79D7784312013E2D
:100F53007B337AB379DC78C212004D7B9A7A997924
:100F6300A37841121AD079807841121AB38F40AF17
:100F73003F1239ABEFFDAF40EF25E0FC7F1A7E0156
:100F8300123A437F407E547D897C4B121AA340035F
:100F93000210207B021210C7E4FBFA12109A7FFCA6
:100FA3007EBE7D007C4F12024779CE121AAE7BFFC4
:100FB3007A07E4FDFC1238478E448F457546057F5A
:100FC300C07EE17D647C4B121ABD50037546047DDF
:100FD300187C4B121AB950037546037D987C4A124C
:100FE3001AB950037546027F007E1B7D377C4A1277
:100FF3001ABD50037546017F007EE67DAA7C491227
:101003001ABD5003E4F546E54633333354F84544FB
:10101300FCE545FD7F177E01123A438071121A9B4E
:10102300600250557B011210C77B017A0012109A9F
:101033007F5E7ED07DB27C4F1202477948121AAE92
:10104300121B041238478F447B807A967918784BA9
:10105300AF43AE42AD41AC40121AD0794078C012D2
:101063001AB37B077A00E4FDFC1238478F45EFFA89
:10107300E544FB7DA07F1680107B03121B85123392
:10108300477B027A007DFD7F187E011233471237BA
:10109300031237887F00227DFD7F187E01123347BC
:1010A3007F667E667DA67C3FAB3BAA3AA939A8380A
:1010B30012013E8F438E428D418C40AB43AA42A91D
:1010C30041A840227A007D327F157E0112334722E8
:1010D3007A007E01123347227A007D107F207E0042
:1010E3001233471237C5227F127E01123A43228FF1
:1010F300328E318D308C2F7F207E0012391B8E3340
:101103008F347E3C7F9612311C121B581236BB1251
:101113001A8C121B611202E4600540030211B67FB0
:10112300CD7ECC7D4C7C3F121B61121B151212EF3E
:101133007BCE7A4079E878B812013EC004C005C07E
:1011430006C0071212BF7B957AB77915782512016D
:101153003ED003D002D001D00012004DC004C00520
:10116300C006C0071213097B757AEC7935783B12F8
:10117300013ED003D002D001D00012004DC004C004
:1011830005C006C0077FB47E4E7DA87C41121BA616
:10119300D003D002D001D00012004D7B157AA37981
:1011A30041121AB1121B00123847AA06AB077D7011
:1011B30002123F121B18121B581212EF7B347A0AC9
:1011C300795D78B912013EC004C005C006C007129C
:1011D30012BF7B667A277994783512013ED003D00B
:1011E30002D001D00012004DC004C005C006C007E4
:1011F3001213097BAC7A0D799C783C12013ED00323
:10120300D002D001D00012004DC004C005C006C0FA
:10121300077F437E727DB77C3F121BA6D003D002AB
:10122300D001D00012004D7BC37AC7793E121AB1A8
:10123300121B00123847AA06AB077DF87F097E010F
:10124300123347121B58123611EF6001227B011231
:1012530012D67B021212D6AD34AC337F207E00123D
:101263003A431238F3D204755400755324755274FB
:1012730012131FD204853254853153853052852F82
:10128300517555011234FEC2047554007553BA7575
:10129300525B12131FC2047F007E507DC37CC712B2
:1012A3001B6112004D8F548E538D528C5175550115
:1012B3001234FE1237031237887F0022E4F54EF50D
:1012C3004D754C80754B40AF38AE37AD36AC3512EB
:1012D3001F2A227A007D107F207E001233477B0174
:1012E3007A007D117F1C7E01123347221202478F41
:1012F300388E378D368C35E4F54EF54D754C40758B
:101303004B40121F2A22E4F54EF54DF54C754B4028
:10131300AF38AE37AD36AC35121F2A22755149E4CA
:10132300F5551234FE227F207E0012391B8E548F16
:10133300557A003004047B0280027B017D107F20FC
:101343007E00123347756207AF62123A31AC06ADC5
:1013530007E4120362AB53AA52A951A85012013EEB
:101363008F598E588D578C567F667E7F7D62122CE7
:10137300AE400D7F267EE57DE5122CAE6005400371
:10138300D562C5E56224FFFBE434FFFA7D867F1F47
:101393007E011233477FAC7EE97DA3122CAE7F0022
:1013A300600440027F018F62EFFB7A007DAA7F1CFD
:1013B3007E01123347E5622401FDE433FCE41203AA
:1013C30062AB1CAA1BA91AA81912013E122CA5AFC5
:1013D30059AE58AD57AC561202478F618E608D5F80
:1013E3008C5E12039BE412035D122CA5AF61AE6009
:1013F300AD5FAC5E1200497849122CD88F5D8E5CCC
:101403008D5B8C5A7CC0AB61AA60A95FA85E122C6D
:10141300C67F1E7E01123347AF5DAE5CAD5BAC5A37
:10142300122D167F1E7E01123347E55DFFE55CFE3C
:10143300AD07AC067F1D7E01123A43C2057559FF05
:10144300E4F556E5561214B2D2061214BFEF702A11
:101453007DA37F217E011237FF8F5AEF2480FFE4A3
:1014630034FFFE123A878F5BE55BC39559500985BC
:101473005B59855657855A58D2050556E556C39488
:101483000340C0E5571214B2E558FB7A007DA37FF1
:10149300217E01123347AD55AC547F207E00123AB2
:1014A300432005087F033004027F04227F0022FBD0
:1014B3007A007D217F217E0112334722E4F56A758C
:1014C3006B7F756D80756EFFF56CF56F3006137568
:1014D30067017568217569A3FBFA7D217F1C7E0175
:1014E300801175670075688B756981E4FBFA7D214E
:1014F3007F86FE1233477F187EB77DD17C37AB1CC6
:10150300AA1BA91AA819122CDDC374FF9FF51E7418
:10151300FF9EF51DE4FBFA121634A2069207123958
:1015230041BF03037F01227BFF121621EF70037F6C
:101533000122E4F570757140E571604E122C93241D
:101543006AF8E64571F612160D8F72E572B4030C54
:10155300122C93246AF8E66571F68026E57264021C
:101563007020122C93246B122C90246AF8E6D39FDC
:101573005010122C93246CF87601122C88246BF8EB
:10158300A607E571C313F57180AE122C93246BF893
:10159300E6601F12160DEF6402600E122C88246B96
:1015A300F8E6C39F500C068009122C93246BF8169F
:1015B30080D80570E570C394025003021538E56FB7
:1015C3006018C3E56A956BFFC3E56D956EFEC39F17
:1015D3004008EE13256EF570800BC3E56A956BC367
:1015E30013256BF570E570FB121621EF6402600A98
:1015F3000570E570FB7A00121634A20692071239C1
:1016030041BF02037F00227F0122FB7A00AD69AF55
:1016130068AE67123347A2069207123941227A0055
:10162300AD69AF68AE67123347A20692071239411C
:1016330022AD69AF68AE67123347227F207E001266
:10164300391B8E2B8F2CE52C540364017006FBFA97
:101653007D448005E4FBFA7D337F82FE1233477EAF
:101663003D7FD412311C12000312323DA907E960F9
:1016730001227B011223971233471237C57BFF7A6E
:10168300007D707F207E01123347D204122824C0CC
:1016930004C005C006C00712236C1223DCD007D098
:1016A30006D005D0041200497B007A24797478C9E6
:1016B30012004D8F308E2F8D2E8C2DC204122407D5
:1016C300121329A907E960061217AAAF01221223F0
:1016D300951233477A001224241233471239C84033
:1016E300061217AA7F0422AD2CAC2B7F207E00129A
:1016F3003A431238F3D20412236C1223891234FEB4
:1017030012242F1237FF8F2D300154E4FBFA7D771B
:101713007F0C7E01123347E52D64016006E52D64DD
:10172300027039E5125403F52EFB7A001217A0E577
:101733002E24FFFFE434FFFEEFF4FBEEF4FA7D21E9
:101743007F0D7E01123347E52D147F0070027F0168
:10175300E5121313543F6F602E7F07227F0722E5A4
:101763002D64016009E52D640260037F0722E52DE6
:101773002401FBE433FA1217A07D657F0C12179343
:101783007D437F0D1217931237031237887F002290
:10179300E52D6403FB7A007E01123347227D877FA8
:1017A3000D7E0112334722AD2CAC2B7F207E00121D
:1017B3003A43227F207E0012391B8E418F42C2039F
:1017C300122041A201920312191C8F40E5406003CD
:1017D300021869122DF2122D323002030218692009
:1017E30001261224601237FFBF020C7D551218FA2E
:1017F300E4FBFA7D33800A7D661218FAE4FBFA7D76
:10180300447F0D7E0112334712239512334712246E
:10181300261237FFEF4E701BFA1224241233477B34
:1018230001122397123347E4FBFA7D117F1C7E01DB
:10183300123347121910AF18AE17AD16AC15A2012B
:1018430092031229078F40E540701B7DDD121905B5
:101853001223A012334712236A78471223801234CB
:10186300FEC20312265B7DA07F027E041237FF8E29
:10187300438F447DA07F017E041237FF8E458F4640
:101883007DB07F037E041237FF8E478F48D2031249
:101893002041121910E5406002FF22200227AB44C9
:1018A300AA437DA07F027E04123347AB46AA457D3F
:1018B300A07F017E04123347AB48AA477DB07F0364
:1018C3007E041233471223D1123347E54230E00737
:1018D300E4FBFA7D668005E4FBFA7D777FC07E0535
:1018E3001233477D20121905E4FBFA7D887F0C7EB5
:1018F300041233477F0022E4FBFA7F0C7E0112338C
:101903004722E4FBFA7F0C7E0412334722AD42AC3C
:10191300417F207E00123A43227F207E0012391B32
:101923008E4A8F4B7E3E7FAE12311CE54B540364CF
:10193300017006FBFA7D228005E4FBFA7D117F82AC
:10194300FE123347300327E51213135401FFC37408
:10195300029FF54CFB12242D1233471224601237D9
:10196300FFE51254036F7001EE60287F06221224F4
:10197300601237FFEE7019EF14600B24FE6007044A
:10198300700E7B0180027B0212242D1233478003E9
:101993007F06221223951233471224261237FFEFB4
:1019A3004E70327B01FA7D107F20FE121A5CD20446
:1019B300122824C004C005C006C00712236C1223DA
:1019C300DCD007D006D005D00412004978CB12230F
:1019D300FEC20480387B011223971233471239C8A1
:1019E30040037F0322C2041228248F4F8E4E8D4D55
:1019F3008C4C122395121A5CD20412236CAB4FAA9F
:101A03004EA94DA84C12004D784B1223FE121329F8
:101A13008F49AD4BAC4A7F207E00123A43E54960C3
:101A230002FF221238F312323D8F49E54960012249
:101A3300120003D2047554407553547552097551FD
:101A43004BE4F5551234FE12236A12237E1234FE40
:101A53001237031237887F00221233471237C57BB0
:101A6300FF7A007D707F207E01123347227FEC7E58
:101A7300517D387C3FAB2CAA2BA92AA82912013E01
:101A8300A804A905AA06AB0722903AAAE4FBFAF92F
:101A9300784012061F0202477F607EFE7D4D7C4C1C
:101AA300AB3BAA3AA939A8380202E4E4FBFA78C2AC
:101AB30012004D02039B7F807E96AB43AA42A9414D
:101AC300A8400202E4AB3BAA3AA939A8381202475C
:101AD300E4FBFA2212061FAB25AA24A923A822029B
:101AE30002E4C3740F9FFFE49EFE7B0F7A00E4FDC4
:101AF300FC22AE3BAF3CE4FCFDC30205DC8E398F18
:101B03003A7BFF7A00E4FDFC22AB2CAA2BA92AA87E
:101B1300292212013E7B007A2479747849228E406F
:101B23008F417C007D640204FBE412035D7B817AB8
:101B3300047935783F02013EE4FBFA7D417F402280
:101B43007DC87F0A7E0122C3E5409544F540E53F09
:101B53009543F53F22AF32AE31AD30AC2F22AB32DD
:101B6300AA31A930A82F22E5442540F540E54335A5
:101B73003FF53F22E4FBFAF9784022853982853824
:101B830083227A007D327F157E0122E493FE740165
:101B930093FF740293FD22740493FFAD3EED3395DE
:101BA300E0FC22AB38AA37A936A83502013E7D10E6
:101BB3007F137E01227D857F147E01223E9248DAC7
:101BC3003ECCCCCD3F2AAAAB400000003F800000B2
:101BD3003F9837F03FB504F33FD744FC3E317217CB
:101BE3003EB172173F0515913EDE5BD9D2018002EB
:101BF300C201EDD2E7F8CD33EC3304700BBD8005A1
:101C030092D502041102040740FBD31460F2F5F0ED
:101C13007C3FEE7A00C39496C8948B40230AC89401
:101C230069C8941A401A0AC89468C8941F40110AD4
:101C3300C8945AC89425400805F07A00CDC2E7CD70
:101C4300C0F08C518D528E538F54EA2323C0E0246D
:101C5300CFF582E4341BF58312062F12004DECC03E
:101C6300E0EDC0E0EEC0E0EFC0E012061FA851A90E
:101C730052AA53AB54120049D0E0FBD0E0FAD0E0B3
:101C8300F9D0E0B2E7F81202478C518D528E538F90
:101C930054901BBF7403120447A851A952AA53AB13
:101CA3005412013ED0E0600F24DBF582E4341BF5CF
:101CB3008312062F12004D8C518D528E538F54D0A8
:101CC300E0C3947FFDE49400FC1203627B187A72F4
:101CD3007931783F12013EA851A952AA53AB54124D
:101CE300004D30010B7BD97A5B79DE783E12013EE1
:101CF30022752B50752C007D221223A2123347121A
:101D030023A012334712236AE4FBFAF97840120145
:101D13003E7B007ABA795B78491223861234FE7DC2
:101D2300407F197E011237FF8F2D30010EE4F52E0F
:101D3300E52E7D967F13121E0780367D527F137E1C
:101D4300011237FF8F2E802912244C4003021DDD20
:101D5300E52EC3940F4003021DDD052EE52EFB7A0D
:101D6300003001047D9680027D527F137E01123381
:101D7300471235B68E2F8F3080CEE52DC394195080
:101D830061E52E640F705B12244C5056E52DC3940D
:101D930019504F052DE52D7D407F19121E07123571
:101DA300B68E2F8F30AC2FAD30E4120362C004C067
:101DB30005C006C007AC31AD32E41203621223DC66
:101DC300D007D006D005D0041202477B667A667925
:101DD30086783F1202E460025008852F3185303245
:101DE3008098C3E5309421E52F940B50057E007F46
:101DF30005227D771223E71233471223E512334777
:101E0300E4FEFF22FB7A007E01123347221223995C
:101E13001237FF8F3D122456123347E4FBFA7D88B5
:101E23007F087E021233471223A012334712244144
:101E33001233471223D1123347752DA07536A0E50F
:101E43003DB40117752B05752CC37534057535C461
:101E53007D44121F1FE4FBFAFD8016752B05752CBC
:101E6300C57534057535C67D55121F1FE4FBFA7D14
:101E7300117FC07E05123347E4FDFCAF2CAE2B125D
:101E830032C6E4FDFCAF35AE341232C6E4F52EF5AE
:101E93002FF537F538F53E1223AAE493FE74019328
:101EA300FFC3E52F9FFFE52E9EFE7BFF7A037D0098
:101EB3007CFC1238478E308F311223AA740193258C
:101EC3002FFFE493352EFE1238478E328F331223C1
:101ED300AAE493FE740193FFC3E5389FFFE5379EA1
:101EE300FE1238478E398F3A1223AA74019325388C
:101EF300FFE4933537FE1238478E3B8F3C7B007AE5
:101F030000792B122B9C7B007A007934122B9C05D1
:101F13003EE53EC394035003021E9A22E4FBFA7F7C
:101F2300C07E05123347228F4A8E498D488C47E481
:101F3300FFFE7D807C3FAB4AAA49A948A84712020D
:101F4300E47009AF4AAE49AD48AC4722AF4AAE4947
:101F5300AD48AC4712041CFBAF4EAE4DAD4CAC4B81
:101F630012041CFFBF0108E4FFFE7D807C3F22EFCB
:101F730064046022EB6404601DBB0127E4FFFEFDE3
:101F8300FCAB4EAA4DA94CA84B1202E460084006D4
:101F9300E4FFFEFDFC2274FFF54EF54DF54CF54BC9
:101FA300022038E4F54FF550FFFEFDFCAB4AAA4989
:101FB300A948A8471202E4504BAF4EAE4DAD4CAC0E
:101FC3004B12039B8E4F8F50AC4FAD50EC120362FC
:101FD300C8ECC8C9EDC9CAEECACBEFCBAF4EAE4D04
:101FE300AD4CAC4B120049E4FBFAF9F81202E47071
:101FF300A5AF4AAE49AD48AC471204368F4A8E4965
:102003008D488C47AF4AAE49AD48AC47121BF3AB82
:102013004EAA4DA94CA84B12013E122F8A8F4E8E09
:102023004D8D4C8C4BE55030E00B1204368F4E8EA9
:102033004D8D4C8C4BAF4EAE4DAD4CAC4B22E4F5BD
:1020430049F54A7F20FE12391B8E4D8F4E20030A1D
:102053009003E8E54DF0A3E54EF07924E9605225BD
:10206300E02444F582E4343FF583E493F54B7401B3
:1020730093F54CE925E02446F582E4343FF583C328
:10208300740193954CE493954B4022300305122140
:10209300358008122116ECF0A3EDF0054AE54A70ED
:1020A300020549054CE54C70CA054B80C6191980D9
:1020B300ABE4F9E924FDFDE434FFFC7F207E00124C
:1020C3003A43754B01754C1C3003051221358008CA
:1020D300122116ECF0A3EDF0054AE54A700205491A
:1020E300054CE54C7002054BD39423E54B9401401A
:1020F300D709E9640270BC30030D1237479003E837
:10210300E0FCA3E0FD8004AD4EAC4D7F207E0012C9
:102113003A4322AF4CAE4B12391BAC06AD07E54A2E
:1021230025E0FFE54933FE74002FF58274003EF588
:102133008322E54A25E0FFE54933FE74002FF5824B
:1021430074003EF583E0FCA3E0FDAF4CAE4B123AC6
:1021530043228F258E248D238C22903AA6121AD7E0
:10216300400A903AB2121AD7600540037F0A22123E
:102173001B77AF25AE24AD23AC221202478F298EE5
:10218300288D278C26903AAA121AD7601B401990E3
:102193003AAE121AD75011121B77903AAE121A9513
:1021A3008F298E288D278C26C203122041AF29AE9A
:1021B30028AD27AC261210F28F2AE52A7061122D62
:1021C300F2121B3B7E04123347121B3B7E02123377
:1021D300477E3C7FB47D007C27122FEC121A8CAB18
:1021E30029AA28A927A8261202E4600250047D70B8
:1021F300800F7B027A007D607F1A7E011233477D58
:10220300F87F097E011224678F2A121B431237FFBE
:102213008E2B8F2C7F097E0112391B8E2D8F2ED290
:1022230003122041E52A6002FF22AB2CAA2B121BCA
:10223300431233477D8C7C317F067E01123A437D06
:102243008C7F077E01123A43AD2EAC2D7F097E01B0
:10225300123A43AF29AE28AD27AC261236BB7F0016
:10226300228F568E558D548C53122CFB7FD77E3C78
:102273007DAF7C4E120247E4FBFA798078BF1200EF
:102283004D12039B8F5F122CFB7FED7E127D667CCC
:102293004E12024712039B8F60E560255FFFE43314
:1022A300C313EF13F5612401FFE433FEEF25E0FDD3
:1022B300EE33FCE4120362122CFB12013E8F5A8EA2
:1022C300598D588C57E561FB7A007DA37F891223D2
:1022D300518F5E8E5D8D5C8C5B7CBFAB5EAA5DA90E
:1022E3005CA85B122CC67F8812235112039BE41255
:1022F300035D122CA5AF5EAE5DAD5CAC5B12004915
:102303008F628E618D608C5FE4FFFE7D807C49ABC4
:1023130062AA61A960A85F122CDD8F668E658D6449
:102323008C63E4AB07AA067DF07F87FE123347AFC9
:1023330066AE65AD64AC63122D167F887E001233E2
:1023430047C2061214BFEF7F0060027F02227E00A5
:10235300123347AB1CAA1BA91AA819AF5AAE59AD21
:1023630058AC5712024722C204AF18AE17AD16ACD1
:102373001579A07840E4FBFA02024778C77B007A1C
:102383005079C312004D8F548E538D528C51E4F506
:1023930055227B027A007D107F207E00227D77E428
:1023A300FBFA7F0C7E0422E53E25E02432F582E42D
:1023B300343DF58322E975F0288475F018A4FFE90C
:1023C3002400FDE43405CD2FFFED35F0FE227B0123
:1023D3007A007DFF7FC07E0522A804A905AA06AB6B
:1023E30007227D227B017A007F0C7E0422D3903E5C
:1023F300C0740193954EE493954D227B407A5479B2
:102403000912004D8F538E528D518C5022C3E568B3
:10241300956AE567956922C3E5439545E542954489
:10242300227B017D667F1C7E01227A007DBA7F03B9
:102433007E0122FEC3EF9401EE64809480227B012F
:102443007A007D337F087E0222C3E530952CE52F89
:10245300952B227B017A00E4FDFF7E01227D877F9D
:102463000D7E01228E2F8F308D31753206121B3B6C
:102473007E02123347121B3B7E041233471235B6DA
:10248300121B2C12039B8E338F347E021225587E2F
:10249300041225581235B6121A83AE33AF34121A0A
:1024A300F9500CE4F535753619D201C202800A756C
:1024B300351F7536F6C201D2023001067E3C7FA875
:1024C30080047E3C7FAEAD34AC33122FEC920020FF
:1024D300004A121B431237FFEF65357001EE703C63
:1024E300AD31AF30AE2F1237FF8F37E5376003B40E
:1024F300FF037F0022AF36EF3395E0FEE5372FFF72
:10250300E43EFE121B04123847AA06AB07AD31AFF7
:1025130030AE2F1233477B107A00801F3002221215
:102523001B431237FF8F370537AF377E007B1F7A88
:1025330000E4FDFC1238478F37EFFB121B431233C5
:10254300471532200007E53260030224707F0E3006
:1025530000027F00227B017A007D417F40123347D6
:10256300227F207E0012391B8E228F23C20312206A
:1025730041A200920112163E8F24E5247043122DCE
:10258300F2122D32A2009201121CF48F24E5247062
:1025930030122D3212236A7B007ABA795B784912A2
:1025A30023861234FE121E10C2047554007553BAEA
:1025B30075525B755149E4F5551234FED203122668
:1025C3005B7DA07402FFFE1237FF8E258F267DA050
:1025D3007F017E021237FF8E278F287DB07F037E17
:1025E300021237FF8E298F2AD203122041AD23AC6A
:1025F300227F207E00123A43E5246002FF22AB26AD
:10260300AA257DA07402FFFE123347AB28AA277DBB
:10261300A07F017E02123347AB2AAA297DB07F0334
:102623007E021233471223D1123347E52330E007EA
:10263300E4FBFA7D448005E4FBFA7D557FC07E050B
:10264300123347122441123347E4FBFA7D107F080B
:102653007E021233477F00227BFF7A3C79BA8B4993
:102663008A4A894B755BA07552B0300310754E02D0
:10267300754F017402F54CF54DF550800F754E04FE
:10268300754F01754C04754D0275500475510375F2
:1026930057007558807555FF7556807F5012274037
:1026A3007DBF1227367DFF12272E1235B68E628F1D
:1026B300637DFF1227367DBFAF4FAE4E123A4312F2
:1026C30035B68E648F65C3E5639565E562956450A1
:1026D30008854C59854D5A8006854E59854F5A7D3C
:1026E300FF7C0712272E7560077561FF755E057500
:1026F3005FFF7F59122740E5542410F558E4355302
:10270300F557E55424F0F556E55334FFF5557F505E
:10271300122740AD5DAC5CAF5AAE59123A43AB548D
:10272300AA53AD52AF51AE50023347AF4FAE4E1224
:102733003A43227C07AF4DAE4C123A43228F667464
:10274300FFF567F568A807E82405F8E6F56B08E6E2
:10275300F56CA807E82407F8E6F56D08E6F56EA81A
:1027630007E6F57108E6F572A807E82402F8E6F52E
:1027730073FD1228158E698F6AC3E56E956CFFE5AC
:102783006D956B122436405E7C007D021204FB8E35
:102793006F8F70122410500BAD731228158E698F32
:1027A3006A8014AB6CAA6BAD73AF72AE7112334710
:1027B3001235B68E678F68D3E5709400E56F648039
:1027C30094804022122410500FC3E56E9570F56E6D
:1027D300E56D956FF56D80A1E570256CF56CE56F82
:1027E300356BF56B80931224105006AE6BAF6C8083
:1027F30004AE6DAF6EE5662403F8A60608A607E5EA
:10280300662403F8E6FA08E6FBAD73AF72AE710215
:102813003347AB6EAA6DAF72AE711233471235B642
:10282300227F207E0012391B8E508F517A00300494
:10283300047B0280027B017D107F207E00123347E0
:102843007DD07F1E7E011237FF8E528F537F1D7EF8
:102853000112391BE4FCFDC004C005C006C007FE1D
:10286300E553122D29D003D002D001D0001205C1A7
:102873008F578E568D558C547DAA7F1C7E0112373F
:10288300FFEF04F5587D867F1F7E011237FFEF04AB
:10289300F559AD51AC507F207E00123A43AF591227
:1028A3002C9A122D0BC004C005C006C007AC58E417
:1028B300120367D003D002D001D00012013EC0043E
:1028C300C005C006C007AF57AE56AD55AC54122C69
:1028D300EDC004C005C006C007E552C4F854F0C8F3
:1028E30068FEE553C4540F482404122CE5D003D0EA
:1028F30002D001D00012004DD003D002D001D0008D
:1029030012013E228F4C8E4B8D4A8C497DFA7F08F3
:102913007E011237FF8F4F7B017A007DDD7F0C7EB6
:10292300041233471223A0123347C204AF4CAE4BF9
:10293300AD4AAC4912237412237E1234FE300326AF
:1029430075500F800F1223F040411550E5506480FD
:1029530094804037E550FB3395E0FA7D517401FFD5
:10296300FE1229DD80DF75500280101223F0401B18
:1029730005500550E550D3940F5010E550FB7A00F5
:102983007D527F137E011229DD80E0C3E54D941053
:10299300500F054F054FE54F943950051229C78055
:1029A300EA1223F0400E054FE54FD3943E50051233
:1029B30029C780EDC3E54E9421E54D940B7F00506C
:1029C300027F0522E54FFB7A007DFA7F087E011224
:1029D30033471235B68E4D8F4E221233471235B61A
:1029E3008E4D8F4E228E388F398D3A8A3B8B3C1217
:1029F30035B6121A83121AF550028001C39200AD44
:102A03003AAF39AE381237FF8E3F8F40E53AC454A0
:102A13000FFFE53A540FFEC3EF9E04FF123A31EF66
:102A230024FFF542EE34FFF541754300754401E59B
:102A33004425E0F544E54333F543300005121B4AD2
:102A43008003121B6A122AAA1233471235B6121ACE
:102A530083121AF57F0050027F01A200E433B50709
:102A630013C3E544953EE543953D40C37F013000E4
:102A7300027F0222D3E5449401E54394004025E517
:102A83004313F543E54413F5441235B6121A831282
:102A93001AF54005121B6A8003121B4A122AAA1256
:102AA300334780D07F0022AB42AA41E4FDFCAF4014
:102AB300AE3F1238478E3F8F40AB40AA3FAD3AAF8F
:102AC30039AE38227581D0E4F5A27591FFF5907582
:102AD300A10775A9FF75A880758901C2A0D2A1308D
:102AE30008FDE50A1206572B18002B1F012B2302A2
:102AF3002B27032B2B042B32052B41062B50072BA3
:102B030057082B5E092B660A2B80112B89122B94F5
:102B1300FF00002B97C2083009FD8042C200805F8E
:102B2300C2018064C2008002D20012355A8065AFB0
:102B330018AE17AD16AC15120A2C8F908056AF182D
:102B4300AE17AD16AC151221558F9080471239651B
:102B53008F9080401239E48F908039850B12E4F511
:102B6300908031E4F590C20A7F2DFE12391BE4FCFC
:102B7300FD780212060012067D8F908017D2001294
:102B830025648F90800ED201C2021217B68F9080F7
:102B930003759005C208022AE28B3F8A408941747B
:102BA300FFF542F54390000512055CF54785F046B5
:102BB30090000712055CF54985F048122C5F8E449E
:102BC3008F45C3E5499547FFE548954612243640AE
:102BD3005B7C007D021204FB8E4A8F4B12241AABDE
:102BE3003FAA40A9415009122C5F8E448F4580149F
:102BF300120531FFAEF0AD47AC461232C61235B600
:102C03008E428F43E54B454A602212241A500FC36C
:102C1300E549954BF549E548954AF54880A4E54BC8
:102C23002547F547E54A3546F546809612241A505E
:102C330006AE46AF478004AE48AF49AB3FAA40A9B2
:102C430041900003EE8FF0120594120531FFAEF0B0
:102C530090000312055CFDACF00232C6120531FF91
:102C6300AEF0AD49AC481232C61235B622F582E455
:102C73003550F58312064B75F002E553A4F58285B2
:102C8300F08302055CE57075F003A4246AF8E6FF9F
:102C9300E57075F003A422123A31AC06AD07E412D5
:102CA3000362A804A905AA06AB07227C4FAB59AA65
:102CB30058A957A8560202E4AF5FAE5EAD5DAC5CA7
:102CC300020247E4FFFE7D8012004D12039BAB0717
:102CD300AA067DD422E4FBFA798012013E02039B0B
:102CE3002401FDE43EFCE4020362E412035DE4FB21
:102CF300FA79807849020247AB56AA55A954A853DA
:102D03002285518285508322AF1CAE1BAD1AAC19AC
:102D130002024778101205EDAB07AA067D3022ADFB
:102D230082AC837E0022540FFFE478100206007504
:102D33004905754AC71223991237FF8F4BE4FBFAF3
:102D4300FDFF7E011233471223E51233471223D1CD
:102D5300123347E54BB401117D66122DC87D221253
:102D63002DC87D30122DE8801A7D77122DDD7D333D
:102D7300122DDD7DC0122DE87402254AF54AE43593
:102D830049F5497FC17E0512391BEE54F070F4E416
:102D9300FBFA122DD3C203AF4AAE49122EA87BFF12
:102DA3007A07122DD3E54A2401FFE43549FEC20315
:102DB300122EA8E4FBFA7D227F0C7E041233471205
:102DC3002456023347E4FBFA7FC07E0512334722C1
:102DD3007DA07F017E0412334722E4FBFA7FC07E8D
:102DE30005123347227CFF7FC27E05123A43227DC0
:102DF300207F0A7E041237FFE47E01A807088005BE
:102E0300C333CE33CED8F9F54A8E497DEC7F037EAA
:102E1300041237FF8F4BE54BC39406500F7402A87F
:102E230007088002C333D8FCF54B8003754B01C2FE
:102E330005123498E4FBFAF97840120247C004C043
:102E430005C006C007AC4BE41203671223DCD007AE
:102E5300D006D005D004120247C004C005C006C086
:102E630007AC49AD4AE4120362D003D002D001D0CB
:102E7300001202478F4F8E4E8D4D8C4CAF1CAE1BF4
:102E8300AD1AAC19AB4FAA4EA94DA84C12013E790D
:102E930040784112237812039BC374FF9FF5147487
:102EA300FF9EF513228E4C8F4D3003067E037FFF6A
:102EB30080047E007F3F8E588F59AF4DAE4C123346
:102EC300C18E558F568E538F541235B68E4F8F50F9
:102ED3008E518F52E5562401FFE43555123839AC33
:102EE30006AD07122F471223DCAE4FAF50E4FCFDB3
:102EF300C31205DC7FFF50027F018F57754E08AF69
:102F030057EF3395E0FEE5562FFFE5553E1238396E
:102F13008E558F56AD56AC55122F478E4F8F50C3DB
:102F2300E5509552E54F9551500C854F51855052C0
:102F3300855553855654D54EC6AD54AC53AF4DAE9F
:102F43004C0232C6AF4DAE4C1232C61235B62233E6
:102F5300DA929E35B16011377FE5FE392184893AD3
:102F6300AEC3FF3C1D955B3D6358473E75FDF03F87
:102F73003172183F800000C2D5020411020407BD5C
:102F830080FA50F302040EED33EC330460F17B3B23
:102F93007AAA79B8783F12013EED33EC3392D52407
:102FA3007B5011A2D570DB500BED448024045004F8
:102FB300A2D580CEEFFBEEFAEDF9ECF812039BEF0E
:102FC300F582F404FC12036712004DC082902F5265
:102FD3007409120456ED33CC33D0F092D525F0A208
:102FE300D57001C313CC13FD228E388F398C3A8DE3
:102FF3003B8F828E83121B8E1237FF8F3E1235B6A4
:103003008E3C8F3DC3EF953BEE953A7F0050027F98
:1030130001121B7E7405936F704B740393FF253E5F
:10302300F53ED3EF64809480400F121B9AD3ED9F3B
:103033007480F86C984002802C121B7E740393C337
:1030430064809480500D121B9AC3ED9F7480F86CBA
:10305300984012121B7E121B8EE53EFB3395E0FA5D
:103063001233478098D3E53D953BE53C953A7F0085
:1030730040027F01121B7E740593B50703D38001C1
:10308300C3227DA37F897E001237FFEF122CE3C09A
:1030930004C005C006C007E4FBFAF97840122D0B03
:1030A300D003D002D001D0001202478F678E668D05
:1030B300658C647DD07F887E001237FF8E688F69B0
:1030C3007DF07F877E001237FFE4FCFDC004C0055E
:1030D300C006C007FEE569122D29D003D002D00136
:1030E300D0001205C1122CEDC004C005C006C007F4
:1030F300E568C4F854F0C868FEE569C4540F481283
:103103002CE3D003D002D001D00012004DAB67AA4C
:1031130066A965A86412013E228E508F518F828E5C
:1031230083740993F552E552604614F553122D0446
:10313300122C77FFAEF0C006C007122C7AFFAEF058
:1031430012391BE5512406122C70F4FDE5F0F45EF0
:10315300FEEF5DFF122D04A3A3A3122C77FDEE4512
:10316300F0FCEF4DFDD007D006123A43155280B65E
:10317300122D04741093F552E552603114F553E5A2
:1031830051240A122C70FFAEF0122D04741193FD1A
:10319300E552D39D40067C007D00800AE551240D55
:1031A300122C70FDACF0123A43155280CB22787F7B
:1031B300E4F6D8FD75817E0231F8022AC7E493A3B1
:1031C300F8E493A34003F68001F208DFF48029E4D6
:1031D30093A3F85407240CC8C333C4540F4420C822
:1031E300834004F456800146F6DFE4800B010204B9
:1031F30008102040809038C9E47E019360BCA3FF8F
:10320300543F30E509541FFEE493A360010ECF54ED
:10321300C025E060A840B8E493A3FAE493A3F8E4DC
:1032230093A3C8C582C8CAC583CAF0A3C8C582C848
:10323300CAC583CADFE9DEE780BE1230857B007A28
:10324300C8792F784C120247E4FBFAF9783F120051
:103253004D12039B7B0D7A007D027C001238478F51
:1032630050E55025E025E0F5517DBB7F867E0012B9
:1032730037FFEF64014E70127DCB7F89FE1237FF5B
:10328300123A31E5518FF084F55175523FE55260A2
:103293000FE551C395525008E552C313F55280ED23
:1032A300E552FB7A007D707F077E04123347AC50F2
:1032B300E41203677B007AC8792F784C12013E121F
:1032C3002264228E5A8F5B8C5C8D5DC3E55B94C751
:1032D300E55A940550067E037FFF80047E007F3FFE
:1032E3008E5E8F5FE4F560F561C3E55C6480948076
:1032F300501AE55F2401FFE4355EFEEF4261EE42C2
:1033030060E55D255FFFE55C355E800FE55D255F6C
:10331300CFE55C355ECF2401CF3400FE123A87E55A
:103323005E5EFEE55F5F4261EE4260AD61AC60AF41
:103333005BAE5A123A43E5604480FCAD61AF5BAECD
:103343005A023A438A7B8B7CA9058F828E8312397A
:103353001BAD07AC06E9C4540FFFE9540FFBC3EFE1
:103363009B04FF74FFFEA807088005C333CE33CE4A
:10337300D8F9F4FFEEF4FEEFA803088005C333CEBB
:1033830033CED8F9F57E8E7DE9540FFFE57CAE7B15
:10339300A807088005C333CE33CED8F9FFE57D5E99
:1033A300FEE57E5FFFE57EF4FBE57DF45CFCEB5D13
:1033B300FDEC4EFCED4FFDAF82AE83023A438F82AC
:1033C3008E83C3E58294C7E583940550067E037F0D
:1033D300FF80047E007F3F8E5A8F5BAF82AE83E413
:1033E300FDFC123A43AF82AE837D007C40123A4328
:1033F300AF82AE8312391B8E5C8F5DAF82AE83E5E5
:103403005C543FFCAD5D123A43E55C555AFEE55D05
:10341300555BFFE55B2401FDE4355A555CFCE55D36
:103423005D4C60077CFF7DFF120494227F207E00A9
:1034330012391B8E408F41E4F5427902E4F543E5EE
:103443004154FCFFE540FCEF4543FD7F207E001225
:103453003A43E543C39405502DE54325E024C230A8
:1034630001101236951236A4E0FCA3E0FD123A4394
:10347300800E12369512391B1236A4EEF0A3EFF02C
:103483000542054380CC19E970B2AD41AC407F20C1
:103493007E00023A431230858F5F8E5E8D5D8C5CB9
:1034A3007DCB7F897E001237FF122C9A122CBB8FA3
:1034B300638E628D618C607DBB7F867E001237FFD9
:1034C300EF4E7017300509AF63AE62AD61AC602299
:1034D300E4FBFA79807840122CBB2230050AAF5FF7
:1034E300AE5EAD5DAC5C8012E4FBFA79807840AFF0
:1034F30063AE62AD61AC6012024722E55575F0021E
:10350300A4FFAEF07C043004027C027D42EF2DF573
:1035130057EE3CF556A2049205123498122CA5AF2F
:1035230054AE53AD52AC51120247784F122CD88F80
:103533005B8E5A8D598C5878101205EDAD07AC0689
:10354300AF57AE56123A43E5572401FFE43556FE12
:10355300AC5AAD5B023A43E50CAD0DFCE4120362D9
:10356300E4FBFA797A7844120247C004C005C00626
:10357300C007AC0BE4120367D003D002D001D00024
:1035830012004D7B007A247974784912013E8F250D
:103593008E248D238C2230000A8F1C8E1B8D1A8C57
:1035A30019800C852518852417852316852215E493
:1035B300F59022C28CE513F58CE514F58AC28DD201
:1035C3008C308DFD7DFF7F007E041239FF7F0F7EDF
:1035D3000412391BE48F778E76F575F5747F0E7EB2
:1035E3000412391B7E00EF5403FFE4FCFDC004C04A
:1035F30005C006C007AF77AE76AD75AC747802121E
:103603000600D003D002D001D0001205C1228F4A98
:103613008E498D488C47E4FFFE7DA07C41AB4AAACE
:1036230049A948A84712013E7B007AC8792F784CF4
:10363300121AD0F9783F121AB37B0D7A007D027CFF
:1036430000123847AC07E41203677B007AC8792F6E
:10365300784C12013E7B807A967918784B12004D94
:1036630012226422E4FFFEFDFCAB35AA34A933A881
:10367300320202E4742D252FF8E622742B252FF84D
:10368300E622E52F25E025E024FEF582E43403F568
:103693008322F582E4343EF583E493FE740193FFC1
:1036A30022E54225E024EAF582E43403F58322AFE0
:1036B3003AAE39AD38AC37228F3E8E3D8D3C8C3BD4
:1036C3007F057E0112391B8E3FEF54E9F540121A34
:1036D3008CAB3EAA3DA93CA83B1202E46002501207
:1036E3004340107B017A00E4FD7F0B7E01123347D8
:1036F3008003434006AD40AC3F7F057E01023A4361
:103703007F207E0012391B8E508F51E55154036484
:103713000270307B01FA7D107F20FE1233477B015C
:103723007A00E4FD7F0D7E011233477B017A007D31
:10373300EE7F007E01123347AD51AC507F207E00F7
:10374300123A43227F2B7E0012391B8F828E83E530
:103753008364027F2B12377F7F2B122D22123A4371
:103763007F207E0012391B8E838F82E58354557F21
:103773002012377F7F20122D22023A43FCAD827E36
:1037830000123A43227F827E0012391B8F828E837E
:103793007F207E0012391BAD07AC06ED5403640194
:1037A30070084305145382EB80064305285382F5C2
:1037B3007F207E00123A43AD82AC837F827E00027B
:1037C3003A437907E925E0248EF582E4343FF58313
:1037D300E493FE740193FFE925E0249CF582E4342D
:1037E3003FF583E493FC740193FD123A43D9D57BEF
:1037F300FF7AB97DF87F207E01023347A90512398C
:103803001BAC06AD07E9C4540F04FF74FFFEA80701
:10381300088005C333CE33CED8F9F4FFEEF45CFE53
:10382300ED5FFFE9540FFDEFA805088005CEC31334
:10383300CE13D8F9FF22FEC3E49559FDE49558FC55
:10384300AB59AA58C3EF9DEC6480F8EE648098509E
:1038530005AE04AF0522D3EF9BEA6480F8EE6480E3
:10386300984005AE02AF032222C0E0C0D075D0005D
:10387300C000C006C0077590FF7F02740A2FF8E6E8
:10388300FE740B2FF8A606DFF285800B759000D02F
:1038930007D006D000D0D0D0E032123995123A18B2
:1038A300D2A27D10D2A0123A67EB25E0FBEA33FAED
:1038B30030A303430301C2A0123A67DDE7D2A1D2CA
:1038C300A2AE02AF032204154A98968002130001A8
:1038D300011200021DFF0004194BEA6000C10AC176
:1038E30089C108020E002D0208020C0210040B000D
:1038F3007DFF7C7F7F0C7E02123A437D557F007EE5
:10390300021239FF7D007C807F0C7E02123A437DD8
:10391300667F007E020239FF123995123A77D2A2EE
:103923007D10D2A0EB25E0FBEA33FA30A303430377
:1039330001C2A0DDEDD2A1D2A2AE02AF0322C28C9E
:10394300E51DF58CE51EF58AC28DD28C308DFD30D8
:1039530007067E017F2380047E007F8C7DDC123787
:10396300FF227590FFAF0FAE0E12391B8F828E832D
:10397300AF09AE0812391BAD07AC06AF82AE831296
:103983003A557F0022AB05AA04C2A0C2A1EE44802F
:10399300FE22E4FBFAC2A0C2A1EE547FFE22EF2571
:1039A300E0FFEE33FED2A022EFC3941550037F0154
:1039B30022EFC3940D50037F0222EFC394087F00CC
:1039C30050027F03227DDC7F237E011237FFEF64E9
:1039D300024E7002D322D2061214BFEFC37001D37A
:1039E300227590FFAF0FAE0E12391B12389DAD0733
:1039F300AC06AF11AE10123A437F00228E788F7956
:103A03008D7AE4FBFA1233477B017A00AD7AAF7902
:103A1300AE780233477D10C2A0123A67EE3392A20A
:103A2300123A671239A1123A67DDECC2A02274017F
:103A33007E00A807088005C333CE33CED8F9FF2212
:103A4300123988123A77AF03AE02123A77D2A1D273
:103A5300A222123988123A18AF03AE02123A18D2D0
:103A6300A1D2A222C28C758CFF758AF0C28DD28C32
:103A7300308DFD227D10C2A0EE3392A21239A1DD5A
:103A8300F5C2A022EE30E707C3E49FFFE49EFE22C7
:103A93007590FF85800AD20AD2083249AAE6004C03
:103AA300F7F4904A9896804C1896804C3EBC204C74
:103AB300F7F4900085010D011301140084008B00BD
:103AC3000101000004001004002100000701880028
:103AD3003C001FF83FC1FF0082008600870088007A
:103AE30089008A008C010001010102010301040124
:103AF300050106010701080109010A010C0115016D
:103B030016011701180119011A020002010202022B
:103B13000302040205020602070208020902400426
:103B23000004010402040304040405040604070456
:103B3300080409040A040C044000818003490104B9
:103B430000078000200514067B34096001318006DC
:103B53001200880007318C318C042661C1104C8817
:103B6300C500098180280C018C528B2E02008D0721
:103B7300FF07FF00000000000000000000207000AD
:103B8300000020008107FF07FF4000000000000045
:103B930000000000000000100120380020FF3AB6AA
:103BA300FF3AC2FF3ACE06FF3ADAFF3B3E3231011B
:103BB30008FA021E01011352020E01008200850160
:103BC30000010C010D0084008B8001000100000046
:103BD30000001E040021001FFF0007000100010078
:103BE3001EF83FC1FF0086008700880089008A0015
:103BF3008C01050106010701080109010A011501EC
:103C030016011701180119011A020002010202022A
:103C130003020402050206020702080240024104ED
:103C23000004010402040304040405040604070455
:103C3300080409040A040C044004410081490104F6
:103C430000078000200514067B3007318C318C057A
:103C53008C61C1104C000D8180280C618C528C2E1C
:103C630002008D07FF07FF000000000000000000B6
:103C730000007000200000008107FF07FF400000E4
:103C830000000000000000000000001001203800C8
:103C9300200000FF3BBEFF3BCCFF3BDA07FF3BE8C6
:103CA300FF3C402C2B010AC8FF0001010AC8011F79
:103CB300000108FA012B01000800040000FFFAFFCD
:103CC300F5FFF0FFECFFEAFFEAFFECFFF2FFFB007A
:103CD3000600140022002E0038003D003A00300098
:103CE3001D0003FFE3FFC1FFA0FF85FF74FF72FF09
:103CF30080FFA2FFD40014005D00A700E8011801B3
:103D03002E012300F4009F0029FF9AFEFEFE67FDAB
:103D1300E5FD8CFD6EFD9AFE1AFEF30022019D0364
:103D2300540530071608E80A890BDE0CCD0D49034C
:103D3300FF008000080084008500AE01010200023C
:103D4300010202020804000001F0000001000C0758
:103D5300FF07FF0000F8FF0007F0001801000C0741
:103D6300FF07FFF10B010C010D010E010F01100103
:103D73001101120113011401150116011701180194
:103D830019011A04000401040204030407040A04C9
:103D93000C044004410442044304090408040604D7
:103DA300050404008188E5009E204030C609940084
:103DB30083403203DF008D00058180280C218C3184
:103DC300802E02008107FF07FF400007001001203B
:103DD30098FF3D38FF3D48FF3D5808FF3D68FF3DD4
:103DE300A820160084008500AE010C010D0113010B
:103DF30015011904000001F00000000046000C004A
:103E0300000000F8FF0007F000001A0046003CC065
:103E13000080000100010101020103010401050109
:103E230006010701080109010A0200020102020258
:103E330008024004000401040204030407040A0402
:103E43000C044005C005CB0203020402050206026E
:103E53000702410404040504060408040904410597
:103E6300C105C205C305C405C505C605C705C80503
:103E7300C905CA05CC00813408600131800A1200EB
:103E8300880007318C318C042661C1104C008D07EA
:103E9300FF07FF20700020008107FF07FF40000796
:103EA3000010002098002000FF2020FF3DE6FF3D8A
:103EB300F6FF3E0608FF3E16FF3E7A321A700000F8
:103EC30081010F0126040A040C00010011002100E6
:103ED30002001200220032001300230033004300CB
:103EE30024003400440054003500450055006500AB
:103EF300460056006600760057006700770087008B
:103F03006800780088009800790089009900A9006A
:103F1300AA00BA00CA00DA00DB00EB00FB010B01C8
:103F23001B012B013B014B015B016B017B018B01EE
:103F33009B01AB01BB01CB01DB01EB01FB01FC01ED
:103F4300FD01FE01FF0021002F008100820084009B
:103F530084008500850086008C009200A700A800DD
:103F6300A800AD00AE010001040105010A010C0126
:103F7300140115011A0200020C024002610400043C
:103F83000F04400461050005A705C005C0011C011D
:103F93001D011E011F012101220123AD430400075E
:093FA3008036403404033F067B24
:00000001FF
