:1000000002330AE4F91226C5E9120022B93CF6E9E6
:10001000C39478500C1226C5C374779912002280BD
:10002000EE2225E024D2F582E4343AF583E493FC11
:09003000740193FD123A770922D4
:03003B0002384741
:10004300023AC7020407E86480F8E933E833601131
:100053000460F0ED33EC337009E8FCE9FDEAFEEBF4
:10006300FF220460DED3EB9FEA9EE99DE8C2E78CA2
:10007300F0C2F795F0400CE8CCF8E9CDF9EACEFAF6
:10008300EBCFFB1203D285D0F05804700320D5B315
:10009300E80470075002B2D502041192D5EC046053
:1000A300F7E4CCC0E0C398F8603B94186008400DB7
:1000B300D0E0FB0203E9E4FBFAC9FC8028E830E462
:1000C30006E4C9FBE4CAFCE830E305E4C9CACBFC97
:1000D300E854076010F8C3E913F9EA13FAEB13FBCA
:1000E300EC13FCD8F130F52FC3E49CFCEF9BFFEE3F
:1000F3009AFEED99FDD0E0FBEF4E4D4C701222DBE2
:100103000302040EEC2CFCEF33FFEE33FEED33FD64
:10011300ED30E7EB0203E9EF2BFFEE3AFEED39FD9D
:10012300D0E0FB50130BBB0003020411ED13FDEEF3
:1001330013FEEF13FFEC13FC0203E9EC4D6011E82F
:10014300497017ED33EC3304600DE4FCFFFEFD2230
:10015300E933E8330470F80204071203D258046049
:1001630009E4CC24815006285009020411284003D5
:1001730002040EC0E0EB4A7044B98006D0E0FB02F3
:1001830003FDEF4E701CBD8008EBFFEAFEE9FD8026
:10019300EBE98DF0A4FEE5F0020227E9CDF9EAFED2
:1001A300EBFFEF89F0A4FCE5F0CE89F0A42EFFE489
:1001B30035F0CD89F0A42DFEE435F08067EF4E7065
:1001C30005BD80D780C3EF8BF0A4ACF0EE8BF0A419
:1001D3002CFCE435F0F8EF8AF0A42CE5F038FCE4CD
:1001E30033CB8DF0A42CFCE5F03BF8EE8AF0A42C85
:1001F300FCE5F038F8E433CF89F0A42CFCE5F038C3
:10020300CF3400CE89F0A42FFFE5F03EFEE433C9DE
:100213008DF0A42EFEE5F039CD8AF0A42FFFE5F092
:100223003EFEE43DFD33D0E0FB50070BBB000F0265
:100233000411EC2CFCEF33FFEE33FEED33FD020330
:10024300E9020411EC5D046005E85904700302043B
:10025300071203D2580460F6EC4860F2EC7004FD18
:10026300FEFF22C860DB2481C85009C39860025096
:100273000602040E9850CAF582E9294B4A7005AB71
:10028300820203FD75F0007C1A7880C3EF9BEE9A1F
:10029300ED99400DC3EF9BFFEE9AFEED99FDE84209
:1002A300F0DC23ACF0D0E0FFD0E0FED0E0FDAB8289
:1002B30020E7101BEB60BAEC2CFCEF33FFEE33FEB0
:1002C300ED33FD0203E9E803F830E705C0F075F00C
:1002D30000EF2FFFEE33FEED33FD40B830E7C28071
:1002E300AA74F8CC6480CCC86480C8F58204604FDB
:1002F300C3EB9FF5F0EA9E42F0E99D42F0E89C458E
:10030300F0603C501DE5825FFFE582D313CB5BCBEE
:10031300F42B5582FB50280ABA002409B90020089F
:10032300801DE5825BFBE582D313CF5FCFF4C3135C
:100333002F5582FF50090EBE00050DBD00010CC3F1
:10034300EB9FF5F0EA9E42F0E99D42F0E89C45F010
:100353006007CC4820E701B3EC2275F020800E75CE
:10036300F010800575F0087D007E007F003392D584
:1003730030D5031205CEEC334010EF33FFEE33FEDE
:10038300ED33FDEC33FCD5F0ED22E5F0247EA2D570
:1003930013CC92E7CDCEFF22EDD2E7CD33EC3392EF
:1003A300D524814006E4FFFEFDFC22FCE4CFCECD44
:1003B300CC24E0501174FF80EDC3CC13CCCD13CD0E
:1003C300CE13CECF13CF0470F030D5DE0205CEE9C5
:1003D300D2E7C933E833F892D5EDD2E7CD33EC3326
:1003E300FC5002B2D522EC30E7100FBF000C0EBE5A
:1003F30000080DBD00040BEB6014A2D5EB13FCED5C
:1004030092E7FD2274FFFCFDFEFF22E480F8A2D5F3
:1004130074FF13FC7D80E480EFED33EC3360100454
:10042300700FED547F7005740292E022740422046D
:1004330022E422ED33EC33600A047003BD8004EC44
:10044300B2E7FC22C0E0EFFBEEFAEDF9ECF81201A3
:100453003ED0E0F5F0EFFBEEFAEDF9ECF8120613FF
:10046300A3A3A3A3E8C0E0E9C0E0EAC0E0EBC0E0D7
:10047300C0F012013E120623A3A3A3A312004DD082
:10048300F0D0E0FBD0E0FAD0E0F9D0E0F8D5F0D43A
:1004930022EF8DF0A4A8F0CF8CF0A428CE8DF0A489
:1004A3002EFE22BC000BBE0029EF8DF084FFADF0C1
:1004B30022E4CCF875F008EF2FFFEE33FEEC33FCAB
:1004C300EE9DEC984005FCEE9DFE0FD5F0E9E4CEE1
:1004D300FD22EDF8F5F0EE8420D21CFEADF075F0B0
:1004E30008EF2FFFED33FD4007985006D5F0F222B9
:1004F300C398FD0FD5F0EA22C2D5EC30E709B2D597
:10050300E4C39DFDE49CFCEE30E715B2D5E4C39F44
:10051300FFE49EFE1204A6C3E49DFDE49CFC80035D
:100523001204A630D507C3E49FFFE49EFE22BB015D
:100533000A89828A83E0F5F0A3E022500687F00956
:10054300E71922BBFE07E3F5F009E3192289828A42
:1005530083E493F5F074019322BB0110E58229F53E
:1005630082E5833AF583E0F5F0A3E0225009E9251B
:1005730082F886F008E622BBFE0AE92582F8E2F556
:10058300F008E222E5832AF583E993F5F0A3E993E2
:1005930022F8BB0111E58229F582E5833AF583E868
:1005A300F0E5F0A3F0225009E92582C8F608A6F089
:1005B30022BBFE09E92582C8F2E5F008F222EF4BDF
:1005C300FFEE4AFEED49FDEC48FC22C3E49FFFE445
:1005D3009EFEE49DFDE49CFC22EB9FF5F0EA9E4227
:1005E300F0E99D42F0E89C45F022E8600FECC3136C
:1005F300FCED13FDEE13FEEF13FFD8F122E8600FBD
:10060300EFC333FFEE33FEED33FDEC33FCD8F122C1
:10061300E493FC740193FD740293FE740393FF222D
:10062300E493F8740193F9740293FA740393FB222D
:10063300E493FB740193FA740293F922D083D0827A
:10064300F8E4937012740193700DA3A393F87401EB
:1006530093F5828883E4737402936860EFA3A3A382
:1006630080DFE4F524FBFAF978401202478F288EE5
:10067300278D268C25C20212257AAF28AE27AD26F8
:10068300AC25120E618F24E5246003020979122F31
:10069300377D527F137E011237DA8F29120A824087
:1006A3001AE529940E501405290529E529FB7A003A
:1006B3007D527F137E011234A080E1121C40123759
:1006C300DA8F29120A824014E529941E500E052957
:1006D3000529E529121C3D1234A080E77FFA7EED3F
:1006E3007DEB7CBA121C52121C64121C1B79A0787D
:1006F300411202478F4A8E498D488C477F007E0006
:100703007D207C4112235FC004C005C006C00712D0
:1007130036A8E412035D7B817A047935783F1201B0
:100723003ED003D002D001D00012013E12039B8EB3
:10073300228F23121C9F121C521202E460054003F5
:1007430002090EC2037F667E667DA6121B987FE2B6
:100753007EB87D007C4E1200498F488E478D468CB3
:10076300451218738F24E5246003020979C203122A
:100773001C5B121C5212013E8F498E488D478C46DA
:10078300E4F54A1235EE7F407E547D897C4B121C82
:10079300521202E45051753908753A007DA07F1753
:1007A300120A5364807014120A38E529D394014065
:1007B3000AE52913F5291209F180EFE52464817014
:1007C3001F120A38E529C3941F4003020856740414
:1007D3002529F529D3941F507AE5291209F180E4DC
:1007E300E524606F020979753901753A007D707FE0
:1007F30016120A5364807021120A76E529D39400F5
:1008030040171529120A441236A8121BA5AE22AFAF
:1008130023121C3650E5E4F524E5246481702D127F
:100823000A76E529C3941F502A0529E529941F5008
:1008330022120A441236A8121BA5AE22AF23E4FCEF
:10084300FDD31205DC40DBE4F5248007E5246003D7
:10085300020979120A136003020979120A617D10F1
:100863007F137E011237DA8F2BE52B64036005E5D6
:100873002BB402107FEC7E517D38121B98121C138F
:100883007920801BE52BB401217FEC7E517D38124A
:100893001B987FBB7EEE7DA07C4F121C1B7970786A
:1008A300C1121BD28E298F2A800280327BFF7A0FDE
:1008B300E4FDFCAF2AAE291238227DB0121CD412FB
:1008C30034A0E52BD394014007121C478F2C8014CE
:1008D300E52BB40109121C47EF04F52C800675249F
:1008E30009020979AF2C7E00121C2A1238227DFCE2
:1008F300121CD41234A0121C47121C22123822AA32
:1009030006AB07121CFF1234A08008120A1370668C
:10091300120A61753910753A00AB23AA227DB07FA4
:10092300127E01122DA38F24E524704A7F127E01CB
:1009330012394F8E298F2A7F177E0112394F8E2B42
:100943008F2C7F1A7E0112394F8E2D8F2E7F167EAC
:100953000112394FEE5407F52F8F30121CCD123789
:10096300DA8F317DFD7F187E011237DA8F32121C48
:10097300FF1237DA8F33D20212257AE5246002FFA1
:1009830022AD2AAC297F127E01123A77AD2CAC2B13
:100993007F177E01123A77AD2EAC2D7F1A7E01129E
:1009A3003A77E52F4480FCAD307F167E01123A770B
:1009B300E532C43354E04401FC748CFD7F187E019E
:1009C300123A77E53375F020A4ACF04410FD7F14A0
:1009D3007E01123A777B947A027DE57F197E0112BC
:1009E30034A0E531FB121CCB1234A07F0022FB7A2A
:1009F300007DFB7F167E011234A0753908753A001D
:100A0300AB23AA227DA07F177E01122DA38F242260
:100A1300C203AB28AA27A926A8257FE27EB87D00BA
:100A23007C4E1200498F488E478D468C45121873B1
:100A33008F24E524227DFB7F167E011237DA8F296E
:100A430022E529FB7A007DFB7F167E011234A0226A
:100A5300AB23AA227E01122DA38F24E52422C203F5
:100A6300852849852748852647852546E4F54A1282
:100A730035EE227DFB7F167E011237DA8F29221293
:100A830036A8E4FB7A27F9F8D31205DC228F258EEA
:100A9300248D238C22903CD6121BF6400A903CE214
:100AA300121BF6600540037F0A22E4FBFAF9784043
:100AB300AF25AE24AD23AC221202478F2B8E2A8D95
:100AC300298C28903CDA121BF660184016903CDE05
:100AD300121BF6500E903CDE121BEA8F2B8E2A8DD2
:100AE300298C28C20212257AAF2BAE2AAD29AC2855
:100AF3001211EC752C008F2DE52D452C6003020C93
:100B0300EE122F377E04120E567E02120E56123646
:100B1300A88E268F27121C401237DA8F2EC3E526A4
:100B23009427501AE52EC3942B5013052EE52E124D
:100B33001C3D1234A01236A88E268F2780DF121B8D
:100B4300E7121CF460054003020C0BC200752E056E
:100B5300120D605039C3121BC45012121C70400D89
:100B6300E534153470021533120DD180E8C3121B1E
:100B7300C45017E53445337011120DE6120E4C12B2
:100B83001C04123822121CBE8050C2008051121B5A
:100B9300C3404C121BC34016E534941F121C7450FF
:100BA3000D0534E53470020533120E0F80E5121B78
:100BB300C3401AE534641F45337012120DE67D708D
:100BC300120DF5121CBE7E011234A08002C2000574
:100BD30034E53470020533120E237E011234A0155E
:100BE3002E120E4C8F35E5357003020CD6F47003CC
:100BF300020CD6200003020CD6C3E52E6480948039
:100C03004003020B53020CD6C200752E057B027AF9
:100C1300007D607F1A7E011234A0120D605041C323
:100C2300121BC45012121C70400DE53415347002AF
:100C33001533120DD180E8C3121BC4501FE5344590
:100C4300337019120E3D121D0D1237DA121C0412E5
:100C530038228F35EFFB7DF87F098052C200805325
:100C6300121BC3404E121BC34016E534941F121CC3
:100C730074500D0534E53470020533120E0F80E510
:100C8300121BC3401CE534641F45337014120E3D20
:100C93007DF8120DF58F35EFFB121D0D1234A08078
:100CA30002C2000534E53470020533120E237E01BF
:100CB3001234A0152E121D0D1237DA8F35E535606B
:100CC30012F4600F30000CC3E52E6480948040035F
:100CD300020C1D7DC87F0A7E011237DA8E308F31F8
:100CE3007F097E0112394F8E328F33D20212257A59
:100CF300E52D452C6003AF2D22AB31AA307DC87F93
:100D03000A7E011234A07F057E0112394F8E2EEF29
:100D130054E9F52F121BE7121CF46002500F432F06
:100D230010121D067F0B7E011234A08003432F0691
:100D33007D8C7C317F067E01123A777D8C7F077E26
:100D430001123A77AD33AC327F097E01123A77ADA7
:100D53002FAC2E7F057E01123A777F0022E4FBFA47
:100D63007D417F407E021234A0E4FBFA7D417F4047
:100D73007E041234A01236A88E2F8F30AC2FAD30E4
:100D8300E41203627B817A047935783F12013E12C3
:100D9300039B8E318F327B017A007D417F407E023F
:100DA3001234A07B017A007D417F407E041234A07F
:100DB3001236A88E268F277DC87F0A7E011237DA66
:100DC3008E338F34C3E5279532E526953122AB3434
:100DD300AA337DC87F0A7E011234A01236A88E265C
:100DE3008F2722D2007B10FA7DC87F0A7E0112343E
:100DF300A0227F097E011237DAEF24F6FFEE34FFDB
:100E0300FE7BFF7A00E4FDFC12382222FBAA337D2D
:100E1300C87F0A7E011234A01236A88E268F27229D
:100E2300FFAE337B1F7A00E4FDFC1238228E338F32
:100E330034AB34AA337DC87F0A22D2007B10FA7DFB
:100E4300C87F0A7E011234A0227D707F097E0112C1
:100E530037DA22E4FBFA7D417F401234A0228F3738
:100E63008E368D358C347F207E0012394F8E388F2D
:100E7300397D107F137E011237DA8F3A7D407F1957
:100E83007E011237DA8F3B903CCE121BAE1202E486
:100E9300400D903CD2121BAE1202E4600540037F6A
:100EA30008227E3D7FCE123275E53AFB7D107F131B
:100EB3001211C9E53BB41F047B168003E53BFB7DA0
:100EC300407F191211C9AF37AE36AD35AC34123786
:100ED30003EF6001221211B11237A0C2037548E279
:100EE3007547B875460075454E121873EF600122B9
:100EF3007B027A001211E21237A0D20375485675AD
:100F0300472175460375454E121873EF600122ADF4
:100F130039AC387F207E00123A77123927D2037515
:100F2300498075489675471875464BE4F54A12355E
:100F3300EEC203E4F549F548F547F546F54A12359F
:100F4300EE121C9F121BBA1202E46002500D7D01C7
:100F53007C001211DA7B0F7A00807AE53A64036031
:100F630005E53AB40214121BBA121C13792078C196
:100F7300121BD2121C7B8F3E8027E53A6401701E40
:100F8300121BBA7FBB7EEE7DA07C4F121C1B7970B7
:100F930078C1121BD2121C7BEF04F53E80037F093C
:100FA30022AF3EEF3395E0121C29123822EFF5836E
:100FB3007BFF7A0FAF3DAE3C123822EE4583FCEF48
:100FC300FD1211DAAE3CAF3D121C7F121C22123807
:100FD30022AA06AB07121CFF1234A0E53B75F00AE8
:100FE30084FCE41203678F4A8E498D488C477D2623
:100FF300121C5D12235FE4FBFA79D7784312013E9A
:101003007B337AB379DC78C212004D7B9A7A997973
:10101300A37841121C1B79807841121BD27B1F12CB
:1010230011D18F3CAF3B1239DFEFFDAF3CEF25E031
:10103300FC7F1A7E01123A777F407E547D897C4B78
:10104300121BBA1202E440030210F17B021211A533
:10105300E4FBFA1211BF121C5B121BBA12013E8F82
:101063003F8E3E8D3D8C3CAB3FAA3EA93DA83C7FC5
:10107300FC7EBE7D007C4F12024779CE121BCD7BD6
:10108300FF7A07E4FDFC1238228E408F417542053A
:101093007FC07EE17D647C4B121BDC5003754204F0
:1010A3007D187C4B121BD850037542037D987C4AF4
:1010B300121BD850037542027F007E1B7D377C4A8A
:1010C300121BDC50037542017F007EE67DAA7C493A
:1010D300121BDC5003E4F542E54233333354F84545
:1010E30040FCE541FD7F177E01123A77807E121C9A
:1010F3009F121BBA1202E46002505C7B011211A51D
:101103007B017A001211BF7F667E667DA6121BBA31
:10111300121BA07F5E7ED07DB27C4F1202477948BE
:10112300121BCD121C0B1238228F3C121C5B121B9C
:10113300BA12013EE4FBFA79207841121C1B794074
:1011430078C0121BD27B081211D18F3DEFFAE53C18
:10115300FB7DA87F1680107B03121CCB1234A07B6F
:10116300027A007DFD7F187E011234A0E539540315
:101173006402702BFBFA7D117F82FE1234A01211E0
:10118300B1121D067F0D7E011234A07B017A007D12
:10119300EE7F007E011234A0AB39AA381211E27F30
:1011A30000227A007D327F157E011234A0227B015A
:1011B3007A007D107F207E001234A0227DFD7F18EF
:1011C3007E011234A0227A007E011234A0227A001A
:1011D300E4FDFC123822227F127E01123A77227D2F
:1011E300107F207E001234A0228F3A8E398D388CE6
:1011F300377F207E0012394F8E3B8F3C7E3E7FB679
:10120300123275121BE7121CA81202E46005400398
:101213000212C57FCD7ECC7D4C7C3F121CA8121CD4
:1012230064121CDD7D4412145F7D2212143E7D1175
:1012330012143E121D067F0B1213F27BCE7A4079F5
:10124300E878B812013EC004C005C006C0071214F6
:101253000E7B957AB77915782512013ED003D0021B
:10126300D001D00012004DC004C005C006C0071253
:1012730014497B757AEC7935783B12013ED003D063
:1012830002D001D00012004DC004C005C006C00743
:101293007FB47E4E7DA87C41121CE9D003D002D0DE
:1012A30001D00012004D7B157AA37941121BD08E19
:1012B3003D8F3E121C0B123822AA06AB077D70022B
:1012C3001373121C67AF3AAE39AD38AC37121CDD5D
:1012D300E4FBFA7D447F057E011234A07D221214C3
:1012E3005F7B017A007D117F051213F27B347A0A4A
:1012F300795D78B912013EC004C005C006C007126B
:10130300140E7B667A277994783512013ED003D088
:1013130002D001D00012004DC004C005C006C007B2
:101323001214497BAC7A0D799C783C12013ED003B0
:10133300D002D001D00012004DC004C005C006C0C9
:10134300077F437E727DB77C3F121CE9D003D00236
:10135300D001D00012004D7BC37AC7793E121BD057
:101363008E3D8F3E121C0B123822AA06AB077DF866
:101373007F097E011234A0AF3AAE39AD38AC3712D3
:101383003703EF6001227B011214257B021214251F
:10139300AD3CAC3B7F207E00123A77123927D20353
:1013A30075490075482475477412146BD203853A46
:1013B30049853948853847853746754A011235EEE0
:1013C300C2037549007548BA75475B12146BC203B3
:1013D3007F007E507DC37CC7121CA812004D8F492D
:1013E3008E488D478C46754A011235EE7F00227E6A
:1013F300011234A0E4F54AF549754840754740AFFA
:1014030042AE41AD40AC3F12235F22E4F54AF549B9
:10141300754880754740AF42AE41AD40AC3F1223A3
:101423005F227A007D107F207E001234A07B017A38
:10143300007D117F1C7E011234A022E4FBFA7F059C
:101443007E011234A022E4F54AF549F54875474078
:10145300AF42AE41AD40AC3F12235F227B017A0025
:101463007F057E011234A022754649E4F54A123500
:10147300EE228F258E248D238C2275270B75281F32
:10148300C208C2001238787B017A007DFF7F817E1B
:10149300001234A07B1F7D951216907B047D4012B1
:1014A3001690E52775F004A4FDACF0E52875F0402F
:1014B300A4FFE5F04CFEEF4D121683C200C20112E9
:1014C3001E8B8F26E5266008D200123878AF2622BD
:1014D3007D007C107F0A7E04123A777D66121678AF
:1014E3007D777F0C7E041237DAEF4E70117B01FAA1
:1014F3007DFE7F0C7E041234A07DCC121678122F51
:101503003730090302166B1236A88F318E308D2FB8
:101513008C2EE4FFFEFDFCAB31AA30A92FA82EC30D
:101523001205DC60DCE527D39409500DC3740B95D9
:101533002775F003A4F52D8007C3740F9527F52DA8
:10154300AF25AE24AD23AC22E412035DC004C00575
:10155300C006C007AF31AE30AD2FAC2EE412035D31
:10156300A804A905AA06AB07D007D006D005D00466
:10157300120247122021E4FBFA79A0784112013EBE
:101583008F2C8E2B8D2A8C291238D1503C7F007ED4
:10159300407D017C00AB31AA30A92FA82E1205DCB7
:1015A3004027E52824F4FFE434FFFE7B1F7A00E4A0
:1015B300FDFC1238228F28E52724FDFFE434FFFECB
:1015C3007B0F1238228F27806C1238D140131238C8
:1015D300D160624060E52D241FC39528D394004059
:1015E30054C3741E952D2528F532FC120367AB2CCA
:1015F300AA2BA92AA82912004D12039B7B3D7A002E
:10160300E4FDFC123822EF25E0FFEE33FE74D22F07
:10161300F582743E3EF583E493F533740193F53418
:10162300540FF527E533C4F854F0C8E534C4540F18
:1016330048541FF528AF281239DFEF7533003333D1
:101643003354F8F532E52875F040A4FFE53245F050
:10165300FCE5334FFDE52775F004A4FFEC45F0FEF0
:10166300ED4F121683021504D2001238781237593F
:10167300D2087F0022E4FBFA7F0C7E041234A022FE
:10168300AC064402FD7F267E01123A77227A007F60
:101693000F7E011234A022E4F55FF560F5637564F3
:1016A30080F561756280F5657566FF300513755CBD
:1016B30001755D21755EA3FBFA7D217F1C7E018090
:1016C30011755C00755D8B755E81E4FBFA7D217F8E
:1016D30086FE1234A07F187EB77DD17C37AB1CAA5F
:1016E3001BA91AA819123114C374FF9FF51E74FFA6
:1016F3009EF51DE4FBFA121862BF03037F01227BF0
:10170300FF121837EF70037F0122E4F56712184ABE
:10171300756840E56860411230D0245FF8C000E688
:10172300FE08E6FFEF4568D000A60608F612184A41
:10173300A2059206123975BF03161230D0245FF842
:10174300C000E6FE08E6FFEF6568D000A60608F6CF
:10175300E568C313F56880BB1230D0245FF8E6FE5A
:1017630008E6FF1230D02461F8A60608A607123057
:10177300D02461F8E6FA08E6FB4A6026121862EF05
:101783006402600F1230D02461F80806E618701264
:1017930006800F1230D02461F808E6161870CF16B1
:1017A30080CC0567E567C394025003021710E56612
:1017B30024FFFFE56534FFFEEFB56014EEB55F105F
:1017C300C3E5649562FFE5639561A2E713EF803497
:1017D300C3E5609562FDE55F9561FCC3E5649566CD
:1017E300FFE5639565FED3EF9DEC6480F8EE6480BE
:1017F30098400CEEA2E713EF132566F567800AEC19
:10180300A2E713ED132562F567E567FB121837EFBF
:10181300640260100567E567FB7A00AD5EAF5DAEFD
:101823005C1234A0A2059206123975BF02037F0031
:10183300227F01227A00AD5EAF5DAE5C1234A0A2BE
:1018430005920612397522E56725E025E0245FF845
:10185300E6FA08E6FBAD5EAF5DAE5C1234A022ADE6
:101863005EAF5DAE5C1234A0A205920612397522FA
:101873007F207E0012394F8E498F4A7A003003044D
:101883007B0280027B017D107F207E001234A075D5
:101893005707AF57123A65AC06AD07E4120362ABC4
:1018A30048AA47A946A84512013E8F4E8E4D8D4C3E
:1018B3008C4B7F667E7F7D621230C3400D7F267E18
:1018C300E57DE51230C360054003D557C5E55724D0
:1018D300FFFBE434FFFA7D867F1F7E011234A07F75
:1018E300AC7EE97DA31230C37F00600440027F0118
:1018F3008F57EFFB7A007DAA7F1C7E011234A0E58F
:10190300572401FDE433FCE4120362AB1CAA1BA9B8
:101913001AA81912013E1230BAAF4EAE4DAD4CACFF
:101923004B1202478F568E558D548C5312039BE4F2
:1019330012035D1230BAAF56AE55AD54AC5312001C
:101943004912310C1231148F528E518D508C4F7CB1
:10195300C0AB56AA55A954A8531230F3AB07AA0635
:101963007DD47F1E7E011234A0AF52AE51AD50AC78
:101973004F12312C7F1E7E011234A0E552FFE55138
:10198300FEAD07AC067F1D7E01123A77C204754E89
:10199300FFE4F54BE54B121A03D20512169AEF70CA
:1019A3002A7DA37F217E011237DA8F4FEF2480FF38
:1019B300E434FFFE123ABB8F50E550C3954E5009F5
:1019C30085504E854B4C854F4DD204054BE54BC39B
:1019D300940340C0E54C121A03E54DFB7A007DA346
:1019E3007F217E011234A0AD4AAC497F207E0012D4
:1019F3003A772004087F033003027F04227F00220A
:101A0300FB7A007D217F217E011234A0227F207E7C
:101A13000012394F8E2B8F2CE52C54036401700672
:101A2300FBFA7D448005E4FBFA7D337F82FE1234AA
:101A3300A07E3B7FE2123275120003123396A90790
:101A4300E96001227B011226A41234A01237A0D22E
:101A53000312286AC004C005C006C0071226791203
:101A630026E9D007D006D005D0041200497B007ABE
:101A730024797478C912004D8F308E2F8D2E8C2DC2
:101A8300C203122714121873A907E96006121B84F4
:101A9300AF0122E52C30E117E4FBFA7D117F82FED2
:101AA3001234A012273A121B901227571234A01295
:101AB30026A21234A07A0012271D1234A01239FC78
:101AC3004006121B847F0422AD2CAC2B7F207E00AA
:101AD300123A77123927D203122679122696123533
:101AE300EE7DBA7F037E011237DA8F2D300150E489
:101AF300FBFA7D777F0C7E011234A0E52D64016033
:101B030006E52D64027035E5125403F52EFB7A00C9
:101B1300121B7AE52E24FFFFE434FFFEEFF4FBEE05
:101B2300F4FA7D21121B90E52D147F0070027F01D2
:101B3300E5121313543F6F602E7F07227F0722E5C0
:101B43002D64016009E52D640260037F0722E52D02
:101B53002401FBE433FA121B7A7D657F0C121B6DA3
:101B63007D437F0D121B6D7F0022E52D6403FB7AFD
:101B7300007E011234A0227D877F0D7E011234A0E6
:101B830022AD2CAC2B7F207E00123A77227F0D7E74
:101B9300011234A022AB28AA27A926A8257C3F122C
:101BA300013EA804A905AA06AB0722E4FBFAF978CB
:101BB30040120613120247AB37AA36A935A83422BE
:101BC300D3E5279532E526953122E4FBFA78C21254
:101BD300004D02039B7F807E96AB3FAA3EA93DA8A2
:101BE3003C0202E4903CDAE4FBFAF9784012061373
:101BF300020247120613AB25AA24A923A822020234
:101C0300E4EF2419FFE43EFE7BFF7A00E4FDFC22AF
:101C13007F887E457DC87C4E120247E4FBFA22C3CF
:101C2300740F9FFFE49EFE7B0F7A00E4FDFC22AE5F
:101C330037AF38E4FCFDC30205DCFB7A007DFA7F95
:101C4300087E0122AE29AF2A7C007D640204A6AB84
:101C530028AA27A926A825227DA67F667E667C3F23
:101C63002212013E7B007A247974784922E5349468
:101C730000E53364809480228E3C8F3D7C007D643C
:101C83000204FBC3E53C9540F53CE53B953FF53B42
:101C930022AB3CAA3BAD36AF35AE34227F607EFE2D
:101CA3007D4D7C4C22AB3AAA39A938A83722E540AE
:101CB300253CF53CE53F353BF53B228E358F36AB76
:101CC30036AA357D707F09227A007D327F157E0129
:101CD30022AA06AB077F127E01221202478F428E91
:101CE300418D408C3F22AB42AA41A940A83F02014B
:101CF3003EAB2BAA2AA929A8280202E47D857F14DA
:101D03007E01227B017A00E4FD227DF87F097E01BA
:101D1300227F207E0012394F8E3F8F407E3C7FBA58
:101D2300123275E540540364017006FBFA7D22808C
:101D330005E4FBFA7D117F82FE1234A020022212F9
:101D4300276C1237DAEE7016EF14600B24FE60076F
:101D530004700B7B0180027B02121E6780277F06C3
:101D630022E51213135401FFC374029FF541FB12C2
:101D73001E6712276C1237DAE51254036F7001EEF7
:101D830060037F06221226A21234A012271F1237E5
:101D9300DAEF4E702D121E731237A0D20312286A87
:101DA300C004C005C006C0071226791226E9D00771
:101DB300D006D005D00412004978CB12270BC203FA
:101DC300803B7B011226A41234A01239FC40037F0E
:101DD3000322C20312286A8F448E438D428C411220
:101DE30026A21234A01237A0D203122679AB44AA3A
:101DF30043A942A84112004D784B12270B121873C6
:101E03008F3E121E7FE53E6002FF221239271233F6
:101E1300968F3EE53E600122120003D203754940CE
:101E230075485475470975464BE4F54A1235EE1269
:101E3300267712268B1235EEE54054036402702197
:101E4300121E7312273A7F0D7E011234A0122757F8
:101E53001234A0E4FBFA7D117F82FE1234A0121E1D
:101E63007F7F00227A007DBA7F037E011234A02295
:101E73007B01FA7D107F20FE1234A022AD40AC3FDF
:101E83007F207E00123A77227F207E0012394F8E08
:101E9300368F37C20212257AA2009202121D148FC6
:101EA30035E5356003021F3E122F37122E743001C1
:101EB30003021F3E20002612276C1237DABF020CE2
:101EC3007D55121FCFE4FBFA7D33800A7D66121F16
:101ED300CFE4FBFA7D447F0D7E011234A01226A2CB
:101EE3001234A012271F1237DAEF4E701BFA122793
:101EF3001D1234A07B011226A41234A0E4FBFA7D48
:101F0300117F1C7E011234A0121FE5AF18AE17AD6E
:101F130016AC15A2009202122B198F35E535701BF2
:101F23007DDD121FDA1226AD1234A0122677784710
:101F330012268D1235EEC2021229507DA07F027E39
:101F4300041237DA8E388F397DA07F017E04123771
:101F5300DA8E3A8F3B7DB07F037E041237DA8E3CF4
:101F63008F3DD20212257A121FE5E5356002FF226A
:101F7300200127AB39AA387DA07F027E041234A04A
:101F8300AB3BAA3A7DA07F017E041234A0AB3DAAED
:101F93003C7DB07F037E041234A01226DE1234A0EF
:101FA300E53730E007E4FBFA7D668005E4FBFA7D64
:101FB300777FC07E051234A07D20121FDAE4FBFA7E
:101FC3007D887F0C7E041234A07F0022E4FBFA7F1D
:101FD3000C7E011234A022E4FBFA7F0C7E0412343F
:101FE300A022AD37AC367F207E00123A77223E9294
:101FF30048DA3ECCCCCD3F2AAAAB400000003F805C
:1020030000003F9837F03FB504F33FD744FC3E311F
:1020130072173EB172173F0515913EDE5BD9D201AF
:102023008002C201EDD2E7F8CD33EC3304700BBD6F
:10203300800592D502041102040740FBD31460F219
:10204300F5F07C3FEE7A00C39496C8948B40230A44
:10205300C89469C8941A401A0AC89468C8941F405F
:10206300110AC8945AC89425400805F07A00CDC2D5
:10207300E7CDC0F08C4D8D4E8E4F8F50EA2323C099
:10208300E02401F582E43420F58312062312004D87
:10209300ECC0E0EDC0E0EEC0E0EFC0E0120613A834
:1020A3004DA94EAA4FAB50120049D0E0FBD0E0FA45
:1020B300D0E0F9D0E0B2E7F81202478C4D8D4E8E96
:1020C3004F8F50901FF17403120447A84DA94EAAD5
:1020D3004FAB5012013ED0E0600F240DF582E43483
:1020E30020F58312062312004D8C4D8D4E8E4F8F9B
:1020F30050D0E0C3947FFDE49400FC1203627B188C
:102103007A727931783F12013EA84DA94EAA4FAB9E
:102113005012004D30010B7BD97A5B79DE783E1289
:10212300013E221226A61237DA8F3D12273AFF7E8E
:10213300011234A0E4FBFA7D887F087E021234A0EA
:102143001226AD1234A012274C1234A01226DE122E
:1021530034A0752DA07536A0E53DB40117752B0588
:10216300752CC37534057535C47D44122238E4FBE0
:10217300FAFD8016752B05752CC57534057535C6A6
:102183007D55122238E4FBFA7D117FC07E0512349F
:10219300A0E4FDFCAF2CAE2B12341FE4FDFCAF35E5
:1021A300AE3412341FE4F52EF52FF537F538F53E2E
:1021B3001226B7E493FE740193FFC3E52F9FFFE557
:1021C3002E9EFE7BFF7A037D007CFC1238228E302C
:1021D3008F311226B7740193252FFFE493352EFE1A
:1021E3001238228E328F331226B7E493FE74019392
:1021F300FFC3E5389FFFE5379EFE1238228E398FE5
:102203003A1226B77401932538FFE4933537FE124B
:1022130038228E3B8F3C7B007A00792B122CCF7BAC
:10222300007A007934122CCF053EE53EC394035067
:10223300030221B322E4FBFA7FC07E051234A022FD
:10224300752B50752C007D221226AF1234A0122656
:10225300AD1234A0122677E4FBFAF9784012013E5E
:102263007B007ABA795B78491226931235EE7D406A
:102273007F197E011237DA8F2D30010EE4F52EE53A
:102283002E7D967F1312235680367D527F137E0157
:102293001237DA8F2E8029122762400302232CE59E
:1022A3002EC3940F400302232C052EE52EFB7A0048
:1022B3003001047D9680027D527F137E011234A08B
:1022C3001236A88E2F8F3080CEE52DC3941950611E
:1022D300E52E640F705B1227625056E52DC39419E7
:1022E300504F052DE52D7D407F191223561236A838
:1022F3008E2F8F30AC2FAD30E4120362C004C005C3
:10230300C006C007AC31AD32E41203621226E9D035
:1023130007D006D005D0041202477B667A66798619
:10232300783F1202E460025008852F3185303280F5
:1023330098C3E5309421E52F940B50057E007F056B
:10234300227D771226F41234A01226F21234A0E46E
:10235300FEFF22FB7A007E011234A0228F468E45B7
:102363008D448C43E4FFFE7D807C3FAB46AA45A9A8
:1023730044A8431202E47009AF46AE45AD44AC43F2
:1023830022AF46AE45AD44AC4312041CFBAF4AAE8C
:1023930049AD48AC4712041CFFBF0108E4FFFE7DB2
:1023A300807C3F22EF64046022EB6404601DBB0168
:1023B30027E4FFFEFDFCAB4AAA49A948A84712023D
:1023C300E460084006E4FFFEFDFC2274FFF54AF5D5
:1023D30049F548F54702246DE4F54BF54CFFFEFD46
:1023E300FCAB46AA45A944A8431202E4504BAF4AAA
:1023F300AE49AD48AC4712039B8E4B8F4CAC4BADF3
:102403004CEC120362C8ECC8C9EDC9CAEECACBEFE3
:10241300CBAF4AAE49AD48AC47120049E4FBFAF9E9
:10242300F81202E470A5AF46AE45AD44AC431204C6
:10243300368F468E458D448C43AF46AE45AD44AC96
:1024430043122025AB4AAA49A948A84712013E12C4
:1024530032138F4A8E498D488C47E54C30E00B127E
:1024630004368F4A8E498D488C47AF4AAE49AD48F2
:10247300AC47228F4B8E4A8D498C487F7D7EDA7D17
:10248300AC1230D7798078BF1230F88F547F287E12
:102493006B7D6E1230D7F978BF1230F88F55E55542
:1024A3002554FFE433C313EF13F5562401FFE4333C
:1024B300FEEF25E0FDEE33FCE4120362AB4BAA4AC8
:1024C300A949A84812013E8F4F8E4E8D4D8C4CE585
:1024D30056FB7A007DA37F891225618F538E528D1F
:1024E300518C507CBFAB53AA52A951A8501230F360
:1024F300AB07AA067DD47F8812256112039BE412E1
:10250300035D1230BAAF53AE52AD51AC5012004915
:102513008F578E568D558C54E4FFFE7D807C49ABDE
:1025230057AA56A955A8541231148F5B8E5A8D5948
:102533008C58E4AB07AA067DF07F87FE1234A0AF68
:102543005BAE5AAD59AC5812312C7F887E001234E1
:10255300A0C20512169AEF7F0060027F02227E005E
:102563001234A0AB1CAA1BA91AA819AF4FAE4EADCB
:102573004DAC4C12024722E4F53EF53F7F20FE129C
:10258300394F8E428F437924E9605225E0244AF57E
:1025930082E4343FF583E493F540740193F541E914
:1025A30025E0244CF582E4343FF583C3740193950D
:1025B30041E49395404022300205122657800812C9
:1025C3002638ECF0A3EDF0053FE53F7002053E052C
:1025D30041E54170CA054080C6191980ABE4F9E9A9
:1025E30024FDFDE434FFFC7F207E00123A77754022
:1025F3000175411C3002051226578008122638EC5B
:10260300F0A3EDF0053FE53F7002053E0541E541CE
:1026130070020540D39423E540940140D709E9644F
:102623000270BCAD43AC427F207E00123A77300289
:102633000312375922AF41AE4012394FAC06AD07F2
:10264300E53F25E0FFE53E33FE74002FF58274007D
:102653003EF58322E53F25E0FFE53E33FE74002F80
:10266300F58274003EF583E0FCA3E0FDAF41AE408C
:10267300123A7722C203AF18AE17AD16AC1579A084
:102683007840E4FBFA02024778C77B007A5079C3AB
:1026930012004D8F498E488D478C46E4F54A227BC4
:1026A300027A007D107F207E00227D77E4FBFA7F93
:1026B3000C7E0422E53E25E0244AF582E4343BF512
:1026C3008322E975F0288475F018A4FFE92400FD3E
:1026D300E43405CD2FFFED35F0FE227B017A007D3A
:1026E300FF7FC07E0522A804A905AA06AB07227DA9
:1026F300227B017A007F0C7E0422D3903CCC7401B0
:10270300939543E4939542227B407A5479091200CE
:102713004D8F488E478D468C45227B017D667F1CFD
:102723007E0122C3E55D955FE55C955E22C3E543CB
:102733009545E5429544227B017A00E4FD22FEC3E0
:10274300EF9401EE64809480227B017A007D337FD5
:10275300087E02227B017A007DEE7F007E0122C388
:10276300E530952CE52F952B227D877F0D7E012269
:102773007F207E0012394F8E228F23C20212257AC8
:10278300A2009201121A108F24E5247043122F37EE
:10279300122E74A20092011222438F24E52470307A
:1027A300122E741226777B007ABA795B7849122647
:1027B300931235EE122126C2037549007548BA7586
:1027C300475B754649E4F54A1235EED202122950A9
:1027D3007DA07402FFFE1237DA8E258F267DA07F3F
:1027E300017E021237DA8E278F287DB07F037E02A7
:1027F3001237DA8E298F2AD20212257AAD23AC2220
:102803007F207E00123A77E5246002FF22AB26AADE
:10281300257DA07402FFFE1234A0AB28AA277DA059
:102823007F017E021234A0AB2AAA297DB07F037EEA
:10283300021234A01226DE1234A0E52330E007E4AE
:10284300FBFA7D448005E4FBFA7D557FC07E0512CB
:1028530034A012274C1234A0E4FBFA7D107F087ECB
:10286300021234A07F00227F207E0012394F8E4552
:102873008F467A003003047B0280027B017D107F48
:10288300207E001234A07DD07F1E7E011237DA8EA7
:10289300478F487F1D7E0112394FE4FCFDC004C001
:1028A30005C006C007FEE548123138D003D002D078
:1028B30001D0001205C18F4C8E4B8D4A8C497DAAE5
:1028C3007F1C7E011237DAEF04F54D7D867F1F7E74
:1028D300011237DAEF04F54EAD46AC457F207E009A
:1028E300123A77AF4E1230AF123121C004C005C087
:1028F30006C007AC4DE4120367D003D002D001D069
:102903000012013EC004C005C006C007AF4CAE4B69
:10291300AD4AAC49123108120247C004C005C006D3
:10292300C007E547C4F854F0C868FEE548C4540F2F
:10293300482404123100D003D002D001D000120089
:102943004DD003D002D001D00012013E227BFF7A8A
:102953003A79D28B3E8A3F89407550A07547B03093
:1029630002107543027544017402F541F542F545C1
:10297300800F754304754401754104754202754522
:1029830004754603754C00754D80754AFF754B8081
:102993007F45122A357DBF122A2B7DFF122A23126F
:1029A30036A88E578F587DFF122A2B7DBFAF44AEBA
:1029B30043123A771236A88E598F5AC3E558955A5F
:1029C300E5579559500885414E85424F800685430A
:1029D3004E85444F7DFF7C07122A23755507755694
:1029E300FF7553057554FF7F4E122A35E5492410B0
:1029F300F54DE43548F54CE54924F0F54BE548340D
:102A0300FFF54A7F45122A35AD52AC51AF4FAE4E5A
:102A1300123A77AB49AA48AD47AF46AE450234A058
:102A2300AF44AE43123A77227C07AF42AE41123A2B
:102A330077228F5B74FFF55CF55DA807E82405F842
:102A4300E6F56008E6F561A807E82407F8E6F5620D
:102A530008E6F563A807E6F56608E6F567A807E85C
:102A63002402F8E6F568FD122B0A8E5E8F5FC3E53C
:102A7300639561FFE5629560122741405E7C007DAE
:102A8300021204FB8E648F65122726500BAD681269
:102A93002B0A8E5E8F5F8014AB61AA60AD68AF674F
:102AA300AE661234A01236A88E5C8F5DD3E56594B2
:102AB30000E564648094804022122726500FC3E50A
:102AC300639565F563E5629564F56280A1E5652527
:102AD30061F561E5643560F5608093122726500641
:102AE300AE60AF618004AE62AF63E55B2403F8A61A
:102AF3000608A607E55B2403F8E6FA08E6FBAD68DB
:102B0300AF67AE660234A0AB63AA62AF67AE66126C
:102B130034A01236A8228F418E408D3F8C3E7DFA21
:102B23007F087E011237DA8F447B017A007DDD7FD7
:102B33000C7E041234A01226AD1234A0C203AF419E
:102B4300AE40AD3FAC3E12268112268B1235EE30DD
:102B5300022675450F800F1226FD40411545E545B8
:102B6300648094804037E545FB3395E0FA7D5174EA
:102B730001FFFE122BEF80DF75450280101226FD48
:102B8300401B05450545E545D3940F5010E545FB2E
:102B93007A007D527F137E01122BEF80E0C3E54262
:102BA3009410500F05440544E54494395005122B05
:102BB300D980EA1226FD400E0544E544D3943E50E5
:102BC30005122BD980EDC3E5439421E542940B7F95
:102BD3000050027F0522E544FB7A007DFA7F087EE0
:102BE300011234A01236A88E428F43221234A0124F
:102BF30036A88E428F43227581D0E4F5A27591FFEA
:102C0300F59075A10775A9FF75A880758901C2A004
:102C1300D2A13007FDE50A12063F2C4B002C5201CE
:102C23002C56022C5A032C5E042C65052C74062C9E
:102C330083072C8A082C91092C990A2CB3112CBCDC
:102C4300122CC7FF00002CCAC2073008FD8042C205
:102C530000805FC2008064C2008002D20012364C42
:102C63008065AF18AE17AD16AC151206658F908050
:102C730056AF18AE17AD16AC15120A908F90804759
:102C83001239998F908040123A188F908039850BB2
:102C930012E4F5908031E4F590C2097F2DFE1239DC
:102CA3004FE4FCFD78021206001214758F90801712
:102CB300D2001227738F90800ED200C201121E8B96
:102CC3008F908003759005C207022C158B3F8A40B5
:102CD300894174FFF542F54390000512055CF54701
:102CE30085F04690000712055CF54985F048122DE2
:102CF300928E448F45C3E5499547FFE548954612B3
:102D03002741405B7C007D021204FB8E4A8F4B12ED
:102D13002730AB3FAA40A9415009122D928E448F10
:102D2300458014120531FFAEF0AD47AC4612341F97
:102D33001236A88E428F43E54B454A602212273054
:102D4300500FC3E549954BF549E548954AF5488049
:102D5300A4E54B2547F547E54A3546F546809612E7
:102D630027305006AE46AF478004AE48AF49AB3F6D
:102D7300AA40A941900003EE8FF012059412053189
:102D8300FFAEF090000312055CFDACF002341F129D
:102D93000531FFAEF0AD49AC4812341F1236A822FC
:102DA3008E348F358D368A378B381236A8121BA591
:102DB300121C3250028001C39200121C981237DA9F
:102DC3008E3B8F3CE536C4540FFFE536540FFEC3EC
:102DD300EF9E04FF123A65EF24FFF53EEE34FFF554
:102DE3003D753F00754001E54025E0F540E53F3383
:102DF300F53F300005121C868003121CB1AB3EAABE
:102E03003DE4FDFCAF3CAE3B1238228E3B8F3C12BF
:102E13001C941234A01236A8121BA5121C327F0078
:102E230050027F01A200E433B50713C3E540953A8E
:102E3300E53F953940B17F803000027F8122D3E5A1
:102E4300409401E53F94004025E53F13F53FE540FD
:102E530013F5401236A8121BA5121C324005121C92
:102E6300B18003121C86121C941234A080D07F0000
:102E730022753E05753FC71226A61237DA8F40E446
:102E8300FBFAFDFF7E011234A01226F21234A012C7
:102E930026DE1234A0E540B401117D66122F0D7DAC
:102EA30022122F0D7D30122F2D801A7D77122F22A3
:102EB3007D33122F227DC0122F2D7402253FF53F43
:102EC300E4353EF53E7FC17E0512394FEE54F07076
:102ED300F4E4FBFA122F18C202AF3FAE3E122FEDFD
:102EE3007BFF7A07122F18E53F2401FFE4353EFEEE
:102EF300C202122FEDE4FBFA7D227F0C7E04123412
:102F0300A012273AFF7E010234A0E4FBFA7FC07EC1
:102F1300051234A0227DA07F017E041234A022E496
:102F2300FBFA7FC07E051234A0227CFF7FC27E05A0
:102F3300123A77227D207F0A7E041237DAE47E017B
:102F4300A807088005C333CE33CED8F9F53F8E3EAC
:102F53007DEC7F037E041237DA8F40E540C394068D
:102F6300500F7402A807088002C333D8FCF54080D1
:102F730003754001C204123588E4FBFAF978401264
:102F83000247C004C005C006C007AC40E412036793
:102F93001226E9D007D006D005D004120247C00498
:102FA300C005C006C007AC3EAD3FE4120362D003C8
:102FB300D002D001D0001202478F448E438D428C41
:102FC30041AF1CAE1BAD1AAC19AB44AA43A942A82E
:102FD3004112013E7940784112268512039BC37446
:102FE300FF9FF51474FF9EF513228E418F4230022A
:102FF300067E037FFF80047E007F3F8E4D8F4EAFA2
:1030030042AE4112351A8E4A8F4B8E488F49123683
:10301300A88E448F458E468F47E54B2401FFE43548
:103023004A123814AC06AD0712308C1226E9AE44AE
:10303300AF45E4FCFDC31205DC7FFF50027F018F27
:103043004C754308AF4CEF3395E0FEE54B2FFFE59E
:103053004A3E1238148E4A8F4BAD4BAC4A12308C19
:103063008E448F45C3E5459547E5449546500C8509
:103073004446854547854A48854B49D543C6AD49AE
:10308300AC48AF42AE4102341FAF42AE4112341FCF
:103093001236A822F582E43545F58312063375F01E
:1030A30002E548A4F58285F08302055C123A65AC1B
:1030B30006AD07E4120362A804A905AA06AB07221A
:1030C3007C4FAB4EAA4DA94CA84B0202E4E5672501
:1030D300E025E022AB4BAA4AA949A8487C4E12023C
:1030E30047E4FBFA22AF54AE53AD52AC5102024750
:1030F300E4FFFE7D8012004D02039B2401FDE43EAC
:10310300FCE4020362E412035DE4FBFA798078498C
:103113002212013E02039B85468285458322AF1C12
:10312300AE1BAD1AAC1902024778101205EDAB07BE
:10313300AA067D3022540FFFE478100206007DA317
:103143007F897E001237DAEF1230FEC004C005C05B
:1031530006C007E4FBFAF97840123121D003D0020C
:10316300D001D0001202478F5C8E5B8D5A8C597D43
:10317300D07F887E001237DA8E5D8F5E7DF07F8789
:103183007E001237DAE4FCFDC004C005C006C007A8
:10319300FEE55E123138D003D002D001D000120513
:1031A300C1123108120247C004C005C006C007E5BA
:1031B3005DC4F854F0C868FEE55EC4540F4812308D
:1031C300FED003D002D001D00012004DAB5CAA5B4D
:1031D300A95AA85912013E2233DA929E35B16011E1
:1031E300377FE5FE392184893AAEC3FF3C1D955BE9
:1031F3003D6358473E75FDF03F3172183F80000034
:10320300C2D5020411020407BD80FA50F302040E72
:10321300ED33EC330460F17B3B7AAA79B8783F1243
:10322300013EED33EC3392D5247B5011A2D570DBF4
:10323300500BED448024045004A2D580CEEFFBEE66
:10324300FAEDF9ECF812039BEFF582F404FC120398
:103253006712004DC0829031DB7409120456ED33BE
:10326300CC33D0F092D525F0A2D57001C313CC1383
:10327300FD228E458F468F828E83740993F547E531
:1032830047604614F54812311A12309EFFAEF0C063
:1032930006C0071230A1FFAEF012394FE5462406EF
:1032A300123097F4FDE5F0F45EFEEF5DFF12311A84
:1032B300A3A3A312309EFDEE45F0FCEF4DFDD00716
:1032C300D006123A77154780B612311A741093F567
:1032D30047E547603114F548E546240A123097FF65
:1032E300AEF012311A741193FDE547D39D40067C6D
:1032F300007D00800AE546240D123097FDACF012E4
:103303003A77154780CB22787FE4F6D8FD75817331
:10331300023351022BFAE493A3F8E493A34003F698
:103323008001F208DFF48029E493A3F85407240C06
:10333300C8C333C4540F4420C8834004F4568001E7
:1033430046F6DFE4800B0102040810204080903829
:10335300FDE47E019360BCA3FF543F30E509541F95
:10336300FEE493A360010ECF54C025E060A840B8EB
:10337300E493A3FAE493A3F8E493A3C8C582C8CA69
:10338300C583CAF0A3C8C582C8CAC583CADFE9DE3C
:10339300E780BE1231417B007AC8792F784C120244
:1033A30047E4FBFAF9783F12004D12039B7B0D7A39
:1033B300007D027C001238228F45E54525E025E09B
:1033C300F5467DBB7F867E001237DAEF64014E70CF
:1033D300127DCB7F89FE1237DA123A65E5468FF00C
:1033E30084F54675473FE547600FE546C39547506B
:1033F30008E547C313F54780EDE547FB7A007D7089
:103403007F077E041234A0AC45E41203677B007A85
:10341300C8792F784C12013E122476228E4F8F509A
:103423008C518D52C3E55094C7E54F940550067EE9
:10343300037FFF80047E007F3F8E538F54E4F55556
:10344300F556C3E55164809480501AE5542401FF76
:10345300E43553FEEF4256EE4255E5522554FFE55F
:10346300513553800FE5522554CFE5513553CF24C1
:1034730001CF3400FE123ABBE5535EFEE5545F42D2
:1034830056EE4255AD56AC55AF50AE4F123A77E5B6
:10349300554480FCAD56AF50AE4F023A778A708BDD
:1034A30071A9058F828E8312394FAD07AC06E9C42B
:1034B300540FFFE9540FFBC3EF9B04FF74FFFEA8F7
:1034C30007088005C333CE33CED8F9F4FFEEF4FEFC
:1034D300EFA803088005C333CE33CED8F9F5738E36
:1034E30072E9540FFFE571AE70A807088005C33376
:1034F300CE33CED8F9FFE5725EFEE5735FFFE57369
:10350300F4FBE572F45CFCEB5DFDEC4EFCED4FFD72
:10351300AF82AE83023A778F828E83C3E58294C7EC
:10352300E583940550067E037FFF80047E007F3F82
:103533008E4F8F50AF82AE83E4FDFC123A77AF8299
:10354300AE837D007C40123A77AF82AE8312394F4F
:103553008E518F52AF82AE83E551543FFCAD521270
:103563003A77E551554FFEE5525550FFE55024019A
:10357300FDE4354F5551FCE5525D4C60077CFF7D02
:10358300FF120494221231418F548E538D528C5169
:103593007DCB7F897E001237DA1230AF1230E88F8D
:1035A300588E578D568C557DBB7F867E001237DA39
:1035B300EF4E7017300409AF58AE57AD56AC5522D5
:1035C300E4FBFA798078401230E82230040AAF54E1
:1035D300AE53AD52AC518012E4FBFA79807840AF20
:1035E30058AE57AD56AC5512024722E54A75F00264
:1035F300A4FFAEF07C043003027C027D42EF2DF584
:103603004CEE3CF54BA20392041235881230BAAF4C
:1036130049AE48AD47AC461230E17980784F12315C
:10362300148F508E4F8D4E8C4D78101205EDAD07D3
:10363300AC06AF4CAE4B123A77E54C2401FFE435B0
:103643004BFEAC4FAD50023A77E50CAD0DFCE412E6
:103653000362E4FBFA797A7844120247C004C00596
:10366300C006C007AC0BE4120367D003D002D0013D
:10367300D00012004D7B007A247974784912013E00
:103683008F258E248D238C2230000A8F1C8E1B8D58
:103693001A8C19800C8525188524178523168522F5
:1036A30015E4F59022C28CE513F58CE514F58AC276
:1036B3008DD28C308DFD7DFF7F007E04123A337FE7
:1036C3000F7E0412394FE48F6C8E6BF56AF5697FB8
:1036D3000E7E0412394F7E00EF5403FFE4FCFDC05D
:1036E30004C005C006C007AF6CAE6BAD6AAC6978A9
:1036F30002120600D003D002D001D0001205C1226D
:103703008F468E458D448C43E4FFFE7DA07C41AB08
:1037130046AA45A944A84312013E7B007AC8792FE3
:10372300784C121C1BF9783F121BD27B0D7A007D5B
:10373300027C00123822AC07E41203677B007AC8CC
:10374300792F784C12013E7B807A967918784B1248
:10375300004D122476227F2B7E0012394F8F828EEA
:1037630083E58364027F2B123797AD82AC837F2B73
:103773007E00123A777F207E0012394F8E838F822C
:10378300E58354557F20123797AD82AC837F207E2B
:1037930000023A77FCAD827E00123A77227907E97C
:1037A30025E02494F582E4343FF583E493FE740129
:1037B30093FFE925E024A2F582E4343FF583E49303
:1037C300FC740193FD123A77D9D57BFF7AB97DF862
:1037D3007F207E010234A0A90512394FAC06AD0744
:1037E300E9C4540F04FF74FFFEA807088005C33320
:1037F300CE33CED8F9F4FFEEF45CFEED5FFFE9546F
:103803000FFDEFA805088005CEC313CE13D8F9FF2B
:1038130022FEC3E4954EFDE4954DFCAB4EAA4DC389
:10382300EF9DEC6480F8EE6480985005AE04AF051C
:1038330022D3EF9BEA6480F8EE6480984005AE02E1
:10384300AF032222C0E0C0D075D000C000C006C0C4
:10385300077590FF7F02740A2FF8E6FE740B2FF8AA
:10386300A606DFF285800B759000D007D006D00046
:10387300D0D0D0E032E4F9E925E024C830001012BA
:1038830038E11238F0E0FCA3E0FD123A77800E1223
:1038930038E112394F1238F0EEF0A3EFF009B90511
:1038A300D6221239C9123A4CD2A27D10D2A0123AB2
:1038B3009BEB25E0FBEA33FA30A303430301C2A0E9
:1038C300123A9BDDE7D2A1D2A2AE02AF0322E4FFFC
:1038D300FEFDFCAB2CAA2BA92AA8290202E4F5823F
:1038E300E4343EF583E493FE740193FF22E925E07B
:1038F30024E8F582E43403F5832204154A9896807C
:1039030002130001011200021DFF0004194BEA60BB
:1039130000C109C188C107020E002D0208020C0272
:1039230010040B007DFF7C7F7F0C7E02123A777DB3
:10393300557F007E02123A337D007C807F0C7E022D
:10394300123A777D667F007E02023A331239C9123A
:103953003AABD2A27D10D2A0EB25E0FBEA33FA30DA
:10396300A303430301C2A0DDEDD2A1D2A2AE02AFF5
:103973000322C28CE51DF58CE51EF58AC28DD28C1F
:10398300308DFD3006067E017F2380047E007F8C10
:103993007DDC1237DA227590FFAF0FAE0E12394F6E
:1039A3008F828E83AF09AE0812394FAD07AC06AFD5
:1039B30082AE83123A897F0022AB05AA04C2A0C259
:1039C300A1EE4480FE22E4FBFAC2A0C2A1EE547F22
:1039D300FE22EF25E0FFEE33FED2A022EFC39415C3
:1039E30050037F0122EFC3940D50037F0222EFC3E4
:1039F30094087F0050027F03227DDC7F237E011227
:103A030037DAEF64024E7002D322D20512169AEF10
:103A1300C37001D3227590FFAF0FAE0E12394F1250
:103A230038A5AD07AC06AF11AE10123A777F00226E
:103A33008E6D8F6E8D6FE4FBFA1234A07B017A00DA
:103A4300AD6FAF6EAE6D0234A07D10C2A0123A9B73
:103A5300EE3392A2123A9B1239D5123A9BDDECC295
:103A6300A02274017E00A807088005C333CE33CE9D
:103A7300D8F9FF221239BC123AABAF03AE02123AA5
:103A8300ABD2A1D2A2221239BC123A4CAF03AE027E
:103A9300123A4CD2A1D2A222C28C758CFF758AF045
:103AA300C28DD28C308DFD227D10C2A0EE3392A246
:103AB3001239D5DDF5C2A022EE30E707C3E49FFF3C
:103AC300E49EFE227590FF85800AD209D207320058
:103AD3000800040000FFFAFFF5FFF0FFECFFEAFF28
:103AE300EAFFECFFF2FFFB000600140022002E00A9
:103AF30038003D003A0030001D0003FFE3FFC1FF23
:103B0300A0FF85FF74FF72FF80FFA2FFD4001400A3
:103B13005D00A700E80118012E012300F4009F00B7
:103B230029FF9AFEFEFE67FDE5FD8CFD6EFD9AFE04
:103B33001AFEF30022019D03540530071608E80A14
:103B4300890BDE0CCD0D4903FF00800008008400C3
:103B53008500AE0101011302000201020202080402
:103B6300000001F0000001001C000C07FF07FF002C
:103B730000F8FF0007F0001801003C000C07FF07E6
:103B8300FFF10B010C0112011501160117011801B8
:103B930019011A04000401040204030404040504C3
:103BA30006040704080409040A040C04400442043C
:103BB3004388E5403200058180280C218C31802E1A
:103BC30002008107FF07FF4000000000000000071C
:103BD300000000000010012098002000000000FFFA
:103BE3003B50FF3B62FF3B7409FF3B86FF3BB4172F
:103BF300170084008500AE010C010D0113011501AE
:103C03001904000001F00000000040000C00000057
:103C130000F8FF0007F000001A0040003CC00080DD
:103C23000001000101010201030104010501060174
:103C33000701080109010A02000201020202080247
:103C43004004000401040204030407040A040C04EE
:103C53004005C005CB020302040205020602070267
:103C63004104040405040604080409044105C105CC
:103C7300C205C305C405C505C605C705C805C905ED
:103C8300CA05CC3408600131800A1200880007316C
:103C93008C318C042661C1104C008D07FF07FF2077
:103CA300700020008107FF07FF400007001000207D
:103CB30098002000FF2020FF3BF4FF3C04FF3C144E
:103CC30008FF3C24FF3C86311A700049AAE6004CE9
:103CD300F7F4904A9896804C1896804C3EBC204C42
:103CE300F7F4900085010D011301140084008B008B
:103CF30001010000040010040021000007018800F6
:103D03003C001FF83FC1FF00820086008700880047
:103D130089008A008C0100010101020103010401F1
:103D2300050106010701080109010A010C0115013A
:103D330016011701180119011A02000201020202F9
:103D430003020402050206020702080209024004F4
:103D53000004010402040304040405040604070424
:103D6300080409040A040C04408003490104000701
:103D73008000200514067B3409600131800612009F
:103D8300880007318C318C042661C1104C88C50032
:103D9300098180280C018C528B2E02008D07FF07AE
:103DA300FF00000000000000000000207000000081
:103DB30020008107FF07FF40000000000000000013
:103DC3000000000000100120380020FF3CE6FF3C0B
:103DD300F2FF3CFE06FF3D0AFF3D6C3131008200DD
:103DE300850100010C010D0084008B80010001009E
:103DF300000000001E040021001FFF000700010057
:103E030001001EF83FC1FF0086008700880089007B
:103E13008A008C01050106010701080109010A0155
:103E2300150116011701180119011A0200020102F6
:103E3300020203020402050206020702080240020C
:103E430041040004010402040304040405040604F9
:103E53000704080409040A040C044004414901044A
:103E630000078000200514067B3007318C318C0558
:103E73008C61C1104C000D8180280C618C528C2EFA
:103E830002008D07FF07FF00000000000000000094
:103E930000007000200000008107FF07FF400000C2
:103EA30000000000000000000000001001203800A6
:103EB300200000FF3DE0FF3DEEFF3DFC07FF3E0A13
:103EC300FF3E602B2B0081010F0126040A040C0026
:103ED3000100110021000200120022003200130031
:103EE3002300330043002400340044005400350011
:103EF30045005500650046005600660076005700F1
:103F030067007700870068007800880098007900D0
:103F130089009900A900AA00BA00CA00DA00DB00F0
:103F2300EB00FB010B011B012B013B014B015B016F
:103F33006B017B018B019B01AB01BB01CB01DB015E
:103F4300EB01FB01FC01FD01FE01FF0021002F003D
:103F530082008200840084008500850086008C0036
:103F63009200A700A800A800AD00AE010001040163
:103F730005010A010C01140115011A0200020C02C9
:103F83004002610400040F04400461050005A70515
:103F9300C005C0011C011D011E011F0121012201D9
:0F3FA30023AD430400078036403404033F067B00
:00000001FF
