:100000000232FAE4F9122272E9120022B93CF6E94E
:10001000C39478500C122272C37477991200228014
:10002000EE2225E02478F582E43439F583E493FC6C
:09003000740193FD1238FA092253
:03003B000237B5D4
:1000430002396F020407E86480F8E933E83360118A
:100053000460F0ED33EC337009E8FCE9FDEAFEEBF4
:10006300FF220460DED3EB9FEA9EE99DE8C2E78CA2
:10007300F0C2F795F0400CE8CCF8E9CDF9EACEFAF6
:10008300EBCFFB1203D285D0F05804700320D5B315
:10009300E80470075002B2D502041192D5EC046053
:1000A300F7E4CCC0E0C398F8603B94186008400DB7
:1000B300D0E0FB0203E9E4FBFAC9FC8028E830E462
:1000C30006E4C9FBE4CAFCE830E305E4C9CACBFC97
:1000D300E854076010F8C3E913F9EA13FAEB13FBCA
:1000E300EC13FCD8F130F52FC3E49CFCEF9BFFEE3F
:1000F3009AFEED99FDD0E0FBEF4E4D4C701222DBE2
:100103000302040EEC2CFCEF33FFEE33FEED33FD64
:10011300ED30E7EB0203E9EF2BFFEE3AFEED39FD9D
:10012300D0E0FB50130BBB0003020411ED13FDEEF3
:1001330013FEEF13FFEC13FC0203E9EC4D6011E82F
:10014300497017ED33EC3304600DE4FCFFFEFD2230
:10015300E933E8330470F80204071203D258046049
:1001630009E4CC24815006285009020411284003D5
:1001730002040EC0E0EB4A7044B98006D0E0FB02F3
:1001830003FDEF4E701CBD8008EBFFEAFEE9FD8026
:10019300EBE98DF0A4FEE5F0020227E9CDF9EAFED2
:1001A300EBFFEF89F0A4FCE5F0CE89F0A42EFFE489
:1001B30035F0CD89F0A42DFEE435F08067EF4E7065
:1001C30005BD80D780C3EF8BF0A4ACF0EE8BF0A419
:1001D3002CFCE435F0F8EF8AF0A42CE5F038FCE4CD
:1001E30033CB8DF0A42CFCE5F03BF8EE8AF0A42C85
:1001F300FCE5F038F8E433CF89F0A42CFCE5F038C3
:10020300CF3400CE89F0A42FFFE5F03EFEE433C9DE
:100213008DF0A42EFEE5F039CD8AF0A42FFFE5F092
:100223003EFEE43DFD33D0E0FB50070BBB000F0265
:100233000411EC2CFCEF33FFEE33FEED33FD020330
:10024300E9020411EC5D046005E85904700302043B
:10025300071203D2580460F6EC4860F2EC7004FD18
:10026300FEFF22C860DB2481C85009C39860025096
:100273000602040E9850CAF582E9294B4A7005AB71
:10028300820203FD75F0007C1A7880C3EF9BEE9A1F
:10029300ED99400DC3EF9BFFEE9AFEED99FDE84209
:1002A300F0DC23ACF0D0E0FFD0E0FED0E0FDAB8289
:1002B30020E7101BEB60BAEC2CFCEF33FFEE33FEB0
:1002C300ED33FD0203E9E803F830E705C0F075F00C
:1002D30000EF2FFFEE33FEED33FD40B830E7C28071
:1002E300AA74F8CC6480CCC86480C8F58204604FDB
:1002F300C3EB9FF5F0EA9E42F0E99D42F0E89C458E
:10030300F0603C501DE5825FFFE582D313CB5BCBEE
:10031300F42B5582FB50280ABA002409B90020089F
:10032300801DE5825BFBE582D313CF5FCFF4C3135C
:100333002F5582FF50090EBE00050DBD00010CC3F1
:10034300EB9FF5F0EA9E42F0E99D42F0E89C45F010
:100353006007CC4820E701B3EC2275F020800E75CE
:10036300F010800575F0087D007E007F003392D584
:1003730030D5031206C4EC334010EF33FFEE33FEE7
:10038300ED33FDEC33FCD5F0ED22E5F0247EA2D570
:1003930013CC92E7CDCEFF22EDD2E7CD33EC3392EF
:1003A300D524814006E4FFFEFDFC22FCE4CFCECD44
:1003B300CC24E0501174FF80EDC3CC13CCCD13CD0E
:1003C300CE13CECF13CF0470F030D5DE0206C4E9CE
:1003D300D2E7C933E833F892D5EDD2E7CD33EC3326
:1003E300FC5002B2D522EC30E7100FBF000C0EBE5A
:1003F30000080DBD00040BEB6014A2D5EB13FCED5C
:1004030092E7FD2274FFFCFDFEFF22E480F8A2D5F3
:1004130074FF13FC7D80E480EFED33EC3360100454
:10042300700FED547F7005740292E022740422046D
:1004330022E422ED33EC33600A047003BD8004EC44
:10044300B2E7FC22C0E0EFFBEEFAEDF9ECF81201A3
:100453003ED0E0F5F0EFFBEEFAEDF9ECF81206F81A
:10046300A3A3A3A3E8C0E0E9C0E0EAC0E0EBC0E0D7
:10047300C0F012013E120708A3A3A3A312004DD09C
:10048300F0D0E0FBD0E0FAD0E0F9D0E0F8D5F0D43A
:1004930022E709F608DFFA8046E709F208DFFA8067
:1004A3003E88828C83E709F0A3DFFA8032E309F602
:1004B30008DFFA8078E309F208DFFA807088828C1B
:1004C30083E309F0A3DFFA806489828A83E0A3F6D9
:1004D30008DFFA805889828A83E0A3F208DFFA8072
:1004E3004C80D280FA80C680D4806980F2803380C9
:1004F3001080A680EA809A80A880DA80E280CA8091
:100503003389828A83ECFAE493A3C8C582C8CCC535
:1005130083CCF0A3C8C582C8CCC583CCDFE9DEE7B2
:10052300800D89828A83E493A3F608DFF9ECFAA9A4
:10053300F0EDFB2289828A83ECFAE0A3C8C582C866
:10054300CCC583CCF0A3C8C582C8CCC583CCDFEAB5
:10055300DEE880DB89828A83E493A3F208DFF980F3
:10056300CC88F0EF60010E4E60C388F0ED2402B436
:10057300040050B9F582EB2402B4040050AF2323E6
:100583004582239004E473EF8DF0A4A8F0CF8CF0A0
:10059300A428CE8DF0A42EFE22BC000BBE0029EFB2
:1005A3008DF084FFADF022E4CCF875F008EF2FFF57
:1005B300EE33FEEC33FCEE9DEC984005FCEE9DFE25
:1005C3000FD5F0E9E4CEFD22EDF8F5F0EE8420D26C
:1005D3001CFEADF075F008EF2FFFED33FD400798DB
:1005E3005006D5F0F222C398FD0FD5F0EA22C2D50A
:1005F300EC30E709B2D5E4C39DFDE49CFCEE30E7A3
:1006030015B2D5E4C39FFFE49EFE12059CC3E49D8F
:10061300FDE49CFC800312059C30D507C3E49FFFD7
:10062300E49EFE22BB010A89828A83E0F5F0A3E0FF
:1006330022500687F009E71922BBFE07E3F5F0090C
:10064300E3192289828A83E493F5F074019322BB30
:100653000110E58229F582E5833AF583E0F5F0A3FD
:10066300E0225009E92582F886F008E622BBFE0A5B
:10067300E92582F8E2F5F008E222E5832AF583E929
:1006830093F5F0A3E99322F8BB0111E58229F582E2
:10069300E5833AF583E8F0E5F0A3F0225009E92574
:1006A30082C8F608A6F022BBFE09E92582C8F2E556
:1006B300F008F222EF4BFFEE4AFEED49FDEC48FC59
:1006C30022C3E49FFFE49EFEE49DFDE49CFC22E83C
:1006D300600FECC313FCED13FDEE13FEEF13FFD815
:1006E300F122E8600FEFC333FFEE33FEED33FDEC91
:1006F30033FCD8F122E493FC740193FD740293FE5E
:10070300740393FF22E493F8740193F9740293FA48
:10071300740393FB22E493FB740193FA740293F939
:1007230022D083D082F8E4937012740193700DA3E6
:10073300A393F8740193F5828883E4737402936836
:1007430060EFA3A3A380DFE4F523FBFAF97840125B
:1007530002478F278E268D258C24C201122B1AAFB8
:1007630027AE26AD25AC24120B8A8F23122F2CE53E
:10077300236003020A587D527F137E011237148FC0
:1007830028123698C3EE9427501BE528C3940E50C5
:100793001405280528E528FB7A007D527F137E0186
:1007A30012349080DC12188E1237148F2812369868
:1007B300C3EE94275015E528C3941E500E05280553
:1007C30028E52812188B12349080E27FFA7EED7DA3
:1007D300EB7CBA1218A01218B212183B79A0784118
:1007E3001202478F498E488D478C467F007E007DDD
:1007F300207C41122449C004C005C006C00712363C
:1008030098AC06AD07E41203627B817A04793578EC
:100813003F12013ED003D002D001D00012013E129C
:10082300039B8E218F221218FA1218A01202E46081
:100833000540030209EAC2027F667E667DA612179F
:10084300EA7FE27EB87D007C4E1200498F438E42E0
:100853008D418C40121B118F23E5236003020A583C
:10086300C2027F667E667DA67C3F1218A012013EFF
:100873008F458E448D438C42E4F5461235DE7F402E
:100883007E547D897C4B1218A01202E4504E753AB7
:1008930008753B007DA07F17120B5B6480701412F8
:1008A3000B40E528D39401400AE52813F528120AE2
:1008B300F980EFE5236481701C120B40E528C39493
:1008C3001F507B74042528F528D3941F5070E52806
:1008D300120AF980E7E5236065020A58753A017543
:1008E3003B007D707F16120B5B6480701E120B7EC3
:1008F300E528D3940040141528120B4C123698C3E4
:10090300EF9522EE952150E8E4F523E52364817009
:1009130026120B7EE528C3941F50230528E528944F
:100923001F501B120B4C123698D3EF9522EE9521D4
:1009330040E2E4F5238007E5236003020A58120B23
:100943001B6003020A58120B697D107F137E01128C
:1009530037148F2AE52A64036005E52AB4021212CC
:1009630017E47F887E457DC87C4E12183B79208032
:100973000DE52AB401131217E4121833797078C104
:1009830012182D8E288F29800280337BFF7A0FE483
:10099300FDFCAF29AE281217DC7DB07F127E011259
:1009A3003490E52AD3940140071218958F2B8014B5
:1009B300E52AB40109121895EF04F52B8006752377
:1009C30009020A58AF2B7E007B0F1217D77DFC7FDD
:1009D300127E011234901218951219461217D7126B
:1009E30019581234908008120B1B7069120B697529
:1009F3003A10753B00AB22AA217DB07F127E011213
:100A03002CC68F23E523704D7F127E0112374E8E45
:100A1300288F297F177E0112374E8E2A8F2B7F1A3C
:100A23007E0112374E8E2C8F2D7F167E0112374E8C
:100A3300EE5407F52E8F2F7D327F157E011237146A
:100A43008F307DFD7F187E011237148F31121958B4
:100A53001237148F32D201122B1AE5236002FF22C0
:100A6300AD29AC287F127E011238FAAD2BAC2A7F58
:100A7300177E011238FAAD2DAC2C7F1A7E01123885
:100A8300FAE52E4480FCAD2F7F167E011238FAE57D
:100A930031C43354E04401FC748CFD7F187E011291
:100AA30038FAE53275F020A4ACF04410FD7F147ED3
:100AB300011238FA7B947A027DE57F197E011234A4
:100AC30090E530FB7A007D327F157E011234907FF2
:100AD300207E0012374E8E338F34E5335455FCADF0
:100AE300347F207E001238FAAD34AC337F207E0091
:100AF3001238FA7F0022FB7A007DFB7F167E0112FB
:100B03003490753A08753B00AB22AA217DA07F176C
:100B13007E01122CC68F2322C202AB27AA26A92547
:100B2300A8247FE27EB87D007C4E1200498F438E5D
:100B3300428D418C40121B118F23E523227DFB7FC5
:100B4300167E011237148F2822E528FB7A007DFBDD
:100B53007F167E0112349022AB22AA217E01122C31
:100B6300C68F23E52322C202852745852644852592
:100B730043852442E4F5461235DE227DFB7F167E53
:100B8300011237148F28228F388E378D368C357F9C
:100B9300207E0012374E8E398F3A7D107F137E01EF
:100BA3001237148F3B7D407F197E011237148F3C1F
:100BB300903B741218031217C01202E44013121967
:100BC30051903B781218091217C01202E4600540D5
:100BD300037F08227E3C7F74123265E53B7D107FE4
:100BE30013120F73E53CB41F047B168003E53CFB33
:100BF3007A007D407F197E01123490E4FFFE7DA0D0
:100C03007C411217C01218198F3D1218ED8F3DAC9D
:100C13003D12185012004D12276BEF600122120F84
:100C2300651236DAC2027543E27542B87541007542
:100C3300404E121B11EF6001227B027A0012191041
:100C43001234901236DAD202754356754221754139
:100C53000375404E121B11EF600122AD3AAC397F90
:100C6300207E001238FA1237E6D2027545807544A9
:100C73009675431875424BE4F5461235DEC202E41D
:100C8300F545F544F543F542F5461235DE1218FAFB
:100C93001217C01202E4600250137B017A00120F94
:100CA3005BE4FBFA120F7C7B0F7A008073E53B64F5
:100CB300036005E53BB4021C1217C07F887E457DA7
:100CC300C87C4E12183B792078C112182D1218C90E
:100CD3008F3F801FE53B640170161217C012183353
:100CE300797078C112182D1218C9EF04F53F8003EB
:100CF3007F09227BFF7A0FE4FDFCAF3EAE3D121766
:100D0300DC120F5BAF3FEF3395E0FE7B0F1217D77B
:100D1300120F7CAE3DAF3E1218CD1219461217D7F3
:100D2300121958123490E4F53DE53CC39415500371
:100D3300753D01E53CC3940D5003753D02E53CC38D
:100D430094085003753D03E53D7D607F1A120F73D0
:100D5300E53C75F00A84FCE41203678F498E488DE5
:100D6300478C467F667E667D267C3F122449E4FBE2
:100D7300FA79D7784312013E7B337AB379DC78C2B0
:100D830012004D7B9A7A9979A3784112183B7980A6
:100D9300784112182D8F3DEF3395E0FE7B1F12171C
:100DA300D77DD97F1A7E011234907F407E547D898E
:100DB3007C4B1217C01202E44003020E77E4FBFAE5
:100DC3007D227F157E01120F4AE4FBFA120F3012C7
:100DD30017F47FFC7EBE7D0012183979CE78C212DB
:100DE300182D8E3D8F3E7BFF7A071217D97DA07F8A
:100DF300177E01123490753D051217B812013E7B20
:100E0300C07AE17964784B1202E460054003753DD2
:100E1300041217B812185C1202E460054003753D12
:100E2300031217B812013E7B807A967998784A129A
:100E330002E460054003753D021217B812013E7BC0
:100E4300007A1B7937784A1202E460054003753D46
:100E5300011217B812013E7B007AE679AA7849128B
:100E630002E460054003E4F53DE53DFB7A007DDBEC
:100E73007F17807E1218FA1217C01202E47F151230
:100E8300188260025061123490E4FBFA7D337F15BF
:100E93007E011234907B017A00120F301217F47F17
:100EA3005E7ED07DB2121839794878C212182D8E21
:100EB3003D8F3E1217D57D707F167E01123490123E
:100EC30017B812013EE4FBFA792078411202471267
:100ED300039BEF24FDF53DFF3395E0FE7B081217DE
:100EE300D77DA87F16800B120F4A7B027A007DFD07
:100EF3007F187E01123490E53A54036402702BFB91
:100F0300FA7D117F82FE123490120F6512195F7FF2
:100F13000D7E011234907DEE7F001219661234901B
:100F2300AB3AAA391219101234907F00227DFD7F4B
:100F3300187E011234907F667E667DA67C3FAB38B7
:100F4300AA37A936A835221234907B017A007D3363
:100F53007F157E01123490227DB07F127E01123400
:100F630090227B017A007D107F207E001234902234
:100F7300FB7A007E01123490227DFC7F127E0112E7
:100F83003490228F248E238D228C21903B7C121847
:100F930042400A903B88121842600540037F0A22B0
:100FA300121951AF24AE23AD22AC211202478F2A6E
:100FB3008E298D288C27903B80121842601B401984
:100FC300903B841218425011121951903B8412180D
:100FD300098F2A8E298D288C27C201122B1AAF2A3A
:100FE300AE29AD28AC27121364752B008F2C122F5A
:100FF3002CE52C452B6003AF2C227E041213597E63
:10100300021213591236988E258F2612188E123714
:10101300148F2DC3E5259427501AE52DC3942B5027
:1010230013052DE52D12188B1234901236988E2548
:101033008F2680DF12180012193B6005400302104F
:10104300FBC200752D051212625035C312181050E1
:10105300121218BE400DE533153370021532121209
:10106300D380E8C31218105013E5334532700D12C4
:1010730012E87D701213251219178050C200805197
:1010830012180F404C12180F4016E533941F121814
:10109300C2500D0533E5337002053212131180E59A
:1010A30012180F401AE533641F453270121212E80A
:1010B3007D701212F71219177E011234908002C24A
:1010C300000533E533700205321218687E011234CD
:1010D30090152D7D7012134D70030211BDF4700332
:1010E3000211BD2000030211BDC3E52D648094806D
:1010F30040030210490211BDC200752D057B027A1F
:10110300007D607F1A7E01123490121262503AC33E
:1011130012181050121218BE400DE5331533700229
:1011230015321212D380E8C31218105018E5334554
:1011330032701212133E7DF81213258F34EFFB7DAC
:10114300F87F098055C200805612180F40511218BB
:101153000F4016E533941F1218C2500D0533E533C3
:101163007002053212131180E512180F401FE53388
:10117300641F4532701712133E7DF81212F78F3435
:10118300EFFB7DF87F097E011234908002C20005D7
:1011930033E533700205321218687E01123490155C
:1011A3002D7DF812134D6012F4600F30000CC3E56F
:1011B3002D64809480400302110D7DC87F0A7E0157
:1011C3001237148E2F8F307F097E0112374E8E31E6
:1011D3008F32D201122B1AAB30AA2F7DC87F0A7E21
:1011E300011234907F057E0112374E8E2DEF54E9A4
:1011F300F52E12180012193B6002500F432E1012E5
:10120300195F7F0B7E011234908003432E067D8C81
:101213007C317F067E011238FA7D8C7F077E0112B6
:1012230038FAAD32AC317F097E011238FAAD2EACFB
:101233002D7F057E011238FA7F207E0012374E8EF5
:10124300338F34E5335455FCAD347F207E001238A0
:10125300FAAD34AC337F207E001238FA7F0022E4EB
:10126300FBFA7D417F407E02123490E4FBFA7D411C
:101273007F407E041234901236988E2E8F2FAC2E20
:10128300AD2FE41203627B817A047935783F120132
:101293003E12039B8E308F317B017A007D417F406C
:1012A3007E021234907B017A007D417F407E0412DE
:1012B30034901236988E258F267DC87F0A7E0112C0
:1012C30037148E328F33C3E5269531E525953022C9
:1012D300AB33AA327DC87F0A7E011234901236984E
:1012E3008E258F2622D2007B10FA7DC87F0A7E01CD
:1012F300123490227F097E01123714EF24F6FFEE99
:1013030034FFFE7BFF7A00E4FDFC12383622FBAA91
:10131300327DC87F0A7E011234901236988E258F53
:1013230026227F097E01123714EF2419FFE43EFEC3
:101333007BFF7A00E4FDFC12383622D2007B10FAE0
:101343007DC87F0A7E01123490227F097E01123705
:10135300148F34E53422E4FBFA7D417F401234904C
:10136300228F398E388D378C361219101237148E1E
:101373003A8F3B7E3D7F5C1232651218001218A92A
:101383001202E4600540030214337FCD7ECC7D4C12
:101393007C3F1218A91218B21219247D447F05123A
:1013A30019661234907D221215B47D111215B412F0
:1013B300195F7F0B1215687BCE7A4079E878B812F3
:1013C300013EC004C005C006C0071215847B957A90
:1013D300B77915782512013ED003D002D001D00091
:1013E30012004DC004C005C006C0071215BF7B75AF
:1013F3007AEC7935783B12013ED003D002D001D08C
:101403000012004DC004C005C006C0077FB47E4E65
:101413007DA87C41121930D003D002D001D0001234
:10142300004D7B157AA379411217C97D700214D63A
:101433001218B5AF39AE38AD37AC36121924E4FB08
:10144300FA7D447F057E011234907F0512188212C3
:1014530034907B017A007D117F051215687B347A05
:101463000A795D78B912013EC004C005C006C00701
:101473001215847B667A277994783512013ED0035E
:10148300D002D001D00012004DC004C005C006C078
:10149300071215BF7BAC7A0D799C783C12013ED0C4
:1014A30003D002D001D00012004DC004C005C00615
:1014B300C0077F437E727DB77C3F121930D003D0C3
:1014C30002D001D00012004D7BC37AC7793E1217B8
:1014D300C97DF87F097E01123490E4FFFE7DA07C74
:1014E300411218A91218198F3C1218ED8F3CAC3C0D
:1014F30012185012004D12276BEF6001227B01126C
:10150300159B7B0212159BAB3BAA3A12191012349E
:10151300901237E6D2027545007544247543741260
:1015230015D5D202853945853844853743853642FA
:101533007546011235DEC2027545007544BA75431E
:101543005B1215D5C2027F007E507DC37CC7121883
:10155300A912004D8F458E448D438C42754601126E
:1015630035DE7F00227E01123490E4F549F548759B
:101573004740754640AF41AE40AD3FAC3E122449B3
:1015830022E4F549F548754780754640AF41AE40C2
:10159300AD3FAC3E122449227A007D107F207E00AD
:1015A3001234907B017A007D117F1C7E01123490EE
:1015B30022E4FBFA7F057E0112349022E4F549F51B
:1015C30048F547754640AF41AE40AD3FAC3E1224AF
:1015D3004922754249E4F5461235DE22E4F559F510
:1015E3005AF55D755E80F55B755C80F55F7560FF30
:1015F3003004137556017557217558A3FBFA7D21E5
:101603007F1C7E01801175560075578B755881E4D8
:10161300FBFA7D217F86FE1234907F187EB77DD141
:101623007C37AB1CAA1BA91AA819122EF7C374FF87
:101633009FF51E74FF9EF51DE4FBFA1217A7BF0367
:10164300037F01227BFF12177CEF70037F0122E4EB
:10165300F56112178F756240E5626041122EB32463
:1016630059F8C000E6FE08E6FFEF4562D000A60683
:1016730008F612178FA204920512385BBF031612E5
:101683002EB32459F8C000E6FE08E6FFEF6562D0EA
:1016930000A60608F6E562C313F56280BB122EB3FB
:1016A3002459F8E6FE08E6FF122EB3245BF8A606DB
:1016B30008A607122EB3245BF8E6FA08E6FB4A6095
:1016C300261217A7EF6402600F122EB3245BF808EB
:1016D30006E618701206800F122EB3245BF808E694
:1016E300161870CF1680CC0561E561C394025003D0
:1016F300021655E56024FFFFE55F34FFFEEFB55AA0
:1017030014EEB55910C3E55E955CFFE55D955BA2EC
:10171300E713EF8034C3E55A955CFDE559955BFC0F
:10172300C3E55E9560FFE55D955FFED3EF9DEC64D9
:1017330080F8EE648098400CEEA2E713EF13256067
:10174300F561800AECA2E713ED13255CF561E56111
:10175300FB12177CEF640260100561E561FB7A0000
:10176300AD58AF57AE56123490A204920512385BAF
:10177300BF02037F00227F01227A00AD58AF57AE2C
:1017830056123490A204920512385B22E56125E0DB
:1017930025E02459F8E6FA08E6FBAD58AF57AE56F4
:1017A30012349022AD58AF57AE56123490A2049221
:1017B3000512385B227F667E667DA67C3FAB38AA26
:1017C30037A936A8352278C212004D12039B8E3CEE
:1017D3008F3D7BFF7A00E4FDFC123836AA06AB0787
:1017E300227FEC7E517D387C3FAB27AA26A925A812
:1017F3002412013EA804A905AA06AB0722903B8048
:10180300E4FBFAF978401206F8020247D3E526957D
:1018130031E52595302212013E7B007AC8792F7875
:101823004C120247E4FBFAF9783F12004D02039B86
:101833007FBB7EEE7DA07C4F120247E4FBFA2212AF
:1018430006F8AB24AA23A922A8210202E4E4120386
:10185300677B007AC8792F784C12013E7B807A9699
:101863007918784B22FFAE327B1F7A00E4FDFC121D
:1018730038368E328F33AB33AA327DC87F0A227B50
:10188300017A007D227E0122FB7A007DFA7F087EA9
:101893000122AE28AF297C007D6402059CAB27AAF8
:1018A30026A925A82422AB39AA38A937A83622129B
:1018B300013E7B007A247974784922E5339400E56C
:1018C3003264809480228E3D8F3E7C007D640205CD
:1018D300F1C3E53D9541F53DE53C9540F53C22AB33
:1018E3003DAA3CAD37AF36AE35227E007B0D7A0084
:1018F3007D027C000238367F607EFE7D4D7C4C226B
:10190300E541253DF53DE540353CF53C227D107F25
:10191300207E00228E348F35AB35AA347D707F094B
:10192300221202478F418E408D3F8C3E22AB41AA4B
:1019330040A93FA83E02013EAB2AAA29A928A8270D
:101943000202E4C3740F9FFFE49EFE7B0F22E4FBBD
:10195300FAF97840227D857F147E01227B017A008B
:10196300E4FD227B017A007E01227F207E00123774
:101973004E8E2B8F2C7E3B7F60123265E52C5403F9
:1019830064017006FBFA7D228005E4FBFA7D117F7A
:1019930082FE123490200130122326123714EE7087
:1019A30024EF14601124FE600D0470197B01121AD8
:1019B300D9E4FBFA800AE4FBFA7DAA7F03121AE555
:1019C300121B0780317F0622E51213135401F52DF4
:1019D300FB121AD9E52D7F0070027F01EFFB7A001D
:1019E300121B07122326123714E51254036F7001DA
:1019F300EE60037F062212224E1234901222C3128B
:101A03003714EF4E702D121AEF1236DAD202122863
:101A13006FC004C005C006C0071222101222CAD02C
:101A230007D006D005D00412004978CB1222AFC2EA
:101A330002803B7B011222501234901238DE4003A5
:101A43007F0322C20212286F8F308E2F8D2E8C2D92
:101A530012224E1234901236DAD202122210AB3016
:101A6300AA2FA92EA82D12004D784B1222AF121BBC
:101A7300118F2AE52A6002FF22121AFB1237E6129F
:101A830033868F2AE52A600122120003D2027545AC
:101A93004075445475430975424BE4F5461235DEEF
:101AA30012220E1222371235DEE52C540364027023
:101AB30022121AEF1222FF7F0D121AE57DEE7F002C
:101AC3007E01123490E4FBFA7D117F82FE12349082
:101AD300121AFB7F00227A007DAA7F037E01123453
:101AE30090227E011234907B017A00227B01FA7DE1
:101AF300107F20FE12349022AD2CAC2B7F207E0071
:101B03001238FA227DBB7F037E01123490227F209C
:101B13007E0012374E8E448F457A003002047B02DA
:101B230080027B017D107F207E0012349075520766
:101B3300AF52123947AC06AD07E4120362AB43AAB6
:101B430042A941A84012013E8F498E488D478C46D9
:101B53007F667E7F7D62122EA6400D7F267EE57D09
:101B6300E5122EA660054003D552C5E55224FFFBBE
:101B7300E434FFFA7D867F1F7E011234907FAC7EB2
:101B8300E97DA3122EA67F00600440027F018F52DD
:101B9300EFFB7A007DAA7F1C7E01123490E552246C
:101BA30001FDE433FCE4120362AB1CAA1BA91AA8CF
:101BB3001912013E122E9DAF49AE48AD47AC4612F5
:101BC30002478F518E508D4F8C4E12039BE41203AC
:101BD3005D122E9DAF51AE50AD4FAC4E1200491267
:101BE3002EEF122EF78F4D8E4C8D4B8C4A7CC0AB53
:101BF30051AA50A94FA84E122ED6AB07AA067DD4E0
:101C03007F1E7E01123490AF4DAE4CAD4BAC4A12E9
:101C13002F177F1E7E01123490E54DFFE54CFEAD7C
:101C230007AC067F1D7E011238FAC2037549FFE433
:101C3300F546E546121CA1D2041215DFEF702A7D8A
:101C4300A37F217E011237148F4AEF2480FFE434EF
:101C5300FFFE1239598F4BE54BC395495009854B0C
:101C630049854647854A48D2030546E546C394035A
:101C730040C0E547121CA1E548FB7A007DA37F2104
:101C83007E01123490AD45AC447F207E001238FAB9
:101C93002003087F033002027F04227F0022FB7AA5
:101CA300007D217F217E01123490227F207E00124D
:101CB300374E8E228F23C201122B1AA200920112D9
:101CC300196D8F21E5216003021D5B122F2C122D4C
:101CD30097200026122326123714BF020C7D5512BB
:101CE3001E15E4FBFA7D33800A7D66121E15E4FBA4
:101CF300FA7D447F0D7E0112349012224E123490ED
:101D03001222C3123714EF4E701BFA1222C112347F
:101D1300907B01122250123490E4FBFA7D117F1C58
:101D23007E01123490121E2BAF18AE17AD16AC15F0
:101D3300A2009201122A398F21E521701B7DDD1249
:101D43001E2012225912349012220E784712223981
:101D53001235DEC201122666903DEA12222F903D13
:101D6300ECE493FD1237148E248F25903DED12225F
:101D73002F1222F81237148E268F27903DE112225C
:101D83002F903DE3E493FD1237148E288F29D2015F
:101D9300122B1AE5225455FCAD237F207E00123806
:101DA300FA121E2BE5216002FF22903DEA12222F38
:101DB300903DECE493FDAB25AA24123490903DEDC5
:101DC30012222F1222F8AB27AA26123490903DE15B
:101DD30012222F903DE3E493FDAB29AA28123490FD
:101DE30012228B123490E52330E007E4FBFA7D6680
:101DF3008005E4FBFA7D777FC07E051234907D2059
:101E0300121E20E4FBFA7D887F0C7E041234907F3F
:101E13000022E4FBFA7F0C7E0112349022E4FBFAE9
:101E23007F0C7E0412349022AD23AC227F207E00EF
:101E33001238FA227F207E0012374E8E2A8F2BE52E
:101E43002B540364017006FBFA7D448005E4FBFA1E
:101E53007D337F82FE1234907E3A7F881232651280
:101E63000003123386EF6001227B011222501234E9
:101E7300901236DAD20212286FC004C005C006C021
:101E8300071222101222CAD007D006D005D004129E
:101E930000497B007A24797478C912004D8F2F8E04
:101EA3002E8D2D8C2CC2021222B8121B11EF600151
:101EB30022E52B30E11EE4FBFA7D117F82FE123412
:101EC300901222FF121FA67B017A007DEE7F007E17
:101ED3000112349012224E1234907A001222C1124F
:101EE30034901238DE40037F0422AD2BAC2A7F20CE
:101EF3007E001238FA1237E6D20212221012224260
:101F03001235DE7DBA7F037E011237148F2C300128
:101F130050E4FBFA7D777F0C7E01123490E52C644C
:101F2300016006E52C64027035E5125403F52DFBC0
:101F33007A00121F9CE52D24FFFFE434FFFEEFF42B
:101F4300FBEEF4FA7D21121FA6E52C147F0070022C
:101F53007F01E5121313543F6F602E7F07227F0723
:101F630022E52C64016009E52C640260037F0722EB
:101F7300E52C2401FBE433FA121F9C7D657F0C12D0
:101F83001F8F7D437F0D121F8F7F0022E52C64037B
:101F9300FB7A007E01123490227D877F0D7E011231
:101FA3003490227F0D7E01123490223E9248DA3E15
:101FB300CCCCCD3F2AAAAB400000003F8000003FBD
:101FC3009837F03FB504F33FD744FC3E3172173ED8
:101FD300B172173F0515913EDE5BD9D2018002C273
:101FE30001EDD2E7F8CD33EC3304700BBD800592DD
:101FF300D502041102040740FBD31460F2F5F07C10
:102003003FEE7A00C39496C8948B40230AC8946920
:10201300C8941A401A0AC89468C8941F40110AC881
:10202300945AC89425400805F07A00CDC2E7CDC084
:10203300F08C4C8D4D8E4E8F4FEA2323C0E024BE8F
:10204300F582E4341FF58312070812004DECC0E05B
:10205300EDC0E0EEC0E0EFC0E01206F8A84CA94DD9
:10206300AA4EAB4F120049D0E0FBD0E0FAD0E0F922
:10207300D0E0B2E7F81202478C4C8D4D8E4E8F4F55
:10208300901FAE7403120447A84CA94DAA4EAB4F40
:1020930012013ED0E0600F24CAF582E4341FF583B9
:1020A30012070812004D8C4C8D4D8E4E8F4FD0E091
:1020B300C3947FFDE49400FC1203627B187A727967
:1020C30031783F12013EA84CA94DAA4EAB4F1200E6
:1020D3004D30010B7BD97A5B79DE783E12013E22CB
:1020E3007F207E0012374E8E218F22C201122B1ABF
:1020F300A2009201121E378F23E5237043122F2C67
:10210300122D97A200920112232D8F23E523703005
:10211300122D9712220E7B007ABA795B784912222C
:102123003F1235DE122560C2027545007544BA754B
:10213300435B754249E4F5461235DED20112266649
:10214300903DE412222F903DE61222008E248F252B
:10215300903DE712222F903DE91222008E268F2711
:10216300903DDE12222F903DE0E493FD1237148E52
:10217300288F29D201122B1AE5215455FCAD227F59
:10218300207E001238FAAD22AC217F207E00123867
:10219300FAE5236002FF22903DE412222F903DE6F0
:1021A300AB25AA24122207903DE712222F903DE986
:1021B300AB27AA26122207903DDE12222F903DE084
:1021C300E493FDAB29AA2812349012228B12349087
:1021D300E52230E007E4FBFA7D448005E4FBFA7D69
:1021E300557FC07E05123490122311123490E4FB04
:1021F300FA7D107F087E021234907F0022E493FD63
:1022030012371422E493FD12349022C202AF18AEA7
:1022130017AD16AC1579A07840E4FBFA020247E546
:102223003D25E024F0F582E43439F583E493FE742C
:102233000193FF2278C77B007A5079C312004D8F38
:10224300458E448D438C42E4F546227B027A007D21
:10225300107F207E00227D77E4FBFA7F0C7E042230
:1022630078427C007D007BFF7E007F03020564E9EA
:1022730075F0288475F018A4FFE92400FDE4340503
:10228300CD2FFFED35F0FE227B017A007DFF7FC06D
:102293007E05227D227B017A007F0C7E0422D3906F
:1022A3003B72740193952FE493952E227B407A54CD
:1022B300790912004D8F438E428D418C40227B0160
:1022C3007D667F1C7E0122A804A905AA06AB07220E
:1022D300E53D25E024F0F582E43439F58374019378
:1022E30022C3E54B954DE54A954C22C3E5429544FF
:1022F300E541954322903DEFE493FD227B017A0073
:10230300E4FD22FEC3EF9401EE64809480227B01FE
:102313007A007D337F087E0222C3E52F952BE52EBD
:10232300952A227D877F0D7E0122752A50752B0009
:102333007D2212225B1234901222591234901222FF
:102343000EE4FBFAF9784012013E7B007ABA795B1E
:10235300784912223F1235DE7D407F197E01123704
:10236300148F2C30010EE4F52DE52D7D967F13128D
:10237300244080367D527F137E011237148F2D80C7
:102383002912231C4003022416E52DC3940F400396
:10239300022416052DE52DFB7A003001047D96807D
:1023A300027D527F137E011234901236988E2E8F47
:1023B3002F80CEE52CC394195061E52D640F705B1B
:1023C30012231C5056E52CC39419504F052CE52CB1
:1023D3007D407F191224401236988E2E8F2FAC2EFB
:1023E300AD2FE4120362C004C005C006C007AC30C1
:1023F300AD31E41203621222CAD007D006D005D051
:10240300041202477B667A667986783F1202E4609B
:10241300025008852E30852F318098C3E52F9421F3
:10242300E52E940B50057E007F05227D77122298BE
:10243300123490122296123490E4FEFF22FB7A00AB
:102443007E01123490228F458E448D438C42E4FFEB
:10245300FE7D807C3FAB45AA44A943A8421202E417
:102463007009AF45AE44AD43AC4222AF45AE44AD77
:1024730043AC4212041CFBAF49AE48AD47AC461215
:10248300041CFFBF0108E4FFFE7D807C3F22EF6454
:10249300046022EB6404601DBB0127E4FFFEFDFC26
:1024A300AB49AA48A947A8461202E460084006E4DB
:1024B300FFFEFDFC2274FFF549F548F547F546029A
:1024C3002557E4F54AF54BFFFEFDFCAB45AA44A9AD
:1024D30043A8421202E4504BAF49AE48AD47AC4665
:1024E30012039B8E4A8F4BAC4AAD4BEC120362C86E
:1024F300ECC8C9EDC9CAEECACBEFCBAF49AE48AD04
:1025030047AC46120049E4FBFAF9F81202E470A55D
:10251300AF45AE44AD43AC421204368F458E448D75
:10252300438C42AF45AE44AD43AC42121FE2AB49CC
:10253300AA48A947A84612013E1232038F498E4882
:102543008D478C46E54B30E00B1204368F498E489D
:102553008D478C46AF49AE48AD47AC462212225256
:102563001237148F3C1222FFFF7E01123490E4FBDA
:10257300FA7D887F087E0212349012225912349019
:1025830012231112349012228B123490752CA075E1
:1025930035A0E53CB40117752A05752BC3753305C2
:1025A3007534C47D4412265BE4FBFAFD8016752A5C
:1025B30005752BC57533057534C67D5512265BE449
:1025C300FBFA7D117FC07E05123490E4FDFCAF2B36
:1025D300AE2A12340FE4FDFCAF34AE3312340FE4F1
:1025E300F52DF52EF536F537F53D122222C3E52EEE
:1025F3009FFFE52D9EFE7BFF7A037D007CFC123757
:10260300908E2F8F301222D3252EFFE493352DFE8B
:102613001237908E318F32122222C3E5379FFFE5A6
:10262300369EFE1237908E388F391222D32537FF0C
:10263300E4933536FE1237908E3A8F3B7B007A0057
:10264300792A122BF27B007A007933122BF2053DA3
:10265300E53DC39403409322E4FBFA7FC07E051259
:102663003490227BFF7A3979788B2A8A2B892C78CC
:102673003F7C007D007BFF30011C7A3D79E4122210
:102683006B7A3D79E7122263782D7C007D007BFF16
:102693007A3D79DE801A7A3D79EA12226B7A3D79A6
:1026A300ED122263782D7C007D007BFF7A3D79E17A
:1026B30012226B7534007535807532FF7533807F58
:1026C3002D1229557DBF1227617DFF12275912361E
:1026D300988E458F467DFF1227617DBFAF43AE4283
:1026E3001238FA1236988E478F48C3E5469548E567
:1026F30045954778367C007D007B0050067A00794B
:102703003F80047A00794212226B7DFF7C071227F7
:1027130059753D07753EFF753B05753CFF7F3612C6
:102723002955E5312410F535E43530F534E5312408
:10273300F0F533E53034FFF5327F2D122955AD3AEC
:10274300AC39AF37AE361238FAAB31AA30AD2FAF52
:102753002EAE2D023490AF43AE421238FA227C07DC
:10276300AF40AE3F1238FA228F458E448D438C42E0
:102773007F7D7EDA7DAC122EBA798078BF122EDB94
:102783008F4E7F287E6B7D6E122EBAF978BF122E84
:10279300DB8F4FE54F254EFFE433C313EF13F550A3
:1027A3002401FFE433FEEF25E0FDEE33FCE41203E6
:1027B30062AB45AA44A943A84212013E8F498E4801
:1027C3008D478C46E550FB7A007DA37F89122856FE
:1027D3008F4D8E4C8D4B8C4A7CBFAB4DAA4CA94B75
:1027E300A84A122ED6AB07AA067DD47F8812285694
:1027F30012039BE412035D122E9DAF4DAE4CAD4B05
:10280300AC4A1200498F518E508D4F8C4EE4FFFE1F
:102813007D807C49AB51AA50A94FA84E122EF78F49
:10282300558E548D538C52E4AB07AA067DF07F87F7
:10283300FE123490AF55AE54AD53AC52122F177FE6
:10284300887E00123490C2041215DFEF7F0060020D
:102853007F02227E00123490AB1CAA1BA91AA8196E
:10286300AF49AE48AD47AC46120247227F207E00F7
:1028730012374E8E318F327A003002047B0280028F
:102883007B017D107F207E001234907DD07F1E7EE1
:10289300011237148E338F347F1D7E0112374EE4BD
:1028A300FCFDC004C005C006C007FEE534122F239B
:1028B300D003D002D001D0001206B78F388E378DE7
:1028C300368C357DAA7F1C7E01123714EF04F5394F
:1028D3007D867F1F7E01123714EF04F53AAD32ACCB
:1028E300317F207E001238FAAF3A122E92122F0C4B
:1028F300C004C005C006C007AC39E4120367D003A7
:10290300D002D001D00012013EC004C005C006C0F1
:1029130007AF38AE37AD36AC35122EEB120247C0D7
:1029230004C005C006C007E533C4F854F0C868FE08
:10293300E534C4540F482404122EE3D003D002D04C
:1029430001D00012004DD003D002D001D0001201FB
:102953003E228F4974FFF54AF54BA807E82405F892
:10296300E6F54E08E6F54FA807E82407F8E6F55024
:1029730008E6F551A807E6F55408E6F555A807E873
:102983002402F8E6F556FD122A2A8E4C8F4DC3E534
:1029930051954FFFE550954E122306405E7C007D16
:1029A300021205F18E528F531222E4500BAD5612D0
:1029B3002A2A8E4C8F4D8014AB4FAA4EAD56AF557D
:1029C300AE541234901236988E4A8F4BD3E55394FB
:1029D30000E5526480948040221222E4500FC3E544
:1029E300519553F551E5509552F55080A1E5532586
:1029F3004FF54FE552354EF54E80931222E45006C3
:102A0300AE4EAF4F8004AE50AF51E5492403F8A654
:102A13000608A607E5492403F8E6FA08E6FBAD56DF
:102A2300AF55AE54023490AB51AA50AF55AE5412C9
:102A33003490123698228F2D8E2C8D2B8C2A7DFA72
:102A43007F087E011237148F307B017A007DDD7F92
:102A53000C7E04123490122259123490C202AF2D0C
:102A6300AE2CAD2BAC2A1222181222371235DE30CF
:102A7300012675310F800F1222A140411531E53136
:102A8300648094804037E531FB3395E0FA7D5174DF
:102A930001FFFE122B0F80DF75310280101222A17D
:102AA300401B05310531E531D3940F5010E531FB5F
:102AB3007A007D527F137E01122B0F80E0C3E52E37
:102AC3009410500F05300530E53094395005122A23
:102AD300F980EA1222A1400E0530E530D3943E502E
:102AE30005122AF980EDC3E52F9421E52E940B7F7F
:102AF3000050027F0522E530FB7A007DFA7F087ED5
:102B0300011234901236988E2E8F2F221234901287
:102B130036988E2E8F2F22E4F536F5377F20FE125E
:102B2300374E8E3A8F3B7924E9605C25E0246AF5C1
:102B330082E4343DF583E493F538740193F539E980
:102B430025E0246CF582E4343DF583C37401939549
:102B530039E4939538402C300108122E7E122BE570
:102B6300800FAF39AE3812374E122E7AECF0A3ED48
:102B7300F00537E537700205360539E53970C005CC
:102B83003880BC191980A1E4F9E924FDFDE434FF80
:102B9300FC7F207E001238FA75380175391C30012C
:102BA30008122E7E122BE5800FAF39AE3812374E46
:102BB300122E7AECF0A3EDF00537E53770020536F7
:102BC3000539E53970020538D39423E5389401407B
:102BD300CD09E9640270B2AD3BAC3A7F207E0002BE
:102BE30038FAE0FCA3E0FDAF39AE381238FA228B95
:102BF3003E8A3F894074FFF541F542900005120675
:102C030052F54685F045900007120652F54885F0C7
:102C130047122CB58E438F44C3E5489546FFE547DD
:102C23009545122306405B7C007D021205F18E4917
:102C33008F4A1222EEAB3EAA3FA9405009122CB58F
:102C43008E438F448014120627FFAEF0AD46AC4589
:102C530012340F1236988E418F42E54A454960225D
:102C63001222EE500FC3E548954AF548E5479549CA
:102C7300F54780A4E54A2546F546E5493545F5453A
:102C830080961222EE5006AE45AF468004AE47AFA3
:102C930048AB3EAA3FA940900003EE8FF012068A8C
:102CA300120627FFAEF0900003120652FDACF002AD
:102CB300340F120627FFAEF0AD48AC4712340F12A3
:102CC3003698228E358F368D378A388B39122D8C74
:102CD30050028001C392001218E61237148E3C8F03
:102CE3003DE537C4540FFFE537540FFEC3EF9E0491
:102CF300FF123947EF24FFF53FEE34FFF53E7540F1
:102D030000754101E54125E0F541E54033F54030EB
:102D130000051218D48003121903AB3FAA3EE4FD49
:102D2300FCAF3DAE3C1238368E3C8F3D1218E2129A
:102D33003490122D8C7F0050027F01A200E433B542
:102D43000713C3E541953BE540953A40B77F803093
:102D530000027F8122D3E5419401E540940040269F
:102D6300E54013F540E54113F541123698C3EF955D
:102D730039EE9538400512190380031218D412183E
:102D8300E212349080CF7F0022123698C3EF953938
:102D9300EE953822752A05752BC712225212371465
:102DA3008F2CE4FBFAFDFF7E01123490122296125F
:102DB300349012228B123490E52CB401117D6612EB
:102DC3002E427D22122E427D30122E58801A7D779C
:102DD300122E4D7D33122E4D7DC0122E58740225B6
:102DE3002BF52BE4352AF52A7FC17E0512374EEEEB
:102DF30054F070F4903DED12222F1222F8E4FBFA06
:102E0300123490C201AF2BAE2A12308E903DED12D8
:102E1300222F1222F87BFF7A07123490E52B24012C
:102E2300FFE4352AFEC20112308EE4FBFA7D227FD5
:102E33000C7E041234901222FFFF7E01023490E4D0
:102E4300FBFA7FC07E0512349022E4FBFA7FC07E3A
:102E530005123490227CFF7FC27E051238FA22F5D8
:102E630082E43542F58312071875F002E545A4F5AF
:102E73008285F083020652AC06AD07E53725E0FFF5
:102E8300E53633FE74002FF58274003EF58322127B
:102E93003947AC06AD07E4120362A804A905AA06E4
:102EA300AB07227C4FAB49AA48A947A8460202E4D4
:102EB300E56125E025E022AB45AA44A943A8427C6D
:102EC3004E120247E4FBFA22AF50AE4FAD4EAC4D6B
:102ED300020247E4FFFE7D8012004D02039B2401A2
:102EE300FDE43EFCE4020362E412035DE4FBFA79D1
:102EF3008078492212013E02039B854382854283E7
:102F030022E50025E0FFE50022AF1CAE1BAD1AACA5
:102F13001902024778101206D2AB07AA067D3022A7
:102F2300540FFFE478100206E57D207F0A7E041229
:102F33003714E47E01A807088005C333CE33CED807
:102F4300F9F5378E367DEC7F037E041237148F3804
:102F5300E538C39406500F7402A807088002C333F0
:102F6300D8FCF5388003753801C203123578E4FBC9
:102F7300FAF97840120247C004C005C006C007AC86
:102F830038E41203671222CAD007D006D005D00452
:102F9300120247C004C005C006C007AC36AD37E413
:102FA300120362D003D002D001D0001202478F3C3B
:102FB3008E3B8D3A8C39AF1CAE1BAD1AAC19AB3CB2
:102FC300AA3BA93AA83912013E7940784112221C42
:102FD30012039BC374FF9FF51474FF9EF5132275B0
:102FE30081D0E4F5A27591FFF59075A10775A9FF4E
:102FF30075A880758901C2A0D2A13006FDE50A1229
:103003000724302D0130310230350330390430408C
:1030130005304F06305E07306508306C0930741197
:10302300307D123086FF00003089C2008045C20027
:10303300804AC2008002D20012363C8049AF18AEEB
:1030430017AD16AC1512074A8F90803AAF18AE171A
:10305300AD16AC15120F868F90802B12387F8F9090
:10306300802412392E8F90801D850B12E4F59080F9
:1030730015D2001220E38F90800CD200121CAE8F69
:10308300908003759005C206022FFD8E2D8F2E3082
:1030930001067E037FFF80047E007F3F8E398F3AD7
:1030A300AF2EAE2D12350A8E368F378E348F3512F2
:1030B30036988E308F318E328F33E5372401FFE41B
:1030C3003536123782AC06AD07123126C3EF953180
:1030D300EE95307FFF50027F018F38752F08AF3890
:1030E300EF3395E0FEE5372FFFE5363E1237828E4C
:1030F300368F37AD37AC361231268E308F31C3E57C
:10310300319533E5309532500C8530328531338536
:103113003634853735D52FC6AD35AC34AF2EAE2D0D
:1031230002340FAF2EAE2D12340F123698227DA328
:103133007F897E00123714EF122EE1C004C005C050
:1031430006C007E4FBFAF97840122F0CD003D00233
:10315300D001D0001202478F588E578D568C557D63
:10316300D07F887E001237148E598F5A7DF07F8767
:103173007E00123714E4FCFDC004C005C006C0077E
:10318300FEE55A122F23D003D002D001D00012063D
:10319300B7122EEB120247C004C005C006C007E5F4
:1031A30059C4F854F0C868FEE55AC4540F48122EA7
:1031B300E1D003D002D001D00012004DAB58AA5782
:1031C300A956A85512013E2233DA929E35B16011F9
:1031D300377FE5FE392184893AAEC3FF3C1D955BF9
:1031E3003D6358473E75FDF03F3172183F80000044
:1031F300C2D5020411020407BD80FA50F302040E83
:10320300ED33EC330460F17B3B7AAA79B8783F1253
:10321300013EED33EC3392D5247B5011A2D570DB04
:10322300500BED448024045004A2D580CEEFFBEE76
:10323300FAEDF9ECF812039BEFF582F404FC1203A8
:103243006712004DC0829031CB7409120456ED33DE
:10325300CC33D0F092D525F0A2D57001C313CC1393
:10326300FD228E428F438F828E83740993F544E54A
:1032730044604614F545122EFD122E69FFAEF0C0D0
:1032830006C007122E6CFFAEF012374EE54324063C
:10329300122E62F4FDE5F0F45EFEEF5DFF122EFDEB
:1032A300A3A3A3122E69FDEE45F0FCEF4DFDD0075D
:1032B300D0061238FA154480B6122EFD741093F519
:1032C30044E544603114F545E543240A122E62FFB8
:1032D300AEF0122EFD741193FDE544D39D40067CA0
:1032E300007D00800AE543240D122E62FDACF0122E
:1032F30038FA154480CB22787FE4F6D8FD758168CF
:10330300023341022FE2E493A3F8E493A34003F6CC
:103313008001F208DFF48029E493A3F85407240C16
:10332300C8C333C4540F4420C8834004F4568001F7
:1033330046F6DFE4800B0102040810204080903839
:103343000EE47E019360BCA3FF543F30E509541F94
:10335300FEE493A360010ECF54C025E060A840B8FB
:10336300E493A3FAE493A3F8E493A3C8C582C8CA79
:10337300C583CAF0A3C8C582C8CAC583CADFE9DE4C
:10338300E780BE1231317B007AC8792F784C120264
:1033930047E4FBFAF9783F12004D12039B7B0D7A49
:1033A300007D027C001237908F31E53125E025E066
:1033B300F5327DBB7F867E00123714EF64014E70B9
:1033C300127DCB7F89FE123714123947E5328FF015
:1033D30084F53275333FE533600FE532C3953350DF
:1033E30008E533C313F53380EDE533FB7A007D70D5
:1033F3007F077E04123490AC31E41203677B007ABA
:10340300C8792F784C12013E12276B228E4B8F4CBA
:103413008C4D8D4EC3E54C94C7E54B940550067E09
:10342300037FFF80047E007F3F8E4F8F50E4F55172
:10343300F552C3E54D64809480501AE5502401FF92
:10344300E4354FFEEF4252EE4251E54E2550FFE583
:103453004D354F800FE54E2550CFE54D354FCF24E9
:1034630001CF3400FE123959E54F5EFEE5505F424D
:1034730052EE4251AD52AC51AF4CAE4B1238FAE55D
:10348300514480FCAD52AF4CAE4B0238FA8A638B89
:1034930064A9058F828E8312374EAD07AC06E9C44B
:1034A300540FFFE9540FFBC3EF9B04FF74FFFEA807
:1034B30007088005C333CE33CED8F9F4FFEEF4FE0C
:1034C300EFA803088005C333CE33CED8F9F5668E53
:1034D30065E9540FFFE564AE63A807088005C333AD
:1034E300CE33CED8F9FFE5655EFEE5665FFFE566A0
:1034F300F4FBE565F45CFCEB5DFDEC4EFCED4FFD90
:10350300AF82AE830238FA8F828E83C3E58294C77B
:10351300E583940550067E037FFF80047E007F3F92
:103523008E3B8F3CAF82AE83E4FDFC1238FAAF8250
:10353300AE837D007C401238FAAF82AE8312374EE1
:103543008E3D8F3EAF82AE83E53D543FFCAD3E12D0
:1035530038FAE53D553BFEE53E553CFFE53C24018D
:10356300FDE4353B553DFCE53E5D4C60077CFF7D4E
:10357300FF12058A221231318F508E4F8D4E8C4DA2
:103583007DCB7F897E00123714122E92122ECB8FA1
:10359300548E538D528C517DBB7F867E001237141F
:1035A300EF4E7017300309AF54AE53AD52AC5122F6
:1035B300E4FBFA79807840122ECB2230030AAF5015
:1035C300AE4FAD4EAC4D8012E4FBFA79807840AF3C
:1035D30054AE53AD52AC5112024722E54675F00288
:1035E300A4FFAEF07C043002027C027D42EF2DF595
:1035F30048EE3CF547A2029203123578122E9DAF96
:1036030045AE44AD43AC42122EC47980784F122E9E
:10361300F78F4C8E4B8D4A8C4978101206D2AD072A
:10362300AC06AF48AE471238FAE5482401FFE4354B
:1036330047FEAC4BAD4C0238FAE50CAD0DFCE41281
:103643000362E4FBFA797A7844120247C004C005A6
:10365300C006C007AC0BE4120367D003D002D0014D
:10366300D00012004D7B007A247974784912013E10
:103673008F248E238D228C2130000A8F1C8E1B8D6C
:103683001A8C19800C852418852317852216852109
:1036930015E4F59022C28CE513F58CE514F58AC286
:1036A3008DD28C308DFD7DFF7F007E041239157F16
:1036B3000F7E0412374EEF7802C333CE33CED8F9E0
:1036C300F5828E837F0E7E0412374EEF5403FFE59F
:1036D30083FEE5824FFF227907E925E024B4F582D2
:1036E300E4343DF583E493FE740193FFE925E0247C
:1036F300C2F582E4343DF583E493FC740193FD1237
:1037030038FAD9D57BFF7AB97DF87F207E01023460
:1037130090A90512374EAC06AD07E9C4540F04FF58
:1037230074FFFEA807088005C333CE33CED8F9F45F
:10373300FFEEF45CFEED5FFFE9540FFDEFA8050813
:103743008005CEC313CE13D8F9FF22E4FBFAC2A03F
:10375300C2A1EE547FFE1238BFD2A27D10D2A012B6
:1037630038A0EB25E0FBEA33FA30A303430301C29D
:10377300A01238A0DDE7D2A1D2A2AE02AF0322FE8F
:10378300C3E4953AFDE49539FCAB3AAA39C3EF9DFE
:10379300EC6480F8EE6480985005AE04AF0522D344
:1037A300EF9BEA6480F8EE6480984005AE02AF03B5
:1037B3002222C0E0C0D075D000C000C006C007758B
:1037C30090FF7F02740A2FF8E6FE740B2FF8A6060B
:1037D300DFF285800B759000D007D006D000D0D0E3
:1037E300D0E0327DFF7C7F7F0C7E021238FA7D555C
:1037F3007F007E021239157D007C807F0C7E0212D1
:1038030038FA7D667F007E0202391504154A9896C0
:103813008002130001011200021DFF0004194BEA8C
:103823006000C106020E002D0208020C0210040BF8
:10383300C10700C3EF9DEC6480F8EE6480985005E7
:10384300AE04AF0522D3EF9BEA6480F8EE64809860
:103853004005AE02AF032222C28CE51DF58CE51EA6
:10386300F58AC28DD28C308DFD3005067E017F2313
:1038730080047E007F8C7DDC12371422123965129E
:10388300374E8F828E83AF09AE0812374EAD07AC29
:1038930006AF82AE831238FAC2077F002275670033
:1038A30075681F300715D3E5689400E567940040F9
:1038B3000AE568156870EF156780EB227D10C2A0DA
:1038C3001238A0EE3392A21238A0EF25E0FFEE33B8
:1038D300FED2A01238A0DDE6C2A0227DDC7F237ECB
:1038E30001123714EF64024E7002D322D204121570
:1038F300DFEFC37001D322AB05AA04C2A0C2A1EEBD
:103903004480FE1238BFAF03AE021238BFD2A1D239
:10391300A2228E578F588D59E4FBFA1234907B0103
:103923007A00AD59AF58AE57023490123965123749
:103933004E12374EAD07AC06AF11AE101238FAC2B5
:10394300077F002274017E00A807088005C333CED9
:1039530033CED8F9FF22EE30E707C3E49FFFE49E9E
:10396300FE227590FFD207AF0FAE0E227590FF8532
:10397300800AD20632000800040000FFFAFFF5FFB8
:10398300F0FFECFFEAFFEAFFECFFF2FFFB000600AB
:10399300140022002E0038003D003A0030001D00C4
:1039A30003FFE3FFC1FFA0FF85FF74FF72FF80FFEA
:1039B300A2FFD40014005D00A700E80118012E0146
:1039C3002300F4009F0029FF9AFEFEFE67FDE5FD3C
:1039D3008CFD6EFD9AFE1AFEF30022019D03540531
:1039E30030071608E80A890BDE0CCD0D4903FF00EA
:1039F3008000080084008500AE010101130200026B
:103A0300010202020804000001F0000001001C0092
:103A13000C07FF07FF0000F8FF0007F00018010084
:103A23003C000C07FF07FFF10B010C01120115010C
:103A330016011701180119011A04000401040204F4
:103A430003040404050406040704080409040A041F
:103A53000C04400442044388E54032000581802879
:103A63000C218C31802E02008107FF07FF400000EC
:103A73000000000000070000000000100120980073
:103A83002000000000FF39F6FF3A08FF3A1A09FF49
:103A93003A2CFF3A5A17170084008500AE010C0137
:103AA3000D01130115011904000001F000000000CD
:103AB30040000C00000000F8FF0007F000001A00AF
:103AC30040003CC00080000100010101020103012C
:103AD3000401050106010701080109010A020002A8
:103AE3000102020208024004000401040204030468
:103AF30007040A040C044005C005CB0203020402B8
:103B0300050206020702410404040504060408042E
:103B130009044105C105C205C305C405C505C6059C
:103B2300C705C805C905CA05CC3408600131800A38
:103B33001200880007318C318C042661C1104C00BF
:103B43008D07FF07FF20700020008107FF07FF405C
:103B530000070010002098002000FF2020FF3A9A61
:103B6300FF3AAAFF3ABA08FF3ACAFF3B2C311A7050
:103B73000049AAE6004CF7F4904A9896804C1896B0
:103B8300804C3EBC204CF7F4900085010D011301DD
:103B9300140084008B0001010000040010040021C4
:103BA3000000070188003C001FF83FC1FF008200AE
:103BB30086008700880089008A008C0100010101CA
:103BC30002010301040105010601070108010901BE
:103BD3000A010C01150116011701180119011A0236
:103BE30000020102020203020402050206020702A6
:103BF300080209024004000401040204030404044B
:103C0300050406040704080409040A040C0440809C
:103C13000349010400078000200514067B34096072
:103C2300013180061200880007318C318C04266133
:103C3300C1104C88C500098180280C018C528B2E41
:103C430002008D07FF07FF000000000000000000D6
:103C530000207000000020008107FF07FF400000E4
:103C630000000000000000000000001001203800E8
:103C730020FF3B8CFF3B98FF3BA406FF3BB0FF3C80
:103C8300123131008200850100010C010D00840016
:103C93008B8001000100000000001E040021001FB2
:103CA300FF000700010001001EF83FC1FF0086006E
:103CB3008700880089008A008C010501060107013D
:103CC300080109010A01150116011701180119015B
:103CD3001A020002010202020302040205020602A2
:103CE3000702080240024104000401040204030421
:103CF3000404050406040704080409040A040C0464
:103D030040044149010400078000200514067B306C
:103D130007318C318C058C61C1104C000D818028DA
:103D23000C618C528C2E02008D07FF07FF000000F0
:103D33000000000000000000700020000000810768
:103D4300FF07FF400000000000000000000000002B
:103D5300001001203800200000FF3C86FF3C94FF48
:103D63003CA207FF3CB0FF3D062B2B0021002F0098
:103D730082008200840084008500850086008C0018
:103D83009200A700A800A800AD00AE010001040145
:103D930005010A010C01140115011A0200020C02AB
:103DA3004002610400040F04400461050005A705F7
:103DB300C005C0011C011D011E011F0121012201BB
:103DC30023AD430400078036403404033F067B01E0
:103DD3000ED7010E600204F80204700203B004035C
:0D3DE300B00202A00201A00402A00401A091
:00000001FF
