:10000000023303E4F912227BE9120022B93CF6E93B
:10001000C39478500C12227BC3747799120022800B
:10002000EE2225E02481F582E43439F583E493FC63
:09003000740193FD123903092249
:03003B000237BECB
:10004300023978020407E86480F8E933E833601181
:100053000460F0ED33EC337009E8FCE9FDEAFEEBF4
:10006300FF220460DED3EB9FEA9EE99DE8C2E78CA2
:10007300F0C2F795F0400CE8CCF8E9CDF9EACEFAF6
:10008300EBCFFB1203D285D0F05804700320D5B315
:10009300E80470075002B2D502041192D5EC046053
:1000A300F7E4CCC0E0C398F8603B94186008400DB7
:1000B300D0E0FB0203E9E4FBFAC9FC8028E830E462
:1000C30006E4C9FBE4CAFCE830E305E4C9CACBFC97
:1000D300E854076010F8C3E913F9EA13FAEB13FBCA
:1000E300EC13FCD8F130F52FC3E49CFCEF9BFFEE3F
:1000F3009AFEED99FDD0E0FBEF4E4D4C701222DBE2
:100103000302040EEC2CFCEF33FFEE33FEED33FD64
:10011300ED30E7EB0203E9EF2BFFEE3AFEED39FD9D
:10012300D0E0FB50130BBB0003020411ED13FDEEF3
:1001330013FEEF13FFEC13FC0203E9EC4D6011E82F
:10014300497017ED33EC3304600DE4FCFFFEFD2230
:10015300E933E8330470F80204071203D258046049
:1001630009E4CC24815006285009020411284003D5
:1001730002040EC0E0EB4A7044B98006D0E0FB02F3
:1001830003FDEF4E701CBD8008EBFFEAFEE9FD8026
:10019300EBE98DF0A4FEE5F0020227E9CDF9EAFED2
:1001A300EBFFEF89F0A4FCE5F0CE89F0A42EFFE489
:1001B30035F0CD89F0A42DFEE435F08067EF4E7065
:1001C30005BD80D780C3EF8BF0A4ACF0EE8BF0A419
:1001D3002CFCE435F0F8EF8AF0A42CE5F038FCE4CD
:1001E30033CB8DF0A42CFCE5F03BF8EE8AF0A42C85
:1001F300FCE5F038F8E433CF89F0A42CFCE5F038C3
:10020300CF3400CE89F0A42FFFE5F03EFEE433C9DE
:100213008DF0A42EFEE5F039CD8AF0A42FFFE5F092
:100223003EFEE43DFD33D0E0FB50070BBB000F0265
:100233000411EC2CFCEF33FFEE33FEED33FD020330
:10024300E9020411EC5D046005E85904700302043B
:10025300071203D2580460F6EC4860F2EC7004FD18
:10026300FEFF22C860DB2481C85009C39860025096
:100273000602040E9850CAF582E9294B4A7005AB71
:10028300820203FD75F0007C1A7880C3EF9BEE9A1F
:10029300ED99400DC3EF9BFFEE9AFEED99FDE84209
:1002A300F0DC23ACF0D0E0FFD0E0FED0E0FDAB8289
:1002B30020E7101BEB60BAEC2CFCEF33FFEE33FEB0
:1002C300ED33FD0203E9E803F830E705C0F075F00C
:1002D30000EF2FFFEE33FEED33FD40B830E7C28071
:1002E300AA74F8CC6480CCC86480C8F58204604FDB
:1002F300C3EB9FF5F0EA9E42F0E99D42F0E89C458E
:10030300F0603C501DE5825FFFE582D313CB5BCBEE
:10031300F42B5582FB50280ABA002409B90020089F
:10032300801DE5825BFBE582D313CF5FCFF4C3135C
:100333002F5582FF50090EBE00050DBD00010CC3F1
:10034300EB9FF5F0EA9E42F0E99D42F0E89C45F010
:100353006007CC4820E701B3EC2275F020800E75CE
:10036300F010800575F0087D007E007F003392D584
:1003730030D5031206C4EC334010EF33FFEE33FEE7
:10038300ED33FDEC33FCD5F0ED22E5F0247EA2D570
:1003930013CC92E7CDCEFF22EDD2E7CD33EC3392EF
:1003A300D524814006E4FFFEFDFC22FCE4CFCECD44
:1003B300CC24E0501174FF80EDC3CC13CCCD13CD0E
:1003C300CE13CECF13CF0470F030D5DE0206C4E9CE
:1003D300D2E7C933E833F892D5EDD2E7CD33EC3326
:1003E300FC5002B2D522EC30E7100FBF000C0EBE5A
:1003F30000080DBD00040BEB6014A2D5EB13FCED5C
:1004030092E7FD2274FFFCFDFEFF22E480F8A2D5F3
:1004130074FF13FC7D80E480EFED33EC3360100454
:10042300700FED547F7005740292E022740422046D
:1004330022E422ED33EC33600A047003BD8004EC44
:10044300B2E7FC22C0E0EFFBEEFAEDF9ECF81201A3
:100453003ED0E0F5F0EFFBEEFAEDF9ECF81206F81A
:10046300A3A3A3A3E8C0E0E9C0E0EAC0E0EBC0E0D7
:10047300C0F012013E120708A3A3A3A312004DD09C
:10048300F0D0E0FBD0E0FAD0E0F9D0E0F8D5F0D43A
:1004930022E709F608DFFA8046E709F208DFFA8067
:1004A3003E88828C83E709F0A3DFFA8032E309F602
:1004B30008DFFA8078E309F208DFFA807088828C1B
:1004C30083E309F0A3DFFA806489828A83E0A3F6D9
:1004D30008DFFA805889828A83E0A3F208DFFA8072
:1004E3004C80D280FA80C680D4806980F2803380C9
:1004F3001080A680EA809A80A880DA80E280CA8091
:100503003389828A83ECFAE493A3C8C582C8CCC535
:1005130083CCF0A3C8C582C8CCC583CCDFE9DEE7B2
:10052300800D89828A83E493A3F608DFF9ECFAA9A4
:10053300F0EDFB2289828A83ECFAE0A3C8C582C866
:10054300CCC583CCF0A3C8C582C8CCC583CCDFEAB5
:10055300DEE880DB89828A83E493A3F208DFF980F3
:10056300CC88F0EF60010E4E60C388F0ED2402B436
:10057300040050B9F582EB2402B4040050AF2323E6
:100583004582239004E473EF8DF0A4A8F0CF8CF0A0
:10059300A428CE8DF0A42EFE22BC000BBE0029EFB2
:1005A3008DF084FFADF022E4CCF875F008EF2FFF57
:1005B300EE33FEEC33FCEE9DEC984005FCEE9DFE25
:1005C3000FD5F0E9E4CEFD22EDF8F5F0EE8420D26C
:1005D3001CFEADF075F008EF2FFFED33FD400798DB
:1005E3005006D5F0F222C398FD0FD5F0EA22C2D50A
:1005F300EC30E709B2D5E4C39DFDE49CFCEE30E7A3
:1006030015B2D5E4C39FFFE49EFE12059CC3E49D8F
:10061300FDE49CFC800312059C30D507C3E49FFFD7
:10062300E49EFE22BB010A89828A83E0F5F0A3E0FF
:1006330022500687F009E71922BBFE07E3F5F0090C
:10064300E3192289828A83E493F5F074019322BB30
:100653000110E58229F582E5833AF583E0F5F0A3FD
:10066300E0225009E92582F886F008E622BBFE0A5B
:10067300E92582F8E2F5F008E222E5832AF583E929
:1006830093F5F0A3E99322F8BB0111E58229F582E2
:10069300E5833AF583E8F0E5F0A3F0225009E92574
:1006A30082C8F608A6F022BBFE09E92582C8F2E556
:1006B300F008F222EF4BFFEE4AFEED49FDEC48FC59
:1006C30022C3E49FFFE49EFEE49DFDE49CFC22E83C
:1006D300600FECC313FCED13FDEE13FEEF13FFD815
:1006E300F122E8600FEFC333FFEE33FEED33FDEC91
:1006F30033FCD8F122E493FC740193FD740293FE5E
:10070300740393FF22E493F8740193F9740293FA48
:10071300740393FB22E493FB740193FA740293F939
:1007230022D083D082F8E4937012740193700DA3E6
:10073300A393F8740193F5828883E4737402936836
:1007430060EFA3A3A380DFE4F523FBFAF97840125B
:1007530002478F278E268D258C24C201122B23AFAF
:1007630027AE26AD25AC24120B8A8F23E523600325
:10077300020A58122F357D527F137E0112371D8FC7
:10078300281236A1C3EE9427501BE528C3940E50BC
:100793001405280528E528FB7A007D527F137E0186
:1007A30012349980DC12189712371D8F281236A144
:1007B300C3EE94275015E528C3941E500E05280553
:1007C30028E52812189412349980E27FFA7EED7D91
:1007D300EB7CBA1218A91218BB12184479A07841FD
:1007E3001202478F498E488D478C467F007E007DDD
:1007F300207C41122452C004C005C006C007123633
:10080300A1AC06AD07E41203627B817A04793578E3
:100813003F12013ED003D002D001D00012013E129C
:10082300039B8E218F221219031218A91202E4606E
:100833000540030209EAC2027F667E667DA612179F
:10084300F37FE27EB87D007C4E1200498F438E42D7
:100853008D418C40121B1A8F23E5236003020A5833
:10086300C2027F667E667DA67C3F1218A912013EF6
:100873008F458E448D438C42E4F5461235E77F4025
:100883007E547D897C4B1218A91202E4504E753AAE
:1008930008753B007DA07F17120B5B6480701412F8
:1008A3000B40E528D39401400AE52813F528120AE2
:1008B300F980EFE5236481701C120B40E528C39493
:1008C3001F507B74042528F528D3941F5070E52806
:1008D300120AF980E7E5236065020A58753A017543
:1008E3003B007D707F16120B5B6480701E120B7EC3
:1008F300E528D3940040141528120B4C1236A1C3DB
:10090300EF9522EE952150E8E4F523E52364817009
:1009130026120B7EE528C3941F50230528E528944F
:100923001F501B120B4C1236A1D3EF9522EE9521CB
:1009330040E2E4F5238007E5236003020A58120B23
:100943001B6003020A58120B697D107F137E01128C
:10095300371D8F2AE52A64036005E52AB4021212C3
:1009630017ED7F887E457DC87C4E12184479208020
:100973000DE52AB401131217ED12183C797078C1F2
:100983001218368E288F29800280337BFF7A0FE47A
:10099300FDFCAF29AE281217E57DB07F127E011250
:1009A3003499E52AD39401400712189E8F2B8014A3
:1009B300E52AB4010912189EEF04F52B800675236E
:1009C30009020A58AF2B7E007B0F1217E07DFC7FD4
:1009D300127E0112349912189E12194F1217E01247
:1009E30019611234998008120B1B7069120B697517
:1009F3003A10753B00AB22AA217DB07F127E011213
:100A03002CCF8F23E523704D7F127E011237578E33
:100A1300288F297F177E011237578E2A8F2B7F1A33
:100A23007E011237578E2C8F2D7F167E011237577A
:100A3300EE5407F52E8F2F7D327F157E0112371D61
:100A43008F307DFD7F187E0112371D8F31121961A2
:100A530012371D8F32D201122B23E5236002FF22AE
:100A6300AD29AC287F127E01123903AD2BAC2A7F4E
:100A7300177E01123903AD2DAC2C7F1A7E0112397A
:100A830003E52E4480FCAD2F7F167E01123903E56A
:100A930031C43354E04401FC748CFD7F187E011291
:100AA3003903E53275F020A4ACF04410FD7F147EC9
:100AB300011239037B947A027DE57F197E0112349A
:100AC30099E530FB7A007D327F157E011234997FE0
:100AD300207E001237578E338F34E5335455FCADE7
:100AE300347F207E00123903AD34AC337F207E0087
:100AF3001239037F0022FB7A007DFB7F167E0112F1
:100B03003499753A08753B00AB22AA217DA07F1763
:100B13007E01122CCF8F2322C202AB27AA26A9253E
:100B2300A8247FE27EB87D007C4E1200498F438E5D
:100B3300428D418C40121B1A8F23E523227DFB7FBC
:100B4300167E0112371D8F2822E528FB7A007DFBD4
:100B53007F167E0112349922AB22AA217E01122C28
:100B6300CF8F23E52322C202852745852644852589
:100B730043852442E4F5461235E7227DFB7F167E4A
:100B83000112371D8F28228F388E378D368C357F93
:100B9300207E001237578E398F3A7D107F137E01E6
:100BA30012371D8F3B7D407F197E0112371D8F3C0D
:100BB300903B7D12180C1217C91202E4401312194C
:100BC3005A903B811218121217C91202E4600540B1
:100BD300037F08227E3C7F7D12326EE53B7D107FD2
:100BE30013120F73E53CB41F047B168003E53CFB33
:100BF3007A007D407F197E01123499E4FFFE7DA0C7
:100C03007C411217C91218228F3D1218F68F3DAC82
:100C13003D12185912004D122774EF600122120F72
:100C2300651236E3C2027543E27542B87541007539
:100C3300404E121B1AEF6001227B027A001219192F
:100C43001234991236E3D202754356754221754127
:100C53000375404E121B1AEF600122AD3AAC397F87
:100C6300207E001239031237EFD202754580754496
:100C73009675431875424BE4F5461235E7C202E414
:100C8300F545F544F543F542F5461235E7121903E8
:100C93001217C91202E4600250137B017A00120F8B
:100CA3005BE4FBFA120F7C7B0F7A008073E53B64F5
:100CB300036005E53BB4021C1217C97F887E457D9E
:100CC300C87C4E121844792078C11218361218D2F3
:100CD3008F3F801FE53B640170161217C912183C41
:100CE300797078C11218361218D2EF04F53F8003D9
:100CF3007F09227BFF7A0FE4FDFCAF3EAE3D121766
:100D0300E5120F5BAF3FEF3395E0FE7B0F1217E069
:100D1300120F7CAE3DAF3E1218D612194F1217E0D8
:100D2300121961123499E4F53DE53CC3941550035F
:100D3300753D01E53CC3940D5003753D02E53CC38D
:100D430094085003753D03E53D7D607F1A120F73D0
:100D5300E53C75F00A84FCE41203678F498E488DE5
:100D6300478C467F667E667D267C3F122452E4FBD9
:100D7300FA79D7784312013E7B337AB379DC78C2B0
:100D830012004D7B9A7A9979A3784112184479809D
:100D930078411218368F3DEF3395E0FE7B1F121713
:100DA300E07DD97F1A7E011234997F407E547D897C
:100DB3007C4B1217C91202E44003020E77E4FBFADC
:100DC3007D227F157E01120F4AE4FBFA120F3012C7
:100DD30017FD7FFC7EBE7D0012184279CE78C212C9
:100DE30018368E3D8F3E7BFF7A071217E27DA07F78
:100DF300177E01123499753D051217C112013E7B0E
:100E0300C07AE17964784B1202E460054003753DD2
:100E1300041217C11218651202E460054003753D00
:100E2300031217C112013E7B807A967998784A1291
:100E330002E460054003753D021217C112013E7BB7
:100E4300007A1B7937784A1202E460054003753D46
:100E5300011217C112013E7B007AE679AA78491282
:100E630002E460054003E4F53DE53DFB7A007DDBEC
:100E73007F17807E1219031217C91202E47F15121D
:100E8300188B60025061123499E4FBFA7D337F15AD
:100E93007E011234997B017A00120F301217FD7F05
:100EA3005E7ED07DB2121842794878C21218368E0F
:100EB3003D8F3E1217DE7D707F167E01123499122C
:100EC30017C112013EE4FBFA79207841120247125E
:100ED300039BEF24FDF53DFF3395E0FE7B081217DE
:100EE300E07DA87F16800B120F4A7B027A007DFDFE
:100EF3007F187E01123499E53A54036402702BFB88
:100F0300FA7D117F82FE123499120F651219687FE0
:100F13000D7E011234997DEE7F0012196F12349900
:100F2300AB3AAA391219191234997F00227DFD7F39
:100F3300187E011234997F667E667DA67C3FAB38AE
:100F4300AA37A936A835221234997B017A007D335A
:100F53007F157E01123499227DB07F127E011234F7
:100F630099227B017A007D107F207E001234992222
:100F7300FB7A007E01123499227DFC7F127E0112DE
:100F83003499228F248E238D228C21903B85121835
:100F93004B400A903B9112184B600540037F0A2295
:100FA30012195AAF24AE23AD22AC211202478F2A65
:100FB3008E298D288C27903B8912184B601B401972
:100FC300903B8D12184B501112195A903B8D1218E9
:100FD300128F2A8E298D288C27C201122B23AF2A28
:100FE300AE29AD28AC2712136D752B008F2CE52C81
:100FF300452B60030211D5122F357E041213627E36
:10100300021213621236A18E258F261218971237F9
:101013001D8F2DC3E5259427501AE52DC3942B501E
:1010230013052DE52D1218941234991236A18E252D
:101033008F2680DF1218091219446005400302103D
:10104300FBC200752D0512126B5035C312181950CF
:10105300121218C7400DE533153370021532121200
:10106300DC80E8C31218195013E5334532700D12B2
:1010730012F17D7012132E1219208050C20080517C
:10108300121818404C1218184016E533941F121802
:10109300CB500D0533E5337002053212131A80E588
:1010A300121818401AE533641F453270121212F1F8
:1010B3007D701213001219207E011234998002C22E
:1010C300000533E533700205321218717E011234C4
:1010D30099152D7D7012135670030211BDF4700320
:1010E3000211BD2000030211BDC3E52D648094806D
:1010F30040030210490211BDC200752D057B027A1F
:10110300007D607F1A7E0112349912126B503AC32C
:1011130012181950121218C7400DE5331533700217
:1011230015321212DC80E8C31218195018E5334542
:101133003270121213477DF812132E8F34EFFB7D9A
:10114300F87F098055C200805612181840511218B2
:10115300184016E533941F1218CB500D0533E533B1
:101163007002053212131A80E5121818401FE53376
:10117300641F453270171213477DF81213008F3422
:10118300EFFB7DF87F097E011234998002C20005CE
:1011930033E533700205321218717E01123499154A
:1011A3002D7DF81213566012F4600F30000CC3E566
:1011B3002D64809480400302110D7DC87F0A7E0157
:1011C30012371D8E2F8F307F097E011237578E31D4
:1011D3008F32D201122B23E52C452B6003AF2C2237
:1011E300AB30AA2F7DC87F0A7E011234997F057E1A
:1011F300011237578E2DEF54E9F52E1218091219E3
:10120300446002500F432E101219687F0B7E0112A7
:1012130034998003432E067D8C7C317F067E011238
:1012230039037D8C7F077E01123903AD32AC317FE8
:10123300097E01123903AD2EAC2D7F057E011239D3
:10124300037F207E001237578E338F34E533545596
:10125300FCAD347F207E00123903AD34AC337F20E4
:101263007E001239037F0022E4FBFA7D417F407E3A
:1012730002123499E4FBFA7D417F407E04123499D3
:101283001236A18E2E8F2FAC2EAD2FE41203627B6C
:10129300817A047935783F12013E12039B8E308F99
:1012A300317B017A007D417F407E021234997B01BC
:1012B3007A007D417F407E041234991236A18E2537
:1012C3008F267DC87F0A7E0112371D8E328F33C36E
:1012D300E5269531E525953022AB33AA327DC87FCB
:1012E3000A7E011234991236A18E258F2622D2004E
:1012F3007B10FA7DC87F0A7E01123499227F097E12
:101303000112371DEF24F6FFEE34FFFE7BFF7A0058
:10131300E4FDFC12383F22FBAA327DC87F0A7E011E
:101323001234991236A18E258F26227F097E01124F
:10133300371DEF2419FFE43EFE7BFF7A00E4FDFC3A
:1013430012383F22D2007B10FA7DC87F0A7E011239
:101353003499227F097E0112371D8F34E53422E44C
:10136300FBFA7D417F40123499228F398E388D37B5
:101373008C3612191912371D8E3A8F3B7E3D7F65CD
:1013830012326E1218091218B21202E460054003F9
:1013930002143C7FCD7ECC7D4C7C3F1218B21218D8
:1013A300BB12192D7D447F0512196F1234997D22CA
:1013B3001215BD7D111215BD1219687F0B1215711F
:1013C3007BCE7A4079E878B812013EC004C005C0EC
:1013D30006C00712158D7B957AB77915782512010A
:1013E3003ED003D002D001D00012004DC004C0058E
:1013F300C006C0071215C87B757AEC7935783B12A5
:10140300013ED003D002D001D00012004DC004C071
:1014130005C006C0077FB47E4E7DA87C41121939F2
:10142300D003D002D001D00012004D7B157AA379EE
:10143300411217D27D700214DF1218BEAF39AE38D5
:10144300AD37AC3612192DE4FBFA7D447F057E01DE
:101453001234997F0512188B1234997B017A007D1F
:10146300117F051215717B347A0A795D78B91201FF
:101473003EC004C005C006C00712158D7B667A27DF
:101483007994783512013ED003D002D001D00012F6
:10149300004DC004C005C006C0071215C87BAC7A56
:1014A3000D799C783C12013ED003D002D001D000CC
:1014B30012004DC004C005C006C0077F437E727D85
:1014C300B77C3F121939D003D002D001D0001200EB
:1014D3004D7BC37AC7793E1217D27DF87F097E010F
:1014E300123499E4FFFE7DA07C411218B212182237
:1014F3008F3C1218F68F3CAC3C12185912004D1257
:101503002774EF6001227B011215A47B021215A43C
:10151300AB3BAA3A1219191234991237EFD202755A
:1015230045007544247543741215DED2028539458E
:101533008538448537438536427546011235E7C2FF
:10154300027545007544BA75435B1215DEC2027F0E
:10155300007E507DC37CC71218B212004D8F458E9A
:10156300448D438C427546011235E77F00227E018C
:10157300123499E4F549F548754740754640AF4143
:10158300AE40AD3FAC3E12245222E4F549F5487516
:101593004780754640AF41AE40AD3FAC3E1224524A
:1015A300227A007D107F207E001234997B017A001D
:1015B3007D117F1C7E0112349922E4FBFA7F057EA4
:1015C3000112349922E4F549F548F547754640AFD1
:1015D30041AE40AD3FAC3E12245222754249E4F580
:1015E300461235E722E4F559F55AF55D755E80F547
:1015F3005B755C80F55F7560FF300413755601758C
:1016030057217558A3FBFA7D217F1C7E018011753C
:10161300560075578B755881E4FBFA7D217F86FE52
:101623001234997F187EB77DD17C37AB1CAA1BA9D6
:101633001AA819122F00C374FF9FF51E74FF9EF59D
:101643001DE4FBFA1217B0BF03037F01227BFF12D5
:101653001785EF70037F0122E4F561121798756215
:1016630040E5626041122EBC2459F8C000E6FE0832
:10167300E6FFEF4562D000A60608F6121798A2040B
:101683009205123864BF0316122EBC2459F8C00009
:10169300E6FE08E6FFEF6562D000A60608F6E562FF
:1016A300C313F56280BB122EBC2459F8E6FE08E68C
:1016B300FF122EBC245BF8A60608A607122EBC2434
:1016C3005BF8E6FA08E6FB4A60261217B0EF6402FD
:1016D300600F122EBC245BF80806E6187012068011
:1016E3000F122EBC245BF808E6161870CF1680CCB8
:1016F3000561E561C39402500302165EE56024FFB1
:10170300FFE55F34FFFEEFB55A14EEB55910C3E59C
:101713005E955CFFE55D955BA2E713EF8034C3E55F
:101723005A955CFDE559955BFCC3E55E9560FFE565
:101733005D955FFED3EF9DEC6480F8EE6480984086
:101743000CEEA2E713EF132560F561800AECA2E724
:1017530013ED13255CF561E561FB121785EF640258
:1017630060100561E561FB7A00AD58AF57AE5612C4
:101773003499A2049205123864BF02037F00227FCA
:1017830001227A00AD58AF57AE56123499A2049293
:101793000512386422E56125E025E02459F8E6FACC
:1017A30008E6FBAD58AF57AE5612349922AD58AF89
:1017B30057AE56123499A2049205123864227F66FA
:1017C3007E667DA67C3FAB38AA37A936A83522783A
:1017D300C212004D12039B8E3C8F3D7BFF7A00E4C7
:1017E300FDFC12383FAA06AB07227FEC7E517D3801
:1017F3007C3FAB27AA26A925A82412013EA804A949
:1018030005AA06AB0722903B89E4FBFAF97840125C
:1018130006F8020247D3E5269531E52595302212D5
:10182300013E7B007AC8792F784C120247E4FBFA19
:10183300F9783F12004D02039B7FBB7EEE7DA07CB7
:101843004F120247E4FBFA221206F8AB24AA23A99B
:1018530022A8210202E4E41203677B007AC8792FED
:10186300784C12013E7B807A967918784B22FFAE32
:10187300327B1F7A00E4FDFC12383F8E328F33AB8C
:1018830033AA327DC87F0A227B017A007D227E0142
:1018930022FB7A007DFA7F087E0122AE28AF297CE5
:1018A300007D6402059CAB27AA26A925A82422ABA8
:1018B30039AA38A937A8362212013E7B007A247947
:1018C30074784922E5339400E53264809480228E53
:1018D3003D8F3E7C007D640205F1C3E53D9541F5F6
:1018E3003DE53C9540F53C22AB3DAA3CAD37AF36D8
:1018F300AE35227E007B0D7A007D027C0002383FEC
:101903007F607EFE7D4D7C4C22E541253DF53DE526
:1019130040353CF53C227D107F207E00228E348FA3
:1019230035AB35AA347D707F09221202478F418E71
:10193300408D3F8C3E22AB41AA40A93FA83E020105
:101943003EAB2AAA29A928A8270202E4C3740F9F41
:10195300FFE49EFE7B0F22E4FBFAF97840227D85AB
:101963007F147E01227B017A00E4FD227B017A0051
:101973007E01227F207E001237578E2B8F2C7E3BD9
:101983007F6912326EE52C540364017006FBFA7D05
:10199300228005E4FBFA7D117F82FE123499200137
:1019A3003012232F12371DEE7024EF14601124FE22
:1019B300600D0470197B01121AE2E4FBFA800AE459
:1019C300FBFA7DAA7F03121AEE121B1080317F06E9
:1019D30022E51213135401F52DFB121AE2E52D7FB4
:1019E3000070027F01EFFB7A00121B1012232F12EB
:1019F300371DE51254036F7001EE60037F06221258
:101A030022571234991222CC12371DEF4E702D1229
:101A13001AF81236E3D202122878C004C005C006B1
:101A2300C0071222191222D3D007D006D005D00442
:101A330012004978CB1222B8C202803B7B011222EA
:101A4300591234991238E740037F0322C202122845
:101A5300788F308E2F8D2E8C2D122257123499129F
:101A630036E3D202122219AB30AA2FA92EA82D12C7
:101A7300004D784B1222B8121B1A8F2AE52A6002F6
:101A8300FF22121B041237EF12338F8F2AE52A60CD
:101A93000122120003D2027545407544547543096F
:101AA30075424BE4F5461235E71222171222401213
:101AB30035E7E52C540364027022121AF812230846
:101AC3007F0D121AEE7DEE7F007E01123499E4FB46
:101AD300FA7D117F82FE123499121B047F00227A51
:101AE300007DAA7F037E01123499227E011234996C
:101AF3007B017A00227B01FA7D107F20FE1234994C
:101B030022AD2CAC2B7F207E00123903227DBB7FBC
:101B1300037E01123499227F207E001237578E44B0
:101B23008F457A003002047B0280027B017D107FA7
:101B3300207E00123499755207AF52123950AC0609
:101B4300AD07E4120362AB43AA42A941A8401201C4
:101B53003E8F498E488D478C467F667E7F7D62121D
:101B63002EAF400D7F267EE57DE5122EAF6005404A
:101B730003D552C5E55224FFFBE434FFFA7D867F8B
:101B83001F7E011234997FAC7EE97DA3122EAF7FB5
:101B930000600440027F018F52EFFB7A007DAA7F31
:101BA3001C7E01123499E5522401FDE433FCE41256
:101BB3000362AB1CAA1BA91AA81912013E122EA676
:101BC300AF49AE48AD47AC461202478F518E508D98
:101BD3004F8C4E12039BE412035D122EA6AF51AE3F
:101BE30050AD4FAC4E120049122EF8122F008F4DFC
:101BF3008E4C8D4B8C4A7CC0AB51AA50A94FA84E3A
:101C0300122EDFAB07AA067DD47F1E7E0112349904
:101C1300AF4DAE4CAD4BAC4A122F207F1E7E01124E
:101C23003499E54DFFE54CFEAD07AC067F1D7E0103
:101C3300123903C2037549FFE4F546E546121CAAAF
:101C4300D2041215E8EF702A7DA37F217E0112379B
:101C53001D8F4AEF2480FFE434FFFE1239628F4B5D
:101C6300E54BC395495009854B49854647854A4805
:101C7300D2030546E546C3940340C0E547121CAAB8
:101C8300E548FB7A007DA37F217E01123499AD459F
:101C9300AC447F207E001239032003087F03300207
:101CA300027F04227F0022FB7A007D217F217E01B7
:101CB300123499227F207E001237578E228F23C23F
:101CC30001122B23A20092011219768F21E52160C4
:101CD30003021D64122F35122DA020002612232F7C
:101CE30012371DBF020C7D55121E1EE4FBFA7D3315
:101CF300800A7D66121E1EE4FBFA7D447F0D7E0181
:101D03001234991222571234991222CC12371DEF32
:101D13004E701BFA1222CA1234997B0112225912F5
:101D23003499E4FBFA7D117F1C7E01123499121E53
:101D330034AF18AE17AD16AC15A2009201122A42A9
:101D43008F21E521701B7DDD121E291222621234C0
:101D53009912221778471222421235E7C20112263E
:101D63006F903DF3122238903DF5E493FD12371D39
:101D73008E248F25903DF612223812230112371D2F
:101D83008E268F27903DEA122238903DECE493FD96
:101D930012371D8E288F29D201122B23E522545589
:101DA300FCAD237F207E00123903121E34E521602F
:101DB30002FF22903DF3122238903DF5E493FDABF0
:101DC30025AA24123499903DF6122238122301AB2E
:101DD30027AA26123499903DEA122238903DECE46A
:101DE30093FDAB29AA28123499122294123499E54F
:101DF3002330E007E4FBFA7D668005E4FBFA7D7798
:101E03007FC07E051234997D20121E29E4FBFA7DE2
:101E1300887F0C7E041234997F0022E4FBFA7F0C46
:101E23007E0112349922E4FBFA7F0C7E041234996A
:101E330022AD23AC227F207E00123903227F207E35
:101E4300001237578E2A8F2BE52B5403640170063B
:101E5300FBFA7D448005E4FBFA7D337F82FE123476
:101E6300997E3A7F9112326E12000312338FEF6024
:101E730001227B011222591234991236E3D2021243
:101E83002878C004C005C006C0071222191222D345
:101E9300D007D006D005D0041200497B007A2479FC
:101EA3007478C912004D8F2F8E2E8D2D8C2CC2026B
:101EB3001222C1121B1AEF600122E52B30E11EE44E
:101EC300FBFA7D117F82FE123499122308121FAF91
:101ED3007B017A007DEE7F007E0112349912225736
:101EE3001234997A001222CA1234991238E7400345
:101EF3007F0422AD2BAC2A7F207E001239031237D8
:101F0300EFD20212221912224B1235E77DBA7F0358
:101F13007E0112371D8F2C300150E4FBFA7D777F51
:101F23000C7E01123499E52C64016006E52C6402F1
:101F33007035E5125403F52DFB7A00121FA5E52D2C
:101F430024FFFFE434FFFEEFF4FBEEF4FA7D2112ED
:101F53001FAFE52C147F0070027F01E512131354A9
:101F63003F6F602E7F07227F0722E52C6401600903
:101F7300E52C640260037F0722E52C2401FBE43394
:101F8300FA121FA57D657F0C121F987D437F0D12EA
:101F93001F987F0022E52C6403FB7A007E01123434
:101FA30099227D877F0D7E01123499227F0D7E0158
:101FB300123499223E9248DA3ECCCCCD3F2AAAABCA
:101FC300400000003F8000003F9837F03FB504F326
:101FD3003FD744FC3E3172173EB172173F0515914E
:101FE3003EDE5BD9D2018002C201EDD2E7F8CD33E8
:101FF300EC3304700BBD800592D502041102040773
:1020030040FBD31460F2F5F07C3FEE7A00C3949664
:10201300C8948B40230AC89469C8941A401A0AC802
:102023009468C8941F40110AC8945AC8942540085C
:1020330005F07A00CDC2E7CDC0F08C4C8D4D8E4EAD
:102043008F4FEA2323C0E024C7F582E4341FF583CE
:1020530012070812004DECC0E0EDC0E0EEC0E0EF67
:10206300C0E01206F8A84CA94DAA4EAB4F12004986
:10207300D0E0FBD0E0FAD0E0F9D0E0B2E7F812020A
:10208300478C4C8D4D8E4E8F4F901FB774031204A7
:1020930047A84CA94DAA4EAB4F12013ED0E0600FAA
:1020A30024D3F582E4341FF58312070812004D8C04
:1020B3004C8D4D8E4E8F4FD0E0C3947FFDE4940042
:1020C300FC1203627B187A727931783F12013EA8C1
:1020D3004CA94DAA4EAB4F12004D30010B7BD97A60
:1020E3005B79DE783E12013E227F207E0012375755
:1020F3008E218F22C201122B23A2009201121E40B5
:102103008F23E5237043122F35122DA0A2009201D5
:102113001223368F23E5237030122DA01222177B52
:10212300007ABA795B78491222481235E712256999
:10213300C2027545007544BA75435B754249E4F5BF
:10214300461235E7D20112266F903DED12223890E8
:102153003DEF1222098E248F25903DF012223890F4
:102163003DF21222098E268F27903DE712223890E6
:102173003DE9E493FD12371D8E288F29D201122BDE
:1021830023E5215455FCAD227F207E00123903AD97
:1021930022AC217F207E00123903E5236002FF2257
:1021A300903DED122238903DEFAB25AA2412221068
:1021B300903DF0122238903DF2AB27AA261222104E
:1021C300903DE7122238903DE9E493FDAB29AA281C
:1021D300123499122294123499E52230E007E4FB79
:1021E300FA7D448005E4FBFA7D557FC07E051234F9
:1021F3009912231A123499E4FBFA7D107F087E02A8
:102203001234997F0022E493FD12371D22E493FDDB
:1022130012349922C202AF18AE17AD16AC1579A0CD
:102223007840E4FBFA020247E53D25E024F9F58214
:10223300E43439F583E493FE740193FF2278C77B7A
:10224300007A5079C312004D8F458E448D438C42E2
:10225300E4F546227B027A007D107F207E00227DFA
:1022630077E4FBFA7F0C7E042278427C007D007BBE
:10227300FF7E007F03020564E975F0288475F0187A
:10228300A4FFE92400FDE43405CD2FFFED35F0FE76
:10229300227B017A007DFF7FC07E05227D227B01A8
:1022A3007A007F0C7E0422D3903B7B740193952F9D
:1022B300E493952E227B407A54790912004D8F4383
:1022C3008E428D418C40227B017D667F1C7E0122E4
:1022D300A804A905AA06AB0722E53D25E024F9F5E4
:1022E30082E43439F58374019322C3E54B954DE5BC
:1022F3004A954C22C3E5429544E541954322903DDE
:10230300F8E493FD227B017A00E4FD22FEC3EF94FF
:1023130001EE64809480227B017A007D337F087E06
:102323000222C3E52F952BE52E952A227D877F0D6B
:102333007E0122752A50752B007D221222641234ED
:1023430099122262123499122217E4FBFAF97840A7
:1023530012013E7B007ABA795B7849122248123522
:10236300E77D407F197E0112371D8F2C30010EE46B
:10237300F52DE52D7D967F1312244980367D527FFE
:10238300137E0112371D8F2D80291223254003024E
:10239300241FE52DC3940F400302241F052DE52DB3
:1023A300FB7A003001047D9680027D527F137E010B
:1023B3001234991236A18E2E8F2F80CEE52CC39422
:1023C300195061E52D640F705B1223255056E52CDF
:1023D300C39419504F052CE52C7D407F19122449D5
:1023E3001236A18E2E8F2FAC2EAD2FE4120362C0B6
:1023F30004C005C006C007AC30AD31E4120362125D
:1024030022D3D007D006D005D0041202477B667AC8
:10241300667986783F1202E460025008852E308583
:102423002F318098C3E52F9421E52E940B50057E20
:10243300007F05227D771222A112349912229F1266
:102443003499E4FEFF22FB7A007E01123499228F35
:10245300458E448D438C42E4FFFE7D807C3FAB453B
:10246300AA44A943A8421202E47009AF45AE44ADA1
:1024730043AC4222AF45AE44AD43AC4212041CFB15
:10248300AF49AE48AD47AC4612041CFFBF0108E498
:10249300FFFE7D807C3F22EF64046022EB640460D6
:1024A3001DBB0127E4FFFEFDFCAB49AA48A947A8D1
:1024B300461202E460084006E4FFFEFDFC2274FFBE
:1024C300F549F548F547F546022560E4F54AF54B2D
:1024D300FFFEFDFCAB45AA44A943A8421202E45007
:1024E3004BAF49AE48AD47AC4612039B8E4A8F4B68
:1024F300AC4AAD4BEC120362C8ECC8C9EDC9CAEED5
:10250300CACBEFCBAF49AE48AD47AC46120049E466
:10251300FBFAF9F81202E470A5AF45AE44AD43AC43
:10252300421204368F458E448D438C42AF45AE44F0
:10253300AD43AC42121FEBAB49AA48A947A84612C8
:10254300013E12320C8F498E488D478C46E54B3045
:10255300E00B1204368F498E488D478C46AF49AE47
:1025630048AD47AC462212225B12371D8F3C122323
:1025730008FF7E01123499E4FBFA7D887F087E020E
:1025830012349912226212349912231A12349912B4
:102593002294123499752CA07535A0E53CB401172B
:1025A300752A05752BC37533057534C47D4412260E
:1025B30064E4FBFAFD8016752A05752BC575330592
:1025C3007534C67D55122664E4FBFA7D117FC07E07
:1025D30005123499E4FDFCAF2BAE2A123418E4FD46
:1025E300FCAF34AE33123418E4F52DF52EF536F581
:1025F30037F53D12222BC3E52E9FFFE52D9EFE7B73
:10260300FF7A037D007CFC1237998E2F8F301222C4
:10261300DC252EFFE493352DFE1237998E318F3250
:1026230012222BC3E5379FFFE5369EFE1237998EA4
:10263300388F391222DC2537FFE4933536FE123703
:10264300998E3A8F3B7B007A00792A122BFB7B0011
:102653007A007933122BFB053DE53DC39403409388
:1026630022E4FBFA7FC07E05123499227BFF7A397C
:1026730079818B2A8A2B892C783F7C007D007BFF14
:1026830030011C7A3D79ED1222747A3D79F01222E1
:102693006C782D7C007D007BFF7A3D79E7801A7A88
:1026A3003D79F31222747A3D79F612226C782D7CEF
:1026B300007D007BFF7A3D79EA1222747534007540
:1026C30035807532FF7533807F2D12295E7DBF12F1
:1026D300276A7DFF1227621236A18E458F467DFF42
:1026E30012276A7DBFAF43AE421239031236A18E61
:1026F300478F48C3E5469548E545954778367C00BE
:102703007D007B0050067A00793F80047A0079428D
:102713001222747DFF7C07122762753D07753EFF09
:10272300753B05753CFF7F3612295EE5312410F5B4
:1027330035E43530F534E53124F0F533E53034FF55
:10274300F5327F2D12295EAD3AAC39AF37AE361272
:102753003903AB31AA30AD2FAF2EAE2D023499AF72
:1027630043AE42123903227C07AF40AE3F12390316
:10277300228F458E448D438C427F7D7EDA7DAC1261
:102783002EC3798078BF122EE48F4E7F287E6B7D17
:102793006E122EC3F978BF122EE48F4FE54F254EEC
:1027A300FFE433C313EF13F5502401FFE433FEEFCB
:1027B30025E0FDEE33FCE4120362AB45AA44A943D2
:1027C300A84212013E8F498E488D478C46E550FB47
:1027D3007A007DA37F8912285F8F4D8E4C8D4B8CA1
:1027E3004A7CBFAB4DAA4CA94BA84A122EDFAB07BC
:1027F300AA067DD47F8812285F12039BE412035D2F
:10280300122EA6AF4DAE4CAD4BAC4A1200498F51C0
:102813008E508D4F8C4EE4FFFE7D807C49AB51AAD8
:1028230050A94FA84E122F008F558E548D538C52A2
:10283300E4AB07AA067DF07F87FE123499AF55AE4D
:1028430054AD53AC52122F207F887E00123499C2AC
:10285300041215E8EF7F0060027F02227E0012342B
:1028630099AB1CAA1BA91AA819AF49AE48AD47AC2E
:1028730046120247227F207E001237578E318F3255
:102883007A003002047B0280027B017D107F207E70
:10289300001234997DD07F1E7E0112371D8E338F37
:1028A300347F1D7E01123757E4FCFDC004C005C010
:1028B30006C007FEE534122F2CD003D002D001D07E
:1028C300001206B78F388E378D368C357DAA7F1C64
:1028D3007E0112371DEF04F5397D867F1F7E0112BD
:1028E300371DEF04F53AAD32AC317F207E0012394B
:1028F30003AF3A122E9B122F15C004C005C006C0A9
:1029030007AC39E4120367D003D002D001D0001220
:10291300013EC004C005C006C007AF38AE37AD36B0
:10292300AC35122EF4120247C004C005C006C0071E
:10293300E533C4F854F0C868FEE534C4540F4824A2
:1029430004122EECD003D002D001D00012004DD0DF
:1029530003D002D001D00012013E228F4974FFF54B
:102963004AF54BA807E82405F8E6F54E08E6F54FC7
:10297300A807E82407F8E6F55008E6F551A807E6A6
:10298300F55408E6F555A807E82402F8E6F556FDE0
:10299300122A338E4C8F4DC3E551954FFFE5509569
:1029A3004E12230F405E7C007D021205F18E528F82
:1029B300531222ED500BAD56122A338E4C8F4D809D
:1029C30014AB4FAA4EAD56AF55AE541234991236CE
:1029D300A18E4A8F4BD3E5539400E55264809480D3
:1029E30040221222ED500FC3E5519553F551E550A6
:1029F3009552F55080A1E553254FF54FE552354EDD
:102A0300F54E80931222ED5006AE4EAF4F8004AECA
:102A130050AF51E5492403F8A60608A607E5492463
:102A230003F8E6FA08E6FBAD56AF55AE5402349907
:102A3300AB51AA50AF55AE541234991236A1228F1E
:102A43002D8E2C8D2B8C2A7DFA7F087E0112371D4B
:102A53008F307B017A007DDD7F0C7E041234991266
:102A63002262123499C202AF2DAE2CAD2BAC2A12C6
:102A730022211222401235E730012675310F800FD3
:102A83001222AA40411531E531648094804037E534
:102A930031FB3395E0FA7D517401FFFE122B188050
:102AA300DF75310280101222AA401B05310531E582
:102AB30031D3940F5010E531FB7A007D527F137EA2
:102AC30001122B1880E0C3E52E9410500F0530053A
:102AD30030E53094395005122B0280EA1222AA40C5
:102AE3000E0530E530D3943E5005122B0280EDC322
:102AF300E52F9421E52E940B7F0050027F0522E5FC
:102B030030FB7A007DFA7F087E011234991236A1D8
:102B13008E2E8F2F221234991236A18E2E8F2F22B2
:102B2300E4F536F5377F20FE1237578E3A8F3B791F
:102B330024E9605C25E02473F582E4343DF583E405
:102B430093F538740193F539E925E02475F582E4AA
:102B5300343DF583C37401939539E4939538402C40
:102B6300300108122E87122BEE800FAF39AE3812C8
:102B73003757122E83ECF0A3EDF00537E5377002DB
:102B830005360539E53970C0053880BC191980A1AF
:102B9300E4F9E924FDFDE434FFFC7F207E001239D3
:102BA3000375380175391C300108122E87122BEE7C
:102BB300800FAF39AE38123757122E83ECF0A3EDE6
:102BC300F00537E537700205360539E5397002053A
:102BD30038D39423E538940140CD09E9640270B2F7
:102BE300AD3BAC3A7F207E00023903E0FCA3E0FD5D
:102BF300AF39AE38123903228B3E8A3F894074FFC6
:102C0300F541F542900005120652F54685F04590D0
:102C13000007120652F54885F047122CBE8E438FEB
:102C230044C3E5489546FFE547954512230F405BAE
:102C33007C007D021205F18E498F4A1222F7AB3ECA
:102C4300AA3FA9405009122CBE8E438F4480141210
:102C53000627FFAEF0AD46AC451234181236A18EEE
:102C6300418F42E54A454960221222F7500FC3E5DE
:102C730048954AF548E5479549F54780A4E54A252F
:102C830046F546E5493545F54580961222F7500647
:102C9300AE45AF468004AE47AF48AB3EAA3FA9401E
:102CA300900003EE8FF012068A120627FFAEF09013
:102CB3000003120652FDACF0023418120627FFAED1
:102CC300F0AD48AC471234181236A1228E358F3638
:102CD3008D378A388B39122D9550028001C39200AB
:102CE3001218EF12371D8E3C8F3DE537C4540FFF8A
:102CF300E537540FFEC3EF9E04FF123950EF24FF54
:102D0300F53FEE34FFF53E754000754101E5412581
:102D1300E0F541E54033F5403000051218DD80034E
:102D230012190CAB3FAA3EE4FDFCAF3DAE3C12389A
:102D33003F8E3C8F3D1218EB123499122D957F0074
:102D430050027F01A200E433B50713C3E541953B6D
:102D5300E540953A40B77F803000027F8122D3E57A
:102D6300419401E54094004026E54013F540E541D8
:102D730013F5411236A1C3EF9539EE95384005128C
:102D8300190C80031218DD1218EB12349980CF7FCF
:102D930000221236A1C3EF9539EE953822752A0524
:102DA300752BC712225B12371D8F2CE4FBFAFDFF34
:102DB3007E0112349912229F1234991222941234F2
:102DC30099E52CB401117D66122E4B7D22122E4BF8
:102DD3007D30122E61801A7D77122E567D33122E8E
:102DE300567DC0122E617402252BF52BE4352AF58E
:102DF3002A7FC17E05123757EE54F070F4903DF6EA
:102E0300122238122301E4FBFA123499C201AF2BC8
:102E1300AE2A123097903DF61222381223017BFF1F
:102E23007A07123499E52B2401FFE4352AFEC20107
:102E3300123097E4FBFA7D227F0C7E041234991240
:102E43002308FF7E01023499E4FBFA7FC07E05125A
:102E5300349922E4FBFA7FC07E05123499227CFF69
:102E63007FC27E0512390322F582E43542F58312CF
:102E7300071875F002E545A4F58285F08302065232
:102E8300AC06AD07E53725E0FFE53633FE74002FCA
:102E9300F58274003EF58322123950AC06AD07E487
:102EA300120362A804A905AA06AB07227C4FAB490B
:102EB300AA48A947A8460202E4E56125E025E022E5
:102EC300AB45AA44A943A8427C4E120247E4FBFA4D
:102ED30022AF50AE4FAD4EAC4D020247E4FFFE7D34
:102EE3008012004D02039B2401FDE43EFCE4020337
:102EF30062E412035DE4FBFA798078492212013E11
:102F030002039B85438285428322E50025E0FFE59A
:102F13000022AF1CAE1BAD1AAC1902024778101287
:102F230006D2AB07AA067D3022540FFFE4781002C5
:102F330006E57D207F0A7E0412371DE47E01A80783
:102F4300088005C333CE33CED8F9F5378E367DEC02
:102F53007F037E0412371D8F38E538C39406500F64
:102F63007402A807088002C333D8FCF538800375C0
:102F73003801C203123581E4FBFAF97840120247A3
:102F8300C004C005C006C007AC38E41203671222B0
:102F9300D3D007D006D005D004120247C004C00521
:102FA300C006C007AC36AD37E4120362D003D002CB
:102FB300D001D0001202478F3C8E3B8D3A8C39AF43
:102FC3001CAE1BAD1AAC19AB3CAA3BA93AA83912EB
:102FD300013E7940784112222512039BC374FF9F5F
:102FE300F51474FF9EF513227581D0E4F5A2759153
:102FF300FFF59075A10775A9FF75A880758901C2B2
:10300300A0D2A13006FDE50A120724303601303A7A
:1030130002303E033042043049053058063067071A
:10302300306E08307509307D11308612308FFF0005
:10303300003092C2008045C200804AC2008002D2A2
:10304300001236458049AF18AE17AD16AC151207FE
:103053004A8F90803AAF18AE17AD16AC15120F8693
:103063008F90802B1238888F9080241239378F905D
:10307300801D850B12E4F5908015D2001220EC8F91
:1030830090800CD200121CB78F908003759005C2FC
:10309300060230068E2D8F2E3001067E037FFF80C1
:1030A300047E007F3F8E398F3AAF2EAE2D1235133B
:1030B3008E368F378E348F351236A18E308F318E08
:1030C300328F33E5372401FFE4353612378BAC06F4
:1030D300AD0712312FC3EF9531EE95307FFF5002CC
:1030E3007F018F38752F08AF38EF3395E0FEE53752
:1030F3002FFFE5363E12378B8E368F37AD37AC3622
:1031030012312F8E308F31C3E5319533E53095324F
:10311300500C853032853133853634853735D52F9C
:10312300C6AD35AC34AF2EAE2D023418AF2EAE2D56
:103133001234181236A1227DA37F897E0012371D17
:10314300EF122EEAC004C005C006C007E4FBFAF97B
:103153007840122F15D003D002D001D000120247BD
:103163008F588E578D568C557DD07F887E001237B1
:103173001D8E598F5A7DF07F877E0012371DE4FC28
:10318300FDC004C005C006C007FEE55A122F2CD0AF
:1031930003D002D001D0001206B7122EF412024758
:1031A300C004C005C006C007E559C4F854F0C86898
:1031B300FEE55AC4540F48122EEAD003D002D001C0
:1031C300D00012004DAB58AA57A956A85512013E7C
:1031D3002233DA929E35B16011377FE5FE392184BF
:1031E300893AAEC3FF3C1D955B3D6358473E75FD71
:1031F300F03F3172183F800000C2D502041102046F
:1032030007BD80FA50F302040EED33EC330460F192
:103213007B3B7AAA79B8783F12013EED33EC3392C7
:10322300D5247B5011A2D570DB500BED44802404D0
:103233005004A2D580CEEFFBEEFAEDF9ECF81203C1
:103243009BEFF582F404FC12036712004DC08290D9
:1032530031D47409120456ED33CC33D0F092D52512
:10326300F0A2D57001C313CC13FD228E428F438F7E
:10327300828E83740993F544E544604614F5451240
:103283002F06122E72FFAEF0C006C007122E75FF76
:10329300AEF0123757E5432406122E6BF4FDE5F02A
:1032A300F45EFEEF5DFF122F06A3A3A3122E72FDA1
:1032B300EE45F0FCEF4DFDD007D00612390315445F
:1032C30080B6122F06741093F544E544603114F56B
:1032D30045E543240A122E6BFFAEF0122F0674113C
:1032E30093FDE544D39D40067C007D00800AE543C1
:1032F300240D122E6BFDACF0123903154480CB2242
:10330300787FE4F6D8FD75816802334A022FEBE437
:1033130093A3F8E493A34003F68001F208DFF4805B
:1033230029E493A3F85407240CC8C333C4540F44AB
:1033330020C8834004F456800146F6DFE4800B0185
:1033430002040810204080903817E47E019360BC8B
:10335300A3FF543F30E509541FFEE493A360010E1D
:10336300CF54C025E060A840B8E493A3FAE493A344
:10337300F8E493A3C8C582C8CAC583CAF0A3C8C565
:1033830082C8CAC583CADFE9DEE780BE12313A7B51
:10339300007AC8792F784C120247E4FBFAF9783F98
:1033A30012004D12039B7B0D7A007D027C001237C5
:1033B300998F31E53125E025E0F5327DBB7F867EAF
:1033C3000012371DEF64014E70127DCB7F89FE1210
:1033D300371D123950E5328FF084F53275333FE5EE
:1033E30033600FE532C395335008E533C313F53328
:1033F30080EDE533FB7A007D707F077E04123499FC
:10340300AC31E41203677B007AC8792F784C120140
:103413003E122774228E4B8F4C8C4D8D4EC3E54C40
:1034230094C7E54B940550067E037FFF80047E001E
:103433007F3F8E4F8F50E4F551F552C3E54D6480C5
:103443009480501AE5502401FFE4354FFEEF4252B9
:10345300EE4251E54E2550FFE54D354F800FE54EC9
:103463002550CFE54D354FCF2401CF3400FE12391F
:1034730062E54F5EFEE5505F4252EE4251AD52AC03
:1034830051AF4CAE4B123903E5514480FCAD52AF02
:103493004CAE4B0239038A638B64A9058F828E83FA
:1034A300123757AD07AC06E9C4540FFFE9540FFBBD
:1034B300C3EF9B04FF74FFFEA807088005C333CE48
:1034C30033CED8F9F4FFEEF4FEEFA803088005C36A
:1034D30033CE33CED8F9F5668E65E9540FFFE56434
:1034E300AE63A807088005C333CE33CED8F9FFE512
:1034F300655EFEE5665FFFE566F4FBE565F45CFC8F
:10350300EB5DFDEC4EFCED4FFDAF82AE8302390364
:103513008F828E83C3E58294C7E583940550067E2C
:10352300037FFF80047E007F3F8E3B8F3CAF82AEE4
:1035330083E4FDFC123903AF82AE837D007C40122D
:103543003903AF82AE831237578E3D8F3EAF82AEC3
:1035530083E53D543FFCAD3E123903E53D553BFE4B
:10356300E53E553CFFE53C2401FDE4353B553DFC80
:10357300E53E5D4C60077CFF7DFF12058A22123118
:103583003A8F508E4F8D4E8C4D7DCB7F897E0012AE
:10359300371D122E9B122ED48F548E538D528C5165
:1035A3007DBB7F867E0012371DEF4E7017300309F7
:1035B300AF54AE53AD52AC5122E4FBFA798078405C
:1035C300122ED42230030AAF50AE4FAD4EAC4D8015
:1035D30012E4FBFA79807840AF54AE53AD52AC514C
:1035E30012024722E54675F002A4FFAEF07C0430D8
:1035F30002027C027D42EF2DF548EE3CF547A20224
:103603009203123581122EA6AF45AE44AD43AC42B0
:10361300122ECD7980784F122F008F4C8E4B8D4A0E
:103623008C4978101206D2AD07AC06AF48AE4712EC
:103633003903E5482401FFE43547FEAC4BAD4C02AA
:103643003903E50CAD0DFCE4120362E4FBFA797A6D
:103653007844120247C004C005C006C007AC0BE49F
:10366300120367D003D002D001D00012004D7B00BB
:103673007A247974784912013E8F248E238D228C0B
:103683002130000A8F1C8E1B8D1A8C19800C852407
:1036930018852317852216852115E4F59022C28CFF
:1036A300E513F58CE514F58AC28DD28C308DFD7D42
:1036B300FF7F007E0412391E7F0F7E04123757EFFF
:1036C3007802C333CE33CED8F9F5828E837F0E7E54
:1036D30004123757EF5403FFE583FEE5824FFF22C1
:1036E3007907E925E024BDF582E4343DF583E493CD
:1036F300FE740193FFE925E024CBF582E4343DF524
:1037030083E493FC740193FD123903D9D57BFF7ACB
:10371300B97DF87F207E01023499A905123757AC91
:1037230006AD07E9C4540F04FF74FFFEA807088021
:1037330005C333CE33CED8F9F4FFEEF45CFEED5F70
:10374300FFE9540FFDEFA805088005CEC313CE1380
:10375300D8F9FF22E4FBFAC2A0C2A1EE547FFE1205
:1037630038C8D2A27D10D2A01238A9EB25E0FBEA1B
:1037730033FA30A303430301C2A01238A9DDE7D211
:10378300A1D2A2AE02AF0322FEC3E4953AFDE495B3
:1037930039FCAB3AAA39C3EF9DEC6480F8EE648040
:1037A300985005AE04AF0522D3EF9BEA6480F8EE90
:1037B3006480984005AE02AF032222C0E0C0D075FA
:1037C300D000C000C006C0077590FF7F02740A2FA7
:1037D300F8E6FE740B2FF8A606DFF285800B7590D2
:1037E30000D007D006D000D0D0D0E0327DFF7C7F60
:1037F3007F0C7E021239037D557F007E0212391E33
:103803007D007C807F0C7E021239037D667F007E03
:103813000202391E04154A98968002130001011210
:1038230000021DFF0004194BEA6000C106020E00EE
:103833002D0208020C0210040BC10700C3EF9DEC1C
:103843006480F8EE6480985005AE04AF0522D3EF90
:103853009BEA6480F8EE6480984005AE02AF0322D1
:1038630022C28CE51DF58CE51EF58AC28DD28C3003
:103873008DFD3005067E017F2380047E007F8C7DD5
:10388300DC12371D2212396E1237578F828E83AFA7
:1038930009AE08123757AD07AC06AF82AE831239B3
:1038A30003C2077F002275670075681F300715D3B1
:1038B300E5689400E5679400400AE568156870EFD1
:1038C300156780EB227D10C2A01238A9EE3392A2B5
:1038D3001238A9EF25E0FFEE33FED2A01238A9DD9E
:1038E300E6C2A0227DDC7F237E0112371DEF640236
:1038F3004E7002D322D2041215E8EFC37001D32213
:10390300AB05AA04C2A0C2A1EE4480FE1238C8AF20
:1039130003AE021238C8D2A1D2A2228E578F588D7D
:1039230059E4FBFA1234997B017A00AD59AF58AED2
:103933005702349912396E123757123757AD07AC05
:1039430006AF11AE10123903C2077F002274017E45
:1039530000A807088005C333CE33CED8F9FF22EE83
:1039630030E707C3E49FFFE49EFE227590FFD20772
:10397300AF0FAE0E227590FF85800AD20632000883
:1039830000040000FFFAFFF5FFF0FFECFFEAFFEA97
:10399300FFECFFF2FFFB000600140022002E0038AC
:1039A300003D003A0030001D0003FFE3FFC1FFA00C
:1039B300FF85FF74FF72FF80FFA2FFD40014005D38
:1039C30000A700E80118012E012300F4009F00293D
:1039D300FF9AFEFEFE67FDE5FD8CFD6EFD9AFE1A65
:1039E300FEF30022019D03540530071608E80A89F7
:1039F3000BDE0CCD0D4903FF008000080084008519
:103A030000AE0101011302000201020202080400D8
:103A13000001F0000001001C000C07FF07FF00007D
:103A2300F8FF0007F0001801003C000C07FF07FF38
:103A3300F10B010C011201150116011701180119EF
:103A4300011A040004010402040304040405040627
:103A5300040704080409040A040C04400442044350
:103A630088E5403200058180280C218C31802E02AC
:103A7300008107FF07FF400000000000000007006F
:103A83000000000010012098002000000000FF3912
:103A9300FFFF3A11FF3A2309FF3A35FF3A6317173D
:103AA3000084008500AE010C010D011301150119FD
:103AB30004000001F00000000040000C00000000C2
:103AC300F8FF0007F000001A0040003CC00080002F
:103AD30001000101010201030104010501060107BF
:103AE30001080109010A0200020102020208024060
:103AF30004000401040204030407040A040C044040
:103B030005C005CB020302040205020602070241B7
:103B130004040405040604080409044105C105C29C
:103B230005C305C405C505C605C705C805C905CA36
:103B330005CC3408600131800A1200880007318CFB
:103B4300318C042661C1104C008D07FF07FF2070E4
:103B53000020008107FF07FF4000070010002098A6
:103B6300002000FF2020FF3AA3FF3AB3FF3AC30827
:103B7300FF3AD3FF3B35311A700049AAE6004CF7F0
:103B8300F4904A9896804C1896804C3EBC204CF793
:103B9300F4900085010D011301140084008B0001D2
:103BA3000100000400100400210000070188003C0C
:103BB300001FF83FC1FF008200860087008800894C
:103BC300008A008C010001010102010301040105C7
:103BD3000106010701080109010A010C011501167B
:103BE300011701180119011A02000201020202035E
:103BF3000204020502060207020802090240040049
:103C0300040104020403040404050406040704086D
:103C13000409040A040C04408003490104000780DA
:103C230000200514067B34096001318006120088E8
:103C33000007318C318C042661C1104C88C5000902
:103C43008180280C018C528B2E02008D07FF07FF09
:103C530000000000000000000000207000000020B1
:103C6300008107FF07FF4000000000000000000084
:103C730000000000100120380020FF3B95FF3BA10E
:103C8300FF3BAD06FF3BB9FF3C1B31310082008592
:103C93000100010C010D0084008B80010001000074
:103CA3000000001E040021001FFF000700010001A7
:103CB300001EF83FC1FF0086008700880089008A44
:103CC300008C01050106010701080109010A01151C
:103CD3000116011701180119011A0200020102025B
:103CE300020302040205020602070208024002411F
:103CF3000400040104020403040404050406040785
:103D030004080409040A040C0440044149010400A2
:103D1300078000200514067B3007318C318C058C1D
:103D230061C1104C000D8180280C618C528C2E02D5
:103D3300008D07FF07FF00000000000000000000E7
:103D4300007000200000008107FF07FF4000000013
:103D530000000000000000000000100120380020D7
:103D63000000FF3C8FFF3C9DFF3CAB07FF3CB9FFCE
:103D73003D0F2B2B0021002F008200820084008442
:103D8300008500850086008C009200A700A800A88B
:103D930000AD00AE010001040105010A010C01148C
:103DA3000115011A0200020C024002610400040F13
:103DB30004400461050005A705C005C0011C011DE1
:103DC300011E011F012101220123AD4304000780CD
:103DD30036403404033F067B010ED7010E60020414
:103DE300F80204700203B00403B00202A00201A0AF
:063DF3000402A00401A07F
:00000001FF
