:1000000002315EE4F912251BE9120022B93CF6E93F
:10001000C39478500C12251BC37477991200228068
:10002000EE2225E024BCF582E4343CF583E493FC25
:09003000740193FD123A4A092201
:03003B0002385236
:10004300023A9A020407E86480F8E933E83360115E
:100053000460F0ED33EC337009E8FCE9FDEAFEEBF4
:10006300FF220460DED3EB9FEA9EE99DE8C2E78CA2
:10007300F0C2F795F0400CE8CCF8E9CDF9EACEFAF6
:10008300EBCFFB1203D285D0F05804700320D5B315
:10009300E80470075002B2D502041192D5EC046053
:1000A300F7E4CCC0E0C398F8603B94186008400DB7
:1000B300D0E0FB0203E9E4FBFAC9FC8028E830E462
:1000C30006E4C9FBE4CAFCE830E305E4C9CACBFC97
:1000D300E854076010F8C3E913F9EA13FAEB13FBCA
:1000E300EC13FCD8F130F52FC3E49CFCEF9BFFEE3F
:1000F3009AFEED99FDD0E0FBEF4E4D4C701222DBE2
:100103000302040EEC2CFCEF33FFEE33FEED33FD64
:10011300ED30E7EB0203E9EF2BFFEE3AFEED39FD9D
:10012300D0E0FB50130BBB0003020411ED13FDEEF3
:1001330013FEEF13FFEC13FC0203E9EC4D6011E82F
:10014300497017ED33EC3304600DE4FCFFFEFD2230
:10015300E933E8330470F80204071203D258046049
:1001630009E4CC24815006285009020411284003D5
:1001730002040EC0E0EB4A7044B98006D0E0FB02F3
:1001830003FDEF4E701CBD8008EBFFEAFEE9FD8026
:10019300EBE98DF0A4FEE5F0020227E9CDF9EAFED2
:1001A300EBFFEF89F0A4FCE5F0CE89F0A42EFFE489
:1001B30035F0CD89F0A42DFEE435F08067EF4E7065
:1001C30005BD80D780C3EF8BF0A4ACF0EE8BF0A419
:1001D3002CFCE435F0F8EF8AF0A42CE5F038FCE4CD
:1001E30033CB8DF0A42CFCE5F03BF8EE8AF0A42C85
:1001F300FCE5F038F8E433CF89F0A42CFCE5F038C3
:10020300CF3400CE89F0A42FFFE5F03EFEE433C9DE
:100213008DF0A42EFEE5F039CD8AF0A42FFFE5F092
:100223003EFEE43DFD33D0E0FB50070BBB000F0265
:100233000411EC2CFCEF33FFEE33FEED33FD020330
:10024300E9020411EC5D046005E85904700302043B
:10025300071203D2580460F6EC4860F2EC7004FD18
:10026300FEFF22C860DB2481C85009C39860025096
:100273000602040E9850CAF582E9294B4A7005AB71
:10028300820203FD75F0007C1A7880C3EF9BEE9A1F
:10029300ED99400DC3EF9BFFEE9AFEED99FDE84209
:1002A300F0DC23ACF0D0E0FFD0E0FED0E0FDAB8289
:1002B30020E7101BEB60BAEC2CFCEF33FFEE33FEB0
:1002C300ED33FD0203E9E803F830E705C0F075F00C
:1002D30000EF2FFFEE33FEED33FD40B830E7C28071
:1002E300AA74F8CC6480CCC86480C8F58204604FDB
:1002F300C3EB9FF5F0EA9E42F0E99D42F0E89C458E
:10030300F0603C501DE5825FFFE582D313CB5BCBEE
:10031300F42B5582FB50280ABA002409B90020089F
:10032300801DE5825BFBE582D313CF5FCFF4C3135C
:100333002F5582FF50090EBE00050DBD00010CC3F1
:10034300EB9FF5F0EA9E42F0E99D42F0E89C45F010
:100353006007CC4820E701B3EC2275F020800E75CE
:10036300F010800575F0087D007E007F003392D584
:1003730030D5031205CEEC334010EF33FFEE33FEDE
:10038300ED33FDEC33FCD5F0ED22E5F0247EA2D570
:1003930013CC92E7CDCEFF22EDD2E7CD33EC3392EF
:1003A300D524814006E4FFFEFDFC22FCE4CFCECD44
:1003B300CC24E0501174FF80EDC3CC13CCCD13CD0E
:1003C300CE13CECF13CF0470F030D5DE0205CEE9C5
:1003D300D2E7C933E833F892D5EDD2E7CD33EC3326
:1003E300FC5002B2D522EC30E7100FBF000C0EBE5A
:1003F30000080DBD00040BEB6014A2D5EB13FCED5C
:1004030092E7FD2274FFFCFDFEFF22E480F8A2D5F3
:1004130074FF13FC7D80E480EFED33EC3360100454
:10042300700FED547F7005740292E022740422046D
:1004330022E422ED33EC33600A047003BD8004EC44
:10044300B2E7FC22C0E0EFFBEEFAEDF9ECF81201A3
:100453003ED0E0F5F0EFFBEEFAEDF9ECF812061FF3
:10046300A3A3A3A3E8C0E0E9C0E0EAC0E0EBC0E0D7
:10047300C0F012013E12062FA3A3A3A312004DD076
:10048300F0D0E0FBD0E0FAD0E0F9D0E0F8D5F0D43A
:1004930022EF8DF0A4A8F0CF8CF0A428CE8DF0A489
:1004A3002EFE22BC000BBE0029EF8DF084FFADF0C1
:1004B30022E4CCF875F008EF2FFFEE33FEEC33FCAB
:1004C300EE9DEC984005FCEE9DFE0FD5F0E9E4CEE1
:1004D300FD22EDF8F5F0EE8420D21CFEADF075F0B0
:1004E30008EF2FFFED33FD4007985006D5F0F222B9
:1004F300C398FD0FD5F0EA22C2D5EC30E709B2D597
:10050300E4C39DFDE49CFCEE30E715B2D5E4C39F44
:10051300FFE49EFE1204A6C3E49DFDE49CFC80035D
:100523001204A630D507C3E49FFFE49EFE22BB015D
:100533000A89828A83E0F5F0A3E022500687F00956
:10054300E71922BBFE07E3F5F009E3192289828A42
:1005530083E493F5F074019322BB0110E58229F53E
:1005630082E5833AF583E0F5F0A3E0225009E9251B
:1005730082F886F008E622BBFE0AE92582F8E2F556
:10058300F008E222E5832AF583E993F5F0A3E993E2
:1005930022F8BB0111E58229F582E5833AF583E868
:1005A300F0E5F0A3F0225009E92582C8F608A6F089
:1005B30022BBFE09E92582C8F2E5F008F222EF4BDF
:1005C300FFEE4AFEED49FDEC48FC22C3E49FFFE445
:1005D3009EFEE49DFDE49CFC22EB9FF5F0EA9E4227
:1005E300F0E99D42F0E89C45F022E8600FECC3136C
:1005F300FCED13FDEE13FEEF13FFD8F122E8600FBD
:10060300EFC333FFEE33FEED33FDEC33FCD8F122C1
:10061300E0FCA3E0FDA3E0FEA3E0FF22E493FC746F
:100623000193FD740293FE740393FF22E493F87421
:100633000193F9740293FA740393FB22ECF0A3ED94
:10064300F0A3EEF0A3EFF022E493FB740193FA74AA
:100653000293F922D083D082F8E493701274019349
:10066300700DA3A393F8740193F5828883E47374E4
:1006730002936860EFA3A3A380DF8F258E248D23CD
:100683008C227F207E001239018E308F31752B0B27
:10069300752C0B752D1F752E1FC209C20112344C08
:1006A3007DFF7F817E001237E5EF4E7040F52F12FC
:1006B30009D67DFA7F087E011237E57DFA1209F229
:1006C3007D957F257E011237E57D951209F27D40E8
:1006D3007F257E011237E5AA06AB077D407F257E85
:1006E300011232F4052FE52FC3940240C27B017A35
:1006F300007DFF7F817E001232F4E4F52F1209D6CC
:100703007B1F7D95120A157B047D40120A15123654
:100713009B75F004A4FDACF012369475F040A4FF71
:10072300E5F04CFEEF4D120A1FC201C2021218057A
:100733008F2A7D007C107F0A7E04123A4A7D66125E
:1007430009FE7D777F0C7E041237E5EF4E70117B37
:1007530001FA7DFE7F0C7E041232F47DCC1209FE79
:100763007F007E04123901EE540FFEE52F25E024AD
:1007730026F8A60608A607052FE52FC39402500303
:10078300020700122D88300A030209BEE4F52FE5A3
:100793002FC3940250F0C200E52F2401FFE433FE7F
:1007A300E53154FCFDEE4530FCEF4D7F207E001219
:1007B3000A09E6FC08E67F007E04120A09E6FE0841
:1007C300E6FFEE4480FCAD077F007E04123A4A7FC9
:1007D3000F7E04123901E48F3A8E39F538F5377FED
:1007E3000E7E041239017E00EF5403FFE4FCFDC0CA
:1007F30004C005C006C0071236CF7802120600D027
:1008030003D002D001D0001205C18F3A8E398D3842
:100813008C371236A2120613AB3AAA39A938A83775
:10082300C31205DC70030209B9E4FFFEFDFCA8371F
:10083300C31205DC70030209B91236CF1236A212B5
:10084300063F12369BFFD39409500CC3740B9F755C
:10085300F003A4F5368008E6FFC3740F9FF536AFA7
:1008630025AE24AD23AC22E412035DC004C005C051
:1008730006C0071236CFE412035DA804A905AA0631
:10088300AB07D007D006D005D004120247121C3E96
:10089300E4FBFA79A0784112013E8F358E348D3313
:1008A3008C3212368450447F007E407D017C00AB45
:1008B3003AAA39A938A8371205DC402F12369424F6
:1008C300F4FFE434FFFE7B1F7A00E4FDFC12382DB5
:1008D300742D252FF8A60712369B24FDFFE434FF61
:1008E300FE7B0F12382D742B02097B1236844019BC
:1008F30012368460025003020982123694FFE536F1
:10090300241FC39FD394004076123694FFC3741EF2
:1009130095362FF53BFC120367AB35AA34A933A8F0
:100923003212004D12039B7B3D7A00E4FDFC12382A
:100933002DEF25E0FFEE33FE74C62FF582743E3EA5
:10094300F583E493F53C740193F53D540FF9F53EBB
:10095300E53CC4F854F0C8E53DC4540F48541FFFA8
:10096300F53F123694B53F0712369B653E6010740F
:100973002B252FF8A601742D252FF8A607D20030BA
:100983000034123694FF1239B2EF753C003333331F
:1009930054F8F53B12369475F040A4FFE53B45F05F
:1009A300FCE53C4FFD12369B75F004A4FFEC45F0CB
:1009B300FEED4F120A1F052F020792D20112344C8B
:1009C300AD31AC307F207E00123A4A123720D20973
:1009D300AF2A22E52F2401FFE433FEE53154FCFD69
:1009E300EE4530FCEF4DFD7F207E00123A4A22AAED
:1009F30006AB077F257E011232F422E4FBFA7F0C5B
:100A03007E041232F422FD123A4AE52F25E0242611
:100A1300F8227A007F0F7E011232F422AC064402E0
:100A2300FD7F267E01123A4A228F258E248D238C48
:100A330022E4F528121AAC1237E5EF64014E702256
:100A4300FF7E247D747C4AAB25AA24A923A8221205
:100A530002E4500E752C00752B24752AF475294970
:100A63008016121A6EAF25AE24AD23AC22120247B4
:100A73008F2C8E2B8D2A8C29C203122090AF2CAE83
:100A83002BAD2AAC29120DBE8F28E5286003020C7A
:100A9300EF122D887E3B7FBE7D007C2712336E7E56
:100AA3003B7FB97D007C2712336E8E268F277FFA1A
:100AB3007EED7DEB7CBA121A07121A171219CB7945
:100AC300A078411202478F4E8E4D8D4C8C4B7F0088
:100AD3007E007D207C41121F79C004C005C006C082
:100AE30007AC26AD27E4120362121A96D003D00294
:100AF300D001D00012013E12039B8E268F277F6008
:100B03007EFE7D4D7C4C121A071202E46005400301
:100B1300020C8AC2047F667E667DA61219717FE28B
:100B23007EB87D007C4E1200498F538E528D518CBE
:100B3300501215048F28E5286003020CEFC2047FCE
:100B4300667E667DA67C3F121A0712013E8F548E85
:100B5300538D528C51E4F55512351B7F407E547DE5
:100B6300897C4B121A071202E45011752D01752E60
:100B7300177531A0753202752F08800F752D017519
:100B83002E16753170753201752F017530007DFB9E
:100B93007F167E011237E58F33852F3D85303EADBD
:100BA30031AF2EAE2D120DB4EF6036B48104AF32E7
:100BB3008005E532F404FFEF2533F533C3648094F5
:100BC30080401EE5336480F8741F6480984012E50A
:100BD30033FB3395E0FA7DFB7F167E011232F480FE
:100BE300B8E5286003020CEF120D676003020CEFF7
:100BF300120D8C121AAC1237E58F35E5356403609C
:100C030005E535B4021212196B7F887E457DC87CD9
:100C13004E1219CB79208015E535B4011B12196BDF
:100C23007FBB7EEE7DA07C4F1219CB797078C11209
:100C330019AE8E338F348006752809020CEF7BFFC3
:100C43007A0FE4FDFCAF34AE3312382D8E338F347C
:100C5300AB34AA337DB0120DA18F36E535B4010252
:100C63000536AF367E001219E812382DAA06AB07F7
:100C73007DFC120DA11219E012382DAA06AB071242
:100C83001AB31232F48008120D677060120D8C755E
:100C93003D10753E007DB07F127E01120DB4E52834
:100CA300704A7F127E011239018E2D8F2E7F177E9F
:100CB300011239018E2F8F307F1A7E011239018E76
:100CC300318F327F167E01123901EE5407F5338FCF
:100CD30034121A771237E58F357DFD7F187E0112A6
:100CE30037E58F36121AB31237E58F37D203122046
:100CF30090E5286002FF22AD2EAC2D7F127E0112FB
:100D03003A4AAD30AC2F7F177E01123A4AAD32AC6E
:100D1300317F1A7E01123A4AE5334480FCAD347FB9
:100D2300167E01123A4AE536C43354E04401FC749A
:100D33008CFD7F187E01123A4AE53775F020A4AC8A
:100D4300F04410FD7F147E01123A4A7B947A027DAF
:100D5300E57F197E011232F4E535FB121A75123262
:100D6300F47F0022C204AB2CAA2BA92AA8297FE274
:100D73007EB87D007C4E1200498F538E528D518C6C
:100D8300501215048F28E52822C204852C54852B84
:100D930053852A52852951E4F55512351B227F12BA
:100DA3007E011232F4AE33AF347C007D641204A6AC
:100DB30022AB27AA26122BF78F28228F3B8E3A8D40
:100DC300398C387F207E001239018E3C8F3D121AF8
:100DD300AC1237E58F3E7D407F197E011237E58FD8
:100DE3003F903AA512198A12199E4010121A6E905A
:100DF3003AA912199012199E600540037F08227EBA
:100E03003B7FA71230C9E53EFB7D107F131210D53F
:100E1300E53FB41F047B168003E53FFB7D407F194C
:100E23001210D5AF3BAE3AAD39AC3812362EEF6067
:100E330001227B011210DDC2047553E27552B875AD
:100E4300510075504E121504EF6001227B021210FF
:100E5300DDD20475535675522175510375504E12E8
:100E63001504EF600122AD3DAC3C7F207E00123AB9
:100E73004A1238D9D2047554807553967552187531
:100E8300514BE4F55512351BC204E4F554F553F503
:100E930052F551F55512351B1219966002500D7D0E
:100EA300017C001210EC7B0F7A008078E53ED3942E
:100EB3000140197F887E457DC87C4E1219C3792075
:100EC30078C11219AE121A238F428024E53E6401C1
:100ED300701B7FBB7EEE7DA07C4F1219C3797078A7
:100EE300C11219AE121A23EF04F54280037F0922BF
:100EF300AF42EF3395E01219E712382DEFF5837BFC
:100F0300FF7A0FAF41AE4012382DEE4583FCEFFD63
:100F13001210ECAE40AF41121A271219E012382D0D
:100F2300AA06AB07121AB31232F4E53F75F00A842E
:100F3300FCE41203678F4E8E4D8D4C8C4B7F667E87
:100F4300667D267C3F121F79E4FBFA79D77843123A
:100F5300013E7B337AB379DC78C212004D7B9A7AF7
:100F63009979A378411219CB798078411219AE8F00
:100F730040AF3F1239B2EFFDAF40EF25E0FC7F1ADF
:100F83007E01123A4A7F407E547D897C4B12199E22
:100F930040030210227B021210C9E4FBFA12109CD8
:100FA3007FFC7EBE7D007C4F12024779CE1219A9C9
:100FB3007BFF7A07E4FDFC12382D8E448F4575467E
:100FC300057FC07EE17D647C4B1219B850037546E2
:100FD300047D187C4B1219B450037546037D987C2D
:100FE3004A1219B450037546027F007E1B7D377C7D
:100FF3004A1219B850037546017F007EE67DAA7C2C
:10100300491219B85003E4F546E54633333354F82F
:101013004544FCE545FD7F177E01123A4A80711273
:101023001996600250557B011210C97B017A001298
:10103300109C7F5E7ED07DB27C4F120247794812AE
:1010430019A91219FF12382D8F447B807A967918CB
:10105300784BAF43AE42AD41AC401219CB794078E7
:10106300C01219AE7B077A00E4FDFC12382D8F45C0
:10107300EFFAE544FB7DA07F1680107B03121A75FF
:101083001232F47B027A007DFD7F187E011232F466
:101093001237671239917F00227DFD7F187E01127E
:1010A30032F47F667E667DA67C3FAB3BAA3AA939C4
:1010B300A83812013E8F438E428D418C40AB43AA28
:1010C30042A941A840227A007D327F157E01123267
:1010D300F4227A007E011232F4227A007D107F20FE
:1010E3007E001232F41237AB227F127E01123A4A8B
:1010F300228F328E318D308C2F7F207E001239016A
:101103008E338F347E3C7F9B1230C9121A4F1236B6
:10111300D8121987121A581202E46005400302110B
:10112300B87FCD7ECC7D4C7C3F121A58121A171211
:1011330012F17BCE7A4079E878B812013EC004C040
:1011430005C006C0071212C17B957AB779157825B9
:1011530012013ED003D002D001D00012004DC004D2
:10116300C005C006C00712130B7B757AEC7935787E
:101173003B12013ED003D002D001D00012004DC07B
:1011830004C005C006C0077FB47E4E7DA87C411213
:101193001AA1D003D002D001D00012004D7B157AE2
:1011A300A379411219AC1219FB12382DAA06AB0709
:1011B3007D70021241121A1A121A4F1212F17B3465
:1011C3007A0A795D78B912013EC004C005C006C031
:1011D300071212C17B667A277994783512013ED0C3
:1011E30003D002D001D00012004DC004C005C006D8
:1011F300C00712130B7BAC7A0D799C783C12013E2D
:10120300D003D002D001D00012004DC004C005C0ED
:1012130006C0077F437E727DB77C3F121AA1D003BD
:10122300D002D001D00012004D7BC37AC7793E12A1
:1012330019AC1219FB12382DAA06AB077DF87F09EA
:101243007E011232F4121A4F12362EEF6001227B06
:10125300011212D87B021212D8AD34AC337F207E38
:1012630000123A4A1238D9D20475540075532475C2
:101273005274121321D2048532548531538530526E
:10128300852F5175550112351BC2047554007553D2
:10129300BA75525B121321C2047F007E507DC37C5A
:1012A300C7121A5812004D8F548E538D528C51759C
:1012B300550112351B1237671239917F0022E4F56D
:1012C3004EF54D754C80754B40AF38AE37AD36ACEF
:1012D30035121F79227A007D107F207E001232F4AE
:1012E3007B017A007D117F1C7E011232F4221202EF
:1012F300478F388E378D368C35E4F54EF54D754C6A
:1013030040754B40121F7922E4F54EF54DF54C75AF
:101313004B40AF38AE37AD36AC35121F792275511D
:1013230049E4F55512351B22E4F56AF56BF56E7544
:101333006F80F56C756D80F5707571FF30061375F0
:1013430067017568217569A3FBFA7D217F1C7E0106
:10135300801175670075688B756981E4FBFA7D21DF
:101363007F86FE1232F47F187EB77DD17C37AB1CAB
:10137300AA1BA91AA819122EA0C374FF9FF51E74E5
:10138300FF9EF51DE4FBFA1214F3BF03037F012252
:101393007BFF1214C8EF70037F0122E4F57212146D
:1013A300DB757340E5736041122E77246AF8C00041
:1013B300E6FE08E6FFEF4573D000A60608F6121412
:1013C300DBA2069207123927BF0316122E77246A6F
:1013D300F8C000E6FE08E6FFEF6573D000A6060836
:1013E300F6E573C313F57380BB122E77246AF8E610
:1013F300FE08E6FF122E77246CF8A60608A607124D
:101403002E77246CF8E6FA08E6FB4A60261214F3FA
:10141300EF6402600F122E77246CF80806E618704A
:101423001206800F122E77246CF808E6161870CF78
:101433001680CC0572E572C3940250030213A1E532
:101443007124FFFFE57034FFFEEFB56B14EEB56A50
:1014530010C3E56F956DFFE56E956CA2E713EF8002
:1014630034C3E56B956DFDE56A956CFCC3E56F953B
:1014730071FFE56E9570FED3EF9DEC6480F8EE642A
:101483008098400CEEA2E713EF132571F572800AE2
:10149300ECA2E713ED13256DF572E572FB1214C888
:1014A300EF640260100572E572FB7A00AD69AF6804
:1014B300AE671232F4A2069207123927BF02037FE6
:1014C30000227F01227A00AD69AF68AE671232F461
:1014D300A206920712392722E57225E025E0246A45
:1014E300F8E6FA08E6FBAD69AF68AE671232F4229C
:1014F300AD69AF68AE671232F4A2069207123927BC
:10150300227F207E001239018E548F557A003004D9
:10151300047B0280027B017D107F207E001232F467
:10152300756207AF62123A38AC06AD07E412036284
:10153300AB53AA52A951A85012013E8F598E588D10
:10154300578C567F667E7F7D62122E6A400D7F2602
:101553007EE57DE5122E6A60054003D562C5E5622E
:1015630024FFFBE434FFFA7D867F1F7E011232F4F1
:101573007FAC7EE97DA3122E6A7F00600440027F68
:10158300018F62EFFB7A007DAA7F1C7E011232F489
:10159300E5622401FDE433FCE4120362AB1CAA1BE5
:1015A300A91AA81912013E122E61AF59AE58AD57B0
:1015B300AC561202478F618E608D5F8C5E12039B67
:1015C300E412035D122E61AF61AE60AD5FAC5E12DB
:1015D30000497849122E9B8F5D8E5C8D5B8C5A7C03
:1015E300C0AB61AA60A95FA85E122E897F1E7E012F
:1015F3001232F4AF5DAE5CAD5BAC5A122ED97F1ED6
:101603007E011232F4E55DFFE55CFEAD07AC067FBB
:101613001D7E01123A4AC2057559FFE4F556E55697
:1016230012168DD20612132BEF702A7DA37F217E13
:10163300011237E58F5AEF2480FFE434FFFE123A9C
:101643008E8F5BE55BC395595009855B598556576A
:10165300855A58D2050556E556C3940340C0E5574D
:1016630012168DE558FB7A007DA37F217E0112328D
:10167300F4AD55AC547F207E00123A4A2005087F12
:10168300033004027F04227F0022FB7A007D217F46
:10169300217E011232F4227F207E001239018E2B2B
:1016A3008F2CE52C540364017006FBFA7D448005FE
:1016B300E4FBFA7D337F82FE1232F47E3D7FCE124D
:1016C30030C91200031231EAA907E96001227B0144
:1016D3001224FA1232F41237ABD20412288AC0044D
:1016E300C005C006C0071224CF12253FD007D0067D
:1016F300D005D0041200497B007A24797478C9128A
:10170300004D8F308E2F8D2E8C2DC20412256A1220
:101713001504A907E960061217EFAF012212376714
:101723001224F81232F47A001225871232F4123995
:10173300CF40061217EF7F0422AD2CAC2B7F207E07
:1017430000123A4A1238D9D2041224CF1224EC12CE
:10175300351B1225921237E58F2D300154E4FBFA25
:101763007D777F0C7E011232F4E52D64016006E57E
:101773002D64027039E5125403F52EFB7A0012171B
:10178300FBE52E24FFFFE434FFFEEFF4FBEEF4FA57
:101793007D217F0D7E011232F4E52D147F0070024E
:1017A3007F01E5121313543F6F602E7F07227F07DB
:1017B30022E52D64016009E52D640260037F0722A1
:1017C300E52D2401FBE433FA1217FB7D657F0C1230
:1017D30017E27D437F0D1217E21239917F0022E554
:1017E3002D6403FB7A007E011232F422AD2CAC2B64
:1017F3007F207E00123A4A227D877F0D7E011232BE
:10180300F4227F207E001239018E418F42C20312DF
:101813002090A2019203121AC88F40E54060030290
:1018230018B8122D88122CC83002030218B82001F0
:10183300261225C31237E5BF020C7D55121949E460
:10184300FBFA7D33800A7D66121949E4FBFA7D4475
:101853007F0D7E011232F41224F81232F41225891C
:101863001237E5EF4E701BFA1225871232F47B0113
:101873001224FA1232F4E4FBFA7D117F1C7E01126A
:1018830032F412195FAF18AE17AD16AC15A2019260
:101893000312296D8F40E540701B7DDD1219541230
:1018A30025031232F41224CD78471224E312351B98
:1018B300C2031226C17DA07F027E041237E58E4348
:1018C3008F447DA07F017E041237E58E458F467DD0
:1018D300B07F037E041237E58E478F48D203122070
:1018E3009012195FE5406002FF22200227AB44AA51
:1018F300437DA07F027E041232F4AB46AA457DA04D
:101903007F017E041232F4AB48AA477DB07F037E89
:10191300041232F41225341232F4E54230E007E4C3
:10192300FBFA7D668005E4FBFA7D777FC07E0512B6
:1019330032F47D20121954E4FBFA7D887F0C7E0477
:101943001232F47F0022E4FBFA7F0C7E011232F4A0
:1019530022E4FBFA7F0C7E041232F422AD42AC4146
:101963007F207E00123A4A227FEC7E517D387C3FF5
:10197300AB2CAA2BA92AA82912013EA804A905AABF
:1019830006AB0722903AB1E4FBFAF9784012061F3E
:101993000202477F607EFE7D4D7C4CAB3BAA3AA999
:1019A30039A8380202E4E4FBFA78C212004D0203BC
:1019B3009B7F807E96AB43AA42A941A8400202E4E2
:1019C300AB3BAA3AA939A838120247E4FBFA221220
:1019D300061FAB25AA24A923A8220202E4C3740F7D
:1019E3009FFFE49EFE7B0F7A00E4FDFC22AE3BAF3B
:1019F3003CE4FCFDC30205DC8E398F3A7BFF7A00A1
:101A0300E4FDFC22AB2CAA2BA92AA829227DC87F9E
:101A13000A7E012212013E7B007A247974784922DE
:101A23008E408F417C007D640204FBE4FBFA7D4120
:101A33007F4022C3E5409544F540E53F9543F53F9C
:101A430022AB40AA3FAD3AAF39AE3822AF32AE3106
:101A5300AD30AC2F22AB32AA31A930A82F22E544F6
:101A63002540F540E543353FF53F22E4FBFAF9789D
:101A730040227A007D327F157E0122E493FE7401B9
:101A830093FF740293FD22740493FFAD3EED3395EF
:101A9300E0FC227B817A047935783F02013EAB3842
:101AA300AA37A936A83502013E7D107F137E012295
:101AB3007D857F147E012285398285388322AD316D
:101AC300AF30AE2F227F207E001239018E4A8F4B1A
:101AD3007E3E7FA81230C9E54B540364017006FBB8
:101AE300FA7D228005E4FBFA7D117F82FE1232F437
:101AF300300327E51213135401FFC374029FF54CFF
:101B0300FB1225901232F41225C31237E5E5125465
:101B1300036F7001EE60287F06221225C31237E59A
:101B2300EE7019EF14600B24FE600704700E7B0146
:101B330080027B021225901232F480037F06221268
:101B430024F81232F41225891237E5EF4E70357BF3
:101B530001FA7D107F20FE1232F41237ABD2041249
:101B6300288AC004C005C006C0071224CF12253F2F
:101B7300D007D006D005D00412004978CB122561D6
:101B8300C204803B7B011224FA1232F41239CF4093
:101B9300037F0322C20412288A8F4F8E4E8D4D8CF1
:101BA3004C1224F81232F41237ABD2041224CFAB06
:101BB3004FAA4EA94DA84C12004D784B1225611225
:101BC30015048F49AD4BAC4A7F207E00123A4AE59B
:101BD300496002FF221238D91231EA8F49E5496080
:101BE3000122120003D204755440755354755209EF
:101BF30075514BE4F55512351B1224CD1224E11215
:101C0300351B1237671239917F00223E9248DA3E24
:101C1300CCCCCD3F2AAAAB400000003F8000003F60
:101C23009837F03FB504F33FD744FC3E3172173E7B
:101C3300B172173F0515913EDE5BD9D2018002C216
:101C430001EDD2E7F8CD33EC3304700BBD80059280
:101C5300D502041102040740FBD31460F2F5F07CB3
:101C63003FEE7A00C39496C8948B40230AC89469C4
:101C7300C8941A401A0AC89468C8941F40110AC825
:101C8300945AC89425400805F07A00CDC2E7CDC028
:101C9300F08C518D528E538F54EA2323C0E0241EBF
:101CA300F582E4341CF58312062F12004DECC0E0DC
:101CB300EDC0E0EEC0E0EFC0E012061FA851A9524C
:101CC300AA53AB54120049D0E0FBD0E0FAD0E0F9BC
:101CD300D0E0B2E7F81202478C518D528E538F54E5
:101CE300901C0E7403120447A851A952AA53AB5473
:101CF30012013ED0E0600F242AF582E4341CF58300
:101D030012062F12004D8C518D528E538F54D0E0FA
:101D1300C3947FFDE49400FC1203627B187A72790A
:101D230031783F12013EA851A952AA53AB54120075
:101D33004D30010B7BD97A5B79DE783E12013E226E
:101D4300752B50752C007D221225051232F41225B5
:101D5300031232F41224CDE4FBFAF9784012013E67
:101D63007B007ABA795B78491224E912351B7D40EE
:101D73007F197E011237E58F2D30010EE4F52EE534
:101D83002E7D967F13121E5680367D527F137E0161
:101D93001237E58F2E80291225AF4003021E2CE552
:101DA3002EC3940F4003021E2C052EE52EFB7A0052
:101DB3003001047D9680027D527F137E011232F43E
:101DC3001235D38E2F8F3080CEE52DC394195061F9
:101DD300E52E640F705B1225AF5056E52DC39419A1
:101DE300504F052DE52D7D407F19121E561235D318
:101DF3008E2F8F30AC2FAD30E4120362C004C005C8
:101E0300C006C007AC31AD32E412036212253FD0E5
:101E130007D006D005D0041202477B667A6679861E
:101E2300783F1202E460025008852F3185303280FA
:101E330098C3E5309421E52F940B50057E007F0570
:101E4300227D7712254A1232F41225481232F4E425
:101E5300FEFF22FB7A007E011232F4221224FC12CE
:101E630037E58F3D1225B91232F4E4FBFA7D887F02
:101E7300087E021232F41225031232F41225A41240
:101E830032F41225341232F4752DA07536A0E53DD7
:101E9300B40117752B05752CC37534057535C47DD1
:101EA30044121F6EE4FBFAFD8016752B05752CC5D5
:101EB3007534057535C67D55121F6EE4FBFA7D1129
:101EC3007FC07E051232F4E4FDFCAF2CAE2B123240
:101ED30073E4FDFCAF35AE34123273E4F52EF52F07
:101EE300F537F538F53E12250DE493FE740193FFA3
:101EF300C3E52F9FFFE52E9EFE7BFF7A037D007CCB
:101F0300FC12382D8E308F3112250D740193252F3D
:101F1300FFE493352EFE12382D8E328F3312250DAA
:101F2300E493FE740193FFC3E5389FFFE5379EFEFC
:101F330012382D8E398F3A12250D7401932538FFEF
:101F4300E4933537FE12382D8E3B8F3C7B007A00AD
:101F5300792B122B237B007A007934122B23053E35
:101F6300E53EC394035003021EE922E4FBFA7FC05B
:101F73007E051232F4228F4A8E498D488C47E4FF46
:101F8300FE7D807C3FAB4AAA49A948A8471202E4D8
:101F93007009AF4AAE49AD48AC4722AF4AAE49AD2E
:101FA30048AC4712041CFBAF4EAE4DAD4CAC4B12CC
:101FB300041CFFBF0108E4FFFE7D807C3F22EF6429
:101FC300046022EB6404601DBB0127E4FFFEFDFCFB
:101FD300AB4EAA4DA94CA84B1202E460084006E49C
:101FE300FFFEFDFC2274FFF54EF54DF54CF54B025B
:101FF3002087E4F54FF550FFFEFDFCAB4AAA49A943
:1020030048A8471202E4504BAF4EAE4DAD4CAC4B1B
:1020130012039B8E4F8F50AC4FAD50EC120362C82E
:10202300ECC8C9EDC9CAEECACBEFCBAF4EAE4DADCE
:102033004CAC4B120049E4FBFAF9F81202E470A528
:10204300AF4AAE49AD48AC471204368F4A8E498D2C
:10205300488C47AF4AAE49AD48AC47121C42AB4E21
:10206300AA4DA94CA84B12013E122FD08F4E8E4D74
:102073008D4C8C4BE55030E00B1204368F4E8E4D59
:102083008D4C8C4BAF4EAE4DAD4CAC4B22E4F54971
:10209300F54A7F20FE1239018E4D8F4E20030A90A0
:1020A30003E8E54DF0A3E54EF07924E9605225E01D
:1020B300243EF582E4343FF583E493F54B740193B6
:1020C300F54CE925E02440F582E4343FF583C374FD
:1020D3000193954CE493954B4022300305122184E0
:1020E3008008122165ECF0A3EDF0054AE54A700281
:1020F3000549054CE54C70CA054B80C6191980ABE0
:10210300E4F9E924FDFDE434FFFC7F207E00123A6C
:102113004A754B01754C1C3003051221848008124B
:102123002165ECF0A3EDF0054AE54A700205490587
:102133004CE54C7002054BD39423E54B940140D7F7
:1021430009E9640270BC30030D1237209003E8E004
:10215300FCA3E0FD8004AD4EAC4D7F207E00123A1F
:102163004A22AF4CAE4B123901AC06AD07E54A2506
:10217300E0FFE54933FE74002FF58274003EF583DA
:1021830022E54A25E0FFE54933FE74002FF582740A
:10219300003EF583E0FCA3E0FDAF4CAE4B123A4AA0
:1021A300228E2F8F308D31C200753206121A2E7E89
:1021B300021232F4121A2E7E041232F41235D3E4D0
:1021C30012035D121A9612039B8E338F347E021212
:1021D30022AC7E041222AC1235D3C3EF9534EE95B4
:1021E30033500CE4F535753619D201C202800A75F5
:1021F300351F7536F6C201D2023001067E3C7FAD33
:1022030080047E3C7FB2AD34AC3312336EC3EF95A2
:1022130034EE95337F0050027F01A201E4336F70E7
:102223003E121A101237E5EF65357001EE70307B00
:1022330010FA121A101232F4121AC11237E5AD361F
:10224300ED3395E0FCEF2DFFEE3CFE1219FF123843
:102253002D8F37EFFB121AC11232F4D2008002C263
:1022630000300222121A101237E58F370537AF37C5
:102273007E007B1F7A00E4FDFC12382D8F37EFFBC5
:10228300121A101232F41532121AC11237E58F37AF
:10229300E537600DF4600A300007E5326003022180
:1022A300AF7F003000027F01227B017A007D417FF6
:1022B300401232F4228F258E248D238C22903AAD46
:1022C3001219D2400A903AB91219D2600540037F1D
:1022D3000A22121A6EAF25AE24AD23AC2212024796
:1022E3008F298E288D278C26903AB11219D2601B24
:1022F3004019903AB51219D25011121A6E903AB58C
:102303001219908F298E288D278C26C203122090B4
:10231300AF29AE28AD27AC261210F48F2AE52A7018
:1023230061122D88121A2E7E041232F4121A2E7E96
:10233300021232F47E3C7FB77D007C2712336E128B
:102343001987AB29AA28A927A8261202E4600250FC
:10235300047D70800F7B027A007D607F1A7E0112FC
:1023630032F47DF87F097E011221A48F2A121A10FC
:102373001237E58E2B8F2C7F097E011239018E2DAA
:102383008F2ED203122090E52A6002FF22AB2CAAE3
:102393002B121A101232F47D8C7C317F067E0112CF
:1023A3003A4A7D8C7F077E01123A4AAD2EAC2D7FCF
:1023B300097E01123A4AAF29AE28AD27AC26123660
:1023C300D87F00228F568E558D548C53122EBE7F8C
:1023D300D77E3C7DAF7C4E120247E4FBFA798078CE
:1023E300BF12004D12039B8F5F122EBE7FED7E1234
:1023F3007D667C4E12024712039B8F60E560255F6A
:10240300FFE433C313EF13F5612401FFE433FEEF5D
:1024130025E0FDEE33FCE4120362122EBE12013EF0
:102423008F5A8E598D588C57E561FB7A007DA37FB7
:10243300891224B48F5E8E5D8D5C8C5B7CBFAB5E3A
:10244300AA5DA95CA85B122E897F881224B41203AB
:102453009BE412035D122E61AF5EAE5DAD5CAC5BBF
:102463001200498F628E618D608C5FE4FFFE7D8078
:102473007C49AB62AA61A960A85F122EA08F668E09
:10248300658D648C63E4AB07AA067DF07F87FE123B
:1024930032F4AF66AE65AD64AC63122ED97F887E2D
:1024A300001232F4C20612132BEF7F0060027F0288
:1024B300227E001232F4AB1CAA1BA91AA819AF5A28
:1024C300AE59AD58AC5712024722C204AF18AE172B
:1024D300AD16AC1579A07840E4FBFA02024778C741
:1024E3007B007A5079C312004D8F548E538D528CDA
:1024F30051E4F555227B027A007D107F207E002275
:102503007D77E4FBFA7F0C7E0422E53E25E024344C
:10251300F582E4343DF58322E975F0288475F018DB
:10252300A4FFE92400FDE43405CD2FFFED35F0FED3
:10253300227B017A007DFF7FC07E0522A804A905C6
:10254300AA06AB07227D227B017A007F0C7E042240
:10255300D3903EBA740193954EE493954D227B40FC
:102563007A54790912004D8F538E528D518C50221B
:10257300C3E568956AE567956922C3E5439545E533
:10258300429544227B017D667F1C7E01227A007D79
:10259300BA7F037E0122FEC3EF9401EE6480948030
:1025A300227B017A007D337F087E0222C3E53095CA
:1025B3002CE52F952B227B017A00E4FDFF7E01227F
:1025C3007D877F0D7E01227F207E001239018E22BE
:1025D3008F23C203122090A200920112169A8F2415
:1025E300E5247043122D88122CC8A2009201121DFB
:1025F300438F24E5247030122CC81224CD7B007A3B
:10260300BA795B78491224E912351B121E5FC204A2
:102613007554007553BA75525B755149E4F55512FB
:10262300351BD2031226C17DA07402FFFE1237E5CB
:102633008E258F267DA07F017E021237E58E278FA0
:10264300287DB07F037E021237E58E298F2AD203BD
:10265300122090AD23AC227F207E00123A4AE5245B
:102663006002FF22AB26AA257DA07402FFFE123270
:10267300F4AB28AA277DA07F017E021232F4AB2A95
:10268300AA297DB07F037E021232F412253412325E
:10269300F4E52330E007E4FBFA7D448005E4FBFA2C
:1026A3007D557FC07E051232F41225A41232F4E464
:1026B300FBFA7D107F087E021232F47F00227BFF3B
:1026C3007A3C79BC8B498A4A894B755BA07552B0B9
:1026D300300310754E02754F017402F54CF54DF53C
:1026E30050800F754E04754F01754C04754D02757E
:1026F30050047551037557007558807555FF75560D
:10270300807F501227A67DBF12279C7DFF1227943E
:102713001235D38E628F637DFF12279C7DBFAF4F2F
:10272300AE4E123A4A1235D38E648F65C3E5639574
:1027330065E56295645008854C59854D5A80068538
:102743004E59854F5A7DFF7C071227947560077594
:1027530061FF755E05755FFF7F591227A6E5542457
:1027630010F558E43553F557E55424F0F556E55381
:1027730034FFF5557F501227A6AD5DAC5CAF5AAE62
:1027830059123A4AAB54AA53AD52AF51AE5002322A
:10279300F4AF4FAE4E123A4A227C07AF4DAE4C1205
:1027A3003A4A228F6674FFF567F568A807E824059F
:1027B300F8E6F56B08E6F56CA807E82407F8E6F5F4
:1027C3006D08E6F56EA807E6F57108E6F572A80749
:1027D300E82402F8E6F573FD12287B8E698F6AC33D
:1027E300E56E956CFFE56D956B122599405E7C0057
:1027F3007D021204FB8E6F8F70122573500BAD7325
:1028030012287B8E698F6A8014AB6CAA6BAD73AF91
:1028130072AE711232F41235D38E678F68D3E570BE
:102823009400E56F648094804022122573500FC397
:10283300E56E9570F56EE56D956FF56D80A1E570AC
:10284300256CF56CE56F356BF56B80931225735032
:1028530006AE6BAF6C8004AE6DAF6EE5662403F815
:10286300A60608A607E5662403F8E6FA08E6FBAD24
:1028730073AF72AE710232F4AB6EAA6DAF72AE710A
:102883001232F41235D3227F207E001239018E508A
:102893008F517A003004047B0280027B017D107F1C
:1028A300207E001232F47DD07F1E7E011237E58E2A
:1028B300528F537F1D7E01123901E4FCFDC004C019
:1028C30005C006C007FEE553122EE5D003D002D0A3
:1028D30001D0001205C18F578E568D558C547DAA99
:1028E3007F1C7E011237E5EF04F5587D867F1F7E3E
:1028F300011237E5EF04F559AD51AC507F207E004E
:10290300123A4AAF59122E56122ECEC004C005C039
:1029130006C007AC58E4120367D003D002D001D03D
:102923000012013EC004C005C006C007AF57AE5633
:10293300AD55AC54122EB0C004C005C006C007E5A7
:1029430052C4F854F0C868FEE553C4540F48240435
:10295300122EA8D003D002D001D00012004DD00314
:10296300D002D001D00012013E228F4C8E4B8D4AF3
:102973008C497DFA7F087E011237E58F4F7B017A00
:10298300007DDD7F0C7E041232F41225031232F433
:10299300C204AF4CAE4BAD4AAC491224D71224E16A
:1029A30012351B30032675500F800F1225534041FB
:1029B3001550E550648094804037E550FB3395E033
:1029C300FA7D517401FFFE122A4380DF75500280A5
:1029D30010122553401B05500550E550D3940F505A
:1029E30010E550FB7A007D527F137E01122A43804B
:1029F300E0C3E54D9410500F054F054FE54F943953
:102A03005005122A2D80EA122553400E054FE54F3B
:102A1300D3943E5005122A2D80EDC3E54E9421E553
:102A23004D940B7F0050027F0522E54FFB7A007D1A
:102A3300FA7F087E011232F41235D38E4D8F4E2267
:102A43001232F41235D38E4D8F4E227581D0E4F5B8
:102A5300A27591FFF59075A10775A9FF75A88075FB
:102A63008901C2A0D2A13008FDE50A1206572A9FA8
:102A7300002AA6012AAA022AAE032AB2042AB90509
:102A83002AC8062AD7072ADE082AE5092AED0A2BCF
:102A930007112B10122B1BFF00002B1EC20830093D
:102AA300FD8042C200805FC2018064C2008002D206
:102AB300001235778065AF18AE17AD16AC15120A44
:102AC3002C8F908056AF18AE17AD16AC151222B8E6
:102AD3008F90804712394B8F9080401239EB8F9043
:102AE3008039850B12E4F5908031E4F590C20A7FBA
:102AF3002DFE123901E4FCFD780212060012067D58
:102B03008F908017D2001225CA8F90800ED201C2F7
:102B1300021218058F908003759005C208022A6976
:102B23008B3F8A40894174FFF542F54390000512BB
:102B3300055CF54785F04690000712055CF549856D
:102B4300F048122BE68E448F45C3E5499547FFE5D0
:102B5300489546122599405B7C007D021204FB8E4A
:102B63004A8F4B12257DAB3FAA40A9415009122B36
:102B7300E68E448F458014120531FFAEF0AD47ACAD
:102B8300461232731235D38E428F43E54B454A606A
:102B93002212257D500FC3E549954BF549E548952C
:102BA3004AF54880A4E54B2547F547E54A3546F500
:102BB30046809612257D5006AE46AF478004AE4848
:102BC300AF49AB3FAA40A941900003EE8FF0120535
:102BD30094120531FFAEF090000312055CFDACF0DA
:102BE300023273120531FFAEF0AD49AC48123273B5
:102BF3001235D3228E388F398D3A8A3B8B3C12356E
:102C0300D312197E1219F050028001C39200121AD6
:102C1300481237E58E3F8F40E53AC4540FFFE53A3B
:102C2300540FFEC3EF9E04FF123A38EF24FFF54220
:102C3300EE34FFF541754300754401E54425E0F5A5
:102C430044E54333F543300005121A368003121A64
:102C530061AB42AA41E4FDFCAF40AE3F12382D8E7A
:102C63003F8F40121A441232F41235D312197E12D6
:102C730019F07F0050027F01A200E433B50713C3AC
:102C8300E544953EE543953D40B17F803000027FAA
:102C93008122D3E5449401E54394004025E54313A1
:102CA300F543E54413F5441235D312197E1219F096
:102CB3004005121A618003121A36121A441232F4B2
:102CC30080D07F0022754905754AC71224FC12374C
:102CD300E58F4BE4FBFAFDFF7E011232F412254827
:102CE3001232F41225341232F4E54BB401117D662D
:102CF300122D5E7D22122D5E7D30122D7E801A7D77
:102D030077122D737D33122D737DC0122D7E7402C5
:102D1300254AF54AE43549F5497FC17E0512390153
:102D2300EE54F070F4E4FBFA122D69C203AF4AAE1D
:102D330049122EEE7BFF7A07122D69E54A2401FF23
:102D4300E43549FEC203122EEEE4FBFA7D227F0C2A
:102D53007E041232F41225B90232F4E4FBFA7FC086
:102D63007E051232F4227DA07F017E041232F4220A
:102D7300E4FBFA7FC07E051232F4227CFF7FC27E21
:102D830005123A4A227D207F0A7E041237E5E47E4B
:102D930001A807088005C333CE33CED8F9F54A8E90
:102DA300497DEC7F037E041237E58F4BE54BC394DB
:102DB30006500F7402A807088002C333D8FCF54BF2
:102DC3008003754B01C2051234B5E4FBFAF9784070
:102DD300120247C004C005C006C007AC4BE412038F
:102DE3006712253FD007D006D005D004120247C092
:102DF30004C005C006C007AC49AD4AE4120362D063
:102E030003D002D001D0001202478F4F8E4E8D4D5A
:102E13008C4CAF1CAE1BAD1AAC19AB4FAA4EA94DCF
:102E2300A84C12013E794078411224DB12039BC364
:102E330074FF9FF51474FF9EF51322F582E4355059
:102E4300F58312064B75F002E553A4F58285F083F2
:102E530002055C123A38AC06AD07E4120362A8041B
:102E6300A905AA06AB07227C4FAB59AA58A957A8B4
:102E7300560202E4E57225E025E022AF5FAE5EADC7
:102E83005DAC5C020247E4FFFE7D8012004D12033D
:102E93009BAB07AA067DD422E4FBFA798012013E9C
:102EA30002039B2401FDE43EFCE4020362E41203FB
:102EB3005DE4FBFA79807849020247AB56AA55A92B
:102EC30054A8532285518285508322AF1CAE1BAD7B
:102ED3001AAC1902024778101205EDAB07AA067D5A
:102EE3003022540FFFE478100206008E4C8F4D30D1
:102EF30003067E037FFF80047E007F3F8E588F5939
:102F0300AF4DAE4C1233DE8E558F568E538F541207
:102F130035D38E4F8F508E518F52E5562401FFE4E7
:102F2300355512381FAC06AD07122F8D12253FAE53
:102F33004FAF50E4FCFDC31205DC7FFF50027F015D
:102F43008F57754E08AF57EF3395E0FEE5562FFFC9
:102F5300E5553E12381F8E558F56AD56AC55122F80
:102F63008D8E4F8F50C3E5509552E54F9551500CC0
:102F7300854F51855052855553855654D54EC6AD10
:102F830054AC53AF4DAE4C023273AF4DAE4C123214
:102F9300731235D32233DA929E35B16011377FE550
:102FA300FE392184893AAEC3FF3C1D955B3D6358CE
:102FB300473E75FDF03F3172183F800000C2D502D5
:102FC3000411020407BD80FA50F302040EED33EC42
:102FD300330460F17B3B7AAA79B8783F12013EED66
:102FE30033EC3392D5247B5011A2D570DB500BED1B
:102FF300448024045004A2D580CEEFFBEEFAEDF911
:10300300ECF812039BEFF582F404FC120367120041
:103013004DC082902F987409120456ED33CC33D0EF
:10302300F092D525F0A2D57001C313CC13FD227DF8
:10303300A37F897E001237E5EF122EA6C004C005D8
:10304300C006C007E4FBFAF97840122ECED003D0B5
:1030530002D001D0001202478F678E668D658C64A3
:103063007DD07F887E001237E58E688F697DF07F83
:10307300877E001237E5E4FCFDC004C005C006C02E
:1030830007FEE569122EE5D003D002D001D000126D
:1030930005C1122EB0C004C005C006C007E568C450
:1030A300F854F0C868FEE569C4540F48122EA6D040
:1030B30003D002D001D00012004DAB67AA66A96508
:1030C300A86412013E228E508F518F828E83740921
:1030D30093F552E552604614F553122EC7122E454E
:1030E300FFAEF0C006C007122E48FFAEF012390142
:1030F300E5512406122E3EF4FDE5F0F45EFEEF5D8D
:10310300FF122EC7A3A3A3122E45FDEE45F0FCEF3D
:103113004DFDD007D006123A4A155280B6122EC77B
:10312300741093F552E552603114F553E551240AB6
:10313300122E3EFFAEF0122EC7741193FDE552D34B
:103143009D40067C007D00800AE551240D122E3E31
:10315300FDACF0123A4A155280CB22787FE4F6D8C0
:10316300FD75817E0231A5022A4EE493A3F8E49310
:10317300A34003F68001F208DFF48029E493A3F867
:103183005407240CC8C333C4540F4420C8834004D9
:10319300F456800146F6DFE4800B01020408102098
:1031A30040809038AFE47E019360BCA3FF543F306E
:1031B300E509541FFEE493A360010ECF54C025E03C
:1031C30060A840B8E493A3FAE493A3F8E493A3C8F4
:1031D300C582C8CAC583CAF0A3C8C582C8CAC58385
:1031E300CADFE9DEE780BE1230327B007AC8792F6E
:1031F300784C120247E4FBFAF9783F12004D1203B0
:103203009B7B0D7A007D027C0012382D8F50E55098
:1032130025E025E0F5517DBB7F867E001237E5EF83
:1032230064014E70127DCB7F89FE1237E5123A3866
:10323300E5518FF084F55175523FE552600FE5512A
:10324300C395525008E552C313F55280EDE552FB86
:103253007A007D707F077E041232F4AC50E41203CF
:10326300677B007AC8792F784C12013E1223C7225C
:103273008E5A8F5B8C5C8D5DC3E55B94C7E55A9476
:103283000550067E037FFF80047E007F3F8E5E8FA6
:103293005FE4F560F561C3E55C64809480501AE5F2
:1032A3005F2401FFE4355EFEEF4261EE4260E55DBF
:1032B300255FFFE55C355E800FE55D255FCFE55C4F
:1032C300355ECF2401CF3400FE123A8EE55E5EFEFA
:1032D300E55F5F4261EE4260AD61AC60AF5BAE5AE9
:1032E300123A4AE5604480FCAD61AF5BAE5A023AE4
:1032F3004A8A7B8B7CA9058F828E83123901AD07A5
:10330300AC06E9C4540FFFE9540FFBC3EF9B04FF62
:1033130074FFFEA807088005C333CE33CED8F9F473
:10332300FFEEF4FEEFA803088005C333CE33CED8F7
:10333300F9F57E8E7DE9540FFFE57CAE7BA8070887
:103343008005C333CE33CED8F9FFE57D5EFEE57E3F
:103353005FFFE57EF4FBE57DF45CFCEB5DFDEC4E8D
:10336300FCED4FFDAF82AE83023A4A8E388F398C23
:103373003A8D3B8F828E83121A7E1237E58F3E126F
:1033830035D38E3C8F3DC3EF953BEE953A504412B7
:103393001ABA740393FF253EF53ED3EF64809480FD
:1033A300400F121A8AD3ED9F7480F86C9840028004
:1033B30022121ABA121A8AC3ED9F7480F86C9840CD
:1033C30012121ABA121A7EE53EFB3395E0FA123254
:1033D300F480ACAE3CAF3DE4FCFD228F828E83C310
:1033E300E58294C7E583940550067E037FFF80043E
:1033F3007E007F3F8E5A8F5BAF82AE83E4FDFC126B
:103403003A4AAF82AE837D007C40123A4AAF82AE25
:10341300831239018E5C8F5DAF82AE83E55C543FCE
:10342300FCAD5D123A4AE55C555AFEE55D555BFF1E
:10343300E55B2401FDE4355A555CFCE55D5D4C60BC
:10344300077CFF7DFF120494227F207E0012390146
:103453008E408F41E4F5427902E4F543E54154FCA3
:10346300FFE540FCEF4543FD7F207E00123A4AE52D
:1034730043C39405502DE54325E024BC30011012CD
:1034830036B21236C1E0FCA3E0FD123A4A800E12B6
:1034930036B21239011236C1EEF0A3EFF005420540
:1034A3004380CC19E970B2AD41AC407F207E00026D
:1034B3003A4A1230328F5F8E5E8D5D8C5C7DCB7F9E
:1034C300897E001237E5122E56122E7E8F638E628E
:1034D3008D618C607DBB7F867E001237E5EF4E7079
:1034E30017300509AF63AE62AD61AC6022E4FBFA4D
:1034F30079807840122E7E2230050AAF5FAE5EAD32
:103503005DAC5C8012E4FBFA79807840AF63AE6215
:10351300AD61AC6012024722E55575F002A4FFAE1F
:10352300F07C043004027C027D42EF2DF557EE3C23
:10353300F556A20492051234B5122E61AF54AE5360
:10354300AD52AC51120247784F122E9B8F5B8E5AAD
:103553008D598C5878101205EDAD07AC06AF57AEF8
:1035630056123A4AE5572401FFE43556FEAC5AADEC
:103573005B023A4AE50CAD0DFCE4120362E4FBFA8C
:10358300797A7844120247C004C005C006C007AC6C
:103593000BE4120367D003D002D001D00012004D18
:1035A3007B007A247974784912013E8F258E248D0D
:1035B300238C2230000A8F1C8E1B8D1A8C19800CD1
:1035C300852518852417852316852215E4F5902271
:1035D300C28CE513F58CE514F58AC28DD28C308D3F
:1035E300FD7DFF7F007E04123A067F0F7E041239B1
:1035F30001E48F778E76F575F5747F0E7E041239AC
:10360300017E00EF5403FFE4FCFDC004C005C006C7
:10361300C007AF77AE76AD75AC747802120600D0F2
:1036230003D002D001D0001205C1228F4A8E498DEA
:10363300488C47E4FFFE7DA07C41AB4AAA49A948D8
:10364300A84712013E7B007AC8792F784C1219CB18
:10365300F9783F1219AE7B0D7A007D027C00123897
:103663002DAC07E41203677B007AC8792F784C12DC
:10367300013E7B807A967918784B12004D1223C74E
:1036830022E4FFFEFDFCAB35AA34A933A8320202C3
:10369300E4742D252FF8E622742B252FF8E622E576
:1036A3002F25E025E024FEF582E43403F58322F59B
:1036B30082E4343EF583E493FE740193FF22E542F2
:1036C30025E024EAF582E43403F58322AF3AAE39E8
:1036D300AD38AC37228F3E8E3D8D3C8C3B7F057ED3
:1036E300011239018E3FEF54E9F540121987AB3EC1
:1036F300AA3DA93CA83B1202E460025012434010C9
:103703007B017A00E4FD7F0B7E011232F4800343D8
:103713004006AD40AC3F7F057E01023A4A7F2B7ED7
:10372300001239018F828E83E58364027F2B123767
:103733005EAD82AC837F2B7E00123A4A7F207E00EF
:103743001239018E838F82E58354557F2012375EB1
:10375300AD82AC837F207E00023A4AFCAD827E00BC
:10376300123A4A227F207E001239018E508F51E592
:10377300515403640270307B01FA7D107F20FE12E6
:1037830032F47B017A00E4FD7F0D7E011232F47B7B
:10379300017A007DEE7F007E011232F4AD51AC5010
:1037A3007F207E00123A4A227907E925E02488F532
:1037B30082E4343FF583E493FE740193FFE925E04B
:1037C3002496F582E4343FF583E493FC740193FD7E
:1037D300123A4AD9D57BFF7AB97DF87F207E010260
:1037E30032F4A905123901AC06AD07E9C4540F043C
:1037F300FF74FFFEA807088005C333CE33CED8F984
:10380300F4FFEEF45CFEED5FFFE9540FFDEFA80556
:10381300088005CEC313CE13D8F9FF22FEC3E49567
:1038230059FDE49558FCAB59AA58C3EF9DEC64804D
:10383300F8EE6480985005AE04AF0522D3EF9BEAFF
:103843006480F8EE6480984005AE02AF032222C084
:10385300E0C0D075D000C000C006C0077590FF7FE0
:1038630002740A2FF8E6FE740B2FF8A606DFF28522
:10387300800B759000D007D006D000D0D0D0E032B6
:1038830012397B123A1FD2A27D10D2A0123A6EEBEC
:1038930025E0FBEA33FA30A303430301C2A0123A43
:1038A3006EDDE7D2A1D2A2AE02AF032204154A987D
:1038B300968002130001011200021DFF0004194B40
:1038C300EA6000C10AC189C108020E002D02080284
:1038D3000C0210040B007DFF7C7F7F0C7E02123AEA
:1038E3004A7D557F007E02123A067D007C807F0C64
:1038F3007E02123A4A7D667F007E02023A06123940
:103903007B123A7ED2A27D10D2A0EB25E0FBEA33F4
:10391300FA30A303430301C2A0DDEDD2A1D2A2AECC
:1039230002AF0322C28CE51DF58CE51EF58AC28D1C
:10393300D28C308DFD3007067E017F2380047E000C
:103943007F8C7DDC1237E5227590FFAF0FAE0E1230
:1039530039018F828E83AF09AE08123901AD07ACEE
:1039630006AF82AE83123A5C7F0022AB05AA04C283
:10397300A0C2A1EE4480FE22E4FBFAC2A0C2A1EEE3
:10398300547FFE22EF25E0FFEE33FED2A0227F20FC
:103993007E00123901AD07AC06ED540364017005D6
:1039A30043051480034305287F207E00023A4AEF33
:1039B300C3941550037F0122EFC3940D50037F027C
:1039C30022EFC394087F0050027F03227DDC7F2314
:1039D3007E011237E5EF64024E7002D322D2061243
:1039E300132BEFC37001D3227590FFAF0FAE0E12EE
:1039F3003901123883AD07AC06AF11AE10123A4A43
:103A03007F00228E788F798D7AE4FBFA1232F47B71
:103A1300017A00AD7AAF79AE780232F47D10C2A09C
:103A2300123A6EEE3392A2123A6E123987123A6E3E
:103A3300DDECC2A02274017E00A807088005C33311
:103A4300CE33CED8F9FF2212396E123A7EAF03AECF
:103A530002123A7ED2A1D2A22212396E123A1FAFBB
:103A630003AE02123A1FD2A1D2A222C28C758CFFDE
:103A7300758AF0C28DD28C308DFD227D10C2A0EEEE
:103A83003392A2123987DDF5C2A022EE30E707C3D5
:103A9300E49FFFE49EFE227590FF85800AD20AD23E
:103AA300083249AAE6004CF7F4904A9896804C18DD
:103AB30096804C3EBC204CF7F4900085010D011319
:103AC30001140084008B00010100000400100400B5
:103AD300210000070188003C001FF83FC1FF00825E
:103AE3000086008700880089008A008C010001019C
:103AF300010201030104010501060107010801098F
:103B0300010A010C01150116011701180119011A07
:103B13000200020102020203020402050206020776
:103B2300020802090240040004010402040304041D
:103B330004050406040704080409040A040C0440E9
:103B43000081800349010400078000200514067BDF
:103B5300340960013180061200880007318C318CF2
:103B6300042661C1104C88C500098180280C018C92
:103B7300528B2E02008D07FF07FF0000000000009C
:103B830000000000207000000020008107FF07FFF5
:103B930040000000000000000000000000001001D1
:103BA30020380020FF3ABDFF3AC9FF3AD506FF3A55
:103BB300E1FF3B4532310108FA021E011352020EA6
:103BC300008200850100010C010D0084008B80013F
:103BD300000100000000001E040021001FFF000779
:103BE30000010001001EF83FC1FF00860087008826
:103BF3000089008A008C01050106010701080109FB
:103C0300010A01150116011701180119011A020011
:103C1300020102020203020402050206020702086D
:103C230002400241040004010402040304040405E5
:103C33000406040704080409040A040C04400441AC
:103C4300008149010400078000200514067B30072A
:103C5300318C318C058C61C1104C000D8180280C96
:103C6300618C528C2E02008D07FF07FF00000000BD
:103C7300000000000000007000200000008107FF2A
:103C830007FF4000000000000000000000000000EB
:103C93001001203800200000FF3BC3FF3BD1FF3B56
:103CA300DF07FF3BEDFF3C452C2B010AC8FF00015A
:103CB3000AC8011F0108FA012B000800040000FFD5
:103CC300FAFFF5FFF0FFECFFEAFFEAFFECFFF2FF7C
:103CD300FB000600140022002E0038003D003A00CD
:103CE30030001D0003FFE3FFC1FFA0FF85FF74FF4A
:103CF30072FF80FFA2FFD40014005D00A700E8015B
:103D030018012E012300F4009F0029FF9AFEFEFEF6
:103D130067FDE5FD8CFD6EFD9AFE1AFEF3002201A0
:103D23009D03540530071608E80A890BDE0CCD0DF8
:103D33004903FF008000080084008500AE010101F3
:103D430013020002010202020804000001F0000055
:103D530001001C000C07FF07FF0000F8FF0007F03D
:103D6300001801003C000C07FF07FFF10B010C01D9
:103D73001201150116011701180119011A04000493
:103D830001040204030404040504060407040804EC
:103D930009040A040C044004420443008188E540FA
:103DA3003200058180280C218C31802E020081078E
:103DB300FF07FF40000000000000000700000000B4
:103DC3000010012098002000000000FF3D3AFF3D55
:103DD3004CFF3D5E09FF3D70FF3DA01817008400B6
:103DE3008500AE010C010D0113011501190400003A
:103DF30001F00000000040000C00000000F8FF008C
:103E030007F000001A0040003CC0008000010001E0
:103E13000101020103010401050106010701080173
:103E230009010A020002010202020802400400041E
:103E330001040204030407040A040C044005C0053A
:103E4300CB02030204020502060207024104040432
:103E530005040604080409044105C105C205C30598
:103E6300C405C505C605C705C805C905CA05CC00EF
:103E7300813408600131800A1200880007318C31D7
:103E83008C042661C1104C008D07FF07FF207000D2
:103E930020008107FF07FF40000700100020980063
:103EA3002000FF2020FF3DE0FF3DF0FF3E0008FF24
:103EB3003E10FF3E74321A70000081010F01260488
:103EC3000A040C000100110021000200120022006C
:103ED3003200130023003300430024003400440065
:103EE3005400350045005500650046005600660045
:103EF3007600570067007700870068007800880025
:103F03009800790089009900A900AA00BA00CA00A4
:103F1300DA00DB00EB00FB010B011B012B013B0172
:103F23004B015B016B017B018B019B01AB01BB016E
:103F3300CB01DB01EB01FB01FC01FD01FE01FF00F5
:103F430021002F0081008200840084008500850009
:103F530086008C009200A700A800A800AD00AE0167
:103F63000001040105010A010C01140115011A02E3
:103F730000020C024002610400040F0440046105C6
:103F83000005A705C005C0011C011D011E011F017D
:103F93002101220123AD430400078036403404038A
:033FA3003F067B5B
:00000001FF
