:100000000231CAE4F912232CE9120022B93CF6E9C4
:10001000C39478500C12232CC37477991200228059
:10002000EE2225E02461F582E43438F583E493FC84
:09003000740193FD1237AE0922A0
:03003B0002367A10
:10004300023858020407E86480F8E933E8336011A2
:100053000460F0ED33EC337009E8FCE9FDEAFEEBF4
:10006300FF220460DED3EB9FEA9EE99DE8C2E78CA2
:10007300F0C2F795F0400CE8CCF8E9CDF9EACEFAF6
:10008300EBCFFB1203D285D0F05804700320D5B315
:10009300E80470075002B2D502041192D5EC046053
:1000A300F7E4CCC0E0C398F8603B94186008400DB7
:1000B300D0E0FB0203E9E4FBFAC9FC8028E830E462
:1000C30006E4C9FBE4CAFCE830E305E4C9CACBFC97
:1000D300E854076010F8C3E913F9EA13FAEB13FBCA
:1000E300EC13FCD8F130F52FC3E49CFCEF9BFFEE3F
:1000F3009AFEED99FDD0E0FBEF4E4D4C701222DBE2
:100103000302040EEC2CFCEF33FFEE33FEED33FD64
:10011300ED30E7EB0203E9EF2BFFEE3AFEED39FD9D
:10012300D0E0FB50130BBB0003020411ED13FDEEF3
:1001330013FEEF13FFEC13FC0203E9EC4D6011E82F
:10014300497017ED33EC3304600DE4FCFFFEFD2230
:10015300E933E8330470F80204071203D258046049
:1001630009E4CC24815006285009020411284003D5
:1001730002040EC0E0EB4A7044B98006D0E0FB02F3
:1001830003FDEF4E701CBD8008EBFFEAFEE9FD8026
:10019300EBE98DF0A4FEE5F0020227E9CDF9EAFED2
:1001A300EBFFEF89F0A4FCE5F0CE89F0A42EFFE489
:1001B30035F0CD89F0A42DFEE435F08067EF4E7065
:1001C30005BD80D780C3EF8BF0A4ACF0EE8BF0A419
:1001D3002CFCE435F0F8EF8AF0A42CE5F038FCE4CD
:1001E30033CB8DF0A42CFCE5F03BF8EE8AF0A42C85
:1001F300FCE5F038F8E433CF89F0A42CFCE5F038C3
:10020300CF3400CE89F0A42FFFE5F03EFEE433C9DE
:100213008DF0A42EFEE5F039CD8AF0A42FFFE5F092
:100223003EFEE43DFD33D0E0FB50070BBB000F0265
:100233000411EC2CFCEF33FFEE33FEED33FD020330
:10024300E9020411EC5D046005E85904700302043B
:10025300071203D2580460F6EC4860F2EC7004FD18
:10026300FEFF22C860DB2481C85009C39860025096
:100273000602040E9850CAF582E9294B4A7005AB71
:10028300820203FD75F0007C1A7880C3EF9BEE9A1F
:10029300ED99400DC3EF9BFFEE9AFEED99FDE84209
:1002A300F0DC23ACF0D0E0FFD0E0FED0E0FDAB8289
:1002B30020E7101BEB60BAEC2CFCEF33FFEE33FEB0
:1002C300ED33FD0203E9E803F830E705C0F075F00C
:1002D30000EF2FFFEE33FEED33FD40B830E7C28071
:1002E300AA74F8CC6480CCC86480C8F58204604FDB
:1002F300C3EB9FF5F0EA9E42F0E99D42F0E89C458E
:10030300F0603C501DE5825FFFE582D313CB5BCBEE
:10031300F42B5582FB50280ABA002409B90020089F
:10032300801DE5825BFBE582D313CF5FCFF4C3135C
:100333002F5582FF50090EBE00050DBD00010CC3F1
:10034300EB9FF5F0EA9E42F0E99D42F0E89C45F010
:100353006007CC4820E701B3EC2275F020800E75CE
:10036300F010800575F0087D007E007F003392D584
:1003730030D5031206C4EC334010EF33FFEE33FEE7
:10038300ED33FDEC33FCD5F0ED22E5F0247EA2D570
:1003930013CC92E7CDCEFF22EDD2E7CD33EC3392EF
:1003A300D524814006E4FFFEFDFC22FCE4CFCECD44
:1003B300CC24E0501174FF80EDC3CC13CCCD13CD0E
:1003C300CE13CECF13CF0470F030D5DE0206C4E9CE
:1003D300D2E7C933E833F892D5EDD2E7CD33EC3326
:1003E300FC5002B2D522EC30E7100FBF000C0EBE5A
:1003F30000080DBD00040BEB6014A2D5EB13FCED5C
:1004030092E7FD2274FFFCFDFEFF22E480F8A2D5F3
:1004130074FF13FC7D80E480EFED33EC3360100454
:10042300700FED547F7005740292E022740422046D
:1004330022E422ED33EC33600A047003BD8004EC44
:10044300B2E7FC22C0E0EFFBEEFAEDF9ECF81201A3
:100453003ED0E0F5F0EFFBEEFAEDF9ECF81206F81A
:10046300A3A3A3A3E8C0E0E9C0E0EAC0E0EBC0E0D7
:10047300C0F012013E120708A3A3A3A312004DD09C
:10048300F0D0E0FBD0E0FAD0E0F9D0E0F8D5F0D43A
:1004930022E709F608DFFA8046E709F208DFFA8067
:1004A3003E88828C83E709F0A3DFFA8032E309F602
:1004B30008DFFA8078E309F208DFFA807088828C1B
:1004C30083E309F0A3DFFA806489828A83E0A3F6D9
:1004D30008DFFA805889828A83E0A3F208DFFA8072
:1004E3004C80D280FA80C680D4806980F2803380C9
:1004F3001080A680EA809A80A880DA80E280CA8091
:100503003389828A83ECFAE493A3C8C582C8CCC535
:1005130083CCF0A3C8C582C8CCC583CCDFE9DEE7B2
:10052300800D89828A83E493A3F608DFF9ECFAA9A4
:10053300F0EDFB2289828A83ECFAE0A3C8C582C866
:10054300CCC583CCF0A3C8C582C8CCC583CCDFEAB5
:10055300DEE880DB89828A83E493A3F208DFF980F3
:10056300CC88F0EF60010E4E60C388F0ED2402B436
:10057300040050B9F582EB2402B4040050AF2323E6
:100583004582239004E473EF8DF0A4A8F0CF8CF0A0
:10059300A428CE8DF0A42EFE22BC000BBE0029EFB2
:1005A3008DF084FFADF022E4CCF875F008EF2FFF57
:1005B300EE33FEEC33FCEE9DEC984005FCEE9DFE25
:1005C3000FD5F0E9E4CEFD22EDF8F5F0EE8420D26C
:1005D3001CFEADF075F008EF2FFFED33FD400798DB
:1005E3005006D5F0F222C398FD0FD5F0EA22C2D50A
:1005F300EC30E709B2D5E4C39DFDE49CFCEE30E7A3
:1006030015B2D5E4C39FFFE49EFE12059CC3E49D8F
:10061300FDE49CFC800312059C30D507C3E49FFFD7
:10062300E49EFE22BB010A89828A83E0F5F0A3E0FF
:1006330022500687F009E71922BBFE07E3F5F0090C
:10064300E3192289828A83E493F5F074019322BB30
:100653000110E58229F582E5833AF583E0F5F0A3FD
:10066300E0225009E92582F886F008E622BBFE0A5B
:10067300E92582F8E2F5F008E222E5832AF583E929
:1006830093F5F0A3E99322F8BB0111E58229F582E2
:10069300E5833AF583E8F0E5F0A3F0225009E92574
:1006A30082C8F608A6F022BBFE09E92582C8F2E556
:1006B300F008F222EF4BFFEE4AFEED49FDEC48FC59
:1006C30022C3E49FFFE49EFEE49DFDE49CFC22E83C
:1006D300600FECC313FCED13FDEE13FEEF13FFD815
:1006E300F122E8600FEFC333FFEE33FEED33FDEC91
:1006F30033FCD8F122E493FC740193FD740293FE5E
:10070300740393FF22E493F8740193F9740293FA48
:10071300740393FB22E493FB740193FA740293F939
:1007230022D083D082F8E4937012740193700DA3E6
:10073300A393F8740193F5828883E4737402936836
:1007430060EFA3A3A380DFE4F523FBFAF97840125B
:1007530002478F278E268D258C24C201122AAFAF24
:1007630027AE26AD25AC24120B878F23E523600328
:10077300020A557D527F137E011235A58F2812354B
:10078300DFC3EE9427501BE528C3940E50140528AD
:100793000528E528FB7A007D527F137E0112336022
:1007A30080DC1218601235A58F281235DFC3EE9452
:1007B300275015E528C3941E500E05280528E52863
:1007C30012185D12336080E27FFA7EED7DEB7CBA16
:1007D30012187212188412180D79A0784112024768
:1007E3008F478E468D458C447F007E007D207C4163
:1007F3001223E0C004C005C006C0071235DFAC06F3
:10080300AD07E41203627B817A047935783F1201E4
:100813003ED003D002D001D00012013E12039B8EC2
:10082300218F221218CC1218721202E460054003C1
:100833000209E7C2027F667E667DA61217BC7FE2CD
:100843007EB87D007C4E1200498F438E428D418CD1
:1008530040121AD88F23E5236003020A55C2027F90
:10086300667E667DA67C3F12187212013E8F438E10
:10087300428D418C40E4F5441234AE7F407E547D7A
:10088300897C4B1218721202E4504E753A08753B7C
:10089300007DA07F17120B5864807014120B3DE586
:1008A30028D39401400AE52813F528120AF680EFAD
:1008B300E5236481701C120B3DE528C3941F507B14
:1008C30074042528F528D3941F5070E528120AF6DE
:1008D30080E7E5236065020A55753A01753B007DA3
:1008E300707F16120B586480701E120B7BE528D3A1
:1008F300940040141528120B491235DFC3EF9522DB
:10090300EE952150E8E4F523E52364817026120B6C
:100913007BE528C3941F50230528E528941F501B0B
:10092300120B491235DFD3EF9522EE952140E2E415
:10093300F5238007E5236003020A55120B186003B1
:10094300020A55120B667D107F137E011235A58FA7
:100953002AE52A64036005E52AB402121217B67F5A
:10096300887E457DC87C4E12180D7920800DE52ABE
:10097300B401131217B6121805797078C11217FF54
:100983008E288F29800280337BFF7A0FE4FDFCAF32
:1009930029AE281217AE7DB07F127E01123360E5B7
:1009A3002AD3940140071218678F2B8014E52AB4C9
:1009B3000109121867EF04F52B8006752309020A53
:1009C30055AF2B7E007B0F1217A97DFC7F127E0192
:1009D3001233601218671219181217A912192A1262
:1009E30033608008120B187069120B66753A107524
:1009F3003B00AB22AA217DB07F127E01122C5B8FBC
:100A030023E523704D7F127E011236138E288F2922
:100A13007F177E011236138E2A8F2B7F1A7E0112C7
:100A230036138E2C8F2D7F167E01123613EE54074C
:100A3300F52E8F2F7D327F157E011235A58F307DE8
:100A4300FD7F187E011235A58F3112192A1235A5A3
:100A53008F32D201122AAFE5236002FF22AD29AC07
:100A6300287F127E011237AEAD2BAC2A7F177E0191
:100A73001237AEAD2DAC2C7F1A7E011237AEE52EA8
:100A83004480FCAD2F7F167E011237AEE531C433AF
:100A930054E04401FC748CFD7F187E011237AEE5EF
:100AA3003275F020A4ACF04410FD7F147E011237A0
:100AB300AE7B947A027DE57F197E01123360E530C7
:100AC300FB7A007D327F157E011233607F207E002A
:100AD3001236138E338F34E5335455FCAD347F20F7
:100AE3007E001237AEAD34AC337F207E001237AEBA
:100AF3007F0022FB7A007DFB7F167E011233607537
:100B03003A08753B00AB22AA217DA07F177E011214
:100B13002C5B8F2322C202AB27AA26A925A8247FF8
:100B2300E27EB87D007C4E1200498F438E428D4198
:100B33008C40121AD88F23E523227DFB7F167E017A
:100B43001235A58F2822E528FB7A007DFB7F167ED0
:100B53000112336022AB22AA217E01122C5B8F2368
:100B6300E52322C202852743852642852541852424
:100B730040E4F5441234AE227DFB7F167E0112352C
:100B8300A58F28228F388E378D368C357F207E00B7
:100B93001236138E398F3A7D107F137E011235A5DD
:100BA3008F3B7D407F197E011235A58F3C903A5DC6
:100BB3001217D51217921202E44013121923903A16
:100BC300611217DB1217921202E4600540037F08DB
:100BD300227E3B7F5D123135E53B7D107F13120F83
:100BE30070E53CB41F047B168003E53CFB7A007D73
:100BF300407F197E01123360E4FFFE7DA07C411229
:100C030017921217EB8F3D1218BF8F3DAC3D121890
:100C13002212004D122702EF600122120F621235D9
:100C23006BC2027543E27542B875410075404E12BE
:100C33001AD8EF6001227B027A001218E2123360A5
:100C430012356BD2027543567542217541037540C7
:100C53004E121AD8EF600122AD3AAC397F207E00E4
:100C63001237AE1236ABD202754380754296754188
:100C73001875404BE4F5441234AEC202E4F543F573
:100C830042F541F540F5441234AE1218CC121792D6
:100C93001202E4600250137B017A00120F58E4FB46
:100CA300FA120F797B0F7A008073E53B64036005CA
:100CB300E53BB4021C1217927F887E457DC87C4EAB
:100CC30012180D792078C11217FF12189B8F3F80DD
:100CD3001FE53B640170161217921218057970789C
:100CE300C11217FF12189BEF04F53F80037F0922FF
:100CF3007BFF7A0FE4FDFCAF3EAE3D1217AE120F41
:100D030058AF3FEF3395E0FE7B0F1217A9120F790F
:100D1300AE3DAF3E12189F1219181217A912192AC5
:100D2300123360E4F53DE53CC394155003753D0172
:100D3300E53CC3940D5003753D02E53CC394085054
:100D430003753D03E53D7D607F1A120F70E53C7529
:100D5300F00A84FCE41203678F478E468D458C446A
:100D63007F667E667D267C3F1223E0E4FBFA79D71B
:100D7300784312013E7B337AB379DC78C212004D9B
:100D83007B9A7A9979A3784112180D798078411268
:100D930017FF8F3DEF3395E0FE7B1F1217A97DD917
:100DA3007F1A7E011233607F407E547D897C4B1213
:100DB30017921202E44003020E74E4FBFA7D227FD1
:100DC300157E01120F47E4FBFA120F2D1217C67F8F
:100DD300FC7EBE7D0012180B79CE78C21217FF8EEF
:100DE3003D8F3E7BFF7A071217AB7DA07F177E01F5
:100DF300123360753D0512178A12013E7BC07AE1FA
:100E03007964784B1202E460054003753D041217C0
:100E13008A12182E1202E460054003753D0312176F
:100E23008A12013E7B807A967998784A1202E460AE
:100E3300054003753D0212178A12013E7B007A1B9F
:100E43007937784A1202E460054003753D011217B1
:100E53008A12013E7B007AE679AA78491202E4609D
:100E6300054003E4F53DE53DFB7A007DDB7F17801C
:100E73007E1218CC1217921202E47F1512185460D6
:100E8300025061123360E4FBFA7D337F157E011259
:100E930033607B017A00120F2D1217C67F5E7ED05E
:100EA3007DB212180B794878C21217FF8E3D8F3E20
:100EB3001217A77D707F167E0112336012178A12F4
:100EC300013EE4FBFA7920784112024712039BEFBB
:100ED30024FDF53DFF3395E0FE7B081217A97DA89D
:100EE3007F16800B120F477B027A007DFD7F187EF1
:100EF30001123360E53A54036402702BFBFA7D114F
:100F03007F82FE123360120F621219317F0D7E0150
:100F13001233607DEE7F00121938123360AB3AAAA8
:100F2300391218E21233607F00227DFD7F187E01A3
:100F33001233607F667E667DA67C3FAB38AA37A9F5
:100F430036A835221233607B017A007D337F157E0C
:100F530001123360227DB07F127E01123360227B47
:100F6300017A007D107F207E0012336022FB7A001D
:100F73007E01123360227DFC7F127E0112336022D8
:100F83008F248E238D228C21903A65121814400AE7
:100F9300903A71121814600540037F0A2212192334
:100FA300AF24AE23AD22AC211202478F2A8E298DA6
:100FB300288C27903A69121814601B4019903A6DD7
:100FC3001218145011121923903A6D1217DB8F2A3D
:100FD3008E298D288C27D201122AAFAF2AAE29ADD4
:100FE30028AC27121354EF6001227E041213497EAA
:100FF300021213491235DF8E258F2612186012351F
:10100300A58F2BC3E5259427501AE52BC3942B50AA
:1010130013052BE52B12185D1233601235DF8E2575
:101023008F2680DF1217D212190D600540030210BC
:10103300EBC200752B051212525035C31217E25042
:1010430012121890400DE53115317002153012124D
:10105300C380E8C31217E25013E5314530700D1217
:1010630012D87D701213151218E98050C2008051F6
:101073001217E1404C1217E14016E531941F121884
:1010830094500D0531E5317002053012130180E5EE
:101093001217E1401AE531641F453070121212D85D
:1010A3007D701212E71218E97E011233608002C2CA
:1010B300000531E5317002053012183A7E01123312
:1010C30060152B7D7012133D70030211ADF4700394
:1010D3000211AD2000030211ADC3E52B648094809F
:1010E30040030210390211ADC200752B057B027A51
:1010F300007D607F1A7E01123360121252503AC390
:101103001217E25012121890400DE531153170029A
:1011130015301212C380E8C31217E25018E53145A7
:1011230030701212132E7DF81213158F32EFFB7DE0
:10113300F87F098055C20080561217E140511217FB
:10114300E14016E531941F121894500D0531E53135
:101153007002053012130180E51217E1401FE531DB
:10116300641F4530701712132E7DF81212E78F3269
:10117300EFFB7DF87F097E011233608002C2000518
:1011830031E5317002053012183A7E0112336015D1
:101193002B7DF812133D6012F4600F30000CC3E591
:1011A3002B6480948040030210FD7DC87F0A7E017A
:1011B3001235A58E2D8F2E7F097E011236138E2FA9
:1011C3008F30D201122AAFAB2EAA2D7DC87F0A7EA3
:1011D300011233607F057E011236138E2BEF54E923
:1011E300F52C1217D212190D6002500F432C101256
:1011F30019317F0B7E011233608003432C067D8CF3
:101203007C317F067E011237AE7D8C7F077E011213
:1012130037AEAD30AC2F7F097E011237AEAD2CACAB
:101223002B7F057E011237AE7F207E001236138E90
:10123300318F32E5315455FCAD327F207E001237B9
:10124300AEAD32AC317F207E001237AE7F0022E498
:10125300FBFA7D417F407E02123360E4FBFA7D415D
:101263007F407E041233601235DF8E2C8F2DAC2C21
:10127300AD2DE41203627B817A047935783F120144
:101283003E12039B8E2E8F2F7B017A007D417F4080
:101293007E021233607B017A007D417F407E04121F
:1012A30033601235DF8E258F267DC87F0A7E0112BB
:1012B30035A58E308F31C3E526952FE525952E2252
:1012C300AB31AA307DC87F0A7E011233601235DF4D
:1012D3008E258F2622D2007B10FA7DC87F0A7E01DD
:1012E300123360227F097E011235A5EF24F6FFEE4B
:1012F30034FFFE7BFF7A00E4FDFC1236D322FBAA07
:10130300307DC87F0A7E011233601235DF8E258F50
:1013130026227F097E011235A5EF2419FFE43EFE44
:101323007BFF7A00E4FDFC1236D322D2007B10FA55
:101333007DC87F0A7E01123360227F097E01123548
:10134300A58F32E53222E4FBFA7D417F4012336000
:10135300228F378E368D358C341218E21235A58ED6
:10136300388F397E3C7F451231351217D212187BE4
:101373001202E4600540030214237FCD7ECC7D4C32
:101383007C3F12187B1218841218F67D447F0512D5
:1013930019381233607D221215A47D111215A4127F
:1013A30019317F0B1215587BCE7A4079E878B81241
:1013B300013EC004C005C006C0071215747B957AB0
:1013C300B77915782512013ED003D002D001D000A1
:1013D30012004DC004C005C006C0071215AF7B75CF
:1013E3007AEC7935783B12013ED003D002D001D09C
:1013F3000012004DC004C005C006C0077FB47E4E76
:101403007DA87C41121902D003D002D001D0001272
:10141300004D7B157AA3794112179B7D700214C688
:10142300121887AF37AE36AD35AC341218F6E4FB7D
:10143300FA7D447F057E011233607F051218541232
:1014430033607B017A007D117F051215587B347A56
:101453000A795D78B912013EC004C005C006C00711
:101463001215747B667A277994783512013ED0037E
:10147300D002D001D00012004DC004C005C006C088
:10148300071215AF7BAC7A0D799C783C12013ED0E4
:1014930003D002D001D00012004DC004C005C00625
:1014A300C0077F437E727DB77C3F121902D003D001
:1014B30002D001D00012004D7BC37AC7793E1217C8
:1014C3009B7DF87F097E01123360E4FFFE7DA07CE3
:1014D3004112187B1217EB8F3A1218BF8F3AAC3AAE
:1014E30012182212004D122702EF6001227B011213
:1014F300158B7B0212158BAB39AA381218E2123303
:10150300601236ABD20275430075422475417412E2
:1015130015C5D2028537438536428535418534402A
:101523007544011234AEC2027543007542BA754167
:101533005B1215C5C2027F007E507DC37CC71218A3
:101543007B12004D8F438E428D418C4075440112B6
:1015530034AE7F00227E01123360E4F547F5467511
:101563004540754440AF3FAE3EAD3DAC3C1223E039
:1015730022E4F547F546754580754440AF3FAE3EDE
:10158300AD3DAC3C1223E0227A007D107F207E002B
:101593001233607B017A007D117F1C7E0112336060
:1015A30022E4FBFA7F057E0112336022E4F547F55E
:1015B30046F545754440AF3FAE3EAD3DAC3C1223CE
:1015C300E022754049E4F5441234AE22E4F557F5C0
:1015D30058F55B755C80F559755A80F55D755EFF4E
:1015E3003004137554017555217556A3FBFA7D21FB
:1015F3007F1C7E01801175540075558B755681E4EF
:10160300FBFA7D217F86FE123360E4FBFA12177921
:10161300BF03037F01227BFF12174EEF70037F018D
:1016230022E4F55F121761756040E5606041122E98
:10163300482457F8C000E6FE08E6FFEF4560D000F7
:10164300A60608F6121761A20492051237FBBF0320
:1016530016122E482457F8C000E6FE08E6FFEF6591
:1016630060D000A60608F6E560C313F56080BB12E0
:101673002E482457F8E6FE08E6FF122E482459F8B0
:10168300A60608A607122E482459F8E6FA08E6FB30
:101693004A6026121779EF6402600F122E4824590C
:1016A300F80806E618701206800F122E482459F81F
:1016B30008E6161870CF1680CC055FE55FC3940269
:1016C3005003021627E55E24FFFFE55D34FFFEEFBE
:1016D300B55814EEB55710C3E55C955AFFE55B9515
:1016E30059A2E713EF8034C3E558955AFDE55795A2
:1016F30059FCC3E55C955EFFE55B955DFED3EF9D0D
:10170300EC6480F8EE648098400CEEA2E713EF13CC
:10171300255EF55F800AECA2E713ED13255AF55F0A
:10172300E55FFB12174EEF64026010055FE55FFB98
:101733007A00AD56AF55AE54123360A2049205122F
:1017430037FBBF02037F00227F01227A00AD56AF31
:1017530055AE54123360A20492051237FB22E55FA3
:1017630025E025E02457F8E6FA08E6FBAD56AF5529
:10177300AE5412336022AD56AF55AE54123360A24D
:101783000492051237FB227F667E667DA67C3FAB03
:1017930038AA37A936A8352278C212004D12039B06
:1017A3008E3A8F3B7BFF7A00E4FDFC1236D3AA0608
:1017B300AB07227FEC7E517D387C3FAB27AA26A95D
:1017C30025A82412013EA804A905AA06AB07229066
:1017D3003A69E4FBFAF978401206F8020247D3E5C6
:1017E30026952FE525952E2212013E7B007AC87996
:1017F3002F784C120247E4FBFAF9783F12004D02AE
:10180300039B7FBB7EEE7DA07C4F120247E4FBFA75
:10181300221206F8AB24AA23A922A8210202E4E497
:101823001203677B007AC8792F784C12013E7B80C4
:101833007A967918784B22FFAE307B1F7A00E4FD4D
:10184300FC1236D38E308F31AB31AA307DC87F0A7C
:10185300227B017A007D227E0122FB7A007DFA7FC2
:10186300087E0122AE28AF297C007D6402059CAB73
:1018730027AA26A925A82422AB37AA36A935A83436
:101883002212013E7B007A247974784922E531944F
:1018930000E53064809480228E3D8F3E7C007D6421
:1018A3000205F1C3E53D9541F53DE53C9540F53C29
:1018B30022AB3DAA3CAD37AF36AE35227E007B0D61
:1018C3007A007D027C000236D37F607EFE7D4D7CF4
:1018D3004C22E541253DF53DE540353CF53C227D77
:1018E300107F207E00228E328F33AB33AA327D707D
:1018F3007F09221202478F3F8E3E8D3D8C3C22ABE7
:101903003FAA3EA93DA83C02013EAB2AAA29A92829
:10191300A8270202E4C3740F9FFFE49EFE7B0F22FD
:10192300E4FBFAF97840227D857F147E01227B0156
:101933007A00E4FD227B017A007E01227F207E0073
:101943001236138E2B8F2C7E3A7F49123135E52CBC
:10195300540364017006FBFA7D228005E4FBFA7DE3
:10196300117F82FE12336020011E121ACD7016EF12
:1019730014600924FE600504700B8021121AA87BF1
:10198300017A0080207F0622121ACD7023EF1460A3
:101993000C24FE701B121AA87DBB121A9C7DAA127E
:1019A3001A9CE4FBFA7DBB7F037E01123360800344
:1019B3007F062212230812336012237D1235A5EF0E
:1019C3004E702D121AB512356BD202122804C004C0
:1019D300C005C006C0071222CA1223A9D007D00629
:1019E300D005D00412004978CB122369C202803B90
:1019F3007B0112230A12336012379240037F0322C2
:101A0300C2021228048F308E2F8D2E8C2D122308A4
:101A130012336012356BD2021222CAAB30AA2FA93D
:101A23002EA82D12004D784B122369121AD88F2A33
:101A3300E52A6002FF22121AC11236AB1232568F08
:101A43002AE52A600122120003D20275434075423F
:101A53005475410975404BE4F5441234AE1222C863
:101A63001222F11234AEE52C540364027028121AC8
:101A7300B51223B97F0D7E011233607B017A007D9D
:101A8300EE7F007E01123360E4FBFA7D117F82FE5C
:101A9300123360121AC17F00227B017A007F037E1A
:101AA3000112336022E4FBFA7DAA7F037E01123325
:101AB30060227B01FA7D107F20FE12336022AD2C61
:101AC300AC2B7F207E001237AE227D877F0D7E01F7
:101AD3001235A5EE227F207E001236138E448F45E9
:101AE3007A003002047B0280027B017D107F207E1E
:101AF30000123360755207AF52123823AC06AD079C
:101B0300E4120362AB43AA42A941A84012013E8FEB
:101B1300498E488D478C467F667E7F7D62122E3BC1
:101B2300400D7F267EE57DE5122E3B60054003D503
:101B330052C5E55224FFFBE434FFFA7D867F1F7E06
:101B4300011233607FAC7EE97DA3122E3B7F0060E0
:101B53000440027F018F52EFFB7A007DAA7F1C7E37
:101B630001123360E5522401FDE433FCE412036205
:101B7300AB19AA18A917A81612013E122E32AF49A3
:101B8300AE48AD47AC461202478F518E508D4F8CF5
:101B93004E12039BE412035D122E32AF51AE50ADD1
:101BA3004FAC4E120049122E7A122EBA8F4D8E4C24
:101BB3008D4B8C4A7CC0AB51AA50A94FA84E122E14
:101BC3005A7F1E7E01123360AF4DAE4CAD4BAC4A13
:101BD300122EA57F1E7E01123360E54DFFE54CFEFC
:101BE300AD07AC067F1D7E011237AEC2037549FFF8
:101BF300E4F546E546121C62D2041215CFEF702AB3
:101C03007DA37F217E011235A58F4AEF2480FFE457
:101C130034FFFE1238428F4BE54BC395495009857B
:101C23004B49854647854A48D2030546E546C39452
:101C33000340C0E547121C62E548FB7A007DA37FA1
:101C4300217E01123360AD45AC447F207E00123704
:101C5300AE2003087F033002027F04227F0022FBB1
:101C63007A007D217F217E01123360227F207E0056
:101C73001236138E228F23C201122AAFA2009201C1
:101C830012193F8F21E5216003021D1C122D2C2008
:101C930000297D877F0D7E011235A5BF020C7D557E
:101CA300121DD6E4FBFA7D33800A7D66121DD6E44D
:101CB300FBFA7D447F0D7E01123360122308123339
:101CC3006012237D1235A5EF4E701BFA12237B128F
:101CD30033607B0112230A123360E4FBFA7D117F28
:101CE3001C7E01123360121DECAF15AE14AD13ACA4
:101CF30012A20092011229CE8F21E521701B7DDDF6
:101D0300121DE11223131233601222C878471222E4
:101D1300F31234AEC2011225FD903CD31222E99096
:101D23003CD5E493FD1235A58E248F25903CD61225
:101D330022E91223B21235A58E268F27903CCA12B0
:101D430022E9903CCCE493FD1235A58E288F29D24D
:101D530001122AAFE5225455FCAD237F207E0012E9
:101D630037AE121DECE5216002FF22903CD3122214
:101D7300E9903CD5E493FDAB25AA24123360903C53
:101D8300D61222E91223B2AB27AA26123360903C63
:101D9300CA1222E9903CCCE493FDAB29AA28123362
:101DA30060122345123360E52330E007E4FBFA7D3C
:101DB300668005E4FBFA7D777FC07E051233607D84
:101DC30020121DE1E4FBFA7D887F0C7E0412336050
:101DD3007F0022E4FBFA7F0C7E0112336022E4FBD6
:101DE300FA7F0C7E0412336022AD23AC227F207E67
:101DF300001237AE227F207E001236138E2A8F2BDD
:101E0300E52B540364017006FBFA7D448005E4FB73
:101E1300FA7D337F82FE1233607E397F7112313552
:101E2300120003123256EF6001227B0112230A12C1
:101E3300336012356BD202122804C004C005C006F9
:101E4300C0071222CA1223A9D007D006D005D00496
:101E53001200497B007A24797478C912004D8F2FC0
:101E63008E2E8D2D8C2CC202122372121AD8EF6083
:101E73000122E52B30E11EE4FBFA7D117F82FE1285
:101E830033601223B97F0D7E011233607B017DEE37
:101E93007F00121F471223081233607A0012237B3C
:101EA30012336012379240037F0422AD2BAC2A7F9A
:101EB300207E001237AE1236ABD2021222CA122291
:101EC300FC1234AE7DBA7F037E011235A58F2C3010
:101ED300012FE4FBFA7D777F0C7E01123360E52C42
:101EE300B401087B017A007D878045E52CB4020E9E
:101EF3007B037A00121F3DE4FBFA7D1180327F07DA
:101F030022E52C64016009E52C640260037F07224B
:101F1300E52C2401FBE433FA121F3DE52C6403FB9B
:101F23007D657F0C121F47E52C6403FB7A007D431C
:101F33007F0D7E011233607F00227D877F0D7E013E
:101F4300123360227A007E01123360223E9248DA15
:101F53003ECCCCCD3F2AAAAB400000003F8000001E
:101F63003F9837F03FB504F33FD744FC3E31721737
:101F73003EB172173F0515913EDE5BD9D201800257
:101F8300C201EDD2E7F8CD33EC3304700BBD80050D
:101F930092D502041102040740FBD31460F2F5F05A
:101FA3007C3FEE7A00C39496C8948B40230AC8946E
:101FB30069C8941A401A0AC89468C8941F40110A41
:101FC300C8945AC89425400805F07A00CDC2E7CDDD
:101FD300C0F08C4A8D4B8E4C8F4DEA2323C0E024F6
:101FE3005FF582E4341FF58312070812004DECC03D
:101FF300E0EDC0E0EEC0E0EFC0E01206F8A84AA9A9
:102003004BAA4CAB4D120049D0E0FBD0E0FAD0E034
:10201300F9D0E0B2E7F81202478C4A8D4B8E4C8F11
:102023004D901F4F7403120447A84AA94BAA4CAB07
:102033004D12013ED0E0600F246BF582E4341FF5AE
:102043008312070812004D8C4A8D4B8E4C8F4DD056
:10205300E0C3947FFDE49400FC1203627B187A7260
:102063007931783F12013EA84AA94BAA4CAB4D12D5
:10207300004D30010B7BD97A5B79DE783E12013E4D
:10208300227F207E001236138E218F22C201122A54
:10209300AFA2009201121DF88F23E5237040122D89
:1020A3002CA20092011221AC8F23E5237030122D54
:1020B3002C1222C87B007ABA795B78491222F91272
:1020C30034AE1224F7C2027543007542BA75415B00
:1020D300754049E4F5441234AED2011225FD903C1B
:1020E300CD1222E9903CCF12219E8E248F25903C65
:1020F300D01222E9903CD212219E8E268F27903C4B
:10210300C71222E9903CC9E493FD1235A58E288FAE
:1021130029D201122AAFE5215455FCAD227F207E3E
:10212300001237AEAD22AC217F207E001237AEE520
:10213300236002FF22903CCD1222E9903CCFAB25D5
:10214300AA241221A5903CD01222E9903CD2AB27BD
:10215300AA261221A5903CC71222E9903CC9E49318
:10216300FDAB29AA28123360122345123360E522FE
:1021730030E007E4FBFA7D448005E4FBFA7D557FFC
:10218300C07E051233601223CB123360E4FBFA7D69
:10219300107F087E021233607F0022E493FD123524
:1021A300A522E493FD12336022752A50752B007D1E
:1021B300221223151233601223131233601222C822
:1021C300E4FBFAF9784012013E7B007ABA795B7836
:1021D300491222F91234AE7D407F197E011235A5D2
:1021E3008F2C30010EE4F52DE52D7D967F13122201
:1021F300BF80367D527F137E011235A58F2D802936
:102203001223D64003022295E52DC3940F40030207
:102213002295052DE52DFB7A003001047D96800281
:102223007D527F137E011233601235DF8E2E8F2F86
:1022330080CEE52CC394195061E52D640F705B12B9
:1022430023D65056E52CC39419504F052CE52C7D0D
:10225300407F191222BF1235DF8E2E8F2FAC2EAD89
:102263002FE4120362C004C005C006C007AC30AD42
:1022730031E41203621223A9D007D006D005D0049B
:102283001202477B667A667986783F1202E460021F
:102293005008852E30852F318098C3E52F9421E592
:1022A3002E940B50057E007F05227D771223521258
:1022B3003360122350123360E4FEFF22FB7A007E68
:1022C3000112336022C202AF15AE14AD13AC12E497
:1022D300FBFA79A07840020247E53D25E024D9F5D1
:1022E30082E43438F583E493FE740193FF2278C7C4
:1022F3007B007A5079C312004D8F438E428D418CFF
:1023030040E4F544227B027A007D107F207E002288
:102313007D77E4FBFA7F0C7E042278427C007D000B
:102323007BFF7E007F03020564E975F0288475F066
:1023330018A4FFE92400FDE43405CD2FFFED35F0AB
:10234300FE227B017A007DFF7FC07E05227D227BFA
:10235300017A007F0C7E0422D3903A5B740193953B
:102363002FE493952E227B407A54790912004D8FE6
:10237300438E428D418C40227B017D667F1C7E0112
:1023830022E53D25E024D9F582E43438F583740150
:102393009322C3E54B954DE54A954C22C3E54295FF
:1023A30044E541954322A804A905AA06AB07229058
:1023B3003CD8E493FD227B017A00E4FD22FEC3EFC7
:1023C3009401EE64809480227B017A007D337F0840
:1023D3007E0222C3E52F952BE52E952A228F438E6D
:1023E300428D418C40E4FFFE7D807C3FAB43AA429B
:1023F300A941A8401202E47009AF43AE42AD41AC1B
:102403004022AF43AE42AD41AC4012041CFBAF4788
:10241300AE46AD45AC4412041CFFBF0108E4FFFE09
:102423007D807C3F22EF64046022EB6404601DBB6B
:102433000127E4FFFEFDFCAB47AA46A945A84412C9
:1024430002E460084006E4FFFEFDFC2274FFF5474A
:10245300F546F545F5440224EEE4F548F549FFFE5B
:10246300FDFCAB43AA42A941A8401202E4504BAF82
:1024730047AE46AD45AC4412039B8E488F49AC48EA
:10248300AD49EC120362C8ECC8C9EDC9CAEECACBA8
:10249300EFCBAF47AE46AD45AC44120049E4FBFA7F
:1024A300F9F81202E470A5AF43AE42AD41AC40125D
:1024B30004368F438E428D418C40AF43AE42AD41D3
:1024C300AC40121F83AB47AA46A945A84412013E5C
:1024D3001230D38F478E468D458C44E54930E00B4F
:1024E3001204368F478E468D458C44AF47AE46ADBA
:1024F30045AC442212230C1235A58F3C1223B9FF9D
:102503007E01123360E4FBFA7D887F087E0212337A
:10251300601223131233601223CB1233601223454C
:10252300123360752CA07535A0E53CB40117752AEC
:1025330005752BC37533057534C47D441225F2E448
:10254300FBFAFD8016752A05752BC57533057534A1
:10255300C67D551225F2E4FBFA7D117FC07E05127C
:102563003360E4FDFCAF2BAE2A1232DFE4FDFCAF97
:1025730034AE331232DFE4F52DF52EF536F537F5AB
:102583003D1222DCC3E52E9FFFE52D9EFE7BFF7AE5
:10259300037D007CFC1236558E2F8F301223842549
:1025A3002EFFE493352DFE1236558E318F321222D3
:1025B300DCC3E5379FFFE5369EFE1236558E388F16
:1025C300391223842537FFE4933536FE1236558EB0
:1025D3003A8F3B7B007A00792A122B877B007A00A3
:1025E3007933122B87053DE53DC39403409322E4E1
:1025F300FBFA7FC07E05123360227BFF7A38796154
:102603008B2A8A2B892C783F7C007D007BFF30014D
:102613001C7A3C79CD1223257A3C79D012231D787C
:102623002D7C007D007BFF7A3C79C7801A7A3C7948
:10263300D31223257A3C79D612231D782D7C007D75
:10264300007BFF7A3C79CA122325753400753580E7
:102653007532FF7533807F2D1228EA7DBF1226F86D
:102663007DFF1226F01235DF8E458F467DFF122641
:10267300F87DBFAF43AE421237AE1235DF8E478FC0
:1026830048C3E5469548E545954778367C007D0087
:102693007B0050067A00793F80047A007942122346
:1026A300257DFF7C071226F0753D07753EFF753BC0
:1026B30005753CFF7F361228EAE5312410F535E431
:1026C3003530F534E53124F0F533E53034FFF532B8
:1026D3007F2D1228EAAD3AAC39AF37AE361237AE9A
:1026E300AB31AA30AD2FAF2EAE2D023360AF43AE68
:1026F300421237AE227C07AF40AE3F1237AE228F75
:10270300438E428D418C40122E827F7D7EDA7DACDA
:102713007C4E12024712039B8F4C122E827F287E1F
:102723006B7D6E7C4E120247E4FBFAF9783F120090
:102733004D12039B8F4DE54D254CFFE433C313EF3F
:1027430013F54E25E0FDE433FCE4120362122E82FE
:1027530012013E8F478E468D458C44E54E24FFFB88
:10276300E434FFFA7DA37F891227EB8F4B8E4A8DCA
:10277300498C487CBFAB4BAA4AA949A848122E5A98
:102783007F881227EB12039BE412035D122E32AFF4
:102793004BAE4AAD49AC481200498F4F8E4E8D4D1A
:1027A3008C4CE4FFFE7D807C49AB4FAA4EA94DA81B
:1027B3004C122EBA8F538E528D518C50E4AB07AA14
:1027C300067DF07F87FE123360AF53AE52AD51AC3E
:1027D30050122EA57F887E00123360C2041215CFDB
:1027E300EF7F0060027F02227E00123360AB19AAE2
:1027F30018A917A816AF47AE46AD45AC4412024719
:10280300227F207E001236138E318F327A003002FF
:10281300047B0280027B017D107F207E00123360E7
:102823007DD07F1E7E011235A58E338F347F1D7EB2
:1028330001123613E4FCFDC004C005C006C007FE48
:10284300E534122EB1D003D002D001D0001206B766
:102853008F388E378D368C357DAA7F1C7E011235DD
:10286300A5EF04F5397D867F1F7E011235A5EF04A0
:10287300F53AAD32AC317F207E001237AEAF3A125B
:102883002E27122E9AC004C005C006C007AC39E437
:10289300120367D003D002D001D00012013EC0045E
:1028A300C005C006C007AF38AE37AD36AC35122E03
:1028B30076120247C004C005C006C007E533C4F85A
:1028C30054F0C868FEE534C4540F482404122E6E35
:1028D300D003D002D001D00012004DD003D002D0DB
:1028E30001D00012013E228F4974FFF54AF54BA82F
:1028F30007E82405F8E6F54E08E6F54FA807E824AF
:1029030007F8E6F55008E6F551A807E6F55408E69A
:10291300F555A807E82402F8E6F556FD1229BF8EFF
:102923004C8F4DC3E551954FFFE550954E1223C093
:10293300405E7C007D021205F18E528F5312239567
:10294300500BAD561229BF8E4C8F4D8014AB4FAA3E
:102953004EAD56AF55AE541233601235DF8E4A8FEB
:102963004BD3E5539400E5526480948040221223B4
:1029730095500FC3E5519553F551E5509552F550D8
:1029830080A1E553254FF54FE552354EF54E809323
:102993001223955006AE4EAF4F8004AE50AF51E5B3
:1029A300492403F8A60608A607E5492403F8E6FA2E
:1029B30008E6FBAD56AF55AE54023360AB51AA5097
:1029C300AF55AE541233601235DF228F2D8E2C8D0E
:1029D3002B8C2A7DFA7F087E011235A58F307B016F
:1029E3007A007DDD7F0C7E041233601223131233D1
:1029F30060C202AF2DAE2CAD2BAC2A1222D2122212
:102A0300F11234AE30012675310F800F12235B4073
:102A1300411531E531648094804037E531FB3395CE
:102A2300E0FA7D517401FFFE122AA480DF753102A2
:102A3300801012235B401B05310531E531D3940F20
:102A43005010E531FB7A007D527F137E01122AA4D8
:102A530080E0C3E52E9410500F05300530E5309427
:102A6300395005122A8E80EA12235B400E0530E5A9
:102A730030D3943E5005122A8E80EDC3E52F942166
:102A8300E52E940B7F0050027F0522E530FB7A0090
:102A93007DFA7F087E011233601235DF8E2E8F2F71
:102AA300221233601235DF8E2E8F2F22E4F535F597
:102AB300367F20FE1236138E398F3A7924E9605C13
:102AC30025E02453F582E4343CF583E493F537742D
:102AD3000193F538E925E02455F582E4343CF58388
:102AE300C37401939538E4939537402C3001081251
:102AF3002E13122B7A800FAF38AE37123613122EE5
:102B03000FECF0A3EDF00536E53670020535053818
:102B1300E53870C0053780BC191980A1E4F9E924B0
:102B2300FDFDE434FFFC7F207E001237AE753701D4
:102B330075381C300108122E13122B7A800FAF3810
:102B4300AE37123613122E0FECF0A3EDF00536E577
:102B530036700205350538E53870020537D39423FE
:102B6300E537940140CD09E9640270B2AD3AAC395E
:102B73007F207E000237AEE0FCA3E0FDAF38AE3726
:102B83001237AE228B3E8A3F894074FFF541F542EE
:102B9300900005120652F54685F04590000712068F
:102BA30052F54885F047122C4A8E438F44C3E548BB
:102BB3009546FFE54795451223C0405B7C007D02A7
:102BC3001205F18E498F4A12239FAB3EAA3FA940BB
:102BD3005009122C4A8E438F448014120627FFAEED
:102BE300F0AD46AC451232DF1235DF8E418F42E540
:102BF3004A4549602212239F500FC3E548954AF581
:102C030048E5479549F54780A4E54A2546F546E555
:102C1300493545F545809612239F5006AE45AF468C
:102C23008004AE47AF48AB3EAA3FA940900003EEF5
:102C33008FF012068A120627FFAEF09000031206E9
:102C430052FDACF00232DF120627FFAEF0AD48AC06
:102C5300471232DF1235DF228E358F368D378A38B1
:102C63008B39122D2150028001C392001218B81221
:102C730035A58E3C8F3DE537C4540FFFE537540F20
:102C8300FEC3EF9E04FF123823EF24FFF53FEE341B
:102C9300FFF53E754000754101E54125E0F541E54D
:102CA3004033F5403000051218A680031218D5AB47
:102CB3003FAA3EE4FDFCAF3DAE3C1236D38E3C8FC3
:102CC3003D1218B4123360122D217F0050027F0190
:102CD300A200E433B50713C3E541953BE540953ABC
:102CE30040B77F803000027F8122D3E5419401E524
:102CF3004094004026E54013F540E54113F54112A9
:102D030035DFC3EF9539EE953840051218D58003AA
:102D13001218A61218B412336080CF7F0022123526
:102D2300DFC3EF9539EE953822752A05752BC71247
:102D3300230C1235A58F2CE4FBFAFDFF7E01123321
:102D430060122350123360122345123360E52CB412
:102D530001117D66122DD77D22122DD77D30122DC4
:102D6300ED801A7D77122DE27D33122DE27DC012A4
:102D73002DED7402252BF52BE4352AF52A7FC17E30
:102D830005123613EE54F070F4903CD61222E91279
:102D930023B2E4FBFA123360C201AF2BAE2A122E28
:102DA300C0903CD61222E91223B27BFF7A0712337A
:102DB30060E52B2401FFE4352AFEC201122EC0E494
:102DC300FBFA7D227F0C7E041233601223B9FF7E4F
:102DD30001023360E4FBFA7FC07E0512336022E414
:102DE300FBFA7FC07E05123360227CFF7FC27E0523
:102DF3001237AE22F582E43540F58312071875F0D9
:102E030002E543A4F58285F083020652AC06AD07C2
:102E1300E53625E0FFE53533FE74002FF5827400B7
:102E23003EF58322123823AC06AD07E4120362A8F1
:102E330004A905AA06AB07227C4FAB49AA48A947B8
:102E4300A8460202E4E55F25E025E022AF4EAE4D41
:102E5300AD4CAC4B020247E4FFFE7D8012004D12E5
:102E6300039BAB07AA067DD4222401FDE43EFCE4C8
:102E7300020362E412035DE4FBFA7980784922AB32
:102E830043AA42A941A8402285418285408322E585
:102E93000025E0FFE50022AF19AE18AD17AC16020E
:102EA300024778101206D2AB07AA067D3022540FD0
:102EB300FFE478100206E512013E02039B8E2D8F7C
:102EC3002E3001067E037FFF80047E007F3F8E3914
:102ED3008F3AAF2EAE2D1233DA8E368F378E348F74
:102EE300351235DF8E308F318E328F33E537240143
:102EF300FFE43536123647AC06AD07122F58C3EF41
:102F03009531EE95307FFF50027F018F38752F0882
:102F1300AF38EF3395E0FEE5372FFFE5363E123647
:102F2300478E368F37AD37AC36122F588E308F31F0
:102F3300C3E5319533E5309532500C853032853118
:102F430033853634853735D52FC6AD35AC34AF2E02
:102F5300AE2D0232DFAF2EAE2D1232DF1235DF225D
:102F63007581D0E4F5A27591FFF59075A10775A958
:102F7300FF75A880C2A0D2A13006FDE50A1207247E
:102F83002FA8012FAC022FB0032FB4042FBB052FA2
:102F9300CA062FD9072FE0082FE7112FF0122FF9B8
:102FA300FF00002FFCC200803DC2008042C20080AF
:102FB30002D20012350F8041AF15AE14AD13AC121F
:102FC30012074A8F908032AF15AE14AD13AC1212B4
:102FD3000F838F9080231236F88F90801C1237E274
:102FE3008F908015D2001220848F90800CD2001213
:102FF3001C6F8F908003759005C206022F7B7DA303
:103003007F897E001235A5EF122E6CC004C005C067
:1030130006C007E4FBFAF97840122E9AD003D002D7
:10302300D001D0001202478F568E558D548C537D9C
:10303300D07F887E001235A58E578F587DF07F870D
:103043007E001235A5E4FCFDC004C005C006C00720
:10305300FEE558122EB1D003D002D001D0001206E3
:10306300B7122E76120247C004C005C006C007E59A
:1030730057C4F854F0C868FEE558C4540F48122EDC
:103083006CD003D002D001D00012004DAB56AA552C
:10309300A954A85312013E2233DA929E35B160112E
:1030A300377FE5FE392184893AAEC3FF3C1D955B2A
:1030B3003D6358473E75FDF03F3172183F80000075
:1030C300C2D5020411020407BD80FA50F302040EB4
:1030D300ED33EC330460F17B3B7AAA79B8783F1285
:1030E300013EED33EC3392D5247B5011A2D570DB36
:1030F300500BED448024045004A2D580CEEFFBEEA8
:10310300FAEDF9ECF812039BEFF582F404FC1203D9
:103113006712004DC08290309B7409120456ED3340
:10312300CC33D0F092D525F0A2D57001C313CC13C4
:10313300FD228E408F418F828E83740993F542E581
:1031430042604614F543122E8B122DFEFFAEF0C0E3
:1031530006C007122E01FFAEF0123613E541240616
:10316300122DF7F4FDE5F0F45EFEEF5DFF122E8BFA
:10317300A3A3A3122DFEFDEE45F0FCEF4DFDD007FA
:10318300D0061237AE154280B6122E8B741093F50B
:1031930042E542603114F543E541240A122DF7FF5D
:1031A300AEF0122E8B741193FDE542D39D40067C45
:1031B300007D00800AE541240D122DF7FDACF012CD
:1031C30037AE154280CB22787FE4F6D8FD75816651
:1031D300023211022F63E493A3F8E493A34003F6AE
:1031E3008001F208DFF48029E493A3F85407240C48
:1031F300C8C333C4540F4420C8834004F456800129
:1032030046F6DFE4800B010204081020408090376B
:1032130075E47E019360BCA3FF543F30E509541F5E
:10322300FEE493A360010ECF54C025E060A840B82C
:10323300E493A3FAE493A3F8E493A3C8C582C8CAAA
:10324300C583CAF0A3C8C582C8CAC583CADFE9DE7D
:10325300E780BE1230017B007AC8792F784C1202C6
:1032630047E4FBFAF9783F12004D12039B7B0D7A7A
:10327300007D027C001236558F31E53125E025E0D3
:10328300F5327DBB7F867E001235A5EF64014E705B
:10329300127DCB7F89FE1235A5123823E5328FF0DC
:1032A30084F53275333FE533600FE532C395335010
:1032B30008E533C313F53380EDE533FB7A007D7006
:1032C3007F077E04123360AC31E41203677B007A1C
:1032D300C8792F784C12013E122702228E4B8F4C55
:1032E3008C4D8D4EC3E54C94C7E54B940550067E3B
:1032F300037FFF80047E007F3F8E4F8F50E4F551A4
:10330300F552C3E54D64809480501AE5502401FFC3
:10331300E4354FFEEF4252EE4251E54E2550FFE5B4
:103323004D354F800FE54E2550CFE54D354FCF241A
:1033330001CF3400FE123842E54F5EFEE5505F4296
:1033430052EE4251AD52AC51AF4CAE4B1237AEE5DB
:10335300514480FCAD52AF4CAE4B0237AE8A618B09
:1033630062A9058F828E83123613AD07AC06E9C4BA
:10337300540FFFE9540FFBC3EF9B04FF74FFFEA838
:1033830007088005C333CE33CED8F9F4FFEEF4FE3D
:10339300EFA803088005C333CE33CED8F9F5648E86
:1033A30063E9540FFFE562AE61A807088005C333E4
:1033B300CE33CED8F9FFE5635EFEE5645FFFE564D7
:1033C300F4FBE563F45CFCEB5DFDEC4EFCED4FFDC3
:1033D300AF82AE830237AE8F828E83C3E58294C7FA
:1033E300E583940550067E037FFF80047E007F3FC4
:1033F3008E3B8F3CAF82AE83E4FDFC1237AEAF82CF
:10340300AE837D007C401237AEAF82AE831236139B
:103413008E3D8F3EAF82AE83E53D543FFCAD3E1201
:1034230037AEE53D553BFEE53E553CFFE53C24010B
:10343300FDE4353B553DFCE53E5D4C60077CFF7D7F
:10344300FF12058A221230018F4E8E4D8D4C8C4B0C
:103453007DCB7F897E001235A5122E27122E4F8F2A
:10346300528E518D508C4F7DBB7F867E001235A5C9
:10347300EF4E7017300309AF52AE51AD50AC4F222F
:10348300E4FBFA79807840122E4F2230030AAF4EC4
:10349300AE4DAD4CAC4B8012E4FBFA79807840AF73
:1034A30052AE51AD50AC4F12024722E54475F002C3
:1034B300A4FFAEF07C043002027C027D42EF2DF5C6
:1034C30046EE3CF545A2029203123448122E32AF67
:1034D30043AE42AD41AC40120247E4FBFA79807837
:1034E3004F122EBA8F4A8E498D488C477810120698
:1034F300D2AD07AC06AF46AE451237AEE546240162
:10350300FFE43545FEAC49AD4A0237AEE50CAD0DDF
:10351300FCE4120362E4FBFA797A7844120247C0AE
:1035230004C005C006C007AC0BE4120367D003D088
:1035330002D001D00012004D7B007A2479747849BF
:1035430012013E8F248E238D228C2130000A8F1985
:103553008E188D178C16800C8524158523148522CF
:1035630013852112E4F590227907E925E0249DF5DE
:1035730082E4343CF583E493FE740193FFE925E090
:1035830024ABF582E4343CF583E493FC740193FDAE
:103593001237AED9D57BFF7AB97DF87F207E010241
:1035A3003360A905123613AC06AD07E9C4540F0402
:1035B300FF74FFFEA807088005C333CE33CED8F9C6
:1035C300F4FFEEF45CFEED5FFFE9540FFDEFA80599
:1035D300088005CEC313CE13D8F9FF221238357DE8
:1035E300FF7F007E041237C97F0F7E04123613EF6C
:1035F3007802C333CE33CED8F9F5828E837F0E7E25
:1036030004123613EF5403FFE583FEE5824FFF22D6
:10361300E4FBFAC2A0C2A1EE547FFE123738D2A255
:103623007D10D2A0123719EB25E0FBEA33FA30A361
:1036330003430301C2A0123719DDE7D2A1D2A2AE20
:1036430002AF0322FEC3E4953AFDE49539FCAB3A9D
:10365300AA39C3EF9DEC6480F8EE6480985005AE00
:1036630004AF0522D3EF9BEA6480F8EE64809840B0
:1036730005AE02AF032222C0E0C0D075D000C00067
:10368300C006C0077590FF7F02740A2FF8E6FE7428
:103693000B2FF8A606DFF285800B759000D007D0BC
:1036A30006D000D0D0D0E0327DFF7C7F7F0C7E023D
:1036B3001237AE7D557F007E021237C97D007C80B4
:1036C3007F0C7E021237AE7D667F007E020237C911
:1036D300C3EF9DEC6480F8EE6480985005AE04AFB0
:1036E3000522D3EF9BEA6480F8EE6480984005AE30
:1036F30002AF03222212384E1236138F828E83AF0B
:1037030009AE08123613AD07AC06AF82AE8312378B
:10371300AEC2077F002275650075661F300715D39B
:10372300E5669400E5659400400AE566156670EF6A
:10373300156580EB227D10C2A0123719EE3392A2D9
:10374300123719EF25E0FFEE33FED2A0123719DD51
:10375300E6C2A022E4F561F562FDFCE56225E0F531
:1037630062E56133F5610DBD00010CBC01EDBD9057
:10377300EA2204124A98968004164BEA6000C106B6
:10378300020E002D0208020C0210040BC107007D7B
:10379300DC7F237E011235A5EF64024E7002D32233
:1037A300D2041215CFEFC37001D322AB05AA04C212
:1037B300A0C2A1EE4480FE123738AF03AE02123727
:1037C30038D2A1D2A2228E578F588D59E4FBFA1218
:1037D30033607B017A00AD59AF58AE5702336012A4
:1037E300384E123613123613AD07AC06AF11AE10B6
:1037F3001237AEC2077F00221237573005067E010B
:103803007F2380047E007F8C7DDC1235A522E4F5C6
:1038130059F55A7FC8055AE55A70020559DFF62251
:1038230074017E00A807088005C333CE33CED8F9D0
:10383300FF22E4F557F5587E0A123811DEFB22EE1B
:1038430030E707C3E49FFFE49EFE227590FFD20793
:10385300AF0FAE0E227590FF85800AD206320008A4
:1038630000040000FFFAFFF5FFF0FFECFFEAFFEAB8
:10387300FFECFFF2FFFB000600140022002E0038CD
:10388300003D003A0030001D0003FFE3FFC1FFA02D
:10389300FF85FF74FF72FF80FFA2FFD40014005D59
:1038A30000A700E80118012E012300F4009F00295E
:1038B300FF9AFEFEFE67FDE5FD8CFD6EFD9AFE1A86
:1038C300FEF30022019D03540530071608E80A8918
:1038D3000BDE0CCD0D4903FF00800008008400853A
:1038E30000AE0101011302000201020202080400FA
:1038F3000001F0000001001C000C07FF07FF00009F
:10390300F8FF0007F0001801003C000C07FF07FF59
:10391300F10B010C01120115011601170118011910
:10392300011A040004010402040304040405040648
:10393300040704080409040A040C04400442044371
:1039430088E5403200058180280C218C31802E02CD
:10395300008107FF07FF4000000000000000070090
:103963000000000010012098002000000000FF3834
:10397300DFFF38F1FF390309FF3915FF3943171703
:103983000084008500AE010C010D0113011501191E
:1039930004000001F00000000040000C00000000E3
:1039A300F8FF0007F000001A0040003CC000800050
:1039B30001000101010201030104010501060107E0
:1039C30001080109010A0200020102020208024081
:1039D30004000401040204030407040A040C044061
:1039E30005C005CB020302040205020602070241D9
:1039F30004040405040604080409044105C105C2BE
:103A030005C305C405C505C605C705C805C905CA57
:103A130005CC3408600131800A1200880007318C1C
:103A2300318C042661C1104C008D07FF07FF207005
:103A33000020008107FF07FF4000070010002098C7
:103A4300002000FF2020FF3983FF3993FF39A308AB
:103A5300FF39B3FF3A15311A700049AAE6004CF753
:103A6300F4904A9896804C1896804C3EBC204CF7B4
:103A7300F4900085010D011301140084008B0001F3
:103A83000100000400100400210000070188003C2D
:103A9300001FF83FC1FF008200860087008800896D
:103AA300008A008C010001010102010301040105E8
:103AB3000106010701080109010A010C011501169C
:103AC300011701180119011A02000201020202037F
:103AD300020402050206020702080209024004006A
:103AE300040104020403040404050406040704088F
:103AF3000409040A040C04408003490104000780FC
:103B030000200514067B3409600131800612008809
:103B13000007318C318C042661C1104C88C5000923
:103B23008180280C018C528B2E02008D07FF07FF2A
:103B330000000000000000000000207000000020D2
:103B4300008107FF07FF40000000000000000000A5
:103B530000000000100120380020FF3A75FF3A8171
:103B6300FF3A8D06FF3A99FF3AFB31310082008517
:103B73000100010C010D0084008B80010001000095
:103B83000000001E040021001FFF000700010001C8
:103B9300001EF83FC1FF0086008700880089008A65
:103BA300008C01050106010701080109010A01153D
:103BB3000116011701180119011A0200020102027C
:103BC3000203020402050206020702080240024140
:103BD30004000401040204030404040504060407A6
:103BE30004080409040A040C0440044149010400C4
:103BF300078000200514067B3007318C318C058C3F
:103C030061C1104C000D8180280C618C528C2E02F6
:103C1300008D07FF07FF0000000000000000000008
:103C2300007000200000008107FF07FF4000000034
:103C330000000000000000000000100120380020F8
:103C43000000FF3B6FFF3B7DFF3B8B07FF3B99FF73
:103C53003BEF2B2B0021002F008200820084008485
:103C6300008500850086008C009200A700A800A8AC
:103C730000AD00AE010001040105010A010C0114AD
:103C83000115011A0200020C024002610400040F34
:103C930004400461050005A705C005C0011C011D02
:103CA300011E011F012101220123AD4304000780EE
:103CB30036403404033F067B010ED7010E60020435
:103CC300F80204700203B00403B00202A00201A0D0
:063CD3000402A00401A0A0
:00000001FF
