:100000000232CEE4F9122696E9120022B93CF6E952
:10001000C39478500C122696C374779912002280EC
:10002000EE2225E02496F582E4343AF583E493FC4D
:09003000740193FD123A3B092210
:03003B0002380B7D
:10004300023A8B020407E86480F8E933E83360116D
:100053000460F0ED33EC337009E8FCE9FDEAFEEBF4
:10006300FF220460DED3EB9FEA9EE99DE8C2E78CA2
:10007300F0C2F795F0400CE8CCF8E9CDF9EACEFAF6
:10008300EBCFFB1203D285D0F05804700320D5B315
:10009300E80470075002B2D502041192D5EC046053
:1000A300F7E4CCC0E0C398F8603B94186008400DB7
:1000B300D0E0FB0203E9E4FBFAC9FC8028E830E462
:1000C30006E4C9FBE4CAFCE830E305E4C9CACBFC97
:1000D300E854076010F8C3E913F9EA13FAEB13FBCA
:1000E300EC13FCD8F130F52FC3E49CFCEF9BFFEE3F
:1000F3009AFEED99FDD0E0FBEF4E4D4C701222DBE2
:100103000302040EEC2CFCEF33FFEE33FEED33FD64
:10011300ED30E7EB0203E9EF2BFFEE3AFEED39FD9D
:10012300D0E0FB50130BBB0003020411ED13FDEEF3
:1001330013FEEF13FFEC13FC0203E9EC4D6011E82F
:10014300497017ED33EC3304600DE4FCFFFEFD2230
:10015300E933E8330470F80204071203D258046049
:1001630009E4CC24815006285009020411284003D5
:1001730002040EC0E0EB4A7044B98006D0E0FB02F3
:1001830003FDEF4E701CBD8008EBFFEAFEE9FD8026
:10019300EBE98DF0A4FEE5F0020227E9CDF9EAFED2
:1001A300EBFFEF89F0A4FCE5F0CE89F0A42EFFE489
:1001B30035F0CD89F0A42DFEE435F08067EF4E7065
:1001C30005BD80D780C3EF8BF0A4ACF0EE8BF0A419
:1001D3002CFCE435F0F8EF8AF0A42CE5F038FCE4CD
:1001E30033CB8DF0A42CFCE5F03BF8EE8AF0A42C85
:1001F300FCE5F038F8E433CF89F0A42CFCE5F038C3
:10020300CF3400CE89F0A42FFFE5F03EFEE433C9DE
:100213008DF0A42EFEE5F039CD8AF0A42FFFE5F092
:100223003EFEE43DFD33D0E0FB50070BBB000F0265
:100233000411EC2CFCEF33FFEE33FEED33FD020330
:10024300E9020411EC5D046005E85904700302043B
:10025300071203D2580460F6EC4860F2EC7004FD18
:10026300FEFF22C860DB2481C85009C39860025096
:100273000602040E9850CAF582E9294B4A7005AB71
:10028300820203FD75F0007C1A7880C3EF9BEE9A1F
:10029300ED99400DC3EF9BFFEE9AFEED99FDE84209
:1002A300F0DC23ACF0D0E0FFD0E0FED0E0FDAB8289
:1002B30020E7101BEB60BAEC2CFCEF33FFEE33FEB0
:1002C300ED33FD0203E9E803F830E705C0F075F00C
:1002D30000EF2FFFEE33FEED33FD40B830E7C28071
:1002E300AA74F8CC6480CCC86480C8F58204604FDB
:1002F300C3EB9FF5F0EA9E42F0E99D42F0E89C458E
:10030300F0603C501DE5825FFFE582D313CB5BCBEE
:10031300F42B5582FB50280ABA002409B90020089F
:10032300801DE5825BFBE582D313CF5FCFF4C3135C
:100333002F5582FF50090EBE00050DBD00010CC3F1
:10034300EB9FF5F0EA9E42F0E99D42F0E89C45F010
:100353006007CC4820E701B3EC2275F020800E75CE
:10036300F010800575F0087D007E007F003392D584
:1003730030D5031205CEEC334010EF33FFEE33FEDE
:10038300ED33FDEC33FCD5F0ED22E5F0247EA2D570
:1003930013CC92E7CDCEFF22EDD2E7CD33EC3392EF
:1003A300D524814006E4FFFEFDFC22FCE4CFCECD44
:1003B300CC24E0501174FF80EDC3CC13CCCD13CD0E
:1003C300CE13CECF13CF0470F030D5DE0205CEE9C5
:1003D300D2E7C933E833F892D5EDD2E7CD33EC3326
:1003E300FC5002B2D522EC30E7100FBF000C0EBE5A
:1003F30000080DBD00040BEB6014A2D5EB13FCED5C
:1004030092E7FD2274FFFCFDFEFF22E480F8A2D5F3
:1004130074FF13FC7D80E480EFED33EC3360100454
:10042300700FED547F7005740292E022740422046D
:1004330022E422ED33EC33600A047003BD8004EC44
:10044300B2E7FC22C0E0EFFBEEFAEDF9ECF81201A3
:100453003ED0E0F5F0EFFBEEFAEDF9ECF8120613FF
:10046300A3A3A3A3E8C0E0E9C0E0EAC0E0EBC0E0D7
:10047300C0F012013E120623A3A3A3A312004DD082
:10048300F0D0E0FBD0E0FAD0E0F9D0E0F8D5F0D43A
:1004930022EF8DF0A4A8F0CF8CF0A428CE8DF0A489
:1004A3002EFE22BC000BBE0029EF8DF084FFADF0C1
:1004B30022E4CCF875F008EF2FFFEE33FEEC33FCAB
:1004C300EE9DEC984005FCEE9DFE0FD5F0E9E4CEE1
:1004D300FD22EDF8F5F0EE8420D21CFEADF075F0B0
:1004E30008EF2FFFED33FD4007985006D5F0F222B9
:1004F300C398FD0FD5F0EA22C2D5EC30E709B2D597
:10050300E4C39DFDE49CFCEE30E715B2D5E4C39F44
:10051300FFE49EFE1204A6C3E49DFDE49CFC80035D
:100523001204A630D507C3E49FFFE49EFE22BB015D
:100533000A89828A83E0F5F0A3E022500687F00956
:10054300E71922BBFE07E3F5F009E3192289828A42
:1005530083E493F5F074019322BB0110E58229F53E
:1005630082E5833AF583E0F5F0A3E0225009E9251B
:1005730082F886F008E622BBFE0AE92582F8E2F556
:10058300F008E222E5832AF583E993F5F0A3E993E2
:1005930022F8BB0111E58229F582E5833AF583E868
:1005A300F0E5F0A3F0225009E92582C8F608A6F089
:1005B30022BBFE09E92582C8F2E5F008F222EF4BDF
:1005C300FFEE4AFEED49FDEC48FC22C3E49FFFE445
:1005D3009EFEE49DFDE49CFC22EB9FF5F0EA9E4227
:1005E300F0E99D42F0E89C45F022E8600FECC3136C
:1005F300FCED13FDEE13FEEF13FFD8F122E8600FBD
:10060300EFC333FFEE33FEED33FDEC33FCD8F122C1
:10061300E493FC740193FD740293FE740393FF222D
:10062300E493F8740193F9740293FA740393FB222D
:10063300E493FB740193FA740293F922D083D0827A
:10064300F8E4937012740193700DA3A393F87401EB
:1006530093F5828883E4737402936860EFA3A3A382
:1006630080DFE4F524FBFAF978401202478F288EE5
:10067300278D268C25C20212254BAF28AE27AD2627
:10068300AC25120E618F24E5246003020979122E32
:10069300FB7D527F137E0112379E8F29120A8240FF
:1006A3001AE529940E501405290529E529FB7A003A
:1006B3007D527F137E0112346480E1121AA812372F
:1006C3009E8F29120A824014E529941E500E052993
:1006D3000529E529121AA512346480E77FFA7EED15
:1006E3007DEB7CBA121ABA121ACC121A8379A0784B
:1006F300411202478F4A8E498D488C477F007E0006
:100703007D207C41122330C004C005C006C00712FF
:10071300366CE412035D7B817A047935783F1201EC
:100723003ED003D002D001D00012013E12039B8EB3
:10073300228F23121B07121ABA1202E46005400328
:1007430002090EC2037F667E667DA6121A007FE24F
:100753007EB87D007C4E1200498F478E468D458CB6
:10076300441218638F24E5246003020979C203123B
:100773001AC3121ABA12013E8F488E478D468C4512
:10078300E4F5491235B27F407E547D897C4B121AC1
:10079300BA1202E45051753908753A007DA07F17EB
:1007A300120A5364807014120A38E529D394014065
:1007B3000AE52913F5291209F180EFE52464817014
:1007C3001F120A38E529C3941F4003020856740414
:1007D3002529F529D3941F507AE5291209F180E4DC
:1007E300E524606F020979753901753A007D707FE0
:1007F30016120A5364807021120A76E529D39400F5
:1008030040171529120A4412366C121A0DAE22AF84
:1008130023121A9E50E5E4F524E5246481702D1219
:100823000A76E529C3941F502A0529E529941F5008
:1008330022120A4412366C121A0DAE22AF23E4FCC4
:10084300FDD31205DC40DBE4F5248007E5246003D7
:10085300020979120A136003020979120A617D10F1
:100863007F137E0112379E8F2BE52B64036005E512
:100873002BB402107FEC7E517D38121A00121A7BC2
:100883007920801BE52BB401217FEC7E517D38124A
:100893001A007FBB7EEE7DA07C4F121A837970789D
:1008A300C1121A3A8E298F2A800280327BFF7A0F77
:1008B300E4FDFCAF2AAE291237E67DB0121B3C12D1
:1008C3003464E52BD394014007121AAF8F2C8014A4
:1008D300E52BB40109121AAFEF04F52C8006752439
:1008E30009020979AF2C7E00121A921237E67DFCB9
:1008F300121B3C123464121AAF121A8A1237E6AA78
:1009030006AB07121B671234648008120A13706661
:10091300120A61753910753A00AB23AA227DB07FA4
:10092300127E01122D678F24E524704A7F127E0107
:100933001239138E298F2A7F177E011239138E2BBA
:100943008F2C7F1A7E011239138E2D8F2E7F167EE8
:1009530001123913EE5407F52F8F30121B3512375E
:100963009E8F317DFD7F187E0112379E8F32121BC1
:100973006712379E8F33D20212254BE5246002FFA4
:1009830022AD2AAC297F127E01123A3BAD2CAC2B4F
:100993007F177E01123A3BAD2EAC2D7F1A7E0112DA
:1009A3003A3BE52F4480FCAD307F167E01123A3B83
:1009B300E532C43354E04401FC748CFD7F187E019E
:1009C300123A3BE53375F020A4ACF04410FD7F14DC
:1009D3007E01123A3B7B947A027DE57F197E0112F8
:1009E3003464E531FB121B331234647F0022FB7A3B
:1009F300007DFB7F167E01123464753908753A0059
:100A0300AB23AA227DA07F177E01122D678F24229C
:100A1300C203AB28AA27A926A8257FE27EB87D00BA
:100A23007C4E1200498F478E468D458C44121863C5
:100A33008F24E524227DFB7F167E0112379E8F29AA
:100A430022E529FB7A007DFB7F167E0112346422A6
:100A5300AB23AA227E01122D678F24E52422C20331
:100A6300852848852747852646852545E4F5491287
:100A730035B2227DFB7F167E0112379E8F2922120B
:100A8300366CE4FB7A27F9F8D31205DC228F258E26
:100A9300248D238C22903C9A121A5E400A903CA625
:100AA300121A5E600540037F0A22E4FBFAF97840DC
:100AB300AF25AE24AD23AC221202478F2B8E2A8D95
:100AC300298C28903C9E121A5E60184016903CA216
:100AD300121A5E500E903CA2121A528F2B8E2A8D40
:100AE300298C28C20212254BAF2BAE2AAD29AC2884
:100AF3001211EC752C008F2DE52D452C6003020C93
:100B0300EE122EFB7E04120E567E02120E56123683
:100B13006C8E268F27121AA812379E8F2EC3E526B6
:100B23009427501AE52EC3942B5013052EE52E124D
:100B33001AA512346412366C8E268F2780DF121AA0
:100B43004F121B5C60054003020C0BC200752E059F
:100B5300120D605039C3121A2C5012121AD8400DBC
:100B6300E534153470021533120DD180E8C3121A1F
:100B73002C5017E53445337011120DE6120E4C124A
:100B83001A6C1237E6121B268050C2008051121ACB
:100B93002B404C121A2B4016E534941F121ADC50CA
:100BA3000D0534E53470020533120E0F80E5121A79
:100BB3002B401AE534641F45337012120DE67D7025
:100BC300120DF5121B267E011234648002C2000549
:100BD30034E53470020533120E237E01123464159A
:100BE3002E120E4C8F35E5357003020CD6F47003CC
:100BF300020CD6200003020CD6C3E52E6480948039
:100C03004003020B53020CD6C200752E057B027AF9
:100C1300007D607F1A7E01123464120D605041C35F
:100C2300121A2C5012121AD8400DE53415347002E2
:100C33001533120DD180E8C3121A2C501FE5344529
:100C4300337019120E3D121B7512379E121A6C1255
:100C530037E68F35EFFB7DF87F098052C200805362
:100C6300121A2B404E121A2B4016E534941F121AF7
:100C7300DC500D0534E53470020533120E0F80E5A8
:100C8300121A2B401CE534641F45337014120E3DB9
:100C93007DF8120DF58F35EFFB121B75123464804E
:100CA30002C2000534E53470020533120E237E01BF
:100CB300123464152E121B7512379E8F35E535607D
:100CC30012F4600F30000CC3E52E6480948040035F
:100CD300020C1D7DC87F0A7E0112379E8E308F3134
:100CE3007F097E011239138E328F33D20212254BC4
:100CF300E52D452C6003AF2D22AB31AA307DC87F93
:100D03000A7E011234647F057E011239138E2EEFA1
:100D130054E9F52F121A4F121B5C6002500F432F38
:100D230010121B6E7F0B7E011234648003432F0667
:100D33007D8C7C317F067E01123A3B7D8C7F077E62
:100D430001123A3BAD33AC327F097E01123A3BAD1F
:100D53002FAC2E7F057E01123A3B7F0022E4FBFA83
:100D63007D417F407E02123464E4FBFA7D417F4083
:100D73007E0412346412366C8E2F8F30AC2FAD305C
:100D8300E41203627B817A047935783F12013E12C3
:100D9300039B8E318F327B017A007D417F407E023F
:100DA3001234647B017A007D417F407E04123464F7
:100DB30012366C8E268F277DC87F0A7E0112379EDE
:100DC3008E338F34C3E5279532E526953122AB3434
:100DD300AA337DC87F0A7E0112346412366C8E26D4
:100DE3008F2722D2007B10FA7DC87F0A7E0112343E
:100DF30064227F097E0112379EEF24F6FFEE34FF53
:100E0300FE7BFF7A00E4FDFC1237E622FBAA337D6A
:100E1300C87F0A7E0112346412366C8E268F272215
:100E2300FFAE337B1F7A00E4FDFC1237E68E338F6F
:100E330034AB34AA337DC87F0A22D2007B10FA7DFB
:100E4300C87F0A7E01123464227D707F097E0112FD
:100E5300379E22E4FBFA7D417F40123464228F37B0
:100E63008E368D358C347F207E001239138E388F69
:100E7300397D107F137E0112379E8F3A7D407F1993
:100E83007E0112379E8F3B903C92121A161202E497
:100E9300400D903C96121A161202E4600540037F3F
:100EA30008227E3D7F92123239E53AFB7D107F1393
:100EB3001211C9E53BB41F047B168003E53BFB7DA0
:100EC300407F191211C9AF37AE36AD35AC34123687
:100ED300C7EF6001221211B1123764C2037547E2F2
:100EE3007546B875450075444E121863EF600122CC
:100EF3007B027A001211E2123764D20375475675EA
:100F0300462175450375444E121863EF600122AD07
:100F130039AC387F207E00123A3B1238EBD203758E
:100F2300488075479675461875454BE4F549123563
:100F3300B2C203E4F548F547F546F545F5491235E0
:100F4300B2121B07121A221202E46002500D7D0135
:100F53007C001211DA7B0F7A00807AE53A64036031
:100F630005E53AB40214121A22121A7B792078C1C9
:100F7300121A3A121AE38F3E8027E53A6401701E73
:100F8300121A227FBB7EEE7DA07C4F121A837970EA
:100F930078C1121A3A121AE3EF04F53E80037F096F
:100FA30022AF3EEF3395E0121A911237E6EFF58345
:100FB3007BFF7A0FAF3DAE3C1237E6EE4583FCEF85
:100FC300FD1211DAAE3CAF3D121AE7121A8A12373C
:100FD300E6AA06AB07121B67123464E53B75F00AF9
:100FE30084FCE41203678F4A8E498D488C477D2623
:100FF300121AC5122330E4FBFA79D7784312013E63
:101003007B337AB379DC78C212004D7B9A7A997973
:10101300A37841121A8379807841121A3A7B1F12FE
:1010230011D18F3CAF3B1239A3EFFDAF3CEF25E06D
:10103300FC7F1A7E01123A3B7F407E547D897C4BB4
:10104300121A221202E440030210F17B021211A5CC
:10105300E4FBFA1211BF121AC3121A2212013E8FB5
:101063003F8E3E8D3D8C3CAB3FAA3EA93DA83C7FC5
:10107300FC7EBE7D007C4F12024779CE121A357B6F
:10108300FF7A07E4FDFC1237E68E408F4175420577
:101093007FC07EE17D647C4B121A44500375420489
:1010A3007D187C4B121A4050037542037D987C4A8D
:1010B300121A4050037542027F007E1B7D377C4A23
:1010C300121A4450037542017F007EE67DAA7C49D3
:1010D300121A445003E4F542E54233333354F845DE
:1010E30040FCE541FD7F177E01123A3B807E121BD7
:1010F30007121A221202E46002505C7B011211A54E
:101103007B017A001211BF7F667E667DA6121A22CA
:10111300121A087F5E7ED07DB27C4F120247794857
:10112300121A35121A731237E68F3C121AC3121AA7
:101133002212013EE4FBFA79207841121A837940A6
:1011430078C0121A3A7B081211D18F3DEFFAE53CB1
:10115300FB7DA87F1680107B03121B331234647B44
:10116300027A007DFD7F187E01123464E539540351
:101173006402702BFBFA7D117F82FE12346412111C
:10118300B1121B6E7F0D7E011234647B017A007DE8
:10119300EE7F007E01123464AB39AA381211E27F6C
:1011A30000227A007D327F157E01123464227B0196
:1011B3007A007D107F207E00123464227DFD7F182B
:1011C3007E01123464227A007E01123464227A0092
:1011D300E4FDFC1237E6227F127E01123A3B227DA8
:1011E300107F207E00123464228F3A8E398D388C22
:1011F300377F207E001239138E3B8F3C7E3E7F7AF1
:10120300123239121A4F121B101202E46005400306
:101213000212C57FCD7ECC7D4C7C3F121B10121A6F
:10122300CC121B457D4412145F7D2212143E7D11A6
:1012330012143E121B6E7F0B1213F27BCE7A40798F
:10124300E878B812013EC004C005C006C0071214F6
:101253000E7B957AB77915782512013ED003D0021B
:10126300D001D00012004DC004C005C006C0071253
:1012730014497B757AEC7935783B12013ED003D063
:1012830002D001D00012004DC004C005C006C00743
:101293007FB47E4E7DA87C41121B51D003D002D077
:1012A30001D00012004D7B157AA37941121A388EB2
:1012B3003D8F3E121A731237E6AA06AB077D700202
:1012C3001373121ACFAF3AAE39AD38AC37121B4590
:1012D300E4FBFA7D447F057E011234647D221214FF
:1012E3005F7B017A007D117F051213F27B347A0A4A
:1012F300795D78B912013EC004C005C006C007126B
:10130300140E7B667A277994783512013ED003D088
:1013130002D001D00012004DC004C005C006C007B2
:101323001214497BAC7A0D799C783C12013ED003B0
:10133300D002D001D00012004DC004C005C006C0C9
:10134300077F437E727DB77C3F121B51D003D002CF
:10135300D001D00012004D7BC37AC7793E121A38F0
:101363008E3D8F3E121A731237E6AA06AB077DF83D
:101373007F097E01123464AF3AAE39AD38AC37120F
:1013830036C7EF6001227B011214257B021214255C
:10139300AD3CAC3B7F207E00123A3B1238EBD203CC
:1013A30075480075472475467412146BD203853A49
:1013B300488539478538468537457549011235B221
:1013C300C2037548007547BA75465B12146BC203B6
:1013D3007F007E507DC37CC7121B1012004D8F48C7
:1013E3008E478D468C457549011235B27F00227EAA
:1013F30001123464E4F54AF549754840754740AF36
:1014030042AE41AD40AC3F12233022E4F54AF549E8
:10141300754880754740AF42AE41AD40AC3F1223A3
:1014230030227A007D107F207E001234647B017AA3
:10143300007D117F1C7E0112346422E4FBFA7F05D8
:101443007E0112346422E4F54AF549F548754740B4
:10145300AF42AE41AD40AC3F122330227B017A0054
:101463007F057E0112346422754549E4F54912353E
:10147300B2228F258E248D238C2275260B75271F70
:10148300C208C20012383C7B017A007DFF7F817E57
:10149300001234647B1F7D951216807B047D4012FD
:1014A3001680E52675F004A4FDACF0E52775F04041
:1014B300A4FFE5F04CFEEF4D121673C200D20112E9
:1014C3001E637D007C107F0A7E04123A3B7D661208
:1014D30016687D777F0C7E0412379EEF4E70117B6A
:1014E30001FA7DFE7F0C7E041234647DCC121668F3
:1014F300122EFB30090302165D12366C8F308E2FCD
:101503008D2E8C2DE4FFFEFDFCAB30AA2FA92EA857
:101513002DC31205DC60DCE526D39409500DC3749A
:101523000B952675F003A4F52C8007C3740F95263D
:10153300F52CAF25AE24AD23AC22E412035DC00429
:10154300C005C006C007AF30AE2FAD2EAC2DE412E0
:10155300035DA804A905AA06AB07D007D006D005EA
:10156300D004120247121FF2E4FBFA79A078411269
:10157300013E8F2B8E2A8D298C28123895503C7F63
:10158300007E407D017C00AB30AA2FA92EA82D122E
:1015930005DC4027E52724F4FFE434FFFE7B1F7AB4
:1015A30000E4FDFC1237E68F27E52624FDFFE43433
:1015B300FFFE7B0F1237E68F26806C12389540139F
:1015C30012389560624060E52C241FC39527D3949D
:1015D300004054C3741E952C2527F531FC12036774
:1015E300AB2BAA2AA929A82812004D12039B7B3DE5
:1015F3007A00E4FDFC1237E6EF25E0FFEE33FE74DC
:10160300962FF582743E3EF583E493F5327401938D
:10161300F533540FF526E532C4F854F0C8E533C466
:10162300540F48541FF527AF271239A3EF75320023
:1016330033333354F8F531E52775F040A4FFE53132
:1016430045F0FCE5324FFDE52675F004A4FFEC45BB
:10165300F0FEED4F1216730214F6D20012383C124C
:10166300371DD20822E4FBFA7F0C7E041234642275
:10167300AC064402FD7F267E01123A3B227A007FAC
:101683000F7E0112346422E4F55EF55FF562756343
:1016930080F560756180F5647565FF300513755BD2
:1016A30001755C21755DA3FBFA7D217F1C7E0180A2
:1016B30011755B00755C8B755D81E4FBFA7D217FA1
:1016C30086FE1234647F187EB77DD17C37AB1CAAAB
:1016D3001BA91AA8191230D8C374FF9FF51E74FFF3
:1016E3009EF51DE4FBFA121852BF03037F01227B10
:1016F300FF121827EF70037F0122E4F56612183AF0
:10170300756740E5676041123094245EF8C000E6D7
:10171300FE08E6FFEF4567D000A60608F612183A62
:10172300A2059206123939BF0316123094245EF8CB
:10173300C000E6FE08E6FFEF6567D000A60608F6E0
:10174300E567C313F56780BB123094245EF8E6FEA9
:1017530008E6FF1230942460F8A60608A6071230A4
:10176300942460F8E6FA08E6FB4A6026121852EF62
:101773006402600F1230942460F80806E6187012B1
:1017830006800F1230942460F808E6161870CF16FE
:1017930080CC0566E566C394025003021700E56535
:1017A30024FFFFE56434FFFEEFB55F14EEB55E1072
:1017B300C3E5639561FFE5629560A2E713EF8034AB
:1017C300C3E55F9561FDE55E9560FCC3E5639565E3
:1017D300FFE5629564FED3EF9DEC6480F8EE6480D0
:1017E30098400CEEA2E713EF132565F566800AEC2B
:1017F300A2E713ED132561F566E566FB121827EFE3
:10180300640260100566E566FB7A00AD5DAF5CAE11
:101813005B123464A2059206123939BF02037F00BA
:10182300227F01227A00AD5DAF5CAE5B123464A20D
:1018330005920612393922E56625E025E0245EF893
:10184300E6FA08E6FBAD5DAF5CAE5B12346422AD35
:101853005DAF5CAE5B123464A20592061239392285
:101863007F207E001239138E488F497A003003049B
:101873007B0280027B017D107F207E001234647521
:101883005607AF56123A29AC06AD07E4120362AB12
:1018930047AA46A945A84412013E8F4D8E4C8D4B55
:1018A3008C4A7F667E7F7D62123087400D7F267E65
:1018B300E57DE512308760054003D556C5E556241E
:1018C300FFFBE434FFFA7D867F1F7E011234647FC1
:1018D300AC7EE97DA31230877F00600440027F0164
:1018E3008F56EFFB7A007DAA7F1C7E01123464E5DC
:1018F300562401FDE433FCE4120362AB1CAA1BA9CA
:101903001AA81912013E12307EAF4DAE4CAD4BAC4E
:101913004A1202478F558E548D538C5212039BE407
:1019230012035D12307EAF55AE54AD53AC5212006C
:10193300491230D01230D88F518E508D4F8C4E7C3F
:10194300C0AB55AA54A953A8521230B7AB07AA0685
:101953007DD47F1E7E01123464AF51AE50AD4FACC7
:101963004E1230F07F1E7E01123464E551FFE550C4
:10197300FEAD07AC067F1D7E01123A3BC204754DD6
:10198300FFE4F54AE54A1219F3D20512168AEF70FD
:101993002A7DA37F217E0112379E8F4EEF2480FF85
:1019A300E434FFFE123A7F8F4FE54FC3954D500944
:1019B300854F4D854A4B854E4CD204054AE54AC3B3
:1019C300940340C0E54B1219F3E54CFB7A007DA369
:1019D3007F217E01123464AD49AC487F207E001222
:1019E3003A3B2004087F033003027F04227F002256
:1019F300FB7A007D217F217E0112346422AB28AA69
:101A030027A926A8257C3F12013EA804A905AA06FA
:101A1300AB0722E4FBFAF97840120613120247AB34
:101A230037AA36A935A83422D3E5279532E526957A
:101A33003122E4FBFA78C212004D02039B7F807EC1
:101A430096AB3FAA3EA93DA83C0202E4903C9EE42B
:101A5300FBFAF97840120613020247120613AB256C
:101A6300AA24A923A8220202E4EF2419FFE43EFEDC
:101A73007BFF7A00E4FDFC227F887E457DC87C4E97
:101A8300120247E4FBFA22C3740F9FFFE49EFE7B1E
:101A93000F7A00E4FDFC22AE37AF38E4FCFDC3024D
:101AA30005DCFB7A007DFA7F087E0122AE29AF2A8E
:101AB3007C007D640204A6AB28AA27A926A82522B8
:101AC3007DA67F667E667C3F2212013E7B007A24E0
:101AD3007974784922E5349400E533648094802254
:101AE3008E3C8F3D7C007D640204FBC3E53C954046
:101AF300F53CE53B953FF53B22AB3CAA3BAD36AF0E
:101B030035AE34227F607EFE7D4D7C4C22AB3AAAFB
:101B130039A938A83722E540253CF53CE53F353B5C
:101B2300F53B228E358F36AB36AA357D707F092281
:101B33007A007D327F157E0122AA06AB077F127ED3
:101B430001221202478F428E418D408C3F22AB42CD
:101B5300AA41A940A83F02013EAB2BAA2AA929A862
:101B6300280202E47D857F147E01227B017A00E452
:101B7300FD227DF87F097E01227F207E001239132A
:101B83008E3E8F3F7E3C7F7E123239E53F540364A5
:101B9300017006FBFA7D228005E4FBFA7D117F824A
:101BA300FE12346420022212273D12379EEE701675
:101BB300EF14600B24FE600704700B7B0180027B33
:101BC30002121CCF80277F0622E51213135401FF54
:101BD300C374029FF540FB121CCF12273D12379EA0
:101BE300E51254036F7001EE60037F062212267321
:101BF3001234641226F012379EEF4E702D121CDB46
:101C0300123764D203122830C004C005C006C007CF
:101C130012264A1226BAD007D006D005D0041200E5
:101C23004978CB1226DCC203803B7B011226751256
:101C330034641239C040037F0322C2031228308F59
:101C4300438E428D418C40122673123464123764E2
:101C5300D20312264AAB43AA42A941A84012004D1F
:101C6300784B1226DC1218638F3DE53D6002FF229C
:101C7300121CE71238EB12335A8F3DE53D60012207
:101C8300120003D2037548407547547546097545DC
:101C93004BE4F5491235B212264812265C1235B2CE
:101CA300E53F540364027021121CDB12270B7F0DE6
:101CB3007E01123464122728123464E4FBFA7D1186
:101CC3007F82FE123464121CE77F00227A007DBA01
:101CD3007F037E01123464227B01FA7D107F20FE94
:101CE30012346422AD3FAC3E7F207E00123A3B2289
:101CF3007F207E001239138E2B8F2CE52C54036426
:101D0300017006FBFA7D448005E4FBFA7D337F8294
:101D1300FE1234647E3B7FA6123239120003123363
:101D23005AEF6001227B0112267512346412376464
:101D3300D203122830C004C005C006C00712264AC9
:101D43001226BAD007D006D005D0041200497B0072
:101D53007A24797478C912004D8F308E2F8D2E8C92
:101D63002DC2031226E5121863EF600122E52C3021
:101D7300E117E4FBFA7D117F82FE12346412270B14
:101D8300121E5B1227281234641226731234647AEB
:101D9300001226EE1234641239C040037F0422ADD0
:101DA3002CAC2B7F207E00123A3B1238EBD203126D
:101DB300264A1226671235B27DBA7F037E01123797
:101DC3009E8F2D300150E4FBFA7D777F0C7E01124C
:101DD3003464E52D64016006E52D64027035E51277
:101DE3005403F52EFB7A00121E51E52E24FFFFE467
:101DF30034FFFEEFF4FBEEF4FA7D21121E5BE52DBA
:101E0300147F0070027F01E5121313543F6F602E9D
:101E13007F07227F0722E52D64016009E52D640217
:101E230060037F0722E52D2401FBE433FA121E51E0
:101E33007D657F0C121E447D437F0D121E447F007F
:101E430022E52D6403FB7A007E01123464227D8730
:101E53007F0D7E01123464227F0D7E0112346422D1
:101E63007F207E001239138E358F36C20212254B26
:101E7300A2009202121B7C8F34E5346003021F1E02
:101E8300122EFB122E38300103021F1E20002612D1
:101E9300273D12379EBF020C7D55121FACE4FBFA9F
:101EA3007D33800A7D66121FACE4FBFA7D447F0D0F
:101EB3007E011234641226731234641226F0123730
:101EC3009EEF4E701BFA1226EE1234647B0112262B
:101ED30075123464E4FBFA7D117F1C7E01123464B5
:101EE300AD36AC357F207E00123A3BAF18AE17AD4E
:101EF30016AC15A2009202122ADF8F34E534701B50
:101F03007DDD121FB712267E1234641226487847ED
:101F130012265E1235B2C2021229167DA07F027EFE
:101F23000412379E8E378F387DA07F017E041237CF
:101F33009E8E398F3A7DB07F037E0412379E8E3B8F
:101F43008F3CD20212254BE5346002FF2220012789
:101F5300AB38AA377DA07F027E04123464AB3AAA61
:101F6300397DA07F017E04123464AB3CAA3B7DB073
:101F73007F037E041234641226AF123464E53630D4
:101F8300E007E4FBFA7D668005E4FBFA7D777FC01A
:101F93007E051234647D20121FB7E4FBFA7D887F2F
:101FA3000C7E041234647F0022E4FBFA7F0C7E0172
:101FB30012346422E4FBFA7F0C7E04123464223E62
:101FC3009248DA3ECCCCCD3F2AAAAB400000003F7A
:101FD3008000003F9837F03FB504F33FD744FC3E01
:101FE3003172173EB172173F0515913EDE5BD9D2B0
:101FF300018002C201EDD2E7F8CD33EC3304700B5C
:10200300BD800592D502041102040740FBD314607E
:10201300F2F5F07C3FEE7A00C39496C8948B40238C
:102023000AC89469C8941A401A0AC89468C8941FC5
:1020330040110AC8945AC89425400805F07A00CD87
:10204300C2E7CDC0F08C4D8D4E8E4F8F50EA2323C7
:10205300C0E024D2F582E4341FF583120623120074
:102063004DECC0E0EDC0E0EEC0E0EFC0E0120613BF
:10207300A84DA94EAA4FAB50120049D0E0FBD0E0C7
:10208300FAD0E0F9D0E0B2E7F81202478C4D8D4E5A
:102093008E4F8F50901FC27403120447A84DA94E50
:1020A300AA4FAB5012013ED0E0600F24DEF582E46C
:1020B300341FF58312062312004D8C4D8D4E8E4F27
:1020C3008F50D0E0C3947FFDE49400FC1203627B45
:1020D300187A727931783F12013EA84DA94EAA4F62
:1020E300AB5012004D30010B7BD97A5B79DE783E21
:1020F30012013E2212267712379E8F3D12270BFFC5
:102103007E01123464E4FBFA7D887F087E02123478
:102113006412267E12346412271D1234641226AF11
:10212300123464752DA07536A0E53DB40117752BE7
:1021330005752CC37534057535C47D44122209E435
:10214300FBFAFD8016752B05752CC57534057535A1
:10215300C67D55122209E4FBFA7D117FC07E05126C
:102163003464E4FDFCAF2CAE2B1233E3E4FDFCAF8F
:1021730035AE341233E3E4F52EF52FF537F538F5A4
:102183003E122688E493FE740193FFC3E52F9FFF5D
:10219300E52E9EFE7BFF7A037D007CFC1237E68EE4
:1021A300308F31122688740193252FFFE493352E47
:1021B300FE1237E68E328F33122688E493FE7401C3
:1021C30093FFC3E5389FFFE5379EFE1237E68E394E
:1021D3008F3A1226887401932538FFE4933537FE2E
:1021E3001237E68E3B8F3C7B007A00792B122BC093
:1021F3007B007A007934122BC0053EE53EC394037D
:10220300500302218422E4FBFA7FC07E051234646A
:1022130022752B50752C007D2212268012346412F5
:10222300267E123464122648E4FBFAF97840120140
:102233003E7B007ABA795B78491226641235B27D07
:10224300407F197E0112379E8F2D30010EE4F52E4B
:10225300E52E7D967F1312232780367D527F137ED2
:102263000112379E8F2E802912273340030222FD4D
:10227300E52EC3940F40030222FD052EE52EFB7AC3
:10228300003001047D9680027D527F137E0112345B
:102293006412366C8E2F8F3080CEE52DC394195087
:1022A30061E52E640F705B1227335056E52DC394FE
:1022B30019504F052DE52D7D407F19122327123626
:1022C3006C8E2F8F30AC2FAD30E4120362C004C08C
:1022D30005C006C007AC31AD32E41203621226BA60
:1022E300D007D006D005D0041202477B667A667900
:1022F30086783F1202E460025008852F3185303220
:102303008098C3E5309421E52F940B50057E007F20
:1023130005227D771226C51234641226C312346453
:10232300E4FEFF22FB7A007E01123464228F468E84
:10233300458D448C43E4FFFE7D807C3FAB46AA453C
:10234300A944A8431202E47009AF46AE45AD44ACBC
:102353004322AF46AE45AD44AC4312041CFBAF4A27
:10236300AE49AD48AC4712041CFFBF0108E4FFFEB1
:102373007D807C3F22EF64046022EB6404601DBB1C
:102383000127E4FFFEFDFCAB4AAA49A948A847126E
:1023930002E460084006E4FFFEFDFC2274FFF54AF8
:1023A300F549F548F54702243EE4F54BF54CFFFEAD
:1023B300FDFCAB46AA45A944A8431202E4504BAF27
:1023C3004AAE49AD48AC4712039B8E4B8F4CAC4B86
:1023D300AD4CEC120362C8ECC8C9EDC9CAEECACB56
:1023E300EFCBAF4AAE49AD48AC47120049E4FBFA24
:1023F300F9F81202E470A5AF46AE45AD44AC431202
:1024030004368F468E458D448C43AF46AE45AD446E
:10241300AC43121FF6AB4AAA49A948A84712013E8A
:102423001231D78F4A8E498D488C47E54C30E00BEB
:102433001204368F4A8E498D488C47AF4AAE49AD58
:1024430048AC47228F4A8E498D488C477F7D7EDA80
:102453007DAC12309B798078BF1230BC8F537F28BC
:102463007E6B7D6E12309BF978BF1230BC8F54E5C2
:10247300542553FFE433C313EF13F5552401FFE44D
:1024830033FEEF25E0FDEE33FCE4120362AB4AAA10
:1024930049A948A84712013E8F4E8E4D8D4C8C4B57
:1024A300E555FB7A007DA37F891225328F528E5129
:1024B3008D508C4F7CBFAB52AA51A950A84F1230FC
:1024C300B7AB07AA067DD47F8812253212039BE49B
:1024D30012035D12307EAF52AE51AD50AC4F1200BD
:1024E300498F568E558D548C53E4FFFE7D807C4975
:1024F300AB56AA55A954A8531230D88F5A8E598D6A
:10250300588C57E4AB07AA067DF07F87FE1234642C
:10251300AF5AAE59AD58AC571230F07F887E0012D7
:102523003464C20512168AEF7F0060027F02227EA6
:1025330000123464AB1CAA1BA91AA819AF4EAE4DE6
:10254300AD4CAC4B12024722E4F53DF53E7F20FE35
:102553001239138E418F427924E9605225E0240E0B
:10256300F582E4343FF583E493F53F740193F5403A
:10257300E925E02410F582E4343FF583C374019325
:102583009540E493953F40223002051226288008A7
:10259300122609ECF0A3EDF0053EE53E7002053D81
:1025A3000540E54070CA053F80C6191980ABE4F9C0
:1025B300E924FDFDE434FFFC7F207E00123A3B75E5
:1025C3003F0175401C300205122628800812260997
:1025D300ECF0A3EDF0053EE53E7002053D0540E558
:1025E300407002053FD39423E53F940140D709E9A6
:1025F300640270BCAD42AC417F207E00123A3B3096
:10260300020312371D22AF40AE3F123913AC06ADA1
:1026130007E53E25E0FFE53D33FE74002FF58274A8
:10262300003EF58322E53E25E0FFE53D33FE7400E1
:102633002FF58274003EF583E0FCA3E0FDAF40AECE
:102643003F123A3B22C203AF18AE17AD16AC157951
:10265300A07840E4FBFA02024778C77B007A5079FE
:10266300C312004D8F488E478D468C45E4F54922B1
:102673007B027A007D107F207E00227D77E4FBFAC7
:102683007F0C7E0422E53E25E0240EF582E4343BF4
:10269300F58322E975F0288475F018A4FFE9240076
:1026A300FDE43405CD2FFFED35F0FE227B017A00EA
:1026B3007DFF7FC07E0522A804A905AA06AB0722D9
:1026C3007D227B017A007F0C7E0422D3903C9074A0
:1026D30001939542E4939541227B407A5479091200
:1026E300004D8F478E468D458C44227B017D667F4E
:1026F3001C7E0122C3E55C955EE55B955D22C3E527
:10270300439545E5429544227B017A00E4FD22FE90
:10271300C3EF9401EE64809480227B017A007D33C1
:102723007F087E02227B017A007DEE7F007E0122FC
:10273300C3E530952CE52F952B227D877F0D7E01F8
:10274300227F207E001239138E228F23C20212258C
:102753004BA2009201121CF38F24E5247043122E26
:10276300FB122E38A20092011222148F24E524704A
:1027730030122E381226487B007ABA795B784912D8
:1027830026641235B21220F7C2037548007547BAA2
:1027930075465B754549E4F5491235B2D2021229F3
:1027A300167DA07402FFFE12379E8E258F267DA014
:1027B3007F017E0212379E8E278F287DB07F037E96
:1027C3000212379E8E298F2AD20212254BE52460EE
:1027D30002FF22AB26AA257DA07402FFFE123464F9
:1027E300AB28AA277DA07F017E02123464AB2AAAFC
:1027F300297DB07F037E021234641226AF12346443
:10280300E52330E007E4FBFA7D448005E4FBFA7D31
:10281300557FC07E0512346412271D123464E4FB15
:10282300FA7D107F087E021234647F00227F207EAF
:10283300001239138E448F457A003003047B0280E3
:10284300027B017D107F207E001234647DD07F1EC9
:102853007E0112379E8E468F477F1D7E01123913EC
:10286300E4FCFDC004C005C006C007FEE547123006
:10287300FCD003D002D001D0001205C18F4B8E4A89
:102883008D498C487DAA7F1C7E0112379EEF04F58B
:102893004C7D867F1F7E0112379EEF04F54DAD45BB
:1028A300AC447F207E00123A3BAF4D12307312309E
:1028B300E5C004C005C006C007AC4CE4120367D0F2
:1028C30003D002D001D00012013EC004C005C006EF
:1028D300C007AF4BAE4AAD49AC481230CC120247E9
:1028E300C004C005C006C007E546C4F854F0C86874
:1028F300FEE547C4540F4824041230C4D003D00269
:10290300D001D00012004DD003D002D001D000126C
:10291300013E227BFF7A3A79968B3D8A3E893F7549
:102923004FA07546B0300210754202754301740220
:10293300F540F541F544800F754204754301754038
:1029430004754102754404754503754B00754C804D
:102953007549FF754A807F441229FB7DBF1229F117
:102963007DFF1229E912366C8E568F577DFF12298F
:10297300F17DBFAF43AE42123A3B12366C8E588F95
:1029830059C3E5579559E5569558500885404D85E7
:10299300414E800685424D85434E7DFF7C071229BB
:1029A300E97554077555FF7552057553FF7F4D1231
:1029B30029FBE5482410F54CE43547F54BE548245D
:1029C300F0F54AE54734FFF5497F441229FBAD5141
:1029D300AC50AF4EAE4D123A3BAB48AA47AD46AFF3
:1029E30045AE44023464AF43AE42123A3B227C0705
:1029F300AF41AE40123A3B228F5A74FFF55BF55C50
:102A0300A807E82405F8E6F55F08E6F560A807E8F7
:102A13002407F8E6F56108E6F562A807E6F5650818
:102A2300E6F566A807E82402F8E6F567FD122AD062
:102A33008E5D8F5EC3E5629560FFE561955F12274A
:102A430012405E7C007D021204FB8E638F641226AB
:102A5300F7500BAD67122AD08E5D8F5E8014AB608A
:102A6300AA5FAD67AF66AE6512346412366C8E5BD7
:102A73008F5CD3E5649400E5636480948040221204
:102A830026F7500FC3E5629564F562E5619563F53A
:102A93006180A1E5642560F560E563355FF55F80DE
:102AA300931226F75006AE5FAF608004AE61AF624B
:102AB300E55A2403F8A60608A607E55A2403F8E610
:102AC300FA08E6FBAD67AF66AE65023464AB62AA93
:102AD30061AF66AE6512346412366C228F408E3F4E
:102AE3008D3E8C3D7DFA7F087E0112379E8F437B9E
:102AF300017A007DDD7F0C7E0412346412267E127F
:102B03003464C203AF40AE3FAD3EAC3D1226521219
:102B1300265C1235B230022675440F800F1226CE82
:102B230040411544E544648094804037E544FB33D9
:102B330095E0FA7D517401FFFE122BB580DF7544D9
:102B43000280101226CE401B05440544E544D3946D
:102B53000F5010E544FB7A007D527F137E01122B48
:102B6300B580E0C3E5419410500F05430543E543A9
:102B730094395005122B9F80EA1226CE400E05434E
:102B8300E543D3943E5005122B9F80EDC3E5429459
:102B930021E541940B7F0050027F0522E543FB7A38
:102BA300007DFA7F087E0112346412366C8E418FE9
:102BB300422212346412366C8E418F42228B3F8A3A
:102BC30040894174FFF542F54390000512055CF519
:102BD3004785F04690000712055CF54985F04812D9
:102BE3002C838E448F45C3E5499547FFE5489546B9
:102BF300122712405B7C007D021204FB8E4A8F4B2E
:102C0300122701AB3FAA40A9415009122C838E44DD
:102C13008F458014120531FFAEF0AD47AC46123339
:102C2300E312366C8E428F43E54B454A60221227EE
:102C330001500FC3E549954BF549E548954AF548D9
:102C430080A4E54B2547F547E54A3546F54680968A
:102C53001227015006AE46AF478004AE48AF49ABDA
:102C63003FAA40A941900003EE8FF012059412058C
:102C730031FFAEF090000312055CFDACF00233E3CC
:102C8300120531FFAEF0AD49AC481233E312366C96
:102C9300227581D0E4F5A27591FFF59075A10775B2
:102CA300A9FF75A880758901C2A0D2A13007FDE5EF
:102CB3000A12063F2CE5002CEC012CF0022CF40345
:102CC3002CF8042CFF052D0E062D1D072D24082D91
:102CD3002B092D330A2D4B112D54122D5FFF0000AC
:102CE3002D62C2073008FD8042C200805DC20080B1
:102CF30062C2008002D2001236108063AF18AE1792
:102D0300AD16AC151206658F908054AF18AE17AD93
:102D130016AC15120A908F90804512395D8F908002
:102D23003E1239DC8F908037850B12E4F590802FAB
:102D3300E4F590C2097F2DFE123913E4FCFD7802FD
:102D43001206001214758017D2001227448F908048
:102D53000ED200C201121E638F908003759005C2CC
:102D630007022CAF8E348F358D368A378B38123667
:102D73006C121A0D121A9A50028001C39200121B90
:102D83000012379E8E3B8F3CE536C4540FFFE53669
:102D9300540FFEC3EF9E04FF123A29EF24FFF53EC2
:102DA300EE34FFF53D753F00754001E54025E0F544
:102DB30040E53F33F53F300005121AEE8003121B46
:102DC30019AB3EAA3DE4FDFCAF3CAE3B1237E68EA9
:102DD3003B8F3C121AFC12346412366C121A0D1219
:102DE3001A9A7F0050027F01A200E433B50713C390
:102DF300E540953AE53F953940B17F803000027F49
:102E03008122D3E5409401E53F94004025E53F133B
:102E1300F53FE54013F54012366C121A0D121A9A5B
:102E23004005121B198003121AEE121AFC123464A5
:102E330080D07F0022753D05753EC7122677123775
:102E43009E8F3FE4FBFAFDFF7E011234641226C31A
:102E53001234641226AF123464E53FB401117D6667
:102E6300122ED17D22122ED17D30122EF1801A7DA9
:102E730077122EE67D33122EE67DC0122EF17402F8
:102E8300253EF53EE4353DF53D7FC17E0512391300
:102E9300EE54F070F4E4FBFA122EDCC202AF3EAE45
:102EA3003D122FB17BFF7A07122EDCE53E2401FF92
:102EB300E4353DFEC202122FB1E4FBFA7D227F0C02
:102EC3007E0412346412270BFF7E01023464E4FB98
:102ED300FA7FC07E05123464227DA07F017E041236
:102EE300346422E4FBFA7FC07E05123464227CFF43
:102EF3007FC27E05123A3B227D207F0A7E04123771
:102F03009EE47E01A807088005C333CE33CED8F9EB
:102F1300F53E8E3D7DEC7F037E0412379E8F3FE5A9
:102F23003FC39406500F7402A807088002C333D826
:102F3300FCF53F8003753F01C20412354CE4FBFAF4
:102F4300F97840120247C004C005C006C007AC3F71
:102F5300E41203671226BAD007D006D005D00412B4
:102F63000247C004C005C006C007AC3DAD3EE41235
:102F73000362D003D002D001D0001202478F438EE8
:102F8300428D418C40AF1CAE1BAD1AAC19AB43AAAA
:102F930042A941A84012013E7940784112265612B7
:102FA300039BC374FF9FF51474FF9EF513228E4099
:102FB3008F413002067E037FFF80047E007F3F8EB9
:102FC3004C8F4DAF41AE401234DE8E498F4A8E474F
:102FD3008F4812366C8E438F448E458F46E54A24C4
:102FE30001FFE435491237D8AC06AD071230501251
:102FF30026BAAE43AF44E4FCFDC31205DC7FFF50A9
:10300300027F018F4B754208AF4BEF3395E0FEE52E
:103013004A2FFFE5493E1237D88E498F4AAD4AAC55
:10302300491230508E438F44C3E5449546E543959A
:1030330045500C854345854446854947854A48D5CF
:1030430042C6AD48AC47AF41AE400233E3AF41AEF9
:10305300401233E312366C22F582E43544F58312D1
:10306300063375F002E547A4F58285F08302055C1B
:10307300123A29AC06AD07E4120362A804A905AA13
:1030830006AB07227C4FAB4DAA4CA94BA84A0202C0
:10309300E4E56625E025E022AB4AAA49A948A8470A
:1030A3007C4E120247E4FBFA22AF53AE52AD51AC51
:1030B30050020247E4FFFE7D8012004D02039B2471
:1030C30001FDE43EFCE4020362E412035DE4FBFA67
:1030D300798078492212013E02039B85458285440B
:1030E3008322AF1CAE1BAD1AAC1902024778101233
:1030F30005EDAB07AA067D3022540FFFE4781002DA
:1031030006007DA37F897E0012379EEF1230C2C076
:1031130004C005C006C007E4FBFAF978401230E5A5
:10312300D003D002D001D0001202478F5B8E5A8D9C
:10313300598C587DD07F887E0012379E8E5C8F5DC0
:103143007DF07F877E0012379EE4FCFDC004C0053E
:10315300C006C007FEE55D1230FCD003D002D001EB
:10316300D0001205C11230CC120247C004C005C002
:1031730006C007E55CC4F854F0C868FEE55DC454B6
:103183000F481230C2D003D002D001D00012004D3C
:10319300AB5BAA5AA959A85812013E2233DA929E70
:1031A30035B16011377FE5FE392184893AAEC3FF1B
:1031B3003C1D955B3D6358473E75FDF03F317218EA
:1031C3003F800000C2D5020411020407BD80FA50FB
:1031D300F302040EED33EC330460F17B3B7AAA79FE
:1031E300B8783F12013EED33EC3392D5247B501176
:1031F300A2D570DB500BED448024045004A2D5808B
:10320300CEEFFBEEFAEDF9ECF812039BEFF582F447
:1032130004FC12036712004DC08290319F7409129F
:103223000456ED33CC33D0F092D525F0A2D57001FE
:10323300C313CC13FD228E448F458F828E83740972
:1032430093F546E546604614F5471230DE123062C8
:10325300FFAEF0C006C007123065FFAEF01239139F
:10326300E545240612305BF4FDE5F0F45EFEEF5D08
:10327300FF1230DEA3A3A3123062FDEE45F0FCEF94
:103283004DFDD007D006123A3B154680B61230DE0C
:10329300741093F546E546603114F547E545240A75
:1032A30012305BFFAEF01230DE741193FDE546D3AE
:1032B3009D40067C007D00800AE545240D12305BAD
:1032C300FDACF0123A3B154680CB22787FE4F6D86A
:1032D300FD758172023315022C94E493A3F8E493F1
:1032E300A34003F68001F208DFF48029E493A3F8F6
:1032F3005407240CC8C333C4540F4420C883400468
:10330300F456800146F6DFE4800B01020408102026
:1033130040809038C1E47E019360BCA3FF543F30EA
:10332300E509541FFEE493A360010ECF54C025E0CA
:1033330060A840B8E493A3FAE493A3F8E493A3C882
:10334300C582C8CAC583CAF0A3C8C582C8CAC58313
:10335300CADFE9DEE780BE1231057B007AC8792F28
:10336300784C120247E4FBFAF9783F12004D12033E
:103373009B7B0D7A007D027C001237E68F44E54487
:1033830025E025E0F5457DBB7F867E0012379EEF65
:1033930064014E70127DCB7F89FE12379E123A294B
:1033A300E5458FF084F54575463FE546600FE545F5
:1033B300C395465008E546C313F54680EDE546FB45
:1033C3007A007D707F077E04123464AC44E41203F8
:1033D300677B007AC8792F784C12013E122447226A
:1033E3008E4E8F4F8C508D51C3E54F94C7E54E944D
:1033F3000550067E037FFF80047E007F3F8E528F41
:1034030053E4F554F555C3E55064809480501AE5B0
:10341300532401FFE43552FEEF4255EE4254E55189
:103423002553FFE5503552800FE5512553CFE55025
:103433003552CF2401CF3400FE123A7FE5525EFEAF
:10344300E5535F4255EE4254AD55AC54AF4FAE4ECB
:10345300123A3BE5544480FCAD55AF4FAE4E023AB1
:103463003B8A6F8B70A9058F828E83123913AD0748
:10347300AC06E9C4540FFFE9540FFBC3EF9B04FFF1
:1034830074FFFEA807088005C333CE33CED8F9F402
:10349300FFEEF4FEEFA803088005C333CE33CED886
:1034A300F9F5728E71E9540FFFE570AE6FA8070846
:1034B3008005C333CE33CED8F9FFE5715EFEE572E6
:1034C3005FFFE572F4FBE571F45CFCEB5DFDEC4E34
:1034D300FCED4FFDAF82AE83023A3B8F828E83C3F6
:1034E300E58294C7E583940550067E037FFF80043D
:1034F3007E007F3F8E4E8F4FAF82AE83E4FDFC1282
:103503003A3BAF82AE837D007C40123A3BAF82AE42
:10351300831239138E508F51AF82AE83E550543FDF
:10352300FCAD51123A3BE550554EFEE551554FFF68
:10353300E54F2401FDE4354E5550FCE5515D4C60EB
:10354300077CFF7DFF120494221231058F538E52A4
:103553008D518C507DCB7F897E0012379E12307344
:103563001230AC8F578E568D558C547DBB7F867E23
:103573000012379EEF4E7017300409AF57AE56ADA9
:1035830055AC5422E4FBFA798078401230AC2230F7
:10359300040AAF53AE52AD51AC508012E4FBFA793A
:1035A300807840AF57AE56AD55AC5412024722E572
:1035B3004975F002A4FFAEF07C043003027C027D67
:1035C30042EF2DF54BEE3CF54AA203920412354C23
:1035D30012307EAF48AE47AD46AC451230A5798078
:1035E300784F1230D88F4F8E4E8D4D8C4C781012F1
:1035F30005EDAD07AC06AF4BAE4A123A3BE54B24A3
:1036030001FFE4354AFEAC4EAD4F023A3BE50CAD4B
:103613000DFCE4120362E4FBFA797A784412024760
:10362300C004C005C006C007AC0BE4120367D00397
:10363300D002D001D00012004D7B007A2479747837
:103643004912013E8F258E248D238C2230000A8F50
:103653001C8E1B8D1A8C19800C85251885241785C3
:103663002316852215E4F59022C28CE513F58CE52B
:1036730014F58AC28DD28C308DFD7DFF7F007E04D0
:103683001239F77F0F7E04123913E48F6B8E6AF5BC
:1036930069F5687F0E7E041239137E00EF5403FF31
:1036A300E4FCFDC004C005C006C007AF6BAE6AAD45
:1036B30069AC687802120600D003D002D001D000B2
:1036C3001205C1228F468E458D448C43E4FFFE7D57
:1036D300A07C41AB46AA45A944A84312013E7B0006
:1036E3007AC8792F784C121A83F9783F121A3A7BE9
:1036F3000D7A007D027C001237E6AC07E412036703
:103703007B007AC8792F784C12013E7B807A9679B8
:1037130018784B12004D122447227F2B7E0012395A
:10372300138F828E83E58364027F2B12375BAD8216
:10373300AC837F2B7E00123A3B7F207E001239132D
:103743008E838F82E58354557F2012375BAD82AC25
:10375300837F207E00023A3BFCAD827E00123A3B1F
:10376300227907E925E02458F582E4343FF583E420
:1037730093FE740193FFE925E02466F582E4343F68
:10378300F583E493FC740193FD123A3BD9D57BFF97
:103793007AB97DF87F207E01023464A905123913BA
:1037A300AC06AD07E9C4540F04FF74FFFEA8070875
:1037B3008005C333CE33CED8F9F4FFEEF45CFEEDCF
:1037C3005FFFE9540FFDEFA805088005CEC313CEB4
:1037D30013D8F9FF22FEC3E4954DFDE4954CFCABF1
:1037E3004DAA4CC3EF9DEC6480F8EE6480985005BD
:1037F300AE04AF0522D3EF9BEA6480F8EE648098B1
:103803004005AE02AF032222C0E0C0D075D000C095
:1038130000C006C0077590FF7F02740A2FF8E6FE0A
:10382300740B2FF8A606DFF285800B759000D00786
:10383300D006D000D0D0D0E032E4F9E925E0248CE2
:103843003000101238A51238B4E0FCA3E0FD123AA0
:103853003B800E1238A51239131238B4EEF0A3EFE1
:10386300F009B905D62212398D123A10D2A27D1071
:10387300D2A0123A5FEB25E0FBEA33FA30A303430D
:103883000301C2A0123A5FDDE7D2A1D2A2AE02AF1A
:103893000322E4FFFEFDFCAB2BAA2AA929A82802D8
:1038A30002E4F582E4343EF583E493FE740193FF6E
:1038B30022E925E024E8F582E43403F583220415A4
:1038C3004A98968002130001011200021DFF0004B2
:1038D300194BEA6000C109C188C107020E002D021D
:1038E30008020C0210040B007DFF7C7F7F0C7E021C
:1038F300123A3B7D557F007E021239F77D007C80B2
:103903007F0C7E02123A3B7D667F007E020239F70E
:1039130012398D123A6FD2A27D10D2A0EB25E0FBB3
:10392300EA33FA30A303430301C2A0DDEDD2A1D2EF
:10393300A2AE02AF0322C28CE51DF58CE51EF58A0B
:10394300C28DD28C308DFD3006067E017F2380042C
:103953007E007F8C7DDC12379E227590FFAF0FAE09
:103963000E1239138F828E83AF09AE08123913AD4D
:1039730007AC06AF82AE83123A4D7F0022AB05AA95
:1039830004C2A0C2A1EE4480FE22E4FBFAC2A0C29C
:10399300A1EE547FFE22EF25E0FFEE33FED2A022FC
:1039A300EFC3941550037F0122EFC3940D50037F9F
:1039B3000222EFC394087F0050027F03227DDC7F45
:1039C300237E0112379EEF64024E7002D322D2058A
:1039D30012168AEFC37001D3227590FFAF0FAE0E9C
:1039E300123913123869AD07AC06AF11AE10123A93
:1039F3003B7F00228E6C8F6D8D6EE4FBFA12346474
:103A03007B017A00AD6EAF6DAE6C0234647D10C283
:103A1300A0123A5FEE3392A2123A5F123999123A28
:103A23005FDDECC2A02274017E00A807088005C3F5
:103A330033CE33CED8F9FF22123980123A6FAF0357
:103A4300AE02123A6FD2A1D2A222123980123A10D8
:103A5300AF03AE02123A10D2A1D2A222C28C758C4D
:103A6300FF758AF0C28DD28C308DFD227D10C2A0ED
:103A7300EE3392A2123999DDF5C2A022EE30E707A8
:103A8300C3E49FFFE49EFE227590FF85800AD2095E
:103A9300D20732000800040000FFFAFFF5FFF0FF31
:103AA300ECFFEAFFEAFFECFFF2FFFB000600140065
:103AB30022002E0038003D003A0030001D0003FFB5
:103AC300E3FFC1FFA0FF85FF74FF72FF80FFA2FF2A
:103AD300D40014005D00A700E80118012E012300A3
:103AE300F4009F0029FF9AFEFEFE67FDE5FD8CFDB5
:103AF3006EFD9AFE1AFEF30022019D035405300762
:103B03001608E80A890BDE0CCD0D4903FF0080007F
:103B1300080084008500AE010101130200020102C6
:103B230002020804000001F0000001001C000C0761
:103B3300FF07FF0000F8FF0007F0001801003C003A
:103B43000C07FF07FFF10B010C0112011501160110
:103B53001701180119011A040004010402040304E3
:103B63000404050406040704080409040A040C04F5
:103B7300400442044388E5403200058180280C213B
:103B83008C31802E02008107FF07FF4000000000F8
:103B93000000000700000000001001209800200032
:103BA300000000FF3B14FF3B26FF3B3809FF3B4A65
:103BB300FF3B7817170084008500AE010C010D014F
:103BC300130115011904000001F00000000040007A
:103BD3000C00000000F8FF0007F000001A0040008E
:103BE3003CC0008000010001010102010301040146
:103BF300050106010701080109010A020002010289
:103C0300020208024004000401040204030407043E
:103C13000A040C044005C005CB020302040205029A
:103C23000602070241040404050406040804090407
:103C33004105C105C205C305C405C505C605C705BC
:103C4300C805C905CA05CC3408600131800A1200D1
:103C5300880007318C318C042661C1104C008D071C
:103C6300FF07FF20700020008107FF07FF400007C8
:103C73000010002098002000FF2020FF3BB8FF3BEE
:103C8300C8FF3BD808FF3BE8FF3C4A311A700049A4
:103C9300AAE6004CF7F4904A9896804C1896804C0C
:103CA3003EBC204CF7F4900085010D011301140074
:103CB30084008B00010100000400100400210000B7
:103CC300070188003C001FF83FC1FF008200860007
:103CD3008700880089008A008C010001010102012C
:103CE30003010401050106010701080109010A0195
:103CF3000C01150116011701180119011A0200021E
:103D0300010202020302040205020602070208027C
:103D1300090240040004010402040304040405042A
:103D230006040704080409040A040C044080034938
:103D3300010400078000200514067B34096001316B
:103D430080061200880007318C318C042661C11073
:103D53004C88C500098180280C018C528B2E0200EF
:103D63008D07FF07FF000000000000000000002097
:103D73007000000020008107FF07FF4000000000E3
:103D8300000000000000000000100120380020FFA8
:103D93003CAAFF3CB6FF3CC206FF3CCEFF3D3031A0
:103DA30031008200850100010C010D0084008B802D
:103DB30001000100000000001E040021001FFF009D
:103DC3000700010001001EF83FC1FF0086008700C5
:103DD300880089008A008C0105010601070108019A
:103DE30009010A01150116011701180119011A0227
:103DF3000002010202020302040205020602070294
:103E03000802400241040004010402040304040400
:103E1300050406040704080409040A040C04400406
:103E23004149010400078000200514067B30073157
:103E33008C318C058C61C1104C000D8180280C6184
:103E43008C528C2E02008D07FF07FF00000000003C
:103E53000000000000007000200000008107FF0741
:103E6300FF40000000000000000000000000001000
:103E730001203800200000FF3DA4FF3DB2FF3DC0FC
:103E830007FF3DCEFF3E242B2B0081010F012604AB
:103E93000A040C000100110021000200120022009C
:103EA3003200130023003300430024003400440095
:103EB3005400350045005500650046005600660075
:103EC3007600570067007700870068007800880055
:103ED3009800790089009900A900AA00BA00CA00D5
:103EE300DA00DB00EB00FB010B011B012B013B01A3
:103EF3004B015B016B017B018B019B01AB01BB019F
:103F0300CB01DB01EB01FB01FC01FD01FE01FF0025
:103F130021002F0082008200840084008500850038
:103F230086008C009200A700A800A800AD00AE0197
:103F33000001040105010A010C01140115011A0213
:103F430000020C024002610400040F0440046105F6
:103F53000005A705C005C0011C011D011E011F01AD
:103F63002101220123AD43040007803640340403BA
:033F73003F067B8B
:00000001FF
