:1011D300FFF1FFF2FFF5FFFA00000007000F001711
:1011E300001E002300250022001A000BFFF8FFE079
:1011F300FFC7FFAFFF9DFF93FF96FFA7FFC7FFF555
:10120300002F006E00AC00E00103010B00F400BBF3
:10121300005FFFE6FF59FEC5FE3CFDCEFD90FD914C
:10122300FDE1FE86FF8300D302690433061607F649
:1012330009B40B350C5B0D150D530D150C5B0B35FC
:1012430009B407F606160433026900D3FF83FE864A
:10125300FDE1FD91FD90FDCEFE3CFEC5FF59FFE68D
:10126300005F00BB00F4010B010300E000AC006E63
:10127300002FFFF5FFC7FFA7FF96FF93FF9DFFAF6B
:10128300FFC7FFE0FFF8000B001A00220025002330
:10129300001E0017000F00070000FFFAFFF5FFF222
:0412A300FFF1003423
:10190000040E40A00000040A40800000020800000D
:0618E800C3E53D953EFF43
:1018EE0074017E00A807088005C333CE33CED8F925
:0218FE00FF22C7
:1012A7007DA37F897E00121845EF2401FDE43EFCF3
:1012B700E41202A6C004C005C006C0079012A5E448
:1012C70093FC740193FDEC1202A6E4FBFAF9784053
:1012D700120204D003D002D001D0001202048F5BA7
:1012E7008E5A8D598C587DD07F887E001218458E76
:1012F7005C8F5D7DF07F877E00121845E4FCFDC0A2
:1013070004C005C006C007FEE55D540FFFE4FBFA05
:101317007901F81203BCD003D002D001D000120427
:10132700D9E41202A1E4FBFA79807849120204C0D9
:1013370004C005C006C007E55CC4F854F0C868FEE1
:10134700E55DC4540F482401FDE43EFCE41202A607
:10135700D003D002D001D00012000AAB5BAA5AA971
:0713670059A8581200FB22F7
:1015E7001212A78F538E528D518C507DCB7F897EDF
:1015F700001218451218EEAC06AD07E41202A6A8B1
:1016070004A905AA06AB07AF53AE52AD51AC5012B1
:1016170002048F578E568D558C547DBB7F867E0076
:10162700121845EF4E701F300109AF57AE56AD5532
:10163700AC5422E4FBFA79807840AF53AE52AD51F7
:10164700AC501202042230010AAF53AE52AD51AC76
:10165700508012E4FBFA79807840AF57AE56AD550B
:06166700AC541202042243
:101425007466FBFAF9783F12000A8F458E448D43A6
:021435008C42E7
:10143700A20092011215E78F498E488D478C4630DE
:1014470000067E027F4080047E047F408E4A8F4BD9
:10145700AB49AA48A947A846AF45AE44AD43AC42FD
:10146700120204E4FBFA7980784F1200FB1202DFC4
:101477008F4F8E4E8D4D8C4CE54175F002A4FFE5E4
:101487004B2402CDE4354ACD2FFFED35F0FEC006E3
:10149700C007AF4FAE4EAD4D7810120505AD07AC86
:1014A70006D007D006121881E54175F002A4FFE5C2
:1014B7004B2403CDE4354ACD2FFFED35F0FEAC4E7E
:0514C700AD4F02188189
:100D24007D107F207E001218458F473000047B021F
:100D340080027B017A007D107F207E0012166DE414
:100D4400FD7F1E7E011218458E418F427DF07F1D6E
:100D54007E01121845E4FCFDC004C005C006C007AE
:100D6400FEE542540FFFE4FBFA7901F81203BCD00C
:100D740003D002D001D0001204D98F468E458D4491
:100D84008C437D867F1F7E01121845EF04FF74019A
:100D94007E00A807088005C333CE33CED8F9FDAC56
:100DA40006EC1202A6C004C005C006C0079012A536
:100DB400E493FC740193FDEC1202A6D003D002D09C
:100DC40001D0001202048F4B8E4A8D498C487DAAB3
:100DD4007F1C7E01121845EF2401FDE43EFCE41261
:100DE40002A6C004C005C006C007AF46AE45AD4468
:100DF400AC43E41202A1E4FBFA79807849120204BC
:100E0400C004C005C006C007E541C4F854F0C86872
:100E1400FEE542C4540F482404FDE43EFCE41202FF
:100E2400A6D003D002D001D00012000AAB4BAA4ACC
:100E3400A949A8481200FBD003D002D001D0001267
:100E440000FB8F4B8E4A8D498C48E547FB7A007D29
:100E5400107F207E0012166DAF4BAE4AAD49AC48F0
:010E6400226B
:10191100C3EE6480948050077CFF7DFF0203602248
:1018CE00AD07C3ED64809480500DED3395E0FE12AC
:0A18DE001911EF4440FF22AF05226C
:1017FA007D817C007F007E041218817D817C807F40
:10180A00007E041218817F0F7E0412174FEF7802B0
:10181A00C333CE33CED8F9FFE4FCFDC004C005C003
:10182A0006C0077D107F0E7E04121845E4FCFDD029
:0B183A0003D002D001D0001204D9221C
:100F9B00E4FBFA7DEDFF7E0412166DE4F552121799
:100FAB00FA1217FA1217FA1217FAE55225E024C4AF
:100FBB00F582E43400F583EEF0A3EFF00552E55231
:100FCB00C3942840D9E4F552AB52EBC394284003A9
:100FDB0002105BEB25E024C4F582E43400F583E0DA
:100FEB00FEA3E0FFE55225E024C4F582E43400F5CE
:100FFB0083E0FCA3E0D39FEC9E4051E55225E02417
:10100B00C4F582E43400F583E0FEA3E0FFE48F51E6
:10101B008E50F54FF54EEB25E024C4F582E43400F9
:10102B00F583E0FEA3E0FFE55225E024C4F582E45E
:10103B003400F583EEF0A3EFF0EB25E024C4F5824A
:10104B00E43400F583E550F0A3E551F00B020FD526
:10105B000552E55264276003020FD3E4F551F550B6
:10106B00F54FF54EF552E55225E024C4F582E434F4
:10107B0000F583E0FEA3E0FFE4FCFDE5512FFFE567
:10108B00503EFEED354FFDEC354E8F518E508D4F52
:10109B00F54E0552E552B405CDAF51AE50AD4FAC48
:1010AB004EE47B05FAF9F81204478F518E508D4FA1
:1010BB008C4E78F8120524AF51AE50AD4FAC4E228A
:1018A800AB051218CEEF75F080A4FFAEF0C007C0EC
:1018B80006AF031218CEEFFDD0E0FCD0E04DFD7F5F
:0618C8000E7E01021881F2
:1014CC007533007534207535007536207B017A0034
:1014DC007D227F0C7E0412166DE4FBFA7DEDFF7EFF
:1014EC000412166DAF34AD361218A87B007A007951
:1014FC0033753D061207DF7B007A007935753D06A2
:10150C007D601207E17B007A007933753D03120789
:10151C00DF7B007A007935753D037D601207E1753C
:10152C003D01753E0E753F6075400075410075427A
:10153C00357543057B007A0079337DD77F0E7E01AC
:0F154C001209EDE4FBFA7D227F0C7E0402166D7E
:0607DF007DD77F0E7E01B4
:1007E5008E378F388D398B3A8A3B893CE4F53E123A
:1007F5000372F54885F047E538640E7004E5376403
:1008050001600AAE47AF48AA06AB078009AF481298
:1008150018CE7A00AB07AD39AF38AE3712166DE496
:10082500F53EE53D14FFE53EC39F40030209011275
:100835000F9B8F428E418D408C3F1218E8C3E548CF
:100845009FF548E5479EF547E538640E7004E537A2
:100855006401600AAE47AF48AA06AB078009AF48F6
:100865001218CE7A00AB07AD39AF38AE3712166D18
:10087500120F9B8F468E458D448C43AB42AA41A9EE
:1008850040A83FC31204F44017E53D24FEC3953E3E
:10089500FF1218EEEF2548F548EE3547F547802F4E
:1008A5001218E8E5482FFDE5473EFCE53D14C395E4
:1008B5003EFF1218EEEF2DFDEE3CFCE53D24FEC398
:1008C500953EFF1218EEC3ED9FF548EC9EF547E502
:1008D50038640E7004E5376401600AAE47AF48AA74
:1008E50006AB078009AF481218CE7A00AB07AD39C1
:1008F500AF38AE3712166D053E0208271218E8C349
:10090500E5489FF548E5479EF547120F9B8F428EB8
:10091500418D408C3FE538640E7004E5376401C3B2
:10092500600E1218E9C3E5489FFBE5479EFA800F64
:100935001218E9C3E5489FFF1218CEEFFB7A00AD08
:1009450039AF38AE3712166D120F9B8F468E458D17
:10095500448C43AB42AA41A940A83FC31204F450BA
:10096500080548E54870020547E538640E7004E55A
:10097500376401600AAE47AF48AA06AB078009AFE6
:10098500481218CE7A00AB07AD39AF38AE3712161C
:100995006D120F9B8F468E458D448C43AB42AA4109
:1009A500A940A83FC31204F450300548E548700239
:1009B5000547E538640E7004E5376401600AAE4703
:1009C500AF48AA06AB078009AF481218CE7A00AB2C
:1009D50007AD39AF38AE3712166DAB3AAA3BA93C15
:0809E500E5478548F002039D7F
:1009ED008E378F388D398B3A8A3B893C74FFF547AA
:1009FD00F546F545F544E4F548E548C39543400310
:100A0D00020B3AE4F549E549C395434003020B3522
:100A1D00E543C313FFC3E5489FFFE49400FEAB3AE3
:100A2D00AA3BA93C120372ACF02FF54BEE3CF54AF4
:100A3D00E543C313FFC3E5499FFFE49400FEAB40BC
:100A4D00AA41A942120372ACF02FF54DEE3CF54CC4
:100A5D00E538640E7004E5376401600AAE4AAF4BA9
:100A6D00AA06AB078009AF4B1218CE7A00AB07ADC3
:100A7D0039AF38AE3712166DE53E640E7004E53DA4
:100A8D006401600AAE4CAF4DAA06AB078009AF4DAD
:100A9D001218CE7A00AB07AD3FAF3EAE3D12166DCC
:100AAD00120F9BE54875F01CA42400F582E4340078
:100ABD00F58375F004E54912053C120530E54875DE
:100ACD00F01CA42400F582E43400F58375F004E5F0
:100ADD004912053C120518AB47AA46A945A844D3AF
:100AED001204F4403EAB3AAA3BA93CE54A854BF0D3
:100AFD0012039DAB40AA41A942E54C854DF012036E
:100B0D009DE54875F01CA42400F582E43400F583BE
:100B1D0075F004E54912053C1205188F478E468D78
:100B2D00458C440549020A130548020A06E5386456
:100B3D000E7004E5376401AB3AAA3BA93C600A127A
:100B4D000372AEF0AA06FB800B120372FF1218CED1
:100B5D007A00AB07AD39AF38AE3712166DE53E648E
:100B6D000E7004E53D6401AB40AA41A942600A1232
:100B7D000372AEF0AA06FB800B120372FF1218CEA1
:0D0B8D007A00AB07AD3FAF3EAE3D02166DE6
:1010CB00E4FBFA7D227F0C7E0412166DE4FBFA7DA5
:1010DB00777F0C7E0412166DC200E4F541AB0DAAAE
:1010EB000CA90BA80AAF11AE10AD0FAC0E12020477
:1010FB00E4FBFAF978401200FB121425120F9B8FB8
:10110B00328E318D308C2F7D407F197E0112184528
:10111B008F337D527F137E011218458F34E4FF7E8F
:10112B00B0FDFCAB32AA31A930A82FC31204F45086
:10113B0070C3E5346480948F5067120F9B8F328E8F
:10114B00318D308C2FE4FF7EB0FDFCAB32AA31A980
:10115B0030A82FC31204F450480534E534FB339503
:10116B00E0FA7D527F137E0112166D80B0C3E5331A
:10117B00648094925038E534640F7032FF7EB0FD7A
:10118B00FCAB32AA31A930A82FC31204F4501F05AF
:10119B0033E533FB3395E0FA7D407F197E01121660
:1011AB006D1217FA8F328E318D308C2F80BF7B01F1
:1011BB007A007D777F0C7E0412166D7B017A007DA1
:0811CB00227F0C7E0402166D68
:10136E00752F007530407531007532407B017A0063
:10137E00E4FDFF7E0112166DE4FBFA7D777F0C7E95
:10138E000412166DC200E4F541AB0DAA0CA90BA810
:10139E000AAF11AE10AD0FAC0E120204121425E4FA
:1013AE00FBFA7D707F047E0212166D7B007A007947
:1013BE002F753D077DF87F047E021207E57B007ACC
:1013CE00007931753D077D707F047E021207E57B43
:1013DE00007A00792F753D047DF87F047E02120796
:1013EE00E57B007A007931753D047D707F047E02C5
:1013FE001207E5753D02753E04753F707540007528
:10140E0041007542317543077B007A00792F7DF8D4
:07141E007F047E020209EDCC
:100B9A007525077526BF1210CBE4FBFAFDFF7E010F
:100BAA0012166D1214CC12136E7B017A00E4FDFF4B
:100BBA007E0112166DE4FBFA7D887F087E0212160A
:100BCA006DC200E4F5417466F545F544F543754296
:100BDA003F1214377BF07A077DA07402FFFE1216CB
:100BEA006D7BFF7A077DA07F017E0212166D120FC0
:100BFA009B8F2A8E298D288C277BFF7A077DA074EC
:100C0A0002FFFE12166D7BF07A077DA07F017E023D
:100C1A0012166D120F9B8F2E8E2D8D2C8C2B7BFF17
:100C2A007A077DA07402FFFE12166D7BFF7A077D9C
:100C3A00A07F017E0212166DAF2EAE2DAD2CAC2B0D
:100C4A00AB2AAA29A928A827C31204F47E025004B1
:100C5A007F0280027F018E218F227B007A00792514
:100C6A00753D077DA01207E57B0F7A007DB07F03F3
:100C7A007E0212166D120F9B8F2A8E298D288C27C1
:100C8A007BF17AFF7DB07F037E0212166D120F9BF5
:100C9A008F2E8E2D8D2C8C2BAB2AAA29A928A8271A
:100CAA00D31204F440057523FF8019AF2EAE2DAD83
:100CBA002CAC2BAB2AAA29A928A827C31204F450C2
:100CCA00087523007524C080067523007524407BAF
:100CDA00007A007923753D077DB07F037E021207F3
:100CEA00E57B007A007925753D047DA0AF22AE210F
:100CFA001207E5753D02753E03753FB075400075F4
:100D0A0041007542237543077B007A0079257DA04F
:0A0D1A00AF22AE211209ED7F802206
:100E6500C200120D248F3A8E398D388C37D200127C
:100E75000D248F3E8E3D8D3C8C3B7DFA7F087E0197
:100E85001218458E3F8F40E4FBFA7DDD7F0C7E0412
:100E950012166DE4FBFA7D777F0C7E0412166DC287
:100EA50000E4F541AB3AAA39A938A837AF3EAE3DC3
:100EB500AD3CAC3B1200067BCD7ACC79CC78BD122B
:100EC500142C120F9B8F368E358D348C33E4FF7EB8
:100ED50060FDFCAB36AA35A934A833C31204F4501F
:100EE5005AC3E5409439E53F64809480504D120F14
:100EF5009B8F368E358D348C33E4FF7E60FDFCABE5
:100F050036AA35A934A833C31204F4500B74062548
:100F150040F540E4353FF53FE4FF7E60FDFCAB3630
:100F2500AA35A934A833D31204F4500FAB40AA3F15
:100F35007DFA7F087E0112166D8092E4FF7EB0FD7A
:100F4500FCAB36AA35A934A833C31204F45046C302
:100F5500E540943DE53F648094805039120F9B8FA6
:100F6500368E358D348C33E4FF7EB0FDFCAB36AA6E
:100F750035A934A833C31204F4500B74022540F587
:100F850040E4353FF53FAB40AA3F7DFA7F087E013F
:060F950012166D80A62279
:10054800E4F521F522F525F5267D107F20FE121809
:10055800458F297D877F0D7E011218458F2AE52A50
:1005680064016004E52A70037F81221214CC7B01A8
:100578007A00E4FDFF7E0112166DE52AB40218E444
:10058800FBFA7D557F0C7E0112166DE4FBFA7D3374
:100598007F0D7E0112166DE52AB40318E4FBFA7D7F
:1005A800667F0C7E0112166DE4FBFA7D447F0D7E9A
:1005B8000112166DE4FBFA7D227F0C7E0412166D83
:1005C800120E657B017A007DDD7F0C7E0412166DAC
:1005D800E4FBFA7D777F0C7E0412166DC200120DC3
:1005E800248F2E8E2D8D2C8C2BD200120D248F3221
:1005F8008E318D308C2FC200E4F541AB2EAA2DA987
:100608002CA82B1200067BCD7ACC79CC783D12141D
:100618002CE4FBFA7DB07F037E0412166D7BFF7A13
:10062800077DA07F027E0412166D7BFF7A077DA0EE
:100638007F017E0412166D7BF07A077DA07F027E13
:100648000412166D7BFF7A077DA07F017E041216C7
:100658006D1217FA8F2E8E2D8D2C8C2B7BFF7A071F
:100668007DA07F027E0412166D7BF07A077DA07F45
:10067800017E0412166D1217FA8F328E318D308C6E
:100688002F7BFF7A077DA07F027E0412166D7BFF09
:100698007A077DA07F017E0412166D7523077524E5
:1006A800BFAF32AE31AD30AC2FAB2EAA2DA92CA8DE
:1006B8002BC31204F45010752504752602AB24AA26
:1006C800237DA07F02800E752504752601AB24AA20
:1006D800237DA07F017E0412166D7B007A007923AA
:1006E800753D077DA0AF26AE251207E57B0F7A0082
:1006F8007DB07F037E0412166D1217FA8F2E8E2D91
:100708008D2C8C2B7BF17AFF7DB07F037E04121633
:100718006D1217FA8F328E318D308C2FAB2EAA2D99
:10072800A92CA82BD31204F440057527FF8019AF14
:1007380032AE31AD30AC2FAB2EAA2DA92CA82BC3CD
:100748001204F450087527007528C0800675270024
:10075800752840AB28AA277DB07F037E0412166D4A
:100768007B007A007927753D077DB07F037E0412F0
:1007780007E57B007A007923753D047DA0AF26AE9E
:10078800251207E57B007A007927753D047DB07F47
:10079800037E041207E5753D04753E03753FB07589
:1007A80040007541007542277543077B007A007940
:1007B800237DA0AF26AE251209EDAB24AA237DA088
:1007C800AF26AE2512166DAB28AA277DB07F037E13
:0707D8000412166D7F802260
:1016E5007581D0E4F5A27591FF75A10775A9FFC2B3
:1016F500A0D2A178FE760175908085801385801231
:10170500E512651360F7851213E51270028025E571
:1017150012B40108E4F590120B9A8018E512B40290
:1017250008E4F590120548800BE512B4030BE4F5C7
:1017350090120F9B75908080C4E512B4FFBFE4F54D
:0A1745009078FEE64480F59080B332
:1017AB008E668F679001157480F0A3E4F09001149E
:1017BB007410F0C2A0900115E0FEA3E0FFE5665E99
:1017CB00FCE5675F4C24FF92A2EEC313FEEF13FF01
:1017DB00900115EEF0A3EFF0121921D2A0121921EE
:0F17EB00C2A0900114E014F0E0D3940050C52286
:101881008E588F598C5A8D5B435880C2A0C2A112C9
:101891001921AF59AE581217ABAF5BAE5A1217AB45
:0718A100D2A1D2A20219211D
:10174F008E5F8F60C2A0C2A1535F7F121921AF605D
:10175F00AE5F1217ABD2A2E4F562F563756480F544
:10176F0065756110121921D2A030A308E565426397
:10177F00E5644262E564C313F564E56513F565122C
:10178F001921C2A01561E561D3940050D712192118
:0C179F00D2A1D2A2121921AE62AF6322C7
:10166D008E538F548D558A568B5712174FAD07AC2D
:10167D0006E555C4540FFFE555540FFBC3EF9B040E
:10168D00FF74FFFEA807088005C333CE33CED8F90B
:10169D00F4FFEEF4FEEFA803088005C333CE33CE7E
:1016AD00D8F9FBAA06E555540FFFE557AE56A80726
:1016BD00088005C333CE33CED8F9FFEE5AFEEF5B6B
:1016CD00FFEBF4FBEAF45CFCEB5DFDEC4EFCED4F47
:0816DD00FDAF54AE5302188169
:101845008D5E12174FAC06AD07E55EC4540F04FF5D
:1018550074FFFEA807088005C333CE33CED8F9F44C
:10186500FFEEF45CFEED5FFFE55E540FFDEFA805AE
:0C187500088005CEC313CE13D8F9FF2263
:101921000000000000000000000000000000002294
:1000030002034BE86480F8E933E83360110460F0DD
:10001300ED33EC337009E8FCE9FDEAFEEBFF220463
:1000230060DED3EB9FEA9EE99DE8C2E78CF0C2F75E
:1000330095F0400CE8CCF8E9CDF9EACEFAEBCFFB2A
:1000430012031685D0F05804700320D5B3E804706A
:10005300075002B2D502035592D5EC0460F7E4CC05
:10006300C0E0C398F8603B94186008400DD0E0FBF3
:1000730002032DE4FBFAC9FC8028E830E406E4C956
:10008300FBE4CAFCE830E305E4C9CACBFCE8540747
:100093006010F8C3E913F9EA13FAEB13FBEC13FC52
:1000A300D8F130F52FC3E49CFCEF9BFFEE9AFEEDF5
:1000B30099FDD0E0FBEF4E4D4C701222DB0302039F
:1000C30052EC2CFCEF33FFEE33FEED33FDED30E766
:1000D300EB02032DEF2BFFEE3AFEED39FDD0E0FBF3
:1000E30050130BBB0003020355ED13FDEE13FEEF9C
:0800F30013FFEC13FC02032DC6
:1000FB00EC4D6011E8497017ED33EC3304600DE4FF
:10010B00FCFFFEFD22E933E8330470F802034B12C7
:10011B00031658046009E4CC2481500628500902C8
:10012B000355284003020352C0E0EB4A7044B980E8
:10013B0006D0E0FB020341EF4E701CBD8008EBFFC5
:10014B00EAFEE9FD80EBE98DF0A4FEE5F00201E4A7
:10015B00E9CDF9EAFEEBFFEF89F0A4FCE5F0CE89DF
:10016B00F0A42EFFE435F0CD89F0A42DFEE435F09C
:10017B008067EF4E7005BD80D780C3EF8BF0A4ACCA
:10018B00F0EE8BF0A42CFCE435F0F8EF8AF0A42C05
:10019B00E5F038FCE433CB8DF0A42CFCE5F03BF818
:1001AB00EE8AF0A42CFCE5F038F8E433CF89F0A408
:1001BB002CFCE5F038CF3400CE89F0A42FFFE5F00E
:1001CB003EFEE433C98DF0A42EFEE5F039CD8AF066
:1001DB00A42FFFE5F03EFEE43DFD33D0E0FB5007DE
:1001EB000BBB000F020355EC2CFCEF33FFEE33FE81
:0601FB00ED33FD02032DAF
:10020100020355EC5D046005E85904700302034BD9
:10021100120316580460F6EC4860F2EC7004FDFE1F
:10022100FF22C860DB2481C85009C39860025006D0
:100231000203529850CAF582E9294B4A7005AB82F4
:1002410002034175F0007C1A7880C3EF9BEE9AEDB2
:1002510099400DC3EF9BFFEE9AFEED99FDE842F048
:10026100DC23ACF0D0E0FFD0E0FED0E0FDAB82209B
:10027100E7101BEB60BAEC2CFCEF33FFEE33FEED25
:1002810033FD02032DE803F830E705C0F075F000F7
:10029100EF2FFFEE33FEED33FD40B830E7C280AA09
:1002A10075F020800E75F010800575F0087D007ED8
:1002B100007F003392D530D5031204E6EC334010B1
:1002C100EF33FFEE33FEED33FDEC33FCD5F0ED22E1
:0E02D100E5F0247EA2D513CC92E7CDCEFF221D
:1002DF00EDD2E7CD33EC3392D524814006E4FFFE17
:1002EF00FDFC22FCE4CFCECDCC24E0501174FF8076
:1002FF00EDC3CC13CCCD13CDCE13CECF13CF047013
:07030F00F030D5DE0204E628
:10031600E9D2E7C933E833F892D5EDD2E7CD33EC2D
:0703260033FC5002B2D522A6
:10032D00EC30E7100FBF000C0EBE00080DBD000431
:10033D000BEB6014A2D5EB13FCED92E7FD2274FFDD
:10034D00FCFDFEFF22E480F8A2D574FF13FC7D8036
:03035D00E480EF4A
:0300000002155B8B
:0C155B00787FE4F6D8FD7581FE0215A231
:10036000EF8DF0A4A8F0CF8CF0A428CE8DF0A42EB1
:02037000FE226B
:10037200BB010A89828A83E0F5F0A3E02250068756
:10038200F009E71922BBFE07E3F5F009E319228918
:0B039200828A83E493F5F0740193224B
:10039D00BB010A89828A83F0E5F0A3F0225006F7AB
:0F03AD0009A7F01922BBFE06F3E5F009F31922A8
:1003BC00E88FF0A4CC8BF0A42CFCE98EF0A42CFCE0
:1003CC008AF0EDA42CFCEA8EF0A4CDA8F08BF0A45E
:1003DC002DCC3825F0FDE98FF0A42CCD35F0FCEBBD
:1003EC008EF0A4FEA9F0EB8FF0A4CFC5F02ECD3982
:0F03FC00FEE43CFCEAA42DCE35F0FDE43CFC22EF
:10040B0075F008758200EF2FFFEE33FECD33CDCCA8
:10041B0033CCC58233C5829BED9AEC99E58298402B
:10042B000CF582EE9BFEED9AFDEC99FC0FD5F0D608
:10043B00E4CEFBE4CDFAE4CCF9A88222B800C1B932
:10044B000059BA002DEC8BF084CFCECDFCE5F0CB70
:10045B00F97818EF2FFFEE33FEED33FDEC33FCEBA9
:10046B0033FB10D703994004EB99FB0FD8E5E4F964
:10047B00FA227818EF2FFFEE33FEED33FDEC33FC51
:10048B00C933C910D7059BE99A4007EC9BFCE99A45
:10049B00F90FD8E0E4C9FAE4CCFB2275F010EF2F8A
:1004AB00FFEE33FEED33FDCC33CCC833C810D7078A
:1004BB009BEC9AE899400AED9BFDEC9AFCE899F8C5
:0E04CB000FD5F0DAE4CDFBE4CCFAE4C8F92258
:0D04D900EF4BFFEE4AFEED49FDEC48FC2222
:0E04E600C3E49FFFE49EFEE49DFDE49CFC2227
:1004F400EB9FF5F0EA9E42F0E99D42F0E89C45F05E
:0105040022D4
:10050500E8600FECC313FCED13FDEE13FEEF13FFD4
:03051500D8F122F8
:0C051800E0FCA3E0FDA3E0FEA3E0FF2256
:0C052400ECF608EDF608EEF608EFF62203
:0C053000ECF0A3EDF0A3EEF0A3EFF0223E
:0C053C00A42582F582E5F03583F58322CA
:101567000216E5E493A3F8E493A34003F68001F29F
:1015770008DFF48029E493A3F85407240CC8C33385
:10158700C4540F4420C8834004F456800146F6DF54
:10159700E4800B0102040810204080901900E47ECB
:1015A700019360BCA3FF543F30E509541FFEE49349
:1015B700A360010ECF54C025E060A840B8E493A310
:1015C700FAE493A3F8E493A3C8C582C8CAC583CA3B
:1015D700F0A3C8C582C8CAC583CADFE9DEE780BEF3
:0119100000D6
:00000001FF
