:10000000023196E4F912239DE9120022B93CF6E987
:10001000C39478500C12239DC374779912002280E8
:10002000EE2225E0249FF582E4343CF583E493FC42
:09003000740193FD123A28092223
:03003B0002385137
:10004300023A78020407E86480F8E933E833601180
:100053000460F0ED33EC337009E8FCE9FDEAFEEBF4
:10006300FF220460DED3EB9FEA9EE99DE8C2E78CA2
:10007300F0C2F795F0400CE8CCF8E9CDF9EACEFAF6
:10008300EBCFFB1203D285D0F05804700320D5B315
:10009300E80470075002B2D502041192D5EC046053
:1000A300F7E4CCC0E0C398F8603B94186008400DB7
:1000B300D0E0FB0203E9E4FBFAC9FC8028E830E462
:1000C30006E4C9FBE4CAFCE830E305E4C9CACBFC97
:1000D300E854076010F8C3E913F9EA13FAEB13FBCA
:1000E300EC13FCD8F130F52FC3E49CFCEF9BFFEE3F
:1000F3009AFEED99FDD0E0FBEF4E4D4C701222DBE2
:100103000302040EEC2CFCEF33FFEE33FEED33FD64
:10011300ED30E7EB0203E9EF2BFFEE3AFEED39FD9D
:10012300D0E0FB50130BBB0003020411ED13FDEEF3
:1001330013FEEF13FFEC13FC0203E9EC4D6011E82F
:10014300497017ED33EC3304600DE4FCFFFEFD2230
:10015300E933E8330470F80204071203D258046049
:1001630009E4CC24815006285009020411284003D5
:1001730002040EC0E0EB4A7044B98006D0E0FB02F3
:1001830003FDEF4E701CBD8008EBFFEAFEE9FD8026
:10019300EBE98DF0A4FEE5F0020227E9CDF9EAFED2
:1001A300EBFFEF89F0A4FCE5F0CE89F0A42EFFE489
:1001B30035F0CD89F0A42DFEE435F08067EF4E7065
:1001C30005BD80D780C3EF8BF0A4ACF0EE8BF0A419
:1001D3002CFCE435F0F8EF8AF0A42CE5F038FCE4CD
:1001E30033CB8DF0A42CFCE5F03BF8EE8AF0A42C85
:1001F300FCE5F038F8E433CF89F0A42CFCE5F038C3
:10020300CF3400CE89F0A42FFFE5F03EFEE433C9DE
:100213008DF0A42EFEE5F039CD8AF0A42FFFE5F092
:100223003EFEE43DFD33D0E0FB50070BBB000F0265
:100233000411EC2CFCEF33FFEE33FEED33FD020330
:10024300E9020411EC5D046005E85904700302043B
:10025300071203D2580460F6EC4860F2EC7004FD18
:10026300FEFF22C860DB2481C85009C39860025096
:100273000602040E9850CAF582E9294B4A7005AB71
:10028300820203FD75F0007C1A7880C3EF9BEE9A1F
:10029300ED99400DC3EF9BFFEE9AFEED99FDE84209
:1002A300F0DC23ACF0D0E0FFD0E0FED0E0FDAB8289
:1002B30020E7101BEB60BAEC2CFCEF33FFEE33FEB0
:1002C300ED33FD0203E9E803F830E705C0F075F00C
:1002D30000EF2FFFEE33FEED33FD40B830E7C28071
:1002E300AA74F8CC6480CCC86480C8F58204604FDB
:1002F300C3EB9FF5F0EA9E42F0E99D42F0E89C458E
:10030300F0603C501DE5825FFFE582D313CB5BCBEE
:10031300F42B5582FB50280ABA002409B90020089F
:10032300801DE5825BFBE582D313CF5FCFF4C3135C
:100333002F5582FF50090EBE00050DBD00010CC3F1
:10034300EB9FF5F0EA9E42F0E99D42F0E89C45F010
:100353006007CC4820E701B3EC2275F020800E75CE
:10036300F010800575F0087D007E007F003392D584
:1003730030D5031205CEEC334010EF33FFEE33FEDE
:10038300ED33FDEC33FCD5F0ED22E5F0247EA2D570
:1003930013CC92E7CDCEFF22EDD2E7CD33EC3392EF
:1003A300D524814006E4FFFEFDFC22FCE4CFCECD44
:1003B300CC24E0501174FF80EDC3CC13CCCD13CD0E
:1003C300CE13CECF13CF0470F030D5DE0205CEE9C5
:1003D300D2E7C933E833F892D5EDD2E7CD33EC3326
:1003E300FC5002B2D522EC30E7100FBF000C0EBE5A
:1003F30000080DBD00040BEB6014A2D5EB13FCED5C
:1004030092E7FD2274FFFCFDFEFF22E480F8A2D5F3
:1004130074FF13FC7D80E480EFED33EC3360100454
:10042300700FED547F7005740292E022740422046D
:1004330022E422ED33EC33600A047003BD8004EC44
:10044300B2E7FC22C0E0EFFBEEFAEDF9ECF81201A3
:100453003ED0E0F5F0EFFBEEFAEDF9ECF812061FF3
:10046300A3A3A3A3E8C0E0E9C0E0EAC0E0EBC0E0D7
:10047300C0F012013E12062FA3A3A3A312004DD076
:10048300F0D0E0FBD0E0FAD0E0F9D0E0F8D5F0D43A
:1004930022EF8DF0A4A8F0CF8CF0A428CE8DF0A489
:1004A3002EFE22BC000BBE0029EF8DF084FFADF0C1
:1004B30022E4CCF875F008EF2FFFEE33FEEC33FCAB
:1004C300EE9DEC984005FCEE9DFE0FD5F0E9E4CEE1
:1004D300FD22EDF8F5F0EE8420D21CFEADF075F0B0
:1004E30008EF2FFFED33FD4007985006D5F0F222B9
:1004F300C398FD0FD5F0EA22C2D5EC30E709B2D597
:10050300E4C39DFDE49CFCEE30E715B2D5E4C39F44
:10051300FFE49EFE1204A6C3E49DFDE49CFC80035D
:100523001204A630D507C3E49FFFE49EFE22BB015D
:100533000A89828A83E0F5F0A3E022500687F00956
:10054300E71922BBFE07E3F5F009E3192289828A42
:1005530083E493F5F074019322BB0110E58229F53E
:1005630082E5833AF583E0F5F0A3E0225009E9251B
:1005730082F886F008E622BBFE0AE92582F8E2F556
:10058300F008E222E5832AF583E993F5F0A3E993E2
:1005930022F8BB0111E58229F582E5833AF583E868
:1005A300F0E5F0A3F0225009E92582C8F608A6F089
:1005B30022BBFE09E92582C8F2E5F008F222EF4BDF
:1005C300FFEE4AFEED49FDEC48FC22C3E49FFFE445
:1005D3009EFEE49DFDE49CFC22EB9FF5F0EA9E4227
:1005E300F0E99D42F0E89C45F022E8600FECC3136C
:1005F300FCED13FDEE13FEEF13FFD8F122E8600FBD
:10060300EFC333FFEE33FEED33FDEC33FCD8F122C1
:10061300E0FCA3E0FDA3E0FEA3E0FF22E493FC746F
:100623000193FD740293FE740393FF22E493F87421
:100633000193F9740293FA740393FB22ECF0A3ED94
:10064300F0A3EEF0A3EFF022E493FB740193FA74AA
:100653000293F922D083D082F8E493701274019349
:10066300700DA3A393F8740193F5828883E47374E4
:1006730002936860EFA3A3A380DF8F258E248D23CD
:100683008C227F207E001239008E308F31752B0B28
:10069300752C0B752D1F752E1FC209C20112341440
:1006A3007DFF7F817E001237E4EF4E7040F52F12FD
:1006B30009D67DFA7F087E011237E47DFA1209F22A
:1006C3007DA67401FFFE1237E47D951209F27D5178
:1006D3007401FFFE1237E4AA06AB077D407F257E37
:1006E3000112332C052FE52FC3940240C27B017AFC
:1006F300007DFF7F817E0012332CE4F52F1209D693
:100703007B1F7D95120A157B047D40120A15123654
:100713006375F004A4FDACF012365C75F040A4FFE1
:10072300E5F04CFEEF4D120A1FC201C2021217A9D7
:100733008F2A7D007C107F0A7E04123A287D661280
:1007430009FE7D777F0C7E041237E4EF4E70117B38
:1007530001FA7DFE7F0C7E0412332C7DCC1209FE40
:100763007F007E04123900EE540FFEE52F25E024AE
:1007730026F8A60608A607052FE52FC39402500303
:10078300020700122DD7300A030209BEE4F52FE554
:100793002FC3940250F0C200E52F2401FFE433FE7F
:1007A300E53154FCFDEE4530FCEF4D7F207E001219
:1007B3000A09E6FC08E67F007E04120A09E6FE0841
:1007C300E6FFEE4480FCAD077F007E04123A287FEB
:1007D3000F7E04123900E48F3A8E39F538F5377FEE
:1007E3000E7E041239007E00EF5403FFE4FCFDC0CB
:1007F30004C005C006C0071236977802120600D05F
:1008030003D002D001D0001205C18F3A8E398D3842
:100813008C3712366A120613AB3AAA39A938A837AD
:10082300C31205DC70030209B9E4FFFEFDFCA8371F
:10083300C31205DC70030209B912369712366A1225
:10084300063F123663FFD39409500CC3740B9F7594
:10085300F003A4F5368008E6FFC3740F9FF536AFA7
:1008630025AE24AD23AC22E412035DC004C005C051
:1008730006C007123697E412035DA804A905AA0669
:10088300AB07D007D006D005D004120247121BD401
:10089300E4FBFA79A0784112013E8F358E348D3313
:1008A3008C3212364C50447F007E407D017C00AB7D
:1008B3003AAA39A938A8371205DC402F12365C242E
:1008C300F4FFE434FFFE7B1F7A00E4FDFC12382CB6
:1008D300742D252FF8A60712366324FDFFE434FF99
:1008E300FE7B0F12382C742B02097B12364C4019F5
:1008F30012364C6002500302098212365CFFE53661
:10090300241FC39FD39400407612365CFFC3741E2A
:1009130095362FF53BFC120367AB35AA34A933A8F0
:100923003212004D12039B7B3D7A00E4FDFC12382A
:100933002CEF25E0FFEE33FE74A92FF582743E3EC3
:10094300F583E493F53C740193F53D540FF9F53EBB
:10095300E53CC4F854F0C8E53DC4540F48541FFFA8
:10096300F53F12365CB53F07123663653E6010747F
:100973002B252FF8A601742D252FF8A607D20030BA
:10098300003412365CFF123990EF753C0033333379
:1009930054F8F53B12365C75F040A4FFE53B45F097
:1009A300FCE53C4FFD12366375F004A4FFEC45F003
:1009B300FEED4F120A1F052F020792D201123414C3
:1009C300AD31AC307F207E00123A2812372CD20989
:1009D300AF2A22E52F2401FFE433FEE53154FCFD69
:1009E300EE4530FCEF4DFD7F207E00123A2822AA0F
:1009F30006AB077F257E0112332C22E4FBFA7F0C22
:100A03007E0412332C22FD123A28E52F25E02426FA
:100A1300F8227A007F0F7E0112332C22AC064402A7
:100A2300FD7F267E01123A28228F258E248D238C6A
:100A330022E4F528121A501237E4EF64014E7022B3
:100A4300FF7E247D747C4AAB25AA24A923A8221205
:100A530002E4500E752C00752B24752AF475294970
:100A63008016121A16AF25AE24AD23AC221202470C
:100A73008F2C8E2B8D2A8C29C203122026AF2CAEED
:100A83002BAD2AAC29120DBC8F28E5286003020C7C
:100A9300F7122DD77E3B7F9D7D007C27122FD17EC1
:100AA3003B7F977D007C27122FD17FFA7EED7DEB74
:100AB3007CBA1219AB1219B412196F79A0784112CA
:100AC30002478F4E8E4D8D4C8C4B7F007E007D20D8
:100AD3007C41121F0FC004C005C006C00712359B1E
:100AE3001219CBD003D002D001D00012013E120361
:100AF3009B8E268F277F607EFE7D4D7C4C1219AB2B
:100B03001202E460054003020C8AC2047F667E661B
:100B13007DA61219157FE27EB87D007C4E12004936
:100B23008F538E528D518C501213298F28E52860D4
:100B330003020CF7C2047F667E667DA67C3F121912
:100B4300AB12013E8F548E538D528C51E4F55512E6
:100B530034E37F407E547D897C4B1219AB1202E44F
:100B63005011752D01752E177531A0753202752F31
:100B730008800F752D01752E16753170753201754C
:100B83002F017530007DFB7F167E011237E48F3411
:100B9300852F3D85303EAB27AA26AD31AF2EAE2D36
:100BA3001229CD8F33EF6036B40204AF328005E5EE
:100BB30032F404FFEF2534F534C364809480401E7F
:100BC300E5346480F8741F6480984012E534FB3385
:100BD30095E0FA7DFB7F167E0112332C80B2E5335C
:100BE300600675280C020CF7120D6F6003020CF7F8
:100BF300120D94121A501237E48F35E535640360F1
:100C030005E535B4021212190F7F887E457DC87C35
:100C13004E12196F79208015E535B4011B12190F97
:100C23007FBB7EEE7DA07C4F12196F797078C11265
:100C330019528E338F348006752809020CF77BFF17
:100C43007A0FE4FDFCAF34AE3312382C8E338F347D
:100C5300AB34AA337DB0120DA98F36E535B401024A
:100C63000536AF367E0012198C12382CAA06AB0754
:100C73007DFC120DA912198412382CAA06AB071297
:100C83001A5712332C8008120D6F7068120D947569
:100C93003D10753E00AB27AA267DB07F127E011260
:100CA30029CDEF600575280D804A7F127E01123928
:100CB300008E2D8F2E7F177E011239008E2F8F30DD
:100CC3007F1A7E011239008E318F327F167E011218
:100CD3003900EE5407F5338F34121A261237E48F96
:100CE300357DFD7F187E011237E48F36121A5712B5
:100CF30037E48F37D203122026E5286002FF22ADA6
:100D03002EAC2D7F127E01123A28AD30AC2F7F1707
:100D13007E01123A28AD32AC317F1A7E01123A2895
:100D2300E5334480FCAD347F167E01123A28E53664
:100D3300C43354E04401FC748CFD7F187E01123AE5
:100D430028E53775F020A4ACF04410FD7F147E0134
:100D5300123A287B947A027DE57F197E0112332CA7
:100D6300E535FB121A2412332C7F0022C204AB2C6C
:100D7300AA2BA92AA8297FE27EB87D007C4E120007
:100D8300498F538E528D518C501213298F28E52889
:100D930022C204852C54852B53852A52852951E47C
:100DA300F5551234E3227F127E0112332CAE33AF9A
:100DB300347C007D641204A6228F3B8E3A8D398CDD
:100DC300387F207E001239008E3C8F3D121A50125C
:100DD30037E48F3E7D407F197E011237E48F3F90C9
:100DE3003A8312192E1219424010121A16903A879A
:100DF300121934121942600540037F08227E3B7F9B
:100E030085123101E53EFB7D107F131210D3E53FC0
:100E1300B41F047B168003E53FFB7D407F1912104E
:100E2300D3AF3BAE3AAD39AC381235F6EF600122A1
:100E33007B011210DBC2047553E27552B875510081
:100E430075504E121329EF6001227B021210DBD280
:100E53000475535675522175510375504E1213295B
:100E6300EF600122AD3DAC3C7F207E00123A281298
:100E730038D8D20475548075539675521875514BF2
:100E8300E4F5551234E3C204E4F554F553F552F591
:100E930051F5551234E312193A6002500D7D017C6D
:100EA300001210EA7B0F7A008078E53ED39401406C
:100EB300197F887E457DC87C4E121967792078C1D9
:100EC3001219521219C08F428024E53E6401701B2F
:100ED3007FBB7EEE7DA07C4F121967797078C112BB
:100EE30019521219C0EF04F54280037F0922AF4261
:100EF300EF3395E012198B12382CEFF5837BFF7AD1
:100F03000FAF41AE4012382CEE4583FCEFFD1210BB
:100F1300EAAE40AF411219C412198412382CAA0642
:100F2300AB07121A5712332CE53F75F00A84FCE421
:100F33001203678F4E8E4D8D4C8C4B7F667E667D84
:100F4300267C3F121F0FE4FBFA79D7784312013E48
:100F53007B337AB379DC78C212004D7B9A7A997924
:100F6300A3784112196F798078411219528F40AFDB
:100F73003F123990EFFDAF40EF25E0FC7F1A7E0171
:100F8300123A287F407E547D897C4B1219424003DC
:100F93000210207B021210C7E4FBFA12109A7FFCA6
:100FA3007EBE7D007C4F12024779CE12194D7BFF26
:100FB3007A07E4FDFC12382C8E448F457546057F75
:100FC300C07EE17D647C4B12195C50037546047D41
:100FD300187C4B12195850037546037D987C4A12AE
:100FE300195850037546027F007E1B7D377C4A12D9
:100FF300195C50037546017F007EE67DAA7C491289
:10100300195C5003E4F546E54633333354F845445D
:10101300FCE545FD7F177E01123A28807112193ACB
:10102300600250557B011210C77B017A0012109A9F
:101033007F5E7ED07DB27C4F120247794812194DF4
:101043001219A312382C8F447B807A967918784B27
:10105300AF43AE42AD41AC4012196F794078C01234
:1010630019527B077A00E4FDFC12382C8F45EFFA06
:10107300E544FB7DA07F1680107B03121A241233F4
:101083002C7B027A007DFD7F187E0112332C1236F1
:10109300E812376D7F00227DFD7F187E0112332C0D
:1010A3007F667E667DA67C3FAB3BAA3AA939A8380A
:1010B30012013E8F438E428D418C40AB43AA42A91D
:1010C30041A840227A007D327F157E0112332C2203
:1010D3007A007E0112332C227A007D107F207E005D
:1010E30012332C1237AA227F127E01123A28228F42
:1010F300328E318D308C2F7F207E001239008E335B
:101103008F347E3C7F7B1231011219F71236A01205
:10111300192B121A001202E4600540030211B67F74
:10112300CD7ECC7D4C7C3F121A001219B41212EF03
:101133007BCE7A4079E878B812013EC004C005C07E
:1011430006C0071212BF7B957AB77915782512016D
:101153003ED003D002D001D00012004DC004C00520
:10116300C006C0071213097B757AEC7935783B12F8
:10117300013ED003D002D001D00012004DC004C004
:1011830005C006C0077FB47E4E7DA87C41121A4578
:10119300D003D002D001D00012004D7B157AA37981
:1011A3004112195012199F12382CAA06AB077D70F1
:1011B30002123F1219B71219F71212EF7B347A0A8F
:1011C300795D78B912013EC004C005C006C007129C
:1011D30012BF7B667A277994783512013ED003D00B
:1011E30002D001D00012004DC004C005C006C007E4
:1011F3001213097BAC7A0D799C783C12013ED00323
:10120300D002D001D00012004DC004C005C006C0FA
:10121300077F437E727DB77C3F121A45D003D0020D
:10122300D001D00012004D7BC37AC7793E1219500A
:1012330012199F12382CAA06AB077DF87F097E018D
:1012430012332C1219F71235F6EF6001227B0112CB
:1012530012D67B021212D6AD34AC337F207E00123D
:101263003A281238D8D20475540075532475527431
:1012730012131FD204853254853153853052852F82
:10128300517555011234E3C2047554007553BA7590
:10129300525B12131FC2047F007E507DC37CC712B2
:1012A3001A0012004D8F548E538D528C5175550177
:1012B3001234E31236E812376D7F0022E4F54EF55F
:1012C3004D754C80754B40AF38AE37AD36AC3512EB
:1012D3001F0F227A007D107F207E0012332C7B01AA
:1012E3007A007D117F1C7E0112332C221202478F5C
:1012F300388E378D368C35E4F54EF54D754C40758B
:101303004B40121F0F22E4F54EF54DF54C754B4043
:10131300AF38AE37AD36AC35121F0F22755149E4E5
:10132300F5551234E3227F207E001239008E548F4C
:10133300557A003004047B0280027B017D107F20FC
:101343007E0012332C756207AF62123A16AC06ADFB
:1013530007E4120362AB53AA52A951A85012013EEB
:101363008F598E588D578C567F667E7F7D62122CE7
:1013730093400D7F267EE57DE5122C9360054003A7
:10138300D562C5E56224FFFBE434FFFA7D867F1F47
:101393007E0112332C7FAC7EE97DA3122C937F0058
:1013A300600440027F018F62EFFB7A007DAA7F1CFD
:1013B3007E0112332CE5622401FDE433FCE41203C5
:1013C30062AB1CAA1BA91AA81912013E122C8AAFE0
:1013D30059AE58AD57AC561202478F618E608D5F80
:1013E3008C5E12039BE412035D122C8AAF61AE6024
:1013F300AD5FAC5E1200497849122CBD8F5D8E5CE7
:101403008D5B8C5A7CC0AB61AA60A95FA85E122C6D
:10141300AB7F1E7E0112332CAF5DAE5CAD5BAC5A6D
:10142300122CFB7F1E7E0112332CE55DFFE55CFE73
:10143300AD07AC067F1D7E01123A28C2057559FF20
:10144300E4F556E5561214B2D2061214BFEF702A11
:101453007DA37F217E011237E48F5AEF2480FFE4BE
:1014630034FFFE123A6C8F5BE55BC39559500985D7
:101473005B59855657855A58D2050556E556C39488
:101483000340C0E5571214B2E558FB7A007DA37FF1
:10149300217E0112332CAD55AC547F207E00123ACD
:1014A300282005087F033004027F04227F0022FBEB
:1014B3007A007D217F217E0112332C22E4F56A75A7
:1014C3006B7F756D80756EFFF56CF56F3006137568
:1014D30067017568217569A3FBFA7D217F1C7E0175
:1014E300801175670075688B756981E4FBFA7D214E
:1014F3007F86FE12332C7F187EB77DD17C37AB1CE1
:10150300AA1BA91AA819122CC2C374FF9FF51E7433
:10151300FF9EF51DE4FBFA121634A2069207123958
:1015230026BF03037F01227BFF121621EF70037F87
:101533000122E4F570757140E571604E122C782438
:101543006AF8E64571F612160D8F72E572B4030C54
:10155300122C78246AF8E66571F68026E572640237
:101563007020122C78246B122C75246AF8E6D39F12
:101573005010122C78246CF87601122C6D246BF821
:10158300A607E571C313F57180AE122C78246BF8AE
:10159300E6601F12160DEF6402600E122C6D246BB1
:1015A300F8E6C39F500C068009122C78246BF816BA
:1015B30080D80570E570C394025003021538E56FB7
:1015C3006018C3E56A956BFFC3E56D956EFEC39F17
:1015D3004008EE13256EF570800BC3E56A956BC367
:1015E30013256BF570E570FB121621EF6402600A98
:1015F3000570E570FB7A00121634A20692071239C1
:1016030026BF02037F00227F0122FB7A00AD69AF70
:1016130068AE6712332CA2069207123926227A008B
:10162300AD69AF68AE6712332CA206920712392652
:1016330022AD69AF68AE6712332C227F207E001281
:1016430039008E2B8F2CE52C540364017006FBFAB2
:101653007D448005E4FBFA7D337F82FE12332C7ECA
:101663003D7FB1123101120003123222A907E96052
:1016730001227B0112237C12332C1237AAD20412CB
:101683002809C004C005C006C0071223511223C194
:10169300D007D006D005D0041200497B007A247904
:1016A3007478C912004D8F308E2F8D2E8C2DC2046D
:1016B3001223EC121329A907E96006121793AF014D
:1016C300221236E812237A12332C7A0012240912DA
:1016D300332C1239AD40061217937F0422AD2CAC84
:1016E3002B7F207E00123A281238D8D204122351BD
:1016F30012236E1234E31224141237E48F2D3001B7
:1017030054E4FBFA7D777F0C7E0112332CE52D64C4
:10171300016006E52D64027039E5125403F52EFBD2
:101723007A0012179FE52E24FFFFE434FFFEEFF447
:10173300FBEEF4FA7D217F0D7E0112332CE52D148F
:101743007F0070027F01E5121313543F6F602E7FF9
:1017530007227F0722E52D64016009E52D640260FD
:10176300037F0722E52D2401FBE433FA12179F7D43
:10177300657F0C1217867D437F0D12178612376D16
:101783007F0022E52D6403FB7A007E0112332C22B5
:10179300AD2CAC2B7F207E00123A28227D877F0D53
:1017A3007E0112332C227F207E001239008E418F5E
:1017B30042C203122026A2019203121A5E8F40E551
:1017C30040600302185C122DD7122D17300203025A
:1017D300185C2001261224451237E4BF020C7D5504
:1017E3001218EDE4FBFA7D33800A7D661218EDE4EE
:1017F300FBFA7D447F0D7E0112332C12237A1233C0
:101803002C12240B1237E4EF4E701BFA1224091228
:10181300332C7B0112237C12332CE4FBFA7D117FE2
:101823001C7E0112332C121903AF18AE17AD16AC80
:1018330015A20192031228EC8F40E540701B7DDD59
:101843001218F812238512332C12234F78471223D0
:10185300651234E3C2031226407DA07F027E041288
:1018630037E48E438F447DA07F017E041237E48EDC
:10187300458F467DB07F037E041237E48E478F4841
:10188300D203122026121903E5406002FF22200230
:1018930027AB44AA437DA07F027E0412332CAB46C0
:1018A300AA457DA07F017E0412332CAB48AA477D55
:1018B300B07F037E0412332C1223B612332CE5427D
:1018C30030E007E4FBFA7D668005E4FBFA7D777F71
:1018D300C07E0512332C7D201218F8E4FBFA7D88B4
:1018E3007F0C7E0412332C7F0022E4FBFA7F0C7EF4
:1018F3000112332C22E4FBFA7F0C7E0412332C22D8
:10190300AD42AC417F207E00123A28227FEC7E510B
:101913007D387C3FAB2CAA2BA92AA82912013EA80B
:1019230004A905AA06AB0722903A8FE4FBFAF978DB
:101933004012061F0202477F607EFE7D4D7C4CAB4A
:101943003BAA3AA939A8380202E4E4FBFA78C212A6
:10195300004D02039B7F807E96AB43AA42A941A818
:10196300400202E4AB3BAA3AA939A838120247E481
:10197300FBFA2212061FAB25AA24A923A8220202DE
:10198300E4C3740F9FFFE49EFE7B0F7A00E4FDFC2B
:1019930022AE3BAF3CE4FCFDC30205DC8E398F3A3B
:1019A3007BFF7A00E4FDFC22AB2CAA2BA92AA829F1
:1019B3002212013E7B007A2479747849228E408F6B
:1019C300417C007D640204FBE412035D7B817A04A5
:1019D3007935783F02013EE4FBFA7D417F40227D69
:1019E300C87F0A7E0122C3E5409544F540E53F9553
:1019F30043F53F22AF32AE31AD30AC2F22AB32AA2A
:101A030031A930A82F22E5442540F540E543353F71
:101A1300F53F22E4FBFAF978402285398285388341
:101A2300227A007D327F157E0122E493FE740193B6
:101A3300FF740293FD22740493FFAD3EED3395E0F2
:101A4300FC22AB38AA37A936A83502013E7D107FA8
:101A5300137E01227D857F147E01227F207E00126A
:101A630039008E4A8F4B7E3E7F8B123101E54B54FA
:101A73000364017006FBFA7D228005E4FBFA7D1105
:101A83007F82FE12332C300327E51213135401FF18
:101A9300C374029FF54CFB12241212332C122445FB
:101AA3001237E4E51254036F7001EE60287F0622BB
:101AB3001224451237E4EE7019EF14600B24FE6014
:101AC3000704700E7B0180027B0212241212332C56
:101AD30080037F062212237A12332C12240B12372F
:101AE300E4EF4E70357B01FA7D107F20FE12332C1C
:101AF3001237AAD204122809C004C005C006C007C1
:101B03001223511223C1D007D006D005D0041200EE
:101B13004978CB1223E3C204803B7B0112237C125E
:101B2300332C1239AD40037F0322C2041228098FDC
:101B33004F8E4E8D4D8C4C12237A12332C1237AAB2
:101B4300D204122351AB4FAA4EA94DA84C12004DFB
:101B5300784B1223E31213298F49AD4BAC4A7F20F4
:101B63007E00123A28E5496002FF221238D8123269
:101B7300228F49E549600122120003D204755440C3
:101B830075535475520975514BE4F5551234E312EC
:101B9300234F1223631234E31236E812376D7F00AA
:101BA300223E9248DA3ECCCCCD3F2AAAAB4000007D
:101BB300003F8000003F9837F03FB504F33FD74420
:101BC300FC3E3172173EB172173F0515913EDE5B45
:101BD300D9D2018002C201EDD2E7F8CD33EC330450
:101BE300700BBD800592D502041102040740FBD39C
:101BF3001460F2F5F07C3FEE7A00C39496C8948BA0
:101C030040230AC89469C8941A401A0AC89468C839
:101C1300941F40110AC8945AC89425400805F07AC5
:101C230000CDC2E7CDC0F08C518D528E538F54EA54
:101C33002323C0E024B4F582E4341BF58312062F7A
:101C430012004DECC0E0EDC0E0EEC0E0EFC0E012EA
:101C5300061FA851A952AA53AB54120049D0E0FB66
:101C6300D0E0FAD0E0F9D0E0B2E7F81202478C51A5
:101C73008D528E538F54901BA47403120447A851A2
:101C8300A952AA53AB5412013ED0E0600F24C0F511
:101C930082E4341BF58312062F12004D8C518D52B2
:101CA3008E538F54D0E0C3947FFDE49400FC120361
:101CB300627B187A727931783F12013EA851A9529A
:101CC300AA53AB5412004D30010B7BD97A5B79DEFA
:101CD300783E12013E22752B50752C007D22122373
:101CE3008712332C12238512332C12234FE4FBFA71
:101CF300F9784012013E7B007ABA795B7849122366
:101D03006B1234E37D407F197E011237E48F2D304F
:101D1300010EE4F52EE52E7D967F13121DEC803621
:101D23007D527F137E011237E48F2E8029122431D6
:101D33004003021DC2E52EC3940F4003021DC205DA
:101D43002EE52EFB7A003001047D9680027D527FC2
:101D5300137E0112332C12359B8E2F8F3080CEE5EC
:101D63002DC394195061E52E640F705B122431501A
:101D730056E52DC39419504F052DE52D7D407F1950
:101D8300121DEC12359B8E2F8F30AC2FAD30E41229
:101D93000362C004C005C006C007AC31AD32E41213
:101DA30003621223C1D007D006D005D00412024724
:101DB3007B667A667986783F1202E4600250088572
:101DC3002F318530328098C3E5309421E52F940B71
:101DD30050057E007F05227D771223CC12332C120F
:101DE30023CA12332CE4FEFF22FB7A007E01123356
:101DF3002C2212237E1237E48F3D12243B12332C04
:101E0300E4FBFA7D887F087E0212332C12238512AD
:101E1300332C12242612332C1223B612332C752D95
:101E2300A07536A0E53DB40117752B05752CC37558
:101E330034057535C47D44121F04E4FBFAFD801696
:101E4300752B05752CC57534057535C67D55121F63
:101E530004E4FBFA7D117FC07E0512332CE4FDFC04
:101E6300AF2CAE2B1232ABE4FDFCAF35AE341232E5
:101E7300ABE4F52EF52FF537F538F53E12238FE455
:101E830093FE740193FFC3E52F9FFFE52E9EFE7B18
:101E9300FF7A037D007CFC12382C8E308F311223A5
:101EA3008F740193252FFFE493352EFE12382C8E69
:101EB300328F3312238FE493FE740193FFC3E5380B
:101EC3009FFFE5379EFE12382C8E398F3A12238FEF
:101ED3007401932538FFE4933537FE12382C8E3B7B
:101EE3008F3C7B007A00792B122B817B007A00795F
:101EF30034122B81053EE53EC394035003021E7F3B
:101F030022E4FBFA7FC07E0512332C228F4A8E49CE
:101F13008D488C47E4FFFE7D807C3FAB4AAA49A9EC
:101F230048A8471202E47009AF4AAE49AD48AC472E
:101F330022AF4AAE49AD48AC4712041CFBAF4EAECC
:101F43004DAD4CAC4B12041CFFBF0108E4FFFE7DFA
:101F5300807C3F22EF64046022EB6404601DBB01BC
:101F630027E4FFFEFDFCAB4EAA4DA94CA84B120281
:101F7300E460084006E4FFFEFDFC2274FFF54EF525
:101F83004DF54CF54B02201DE4F54FF550FFFEFDDA
:101F9300FCAB4AAA49A948A8471202E4504BAF4EEA
:101FA300AE4DAD4CAC4B12039B8E4F8F50AC4FAD2F
:101FB30050EC120362C8ECC8C9EDC9CAEECACBEF34
:101FC300CBAF4EAE4DAD4CAC4B120049E4FBFAF92E
:101FD300F81202E470A5AF4AAE49AD48AC4712040B
:101FE300368F4A8E498D488C47AF4AAE49AD48ACCF
:101FF30047121BD8AB4EAA4DA94CA84B12013E1257
:102003002F6F8F4E8E4D8D4C8C4BE55030E00B1265
:1020130004368F4E8E4D8D4C8C4BAF4EAE4DAD4C2A
:10202300AC4B22E4F549F54A7F20FE1239008E4D70
:102033008F4E20030A9003E8E54DF0A3E54EF079B7
:1020430024E9605225E02421F582E4343FF583E45A
:1020530093F54B740193F54CE925E02423F582E4D1
:10206300343FF583C3740193954CE493954B40221D
:1020730030030512211A80081220FBECF0A3EDF0C7
:10208300054AE54A70020549054CE54C70CA054B03
:1020930080C6191980ABE4F9E924FDFDE434FFFCA3
:1020A3007F207E00123A28754B01754C1C300305C6
:1020B30012211A80081220FBECF0A3EDF0054AE58B
:1020C3004A70020549054CE54C7002054BD3942335
:1020D300E54B940140D709E9640270BC30030D124B
:1020E300372C9003E8E0FCA3E0FD8004AD4EAC4D3B
:1020F3007F207E00123A2822AF4CAE4B123900AC3F
:1021030006AD07E54A25E0FFE54933FE74002FF5E8
:102113008274003EF58322E54A25E0FFE54933FE5C
:1021230074002FF58274003EF583E0FCA3E0FDAF5D
:102133004CAE4B123A28228F258E248D238C22906D
:102143003A8B121976400A903A9712197660054035
:10215300037F0A22121A16AF25AE24AD23AC221236
:1021630002478F298E288D278C26903A8F12197655
:10217300601B4019903A931219765011121A169057
:102183003A931219348F298E288D278C26C2031275
:102193002026AF29AE28AD27AC261210F28F2AE5F0
:1021A3002A7061122DD71219DA7E0412332C1219F8
:1021B300DA7E0212332C7E3C7F997D007C27122F1E
:1021C300D112192BAB29AA28A927A8261202E46049
:1021D3000250047D70800F7B027A007D607F1A7E3F
:1021E3000112332C7DF87F097E0112244C8F2A12B1
:1021F30019E21237E48E2B8F2C7F097E01123900EE
:102203008E2D8F2ED203122026E52A6002FF22ABE9
:102213002CAA2B1219E212332C7D8C7C317F067E83
:1022230001123A287D8C7F077E01123A28AD2EAC2D
:102233002D7F097E01123A28AF29AE28AD27AC269F
:102243001236A07F00228F568E558D548C53122C3C
:10225300E07FD77E3C7DAF7C4E120247E4FBFA79E8
:102263008078BF12004D12039B8F5F122CE07FED2D
:102273007E127D667C4E12024712039B8F60E560DF
:10228300255FFFE433C313EF13F5612401FFE43348
:10229300FEEF25E0FDEE33FCE4120362122CE012A4
:1022A300013E8F5A8E598D588C57E561FB7A007D1C
:1022B300A37F891223368F5E8E5D8D5C8C5B7CBF22
:1022C300AB5EAA5DA95CA85B122CAB7F8812233698
:1022D30012039BE412035D122C8AAF5EAE5DAD5C0C
:1022E300AC5B1200498F628E618D608C5FE4FFFEF0
:1022F3007D807C49AB62AA61A960A85F122CC28F62
:10230300668E658D648C63E4AB07AA067DF07F87D8
:10231300FE12332CAF66AE65AD64AC63122CFB7F4B
:10232300887E0012332CC2061214BFEF7F006002B6
:102333007F02227E0012332CAB1CAA1BA91AA819F8
:10234300AF5AAE59AD58AC5712024722C204AF1868
:10235300AE17AD16AC1579A07840E4FBFA0202473C
:1023630078C77B007A5079C312004D8F548E538DFA
:10237300528C51E4F555227B027A007D107F207E3A
:1023830000227D77E4FBFA7F0C7E0422E53E25E004
:102393002417F582E4343DF58322E975F02884752A
:1023A300F018A4FFE92400FDE43405CD2FFFED353B
:1023B300F0FE227B017A007DFF7FC07E0522A80408
:1023C300A905AA06AB07227D227B017A007F0C7E3A
:1023D3000422D3903E9D740193954EE493954D2230
:1023E3007B407A54790912004D8F538E528D518C54
:1023F3005022C3E568956AE567956922C3E543956D
:1024030045E5429544227B017D667F1C7E01227A4D
:10241300007DBA7F037E0122FEC3EF9401EE648048
:102423009480227B017A007D337F087E0222C3E5FC
:1024330030952CE52F952B227B017A00E4FDFF7E5E
:1024430001227D877F0D7E01228E2F8F308D317586
:1024530032061219DA7E0212332C1219DA7E0412B2
:10246300332C12359B1219CB12039B8E338F347E80
:102473000212253D7E0412253D12359B121922AE10
:1024830033AF34121998500CE4F535753619D2016F
:10249300C202800A75351F7536F6C201D2023001B9
:1024A300067E3C7F8D80047E3C7F93AD34AC33123B
:1024B3002FD1920020004A1219E21237E4EF65355A
:1024C3007001EE703CAD31AF30AE2F1237E48F3771
:1024D300E5376003B4FF037F0022AF36EF3395E0A7
:1024E300FEE5372FFFE43EFE1219A312382CAA068D
:1024F300AB07AD31AF30AE2F12332C7B107A008097
:102503001F3002221219E21237E48F370537AF3733
:102513007E007B1F7A00E4FDFC12382C8F37EFFB23
:102523001219E212332C1532200007E53260030240
:1025330024557F0E3000027F00227B017A007D410B
:102543007F4012332C227F207E001239008E228F8F
:1025530023C203122026A200920112163E8F24E505
:10256300247043122DD7122D17A2009201121CD9E9
:102573008F24E5247030122D1712234F7B007ABA73
:10258300795B784912236B1234E3121DF5C204758B
:1025930054007553BA75525B755149E4F5551234BD
:1025A300E3D2031226407DA07402FFFE1237E48EAD
:1025B300258F267DA07F017E021237E48E278F2888
:1025C3007DB07F037E021237E48E298F2AD2031255
:1025D3002026AD23AC227F207E00123A28E524601A
:1025E30002FF22AB26AA257DA07402FFFE12332C24
:1025F300AB28AA277DA07F017E0212332CAB2AAA27
:10260300297DB07F037E0212332C1223B612332CA2
:10261300E52330E007E4FBFA7D448005E4FBFA7D23
:10262300557FC07E0512332C12242612332CE4FB73
:10263300FA7D107F087E0212332C7F00227BFF7A03
:102643003C799F8B498A4A894B755BA07552B030A0
:102653000310754E02754F017402F54CF54DF5509C
:10266300800F754E04754F01754C04754D027550FE
:10267300047551037557007558807555FF7556805D
:102683007F501227257DBF12271B7DFF12271312B0
:10269300359B8E628F637DFF12271B7DBFAF4FAECD
:1026A3004E123A2812359B8E648F65C3E563956598
:1026B300E56295645008854C59854D5A8006854ED0
:1026C30059854F5A7DFF7C07122713756007756183
:1026D300FF755E05755FFF7F59122725E5542410AA
:1026E300F558E43553F557E55424F0F556E55334DE
:1026F300FFF5557F50122725AD5DAC5CAF5AAE593F
:10270300123A28AB54AA53AD52AF51AE5002332CF8
:10271300AF4FAE4E123A28227C07AF4DAE4C123A61
:1027230028228F6674FFF567F568A807E82405F883
:10273300E6F56B08E6F56CA807E82407F8E6F56DFF
:1027430008E6F56EA807E6F57108E6F572A807E84E
:102753002402F8E6F573FD1227FA8E698F6AC3E542
:102763006E956CFFE56D956B12241B405E7C007DBE
:10277300021204FB8E6F8F701223F5500BAD731290
:1027830027FA8E698F6A8014AB6CAA6BAD73AF7234
:10279300AE7112332C12359B8E678F68D3E570941C
:1027A30000E56F6480948040221223F5500FC3E547
:1027B3006E9570F56EE56D956FF56D80A1E57025ED
:1027C3006CF56CE56F356BF56B80931223F5500652
:1027D300AE6BAF6C8004AE6DAF6EE5662403F8A6F6
:1027E3000608A607E5662403F8E6FA08E6FBAD73D8
:1027F300AF72AE7102332CAB6EAA6DAF72AE7112B3
:10280300332C12359B227F207E001239008E508F8D
:10281300517A003004047B0280027B017D107F200B
:102823007E0012332C7DD07F1E7E011237E48E5240
:102833008F537F1D7E01123900E4FCFDC004C005E7
:10284300C006C007FEE553122D0ED003D002D001FF
:10285300D0001205C18F578E568D558C547DAA7F9B
:102863001C7E011237E4EF04F5587D867F1F7E013D
:102873001237E4EF04F559AD51AC507F207E0012BE
:102883003A28AF59122C7F122CF0C004C005C006A1
:10289300C007AC58E4120367D003D002D001D000C4
:1028A30012013EC004C005C006C007AF57AE56AD07
:1028B30055AC54122CD2C004C005C006C007E55263
:1028C300C4F854F0C868FEE553C4540F48240412F6
:1028D3002CCAD003D002D001D00012004DD003D0B7
:1028E30002D001D00012013E228F4C8E4B8D4A8CB8
:1028F300497DFA7F087E011237E48F4F7B017A000E
:102903007DDD7F0C7E0412332C12238512332CC2FF
:1029130004AF4CAE4BAD4AAC491223591223631298
:1029230034E330032675500F800F1223D540411531
:1029330050E550648094804037E550FB3395E0FACE
:102943007D517401FFFE1229C280DF755002801091
:102953001223D5401B05500550E550D3940F50105A
:10296300E550FB7A007D527F137E011229C280E07D
:10297300C3E54D9410500F054F054FE54F94395063
:10298300051229AC80EA1223D5400E054FE54FD33B
:10299300943E50051229AC80EDC3E54E9421E54DDC
:1029A300940B7F0050027F0522E54FFB7A007DFAEE
:1029B3007F087E0112332C12359B8E4D8F4E2212CF
:1029C300332C12359B8E4D8F4E228E388F398D3A94
:1029D3008A3B8B3C12359B121922121994500280A8
:1029E30001C39200AD3AAF39AE381237E48E3F8F50
:1029F30040E53AC4540FFFE53A540FFEC3EF9E047B
:102A0300FF123A16EF24FFF542EE34FFF54175430A
:102A130000754401E54425E0F544E54333F54330CF
:102A230000051219E98003121A09122A8F12332C96
:102A330012359B1219221219947F0050027F01A2B2
:102A430000E433B50713C3E544953EE543953D40A4
:102A5300C37F013000027F0222D3E5449401E543A2
:102A630094004025E54313F543E54413F54412353B
:102A73009B1219221219944005121A098003121984
:102A8300E9122A8F12332C80D07F0022AB42AA4155
:102A9300E4FDFCAF40AE3F12382C8E3F8F40AB407D
:102AA300AA3FAD3AAF39AE38227581D0E4F5A275AD
:102AB30091FFF59075A10775A9FF75A88075890128
:102AC300C2A0D2A13008FDE50A1206572AFD002B49
:102AD30004012B08022B0C032B10042B17052B26A8
:102AE300062B35072B3C082B43092B4B0A2B65116F
:102AF3002B6E122B79FF00002B7CC2083009FD805E
:102B030042C200805FC2018064C2008002D2001210
:102B1300353F8065AF18AE17AD16AC15120A2C8F72
:102B2300908056AF18AE17AD16AC1512213A8F90A0
:102B3300804712394A8F9080401239C98F9080396B
:102B4300850B12E4F5908031E4F590C20A7F2DFEE7
:102B5300123900E4FCFD780212060012067D8F9004
:102B63008017D2001225498F90800ED201C2021223
:102B730017A98F908003759005C208022AC78B3F5F
:102B83008A40894174FFF542F54390000512055CC4
:102B9300F54785F04690000712055CF54985F04836
:102BA300122C448E448F45C3E5499547FFE548956C
:102BB3004612241B405B7C007D021204FB8E4A8F6D
:102BC3004B1223FFAB3FAA40A9415009122C448E5C
:102BD300448F458014120531FFAEF0AD47AC461269
:102BE30032AB12359B8E428F43E54B454A6022122E
:102BF30023FF500FC3E549954BF549E548954AF541
:102C03004880A4E54B2547F547E54A3546F5468018
:102C1300961223FF5006AE46AF478004AE48AF4935
:102C2300AB3FAA40A941900003EE8FF01205941226
:102C33000531FFAEF090000312055CFDACF00232EB
:102C4300AB120531FFAEF0AD49AC481232AB1235D1
:102C53009B22F582E43550F58312064B75F002E5AD
:102C630053A4F58285F08302055CE57075F003A437
:102C7300246AF8E6FFE57075F003A422123A16AC55
:102C830006AD07E4120362A804A905AA06AB07224E
:102C93007C4FAB59AA58A957A8560202E4AF5FAEBE
:102CA3005EAD5DAC5C020247E4FFFE7D8012004D29
:102CB30012039BAB07AA067DD422E4FBFA798012A8
:102CC300013E02039B2401FDE43EFCE4020362E4B3
:102CD30012035DE4FBFA79807849020247AB56AAF6
:102CE30055A954A8532285518285508322AF1CAE27
:102CF3001BAD1AAC1902024778101205EDAB07AAF7
:102D0300067D3022AD82AC837E0022540FFFE4782F
:102D130010020600754905754AC712237E1237E46F
:102D23008F4BE4FBFAFDFF7E0112332C1223CA12F0
:102D3300332C1223B612332CE54BB401117D6612EA
:102D43002DAD7D22122DAD7D30122DCD801A7D77D4
:102D5300122DC27D33122DC27DC0122DCD740225DA
:102D63004AF54AE43549F5497FC17E05123900EE3B
:102D730054F070F4E4FBFA122DB8C203AF4AAE4923
:102D8300122E8D7BFF7A07122DB8E54A2401FFE44A
:102D93003549FEC203122E8DE4FBFA7D227F0C7EA1
:102DA3000412332C12243B02332CE4FBFA7FC07E43
:102DB3000512332C227DA07F017E0412332C22E4E2
:102DC300FBFA7FC07E0512332C227CFF7FC27E0577
:102DD300123A28227D207F0A7E041237E4E47E0122
:102DE300A807088005C333CE33CED8F9F54A8E49F8
:102DF3007DEC7F037E041237E48F4BE54BC39406CF
:102E0300500F7402A807088002C333D8FCF54B8027
:102E130003754B01C20512347DE4FBFAF9784012C5
:102E23000247C004C005C006C007AC4BE4120367E9
:102E33001223C1D007D006D005D004120247C00424
:102E4300C005C006C007AC49AD4AE4120362D00313
:102E5300D002D001D0001202478F4F8E4E8D4D8C81
:102E63004CAF1CAE1BAD1AAC19AB4FAA4EA94DA863
:102E73004C12013E7940784112235D12039BC374C7
:102E8300FF9FF51474FF9EF513228E4C8F4D300374
:102E9300067E037FFF80047E007F3F8E588F59AFED
:102EA3004DAE4C1233A68E558F568E538F5412351A
:102EB3009B8E4F8F508E518F52E5562401FFE43580
:102EC3005512381EAC06AD07122F2C1223C1AE4F7C
:102ED300AF50E4FCFDC31205DC7FFF50027F018F7E
:102EE30057754E08AF57EF3395E0FEE5562FFFE5D4
:102EF300553E12381E8E558F56AD56AC55122F2C9B
:102F03008E4F8F50C3E5509552E54F9551500C8528
:102F13004F51855052855553855654D54EC6AD54A1
:102F2300AC53AF4DAE4C0232ABAF4DAE4C1232ABE5
:102F330012359B2233DA929E35B16011377FE5FE5D
:102F4300392184893AAEC3FF3C1D955B3D635847E5
:102F53003E75FDF03F3172183F800000C2D5020478
:102F630011020407BD80FA50F302040EED33EC3373
:102F73000460F17B3B7AAA79B8783F12013EED33C6
:102F8300EC3392D5247B5011A2D570DB500BED446A
:102F93008024045004A2D580CEEFFBEEFAEDF9ECC9
:102FA300F812039BEFF582F404FC12036712004D41
:102FB300C082902F377409120456ED33CC33D0F00E
:102FC30092D525F0A2D57001C313CC13FD228E3800
:102FD3008F398C3A8D3B8F828E83121A2D1237E4F0
:102FE3008F3E12359B8E3C8F3DC3EF953BEE953A5A
:102FF3007F0050027F01121A1D7405936F704B748A
:103003000393FF253EF53ED3EF64809480400F1277
:103013001A39D3ED9F7480F86C984002802C121AF1
:103023001D740393C364809480500D121A39C3ED49
:103033009F7480F86C984012121A1D121A2DE53EE7
:10304300FB3395E0FA12332C8098D3E53D953BE5AD
:103053003C953A7F0040027F01121A1D740593B517
:103063000703D38001C3227DA37F897E001237E447
:10307300EF122CC8C004C005C006C007E4FBFAF970
:103083007840122CF0D003D002D001D000120247B6
:103093008F678E668D658C647DD07F887E00123746
:1030A300E48E688F697DF07F877E001237E4E4FC4D
:1030B300FDC004C005C006C007FEE569122D0ED091
:1030C30003D002D001D0001205C1122CD2C004C01B
:1030D30005C006C007E568C4F854F0C868FEE56992
:1030E300C4540F48122CC8D003D002D001D0001210
:1030F300004DAB67AA66A965A86412013E228E50F3
:103103008F518F828E83740993F552E55260461472
:10311300F553122CE9122C5CFFAEF0C006C0071267
:103123002C5FFFAEF0123900E5512406122C55F442
:10313300FDE5F0F45EFEEF5DFF122CE9A3A3A312FD
:103143002C5CFDEE45F0FCEF4DFDD007D006123AA6
:1031530028155280B6122CE9741093F552E552608B
:103163003114F553E551240A122C55FFAEF0122CFD
:10317300E9741193FDE552D39D40067C007D0080E8
:103183000AE551240D122C55FDACF0123A281552C4
:1031930080CB22787FE4F6D8FD75817E0231DD0293
:1031A3002AACE493A3F8E493A34003F68001F20866
:1031B300DFF48029E493A3F85407240CC8C333C471
:1031C300540F4420C8834004F456800146F6DFE4DC
:1031D300800B01020408102040809038AEE47E0189
:1031E3009360BCA3FF543F30E509541FFEE493A34F
:1031F30060010ECF54C025E060A840B8E493A3FA61
:10320300E493A3F8E493A3C8C582C8CAC583CAF0EC
:10321300A3C8C582C8CAC583CADFE9DEE780BE1278
:10322300306A7B007AC8792F784C120247E4FBFAA4
:10323300F9783F12004D12039B7B0D7A007D027CCF
:103243000012382C8F50E55025E025E0F5517DBB69
:103253007F867E001237E4EF64014E70127DCB7FD0
:1032630089FE1237E4123A16E5518FF084F5517551
:10327300523FE552600FE551C395525008E552C3E2
:1032830013F55280EDE552FB7A007D707F077E04D3
:1032930012332CAC50E41203677B007AC8792F7881
:1032A3004C12013E122249228E5A8F5B8C5C8D5D3B
:1032B300C3E55B94C7E55A940550067E037FFF8000
:1032C300047E007F3F8E5E8F5FE4F560F561C3E5AA
:1032D3005C64809480501AE55F2401FFE4355EFE50
:1032E300EF4261EE4260E55D255FFFE55C355E80A0
:1032F3000FE55D255FCFE55C355ECF2401CF34005C
:10330300FE123A6CE55E5EFEE55F5F4261EE42608F
:10331300AD61AC60AF5BAE5A123A28E5604480FC05
:10332300AD61AF5BAE5A023A288A7B8B7CA9058FCD
:10333300828E83123900AD07AC06E9C4540FFFE94E
:10334300540FFBC3EF9B04FF74FFFEA8070880051F
:10335300C333CE33CED8F9F4FFEEF4FEEFA803085F
:103363008005C333CE33CED8F9F57E8E7DE9540F75
:10337300FFE57CAE7BA807088005C333CE33CED8E8
:10338300F9FFE57D5EFEE57E5FFFE57EF4FBE57D0F
:10339300F45CFCEB5DFDEC4EFCED4FFDAF82AE83C8
:1033A300023A288F828E83C3E58294C7E58394050E
:1033B30050067E037FFF80047E007F3F8E5A8F5B23
:1033C300AF82AE83E4FDFC123A28AF82AE837D0068
:1033D3007C40123A28AF82AE831239008E5C8F5D37
:1033E300AF82AE83E55C543FFCAD5D123A28E55CE9
:1033F300555AFEE55D555BFFE55B2401FDE4355A57
:10340300555CFCE55D5D4C60077CFF7DFF12049419
:10341300227F207E001239008E408F41E4F54279ED
:1034230002E4F543E54154FCFFE540FCEF4543FD71
:103433007F207E00123A28E543C39405502DE543CF
:1034430025E0249F30011012367A123689E0FCA35E
:10345300E0FD123A28800E12367A123900123689AC
:10346300EEF0A3EFF00542054380CC19E970B2AD4D
:1034730041AC407F207E00023A2812306A8F5F8E73
:103483005E8D5D8C5C7DCB7F897E001237E4122CD0
:103493007F122CA08F638E628D618C607DBB7F86D3
:1034A3007E001237E4EF4E7017300509AF63AE624A
:1034B300AD61AC6022E4FBFA79807840122CA02243
:1034C30030050AAF5FAE5EAD5DAC5C8012E4FBFA23
:1034D30079807840AF63AE62AD61AC60120247227F
:1034E300E55575F002A4FFAEF07C043004027C02C3
:1034F3007D42EF2DF557EE3CF556A20492051234AA
:103503007D122C8AAF54AE53AD52AC5112024778A0
:103513004F122CBD8F5B8E5A8D598C587810120523
:10352300EDAD07AC06AF57AE56123A28E557240166
:10353300FFE43556FEAC5AAD5B023A28E50CAD0DFF
:10354300FCE4120362E4FBFA797A7844120247C07E
:1035530004C005C006C007AC0BE4120367D003D058
:1035630002D001D00012004D7B007A24797478498F
:1035730012013E8F258E248D238C2230000A8F1C4E
:103583008E1B8D1A8C19800C85251885241785238D
:1035930016852215E4F59022C28CE513F58CE5140B
:1035A300F58AC28DD28C308DFD7DFF7F007E0412A3
:1035B30039E47F0F7E04123900E48F778E76F57538
:1035C300F5747F0E7E041239007E00EF5403FFE48E
:1035D300FCFDC004C005C006C007AF77AE76AD756D
:1035E300AC747802120600D003D002D001D00012CE
:1035F30005C1228F4A8E498D488C47E4FFFE7DA08A
:103603007C41AB4AAA49A948A84712013E7B007AEC
:10361300C8792F784C12196FF9783F1219527B0D24
:103623007A007D027C0012382CAC07E41203677B1E
:10363300007AC8792F784C12013E7B807A967918EC
:10364300784B12004D12224922E4FFFEFDFCAB35FC
:10365300AA34A933A8320202E4742D252FF8E622F6
:10366300742B252FF8E622E52F25E025E024FEF52F
:1036730082E43403F58322F582E4343EF583E49354
:10368300FE740193FF22E54225E024EAF582E43447
:1036930003F58322AF3AAE39AD38AC37228F3E8E75
:1036A3003D8D3C8C3B7F057E011239008E3FEF54EC
:1036B300E9F54012192BAB3EAA3DA93CA83B1202E7
:1036C300E4600250124340107B017A00E4FD7F0B5B
:1036D3007E0112332C8003434006AD40AC3F7F058F
:1036E3007E01023A287F207E001239008E508F51CE
:1036F300E5515403640270307B01FA7D107F20FE94
:1037030012332C7B017A00E4FD7F0D7E0112332CF2
:103713007B017A007DEE7F007E0112332CAD51AC2C
:10372300507F207E00123A28227F2B7E0012390020
:103733008F828E83E58364027F2B1237647F2B1283
:103743002D07123A287F207E001239008E838F8244
:10375300E58354557F201237647F20122D07023AE8
:1037630028FCAD827E00123A28227F827E00123925
:10377300008F828E837F207E00123900AD07AC0656
:10378300ED5403640170084305145382EB80064330
:1037930005285382F57F207E00123A28AD82AC8340
:1037A3007F827E00023A287907E925E0246BF582BF
:1037B300E4343FF583E493FE740193FFE925E024A9
:1037C30079F582E4343FF583E493FC740193FD12AD
:1037D3003A28D9D57BFF7AB97DF87F207E01023361
:1037E3002CA905123900AC06AD07E9C4540F04FF38
:1037F30074FFFEA807088005C333CE33CED8F9F48F
:10380300FFEEF45CFEED5FFFE9540FFDEFA8050842
:103813008005CEC313CE13D8F9FF22FEC3E4955916
:10382300FDE49558FCAB59AA58C3EF9DEC6480F8AE
:10383300EE6480985005AE04AF0522D3EF9BEA6493
:1038430080F8EE6480984005AE02AF032222C0E008
:10385300C0D075D000C000C006C0077590FF7F02BE
:10386300740A2FF8E6FE740B2FF8A606DFF28580A4
:103873000B759000D007D006D000D0D0D0E0321224
:10388300397A1239FDD2A27D10D2A0123A4CEB251F
:10389300E0FBEA33FA30A303430301C2A0123A4C1C
:1038A300DDE7D2A1D2A2AE02AF032204154A989655
:1038B3008002130001011200021DFF0004194BEAEC
:1038C3006000C10AC189C108020E002D0208020C62
:1038D3000210040B007DFF7C7F7F0C7E02123A28CE
:1038E3007D557F007E021239E47D007C807F0C7E53
:1038F30002123A287D667F007E020239E412397A89
:10390300123A5CD2A27D10D2A0EB25E0FBEA33FA97
:1039130030A303430301C2A0DDEDD2A1D2A2AE02C4
:10392300AF0322C28CE51DF58CE51EF58AC28DD24C
:103933008C308DFD3007067E017F2380047E007F5F
:103943008C7DDC1237E4227590FFAF0FAE0E123977
:10395300008F828E83AF09AE08123900AD07AC0623
:10396300AF82AE83123A3A7F0022AB05AA04C2A00B
:10397300C2A1EE4480FE22E4FBFAC2A0C2A1EE542F
:103983007FFE22EF25E0FFEE33FED2A022EFC394A9
:103993001550037F0122EFC3940D50037F0222EFE2
:1039A300C394087F0050027F03227DDC7F237E01C6
:1039B3001237E4EF64024E7002D322D2061214BF10
:1039C300EFC37001D3227590FFAF0FAE0E12390013
:1039D300123882AD07AC06AF11AE10123A287F0041
:1039E300228E788F798D7AE4FBFA12332C7B017A5D
:1039F30000AD7AAF79AE7802332C7D10C2A0123AB3
:103A03004CEE3392A2123A4C123986123A4CDDEC48
:103A1300C2A02274017E00A807088005C333CE33F9
:103A2300CED8F9FF2212396D123A5CAF03AE0212FF
:103A33003A5CD2A1D2A22212396D1239FDAF03AE84
:103A4300021239FDD2A1D2A222C28C758CFF758AD3
:103A5300F0C28DD28C308DFD227D10C2A0EE339248
:103A6300A2123986DDF5C2A022EE30E707C3E49F38
:103A7300FFE49EFE227590FF85800AD20AD20832A7
:103A830049AAE6004CF7F4904A9896804C18968021
:103A93004C3EBC204CF7F4900085010D011301143A
:103AA3000084008B000101000004001004002100C9
:103AB30000070188003C001FF83FC1FF0082008619
:103AC300008700880089008A008C0100010101023F
:103AD3000103010401050106010701080109010AA7
:103AE300010C01150116011701180119011A020031
:103AF300020102020203020402050206020702088F
:103B0300020902400400040104020403040404053E
:103B13000406040704080409040A040C0440008191
:103B2300800349010400078000200514067B340943
:103B330060013180061200880007318C318C042625
:103B430061C1104C88C500098180280C018C528BFF
:103B53002E02008D07FF07FF000000000000000099
:103B63000000207000000020008107FF07FF4000D5
:103B730000000000000000000000000010012038D9
:103B83000020FF3A9BFF3AA7FF3AB306FF3ABFFF75
:103B93003B2332310108FA021E01011352020E01C6
:103BA300008200850100010C010D0084008B80015F
:103BB300000100000000001E040021001FFF000799
:103BC30000010001001EF83FC1FF00860087008846
:103BD3000089008A008C010501060107010801091B
:103BE300010A01150116011701180119011A020032
:103BF300020102020203020402050206020702088E
:103C03000240024104000401040204030404040505
:103C13000406040704080409040A040C04400441CC
:103C2300008149010400078000200514067B30074A
:103C3300318C318C058C61C1104C000D8180280CB6
:103C4300618C528C2E02008D07FF07FF00000000DD
:103C5300000000000000007000200000008107FF4A
:103C630007FF40000000000000000000000000000B
:103C73001001203800200000FF3BA3FF3BB1FF3BB6
:103C8300BF07FF3BCDFF3C252C2B010AC8FF0001DA
:103C9300010AC8011F000108FA012B0100080004F2
:103CA3000000FFFAFFF5FFF0FFECFFEAFFEAFFEC8D
:103CB300FFF2FFFB000600140022002E0038003D37
:103CC300003A0030001D0003FFE3FFC1FFA0FF85A2
:103CD300FF74FF72FF80FFA2FFD40014005D00A7F2
:103CE30000E80118012E012300F4009F0029FF9A28
:103CF300FEFEFE67FDE5FD8CFD6EFD9AFE1AFEF3EA
:103D03000022019D03540530071608E80A890BDEDB
:103D13000CCD0D4903FF008000080084008500AE30
:103D23000101011302000201020202080400000162
:103D3300F0000001001C000C07FF07FF0000F8FF64
:103D43000007F0001801003C000C07FF07FFF10B10
:103D5300010C011201150116011701180119011AAD
:103D63000400040104020403040404050406040714
:103D730004080409040A040C0440044204430081B7
:103D830088E5403200058180280C218C31802E0289
:103D9300008107FF07FF400000000000000007004C
:103DA3000000000010012098002000000000FF3DEB
:103DB3001DFF3D2FFF3D4109FF3D53FF3D83181775
:103DC3000084008500AE010C010D011301150119DA
:103DD30004000001F00000000040000C000000009F
:103DE300F8FF0007F000001A0040003CC00080000C
:103DF300010001010102010301040105010601079C
:103E030001080109010A020002010202020802403C
:103E130004000401040204030407040A040C04401C
:103E230005C005CB02030204020502060207024194
:103E330004040405040604080409044105C105C279
:103E430005C305C405C505C605C705C805C905CA13
:103E530005CC00813408600131800A120088000714
:103E6300318C318C042661C1104C008D07FF07FF94
:103E730020700020008107FF07FF400007001000AB
:103E83002098002000FF2020FF3DC3FF3DD3FF3DCE
:103E9300E308FF3DF3FF3E57321A70000081010F24
:103EA3000126040A040C0001001100210002001283
:103EB30000220032001300230033004300240034A7
:103EC3000044005400350045005500650046005687
:103ED3000066007600570067007700870068007867
:103EE3000088009800790089009900A900AA00BA07
:103EF30000CA00DA00DB00EB00FB010B011B012B06
:103F0300013B014B015B016B017B018B019B01AB0E
:103F130001BB01CB01DB01EB01FB01FC01FD01FE58
:103F230001FF0021002F00810082008400840085AE
:103F330000850086008C009200A700A800A800ADB1
:103F430000AE010001040105010A010C0114011571
:103F5300011A0200020C024002610400040F044033
:103F63000461050005A705C005C0011C011D011E54
:103F7300011F012101220123AD43040007803640C4
:063F83003404033F067B3D
:00000001FF
