:060000000200590201207C
:03000B0002042AC2
:03001300020138AF
:03001B000204C319
:030023000207DEF3
:03002B0002080FB9
:01003300329A
:03003B000207B009
:030043000207C0F1
:03004B000207CADF
:030053000207D4CD
:0300B200020056F3
:03005600020A4259
:2000B500752F7F7582FF75830374A1F074FFE0F530C394A17002C27878FE75BF0374A2F241
:2000D50074FFE2F531C394A27002C27979FD75BF0374A3F374FFE3F532C394A37002C27A0E
:2000F500750FA4740FF8E6F533C394A47002C27B790E77A5E50EF534C394A57002C27C0025
:2001150075EC3575880575A8850022C0E0C0D074A6F535C394A67004C27DC2A80000D0D040
:20013500D0E032C0E0C0D074A7F536C394A77004C27EC2AA0000D0D0D0E032752F77758C96
:200155001F758A52758DFE758BA375891075885075A88A752B07752C070022752F7775EC88
:2001750011758CFC758AFC758DFC758BFE75896675885075A88A752B07752C070022752FF8
:200195007775A8A075CAA375CBFE75CCA375CDFE75C80C752D070022752F7775EC11758C30
:2001B500FE758A0A75890175881075A882759800C29FD29E75CA9F75CBFF75CC9F75CDFF5C
:2001D50075C804D2CC752B07752D007599AA0022752F7775EC11758921758CFE758A0A75DF
:2001F5008BF0758DF075878075885075A882759800C29FD29ED29C752C00752B07752D00DF
:200215000022752F7775EC1175ED35758CFC758AFE758DFC758BFC7589EE75885075A88AAF
:20023500752B07752C07752D000022752FFF752B64752000752101752202752303752404F2
:20025500752505752606752707E52B79A0F794647002C2787401C2D3C2D478202879A1F771
:2002750094217002C279742179242979A2F794457002C27A74457924989979A3F794017074
:2002950002C27B7401D2D3C2D47821792526F5F027F5F079A4F794077002C27C7407782199
:2002B50079259697F5F0C2D3D2D47822792625222526F5F079A5F794097002C27D74097935
:2002D50026952297F5F0D2D3D2D478237927262407F5F079A6F7740B7927940397F5F07933
:2002F500A7F77401C2D3C2D478237921D3383735253401F5F079A8F7742C782304F5F0087C
:2003150088F0E8F5F079A9F794247002C27EE521792107E779AAF794027002C27F00227578
:200335002FFFC2D3C2D4752B0578087508077F0374055F79B0F794017002C27874085679A0
:20035500B1F794007002C2797409522B532B0FE52B79B2F794017002C27A74014F752B0C33
:20037500452B79B3F7940F7002C27B7403464401422BE52B79B4F7940F7002C27C740F68A2
:20039500652B66640579B5F7940A7002C27D632B05E52B79B6F7940A7002C27E740FF4C421
:2003B5002333333333130379B7F794787002C27F0022752FFFD3C3D200C200400679C07758
:2003D500AAC278B3500679C177AAC279B20000B20010000679C277AAC27A8200B0004006FB
:2003F50079C377AAC27B7200400679C477AAC27CC3400679C577AAC27DA000500679C677A7
:20041500AAC27ED200A200B3920010000679C777AAC27F0022C0E0C007C000C0D075D0004E
:200435007828B60210E52B2440F8A62B758C1E758AA30080527828B6030AE52B2450F8A6EA
:200455002B0080437828B6051CE52B2470F8A62BE52B94007006C2CCC299C2CA758CFE75B2
:200475008A0A0080227828B60610E52B2480F8A62B758CFE758A0A00800D7828B60708E569
:200495002B2490F8A62B00782CE6C454F0FF782BE62F782FF6782BE67006C28CC2A980057C
:2004B500782B16D28CD0D0D000D007D0E032C0E0C007C000C0D075D0007828B6020E758D83
:2004D500FE758BA3E52C2448F8A62C007828B60308E52C2458F8A62C007828B60708E52CF1
:2004F5002498F8A62C00782CE6C454F0FF782BE62F782FF6782CE67006C28EC2AB800578C1
:200515002C16D28ED0D0D000D007D0E032752FFF78000874FE48F8740F58F818740F98F828
:20053500D8027802D3740138C328780668B40006788876AAC27879000974FE49F9740F59DB
:20055500F919740F99F9D9027902D3740139C329790669B40006788976AAC2797A000A74A6
:20057500FE4AFA740F5AFA1A740F9AFADA027A02D374013AC32A7A066AB40006788A76AA8F
:20059500C27A7B000B74FE4BFB740F5BFB1B740F9BFBDB027B02D374013BC32B7B066BB454
:2005B5000006788B76AAC27B7C000C74FE4CFC740F5CFC1C740F9CFCDC027C02D374013C8C
:2005D500C32C7C066CB40006788C76AAC27C7D000D74FE4DFD740F5DFD1D740F9DFDDD02D1
:2005F5007D02D374013DC32D7D066DB40006788D76AAC27D7E000E74FE4EFE740F5EFE1E9D
:20061500740F9EFEDE027E02D374013EC32E7E066EB40006788E76AAC27E7F000F74FE4F6E
:20063500FF740F5FFF1F740F9FFFDF027F02D374013FC32F7F066FB40006788F76AAC27F94
:2006550022752FFF74FF75F0FFA4B4010F78B8F6C278E5F0B4FE05C27978B9F674AA75F0B0
:20067500BBA4B42E0F78BAF6C27AE5F0B47C05C27B78BBF674CC75F099A4B4EC0F78BCF686
:20069500C27CE5F0B47905C27D78BDF6740075F0FFA4B4000F78BEF6C27EE5F0B4000578E5
:2006B500BFF6C27F22752FFF74FF75F00184B4FF0F78C8F6C278E5F0B40005C27978C9F6DB
:2006D50074AA75F00B84B40F0F78CAF6C27AE5F0B40505C27B78CBF674CC75F00984B416A8
:2006F5000F78CCF6C27CE5F0B40605C27D78CDF674FF75F00084B4000F78CEF6C27EE5F0E0
:20071500B4000578CFF6C27F22752FFFC340057537A8C278D350037537A8D200200003754E
:2007350037003000057538A9C27910000375380074AA700375380074006003753800752B85
:2007550000B52B037539AA746FB46F05753AABC27A747F7903B90103753A00782075200799
:20077500B60705753BACC27B752B01D52B05753CADC27CF198753EAF7801D805753FB0C260
:200795007DE1AC740290079E73E1A3E1A600753C00753DAEC27E2200C27F22C000C0D07576
:2007B500D00078297601D0D0D0003275A20085809075A2FF3275A20085809075A2FF32753D
:2007D500A20085809075A2FF32C0E0C007C000C0D075D000309816782C7600782CE6C454EF
:2007F500F0FF782BE62F782FF6C28EC2ACC298C299D0D0D000D007D0E032C0E0C001C000E3
:20081500C0D075D000C2CFC2CEE52D2460F8A62D00782D792FE6F7782DE67006C2CAC2AD46
:200835008003782D16D0D0D000D001D0E03278F0760078F0B6FA00500800000078F0068006
:20085500F122000000000000000000000000000000000022AE82AF83C2A0C2A143078078E5
:200875006C7600087680787876107878E66034786CE65EFC08E65FFD4C6004D2A28002C2CD
:20089500A2786DE618C313C613C608F6C007C006120857D2A0120857D006D007C2A078786B
:2008B5001680C7786C7600087680787876107878E6602E786CE65508FE08E65509FF4E6076
:2008D50004D2A28002C2A2786DE618C313C613C608F6120857D2A0120857C2A07878168013
:2008F500CDD2A1D2A2120857C2A022AE82AF83C2A0C2A1786C760008768078787610787855
:20091500E66034786CE65EFC08E65FFD4C6004D2A28002C2A2786DE618C313C613C608F67A
:20093500C007C006120857D2A0120857D006D007C2A078781680C7D2A2786C760008768099
:20095500786AE4F608F6787876107878E66029120857D2A030A30C786A796CE746F609E757
:200975000846F6786DE618C313C613C608F6120857C2A078781680D2D2A1D2A2120857C283
:20099500A022782F76027868768008760278688682088683120900786A796EE6F70809E65A
:2009B500F7786A7655087655786A860808860978688682088683120869786AE4F608F678F6
:2009D500688682088683120900786AB6550B08B65507782F1678797655786A76AA0876AAB1
:2009F500786A860808860978688682088683120869786AE4F608F678688682088683120991
:200A150000786AB6AA0B08B6AA07782F16787A76AA786E796AE6F70809E6F7786A8608082A
:200A3500860978688682088683120869227581D075800F75900075A2FF7591FF75A10778F5
:200A5500FF74000075880075A93C75A880782976007829B601FB78297600782876017828E2
:200A750086907828E624F040E87828B6010A782E76021200B5020B567828B6020A782E7662
:200A950032120150020B567828B6030A782E7632120170020B567828B6040A782E763212EE
:200AB5000193020B567828B6050A782E76321201AD020B567828B6060A782E76321201E5A8
:200AD500020B567828B6070A782E7632120217020B567828B6080A782E7602120240020B74
:200AF500567828B60909782E760212033480527828B60A09782E76021203C780447828B66D
:200B15000B09782E760212071E80367828B60C09782E760212052280287828B60D09782E25
:200B35007602120656801A7828B60E09782E76021206BA800C7828B60F07782E7602120992
:200B550097782A7601782A792EC3E796401D12084375800E12084375800F12084375800DCA
:200B750012084375800F782A0680DA120843782FE6700A78280678288690020A77782874A6
:0C0B95003026F59078287610020A7722AE
:06008800E478FFF6D8FD4C
:200066007900E94400601B7A00900BA5780175A000E493F2A308B8000205A0D9F4DAF27590
:02008600A0FFD9
:20008E007800E84400600A790175A000E4F309D8FC7800E84400600C7900900001E4F0A370
:0400AE00D8FCD9FAA7
:0D005900758120120BA1E5826003020056A4
:040BA1007582002237
:00000001FF
